{
	"contracts/Pickr.sol": {
		"Pickr": {
			"abi": [
				{
					"inputs": [],
					"stateMutability": "nonpayable",
					"type": "constructor"
				},
				{
					"inputs": [
						{
							"internalType": "bytes32",
							"name": "codeHash",
							"type": "bytes32"
						},
						{
							"internalType": "address",
							"name": "addr",
							"type": "address"
						}
					],
					"name": "ErrorAddressIsNotParticipant",
					"type": "error"
				},
				{
					"inputs": [
						{
							"internalType": "bytes32",
							"name": "codeHash",
							"type": "bytes32"
						}
					],
					"name": "ErrorCodeAlreadyUsed",
					"type": "error"
				},
				{
					"inputs": [],
					"name": "ErrorCodeIsRequired",
					"type": "error"
				},
				{
					"inputs": [],
					"name": "ErrorDepositRequired",
					"type": "error"
				},
				{
					"inputs": [
						{
							"internalType": "bytes32",
							"name": "codeHash",
							"type": "bytes32"
						}
					],
					"name": "ErrorInvalidWinner",
					"type": "error"
				},
				{
					"inputs": [],
					"name": "ErrorMaxParticipantLessThanMin",
					"type": "error"
				},
				{
					"inputs": [],
					"name": "ErrorMinParticipantMustBeGreaterThanZero",
					"type": "error"
				},
				{
					"inputs": [
						{
							"internalType": "bytes32",
							"name": "codeHash",
							"type": "bytes32"
						}
					],
					"name": "ErrorNoBalance",
					"type": "error"
				},
				{
					"inputs": [
						{
							"internalType": "address",
							"name": "caller",
							"type": "address"
						}
					],
					"name": "ErrorNotAuthorized",
					"type": "error"
				},
				{
					"inputs": [
						{
							"internalType": "bytes32",
							"name": "codeHash",
							"type": "bytes32"
						}
					],
					"name": "ErrorNotEnoughParticipant",
					"type": "error"
				},
				{
					"inputs": [
						{
							"internalType": "bytes32",
							"name": "codeHash",
							"type": "bytes32"
						}
					],
					"name": "ErrorRaffleIsFull",
					"type": "error"
				},
				{
					"inputs": [
						{
							"internalType": "bytes32",
							"name": "codeHash",
							"type": "bytes32"
						}
					],
					"name": "ErrorRaffleIsNotActive",
					"type": "error"
				},
				{
					"inputs": [
						{
							"internalType": "bytes32",
							"name": "codeHash",
							"type": "bytes32"
						}
					],
					"name": "ErrorRaffleIsNotExist",
					"type": "error"
				},
				{
					"inputs": [
						{
							"internalType": "bytes32",
							"name": "codeHash",
							"type": "bytes32"
						}
					],
					"name": "ErrorRaffleIsNotStarted",
					"type": "error"
				},
				{
					"inputs": [
						{
							"internalType": "bytes32",
							"name": "codeHash",
							"type": "bytes32"
						}
					],
					"name": "ErrorUserAlreadyJoinRaffle",
					"type": "error"
				},
				{
					"inputs": [
						{
							"internalType": "bytes32",
							"name": "codeHash",
							"type": "bytes32"
						}
					],
					"name": "ErrorUserIsNotParticipant",
					"type": "error"
				},
				{
					"inputs": [
						{
							"internalType": "bytes32",
							"name": "codeHash",
							"type": "bytes32"
						}
					],
					"name": "ErrorUserIsTheRaffleOwner",
					"type": "error"
				},
				{
					"inputs": [
						{
							"internalType": "bytes32",
							"name": "codeHash",
							"type": "bytes32"
						}
					],
					"name": "closeRaffle",
					"outputs": [],
					"stateMutability": "nonpayable",
					"type": "function"
				},
				{
					"inputs": [
						{
							"internalType": "uint256",
							"name": "minParticipant",
							"type": "uint256"
						},
						{
							"internalType": "uint256",
							"name": "maxParticipant",
							"type": "uint256"
						},
						{
							"internalType": "bytes32",
							"name": "codeHash",
							"type": "bytes32"
						}
					],
					"name": "createRaffle",
					"outputs": [],
					"stateMutability": "payable",
					"type": "function"
				},
				{
					"inputs": [
						{
							"internalType": "bytes32",
							"name": "codeHash",
							"type": "bytes32"
						}
					],
					"name": "deposit",
					"outputs": [],
					"stateMutability": "payable",
					"type": "function"
				},
				{
					"inputs": [
						{
							"internalType": "address",
							"name": "creator",
							"type": "address"
						}
					],
					"name": "getUserRaffleCodes",
					"outputs": [
						{
							"internalType": "bytes32[]",
							"name": "",
							"type": "bytes32[]"
						}
					],
					"stateMutability": "view",
					"type": "function"
				},
				{
					"inputs": [
						{
							"internalType": "address",
							"name": "creator",
							"type": "address"
						}
					],
					"name": "getUserRaffles",
					"outputs": [
						{
							"components": [
								{
									"internalType": "address",
									"name": "creator",
									"type": "address"
								},
								{
									"internalType": "uint256",
									"name": "balance",
									"type": "uint256"
								},
								{
									"internalType": "enum IPickr.RaffleStatus",
									"name": "status",
									"type": "uint8"
								},
								{
									"internalType": "uint256",
									"name": "maxParticipant",
									"type": "uint256"
								},
								{
									"internalType": "uint256",
									"name": "minParticipant",
									"type": "uint256"
								},
								{
									"internalType": "uint256",
									"name": "totalParticipant",
									"type": "uint256"
								},
								{
									"internalType": "uint64",
									"name": "createdAt",
									"type": "uint64"
								}
							],
							"internalType": "struct IPickr.Raffle[]",
							"name": "",
							"type": "tuple[]"
						},
						{
							"internalType": "bytes32[]",
							"name": "",
							"type": "bytes32[]"
						}
					],
					"stateMutability": "view",
					"type": "function"
				},
				{
					"inputs": [
						{
							"internalType": "bytes32",
							"name": "codeHash",
							"type": "bytes32"
						}
					],
					"name": "joinRaffle",
					"outputs": [],
					"stateMutability": "nonpayable",
					"type": "function"
				},
				{
					"inputs": [
						{
							"internalType": "bytes32",
							"name": "codeHash",
							"type": "bytes32"
						}
					],
					"name": "leaveRaffle",
					"outputs": [],
					"stateMutability": "nonpayable",
					"type": "function"
				},
				{
					"inputs": [],
					"name": "owner",
					"outputs": [
						{
							"internalType": "address",
							"name": "",
							"type": "address"
						}
					],
					"stateMutability": "view",
					"type": "function"
				},
				{
					"inputs": [
						{
							"internalType": "bytes32",
							"name": "codeHash",
							"type": "bytes32"
						}
					],
					"name": "raffleParticipants",
					"outputs": [
						{
							"internalType": "address[]",
							"name": "",
							"type": "address[]"
						}
					],
					"stateMutability": "view",
					"type": "function"
				},
				{
					"inputs": [
						{
							"internalType": "bytes32",
							"name": "codeHash",
							"type": "bytes32"
						}
					],
					"name": "raffles",
					"outputs": [
						{
							"internalType": "address",
							"name": "creator",
							"type": "address"
						},
						{
							"internalType": "uint256",
							"name": "balance",
							"type": "uint256"
						},
						{
							"internalType": "enum IPickr.RaffleStatus",
							"name": "status",
							"type": "uint8"
						},
						{
							"internalType": "uint256",
							"name": "maxParticipant",
							"type": "uint256"
						},
						{
							"internalType": "uint256",
							"name": "minParticipant",
							"type": "uint256"
						},
						{
							"internalType": "uint256",
							"name": "totalParticipant",
							"type": "uint256"
						},
						{
							"internalType": "uint64",
							"name": "createdAt",
							"type": "uint64"
						}
					],
					"stateMutability": "view",
					"type": "function"
				},
				{
					"inputs": [
						{
							"internalType": "bytes32",
							"name": "codeHash",
							"type": "bytes32"
						}
					],
					"name": "startRaffle",
					"outputs": [],
					"stateMutability": "nonpayable",
					"type": "function"
				},
				{
					"inputs": [
						{
							"internalType": "bytes32",
							"name": "codeHash",
							"type": "bytes32"
						},
						{
							"internalType": "address",
							"name": "winner",
							"type": "address"
						}
					],
					"name": "winnerSelected",
					"outputs": [],
					"stateMutability": "nonpayable",
					"type": "function"
				},
				{
					"inputs": [
						{
							"internalType": "bytes32",
							"name": "codeHash",
							"type": "bytes32"
						}
					],
					"name": "winners",
					"outputs": [
						{
							"internalType": "address",
							"name": "",
							"type": "address"
						}
					],
					"stateMutability": "view",
					"type": "function"
				},
				{
					"stateMutability": "payable",
					"type": "receive"
				}
			],
			"devdoc": {
				"kind": "dev",
				"methods": {},
				"version": 1
			},
			"evm": {
				"assembly": "    /* \"contracts/Pickr.sol\":101:6499  contract Pickr is IPickr {... */\n  mstore(0x40, 0xa0)\n    /* \"contracts/Pickr.sol\":132:181  constructor() {... */\n  callvalue\n  dup1\n  iszero\n  tag_1\n  jumpi\n  0x00\n  dup1\n  revert\ntag_1:\n  pop\n    /* \"contracts/Pickr.sol\":164:174  msg.sender */\n  caller\n    /* \"contracts/Pickr.sol\":156:174  owner = msg.sender */\n  0xffffffffffffffffffffffffffffffffffffffff\n  and\n  0x80\n  dup2\n  0xffffffffffffffffffffffffffffffffffffffff\n  and\n  dup2\n  mstore\n  pop\n  pop\n    /* \"contracts/Pickr.sol\":101:6499  contract Pickr is IPickr {... */\n  mload(0x80)\n  codecopy(0x00, dataOffset(sub_0), dataSize(sub_0))\n  0x00\n  assignImmutable(\"0xcc1431a2586c1e11fb75c87e5ee58e4204126a9fdde07075c91770f50276cbb0\")\n  return(0x00, dataSize(sub_0))\nstop\n\nsub_0: assembly {\n        /* \"contracts/Pickr.sol\":101:6499  contract Pickr is IPickr {... */\n      mstore(0x40, 0x80)\n      jumpi(tag_1, lt(calldatasize, 0x04))\n      shr(0xe0, calldataload(0x00))\n      dup1\n      0xb11bb992\n      gt\n      tag_16\n      jumpi\n      dup1\n      0xd200ff66\n      gt\n      tag_17\n      jumpi\n      dup1\n      0xd200ff66\n      eq\n      tag_12\n      jumpi\n      dup1\n      0xd70da460\n      eq\n      tag_13\n      jumpi\n      dup1\n      0xe040ced6\n      eq\n      tag_14\n      jumpi\n      dup1\n      0xe31ef12c\n      eq\n      tag_15\n      jumpi\n      jump(tag_2)\n    tag_17:\n      dup1\n      0xb11bb992\n      eq\n      tag_9\n      jumpi\n      dup1\n      0xb214faa5\n      eq\n      tag_10\n      jumpi\n      dup1\n      0xb48d3baa\n      eq\n      tag_11\n      jumpi\n      jump(tag_2)\n    tag_16:\n      dup1\n      0x4277f4fd\n      eq\n      tag_3\n      jumpi\n      dup1\n      0x587f962e\n      eq\n      tag_4\n      jumpi\n      dup1\n      0x647b5354\n      eq\n      tag_5\n      jumpi\n      dup1\n      0x8da5cb5b\n      eq\n      tag_6\n      jumpi\n      dup1\n      0x98d71138\n      eq\n      tag_7\n      jumpi\n      dup1\n      0xa0cd532d\n      eq\n      tag_8\n      jumpi\n      jump(tag_2)\n    tag_1:\n      jumpi(tag_2, calldatasize)\n        /* \"contracts/Pickr.sol\":6446:6490  revert(\"use createRaffle/deposit with code\") */\n      mload(0x40)\n      0x08c379a000000000000000000000000000000000000000000000000000000000\n      dup2\n      mstore\n      0x04\n      add\n      tag_20\n      swap1\n      tag_21\n      jump\t// in\n    tag_20:\n      mload(0x40)\n      dup1\n      swap2\n      sub\n      swap1\n      revert\n        /* \"contracts/Pickr.sol\":101:6499  contract Pickr is IPickr {... */\n    tag_2:\n      0x00\n      dup1\n      revert\n        /* \"contracts/Pickr.sol\":704:755  mapping(bytes32 codeHash => address) public winners */\n    tag_3:\n      callvalue\n      dup1\n      iszero\n      tag_22\n      jumpi\n      0x00\n      dup1\n      revert\n    tag_22:\n      pop\n      tag_23\n      0x04\n      dup1\n      calldatasize\n      sub\n      dup2\n      add\n      swap1\n      tag_24\n      swap2\n      swap1\n      tag_25\n      jump\t// in\n    tag_24:\n      tag_26\n      jump\t// in\n    tag_23:\n      mload(0x40)\n      tag_27\n      swap2\n      swap1\n      tag_28\n      jump\t// in\n    tag_27:\n      mload(0x40)\n      dup1\n      swap2\n      sub\n      swap1\n      return\n        /* \"contracts/Pickr.sol\":3540:4328  function joinRaffle(bytes32 codeHash) external {... */\n    tag_4:\n      callvalue\n      dup1\n      iszero\n      tag_29\n      jumpi\n      0x00\n      dup1\n      revert\n    tag_29:\n      pop\n      tag_30\n      0x04\n      dup1\n      calldatasize\n      sub\n      dup2\n      add\n      swap1\n      tag_31\n      swap2\n      swap1\n      tag_25\n      jump\t// in\n    tag_31:\n      tag_32\n      jump\t// in\n    tag_30:\n      stop\n        /* \"contracts/Pickr.sol\":5207:5722  function closeRaffle(bytes32 codeHash) external onlyCreator(codeHash) {... */\n    tag_5:\n      callvalue\n      dup1\n      iszero\n      tag_33\n      jumpi\n      0x00\n      dup1\n      revert\n    tag_33:\n      pop\n      tag_34\n      0x04\n      dup1\n      calldatasize\n      sub\n      dup2\n      add\n      swap1\n      tag_35\n      swap2\n      swap1\n      tag_25\n      jump\t// in\n    tag_35:\n      tag_36\n      jump\t// in\n    tag_34:\n      stop\n        /* \"contracts/Pickr.sol\":469:499  address public immutable owner */\n    tag_6:\n      callvalue\n      dup1\n      iszero\n      tag_37\n      jumpi\n      0x00\n      dup1\n      revert\n    tag_37:\n      pop\n      tag_38\n      tag_39\n      jump\t// in\n    tag_38:\n      mload(0x40)\n      tag_40\n      swap2\n      swap1\n      tag_28\n      jump\t// in\n    tag_40:\n      mload(0x40)\n      dup1\n      swap2\n      sub\n      swap1\n      return\n        /* \"contracts/Pickr.sol\":6026:6403  function getUserRaffles(... */\n    tag_7:\n      callvalue\n      dup1\n      iszero\n      tag_41\n      jumpi\n      0x00\n      dup1\n      revert\n    tag_41:\n      pop\n      tag_42\n      0x04\n      dup1\n      calldatasize\n      sub\n      dup2\n      add\n      swap1\n      tag_43\n      swap2\n      swap1\n      tag_44\n      jump\t// in\n    tag_43:\n      tag_45\n      jump\t// in\n    tag_42:\n      mload(0x40)\n      tag_46\n      swap3\n      swap2\n      swap1\n      tag_47\n      jump\t// in\n    tag_46:\n      mload(0x40)\n      dup1\n      swap2\n      sub\n      swap1\n      return\n        /* \"contracts/Pickr.sol\":853:1729  function createRaffle(... */\n    tag_8:\n      tag_48\n      0x04\n      dup1\n      calldatasize\n      sub\n      dup2\n      add\n      swap1\n      tag_49\n      swap2\n      swap1\n      tag_50\n      jump\t// in\n    tag_49:\n      tag_51\n      jump\t// in\n    tag_48:\n      stop\n        /* \"contracts/Pickr.sol\":2166:2587  function startRaffle(bytes32 codeHash) external onlyCreator(codeHash) {... */\n    tag_9:\n      callvalue\n      dup1\n      iszero\n      tag_52\n      jumpi\n      0x00\n      dup1\n      revert\n    tag_52:\n      pop\n      tag_53\n      0x04\n      dup1\n      calldatasize\n      sub\n      dup2\n      add\n      swap1\n      tag_54\n      swap2\n      swap1\n      tag_25\n      jump\t// in\n    tag_54:\n      tag_55\n      jump\t// in\n    tag_53:\n      stop\n        /* \"contracts/Pickr.sol\":1735:2160  function deposit(bytes32 codeHash) external payable onlyCreator(codeHash) {... */\n    tag_10:\n      tag_56\n      0x04\n      dup1\n      calldatasize\n      sub\n      dup2\n      add\n      swap1\n      tag_57\n      swap2\n      swap1\n      tag_25\n      jump\t// in\n    tag_57:\n      tag_58\n      jump\t// in\n    tag_56:\n      stop\n        /* \"contracts/Pickr.sol\":2593:3381  function winnerSelected(... */\n    tag_11:\n      callvalue\n      dup1\n      iszero\n      tag_59\n      jumpi\n      0x00\n      dup1\n      revert\n    tag_59:\n      pop\n      tag_60\n      0x04\n      dup1\n      calldatasize\n      sub\n      dup2\n      add\n      swap1\n      tag_61\n      swap2\n      swap1\n      tag_62\n      jump\t// in\n    tag_61:\n      tag_63\n      jump\t// in\n    tag_60:\n      stop\n        /* \"contracts/Pickr.sol\":4334:5201  function leaveRaffle(bytes32 codeHash) external {... */\n    tag_12:\n      callvalue\n      dup1\n      iszero\n      tag_64\n      jumpi\n      0x00\n      dup1\n      revert\n    tag_64:\n      pop\n      tag_65\n      0x04\n      dup1\n      calldatasize\n      sub\n      dup2\n      add\n      swap1\n      tag_66\n      swap2\n      swap1\n      tag_25\n      jump\t// in\n    tag_66:\n      tag_67\n      jump\t// in\n    tag_65:\n      stop\n        /* \"contracts/Pickr.sol\":3387:3534  function raffleParticipants(... */\n    tag_13:\n      callvalue\n      dup1\n      iszero\n      tag_68\n      jumpi\n      0x00\n      dup1\n      revert\n    tag_68:\n      pop\n      tag_69\n      0x04\n      dup1\n      calldatasize\n      sub\n      dup2\n      add\n      swap1\n      tag_70\n      swap2\n      swap1\n      tag_25\n      jump\t// in\n    tag_70:\n      tag_71\n      jump\t// in\n    tag_69:\n      mload(0x40)\n      tag_72\n      swap2\n      swap1\n      tag_73\n      jump\t// in\n    tag_72:\n      mload(0x40)\n      dup1\n      swap2\n      sub\n      swap1\n      return\n        /* \"contracts/Pickr.sol\":5867:6020  function getUserRaffleCodes(... */\n    tag_14:\n      callvalue\n      dup1\n      iszero\n      tag_74\n      jumpi\n      0x00\n      dup1\n      revert\n    tag_74:\n      pop\n      tag_75\n      0x04\n      dup1\n      calldatasize\n      sub\n      dup2\n      add\n      swap1\n      tag_76\n      swap2\n      swap1\n      tag_44\n      jump\t// in\n    tag_76:\n      tag_77\n      jump\t// in\n    tag_75:\n      mload(0x40)\n      tag_78\n      swap2\n      swap1\n      tag_79\n      jump\t// in\n    tag_78:\n      mload(0x40)\n      dup1\n      swap2\n      sub\n      swap1\n      return\n        /* \"contracts/Pickr.sol\":506:556  mapping(bytes32 codeHash => Raffle) public raffles */\n    tag_15:\n      callvalue\n      dup1\n      iszero\n      tag_80\n      jumpi\n      0x00\n      dup1\n      revert\n    tag_80:\n      pop\n      tag_81\n      0x04\n      dup1\n      calldatasize\n      sub\n      dup2\n      add\n      swap1\n      tag_82\n      swap2\n      swap1\n      tag_25\n      jump\t// in\n    tag_82:\n      tag_83\n      jump\t// in\n    tag_81:\n      mload(0x40)\n      tag_84\n      swap8\n      swap7\n      swap6\n      swap5\n      swap4\n      swap3\n      swap2\n      swap1\n      tag_85\n      jump\t// in\n    tag_84:\n      mload(0x40)\n      dup1\n      swap2\n      sub\n      swap1\n      return\n        /* \"contracts/Pickr.sol\":704:755  mapping(bytes32 codeHash => address) public winners */\n    tag_26:\n      mstore(0x20, 0x03)\n      dup1\n      0x00\n      mstore\n      keccak256(0x00, 0x40)\n      0x00\n      swap2\n      pop\n      sload\n      swap1\n      0x0100\n      exp\n      swap1\n      div\n      0xffffffffffffffffffffffffffffffffffffffff\n      and\n      dup2\n      jump\t// out\n        /* \"contracts/Pickr.sol\":3540:4328  function joinRaffle(bytes32 codeHash) external {... */\n    tag_32:\n        /* \"contracts/Pickr.sol\":3602:3626  _isRaffleExist(codeHash) */\n      tag_87\n        /* \"contracts/Pickr.sol\":3617:3625  codeHash */\n      dup2\n        /* \"contracts/Pickr.sol\":3602:3616  _isRaffleExist */\n      tag_88\n        /* \"contracts/Pickr.sol\":3602:3626  _isRaffleExist(codeHash) */\n      jump\t// in\n    tag_87:\n        /* \"contracts/Pickr.sol\":3597:3666  if (!_isRaffleExist(codeHash)) revert ErrorRaffleIsNotExist(codeHash) */\n      tag_89\n      jumpi\n        /* \"contracts/Pickr.sol\":3657:3665  codeHash */\n      dup1\n        /* \"contracts/Pickr.sol\":3635:3666  ErrorRaffleIsNotExist(codeHash) */\n      mload(0x40)\n      0x7aafa10400000000000000000000000000000000000000000000000000000000\n      dup2\n      mstore\n      0x04\n      add\n      tag_90\n      swap2\n      swap1\n      tag_91\n      jump\t// in\n    tag_90:\n      mload(0x40)\n      dup1\n      swap2\n      sub\n      swap1\n      revert\n        /* \"contracts/Pickr.sol\":3597:3666  if (!_isRaffleExist(codeHash)) revert ErrorRaffleIsNotExist(codeHash) */\n    tag_89:\n        /* \"contracts/Pickr.sol\":3677:3698  Raffle storage raffle */\n      0x00\n        /* \"contracts/Pickr.sol\":3701:3708  raffles */\n      dup1\n        /* \"contracts/Pickr.sol\":3701:3718  raffles[codeHash] */\n      0x00\n        /* \"contracts/Pickr.sol\":3709:3717  codeHash */\n      dup4\n        /* \"contracts/Pickr.sol\":3701:3718  raffles[codeHash] */\n      dup2\n      mstore\n      0x20\n      add\n      swap1\n      dup2\n      mstore\n      0x20\n      add\n      0x00\n      keccak256\n        /* \"contracts/Pickr.sol\":3677:3718  Raffle storage raffle = raffles[codeHash] */\n      swap1\n      pop\n        /* \"contracts/Pickr.sol\":3746:3752  raffle */\n      dup1\n        /* \"contracts/Pickr.sol\":3746:3760  raffle.creator */\n      0x00\n      add\n      0x00\n      swap1\n      sload\n      swap1\n      0x0100\n      exp\n      swap1\n      div\n      0xffffffffffffffffffffffffffffffffffffffff\n      and\n        /* \"contracts/Pickr.sol\":3732:3760  msg.sender == raffle.creator */\n      0xffffffffffffffffffffffffffffffffffffffff\n      and\n        /* \"contracts/Pickr.sol\":3732:3742  msg.sender */\n      caller\n        /* \"contracts/Pickr.sol\":3732:3760  msg.sender == raffle.creator */\n      0xffffffffffffffffffffffffffffffffffffffff\n      and\n      sub\n        /* \"contracts/Pickr.sol\":3728:3829  if (msg.sender == raffle.creator) {... */\n      tag_92\n      jumpi\n        /* \"contracts/Pickr.sol\":3809:3817  codeHash */\n      dup2\n        /* \"contracts/Pickr.sol\":3783:3818  ErrorUserIsTheRaffleOwner(codeHash) */\n      mload(0x40)\n      0x2517ca9500000000000000000000000000000000000000000000000000000000\n      dup2\n      mstore\n      0x04\n      add\n      tag_93\n      swap2\n      swap1\n      tag_91\n      jump\t// in\n    tag_93:\n      mload(0x40)\n      dup1\n      swap2\n      sub\n      swap1\n      revert\n        /* \"contracts/Pickr.sol\":3728:3829  if (msg.sender == raffle.creator) {... */\n    tag_92:\n        /* \"contracts/Pickr.sol\":3860:3879  RaffleStatus.ACTIVE */\n      0x00\n        /* \"contracts/Pickr.sol\":3843:3879  raffle.status != RaffleStatus.ACTIVE */\n      0x02\n      dup2\n      gt\n      iszero\n      tag_94\n      jumpi\n      tag_95\n      tag_96\n      jump\t// in\n    tag_95:\n    tag_94:\n        /* \"contracts/Pickr.sol\":3843:3849  raffle */\n      dup2\n        /* \"contracts/Pickr.sol\":3843:3856  raffle.status */\n      0x02\n      add\n      0x00\n      swap1\n      sload\n      swap1\n      0x0100\n      exp\n      swap1\n      div\n      0xff\n      and\n        /* \"contracts/Pickr.sol\":3843:3879  raffle.status != RaffleStatus.ACTIVE */\n      0x02\n      dup2\n      gt\n      iszero\n      tag_97\n      jumpi\n      tag_98\n      tag_96\n      jump\t// in\n    tag_98:\n    tag_97:\n      eq\n        /* \"contracts/Pickr.sol\":3839:3945  if (raffle.status != RaffleStatus.ACTIVE) {... */\n      tag_99\n      jumpi\n        /* \"contracts/Pickr.sol\":3925:3933  codeHash */\n      dup2\n        /* \"contracts/Pickr.sol\":3902:3934  ErrorRaffleIsNotActive(codeHash) */\n      mload(0x40)\n      0x8c664a9d00000000000000000000000000000000000000000000000000000000\n      dup2\n      mstore\n      0x04\n      add\n      tag_100\n      swap2\n      swap1\n      tag_91\n      jump\t// in\n    tag_100:\n      mload(0x40)\n      dup1\n      swap2\n      sub\n      swap1\n      revert\n        /* \"contracts/Pickr.sol\":3839:3945  if (raffle.status != RaffleStatus.ACTIVE) {... */\n    tag_99:\n        /* \"contracts/Pickr.sol\":3986:3992  raffle */\n      dup1\n        /* \"contracts/Pickr.sol\":3986:4007  raffle.maxParticipant */\n      0x03\n      add\n      sload\n        /* \"contracts/Pickr.sol\":3959:3965  raffle */\n      dup2\n        /* \"contracts/Pickr.sol\":3959:3982  raffle.totalParticipant */\n      0x05\n      add\n      sload\n        /* \"contracts/Pickr.sol\":3959:4007  raffle.totalParticipant >= raffle.maxParticipant */\n      lt\n        /* \"contracts/Pickr.sol\":3955:4068  if (raffle.totalParticipant >= raffle.maxParticipant) {... */\n      tag_101\n      jumpi\n        /* \"contracts/Pickr.sol\":4048:4056  codeHash */\n      dup2\n        /* \"contracts/Pickr.sol\":4030:4057  ErrorRaffleIsFull(codeHash) */\n      mload(0x40)\n      0x37d57d5600000000000000000000000000000000000000000000000000000000\n      dup2\n      mstore\n      0x04\n      add\n      tag_102\n      swap2\n      swap1\n      tag_91\n      jump\t// in\n    tag_102:\n      mload(0x40)\n      dup1\n      swap2\n      sub\n      swap1\n      revert\n        /* \"contracts/Pickr.sol\":3955:4068  if (raffle.totalParticipant >= raffle.maxParticipant) {... */\n    tag_101:\n        /* \"contracts/Pickr.sol\":4078:4089  bool joined */\n      0x00\n        /* \"contracts/Pickr.sol\":4092:4101  hasJoined */\n      0x01\n        /* \"contracts/Pickr.sol\":4092:4111  hasJoined[codeHash] */\n      0x00\n        /* \"contracts/Pickr.sol\":4102:4110  codeHash */\n      dup5\n        /* \"contracts/Pickr.sol\":4092:4111  hasJoined[codeHash] */\n      dup2\n      mstore\n      0x20\n      add\n      swap1\n      dup2\n      mstore\n      0x20\n      add\n      0x00\n      keccak256\n        /* \"contracts/Pickr.sol\":4092:4123  hasJoined[codeHash][msg.sender] */\n      0x00\n        /* \"contracts/Pickr.sol\":4112:4122  msg.sender */\n      caller\n        /* \"contracts/Pickr.sol\":4092:4123  hasJoined[codeHash][msg.sender] */\n      0xffffffffffffffffffffffffffffffffffffffff\n      and\n      0xffffffffffffffffffffffffffffffffffffffff\n      and\n      dup2\n      mstore\n      0x20\n      add\n      swap1\n      dup2\n      mstore\n      0x20\n      add\n      0x00\n      keccak256\n      0x00\n      swap1\n      sload\n      swap1\n      0x0100\n      exp\n      swap1\n      div\n      0xff\n      and\n        /* \"contracts/Pickr.sol\":4078:4123  bool joined = hasJoined[codeHash][msg.sender] */\n      swap1\n      pop\n        /* \"contracts/Pickr.sol\":4137:4143  joined */\n      dup1\n        /* \"contracts/Pickr.sol\":4133:4188  if (joined) revert ErrorUserAlreadyJoinRaffle(codeHash) */\n      iszero\n      tag_103\n      jumpi\n        /* \"contracts/Pickr.sol\":4179:4187  codeHash */\n      dup3\n        /* \"contracts/Pickr.sol\":4152:4188  ErrorUserAlreadyJoinRaffle(codeHash) */\n      mload(0x40)\n      0xa343935400000000000000000000000000000000000000000000000000000000\n      dup2\n      mstore\n      0x04\n      add\n      tag_104\n      swap2\n      swap1\n      tag_91\n      jump\t// in\n    tag_104:\n      mload(0x40)\n      dup1\n      swap2\n      sub\n      swap1\n      revert\n        /* \"contracts/Pickr.sol\":4133:4188  if (joined) revert ErrorUserAlreadyJoinRaffle(codeHash) */\n    tag_103:\n        /* \"contracts/Pickr.sol\":4233:4237  true */\n      0x01\n        /* \"contracts/Pickr.sol\":4199:4208  hasJoined */\n      dup1\n        /* \"contracts/Pickr.sol\":4199:4218  hasJoined[codeHash] */\n      0x00\n        /* \"contracts/Pickr.sol\":4209:4217  codeHash */\n      dup6\n        /* \"contracts/Pickr.sol\":4199:4218  hasJoined[codeHash] */\n      dup2\n      mstore\n      0x20\n      add\n      swap1\n      dup2\n      mstore\n      0x20\n      add\n      0x00\n      keccak256\n        /* \"contracts/Pickr.sol\":4199:4230  hasJoined[codeHash][msg.sender] */\n      0x00\n        /* \"contracts/Pickr.sol\":4219:4229  msg.sender */\n      caller\n        /* \"contracts/Pickr.sol\":4199:4230  hasJoined[codeHash][msg.sender] */\n      0xffffffffffffffffffffffffffffffffffffffff\n      and\n      0xffffffffffffffffffffffffffffffffffffffff\n      and\n      dup2\n      mstore\n      0x20\n      add\n      swap1\n      dup2\n      mstore\n      0x20\n      add\n      0x00\n      keccak256\n      0x00\n        /* \"contracts/Pickr.sol\":4199:4237  hasJoined[codeHash][msg.sender] = true */\n      0x0100\n      exp\n      dup2\n      sload\n      dup2\n      0xff\n      mul\n      not\n      and\n      swap1\n      dup4\n      iszero\n      iszero\n      mul\n      or\n      swap1\n      sstore\n      pop\n        /* \"contracts/Pickr.sol\":4247:4253  raffle */\n      dup2\n        /* \"contracts/Pickr.sol\":4247:4270  raffle.totalParticipant */\n      0x05\n      add\n      0x00\n        /* \"contracts/Pickr.sol\":4247:4272  raffle.totalParticipant++ */\n      dup2\n      sload\n      dup1\n      swap3\n      swap2\n      swap1\n      tag_105\n      swap1\n      tag_106\n      jump\t// in\n    tag_105:\n      swap2\n      swap1\n      pop\n      sstore\n      pop\n        /* \"contracts/Pickr.sol\":4282:4294  participants */\n      0x02\n        /* \"contracts/Pickr.sol\":4282:4304  participants[codeHash] */\n      0x00\n        /* \"contracts/Pickr.sol\":4295:4303  codeHash */\n      dup5\n        /* \"contracts/Pickr.sol\":4282:4304  participants[codeHash] */\n      dup2\n      mstore\n      0x20\n      add\n      swap1\n      dup2\n      mstore\n      0x20\n      add\n      0x00\n      keccak256\n        /* \"contracts/Pickr.sol\":4310:4320  msg.sender */\n      caller\n        /* \"contracts/Pickr.sol\":4282:4321  participants[codeHash].push(msg.sender) */\n      swap1\n      dup1\n      0x01\n      dup2\n      sload\n      add\n      dup1\n      dup3\n      sstore\n      dup1\n      swap2\n      pop\n      pop\n      0x01\n      swap1\n      sub\n      swap1\n      0x00\n      mstore\n      keccak256(0x00, 0x20)\n      add\n      0x00\n      swap1\n      swap2\n      swap1\n      swap2\n      swap1\n      swap2\n      0x0100\n      exp\n      dup2\n      sload\n      dup2\n      0xffffffffffffffffffffffffffffffffffffffff\n      mul\n      not\n      and\n      swap1\n      dup4\n      0xffffffffffffffffffffffffffffffffffffffff\n      and\n      mul\n      or\n      swap1\n      sstore\n      pop\n        /* \"contracts/Pickr.sol\":3587:4328  {... */\n      pop\n      pop\n        /* \"contracts/Pickr.sol\":3540:4328  function joinRaffle(bytes32 codeHash) external {... */\n      pop\n      jump\t// out\n        /* \"contracts/Pickr.sol\":5207:5722  function closeRaffle(bytes32 codeHash) external onlyCreator(codeHash) {... */\n    tag_36:\n        /* \"contracts/Pickr.sol\":5267:5275  codeHash */\n      dup1\n        /* \"contracts/Pickr.sol\":241:265  _isRaffleExist(codeHash) */\n      tag_109\n        /* \"contracts/Pickr.sol\":256:264  codeHash */\n      dup2\n        /* \"contracts/Pickr.sol\":241:255  _isRaffleExist */\n      tag_88\n        /* \"contracts/Pickr.sol\":241:265  _isRaffleExist(codeHash) */\n      jump\t// in\n    tag_109:\n        /* \"contracts/Pickr.sol\":236:330  if (!_isRaffleExist(codeHash)) {... */\n      tag_110\n      jumpi\n        /* \"contracts/Pickr.sol\":310:318  codeHash */\n      dup1\n        /* \"contracts/Pickr.sol\":288:319  ErrorRaffleIsNotExist(codeHash) */\n      mload(0x40)\n      0x7aafa10400000000000000000000000000000000000000000000000000000000\n      dup2\n      mstore\n      0x04\n      add\n      tag_111\n      swap2\n      swap1\n      tag_91\n      jump\t// in\n    tag_111:\n      mload(0x40)\n      dup1\n      swap2\n      sub\n      swap1\n      revert\n        /* \"contracts/Pickr.sol\":236:330  if (!_isRaffleExist(codeHash)) {... */\n    tag_110:\n        /* \"contracts/Pickr.sol\":357:364  raffles */\n      0x00\n        /* \"contracts/Pickr.sol\":357:374  raffles[codeHash] */\n      dup1\n        /* \"contracts/Pickr.sol\":365:373  codeHash */\n      dup3\n        /* \"contracts/Pickr.sol\":357:374  raffles[codeHash] */\n      dup2\n      mstore\n      0x20\n      add\n      swap1\n      dup2\n      mstore\n      0x20\n      add\n      0x00\n      keccak256\n        /* \"contracts/Pickr.sol\":357:382  raffles[codeHash].creator */\n      0x00\n      add\n      0x00\n      swap1\n      sload\n      swap1\n      0x0100\n      exp\n      swap1\n      div\n      0xffffffffffffffffffffffffffffffffffffffff\n      and\n        /* \"contracts/Pickr.sol\":343:382  msg.sender != raffles[codeHash].creator */\n      0xffffffffffffffffffffffffffffffffffffffff\n      and\n        /* \"contracts/Pickr.sol\":343:353  msg.sender */\n      caller\n        /* \"contracts/Pickr.sol\":343:382  msg.sender != raffles[codeHash].creator */\n      0xffffffffffffffffffffffffffffffffffffffff\n      and\n      eq\n        /* \"contracts/Pickr.sol\":339:446  if (msg.sender != raffles[codeHash].creator) {... */\n      tag_112\n      jumpi\n        /* \"contracts/Pickr.sol\":424:434  msg.sender */\n      caller\n        /* \"contracts/Pickr.sol\":405:435  ErrorNotAuthorized(msg.sender) */\n      mload(0x40)\n      0xd68affb700000000000000000000000000000000000000000000000000000000\n      dup2\n      mstore\n      0x04\n      add\n      tag_113\n      swap2\n      swap1\n      tag_28\n      jump\t// in\n    tag_113:\n      mload(0x40)\n      dup1\n      swap2\n      sub\n      swap1\n      revert\n        /* \"contracts/Pickr.sol\":339:446  if (msg.sender != raffles[codeHash].creator) {... */\n    tag_112:\n        /* \"contracts/Pickr.sol\":5287:5308  Raffle storage raffle */\n      0x00\n        /* \"contracts/Pickr.sol\":5311:5318  raffles */\n      dup1\n        /* \"contracts/Pickr.sol\":5311:5328  raffles[codeHash] */\n      0x00\n        /* \"contracts/Pickr.sol\":5319:5327  codeHash */\n      dup5\n        /* \"contracts/Pickr.sol\":5311:5328  raffles[codeHash] */\n      dup2\n      mstore\n      0x20\n      add\n      swap1\n      dup2\n      mstore\n      0x20\n      add\n      0x00\n      keccak256\n        /* \"contracts/Pickr.sol\":5287:5328  Raffle storage raffle = raffles[codeHash] */\n      swap1\n      pop\n        /* \"contracts/Pickr.sol\":5359:5378  RaffleStatus.ACTIVE */\n      0x00\n        /* \"contracts/Pickr.sol\":5342:5378  raffle.status != RaffleStatus.ACTIVE */\n      0x02\n      dup2\n      gt\n      iszero\n      tag_115\n      jumpi\n      tag_116\n      tag_96\n      jump\t// in\n    tag_116:\n    tag_115:\n        /* \"contracts/Pickr.sol\":5342:5348  raffle */\n      dup2\n        /* \"contracts/Pickr.sol\":5342:5355  raffle.status */\n      0x02\n      add\n      0x00\n      swap1\n      sload\n      swap1\n      0x0100\n      exp\n      swap1\n      div\n      0xff\n      and\n        /* \"contracts/Pickr.sol\":5342:5378  raffle.status != RaffleStatus.ACTIVE */\n      0x02\n      dup2\n      gt\n      iszero\n      tag_117\n      jumpi\n      tag_118\n      tag_96\n      jump\t// in\n    tag_118:\n    tag_117:\n      eq\n        /* \"contracts/Pickr.sol\":5338:5444  if (raffle.status != RaffleStatus.ACTIVE) {... */\n      tag_119\n      jumpi\n        /* \"contracts/Pickr.sol\":5424:5432  codeHash */\n      dup3\n        /* \"contracts/Pickr.sol\":5401:5433  ErrorRaffleIsNotActive(codeHash) */\n      mload(0x40)\n      0x8c664a9d00000000000000000000000000000000000000000000000000000000\n      dup2\n      mstore\n      0x04\n      add\n      tag_120\n      swap2\n      swap1\n      tag_91\n      jump\t// in\n    tag_120:\n      mload(0x40)\n      dup1\n      swap2\n      sub\n      swap1\n      revert\n        /* \"contracts/Pickr.sol\":5338:5444  if (raffle.status != RaffleStatus.ACTIVE) {... */\n    tag_119:\n        /* \"contracts/Pickr.sol\":5454:5468  uint256 refund */\n      0x00\n        /* \"contracts/Pickr.sol\":5471:5477  raffle */\n      dup2\n        /* \"contracts/Pickr.sol\":5471:5485  raffle.balance */\n      0x01\n      add\n      sload\n        /* \"contracts/Pickr.sol\":5454:5485  uint256 refund = raffle.balance */\n      swap1\n      pop\n        /* \"contracts/Pickr.sol\":5512:5513  0 */\n      0x00\n        /* \"contracts/Pickr.sol\":5495:5501  raffle */\n      dup3\n        /* \"contracts/Pickr.sol\":5495:5509  raffle.balance */\n      0x01\n      add\n        /* \"contracts/Pickr.sol\":5495:5513  raffle.balance = 0 */\n      dup2\n      swap1\n      sstore\n      pop\n        /* \"contracts/Pickr.sol\":5539:5560  RaffleStatus.INACTIVE */\n      0x01\n        /* \"contracts/Pickr.sol\":5523:5529  raffle */\n      dup3\n        /* \"contracts/Pickr.sol\":5523:5536  raffle.status */\n      0x02\n      add\n      0x00\n        /* \"contracts/Pickr.sol\":5523:5560  raffle.status = RaffleStatus.INACTIVE */\n      0x0100\n      exp\n      dup2\n      sload\n      dup2\n      0xff\n      mul\n      not\n      and\n      swap1\n      dup4\n      0x02\n      dup2\n      gt\n      iszero\n      tag_121\n      jumpi\n      tag_122\n      tag_96\n      jump\t// in\n    tag_122:\n    tag_121:\n      mul\n      or\n      swap1\n      sstore\n      pop\n        /* \"contracts/Pickr.sol\":5584:5585  0 */\n      0x00\n        /* \"contracts/Pickr.sol\":5575:5581  refund */\n      dup2\n        /* \"contracts/Pickr.sol\":5575:5585  refund > 0 */\n      gt\n        /* \"contracts/Pickr.sol\":5571:5716  if (refund > 0) {... */\n      iszero\n      tag_123\n      jumpi\n        /* \"contracts/Pickr.sol\":5602:5609  bool ok */\n      0x00\n        /* \"contracts/Pickr.sol\":5623:5629  raffle */\n      dup3\n        /* \"contracts/Pickr.sol\":5623:5637  raffle.creator */\n      0x00\n      add\n      0x00\n      swap1\n      sload\n      swap1\n      0x0100\n      exp\n      swap1\n      div\n      0xffffffffffffffffffffffffffffffffffffffff\n      and\n        /* \"contracts/Pickr.sol\":5615:5643  payable(raffle.creator).call */\n      0xffffffffffffffffffffffffffffffffffffffff\n      and\n        /* \"contracts/Pickr.sol\":5651:5657  refund */\n      dup3\n        /* \"contracts/Pickr.sol\":5615:5662  payable(raffle.creator).call{value: refund}(\"\") */\n      mload(0x40)\n      tag_124\n      swap1\n      tag_125\n      jump\t// in\n    tag_124:\n      0x00\n      mload(0x40)\n      dup1\n      dup4\n      sub\n      dup2\n      dup6\n      dup8\n      gas\n      call\n      swap3\n      pop\n      pop\n      pop\n      returndatasize\n      dup1\n      0x00\n      dup2\n      eq\n      tag_128\n      jumpi\n      mload(0x40)\n      swap2\n      pop\n      and(add(returndatasize, 0x3f), not(0x1f))\n      dup3\n      add\n      0x40\n      mstore\n      returndatasize\n      dup3\n      mstore\n      returndatasize\n      0x00\n      0x20\n      dup5\n      add\n      returndatacopy\n      jump(tag_127)\n    tag_128:\n      0x60\n      swap2\n      pop\n    tag_127:\n      pop\n        /* \"contracts/Pickr.sol\":5601:5662  (bool ok, ) = payable(raffle.creator).call{value: refund}(\"\") */\n      pop\n      swap1\n      pop\n        /* \"contracts/Pickr.sol\":5684:5686  ok */\n      dup1\n        /* \"contracts/Pickr.sol\":5676:5705  require(ok, \"Refund failure\") */\n      tag_129\n      jumpi\n      mload(0x40)\n      0x08c379a000000000000000000000000000000000000000000000000000000000\n      dup2\n      mstore\n      0x04\n      add\n      tag_130\n      swap1\n      tag_131\n      jump\t// in\n    tag_130:\n      mload(0x40)\n      dup1\n      swap2\n      sub\n      swap1\n      revert\n    tag_129:\n        /* \"contracts/Pickr.sol\":5587:5716  {... */\n      pop\n        /* \"contracts/Pickr.sol\":5571:5716  if (refund > 0) {... */\n    tag_123:\n        /* \"contracts/Pickr.sol\":5277:5722  {... */\n      pop\n      pop\n        /* \"contracts/Pickr.sol\":5207:5722  function closeRaffle(bytes32 codeHash) external onlyCreator(codeHash) {... */\n      pop\n      pop\n      jump\t// out\n        /* \"contracts/Pickr.sol\":469:499  address public immutable owner */\n    tag_39:\n      immutable(\"0xcc1431a2586c1e11fb75c87e5ee58e4204126a9fdde07075c91770f50276cbb0\")\n      dup2\n      jump\t// out\n        /* \"contracts/Pickr.sol\":6026:6403  function getUserRaffles(... */\n    tag_45:\n        /* \"contracts/Pickr.sol\":6104:6119  Raffle[] memory */\n      0x60\n        /* \"contracts/Pickr.sol\":6121:6137  bytes32[] memory */\n      dup1\n        /* \"contracts/Pickr.sol\":6149:6171  bytes32[] memory codes */\n      0x00\n        /* \"contracts/Pickr.sol\":6174:6194  raffleCodesByCreator */\n      0x04\n        /* \"contracts/Pickr.sol\":6174:6203  raffleCodesByCreator[creator] */\n      0x00\n        /* \"contracts/Pickr.sol\":6195:6202  creator */\n      dup6\n        /* \"contracts/Pickr.sol\":6174:6203  raffleCodesByCreator[creator] */\n      0xffffffffffffffffffffffffffffffffffffffff\n      and\n      0xffffffffffffffffffffffffffffffffffffffff\n      and\n      dup2\n      mstore\n      0x20\n      add\n      swap1\n      dup2\n      mstore\n      0x20\n      add\n      0x00\n      keccak256\n        /* \"contracts/Pickr.sol\":6149:6203  bytes32[] memory codes = raffleCodesByCreator[creator] */\n      dup1\n      sload\n      dup1\n      0x20\n      mul\n      0x20\n      add\n      mload(0x40)\n      swap1\n      dup2\n      add\n      0x40\n      mstore\n      dup1\n      swap3\n      swap2\n      swap1\n      dup2\n      dup2\n      mstore\n      0x20\n      add\n      dup3\n      dup1\n      sload\n      dup1\n      iszero\n      tag_133\n      jumpi\n      0x20\n      mul\n      dup3\n      add\n      swap2\n      swap1\n      0x00\n      mstore\n      keccak256(0x00, 0x20)\n      swap1\n    tag_134:\n      dup2\n      sload\n      dup2\n      mstore\n      0x20\n      add\n      swap1\n      0x01\n      add\n      swap1\n      dup1\n      dup4\n      gt\n      tag_134\n      jumpi\n    tag_133:\n      pop\n      pop\n      pop\n      pop\n      pop\n      swap1\n      pop\n        /* \"contracts/Pickr.sol\":6213:6233  Raffle[] memory list */\n      0x00\n        /* \"contracts/Pickr.sol\":6249:6254  codes */\n      dup2\n        /* \"contracts/Pickr.sol\":6249:6261  codes.length */\n      mload\n        /* \"contracts/Pickr.sol\":6236:6262  new Raffle[](codes.length) */\n      0xffffffffffffffff\n      dup2\n      gt\n      iszero\n      tag_135\n      jumpi\n      tag_136\n      tag_137\n      jump\t// in\n    tag_136:\n    tag_135:\n      mload(0x40)\n      swap1\n      dup1\n      dup3\n      mstore\n      dup1\n      0x20\n      mul\n      0x20\n      add\n      dup3\n      add\n      0x40\n      mstore\n      dup1\n      iszero\n      tag_138\n      jumpi\n      dup2\n      0x20\n      add\n    tag_139:\n      tag_140\n      tag_141\n      jump\t// in\n    tag_140:\n      dup2\n      mstore\n      0x20\n      add\n      swap1\n      0x01\n      swap1\n      sub\n      swap1\n      dup2\n      tag_139\n      jumpi\n      swap1\n      pop\n    tag_138:\n      pop\n        /* \"contracts/Pickr.sol\":6213:6262  Raffle[] memory list = new Raffle[](codes.length) */\n      swap1\n      pop\n        /* \"contracts/Pickr.sol\":6277:6286  uint256 i */\n      0x00\n        /* \"contracts/Pickr.sol\":6272:6367  for (uint256 i = 0; i < codes.length; i++) {... */\n    tag_142:\n        /* \"contracts/Pickr.sol\":6296:6301  codes */\n      dup3\n        /* \"contracts/Pickr.sol\":6296:6308  codes.length */\n      mload\n        /* \"contracts/Pickr.sol\":6292:6293  i */\n      dup2\n        /* \"contracts/Pickr.sol\":6292:6308  i < codes.length */\n      lt\n        /* \"contracts/Pickr.sol\":6272:6367  for (uint256 i = 0; i < codes.length; i++) {... */\n      iszero\n      tag_143\n      jumpi\n        /* \"contracts/Pickr.sol\":6339:6346  raffles */\n      0x00\n        /* \"contracts/Pickr.sol\":6339:6356  raffles[codes[i]] */\n      dup1\n        /* \"contracts/Pickr.sol\":6347:6352  codes */\n      dup5\n        /* \"contracts/Pickr.sol\":6353:6354  i */\n      dup4\n        /* \"contracts/Pickr.sol\":6347:6355  codes[i] */\n      dup2\n      mload\n      dup2\n      lt\n      tag_145\n      jumpi\n      tag_146\n      tag_147\n      jump\t// in\n    tag_146:\n    tag_145:\n      0x20\n      mul\n      0x20\n      add\n      add\n      mload\n        /* \"contracts/Pickr.sol\":6339:6356  raffles[codes[i]] */\n      dup2\n      mstore\n      0x20\n      add\n      swap1\n      dup2\n      mstore\n      0x20\n      add\n      0x00\n      keccak256\n        /* \"contracts/Pickr.sol\":6329:6356  list[i] = raffles[codes[i]] */\n      mload(0x40)\n      dup1\n      0xe0\n      add\n      0x40\n      mstore\n      swap1\n      dup2\n      0x00\n      dup3\n      add\n      0x00\n      swap1\n      sload\n      swap1\n      0x0100\n      exp\n      swap1\n      div\n      0xffffffffffffffffffffffffffffffffffffffff\n      and\n      0xffffffffffffffffffffffffffffffffffffffff\n      and\n      0xffffffffffffffffffffffffffffffffffffffff\n      and\n      dup2\n      mstore\n      0x20\n      add\n      0x01\n      dup3\n      add\n      sload\n      dup2\n      mstore\n      0x20\n      add\n      0x02\n      dup3\n      add\n      0x00\n      swap1\n      sload\n      swap1\n      0x0100\n      exp\n      swap1\n      div\n      0xff\n      and\n      0x02\n      dup2\n      gt\n      iszero\n      tag_148\n      jumpi\n      tag_149\n      tag_96\n      jump\t// in\n    tag_149:\n    tag_148:\n      0x02\n      dup2\n      gt\n      iszero\n      tag_150\n      jumpi\n      tag_151\n      tag_96\n      jump\t// in\n    tag_151:\n    tag_150:\n      dup2\n      mstore\n      0x20\n      add\n      0x03\n      dup3\n      add\n      sload\n      dup2\n      mstore\n      0x20\n      add\n      0x04\n      dup3\n      add\n      sload\n      dup2\n      mstore\n      0x20\n      add\n      0x05\n      dup3\n      add\n      sload\n      dup2\n      mstore\n      0x20\n      add\n      0x06\n      dup3\n      add\n      0x00\n      swap1\n      sload\n      swap1\n      0x0100\n      exp\n      swap1\n      div\n      0xffffffffffffffff\n      and\n      0xffffffffffffffff\n      and\n      0xffffffffffffffff\n      and\n      dup2\n      mstore\n      pop\n      pop\n        /* \"contracts/Pickr.sol\":6329:6333  list */\n      dup3\n        /* \"contracts/Pickr.sol\":6334:6335  i */\n      dup3\n        /* \"contracts/Pickr.sol\":6329:6336  list[i] */\n      dup2\n      mload\n      dup2\n      lt\n      tag_152\n      jumpi\n      tag_153\n      tag_147\n      jump\t// in\n    tag_153:\n    tag_152:\n      0x20\n      mul\n      0x20\n      add\n      add\n        /* \"contracts/Pickr.sol\":6329:6356  list[i] = raffles[codes[i]] */\n      dup2\n      swap1\n      mstore\n      pop\n        /* \"contracts/Pickr.sol\":6310:6313  i++ */\n      dup1\n      dup1\n      tag_154\n      swap1\n      tag_106\n      jump\t// in\n    tag_154:\n      swap2\n      pop\n      pop\n        /* \"contracts/Pickr.sol\":6272:6367  for (uint256 i = 0; i < codes.length; i++) {... */\n      jump(tag_142)\n    tag_143:\n      pop\n        /* \"contracts/Pickr.sol\":6384:6388  list */\n      dup1\n        /* \"contracts/Pickr.sol\":6390:6395  codes */\n      dup3\n        /* \"contracts/Pickr.sol\":6376:6396  return (list, codes) */\n      swap4\n      pop\n      swap4\n      pop\n      pop\n      pop\n        /* \"contracts/Pickr.sol\":6026:6403  function getUserRaffles(... */\n      swap2\n      pop\n      swap2\n      jump\t// out\n        /* \"contracts/Pickr.sol\":853:1729  function createRaffle(... */\n    tag_51:\n        /* \"contracts/Pickr.sol\":1015:1016  0 */\n      0x00\n        /* \"contracts/Pickr.sol\":1002:1011  msg.value */\n      callvalue\n        /* \"contracts/Pickr.sol\":1002:1016  msg.value == 0 */\n      sub\n        /* \"contracts/Pickr.sol\":998:1047  if (msg.value == 0) revert ErrorDepositRequired() */\n      tag_156\n      jumpi\n        /* \"contracts/Pickr.sol\":1025:1047  ErrorDepositRequired() */\n      mload(0x40)\n      0x600f7bf400000000000000000000000000000000000000000000000000000000\n      dup2\n      mstore\n      0x04\n      add\n      mload(0x40)\n      dup1\n      swap2\n      sub\n      swap1\n      revert\n        /* \"contracts/Pickr.sol\":998:1047  if (msg.value == 0) revert ErrorDepositRequired() */\n    tag_156:\n        /* \"contracts/Pickr.sol\":1079:1093  minParticipant */\n      dup3\n        /* \"contracts/Pickr.sol\":1062:1076  maxParticipant */\n      dup3\n        /* \"contracts/Pickr.sol\":1062:1093  maxParticipant < minParticipant */\n      lt\n        /* \"contracts/Pickr.sol\":1058:1159  if (maxParticipant < minParticipant) {... */\n      iszero\n      tag_157\n      jumpi\n        /* \"contracts/Pickr.sol\":1116:1148  ErrorMaxParticipantLessThanMin() */\n      mload(0x40)\n      0xb3b6029c00000000000000000000000000000000000000000000000000000000\n      dup2\n      mstore\n      0x04\n      add\n      mload(0x40)\n      dup1\n      swap2\n      sub\n      swap1\n      revert\n        /* \"contracts/Pickr.sol\":1058:1159  if (maxParticipant < minParticipant) {... */\n    tag_157:\n        /* \"contracts/Pickr.sol\":1189:1190  0 */\n      0x00\n        /* \"contracts/Pickr.sol\":1172:1186  minParticipant */\n      dup4\n        /* \"contracts/Pickr.sol\":1172:1190  minParticipant < 0 */\n      lt\n        /* \"contracts/Pickr.sol\":1168:1266  if (minParticipant < 0) {... */\n      iszero\n      tag_158\n      jumpi\n        /* \"contracts/Pickr.sol\":1213:1255  ErrorMinParticipantMustBeGreaterThanZero() */\n      mload(0x40)\n      0x530a986700000000000000000000000000000000000000000000000000000000\n      dup2\n      mstore\n      0x04\n      add\n      mload(0x40)\n      dup1\n      swap2\n      sub\n      swap1\n      revert\n        /* \"contracts/Pickr.sol\":1168:1266  if (minParticipant < 0) {... */\n    tag_158:\n        /* \"contracts/Pickr.sol\":1297:1298  0 */\n      0x00\n        /* \"contracts/Pickr.sol\":1279:1294  codeHash.length */\n      0x20\n        /* \"contracts/Pickr.sol\":1279:1298  codeHash.length < 0 */\n      0xff\n      and\n      lt\n        /* \"contracts/Pickr.sol\":1275:1328  if (codeHash.length < 0) revert ErrorCodeIsRequired() */\n      iszero\n      tag_159\n      jumpi\n        /* \"contracts/Pickr.sol\":1307:1328  ErrorCodeIsRequired() */\n      mload(0x40)\n      0x166cbdbe00000000000000000000000000000000000000000000000000000000\n      dup2\n      mstore\n      0x04\n      add\n      mload(0x40)\n      dup1\n      swap2\n      sub\n      swap1\n      revert\n        /* \"contracts/Pickr.sol\":1275:1328  if (codeHash.length < 0) revert ErrorCodeIsRequired() */\n    tag_159:\n        /* \"contracts/Pickr.sol\":1342:1366  _isRaffleExist(codeHash) */\n      tag_160\n        /* \"contracts/Pickr.sol\":1357:1365  codeHash */\n      dup2\n        /* \"contracts/Pickr.sol\":1342:1356  _isRaffleExist */\n      tag_88\n        /* \"contracts/Pickr.sol\":1342:1366  _isRaffleExist(codeHash) */\n      jump\t// in\n    tag_160:\n        /* \"contracts/Pickr.sol\":1338:1430  if (_isRaffleExist(codeHash)) {... */\n      iszero\n      tag_161\n      jumpi\n        /* \"contracts/Pickr.sol\":1410:1418  codeHash */\n      dup1\n        /* \"contracts/Pickr.sol\":1389:1419  ErrorCodeAlreadyUsed(codeHash) */\n      mload(0x40)\n      0x4fec90c500000000000000000000000000000000000000000000000000000000\n      dup2\n      mstore\n      0x04\n      add\n      tag_162\n      swap2\n      swap1\n      tag_91\n      jump\t// in\n    tag_162:\n      mload(0x40)\n      dup1\n      swap2\n      sub\n      swap1\n      revert\n        /* \"contracts/Pickr.sol\":1338:1430  if (_isRaffleExist(codeHash)) {... */\n    tag_161:\n        /* \"contracts/Pickr.sol\":1460:1664  Raffle(... */\n      mload(0x40)\n      dup1\n      0xe0\n      add\n      0x40\n      mstore\n      dup1\n        /* \"contracts/Pickr.sol\":1480:1490  msg.sender */\n      caller\n        /* \"contracts/Pickr.sol\":1460:1664  Raffle(... */\n      0xffffffffffffffffffffffffffffffffffffffff\n      and\n      dup2\n      mstore\n      0x20\n      add\n        /* \"contracts/Pickr.sol\":1504:1513  msg.value */\n      callvalue\n        /* \"contracts/Pickr.sol\":1460:1664  Raffle(... */\n      dup2\n      mstore\n      0x20\n      add\n        /* \"contracts/Pickr.sol\":1527:1546  RaffleStatus.ACTIVE */\n      0x00\n        /* \"contracts/Pickr.sol\":1460:1664  Raffle(... */\n      0x02\n      dup2\n      gt\n      iszero\n      tag_163\n      jumpi\n      tag_164\n      tag_96\n      jump\t// in\n    tag_164:\n    tag_163:\n      dup2\n      mstore\n      0x20\n      add\n        /* \"contracts/Pickr.sol\":1560:1574  maxParticipant */\n      dup4\n        /* \"contracts/Pickr.sol\":1460:1664  Raffle(... */\n      dup2\n      mstore\n      0x20\n      add\n        /* \"contracts/Pickr.sol\":1588:1602  minParticipant */\n      dup5\n        /* \"contracts/Pickr.sol\":1460:1664  Raffle(... */\n      dup2\n      mstore\n      0x20\n      add\n        /* \"contracts/Pickr.sol\":1616:1617  0 */\n      0x00\n        /* \"contracts/Pickr.sol\":1460:1664  Raffle(... */\n      dup2\n      mstore\n      0x20\n      add\n        /* \"contracts/Pickr.sol\":1638:1653  block.timestamp */\n      timestamp\n        /* \"contracts/Pickr.sol\":1460:1664  Raffle(... */\n      0xffffffffffffffff\n      and\n      dup2\n      mstore\n      pop\n        /* \"contracts/Pickr.sol\":1440:1447  raffles */\n      0x00\n        /* \"contracts/Pickr.sol\":1440:1457  raffles[codeHash] */\n      dup1\n        /* \"contracts/Pickr.sol\":1448:1456  codeHash */\n      dup4\n        /* \"contracts/Pickr.sol\":1440:1457  raffles[codeHash] */\n      dup2\n      mstore\n      0x20\n      add\n      swap1\n      dup2\n      mstore\n      0x20\n      add\n      0x00\n      keccak256\n        /* \"contracts/Pickr.sol\":1440:1664  raffles[codeHash] = Raffle(... */\n      0x00\n      dup3\n      add\n      mload\n      dup2\n      0x00\n      add\n      exp(0x0100, 0x00)\n      dup2\n      sload\n      dup2\n      0xffffffffffffffffffffffffffffffffffffffff\n      mul\n      not\n      and\n      swap1\n      dup4\n      0xffffffffffffffffffffffffffffffffffffffff\n      and\n      mul\n      or\n      swap1\n      sstore\n      pop\n      0x20\n      dup3\n      add\n      mload\n      dup2\n      0x01\n      add\n      sstore\n      0x40\n      dup3\n      add\n      mload\n      dup2\n      0x02\n      add\n      exp(0x0100, 0x00)\n      dup2\n      sload\n      dup2\n      0xff\n      mul\n      not\n      and\n      swap1\n      dup4\n      0x02\n      dup2\n      gt\n      iszero\n      tag_165\n      jumpi\n      tag_166\n      tag_96\n      jump\t// in\n    tag_166:\n    tag_165:\n      mul\n      or\n      swap1\n      sstore\n      pop\n      0x60\n      dup3\n      add\n      mload\n      dup2\n      0x03\n      add\n      sstore\n      0x80\n      dup3\n      add\n      mload\n      dup2\n      0x04\n      add\n      sstore\n      0xa0\n      dup3\n      add\n      mload\n      dup2\n      0x05\n      add\n      sstore\n      0xc0\n      dup3\n      add\n      mload\n      dup2\n      0x06\n      add\n      exp(0x0100, 0x00)\n      dup2\n      sload\n      dup2\n      0xffffffffffffffff\n      mul\n      not\n      and\n      swap1\n      dup4\n      0xffffffffffffffff\n      and\n      mul\n      or\n      swap1\n      sstore\n      pop\n      swap1\n      pop\n      pop\n        /* \"contracts/Pickr.sol\":1675:1695  raffleCodesByCreator */\n      0x04\n        /* \"contracts/Pickr.sol\":1675:1707  raffleCodesByCreator[msg.sender] */\n      0x00\n        /* \"contracts/Pickr.sol\":1696:1706  msg.sender */\n      caller\n        /* \"contracts/Pickr.sol\":1675:1707  raffleCodesByCreator[msg.sender] */\n      0xffffffffffffffffffffffffffffffffffffffff\n      and\n      0xffffffffffffffffffffffffffffffffffffffff\n      and\n      dup2\n      mstore\n      0x20\n      add\n      swap1\n      dup2\n      mstore\n      0x20\n      add\n      0x00\n      keccak256\n        /* \"contracts/Pickr.sol\":1713:1721  codeHash */\n      dup2\n        /* \"contracts/Pickr.sol\":1675:1722  raffleCodesByCreator[msg.sender].push(codeHash) */\n      swap1\n      dup1\n      0x01\n      dup2\n      sload\n      add\n      dup1\n      dup3\n      sstore\n      dup1\n      swap2\n      pop\n      pop\n      0x01\n      swap1\n      sub\n      swap1\n      0x00\n      mstore\n      keccak256(0x00, 0x20)\n      add\n      0x00\n      swap1\n      swap2\n      swap1\n      swap2\n      swap1\n      swap2\n      pop\n      sstore\n        /* \"contracts/Pickr.sol\":853:1729  function createRaffle(... */\n      pop\n      pop\n      pop\n      jump\t// out\n        /* \"contracts/Pickr.sol\":2166:2587  function startRaffle(bytes32 codeHash) external onlyCreator(codeHash) {... */\n    tag_55:\n        /* \"contracts/Pickr.sol\":2226:2234  codeHash */\n      dup1\n        /* \"contracts/Pickr.sol\":241:265  _isRaffleExist(codeHash) */\n      tag_169\n        /* \"contracts/Pickr.sol\":256:264  codeHash */\n      dup2\n        /* \"contracts/Pickr.sol\":241:255  _isRaffleExist */\n      tag_88\n        /* \"contracts/Pickr.sol\":241:265  _isRaffleExist(codeHash) */\n      jump\t// in\n    tag_169:\n        /* \"contracts/Pickr.sol\":236:330  if (!_isRaffleExist(codeHash)) {... */\n      tag_170\n      jumpi\n        /* \"contracts/Pickr.sol\":310:318  codeHash */\n      dup1\n        /* \"contracts/Pickr.sol\":288:319  ErrorRaffleIsNotExist(codeHash) */\n      mload(0x40)\n      0x7aafa10400000000000000000000000000000000000000000000000000000000\n      dup2\n      mstore\n      0x04\n      add\n      tag_171\n      swap2\n      swap1\n      tag_91\n      jump\t// in\n    tag_171:\n      mload(0x40)\n      dup1\n      swap2\n      sub\n      swap1\n      revert\n        /* \"contracts/Pickr.sol\":236:330  if (!_isRaffleExist(codeHash)) {... */\n    tag_170:\n        /* \"contracts/Pickr.sol\":357:364  raffles */\n      0x00\n        /* \"contracts/Pickr.sol\":357:374  raffles[codeHash] */\n      dup1\n        /* \"contracts/Pickr.sol\":365:373  codeHash */\n      dup3\n        /* \"contracts/Pickr.sol\":357:374  raffles[codeHash] */\n      dup2\n      mstore\n      0x20\n      add\n      swap1\n      dup2\n      mstore\n      0x20\n      add\n      0x00\n      keccak256\n        /* \"contracts/Pickr.sol\":357:382  raffles[codeHash].creator */\n      0x00\n      add\n      0x00\n      swap1\n      sload\n      swap1\n      0x0100\n      exp\n      swap1\n      div\n      0xffffffffffffffffffffffffffffffffffffffff\n      and\n        /* \"contracts/Pickr.sol\":343:382  msg.sender != raffles[codeHash].creator */\n      0xffffffffffffffffffffffffffffffffffffffff\n      and\n        /* \"contracts/Pickr.sol\":343:353  msg.sender */\n      caller\n        /* \"contracts/Pickr.sol\":343:382  msg.sender != raffles[codeHash].creator */\n      0xffffffffffffffffffffffffffffffffffffffff\n      and\n      eq\n        /* \"contracts/Pickr.sol\":339:446  if (msg.sender != raffles[codeHash].creator) {... */\n      tag_172\n      jumpi\n        /* \"contracts/Pickr.sol\":424:434  msg.sender */\n      caller\n        /* \"contracts/Pickr.sol\":405:435  ErrorNotAuthorized(msg.sender) */\n      mload(0x40)\n      0xd68affb700000000000000000000000000000000000000000000000000000000\n      dup2\n      mstore\n      0x04\n      add\n      tag_173\n      swap2\n      swap1\n      tag_28\n      jump\t// in\n    tag_173:\n      mload(0x40)\n      dup1\n      swap2\n      sub\n      swap1\n      revert\n        /* \"contracts/Pickr.sol\":339:446  if (msg.sender != raffles[codeHash].creator) {... */\n    tag_172:\n        /* \"contracts/Pickr.sol\":2246:2267  Raffle storage raffle */\n      0x00\n        /* \"contracts/Pickr.sol\":2270:2277  raffles */\n      dup1\n        /* \"contracts/Pickr.sol\":2270:2287  raffles[codeHash] */\n      0x00\n        /* \"contracts/Pickr.sol\":2278:2286  codeHash */\n      dup5\n        /* \"contracts/Pickr.sol\":2270:2287  raffles[codeHash] */\n      dup2\n      mstore\n      0x20\n      add\n      swap1\n      dup2\n      mstore\n      0x20\n      add\n      0x00\n      keccak256\n        /* \"contracts/Pickr.sol\":2246:2287  Raffle storage raffle = raffles[codeHash] */\n      swap1\n      pop\n        /* \"contracts/Pickr.sol\":2318:2337  RaffleStatus.ACTIVE */\n      0x00\n        /* \"contracts/Pickr.sol\":2301:2337  raffle.status != RaffleStatus.ACTIVE */\n      0x02\n      dup2\n      gt\n      iszero\n      tag_175\n      jumpi\n      tag_176\n      tag_96\n      jump\t// in\n    tag_176:\n    tag_175:\n        /* \"contracts/Pickr.sol\":2301:2307  raffle */\n      dup2\n        /* \"contracts/Pickr.sol\":2301:2314  raffle.status */\n      0x02\n      add\n      0x00\n      swap1\n      sload\n      swap1\n      0x0100\n      exp\n      swap1\n      div\n      0xff\n      and\n        /* \"contracts/Pickr.sol\":2301:2337  raffle.status != RaffleStatus.ACTIVE */\n      0x02\n      dup2\n      gt\n      iszero\n      tag_177\n      jumpi\n      tag_178\n      tag_96\n      jump\t// in\n    tag_178:\n    tag_177:\n      eq\n        /* \"contracts/Pickr.sol\":2297:2403  if (raffle.status != RaffleStatus.ACTIVE) {... */\n      tag_179\n      jumpi\n        /* \"contracts/Pickr.sol\":2383:2391  codeHash */\n      dup3\n        /* \"contracts/Pickr.sol\":2360:2392  ErrorRaffleIsNotActive(codeHash) */\n      mload(0x40)\n      0x8c664a9d00000000000000000000000000000000000000000000000000000000\n      dup2\n      mstore\n      0x04\n      add\n      tag_180\n      swap2\n      swap1\n      tag_91\n      jump\t// in\n    tag_180:\n      mload(0x40)\n      dup1\n      swap2\n      sub\n      swap1\n      revert\n        /* \"contracts/Pickr.sol\":2297:2403  if (raffle.status != RaffleStatus.ACTIVE) {... */\n    tag_179:\n        /* \"contracts/Pickr.sol\":2444:2450  raffle */\n      dup1\n        /* \"contracts/Pickr.sol\":2444:2465  raffle.minParticipant */\n      0x04\n      add\n      sload\n        /* \"contracts/Pickr.sol\":2417:2423  raffle */\n      dup2\n        /* \"contracts/Pickr.sol\":2417:2440  raffle.totalParticipant */\n      0x05\n      add\n      sload\n        /* \"contracts/Pickr.sol\":2417:2465  raffle.totalParticipant <= raffle.minParticipant */\n      gt\n        /* \"contracts/Pickr.sol\":2413:2534  if (raffle.totalParticipant <= raffle.minParticipant) {... */\n      tag_181\n      jumpi\n        /* \"contracts/Pickr.sol\":2514:2522  codeHash */\n      dup3\n        /* \"contracts/Pickr.sol\":2488:2523  ErrorNotEnoughParticipant(codeHash) */\n      mload(0x40)\n      0x2cf3c5c700000000000000000000000000000000000000000000000000000000\n      dup2\n      mstore\n      0x04\n      add\n      tag_182\n      swap2\n      swap1\n      tag_91\n      jump\t// in\n    tag_182:\n      mload(0x40)\n      dup1\n      swap2\n      sub\n      swap1\n      revert\n        /* \"contracts/Pickr.sol\":2413:2534  if (raffle.totalParticipant <= raffle.minParticipant) {... */\n    tag_181:\n        /* \"contracts/Pickr.sol\":2560:2580  RaffleStatus.STARTED */\n      0x02\n        /* \"contracts/Pickr.sol\":2544:2550  raffle */\n      dup2\n        /* \"contracts/Pickr.sol\":2544:2557  raffle.status */\n      0x02\n      add\n      0x00\n        /* \"contracts/Pickr.sol\":2544:2580  raffle.status = RaffleStatus.STARTED */\n      0x0100\n      exp\n      dup2\n      sload\n      dup2\n      0xff\n      mul\n      not\n      and\n      swap1\n      dup4\n      0x02\n      dup2\n      gt\n      iszero\n      tag_183\n      jumpi\n      tag_184\n      tag_96\n      jump\t// in\n    tag_184:\n    tag_183:\n      mul\n      or\n      swap1\n      sstore\n      pop\n        /* \"contracts/Pickr.sol\":2236:2587  {... */\n      pop\n        /* \"contracts/Pickr.sol\":2166:2587  function startRaffle(bytes32 codeHash) external onlyCreator(codeHash) {... */\n      pop\n      pop\n      jump\t// out\n        /* \"contracts/Pickr.sol\":1735:2160  function deposit(bytes32 codeHash) external payable onlyCreator(codeHash) {... */\n    tag_58:\n        /* \"contracts/Pickr.sol\":1799:1807  codeHash */\n      dup1\n        /* \"contracts/Pickr.sol\":241:265  _isRaffleExist(codeHash) */\n      tag_186\n        /* \"contracts/Pickr.sol\":256:264  codeHash */\n      dup2\n        /* \"contracts/Pickr.sol\":241:255  _isRaffleExist */\n      tag_88\n        /* \"contracts/Pickr.sol\":241:265  _isRaffleExist(codeHash) */\n      jump\t// in\n    tag_186:\n        /* \"contracts/Pickr.sol\":236:330  if (!_isRaffleExist(codeHash)) {... */\n      tag_187\n      jumpi\n        /* \"contracts/Pickr.sol\":310:318  codeHash */\n      dup1\n        /* \"contracts/Pickr.sol\":288:319  ErrorRaffleIsNotExist(codeHash) */\n      mload(0x40)\n      0x7aafa10400000000000000000000000000000000000000000000000000000000\n      dup2\n      mstore\n      0x04\n      add\n      tag_188\n      swap2\n      swap1\n      tag_91\n      jump\t// in\n    tag_188:\n      mload(0x40)\n      dup1\n      swap2\n      sub\n      swap1\n      revert\n        /* \"contracts/Pickr.sol\":236:330  if (!_isRaffleExist(codeHash)) {... */\n    tag_187:\n        /* \"contracts/Pickr.sol\":357:364  raffles */\n      0x00\n        /* \"contracts/Pickr.sol\":357:374  raffles[codeHash] */\n      dup1\n        /* \"contracts/Pickr.sol\":365:373  codeHash */\n      dup3\n        /* \"contracts/Pickr.sol\":357:374  raffles[codeHash] */\n      dup2\n      mstore\n      0x20\n      add\n      swap1\n      dup2\n      mstore\n      0x20\n      add\n      0x00\n      keccak256\n        /* \"contracts/Pickr.sol\":357:382  raffles[codeHash].creator */\n      0x00\n      add\n      0x00\n      swap1\n      sload\n      swap1\n      0x0100\n      exp\n      swap1\n      div\n      0xffffffffffffffffffffffffffffffffffffffff\n      and\n        /* \"contracts/Pickr.sol\":343:382  msg.sender != raffles[codeHash].creator */\n      0xffffffffffffffffffffffffffffffffffffffff\n      and\n        /* \"contracts/Pickr.sol\":343:353  msg.sender */\n      caller\n        /* \"contracts/Pickr.sol\":343:382  msg.sender != raffles[codeHash].creator */\n      0xffffffffffffffffffffffffffffffffffffffff\n      and\n      eq\n        /* \"contracts/Pickr.sol\":339:446  if (msg.sender != raffles[codeHash].creator) {... */\n      tag_189\n      jumpi\n        /* \"contracts/Pickr.sol\":424:434  msg.sender */\n      caller\n        /* \"contracts/Pickr.sol\":405:435  ErrorNotAuthorized(msg.sender) */\n      mload(0x40)\n      0xd68affb700000000000000000000000000000000000000000000000000000000\n      dup2\n      mstore\n      0x04\n      add\n      tag_190\n      swap2\n      swap1\n      tag_28\n      jump\t// in\n    tag_190:\n      mload(0x40)\n      dup1\n      swap2\n      sub\n      swap1\n      revert\n        /* \"contracts/Pickr.sol\":339:446  if (msg.sender != raffles[codeHash].creator) {... */\n    tag_189:\n        /* \"contracts/Pickr.sol\":1824:1848  _isRaffleExist(codeHash) */\n      tag_192\n        /* \"contracts/Pickr.sol\":1839:1847  codeHash */\n      dup3\n        /* \"contracts/Pickr.sol\":1824:1838  _isRaffleExist */\n      tag_88\n        /* \"contracts/Pickr.sol\":1824:1848  _isRaffleExist(codeHash) */\n      jump\t// in\n    tag_192:\n        /* \"contracts/Pickr.sol\":1819:1888  if (!_isRaffleExist(codeHash)) revert ErrorRaffleIsNotExist(codeHash) */\n      tag_193\n      jumpi\n        /* \"contracts/Pickr.sol\":1879:1887  codeHash */\n      dup2\n        /* \"contracts/Pickr.sol\":1857:1888  ErrorRaffleIsNotExist(codeHash) */\n      mload(0x40)\n      0x7aafa10400000000000000000000000000000000000000000000000000000000\n      dup2\n      mstore\n      0x04\n      add\n      tag_194\n      swap2\n      swap1\n      tag_91\n      jump\t// in\n    tag_194:\n      mload(0x40)\n      dup1\n      swap2\n      sub\n      swap1\n      revert\n        /* \"contracts/Pickr.sol\":1819:1888  if (!_isRaffleExist(codeHash)) revert ErrorRaffleIsNotExist(codeHash) */\n    tag_193:\n        /* \"contracts/Pickr.sol\":1899:1920  Raffle storage raffle */\n      0x00\n        /* \"contracts/Pickr.sol\":1923:1930  raffles */\n      dup1\n        /* \"contracts/Pickr.sol\":1923:1940  raffles[codeHash] */\n      0x00\n        /* \"contracts/Pickr.sol\":1931:1939  codeHash */\n      dup5\n        /* \"contracts/Pickr.sol\":1923:1940  raffles[codeHash] */\n      dup2\n      mstore\n      0x20\n      add\n      swap1\n      dup2\n      mstore\n      0x20\n      add\n      0x00\n      keccak256\n        /* \"contracts/Pickr.sol\":1899:1940  Raffle storage raffle = raffles[codeHash] */\n      swap1\n      pop\n        /* \"contracts/Pickr.sol\":1971:1990  RaffleStatus.ACTIVE */\n      0x00\n        /* \"contracts/Pickr.sol\":1954:1990  raffle.status != RaffleStatus.ACTIVE */\n      0x02\n      dup2\n      gt\n      iszero\n      tag_195\n      jumpi\n      tag_196\n      tag_96\n      jump\t// in\n    tag_196:\n    tag_195:\n        /* \"contracts/Pickr.sol\":1954:1960  raffle */\n      dup2\n        /* \"contracts/Pickr.sol\":1954:1967  raffle.status */\n      0x02\n      add\n      0x00\n      swap1\n      sload\n      swap1\n      0x0100\n      exp\n      swap1\n      div\n      0xff\n      and\n        /* \"contracts/Pickr.sol\":1954:1990  raffle.status != RaffleStatus.ACTIVE */\n      0x02\n      dup2\n      gt\n      iszero\n      tag_197\n      jumpi\n      tag_198\n      tag_96\n      jump\t// in\n    tag_198:\n    tag_197:\n      eq\n        /* \"contracts/Pickr.sol\":1950:2056  if (raffle.status != RaffleStatus.ACTIVE) {... */\n      tag_199\n      jumpi\n        /* \"contracts/Pickr.sol\":2036:2044  codeHash */\n      dup3\n        /* \"contracts/Pickr.sol\":2013:2045  ErrorRaffleIsNotActive(codeHash) */\n      mload(0x40)\n      0x8c664a9d00000000000000000000000000000000000000000000000000000000\n      dup2\n      mstore\n      0x04\n      add\n      tag_200\n      swap2\n      swap1\n      tag_91\n      jump\t// in\n    tag_200:\n      mload(0x40)\n      dup1\n      swap2\n      sub\n      swap1\n      revert\n        /* \"contracts/Pickr.sol\":1950:2056  if (raffle.status != RaffleStatus.ACTIVE) {... */\n    tag_199:\n        /* \"contracts/Pickr.sol\":2083:2084  0 */\n      0x00\n        /* \"contracts/Pickr.sol\":2070:2079  msg.value */\n      callvalue\n        /* \"contracts/Pickr.sol\":2070:2084  msg.value == 0 */\n      sub\n        /* \"contracts/Pickr.sol\":2066:2115  if (msg.value == 0) revert ErrorDepositRequired() */\n      tag_201\n      jumpi\n        /* \"contracts/Pickr.sol\":2093:2115  ErrorDepositRequired() */\n      mload(0x40)\n      0x600f7bf400000000000000000000000000000000000000000000000000000000\n      dup2\n      mstore\n      0x04\n      add\n      mload(0x40)\n      dup1\n      swap2\n      sub\n      swap1\n      revert\n        /* \"contracts/Pickr.sol\":2066:2115  if (msg.value == 0) revert ErrorDepositRequired() */\n    tag_201:\n        /* \"contracts/Pickr.sol\":2144:2153  msg.value */\n      callvalue\n        /* \"contracts/Pickr.sol\":2126:2132  raffle */\n      dup2\n        /* \"contracts/Pickr.sol\":2126:2140  raffle.balance */\n      0x01\n      add\n      0x00\n        /* \"contracts/Pickr.sol\":2126:2153  raffle.balance += msg.value */\n      dup3\n      dup3\n      sload\n      tag_202\n      swap2\n      swap1\n      tag_203\n      jump\t// in\n    tag_202:\n      swap3\n      pop\n      pop\n      dup2\n      swap1\n      sstore\n      pop\n        /* \"contracts/Pickr.sol\":1809:2160  {... */\n      pop\n        /* \"contracts/Pickr.sol\":1735:2160  function deposit(bytes32 codeHash) external payable onlyCreator(codeHash) {... */\n      pop\n      pop\n      jump\t// out\n        /* \"contracts/Pickr.sol\":2593:3381  function winnerSelected(... */\n    tag_63:\n        /* \"contracts/Pickr.sol\":2694:2702  codeHash */\n      dup2\n        /* \"contracts/Pickr.sol\":241:265  _isRaffleExist(codeHash) */\n      tag_205\n        /* \"contracts/Pickr.sol\":256:264  codeHash */\n      dup2\n        /* \"contracts/Pickr.sol\":241:255  _isRaffleExist */\n      tag_88\n        /* \"contracts/Pickr.sol\":241:265  _isRaffleExist(codeHash) */\n      jump\t// in\n    tag_205:\n        /* \"contracts/Pickr.sol\":236:330  if (!_isRaffleExist(codeHash)) {... */\n      tag_206\n      jumpi\n        /* \"contracts/Pickr.sol\":310:318  codeHash */\n      dup1\n        /* \"contracts/Pickr.sol\":288:319  ErrorRaffleIsNotExist(codeHash) */\n      mload(0x40)\n      0x7aafa10400000000000000000000000000000000000000000000000000000000\n      dup2\n      mstore\n      0x04\n      add\n      tag_207\n      swap2\n      swap1\n      tag_91\n      jump\t// in\n    tag_207:\n      mload(0x40)\n      dup1\n      swap2\n      sub\n      swap1\n      revert\n        /* \"contracts/Pickr.sol\":236:330  if (!_isRaffleExist(codeHash)) {... */\n    tag_206:\n        /* \"contracts/Pickr.sol\":357:364  raffles */\n      0x00\n        /* \"contracts/Pickr.sol\":357:374  raffles[codeHash] */\n      dup1\n        /* \"contracts/Pickr.sol\":365:373  codeHash */\n      dup3\n        /* \"contracts/Pickr.sol\":357:374  raffles[codeHash] */\n      dup2\n      mstore\n      0x20\n      add\n      swap1\n      dup2\n      mstore\n      0x20\n      add\n      0x00\n      keccak256\n        /* \"contracts/Pickr.sol\":357:382  raffles[codeHash].creator */\n      0x00\n      add\n      0x00\n      swap1\n      sload\n      swap1\n      0x0100\n      exp\n      swap1\n      div\n      0xffffffffffffffffffffffffffffffffffffffff\n      and\n        /* \"contracts/Pickr.sol\":343:382  msg.sender != raffles[codeHash].creator */\n      0xffffffffffffffffffffffffffffffffffffffff\n      and\n        /* \"contracts/Pickr.sol\":343:353  msg.sender */\n      caller\n        /* \"contracts/Pickr.sol\":343:382  msg.sender != raffles[codeHash].creator */\n      0xffffffffffffffffffffffffffffffffffffffff\n      and\n      eq\n        /* \"contracts/Pickr.sol\":339:446  if (msg.sender != raffles[codeHash].creator) {... */\n      tag_208\n      jumpi\n        /* \"contracts/Pickr.sol\":424:434  msg.sender */\n      caller\n        /* \"contracts/Pickr.sol\":405:435  ErrorNotAuthorized(msg.sender) */\n      mload(0x40)\n      0xd68affb700000000000000000000000000000000000000000000000000000000\n      dup2\n      mstore\n      0x04\n      add\n      tag_209\n      swap2\n      swap1\n      tag_28\n      jump\t// in\n    tag_209:\n      mload(0x40)\n      dup1\n      swap2\n      sub\n      swap1\n      revert\n        /* \"contracts/Pickr.sol\":339:446  if (msg.sender != raffles[codeHash].creator) {... */\n    tag_208:\n        /* \"contracts/Pickr.sol\":2714:2735  Raffle storage raffle */\n      0x00\n        /* \"contracts/Pickr.sol\":2738:2745  raffles */\n      dup1\n        /* \"contracts/Pickr.sol\":2738:2755  raffles[codeHash] */\n      0x00\n        /* \"contracts/Pickr.sol\":2746:2754  codeHash */\n      dup6\n        /* \"contracts/Pickr.sol\":2738:2755  raffles[codeHash] */\n      dup2\n      mstore\n      0x20\n      add\n      swap1\n      dup2\n      mstore\n      0x20\n      add\n      0x00\n      keccak256\n        /* \"contracts/Pickr.sol\":2714:2755  Raffle storage raffle = raffles[codeHash] */\n      swap1\n      pop\n        /* \"contracts/Pickr.sol\":2786:2806  RaffleStatus.STARTED */\n      0x02\n        /* \"contracts/Pickr.sol\":2769:2806  raffle.status != RaffleStatus.STARTED */\n      dup1\n      dup2\n      gt\n      iszero\n      tag_211\n      jumpi\n      tag_212\n      tag_96\n      jump\t// in\n    tag_212:\n    tag_211:\n        /* \"contracts/Pickr.sol\":2769:2775  raffle */\n      dup2\n        /* \"contracts/Pickr.sol\":2769:2782  raffle.status */\n      0x02\n      add\n      0x00\n      swap1\n      sload\n      swap1\n      0x0100\n      exp\n      swap1\n      div\n      0xff\n      and\n        /* \"contracts/Pickr.sol\":2769:2806  raffle.status != RaffleStatus.STARTED */\n      0x02\n      dup2\n      gt\n      iszero\n      tag_213\n      jumpi\n      tag_214\n      tag_96\n      jump\t// in\n    tag_214:\n    tag_213:\n      eq\n        /* \"contracts/Pickr.sol\":2765:2873  if (raffle.status != RaffleStatus.STARTED) {... */\n      tag_215\n      jumpi\n        /* \"contracts/Pickr.sol\":2853:2861  codeHash */\n      dup4\n        /* \"contracts/Pickr.sol\":2829:2862  ErrorRaffleIsNotStarted(codeHash) */\n      mload(0x40)\n      0xd1dbaf5500000000000000000000000000000000000000000000000000000000\n      dup2\n      mstore\n      0x04\n      add\n      tag_216\n      swap2\n      swap1\n      tag_91\n      jump\t// in\n    tag_216:\n      mload(0x40)\n      dup1\n      swap2\n      sub\n      swap1\n      revert\n        /* \"contracts/Pickr.sol\":2765:2873  if (raffle.status != RaffleStatus.STARTED) {... */\n    tag_215:\n        /* \"contracts/Pickr.sol\":2904:2905  0 */\n      0x00\n        /* \"contracts/Pickr.sol\":2886:2906  winner == address(0) */\n      0xffffffffffffffffffffffffffffffffffffffff\n      and\n        /* \"contracts/Pickr.sol\":2886:2892  winner */\n      dup4\n        /* \"contracts/Pickr.sol\":2886:2906  winner == address(0) */\n      0xffffffffffffffffffffffffffffffffffffffff\n      and\n      sub\n        /* \"contracts/Pickr.sol\":2882:2943  if (winner == address(0)) revert ErrorInvalidWinner(codeHash) */\n      tag_217\n      jumpi\n        /* \"contracts/Pickr.sol\":2934:2942  codeHash */\n      dup4\n        /* \"contracts/Pickr.sol\":2915:2943  ErrorInvalidWinner(codeHash) */\n      mload(0x40)\n      0xfe23ea1f00000000000000000000000000000000000000000000000000000000\n      dup2\n      mstore\n      0x04\n      add\n      tag_218\n      swap2\n      swap1\n      tag_91\n      jump\t// in\n    tag_218:\n      mload(0x40)\n      dup1\n      swap2\n      sub\n      swap1\n      revert\n        /* \"contracts/Pickr.sol\":2882:2943  if (winner == address(0)) revert ErrorInvalidWinner(codeHash) */\n    tag_217:\n        /* \"contracts/Pickr.sol\":2958:2967  hasJoined */\n      0x01\n        /* \"contracts/Pickr.sol\":2958:2977  hasJoined[codeHash] */\n      0x00\n        /* \"contracts/Pickr.sol\":2968:2976  codeHash */\n      dup6\n        /* \"contracts/Pickr.sol\":2958:2977  hasJoined[codeHash] */\n      dup2\n      mstore\n      0x20\n      add\n      swap1\n      dup2\n      mstore\n      0x20\n      add\n      0x00\n      keccak256\n        /* \"contracts/Pickr.sol\":2958:2985  hasJoined[codeHash][winner] */\n      0x00\n        /* \"contracts/Pickr.sol\":2978:2984  winner */\n      dup5\n        /* \"contracts/Pickr.sol\":2958:2985  hasJoined[codeHash][winner] */\n      0xffffffffffffffffffffffffffffffffffffffff\n      and\n      0xffffffffffffffffffffffffffffffffffffffff\n      and\n      dup2\n      mstore\n      0x20\n      add\n      swap1\n      dup2\n      mstore\n      0x20\n      add\n      0x00\n      keccak256\n      0x00\n      swap1\n      sload\n      swap1\n      0x0100\n      exp\n      swap1\n      div\n      0xff\n      and\n        /* \"contracts/Pickr.sol\":2953:3065  if (!hasJoined[codeHash][winner]) {... */\n      tag_219\n      jumpi\n        /* \"contracts/Pickr.sol\":3037:3045  codeHash */\n      dup4\n        /* \"contracts/Pickr.sol\":3047:3053  winner */\n      dup4\n        /* \"contracts/Pickr.sol\":3008:3054  ErrorAddressIsNotParticipant(codeHash, winner) */\n      mload(0x40)\n      0xe66163eb00000000000000000000000000000000000000000000000000000000\n      dup2\n      mstore\n      0x04\n      add\n      tag_220\n      swap3\n      swap2\n      swap1\n      tag_221\n      jump\t// in\n    tag_220:\n      mload(0x40)\n      dup1\n      swap2\n      sub\n      swap1\n      revert\n        /* \"contracts/Pickr.sol\":2953:3065  if (!hasJoined[codeHash][winner]) {... */\n    tag_219:\n        /* \"contracts/Pickr.sol\":3075:3088  uint256 prize */\n      0x00\n        /* \"contracts/Pickr.sol\":3091:3097  raffle */\n      dup2\n        /* \"contracts/Pickr.sol\":3091:3105  raffle.balance */\n      0x01\n      add\n      sload\n        /* \"contracts/Pickr.sol\":3075:3105  uint256 prize = raffle.balance */\n      swap1\n      pop\n        /* \"contracts/Pickr.sol\":3131:3132  0 */\n      0x00\n        /* \"contracts/Pickr.sol\":3123:3128  prize */\n      dup2\n        /* \"contracts/Pickr.sol\":3123:3132  prize > 0 */\n      gt\n        /* \"contracts/Pickr.sol\":3115:3153  require(prize > 0, \"No prize balance\") */\n      tag_222\n      jumpi\n      mload(0x40)\n      0x08c379a000000000000000000000000000000000000000000000000000000000\n      dup2\n      mstore\n      0x04\n      add\n      tag_223\n      swap1\n      tag_224\n      jump\t// in\n    tag_223:\n      mload(0x40)\n      dup1\n      swap2\n      sub\n      swap1\n      revert\n    tag_222:\n        /* \"contracts/Pickr.sol\":3184:3190  winner */\n      dup4\n        /* \"contracts/Pickr.sol\":3164:3171  winners */\n      0x03\n        /* \"contracts/Pickr.sol\":3164:3181  winners[codeHash] */\n      0x00\n        /* \"contracts/Pickr.sol\":3172:3180  codeHash */\n      dup8\n        /* \"contracts/Pickr.sol\":3164:3181  winners[codeHash] */\n      dup2\n      mstore\n      0x20\n      add\n      swap1\n      dup2\n      mstore\n      0x20\n      add\n      0x00\n      keccak256\n      0x00\n        /* \"contracts/Pickr.sol\":3164:3190  winners[codeHash] = winner */\n      0x0100\n      exp\n      dup2\n      sload\n      dup2\n      0xffffffffffffffffffffffffffffffffffffffff\n      mul\n      not\n      and\n      swap1\n      dup4\n      0xffffffffffffffffffffffffffffffffffffffff\n      and\n      mul\n      or\n      swap1\n      sstore\n      pop\n        /* \"contracts/Pickr.sol\":3216:3237  RaffleStatus.INACTIVE */\n      0x01\n        /* \"contracts/Pickr.sol\":3200:3206  raffle */\n      dup3\n        /* \"contracts/Pickr.sol\":3200:3213  raffle.status */\n      0x02\n      add\n      0x00\n        /* \"contracts/Pickr.sol\":3200:3237  raffle.status = RaffleStatus.INACTIVE */\n      0x0100\n      exp\n      dup2\n      sload\n      dup2\n      0xff\n      mul\n      not\n      and\n      swap1\n      dup4\n      0x02\n      dup2\n      gt\n      iszero\n      tag_225\n      jumpi\n      tag_226\n      tag_96\n      jump\t// in\n    tag_226:\n    tag_225:\n      mul\n      or\n      swap1\n      sstore\n      pop\n        /* \"contracts/Pickr.sol\":3264:3265  0 */\n      0x00\n        /* \"contracts/Pickr.sol\":3247:3253  raffle */\n      dup3\n        /* \"contracts/Pickr.sol\":3247:3261  raffle.balance */\n      0x01\n      add\n        /* \"contracts/Pickr.sol\":3247:3265  raffle.balance = 0 */\n      dup2\n      swap1\n      sstore\n      pop\n        /* \"contracts/Pickr.sol\":3277:3284  bool ok */\n      0x00\n        /* \"contracts/Pickr.sol\":3298:3304  winner */\n      dup5\n        /* \"contracts/Pickr.sol\":3290:3310  payable(winner).call */\n      0xffffffffffffffffffffffffffffffffffffffff\n      and\n        /* \"contracts/Pickr.sol\":3318:3323  prize */\n      dup3\n        /* \"contracts/Pickr.sol\":3290:3328  payable(winner).call{value: prize}(\"\") */\n      mload(0x40)\n      tag_227\n      swap1\n      tag_125\n      jump\t// in\n    tag_227:\n      0x00\n      mload(0x40)\n      dup1\n      dup4\n      sub\n      dup2\n      dup6\n      dup8\n      gas\n      call\n      swap3\n      pop\n      pop\n      pop\n      returndatasize\n      dup1\n      0x00\n      dup2\n      eq\n      tag_230\n      jumpi\n      mload(0x40)\n      swap2\n      pop\n      and(add(returndatasize, 0x3f), not(0x1f))\n      dup3\n      add\n      0x40\n      mstore\n      returndatasize\n      dup3\n      mstore\n      returndatasize\n      0x00\n      0x20\n      dup5\n      add\n      returndatacopy\n      jump(tag_229)\n    tag_230:\n      0x60\n      swap2\n      pop\n    tag_229:\n      pop\n        /* \"contracts/Pickr.sol\":3276:3328  (bool ok, ) = payable(winner).call{value: prize}(\"\") */\n      pop\n      swap1\n      pop\n        /* \"contracts/Pickr.sol\":3346:3348  ok */\n      dup1\n        /* \"contracts/Pickr.sol\":3338:3374  require(ok, \"Winner payout failure\") */\n      tag_231\n      jumpi\n      mload(0x40)\n      0x08c379a000000000000000000000000000000000000000000000000000000000\n      dup2\n      mstore\n      0x04\n      add\n      tag_232\n      swap1\n      tag_233\n      jump\t// in\n    tag_232:\n      mload(0x40)\n      dup1\n      swap2\n      sub\n      swap1\n      revert\n    tag_231:\n        /* \"contracts/Pickr.sol\":2704:3381  {... */\n      pop\n      pop\n      pop\n        /* \"contracts/Pickr.sol\":2593:3381  function winnerSelected(... */\n      pop\n      pop\n      pop\n      jump\t// out\n        /* \"contracts/Pickr.sol\":4334:5201  function leaveRaffle(bytes32 codeHash) external {... */\n    tag_67:\n        /* \"contracts/Pickr.sol\":4397:4421  _isRaffleExist(codeHash) */\n      tag_235\n        /* \"contracts/Pickr.sol\":4412:4420  codeHash */\n      dup2\n        /* \"contracts/Pickr.sol\":4397:4411  _isRaffleExist */\n      tag_88\n        /* \"contracts/Pickr.sol\":4397:4421  _isRaffleExist(codeHash) */\n      jump\t// in\n    tag_235:\n        /* \"contracts/Pickr.sol\":4392:4486  if (!_isRaffleExist(codeHash)) {... */\n      tag_236\n      jumpi\n        /* \"contracts/Pickr.sol\":4466:4474  codeHash */\n      dup1\n        /* \"contracts/Pickr.sol\":4444:4475  ErrorRaffleIsNotExist(codeHash) */\n      mload(0x40)\n      0x7aafa10400000000000000000000000000000000000000000000000000000000\n      dup2\n      mstore\n      0x04\n      add\n      tag_237\n      swap2\n      swap1\n      tag_91\n      jump\t// in\n    tag_237:\n      mload(0x40)\n      dup1\n      swap2\n      sub\n      swap1\n      revert\n        /* \"contracts/Pickr.sol\":4392:4486  if (!_isRaffleExist(codeHash)) {... */\n    tag_236:\n        /* \"contracts/Pickr.sol\":4496:4517  Raffle storage raffle */\n      0x00\n        /* \"contracts/Pickr.sol\":4520:4527  raffles */\n      dup1\n        /* \"contracts/Pickr.sol\":4520:4537  raffles[codeHash] */\n      0x00\n        /* \"contracts/Pickr.sol\":4528:4536  codeHash */\n      dup4\n        /* \"contracts/Pickr.sol\":4520:4537  raffles[codeHash] */\n      dup2\n      mstore\n      0x20\n      add\n      swap1\n      dup2\n      mstore\n      0x20\n      add\n      0x00\n      keccak256\n        /* \"contracts/Pickr.sol\":4496:4537  Raffle storage raffle = raffles[codeHash] */\n      swap1\n      pop\n        /* \"contracts/Pickr.sol\":4568:4587  RaffleStatus.ACTIVE */\n      0x00\n        /* \"contracts/Pickr.sol\":4551:4587  raffle.status != RaffleStatus.ACTIVE */\n      0x02\n      dup2\n      gt\n      iszero\n      tag_238\n      jumpi\n      tag_239\n      tag_96\n      jump\t// in\n    tag_239:\n    tag_238:\n        /* \"contracts/Pickr.sol\":4551:4557  raffle */\n      dup2\n        /* \"contracts/Pickr.sol\":4551:4564  raffle.status */\n      0x02\n      add\n      0x00\n      swap1\n      sload\n      swap1\n      0x0100\n      exp\n      swap1\n      div\n      0xff\n      and\n        /* \"contracts/Pickr.sol\":4551:4587  raffle.status != RaffleStatus.ACTIVE */\n      0x02\n      dup2\n      gt\n      iszero\n      tag_240\n      jumpi\n      tag_241\n      tag_96\n      jump\t// in\n    tag_241:\n    tag_240:\n      eq\n        /* \"contracts/Pickr.sol\":4547:4653  if (raffle.status != RaffleStatus.ACTIVE) {... */\n      tag_242\n      jumpi\n        /* \"contracts/Pickr.sol\":4633:4641  codeHash */\n      dup2\n        /* \"contracts/Pickr.sol\":4610:4642  ErrorRaffleIsNotActive(codeHash) */\n      mload(0x40)\n      0x8c664a9d00000000000000000000000000000000000000000000000000000000\n      dup2\n      mstore\n      0x04\n      add\n      tag_243\n      swap2\n      swap1\n      tag_91\n      jump\t// in\n    tag_243:\n      mload(0x40)\n      dup1\n      swap2\n      sub\n      swap1\n      revert\n        /* \"contracts/Pickr.sol\":4547:4653  if (raffle.status != RaffleStatus.ACTIVE) {... */\n    tag_242:\n        /* \"contracts/Pickr.sol\":4663:4674  bool joined */\n      0x00\n        /* \"contracts/Pickr.sol\":4677:4686  hasJoined */\n      0x01\n        /* \"contracts/Pickr.sol\":4677:4696  hasJoined[codeHash] */\n      0x00\n        /* \"contracts/Pickr.sol\":4687:4695  codeHash */\n      dup5\n        /* \"contracts/Pickr.sol\":4677:4696  hasJoined[codeHash] */\n      dup2\n      mstore\n      0x20\n      add\n      swap1\n      dup2\n      mstore\n      0x20\n      add\n      0x00\n      keccak256\n        /* \"contracts/Pickr.sol\":4677:4708  hasJoined[codeHash][msg.sender] */\n      0x00\n        /* \"contracts/Pickr.sol\":4697:4707  msg.sender */\n      caller\n        /* \"contracts/Pickr.sol\":4677:4708  hasJoined[codeHash][msg.sender] */\n      0xffffffffffffffffffffffffffffffffffffffff\n      and\n      0xffffffffffffffffffffffffffffffffffffffff\n      and\n      dup2\n      mstore\n      0x20\n      add\n      swap1\n      dup2\n      mstore\n      0x20\n      add\n      0x00\n      keccak256\n      0x00\n      swap1\n      sload\n      swap1\n      0x0100\n      exp\n      swap1\n      div\n      0xff\n      and\n        /* \"contracts/Pickr.sol\":4663:4708  bool joined = hasJoined[codeHash][msg.sender] */\n      swap1\n      pop\n        /* \"contracts/Pickr.sol\":4723:4729  joined */\n      dup1\n        /* \"contracts/Pickr.sol\":4718:4773  if (!joined) revert ErrorUserIsNotParticipant(codeHash) */\n      tag_244\n      jumpi\n        /* \"contracts/Pickr.sol\":4764:4772  codeHash */\n      dup3\n        /* \"contracts/Pickr.sol\":4738:4773  ErrorUserIsNotParticipant(codeHash) */\n      mload(0x40)\n      0x0d7648af00000000000000000000000000000000000000000000000000000000\n      dup2\n      mstore\n      0x04\n      add\n      tag_245\n      swap2\n      swap1\n      tag_91\n      jump\t// in\n    tag_245:\n      mload(0x40)\n      dup1\n      swap2\n      sub\n      swap1\n      revert\n        /* \"contracts/Pickr.sol\":4718:4773  if (!joined) revert ErrorUserIsNotParticipant(codeHash) */\n    tag_244:\n        /* \"contracts/Pickr.sol\":4784:4790  raffle */\n      dup2\n        /* \"contracts/Pickr.sol\":4784:4807  raffle.totalParticipant */\n      0x05\n      add\n      0x00\n        /* \"contracts/Pickr.sol\":4784:4809  raffle.totalParticipant-- */\n      dup2\n      sload\n      dup1\n      swap3\n      swap2\n      swap1\n      tag_246\n      swap1\n      tag_247\n      jump\t// in\n    tag_246:\n      swap2\n      swap1\n      pop\n      sstore\n      pop\n        /* \"contracts/Pickr.sol\":4853:4858  false */\n      0x00\n        /* \"contracts/Pickr.sol\":4819:4828  hasJoined */\n      0x01\n        /* \"contracts/Pickr.sol\":4819:4838  hasJoined[codeHash] */\n      0x00\n        /* \"contracts/Pickr.sol\":4829:4837  codeHash */\n      dup6\n        /* \"contracts/Pickr.sol\":4819:4838  hasJoined[codeHash] */\n      dup2\n      mstore\n      0x20\n      add\n      swap1\n      dup2\n      mstore\n      0x20\n      add\n      0x00\n      keccak256\n        /* \"contracts/Pickr.sol\":4819:4850  hasJoined[codeHash][msg.sender] */\n      0x00\n        /* \"contracts/Pickr.sol\":4839:4849  msg.sender */\n      caller\n        /* \"contracts/Pickr.sol\":4819:4850  hasJoined[codeHash][msg.sender] */\n      0xffffffffffffffffffffffffffffffffffffffff\n      and\n      0xffffffffffffffffffffffffffffffffffffffff\n      and\n      dup2\n      mstore\n      0x20\n      add\n      swap1\n      dup2\n      mstore\n      0x20\n      add\n      0x00\n      keccak256\n      0x00\n        /* \"contracts/Pickr.sol\":4819:4858  hasJoined[codeHash][msg.sender] = false */\n      0x0100\n      exp\n      dup2\n      sload\n      dup2\n      0xff\n      mul\n      not\n      and\n      swap1\n      dup4\n      iszero\n      iszero\n      mul\n      or\n      swap1\n      sstore\n      pop\n        /* \"contracts/Pickr.sol\":4869:4883  uint256 length */\n      0x00\n        /* \"contracts/Pickr.sol\":4886:4898  participants */\n      0x02\n        /* \"contracts/Pickr.sol\":4886:4908  participants[codeHash] */\n      0x00\n        /* \"contracts/Pickr.sol\":4899:4907  codeHash */\n      dup6\n        /* \"contracts/Pickr.sol\":4886:4908  participants[codeHash] */\n      dup2\n      mstore\n      0x20\n      add\n      swap1\n      dup2\n      mstore\n      0x20\n      add\n      0x00\n      keccak256\n        /* \"contracts/Pickr.sol\":4886:4915  participants[codeHash].length */\n      dup1\n      sload\n      swap1\n      pop\n        /* \"contracts/Pickr.sol\":4869:4915  uint256 length = participants[codeHash].length */\n      swap1\n      pop\n        /* \"contracts/Pickr.sol\":4930:4939  uint256 i */\n      0x00\n        /* \"contracts/Pickr.sol\":4925:5195  for (uint256 i = 0; i < length; i++) {... */\n    tag_248:\n        /* \"contracts/Pickr.sol\":4949:4955  length */\n      dup2\n        /* \"contracts/Pickr.sol\":4945:4946  i */\n      dup2\n        /* \"contracts/Pickr.sol\":4945:4955  i < length */\n      lt\n        /* \"contracts/Pickr.sol\":4925:5195  for (uint256 i = 0; i < length; i++) {... */\n      iszero\n      tag_249\n      jumpi\n        /* \"contracts/Pickr.sol\":5009:5019  msg.sender */\n      caller\n        /* \"contracts/Pickr.sol\":4980:5019  participants[codeHash][i] == msg.sender */\n      0xffffffffffffffffffffffffffffffffffffffff\n      and\n        /* \"contracts/Pickr.sol\":4980:4992  participants */\n      0x02\n        /* \"contracts/Pickr.sol\":4980:5002  participants[codeHash] */\n      0x00\n        /* \"contracts/Pickr.sol\":4993:5001  codeHash */\n      dup8\n        /* \"contracts/Pickr.sol\":4980:5002  participants[codeHash] */\n      dup2\n      mstore\n      0x20\n      add\n      swap1\n      dup2\n      mstore\n      0x20\n      add\n      0x00\n      keccak256\n        /* \"contracts/Pickr.sol\":5003:5004  i */\n      dup3\n        /* \"contracts/Pickr.sol\":4980:5005  participants[codeHash][i] */\n      dup2\n      sload\n      dup2\n      lt\n      tag_251\n      jumpi\n      tag_252\n      tag_147\n      jump\t// in\n    tag_252:\n    tag_251:\n      swap1\n      0x00\n      mstore\n      keccak256(0x00, 0x20)\n      add\n      0x00\n      swap1\n      sload\n      swap1\n      0x0100\n      exp\n      swap1\n      div\n      0xffffffffffffffffffffffffffffffffffffffff\n      and\n        /* \"contracts/Pickr.sol\":4980:5019  participants[codeHash][i] == msg.sender */\n      0xffffffffffffffffffffffffffffffffffffffff\n      and\n      sub\n        /* \"contracts/Pickr.sol\":4976:5185  if (participants[codeHash][i] == msg.sender) {... */\n      tag_254\n      jumpi\n        /* \"contracts/Pickr.sol\":5067:5079  participants */\n      0x02\n        /* \"contracts/Pickr.sol\":5067:5089  participants[codeHash] */\n      0x00\n        /* \"contracts/Pickr.sol\":5080:5088  codeHash */\n      dup7\n        /* \"contracts/Pickr.sol\":5067:5089  participants[codeHash] */\n      dup2\n      mstore\n      0x20\n      add\n      swap1\n      dup2\n      mstore\n      0x20\n      add\n      0x00\n      keccak256\n        /* \"contracts/Pickr.sol\":5099:5100  1 */\n      0x01\n        /* \"contracts/Pickr.sol\":5090:5096  length */\n      dup4\n        /* \"contracts/Pickr.sol\":5090:5100  length - 1 */\n      tag_255\n      swap2\n      swap1\n      tag_256\n      jump\t// in\n    tag_255:\n        /* \"contracts/Pickr.sol\":5067:5101  participants[codeHash][length - 1] */\n      dup2\n      sload\n      dup2\n      lt\n      tag_257\n      jumpi\n      tag_258\n      tag_147\n      jump\t// in\n    tag_258:\n    tag_257:\n      swap1\n      0x00\n      mstore\n      keccak256(0x00, 0x20)\n      add\n      0x00\n      swap1\n      sload\n      swap1\n      0x0100\n      exp\n      swap1\n      div\n      0xffffffffffffffffffffffffffffffffffffffff\n      and\n        /* \"contracts/Pickr.sol\":5039:5051  participants */\n      0x02\n        /* \"contracts/Pickr.sol\":5039:5061  participants[codeHash] */\n      0x00\n        /* \"contracts/Pickr.sol\":5052:5060  codeHash */\n      dup8\n        /* \"contracts/Pickr.sol\":5039:5061  participants[codeHash] */\n      dup2\n      mstore\n      0x20\n      add\n      swap1\n      dup2\n      mstore\n      0x20\n      add\n      0x00\n      keccak256\n        /* \"contracts/Pickr.sol\":5062:5063  i */\n      dup3\n        /* \"contracts/Pickr.sol\":5039:5064  participants[codeHash][i] */\n      dup2\n      sload\n      dup2\n      lt\n      tag_260\n      jumpi\n      tag_261\n      tag_147\n      jump\t// in\n    tag_261:\n    tag_260:\n      swap1\n      0x00\n      mstore\n      keccak256(0x00, 0x20)\n      add\n      0x00\n        /* \"contracts/Pickr.sol\":5039:5101  participants[codeHash][i] = participants[codeHash][length - 1] */\n      0x0100\n      exp\n      dup2\n      sload\n      dup2\n      0xffffffffffffffffffffffffffffffffffffffff\n      mul\n      not\n      and\n      swap1\n      dup4\n      0xffffffffffffffffffffffffffffffffffffffff\n      and\n      mul\n      or\n      swap1\n      sstore\n      pop\n        /* \"contracts/Pickr.sol\":5119:5131  participants */\n      0x02\n        /* \"contracts/Pickr.sol\":5119:5141  participants[codeHash] */\n      0x00\n        /* \"contracts/Pickr.sol\":5132:5140  codeHash */\n      dup7\n        /* \"contracts/Pickr.sol\":5119:5141  participants[codeHash] */\n      dup2\n      mstore\n      0x20\n      add\n      swap1\n      dup2\n      mstore\n      0x20\n      add\n      0x00\n      keccak256\n        /* \"contracts/Pickr.sol\":5119:5147  participants[codeHash].pop() */\n      dup1\n      sload\n      dup1\n      tag_263\n      jumpi\n      tag_264\n      tag_265\n      jump\t// in\n    tag_264:\n    tag_263:\n      0x01\n      swap1\n      sub\n      dup2\n      dup2\n      swap1\n      0x00\n      mstore\n      keccak256(0x00, 0x20)\n      add\n      exp(0x0100, 0x00)\n      dup2\n      sload\n      swap1\n      0xffffffffffffffffffffffffffffffffffffffff\n      mul\n      not\n      and\n      swap1\n      sstore\n      swap1\n      sstore\n        /* \"contracts/Pickr.sol\":5165:5170  break */\n      jump(tag_249)\n        /* \"contracts/Pickr.sol\":4976:5185  if (participants[codeHash][i] == msg.sender) {... */\n    tag_254:\n        /* \"contracts/Pickr.sol\":4957:4960  i++ */\n      dup1\n      dup1\n      tag_267\n      swap1\n      tag_106\n      jump\t// in\n    tag_267:\n      swap2\n      pop\n      pop\n        /* \"contracts/Pickr.sol\":4925:5195  for (uint256 i = 0; i < length; i++) {... */\n      jump(tag_248)\n    tag_249:\n      pop\n        /* \"contracts/Pickr.sol\":4382:5201  {... */\n      pop\n      pop\n      pop\n        /* \"contracts/Pickr.sol\":4334:5201  function leaveRaffle(bytes32 codeHash) external {... */\n      pop\n      jump\t// out\n        /* \"contracts/Pickr.sol\":3387:3534  function raffleParticipants(... */\n    tag_71:\n        /* \"contracts/Pickr.sol\":3470:3486  address[] memory */\n      0x60\n        /* \"contracts/Pickr.sol\":3505:3517  participants */\n      0x02\n        /* \"contracts/Pickr.sol\":3505:3527  participants[codeHash] */\n      0x00\n        /* \"contracts/Pickr.sol\":3518:3526  codeHash */\n      dup4\n        /* \"contracts/Pickr.sol\":3505:3527  participants[codeHash] */\n      dup2\n      mstore\n      0x20\n      add\n      swap1\n      dup2\n      mstore\n      0x20\n      add\n      0x00\n      keccak256\n        /* \"contracts/Pickr.sol\":3498:3527  return participants[codeHash] */\n      dup1\n      sload\n      dup1\n      0x20\n      mul\n      0x20\n      add\n      mload(0x40)\n      swap1\n      dup2\n      add\n      0x40\n      mstore\n      dup1\n      swap3\n      swap2\n      swap1\n      dup2\n      dup2\n      mstore\n      0x20\n      add\n      dup3\n      dup1\n      sload\n      dup1\n      iszero\n      tag_269\n      jumpi\n      0x20\n      mul\n      dup3\n      add\n      swap2\n      swap1\n      0x00\n      mstore\n      keccak256(0x00, 0x20)\n      swap1\n    tag_270:\n      dup2\n      0x00\n      swap1\n      sload\n      swap1\n      0x0100\n      exp\n      swap1\n      div\n      0xffffffffffffffffffffffffffffffffffffffff\n      and\n      0xffffffffffffffffffffffffffffffffffffffff\n      and\n      dup2\n      mstore\n      0x20\n      add\n      swap1\n      0x01\n      add\n      swap1\n      dup1\n      dup4\n      gt\n      tag_270\n      jumpi\n    tag_269:\n      pop\n      pop\n      pop\n      pop\n      pop\n      swap1\n      pop\n        /* \"contracts/Pickr.sol\":3387:3534  function raffleParticipants(... */\n      swap2\n      swap1\n      pop\n      jump\t// out\n        /* \"contracts/Pickr.sol\":5867:6020  function getUserRaffleCodes(... */\n    tag_77:\n        /* \"contracts/Pickr.sol\":5949:5965  bytes32[] memory */\n      0x60\n        /* \"contracts/Pickr.sol\":5984:6004  raffleCodesByCreator */\n      0x04\n        /* \"contracts/Pickr.sol\":5984:6013  raffleCodesByCreator[creator] */\n      0x00\n        /* \"contracts/Pickr.sol\":6005:6012  creator */\n      dup4\n        /* \"contracts/Pickr.sol\":5984:6013  raffleCodesByCreator[creator] */\n      0xffffffffffffffffffffffffffffffffffffffff\n      and\n      0xffffffffffffffffffffffffffffffffffffffff\n      and\n      dup2\n      mstore\n      0x20\n      add\n      swap1\n      dup2\n      mstore\n      0x20\n      add\n      0x00\n      keccak256\n        /* \"contracts/Pickr.sol\":5977:6013  return raffleCodesByCreator[creator] */\n      dup1\n      sload\n      dup1\n      0x20\n      mul\n      0x20\n      add\n      mload(0x40)\n      swap1\n      dup2\n      add\n      0x40\n      mstore\n      dup1\n      swap3\n      swap2\n      swap1\n      dup2\n      dup2\n      mstore\n      0x20\n      add\n      dup3\n      dup1\n      sload\n      dup1\n      iszero\n      tag_272\n      jumpi\n      0x20\n      mul\n      dup3\n      add\n      swap2\n      swap1\n      0x00\n      mstore\n      keccak256(0x00, 0x20)\n      swap1\n    tag_273:\n      dup2\n      sload\n      dup2\n      mstore\n      0x20\n      add\n      swap1\n      0x01\n      add\n      swap1\n      dup1\n      dup4\n      gt\n      tag_273\n      jumpi\n    tag_272:\n      pop\n      pop\n      pop\n      pop\n      pop\n      swap1\n      pop\n        /* \"contracts/Pickr.sol\":5867:6020  function getUserRaffleCodes(... */\n      swap2\n      swap1\n      pop\n      jump\t// out\n        /* \"contracts/Pickr.sol\":506:556  mapping(bytes32 codeHash => Raffle) public raffles */\n    tag_83:\n      mstore(0x20, 0x00)\n      dup1\n      0x00\n      mstore\n      keccak256(0x00, 0x40)\n      0x00\n      swap2\n      pop\n      swap1\n      pop\n      dup1\n      0x00\n      add\n      0x00\n      swap1\n      sload\n      swap1\n      0x0100\n      exp\n      swap1\n      div\n      0xffffffffffffffffffffffffffffffffffffffff\n      and\n      swap1\n      dup1\n      0x01\n      add\n      sload\n      swap1\n      dup1\n      0x02\n      add\n      0x00\n      swap1\n      sload\n      swap1\n      0x0100\n      exp\n      swap1\n      div\n      0xff\n      and\n      swap1\n      dup1\n      0x03\n      add\n      sload\n      swap1\n      dup1\n      0x04\n      add\n      sload\n      swap1\n      dup1\n      0x05\n      add\n      sload\n      swap1\n      dup1\n      0x06\n      add\n      0x00\n      swap1\n      sload\n      swap1\n      0x0100\n      exp\n      swap1\n      div\n      0xffffffffffffffff\n      and\n      swap1\n      pop\n      dup8\n      jump\t// out\n        /* \"contracts/Pickr.sol\":5728:5861  function _isRaffleExist(bytes32 codeHash) private view returns (bool) {... */\n    tag_88:\n        /* \"contracts/Pickr.sol\":5792:5796  bool */\n      0x00\n        /* \"contracts/Pickr.sol\":5852:5853  0 */\n      dup1\n        /* \"contracts/Pickr.sol\":5815:5854  raffles[codeHash].creator != address(0) */\n      0xffffffffffffffffffffffffffffffffffffffff\n      and\n        /* \"contracts/Pickr.sol\":5815:5822  raffles */\n      0x00\n        /* \"contracts/Pickr.sol\":5815:5832  raffles[codeHash] */\n      dup1\n        /* \"contracts/Pickr.sol\":5823:5831  codeHash */\n      dup5\n        /* \"contracts/Pickr.sol\":5815:5832  raffles[codeHash] */\n      dup2\n      mstore\n      0x20\n      add\n      swap1\n      dup2\n      mstore\n      0x20\n      add\n      0x00\n      keccak256\n        /* \"contracts/Pickr.sol\":5815:5840  raffles[codeHash].creator */\n      0x00\n      add\n      0x00\n      swap1\n      sload\n      swap1\n      0x0100\n      exp\n      swap1\n      div\n      0xffffffffffffffffffffffffffffffffffffffff\n      and\n        /* \"contracts/Pickr.sol\":5815:5854  raffles[codeHash].creator != address(0) */\n      0xffffffffffffffffffffffffffffffffffffffff\n      and\n      eq\n      iszero\n        /* \"contracts/Pickr.sol\":5808:5854  return raffles[codeHash].creator != address(0) */\n      swap1\n      pop\n        /* \"contracts/Pickr.sol\":5728:5861  function _isRaffleExist(bytes32 codeHash) private view returns (bool) {... */\n      swap2\n      swap1\n      pop\n      jump\t// out\n    tag_141:\n      mload(0x40)\n      dup1\n      0xe0\n      add\n      0x40\n      mstore\n      dup1\n      and(0xffffffffffffffffffffffffffffffffffffffff, 0x00)\n      dup2\n      mstore\n      0x20\n      add\n      0x00\n      dup2\n      mstore\n      0x20\n      add\n      0x00\n      0x02\n      dup2\n      gt\n      iszero\n      tag_275\n      jumpi\n      tag_276\n      tag_96\n      jump\t// in\n    tag_276:\n    tag_275:\n      dup2\n      mstore\n      0x20\n      add\n      0x00\n      dup2\n      mstore\n      0x20\n      add\n      0x00\n      dup2\n      mstore\n      0x20\n      add\n      0x00\n      dup2\n      mstore\n      0x20\n      add\n      and(0xffffffffffffffff, 0x00)\n      dup2\n      mstore\n      pop\n      swap1\n      jump\t// out\n        /* \"#utility.yul\":7:176   */\n    tag_277:\n        /* \"#utility.yul\":91:102   */\n      0x00\n        /* \"#utility.yul\":125:131   */\n      dup3\n        /* \"#utility.yul\":120:123   */\n      dup3\n        /* \"#utility.yul\":113:132   */\n      mstore\n        /* \"#utility.yul\":165:169   */\n      0x20\n        /* \"#utility.yul\":160:163   */\n      dup3\n        /* \"#utility.yul\":156:170   */\n      add\n        /* \"#utility.yul\":141:170   */\n      swap1\n      pop\n        /* \"#utility.yul\":7:176   */\n      swap3\n      swap2\n      pop\n      pop\n      jump\t// out\n        /* \"#utility.yul\":182:403   */\n    tag_278:\n        /* \"#utility.yul\":322:356   */\n      0x75736520637265617465526166666c652f6465706f736974207769746820636f\n        /* \"#utility.yul\":318:319   */\n      0x00\n        /* \"#utility.yul\":310:316   */\n      dup3\n        /* \"#utility.yul\":306:320   */\n      add\n        /* \"#utility.yul\":299:357   */\n      mstore\n        /* \"#utility.yul\":391:395   */\n      0x6465000000000000000000000000000000000000000000000000000000000000\n        /* \"#utility.yul\":386:388   */\n      0x20\n        /* \"#utility.yul\":378:384   */\n      dup3\n        /* \"#utility.yul\":374:389   */\n      add\n        /* \"#utility.yul\":367:396   */\n      mstore\n        /* \"#utility.yul\":182:403   */\n      pop\n      jump\t// out\n        /* \"#utility.yul\":409:775   */\n    tag_279:\n        /* \"#utility.yul\":551:554   */\n      0x00\n        /* \"#utility.yul\":572:639   */\n      tag_340\n        /* \"#utility.yul\":636:638   */\n      0x22\n        /* \"#utility.yul\":631:634   */\n      dup4\n        /* \"#utility.yul\":572:639   */\n      tag_277\n      jump\t// in\n    tag_340:\n        /* \"#utility.yul\":565:639   */\n      swap2\n      pop\n        /* \"#utility.yul\":648:741   */\n      tag_341\n        /* \"#utility.yul\":737:740   */\n      dup3\n        /* \"#utility.yul\":648:741   */\n      tag_278\n      jump\t// in\n    tag_341:\n        /* \"#utility.yul\":766:768   */\n      0x40\n        /* \"#utility.yul\":761:764   */\n      dup3\n        /* \"#utility.yul\":757:769   */\n      add\n        /* \"#utility.yul\":750:769   */\n      swap1\n      pop\n        /* \"#utility.yul\":409:775   */\n      swap2\n      swap1\n      pop\n      jump\t// out\n        /* \"#utility.yul\":781:1200   */\n    tag_21:\n        /* \"#utility.yul\":947:951   */\n      0x00\n        /* \"#utility.yul\":985:987   */\n      0x20\n        /* \"#utility.yul\":974:983   */\n      dup3\n        /* \"#utility.yul\":970:988   */\n      add\n        /* \"#utility.yul\":962:988   */\n      swap1\n      pop\n        /* \"#utility.yul\":1034:1043   */\n      dup2\n        /* \"#utility.yul\":1028:1032   */\n      dup2\n        /* \"#utility.yul\":1024:1044   */\n      sub\n        /* \"#utility.yul\":1020:1021   */\n      0x00\n        /* \"#utility.yul\":1009:1018   */\n      dup4\n        /* \"#utility.yul\":1005:1022   */\n      add\n        /* \"#utility.yul\":998:1045   */\n      mstore\n        /* \"#utility.yul\":1062:1193   */\n      tag_343\n        /* \"#utility.yul\":1188:1192   */\n      dup2\n        /* \"#utility.yul\":1062:1193   */\n      tag_279\n      jump\t// in\n    tag_343:\n        /* \"#utility.yul\":1054:1193   */\n      swap1\n      pop\n        /* \"#utility.yul\":781:1200   */\n      swap2\n      swap1\n      pop\n      jump\t// out\n        /* \"#utility.yul\":1287:1404   */\n    tag_281:\n        /* \"#utility.yul\":1396:1397   */\n      0x00\n        /* \"#utility.yul\":1393:1394   */\n      dup1\n        /* \"#utility.yul\":1386:1398   */\n      revert\n        /* \"#utility.yul\":1533:1610   */\n    tag_283:\n        /* \"#utility.yul\":1570:1577   */\n      0x00\n        /* \"#utility.yul\":1599:1604   */\n      dup2\n        /* \"#utility.yul\":1588:1604   */\n      swap1\n      pop\n        /* \"#utility.yul\":1533:1610   */\n      swap2\n      swap1\n      pop\n      jump\t// out\n        /* \"#utility.yul\":1616:1738   */\n    tag_284:\n        /* \"#utility.yul\":1689:1713   */\n      tag_349\n        /* \"#utility.yul\":1707:1712   */\n      dup2\n        /* \"#utility.yul\":1689:1713   */\n      tag_283\n      jump\t// in\n    tag_349:\n        /* \"#utility.yul\":1682:1687   */\n      dup2\n        /* \"#utility.yul\":1679:1714   */\n      eq\n        /* \"#utility.yul\":1669:1732   */\n      tag_350\n      jumpi\n        /* \"#utility.yul\":1728:1729   */\n      0x00\n        /* \"#utility.yul\":1725:1726   */\n      dup1\n        /* \"#utility.yul\":1718:1730   */\n      revert\n        /* \"#utility.yul\":1669:1732   */\n    tag_350:\n        /* \"#utility.yul\":1616:1738   */\n      pop\n      jump\t// out\n        /* \"#utility.yul\":1744:1883   */\n    tag_285:\n        /* \"#utility.yul\":1790:1795   */\n      0x00\n        /* \"#utility.yul\":1828:1834   */\n      dup2\n        /* \"#utility.yul\":1815:1835   */\n      calldataload\n        /* \"#utility.yul\":1806:1835   */\n      swap1\n      pop\n        /* \"#utility.yul\":1844:1877   */\n      tag_352\n        /* \"#utility.yul\":1871:1876   */\n      dup2\n        /* \"#utility.yul\":1844:1877   */\n      tag_284\n      jump\t// in\n    tag_352:\n        /* \"#utility.yul\":1744:1883   */\n      swap3\n      swap2\n      pop\n      pop\n      jump\t// out\n        /* \"#utility.yul\":1889:2218   */\n    tag_25:\n        /* \"#utility.yul\":1948:1954   */\n      0x00\n        /* \"#utility.yul\":1997:1999   */\n      0x20\n        /* \"#utility.yul\":1985:1994   */\n      dup3\n        /* \"#utility.yul\":1976:1983   */\n      dup5\n        /* \"#utility.yul\":1972:1995   */\n      sub\n        /* \"#utility.yul\":1968:2000   */\n      slt\n        /* \"#utility.yul\":1965:2084   */\n      iszero\n      tag_354\n      jumpi\n        /* \"#utility.yul\":2003:2082   */\n      tag_355\n      tag_281\n      jump\t// in\n    tag_355:\n        /* \"#utility.yul\":1965:2084   */\n    tag_354:\n        /* \"#utility.yul\":2123:2124   */\n      0x00\n        /* \"#utility.yul\":2148:2201   */\n      tag_356\n        /* \"#utility.yul\":2193:2200   */\n      dup5\n        /* \"#utility.yul\":2184:2190   */\n      dup3\n        /* \"#utility.yul\":2173:2182   */\n      dup6\n        /* \"#utility.yul\":2169:2191   */\n      add\n        /* \"#utility.yul\":2148:2201   */\n      tag_285\n      jump\t// in\n    tag_356:\n        /* \"#utility.yul\":2138:2201   */\n      swap2\n      pop\n        /* \"#utility.yul\":2094:2211   */\n      pop\n        /* \"#utility.yul\":1889:2218   */\n      swap3\n      swap2\n      pop\n      pop\n      jump\t// out\n        /* \"#utility.yul\":2224:2350   */\n    tag_286:\n        /* \"#utility.yul\":2261:2268   */\n      0x00\n        /* \"#utility.yul\":2301:2343   */\n      0xffffffffffffffffffffffffffffffffffffffff\n        /* \"#utility.yul\":2294:2299   */\n      dup3\n        /* \"#utility.yul\":2290:2344   */\n      and\n        /* \"#utility.yul\":2279:2344   */\n      swap1\n      pop\n        /* \"#utility.yul\":2224:2350   */\n      swap2\n      swap1\n      pop\n      jump\t// out\n        /* \"#utility.yul\":2356:2452   */\n    tag_287:\n        /* \"#utility.yul\":2393:2400   */\n      0x00\n        /* \"#utility.yul\":2422:2446   */\n      tag_359\n        /* \"#utility.yul\":2440:2445   */\n      dup3\n        /* \"#utility.yul\":2422:2446   */\n      tag_286\n      jump\t// in\n    tag_359:\n        /* \"#utility.yul\":2411:2446   */\n      swap1\n      pop\n        /* \"#utility.yul\":2356:2452   */\n      swap2\n      swap1\n      pop\n      jump\t// out\n        /* \"#utility.yul\":2458:2576   */\n    tag_288:\n        /* \"#utility.yul\":2545:2569   */\n      tag_361\n        /* \"#utility.yul\":2563:2568   */\n      dup2\n        /* \"#utility.yul\":2545:2569   */\n      tag_287\n      jump\t// in\n    tag_361:\n        /* \"#utility.yul\":2540:2543   */\n      dup3\n        /* \"#utility.yul\":2533:2570   */\n      mstore\n        /* \"#utility.yul\":2458:2576   */\n      pop\n      pop\n      jump\t// out\n        /* \"#utility.yul\":2582:2804   */\n    tag_28:\n        /* \"#utility.yul\":2675:2679   */\n      0x00\n        /* \"#utility.yul\":2713:2715   */\n      0x20\n        /* \"#utility.yul\":2702:2711   */\n      dup3\n        /* \"#utility.yul\":2698:2716   */\n      add\n        /* \"#utility.yul\":2690:2716   */\n      swap1\n      pop\n        /* \"#utility.yul\":2726:2797   */\n      tag_363\n        /* \"#utility.yul\":2794:2795   */\n      0x00\n        /* \"#utility.yul\":2783:2792   */\n      dup4\n        /* \"#utility.yul\":2779:2796   */\n      add\n        /* \"#utility.yul\":2770:2776   */\n      dup5\n        /* \"#utility.yul\":2726:2797   */\n      tag_288\n      jump\t// in\n    tag_363:\n        /* \"#utility.yul\":2582:2804   */\n      swap3\n      swap2\n      pop\n      pop\n      jump\t// out\n        /* \"#utility.yul\":2810:2932   */\n    tag_289:\n        /* \"#utility.yul\":2883:2907   */\n      tag_365\n        /* \"#utility.yul\":2901:2906   */\n      dup2\n        /* \"#utility.yul\":2883:2907   */\n      tag_287\n      jump\t// in\n    tag_365:\n        /* \"#utility.yul\":2876:2881   */\n      dup2\n        /* \"#utility.yul\":2873:2908   */\n      eq\n        /* \"#utility.yul\":2863:2926   */\n      tag_366\n      jumpi\n        /* \"#utility.yul\":2922:2923   */\n      0x00\n        /* \"#utility.yul\":2919:2920   */\n      dup1\n        /* \"#utility.yul\":2912:2924   */\n      revert\n        /* \"#utility.yul\":2863:2926   */\n    tag_366:\n        /* \"#utility.yul\":2810:2932   */\n      pop\n      jump\t// out\n        /* \"#utility.yul\":2938:3077   */\n    tag_290:\n        /* \"#utility.yul\":2984:2989   */\n      0x00\n        /* \"#utility.yul\":3022:3028   */\n      dup2\n        /* \"#utility.yul\":3009:3029   */\n      calldataload\n        /* \"#utility.yul\":3000:3029   */\n      swap1\n      pop\n        /* \"#utility.yul\":3038:3071   */\n      tag_368\n        /* \"#utility.yul\":3065:3070   */\n      dup2\n        /* \"#utility.yul\":3038:3071   */\n      tag_289\n      jump\t// in\n    tag_368:\n        /* \"#utility.yul\":2938:3077   */\n      swap3\n      swap2\n      pop\n      pop\n      jump\t// out\n        /* \"#utility.yul\":3083:3412   */\n    tag_44:\n        /* \"#utility.yul\":3142:3148   */\n      0x00\n        /* \"#utility.yul\":3191:3193   */\n      0x20\n        /* \"#utility.yul\":3179:3188   */\n      dup3\n        /* \"#utility.yul\":3170:3177   */\n      dup5\n        /* \"#utility.yul\":3166:3189   */\n      sub\n        /* \"#utility.yul\":3162:3194   */\n      slt\n        /* \"#utility.yul\":3159:3278   */\n      iszero\n      tag_370\n      jumpi\n        /* \"#utility.yul\":3197:3276   */\n      tag_371\n      tag_281\n      jump\t// in\n    tag_371:\n        /* \"#utility.yul\":3159:3278   */\n    tag_370:\n        /* \"#utility.yul\":3317:3318   */\n      0x00\n        /* \"#utility.yul\":3342:3395   */\n      tag_372\n        /* \"#utility.yul\":3387:3394   */\n      dup5\n        /* \"#utility.yul\":3378:3384   */\n      dup3\n        /* \"#utility.yul\":3367:3376   */\n      dup6\n        /* \"#utility.yul\":3363:3385   */\n      add\n        /* \"#utility.yul\":3342:3395   */\n      tag_290\n      jump\t// in\n    tag_372:\n        /* \"#utility.yul\":3332:3395   */\n      swap2\n      pop\n        /* \"#utility.yul\":3288:3405   */\n      pop\n        /* \"#utility.yul\":3083:3412   */\n      swap3\n      swap2\n      pop\n      pop\n      jump\t// out\n        /* \"#utility.yul\":3418:3555   */\n    tag_291:\n        /* \"#utility.yul\":3508:3514   */\n      0x00\n        /* \"#utility.yul\":3542:3547   */\n      dup2\n        /* \"#utility.yul\":3536:3548   */\n      mload\n        /* \"#utility.yul\":3526:3548   */\n      swap1\n      pop\n        /* \"#utility.yul\":3418:3555   */\n      swap2\n      swap1\n      pop\n      jump\t// out\n        /* \"#utility.yul\":3561:3768   */\n    tag_292:\n        /* \"#utility.yul\":3683:3694   */\n      0x00\n        /* \"#utility.yul\":3717:3723   */\n      dup3\n        /* \"#utility.yul\":3712:3715   */\n      dup3\n        /* \"#utility.yul\":3705:3724   */\n      mstore\n        /* \"#utility.yul\":3757:3761   */\n      0x20\n        /* \"#utility.yul\":3752:3755   */\n      dup3\n        /* \"#utility.yul\":3748:3762   */\n      add\n        /* \"#utility.yul\":3733:3762   */\n      swap1\n      pop\n        /* \"#utility.yul\":3561:3768   */\n      swap3\n      swap2\n      pop\n      pop\n      jump\t// out\n        /* \"#utility.yul\":3774:3929   */\n    tag_293:\n        /* \"#utility.yul\":3864:3868   */\n      0x00\n        /* \"#utility.yul\":3887:3890   */\n      dup2\n        /* \"#utility.yul\":3879:3890   */\n      swap1\n      pop\n        /* \"#utility.yul\":3917:3921   */\n      0x20\n        /* \"#utility.yul\":3912:3915   */\n      dup3\n        /* \"#utility.yul\":3908:3922   */\n      add\n        /* \"#utility.yul\":3900:3922   */\n      swap1\n      pop\n        /* \"#utility.yul\":3774:3929   */\n      swap2\n      swap1\n      pop\n      jump\t// out\n        /* \"#utility.yul\":3935:4043   */\n    tag_294:\n        /* \"#utility.yul\":4012:4036   */\n      tag_377\n        /* \"#utility.yul\":4030:4035   */\n      dup2\n        /* \"#utility.yul\":4012:4036   */\n      tag_287\n      jump\t// in\n    tag_377:\n        /* \"#utility.yul\":4007:4010   */\n      dup3\n        /* \"#utility.yul\":4000:4037   */\n      mstore\n        /* \"#utility.yul\":3935:4043   */\n      pop\n      pop\n      jump\t// out\n        /* \"#utility.yul\":4049:4126   */\n    tag_295:\n        /* \"#utility.yul\":4086:4093   */\n      0x00\n        /* \"#utility.yul\":4115:4120   */\n      dup2\n        /* \"#utility.yul\":4104:4120   */\n      swap1\n      pop\n        /* \"#utility.yul\":4049:4126   */\n      swap2\n      swap1\n      pop\n      jump\t// out\n        /* \"#utility.yul\":4132:4240   */\n    tag_296:\n        /* \"#utility.yul\":4209:4233   */\n      tag_380\n        /* \"#utility.yul\":4227:4232   */\n      dup2\n        /* \"#utility.yul\":4209:4233   */\n      tag_295\n      jump\t// in\n    tag_380:\n        /* \"#utility.yul\":4204:4207   */\n      dup3\n        /* \"#utility.yul\":4197:4234   */\n      mstore\n        /* \"#utility.yul\":4132:4240   */\n      pop\n      pop\n      jump\t// out\n        /* \"#utility.yul\":4246:4426   */\n    tag_96:\n        /* \"#utility.yul\":4294:4371   */\n      0x4e487b7100000000000000000000000000000000000000000000000000000000\n        /* \"#utility.yul\":4291:4292   */\n      0x00\n        /* \"#utility.yul\":4284:4372   */\n      mstore\n        /* \"#utility.yul\":4391:4395   */\n      0x21\n        /* \"#utility.yul\":4388:4389   */\n      0x04\n        /* \"#utility.yul\":4381:4396   */\n      mstore\n        /* \"#utility.yul\":4415:4419   */\n      0x24\n        /* \"#utility.yul\":4412:4413   */\n      0x00\n        /* \"#utility.yul\":4405:4420   */\n      revert\n        /* \"#utility.yul\":4432:4553   */\n    tag_297:\n        /* \"#utility.yul\":4521:4522   */\n      0x03\n        /* \"#utility.yul\":4514:4519   */\n      dup2\n        /* \"#utility.yul\":4511:4523   */\n      lt\n        /* \"#utility.yul\":4501:4547   */\n      tag_383\n      jumpi\n        /* \"#utility.yul\":4527:4545   */\n      tag_384\n      tag_96\n      jump\t// in\n    tag_384:\n        /* \"#utility.yul\":4501:4547   */\n    tag_383:\n        /* \"#utility.yul\":4432:4553   */\n      pop\n      jump\t// out\n        /* \"#utility.yul\":4559:4702   */\n    tag_298:\n        /* \"#utility.yul\":4612:4619   */\n      0x00\n        /* \"#utility.yul\":4641:4646   */\n      dup2\n        /* \"#utility.yul\":4630:4646   */\n      swap1\n      pop\n        /* \"#utility.yul\":4647:4696   */\n      tag_386\n        /* \"#utility.yul\":4690:4695   */\n      dup3\n        /* \"#utility.yul\":4647:4696   */\n      tag_297\n      jump\t// in\n    tag_386:\n        /* \"#utility.yul\":4559:4702   */\n      swap2\n      swap1\n      pop\n      jump\t// out\n        /* \"#utility.yul\":4708:4851   */\n    tag_299:\n        /* \"#utility.yul\":4772:4781   */\n      0x00\n        /* \"#utility.yul\":4805:4845   */\n      tag_388\n        /* \"#utility.yul\":4839:4844   */\n      dup3\n        /* \"#utility.yul\":4805:4845   */\n      tag_298\n      jump\t// in\n    tag_388:\n        /* \"#utility.yul\":4792:4845   */\n      swap1\n      pop\n        /* \"#utility.yul\":4708:4851   */\n      swap2\n      swap1\n      pop\n      jump\t// out\n        /* \"#utility.yul\":4857:5006   */\n    tag_300:\n        /* \"#utility.yul\":4948:4999   */\n      tag_390\n        /* \"#utility.yul\":4993:4998   */\n      dup2\n        /* \"#utility.yul\":4948:4999   */\n      tag_299\n      jump\t// in\n    tag_390:\n        /* \"#utility.yul\":4943:4946   */\n      dup3\n        /* \"#utility.yul\":4936:5000   */\n      mstore\n        /* \"#utility.yul\":4857:5006   */\n      pop\n      pop\n      jump\t// out\n        /* \"#utility.yul\":5012:5113   */\n    tag_301:\n        /* \"#utility.yul\":5048:5055   */\n      0x00\n        /* \"#utility.yul\":5088:5106   */\n      0xffffffffffffffff\n        /* \"#utility.yul\":5081:5086   */\n      dup3\n        /* \"#utility.yul\":5077:5107   */\n      and\n        /* \"#utility.yul\":5066:5107   */\n      swap1\n      pop\n        /* \"#utility.yul\":5012:5113   */\n      swap2\n      swap1\n      pop\n      jump\t// out\n        /* \"#utility.yul\":5119:5224   */\n    tag_302:\n        /* \"#utility.yul\":5194:5217   */\n      tag_393\n        /* \"#utility.yul\":5211:5216   */\n      dup2\n        /* \"#utility.yul\":5194:5217   */\n      tag_301\n      jump\t// in\n    tag_393:\n        /* \"#utility.yul\":5189:5192   */\n      dup3\n        /* \"#utility.yul\":5182:5218   */\n      mstore\n        /* \"#utility.yul\":5119:5224   */\n      pop\n      pop\n      jump\t// out\n        /* \"#utility.yul\":5282:6702   */\n    tag_303:\n        /* \"#utility.yul\":5415:5419   */\n      0xe0\n        /* \"#utility.yul\":5410:5413   */\n      dup3\n        /* \"#utility.yul\":5406:5420   */\n      add\n        /* \"#utility.yul\":5505:5509   */\n      0x00\n        /* \"#utility.yul\":5498:5503   */\n      dup3\n        /* \"#utility.yul\":5494:5510   */\n      add\n        /* \"#utility.yul\":5488:5511   */\n      mload\n        /* \"#utility.yul\":5524:5587   */\n      tag_395\n        /* \"#utility.yul\":5581:5585   */\n      0x00\n        /* \"#utility.yul\":5576:5579   */\n      dup6\n        /* \"#utility.yul\":5572:5586   */\n      add\n        /* \"#utility.yul\":5558:5570   */\n      dup3\n        /* \"#utility.yul\":5524:5587   */\n      tag_294\n      jump\t// in\n    tag_395:\n        /* \"#utility.yul\":5430:5597   */\n      pop\n        /* \"#utility.yul\":5682:5686   */\n      0x20\n        /* \"#utility.yul\":5675:5680   */\n      dup3\n        /* \"#utility.yul\":5671:5687   */\n      add\n        /* \"#utility.yul\":5665:5688   */\n      mload\n        /* \"#utility.yul\":5701:5764   */\n      tag_396\n        /* \"#utility.yul\":5758:5762   */\n      0x20\n        /* \"#utility.yul\":5753:5756   */\n      dup6\n        /* \"#utility.yul\":5749:5763   */\n      add\n        /* \"#utility.yul\":5735:5747   */\n      dup3\n        /* \"#utility.yul\":5701:5764   */\n      tag_296\n      jump\t// in\n    tag_396:\n        /* \"#utility.yul\":5607:5774   */\n      pop\n        /* \"#utility.yul\":5858:5862   */\n      0x40\n        /* \"#utility.yul\":5851:5856   */\n      dup3\n        /* \"#utility.yul\":5847:5863   */\n      add\n        /* \"#utility.yul\":5841:5864   */\n      mload\n        /* \"#utility.yul\":5877:5954   */\n      tag_397\n        /* \"#utility.yul\":5948:5952   */\n      0x40\n        /* \"#utility.yul\":5943:5946   */\n      dup6\n        /* \"#utility.yul\":5939:5953   */\n      add\n        /* \"#utility.yul\":5925:5937   */\n      dup3\n        /* \"#utility.yul\":5877:5954   */\n      tag_300\n      jump\t// in\n    tag_397:\n        /* \"#utility.yul\":5784:5964   */\n      pop\n        /* \"#utility.yul\":6056:6060   */\n      0x60\n        /* \"#utility.yul\":6049:6054   */\n      dup3\n        /* \"#utility.yul\":6045:6061   */\n      add\n        /* \"#utility.yul\":6039:6062   */\n      mload\n        /* \"#utility.yul\":6075:6138   */\n      tag_398\n        /* \"#utility.yul\":6132:6136   */\n      0x60\n        /* \"#utility.yul\":6127:6130   */\n      dup6\n        /* \"#utility.yul\":6123:6137   */\n      add\n        /* \"#utility.yul\":6109:6121   */\n      dup3\n        /* \"#utility.yul\":6075:6138   */\n      tag_296\n      jump\t// in\n    tag_398:\n        /* \"#utility.yul\":5974:6148   */\n      pop\n        /* \"#utility.yul\":6240:6244   */\n      0x80\n        /* \"#utility.yul\":6233:6238   */\n      dup3\n        /* \"#utility.yul\":6229:6245   */\n      add\n        /* \"#utility.yul\":6223:6246   */\n      mload\n        /* \"#utility.yul\":6259:6322   */\n      tag_399\n        /* \"#utility.yul\":6316:6320   */\n      0x80\n        /* \"#utility.yul\":6311:6314   */\n      dup6\n        /* \"#utility.yul\":6307:6321   */\n      add\n        /* \"#utility.yul\":6293:6305   */\n      dup3\n        /* \"#utility.yul\":6259:6322   */\n      tag_296\n      jump\t// in\n    tag_399:\n        /* \"#utility.yul\":6158:6332   */\n      pop\n        /* \"#utility.yul\":6426:6430   */\n      0xa0\n        /* \"#utility.yul\":6419:6424   */\n      dup3\n        /* \"#utility.yul\":6415:6431   */\n      add\n        /* \"#utility.yul\":6409:6432   */\n      mload\n        /* \"#utility.yul\":6445:6508   */\n      tag_400\n        /* \"#utility.yul\":6502:6506   */\n      0xa0\n        /* \"#utility.yul\":6497:6500   */\n      dup6\n        /* \"#utility.yul\":6493:6507   */\n      add\n        /* \"#utility.yul\":6479:6491   */\n      dup3\n        /* \"#utility.yul\":6445:6508   */\n      tag_296\n      jump\t// in\n    tag_400:\n        /* \"#utility.yul\":6342:6518   */\n      pop\n        /* \"#utility.yul\":6605:6609   */\n      0xc0\n        /* \"#utility.yul\":6598:6603   */\n      dup3\n        /* \"#utility.yul\":6594:6610   */\n      add\n        /* \"#utility.yul\":6588:6611   */\n      mload\n        /* \"#utility.yul\":6624:6685   */\n      tag_401\n        /* \"#utility.yul\":6679:6683   */\n      0xc0\n        /* \"#utility.yul\":6674:6677   */\n      dup6\n        /* \"#utility.yul\":6670:6684   */\n      add\n        /* \"#utility.yul\":6656:6668   */\n      dup3\n        /* \"#utility.yul\":6624:6685   */\n      tag_302\n      jump\t// in\n    tag_401:\n        /* \"#utility.yul\":6528:6695   */\n      pop\n        /* \"#utility.yul\":5384:6702   */\n      pop\n        /* \"#utility.yul\":5282:6702   */\n      pop\n      pop\n      jump\t// out\n        /* \"#utility.yul\":6708:6979   */\n    tag_304:\n        /* \"#utility.yul\":6823:6833   */\n      0x00\n        /* \"#utility.yul\":6844:6936   */\n      tag_403\n        /* \"#utility.yul\":6932:6935   */\n      dup4\n        /* \"#utility.yul\":6924:6930   */\n      dup4\n        /* \"#utility.yul\":6844:6936   */\n      tag_303\n      jump\t// in\n    tag_403:\n        /* \"#utility.yul\":6968:6972   */\n      0xe0\n        /* \"#utility.yul\":6963:6966   */\n      dup4\n        /* \"#utility.yul\":6959:6973   */\n      add\n        /* \"#utility.yul\":6945:6973   */\n      swap1\n      pop\n        /* \"#utility.yul\":6708:6979   */\n      swap3\n      swap2\n      pop\n      pop\n      jump\t// out\n        /* \"#utility.yul\":6985:7121   */\n    tag_305:\n        /* \"#utility.yul\":7078:7082   */\n      0x00\n        /* \"#utility.yul\":7110:7114   */\n      0x20\n        /* \"#utility.yul\":7105:7108   */\n      dup3\n        /* \"#utility.yul\":7101:7115   */\n      add\n        /* \"#utility.yul\":7093:7115   */\n      swap1\n      pop\n        /* \"#utility.yul\":6985:7121   */\n      swap2\n      swap1\n      pop\n      jump\t// out\n        /* \"#utility.yul\":7183:8099   */\n    tag_306:\n        /* \"#utility.yul\":7348:7351   */\n      0x00\n        /* \"#utility.yul\":7377:7454   */\n      tag_406\n        /* \"#utility.yul\":7448:7453   */\n      dup3\n        /* \"#utility.yul\":7377:7454   */\n      tag_291\n      jump\t// in\n    tag_406:\n        /* \"#utility.yul\":7470:7579   */\n      tag_407\n        /* \"#utility.yul\":7572:7578   */\n      dup2\n        /* \"#utility.yul\":7567:7570   */\n      dup6\n        /* \"#utility.yul\":7470:7579   */\n      tag_292\n      jump\t// in\n    tag_407:\n        /* \"#utility.yul\":7463:7579   */\n      swap4\n      pop\n        /* \"#utility.yul\":7603:7682   */\n      tag_408\n        /* \"#utility.yul\":7676:7681   */\n      dup4\n        /* \"#utility.yul\":7603:7682   */\n      tag_293\n      jump\t// in\n    tag_408:\n        /* \"#utility.yul\":7705:7712   */\n      dup1\n        /* \"#utility.yul\":7736:7737   */\n      0x00\n        /* \"#utility.yul\":7721:8074   */\n    tag_409:\n        /* \"#utility.yul\":7746:7752   */\n      dup4\n        /* \"#utility.yul\":7743:7744   */\n      dup2\n        /* \"#utility.yul\":7740:7753   */\n      lt\n        /* \"#utility.yul\":7721:8074   */\n      iszero\n      tag_411\n      jumpi\n        /* \"#utility.yul\":7822:7828   */\n      dup2\n        /* \"#utility.yul\":7816:7829   */\n      mload\n        /* \"#utility.yul\":7849:7958   */\n      tag_412\n        /* \"#utility.yul\":7954:7957   */\n      dup9\n        /* \"#utility.yul\":7939:7952   */\n      dup3\n        /* \"#utility.yul\":7849:7958   */\n      tag_304\n      jump\t// in\n    tag_412:\n        /* \"#utility.yul\":7842:7958   */\n      swap8\n      pop\n        /* \"#utility.yul\":7981:8064   */\n      tag_413\n        /* \"#utility.yul\":8057:8063   */\n      dup4\n        /* \"#utility.yul\":7981:8064   */\n      tag_305\n      jump\t// in\n    tag_413:\n        /* \"#utility.yul\":7971:8064   */\n      swap3\n      pop\n        /* \"#utility.yul\":7781:8074   */\n      pop\n        /* \"#utility.yul\":7768:7769   */\n      0x01\n        /* \"#utility.yul\":7765:7766   */\n      dup2\n        /* \"#utility.yul\":7761:7770   */\n      add\n        /* \"#utility.yul\":7756:7770   */\n      swap1\n      pop\n        /* \"#utility.yul\":7721:8074   */\n      jump(tag_409)\n    tag_411:\n        /* \"#utility.yul\":7725:7739   */\n      pop\n        /* \"#utility.yul\":8090:8093   */\n      dup6\n        /* \"#utility.yul\":8083:8093   */\n      swap4\n      pop\n        /* \"#utility.yul\":7353:8099   */\n      pop\n      pop\n      pop\n        /* \"#utility.yul\":7183:8099   */\n      swap3\n      swap2\n      pop\n      pop\n      jump\t// out\n        /* \"#utility.yul\":8105:8219   */\n    tag_307:\n        /* \"#utility.yul\":8172:8178   */\n      0x00\n        /* \"#utility.yul\":8206:8211   */\n      dup2\n        /* \"#utility.yul\":8200:8212   */\n      mload\n        /* \"#utility.yul\":8190:8212   */\n      swap1\n      pop\n        /* \"#utility.yul\":8105:8219   */\n      swap2\n      swap1\n      pop\n      jump\t// out\n        /* \"#utility.yul\":8225:8409   */\n    tag_308:\n        /* \"#utility.yul\":8324:8335   */\n      0x00\n        /* \"#utility.yul\":8358:8364   */\n      dup3\n        /* \"#utility.yul\":8353:8356   */\n      dup3\n        /* \"#utility.yul\":8346:8365   */\n      mstore\n        /* \"#utility.yul\":8398:8402   */\n      0x20\n        /* \"#utility.yul\":8393:8396   */\n      dup3\n        /* \"#utility.yul\":8389:8403   */\n      add\n        /* \"#utility.yul\":8374:8403   */\n      swap1\n      pop\n        /* \"#utility.yul\":8225:8409   */\n      swap3\n      swap2\n      pop\n      pop\n      jump\t// out\n        /* \"#utility.yul\":8415:8547   */\n    tag_309:\n        /* \"#utility.yul\":8482:8486   */\n      0x00\n        /* \"#utility.yul\":8505:8508   */\n      dup2\n        /* \"#utility.yul\":8497:8508   */\n      swap1\n      pop\n        /* \"#utility.yul\":8535:8539   */\n      0x20\n        /* \"#utility.yul\":8530:8533   */\n      dup3\n        /* \"#utility.yul\":8526:8540   */\n      add\n        /* \"#utility.yul\":8518:8540   */\n      swap1\n      pop\n        /* \"#utility.yul\":8415:8547   */\n      swap2\n      swap1\n      pop\n      jump\t// out\n        /* \"#utility.yul\":8553:8661   */\n    tag_310:\n        /* \"#utility.yul\":8630:8654   */\n      tag_418\n        /* \"#utility.yul\":8648:8653   */\n      dup2\n        /* \"#utility.yul\":8630:8654   */\n      tag_283\n      jump\t// in\n    tag_418:\n        /* \"#utility.yul\":8625:8628   */\n      dup3\n        /* \"#utility.yul\":8618:8655   */\n      mstore\n        /* \"#utility.yul\":8553:8661   */\n      pop\n      pop\n      jump\t// out\n        /* \"#utility.yul\":8667:8846   */\n    tag_311:\n        /* \"#utility.yul\":8736:8746   */\n      0x00\n        /* \"#utility.yul\":8757:8803   */\n      tag_420\n        /* \"#utility.yul\":8799:8802   */\n      dup4\n        /* \"#utility.yul\":8791:8797   */\n      dup4\n        /* \"#utility.yul\":8757:8803   */\n      tag_310\n      jump\t// in\n    tag_420:\n        /* \"#utility.yul\":8835:8839   */\n      0x20\n        /* \"#utility.yul\":8830:8833   */\n      dup4\n        /* \"#utility.yul\":8826:8840   */\n      add\n        /* \"#utility.yul\":8812:8840   */\n      swap1\n      pop\n        /* \"#utility.yul\":8667:8846   */\n      swap3\n      swap2\n      pop\n      pop\n      jump\t// out\n        /* \"#utility.yul\":8852:8965   */\n    tag_312:\n        /* \"#utility.yul\":8922:8926   */\n      0x00\n        /* \"#utility.yul\":8954:8958   */\n      0x20\n        /* \"#utility.yul\":8949:8952   */\n      dup3\n        /* \"#utility.yul\":8945:8959   */\n      add\n        /* \"#utility.yul\":8937:8959   */\n      swap1\n      pop\n        /* \"#utility.yul\":8852:8965   */\n      swap2\n      swap1\n      pop\n      jump\t// out\n        /* \"#utility.yul\":9001:9733   */\n    tag_313:\n        /* \"#utility.yul\":9120:9123   */\n      0x00\n        /* \"#utility.yul\":9149:9203   */\n      tag_423\n        /* \"#utility.yul\":9197:9202   */\n      dup3\n        /* \"#utility.yul\":9149:9203   */\n      tag_307\n      jump\t// in\n    tag_423:\n        /* \"#utility.yul\":9219:9305   */\n      tag_424\n        /* \"#utility.yul\":9298:9304   */\n      dup2\n        /* \"#utility.yul\":9293:9296   */\n      dup6\n        /* \"#utility.yul\":9219:9305   */\n      tag_308\n      jump\t// in\n    tag_424:\n        /* \"#utility.yul\":9212:9305   */\n      swap4\n      pop\n        /* \"#utility.yul\":9329:9385   */\n      tag_425\n        /* \"#utility.yul\":9379:9384   */\n      dup4\n        /* \"#utility.yul\":9329:9385   */\n      tag_309\n      jump\t// in\n    tag_425:\n        /* \"#utility.yul\":9408:9415   */\n      dup1\n        /* \"#utility.yul\":9439:9440   */\n      0x00\n        /* \"#utility.yul\":9424:9708   */\n    tag_426:\n        /* \"#utility.yul\":9449:9455   */\n      dup4\n        /* \"#utility.yul\":9446:9447   */\n      dup2\n        /* \"#utility.yul\":9443:9456   */\n      lt\n        /* \"#utility.yul\":9424:9708   */\n      iszero\n      tag_428\n      jumpi\n        /* \"#utility.yul\":9525:9531   */\n      dup2\n        /* \"#utility.yul\":9519:9532   */\n      mload\n        /* \"#utility.yul\":9552:9615   */\n      tag_429\n        /* \"#utility.yul\":9611:9614   */\n      dup9\n        /* \"#utility.yul\":9596:9609   */\n      dup3\n        /* \"#utility.yul\":9552:9615   */\n      tag_311\n      jump\t// in\n    tag_429:\n        /* \"#utility.yul\":9545:9615   */\n      swap8\n      pop\n        /* \"#utility.yul\":9638:9698   */\n      tag_430\n        /* \"#utility.yul\":9691:9697   */\n      dup4\n        /* \"#utility.yul\":9638:9698   */\n      tag_312\n      jump\t// in\n    tag_430:\n        /* \"#utility.yul\":9628:9698   */\n      swap3\n      pop\n        /* \"#utility.yul\":9484:9708   */\n      pop\n        /* \"#utility.yul\":9471:9472   */\n      0x01\n        /* \"#utility.yul\":9468:9469   */\n      dup2\n        /* \"#utility.yul\":9464:9473   */\n      add\n        /* \"#utility.yul\":9459:9473   */\n      swap1\n      pop\n        /* \"#utility.yul\":9424:9708   */\n      jump(tag_426)\n    tag_428:\n        /* \"#utility.yul\":9428:9442   */\n      pop\n        /* \"#utility.yul\":9724:9727   */\n      dup6\n        /* \"#utility.yul\":9717:9727   */\n      swap4\n      pop\n        /* \"#utility.yul\":9125:9733   */\n      pop\n      pop\n      pop\n        /* \"#utility.yul\":9001:9733   */\n      swap3\n      swap2\n      pop\n      pop\n      jump\t// out\n        /* \"#utility.yul\":9739:10465   */\n    tag_47:\n        /* \"#utility.yul\":10006:10010   */\n      0x00\n        /* \"#utility.yul\":10044:10046   */\n      0x40\n        /* \"#utility.yul\":10033:10042   */\n      dup3\n        /* \"#utility.yul\":10029:10047   */\n      add\n        /* \"#utility.yul\":10021:10047   */\n      swap1\n      pop\n        /* \"#utility.yul\":10093:10102   */\n      dup2\n        /* \"#utility.yul\":10087:10091   */\n      dup2\n        /* \"#utility.yul\":10083:10103   */\n      sub\n        /* \"#utility.yul\":10079:10080   */\n      0x00\n        /* \"#utility.yul\":10068:10077   */\n      dup4\n        /* \"#utility.yul\":10064:10081   */\n      add\n        /* \"#utility.yul\":10057:10104   */\n      mstore\n        /* \"#utility.yul\":10121:10275   */\n      tag_432\n        /* \"#utility.yul\":10270:10274   */\n      dup2\n        /* \"#utility.yul\":10261:10267   */\n      dup6\n        /* \"#utility.yul\":10121:10275   */\n      tag_306\n      jump\t// in\n    tag_432:\n        /* \"#utility.yul\":10113:10275   */\n      swap1\n      pop\n        /* \"#utility.yul\":10322:10331   */\n      dup2\n        /* \"#utility.yul\":10316:10320   */\n      dup2\n        /* \"#utility.yul\":10312:10332   */\n      sub\n        /* \"#utility.yul\":10307:10309   */\n      0x20\n        /* \"#utility.yul\":10296:10305   */\n      dup4\n        /* \"#utility.yul\":10292:10310   */\n      add\n        /* \"#utility.yul\":10285:10333   */\n      mstore\n        /* \"#utility.yul\":10350:10458   */\n      tag_433\n        /* \"#utility.yul\":10453:10457   */\n      dup2\n        /* \"#utility.yul\":10444:10450   */\n      dup5\n        /* \"#utility.yul\":10350:10458   */\n      tag_313\n      jump\t// in\n    tag_433:\n        /* \"#utility.yul\":10342:10458   */\n      swap1\n      pop\n        /* \"#utility.yul\":9739:10465   */\n      swap4\n      swap3\n      pop\n      pop\n      pop\n      jump\t// out\n        /* \"#utility.yul\":10471:10593   */\n    tag_314:\n        /* \"#utility.yul\":10544:10568   */\n      tag_435\n        /* \"#utility.yul\":10562:10567   */\n      dup2\n        /* \"#utility.yul\":10544:10568   */\n      tag_295\n      jump\t// in\n    tag_435:\n        /* \"#utility.yul\":10537:10542   */\n      dup2\n        /* \"#utility.yul\":10534:10569   */\n      eq\n        /* \"#utility.yul\":10524:10587   */\n      tag_436\n      jumpi\n        /* \"#utility.yul\":10583:10584   */\n      0x00\n        /* \"#utility.yul\":10580:10581   */\n      dup1\n        /* \"#utility.yul\":10573:10585   */\n      revert\n        /* \"#utility.yul\":10524:10587   */\n    tag_436:\n        /* \"#utility.yul\":10471:10593   */\n      pop\n      jump\t// out\n        /* \"#utility.yul\":10599:10738   */\n    tag_315:\n        /* \"#utility.yul\":10645:10650   */\n      0x00\n        /* \"#utility.yul\":10683:10689   */\n      dup2\n        /* \"#utility.yul\":10670:10690   */\n      calldataload\n        /* \"#utility.yul\":10661:10690   */\n      swap1\n      pop\n        /* \"#utility.yul\":10699:10732   */\n      tag_438\n        /* \"#utility.yul\":10726:10731   */\n      dup2\n        /* \"#utility.yul\":10699:10732   */\n      tag_314\n      jump\t// in\n    tag_438:\n        /* \"#utility.yul\":10599:10738   */\n      swap3\n      swap2\n      pop\n      pop\n      jump\t// out\n        /* \"#utility.yul\":10744:11363   */\n    tag_50:\n        /* \"#utility.yul\":10821:10827   */\n      0x00\n        /* \"#utility.yul\":10829:10835   */\n      dup1\n        /* \"#utility.yul\":10837:10843   */\n      0x00\n        /* \"#utility.yul\":10886:10888   */\n      0x60\n        /* \"#utility.yul\":10874:10883   */\n      dup5\n        /* \"#utility.yul\":10865:10872   */\n      dup7\n        /* \"#utility.yul\":10861:10884   */\n      sub\n        /* \"#utility.yul\":10857:10889   */\n      slt\n        /* \"#utility.yul\":10854:10973   */\n      iszero\n      tag_440\n      jumpi\n        /* \"#utility.yul\":10892:10971   */\n      tag_441\n      tag_281\n      jump\t// in\n    tag_441:\n        /* \"#utility.yul\":10854:10973   */\n    tag_440:\n        /* \"#utility.yul\":11012:11013   */\n      0x00\n        /* \"#utility.yul\":11037:11090   */\n      tag_442\n        /* \"#utility.yul\":11082:11089   */\n      dup7\n        /* \"#utility.yul\":11073:11079   */\n      dup3\n        /* \"#utility.yul\":11062:11071   */\n      dup8\n        /* \"#utility.yul\":11058:11080   */\n      add\n        /* \"#utility.yul\":11037:11090   */\n      tag_315\n      jump\t// in\n    tag_442:\n        /* \"#utility.yul\":11027:11090   */\n      swap4\n      pop\n        /* \"#utility.yul\":10983:11100   */\n      pop\n        /* \"#utility.yul\":11139:11141   */\n      0x20\n        /* \"#utility.yul\":11165:11218   */\n      tag_443\n        /* \"#utility.yul\":11210:11217   */\n      dup7\n        /* \"#utility.yul\":11201:11207   */\n      dup3\n        /* \"#utility.yul\":11190:11199   */\n      dup8\n        /* \"#utility.yul\":11186:11208   */\n      add\n        /* \"#utility.yul\":11165:11218   */\n      tag_315\n      jump\t// in\n    tag_443:\n        /* \"#utility.yul\":11155:11218   */\n      swap3\n      pop\n        /* \"#utility.yul\":11110:11228   */\n      pop\n        /* \"#utility.yul\":11267:11269   */\n      0x40\n        /* \"#utility.yul\":11293:11346   */\n      tag_444\n        /* \"#utility.yul\":11338:11345   */\n      dup7\n        /* \"#utility.yul\":11329:11335   */\n      dup3\n        /* \"#utility.yul\":11318:11327   */\n      dup8\n        /* \"#utility.yul\":11314:11336   */\n      add\n        /* \"#utility.yul\":11293:11346   */\n      tag_285\n      jump\t// in\n    tag_444:\n        /* \"#utility.yul\":11283:11346   */\n      swap2\n      pop\n        /* \"#utility.yul\":11238:11356   */\n      pop\n        /* \"#utility.yul\":10744:11363   */\n      swap3\n      pop\n      swap3\n      pop\n      swap3\n      jump\t// out\n        /* \"#utility.yul\":11369:11843   */\n    tag_62:\n        /* \"#utility.yul\":11437:11443   */\n      0x00\n        /* \"#utility.yul\":11445:11451   */\n      dup1\n        /* \"#utility.yul\":11494:11496   */\n      0x40\n        /* \"#utility.yul\":11482:11491   */\n      dup4\n        /* \"#utility.yul\":11473:11480   */\n      dup6\n        /* \"#utility.yul\":11469:11492   */\n      sub\n        /* \"#utility.yul\":11465:11497   */\n      slt\n        /* \"#utility.yul\":11462:11581   */\n      iszero\n      tag_446\n      jumpi\n        /* \"#utility.yul\":11500:11579   */\n      tag_447\n      tag_281\n      jump\t// in\n    tag_447:\n        /* \"#utility.yul\":11462:11581   */\n    tag_446:\n        /* \"#utility.yul\":11620:11621   */\n      0x00\n        /* \"#utility.yul\":11645:11698   */\n      tag_448\n        /* \"#utility.yul\":11690:11697   */\n      dup6\n        /* \"#utility.yul\":11681:11687   */\n      dup3\n        /* \"#utility.yul\":11670:11679   */\n      dup7\n        /* \"#utility.yul\":11666:11688   */\n      add\n        /* \"#utility.yul\":11645:11698   */\n      tag_285\n      jump\t// in\n    tag_448:\n        /* \"#utility.yul\":11635:11698   */\n      swap3\n      pop\n        /* \"#utility.yul\":11591:11708   */\n      pop\n        /* \"#utility.yul\":11747:11749   */\n      0x20\n        /* \"#utility.yul\":11773:11826   */\n      tag_449\n        /* \"#utility.yul\":11818:11825   */\n      dup6\n        /* \"#utility.yul\":11809:11815   */\n      dup3\n        /* \"#utility.yul\":11798:11807   */\n      dup7\n        /* \"#utility.yul\":11794:11816   */\n      add\n        /* \"#utility.yul\":11773:11826   */\n      tag_290\n      jump\t// in\n    tag_449:\n        /* \"#utility.yul\":11763:11826   */\n      swap2\n      pop\n        /* \"#utility.yul\":11718:11836   */\n      pop\n        /* \"#utility.yul\":11369:11843   */\n      swap3\n      pop\n      swap3\n      swap1\n      pop\n      jump\t// out\n        /* \"#utility.yul\":11849:11963   */\n    tag_316:\n        /* \"#utility.yul\":11916:11922   */\n      0x00\n        /* \"#utility.yul\":11950:11955   */\n      dup2\n        /* \"#utility.yul\":11944:11956   */\n      mload\n        /* \"#utility.yul\":11934:11956   */\n      swap1\n      pop\n        /* \"#utility.yul\":11849:11963   */\n      swap2\n      swap1\n      pop\n      jump\t// out\n        /* \"#utility.yul\":11969:12153   */\n    tag_317:\n        /* \"#utility.yul\":12068:12079   */\n      0x00\n        /* \"#utility.yul\":12102:12108   */\n      dup3\n        /* \"#utility.yul\":12097:12100   */\n      dup3\n        /* \"#utility.yul\":12090:12109   */\n      mstore\n        /* \"#utility.yul\":12142:12146   */\n      0x20\n        /* \"#utility.yul\":12137:12140   */\n      dup3\n        /* \"#utility.yul\":12133:12147   */\n      add\n        /* \"#utility.yul\":12118:12147   */\n      swap1\n      pop\n        /* \"#utility.yul\":11969:12153   */\n      swap3\n      swap2\n      pop\n      pop\n      jump\t// out\n        /* \"#utility.yul\":12159:12291   */\n    tag_318:\n        /* \"#utility.yul\":12226:12230   */\n      0x00\n        /* \"#utility.yul\":12249:12252   */\n      dup2\n        /* \"#utility.yul\":12241:12252   */\n      swap1\n      pop\n        /* \"#utility.yul\":12279:12283   */\n      0x20\n        /* \"#utility.yul\":12274:12277   */\n      dup3\n        /* \"#utility.yul\":12270:12284   */\n      add\n        /* \"#utility.yul\":12262:12284   */\n      swap1\n      pop\n        /* \"#utility.yul\":12159:12291   */\n      swap2\n      swap1\n      pop\n      jump\t// out\n        /* \"#utility.yul\":12297:12476   */\n    tag_319:\n        /* \"#utility.yul\":12366:12376   */\n      0x00\n        /* \"#utility.yul\":12387:12433   */\n      tag_454\n        /* \"#utility.yul\":12429:12432   */\n      dup4\n        /* \"#utility.yul\":12421:12427   */\n      dup4\n        /* \"#utility.yul\":12387:12433   */\n      tag_294\n      jump\t// in\n    tag_454:\n        /* \"#utility.yul\":12465:12469   */\n      0x20\n        /* \"#utility.yul\":12460:12463   */\n      dup4\n        /* \"#utility.yul\":12456:12470   */\n      add\n        /* \"#utility.yul\":12442:12470   */\n      swap1\n      pop\n        /* \"#utility.yul\":12297:12476   */\n      swap3\n      swap2\n      pop\n      pop\n      jump\t// out\n        /* \"#utility.yul\":12482:12595   */\n    tag_320:\n        /* \"#utility.yul\":12552:12556   */\n      0x00\n        /* \"#utility.yul\":12584:12588   */\n      0x20\n        /* \"#utility.yul\":12579:12582   */\n      dup3\n        /* \"#utility.yul\":12575:12589   */\n      add\n        /* \"#utility.yul\":12567:12589   */\n      swap1\n      pop\n        /* \"#utility.yul\":12482:12595   */\n      swap2\n      swap1\n      pop\n      jump\t// out\n        /* \"#utility.yul\":12631:13363   */\n    tag_321:\n        /* \"#utility.yul\":12750:12753   */\n      0x00\n        /* \"#utility.yul\":12779:12833   */\n      tag_457\n        /* \"#utility.yul\":12827:12832   */\n      dup3\n        /* \"#utility.yul\":12779:12833   */\n      tag_316\n      jump\t// in\n    tag_457:\n        /* \"#utility.yul\":12849:12935   */\n      tag_458\n        /* \"#utility.yul\":12928:12934   */\n      dup2\n        /* \"#utility.yul\":12923:12926   */\n      dup6\n        /* \"#utility.yul\":12849:12935   */\n      tag_317\n      jump\t// in\n    tag_458:\n        /* \"#utility.yul\":12842:12935   */\n      swap4\n      pop\n        /* \"#utility.yul\":12959:13015   */\n      tag_459\n        /* \"#utility.yul\":13009:13014   */\n      dup4\n        /* \"#utility.yul\":12959:13015   */\n      tag_318\n      jump\t// in\n    tag_459:\n        /* \"#utility.yul\":13038:13045   */\n      dup1\n        /* \"#utility.yul\":13069:13070   */\n      0x00\n        /* \"#utility.yul\":13054:13338   */\n    tag_460:\n        /* \"#utility.yul\":13079:13085   */\n      dup4\n        /* \"#utility.yul\":13076:13077   */\n      dup2\n        /* \"#utility.yul\":13073:13086   */\n      lt\n        /* \"#utility.yul\":13054:13338   */\n      iszero\n      tag_462\n      jumpi\n        /* \"#utility.yul\":13155:13161   */\n      dup2\n        /* \"#utility.yul\":13149:13162   */\n      mload\n        /* \"#utility.yul\":13182:13245   */\n      tag_463\n        /* \"#utility.yul\":13241:13244   */\n      dup9\n        /* \"#utility.yul\":13226:13239   */\n      dup3\n        /* \"#utility.yul\":13182:13245   */\n      tag_319\n      jump\t// in\n    tag_463:\n        /* \"#utility.yul\":13175:13245   */\n      swap8\n      pop\n        /* \"#utility.yul\":13268:13328   */\n      tag_464\n        /* \"#utility.yul\":13321:13327   */\n      dup4\n        /* \"#utility.yul\":13268:13328   */\n      tag_320\n      jump\t// in\n    tag_464:\n        /* \"#utility.yul\":13258:13328   */\n      swap3\n      pop\n        /* \"#utility.yul\":13114:13338   */\n      pop\n        /* \"#utility.yul\":13101:13102   */\n      0x01\n        /* \"#utility.yul\":13098:13099   */\n      dup2\n        /* \"#utility.yul\":13094:13103   */\n      add\n        /* \"#utility.yul\":13089:13103   */\n      swap1\n      pop\n        /* \"#utility.yul\":13054:13338   */\n      jump(tag_460)\n    tag_462:\n        /* \"#utility.yul\":13058:13072   */\n      pop\n        /* \"#utility.yul\":13354:13357   */\n      dup6\n        /* \"#utility.yul\":13347:13357   */\n      swap4\n      pop\n        /* \"#utility.yul\":12755:13363   */\n      pop\n      pop\n      pop\n        /* \"#utility.yul\":12631:13363   */\n      swap3\n      swap2\n      pop\n      pop\n      jump\t// out\n        /* \"#utility.yul\":13369:13742   */\n    tag_73:\n        /* \"#utility.yul\":13512:13516   */\n      0x00\n        /* \"#utility.yul\":13550:13552   */\n      0x20\n        /* \"#utility.yul\":13539:13548   */\n      dup3\n        /* \"#utility.yul\":13535:13553   */\n      add\n        /* \"#utility.yul\":13527:13553   */\n      swap1\n      pop\n        /* \"#utility.yul\":13599:13608   */\n      dup2\n        /* \"#utility.yul\":13593:13597   */\n      dup2\n        /* \"#utility.yul\":13589:13609   */\n      sub\n        /* \"#utility.yul\":13585:13586   */\n      0x00\n        /* \"#utility.yul\":13574:13583   */\n      dup4\n        /* \"#utility.yul\":13570:13587   */\n      add\n        /* \"#utility.yul\":13563:13610   */\n      mstore\n        /* \"#utility.yul\":13627:13735   */\n      tag_466\n        /* \"#utility.yul\":13730:13734   */\n      dup2\n        /* \"#utility.yul\":13721:13727   */\n      dup5\n        /* \"#utility.yul\":13627:13735   */\n      tag_321\n      jump\t// in\n    tag_466:\n        /* \"#utility.yul\":13619:13735   */\n      swap1\n      pop\n        /* \"#utility.yul\":13369:13742   */\n      swap3\n      swap2\n      pop\n      pop\n      jump\t// out\n        /* \"#utility.yul\":13748:14121   */\n    tag_79:\n        /* \"#utility.yul\":13891:13895   */\n      0x00\n        /* \"#utility.yul\":13929:13931   */\n      0x20\n        /* \"#utility.yul\":13918:13927   */\n      dup3\n        /* \"#utility.yul\":13914:13932   */\n      add\n        /* \"#utility.yul\":13906:13932   */\n      swap1\n      pop\n        /* \"#utility.yul\":13978:13987   */\n      dup2\n        /* \"#utility.yul\":13972:13976   */\n      dup2\n        /* \"#utility.yul\":13968:13988   */\n      sub\n        /* \"#utility.yul\":13964:13965   */\n      0x00\n        /* \"#utility.yul\":13953:13962   */\n      dup4\n        /* \"#utility.yul\":13949:13966   */\n      add\n        /* \"#utility.yul\":13942:13989   */\n      mstore\n        /* \"#utility.yul\":14006:14114   */\n      tag_468\n        /* \"#utility.yul\":14109:14113   */\n      dup2\n        /* \"#utility.yul\":14100:14106   */\n      dup5\n        /* \"#utility.yul\":14006:14114   */\n      tag_313\n      jump\t// in\n    tag_468:\n        /* \"#utility.yul\":13998:14114   */\n      swap1\n      pop\n        /* \"#utility.yul\":13748:14121   */\n      swap3\n      swap2\n      pop\n      pop\n      jump\t// out\n        /* \"#utility.yul\":14127:14245   */\n    tag_322:\n        /* \"#utility.yul\":14214:14238   */\n      tag_470\n        /* \"#utility.yul\":14232:14237   */\n      dup2\n        /* \"#utility.yul\":14214:14238   */\n      tag_295\n      jump\t// in\n    tag_470:\n        /* \"#utility.yul\":14209:14212   */\n      dup3\n        /* \"#utility.yul\":14202:14239   */\n      mstore\n        /* \"#utility.yul\":14127:14245   */\n      pop\n      pop\n      jump\t// out\n        /* \"#utility.yul\":14251:14410   */\n    tag_323:\n        /* \"#utility.yul\":14352:14403   */\n      tag_472\n        /* \"#utility.yul\":14397:14402   */\n      dup2\n        /* \"#utility.yul\":14352:14403   */\n      tag_299\n      jump\t// in\n    tag_472:\n        /* \"#utility.yul\":14347:14350   */\n      dup3\n        /* \"#utility.yul\":14340:14404   */\n      mstore\n        /* \"#utility.yul\":14251:14410   */\n      pop\n      pop\n      jump\t// out\n        /* \"#utility.yul\":14416:14531   */\n    tag_324:\n        /* \"#utility.yul\":14501:14524   */\n      tag_474\n        /* \"#utility.yul\":14518:14523   */\n      dup2\n        /* \"#utility.yul\":14501:14524   */\n      tag_301\n      jump\t// in\n    tag_474:\n        /* \"#utility.yul\":14496:14499   */\n      dup3\n        /* \"#utility.yul\":14489:14525   */\n      mstore\n        /* \"#utility.yul\":14416:14531   */\n      pop\n      pop\n      jump\t// out\n        /* \"#utility.yul\":14537:15447   */\n    tag_85:\n        /* \"#utility.yul\":14810:14814   */\n      0x00\n        /* \"#utility.yul\":14848:14851   */\n      0xe0\n        /* \"#utility.yul\":14837:14846   */\n      dup3\n        /* \"#utility.yul\":14833:14852   */\n      add\n        /* \"#utility.yul\":14825:14852   */\n      swap1\n      pop\n        /* \"#utility.yul\":14862:14933   */\n      tag_476\n        /* \"#utility.yul\":14930:14931   */\n      0x00\n        /* \"#utility.yul\":14919:14928   */\n      dup4\n        /* \"#utility.yul\":14915:14932   */\n      add\n        /* \"#utility.yul\":14906:14912   */\n      dup11\n        /* \"#utility.yul\":14862:14933   */\n      tag_288\n      jump\t// in\n    tag_476:\n        /* \"#utility.yul\":14943:15015   */\n      tag_477\n        /* \"#utility.yul\":15011:15013   */\n      0x20\n        /* \"#utility.yul\":15000:15009   */\n      dup4\n        /* \"#utility.yul\":14996:15014   */\n      add\n        /* \"#utility.yul\":14987:14993   */\n      dup10\n        /* \"#utility.yul\":14943:15015   */\n      tag_322\n      jump\t// in\n    tag_477:\n        /* \"#utility.yul\":15025:15111   */\n      tag_478\n        /* \"#utility.yul\":15107:15109   */\n      0x40\n        /* \"#utility.yul\":15096:15105   */\n      dup4\n        /* \"#utility.yul\":15092:15110   */\n      add\n        /* \"#utility.yul\":15083:15089   */\n      dup9\n        /* \"#utility.yul\":15025:15111   */\n      tag_323\n      jump\t// in\n    tag_478:\n        /* \"#utility.yul\":15121:15193   */\n      tag_479\n        /* \"#utility.yul\":15189:15191   */\n      0x60\n        /* \"#utility.yul\":15178:15187   */\n      dup4\n        /* \"#utility.yul\":15174:15192   */\n      add\n        /* \"#utility.yul\":15165:15171   */\n      dup8\n        /* \"#utility.yul\":15121:15193   */\n      tag_322\n      jump\t// in\n    tag_479:\n        /* \"#utility.yul\":15203:15276   */\n      tag_480\n        /* \"#utility.yul\":15271:15274   */\n      0x80\n        /* \"#utility.yul\":15260:15269   */\n      dup4\n        /* \"#utility.yul\":15256:15275   */\n      add\n        /* \"#utility.yul\":15247:15253   */\n      dup7\n        /* \"#utility.yul\":15203:15276   */\n      tag_322\n      jump\t// in\n    tag_480:\n        /* \"#utility.yul\":15286:15359   */\n      tag_481\n        /* \"#utility.yul\":15354:15357   */\n      0xa0\n        /* \"#utility.yul\":15343:15352   */\n      dup4\n        /* \"#utility.yul\":15339:15358   */\n      add\n        /* \"#utility.yul\":15330:15336   */\n      dup6\n        /* \"#utility.yul\":15286:15359   */\n      tag_322\n      jump\t// in\n    tag_481:\n        /* \"#utility.yul\":15369:15440   */\n      tag_482\n        /* \"#utility.yul\":15435:15438   */\n      0xc0\n        /* \"#utility.yul\":15424:15433   */\n      dup4\n        /* \"#utility.yul\":15420:15439   */\n      add\n        /* \"#utility.yul\":15411:15417   */\n      dup5\n        /* \"#utility.yul\":15369:15440   */\n      tag_324\n      jump\t// in\n    tag_482:\n        /* \"#utility.yul\":14537:15447   */\n      swap9\n      swap8\n      pop\n      pop\n      pop\n      pop\n      pop\n      pop\n      pop\n      pop\n      jump\t// out\n        /* \"#utility.yul\":15453:15571   */\n    tag_325:\n        /* \"#utility.yul\":15540:15564   */\n      tag_484\n        /* \"#utility.yul\":15558:15563   */\n      dup2\n        /* \"#utility.yul\":15540:15564   */\n      tag_283\n      jump\t// in\n    tag_484:\n        /* \"#utility.yul\":15535:15538   */\n      dup3\n        /* \"#utility.yul\":15528:15565   */\n      mstore\n        /* \"#utility.yul\":15453:15571   */\n      pop\n      pop\n      jump\t// out\n        /* \"#utility.yul\":15577:15799   */\n    tag_91:\n        /* \"#utility.yul\":15670:15674   */\n      0x00\n        /* \"#utility.yul\":15708:15710   */\n      0x20\n        /* \"#utility.yul\":15697:15706   */\n      dup3\n        /* \"#utility.yul\":15693:15711   */\n      add\n        /* \"#utility.yul\":15685:15711   */\n      swap1\n      pop\n        /* \"#utility.yul\":15721:15792   */\n      tag_486\n        /* \"#utility.yul\":15789:15790   */\n      0x00\n        /* \"#utility.yul\":15778:15787   */\n      dup4\n        /* \"#utility.yul\":15774:15791   */\n      add\n        /* \"#utility.yul\":15765:15771   */\n      dup5\n        /* \"#utility.yul\":15721:15792   */\n      tag_325\n      jump\t// in\n    tag_486:\n        /* \"#utility.yul\":15577:15799   */\n      swap3\n      swap2\n      pop\n      pop\n      jump\t// out\n        /* \"#utility.yul\":15805:15985   */\n    tag_326:\n        /* \"#utility.yul\":15853:15930   */\n      0x4e487b7100000000000000000000000000000000000000000000000000000000\n        /* \"#utility.yul\":15850:15851   */\n      0x00\n        /* \"#utility.yul\":15843:15931   */\n      mstore\n        /* \"#utility.yul\":15950:15954   */\n      0x11\n        /* \"#utility.yul\":15947:15948   */\n      0x04\n        /* \"#utility.yul\":15940:15955   */\n      mstore\n        /* \"#utility.yul\":15974:15978   */\n      0x24\n        /* \"#utility.yul\":15971:15972   */\n      0x00\n        /* \"#utility.yul\":15964:15979   */\n      revert\n        /* \"#utility.yul\":15991:16224   */\n    tag_106:\n        /* \"#utility.yul\":16030:16033   */\n      0x00\n        /* \"#utility.yul\":16053:16077   */\n      tag_489\n        /* \"#utility.yul\":16071:16076   */\n      dup3\n        /* \"#utility.yul\":16053:16077   */\n      tag_295\n      jump\t// in\n    tag_489:\n        /* \"#utility.yul\":16044:16077   */\n      swap2\n      pop\n        /* \"#utility.yul\":16099:16165   */\n      0xffffffffffffffffffffffffffffffffffffffffffffffffffffffffffffffff\n        /* \"#utility.yul\":16092:16097   */\n      dup3\n        /* \"#utility.yul\":16089:16166   */\n      sub\n        /* \"#utility.yul\":16086:16189   */\n      tag_490\n      jumpi\n        /* \"#utility.yul\":16169:16187   */\n      tag_491\n      tag_326\n      jump\t// in\n    tag_491:\n        /* \"#utility.yul\":16086:16189   */\n    tag_490:\n        /* \"#utility.yul\":16216:16217   */\n      0x01\n        /* \"#utility.yul\":16209:16214   */\n      dup3\n        /* \"#utility.yul\":16205:16218   */\n      add\n        /* \"#utility.yul\":16198:16218   */\n      swap1\n      pop\n        /* \"#utility.yul\":15991:16224   */\n      swap2\n      swap1\n      pop\n      jump\t// out\n        /* \"#utility.yul\":16230:16377   */\n    tag_327:\n        /* \"#utility.yul\":16331:16342   */\n      0x00\n        /* \"#utility.yul\":16368:16371   */\n      dup2\n        /* \"#utility.yul\":16353:16371   */\n      swap1\n      pop\n        /* \"#utility.yul\":16230:16377   */\n      swap3\n      swap2\n      pop\n      pop\n      jump\t// out\n        /* \"#utility.yul\":16383:16497   */\n    tag_328:\n      pop\n      jump\t// out\n        /* \"#utility.yul\":16503:16901   */\n    tag_329:\n        /* \"#utility.yul\":16662:16665   */\n      0x00\n        /* \"#utility.yul\":16683:16766   */\n      tag_495\n        /* \"#utility.yul\":16764:16765   */\n      0x00\n        /* \"#utility.yul\":16759:16762   */\n      dup4\n        /* \"#utility.yul\":16683:16766   */\n      tag_327\n      jump\t// in\n    tag_495:\n        /* \"#utility.yul\":16676:16766   */\n      swap2\n      pop\n        /* \"#utility.yul\":16775:16868   */\n      tag_496\n        /* \"#utility.yul\":16864:16867   */\n      dup3\n        /* \"#utility.yul\":16775:16868   */\n      tag_328\n      jump\t// in\n    tag_496:\n        /* \"#utility.yul\":16893:16894   */\n      0x00\n        /* \"#utility.yul\":16888:16891   */\n      dup3\n        /* \"#utility.yul\":16884:16895   */\n      add\n        /* \"#utility.yul\":16877:16895   */\n      swap1\n      pop\n        /* \"#utility.yul\":16503:16901   */\n      swap2\n      swap1\n      pop\n      jump\t// out\n        /* \"#utility.yul\":16907:17286   */\n    tag_125:\n        /* \"#utility.yul\":17091:17094   */\n      0x00\n        /* \"#utility.yul\":17113:17260   */\n      tag_498\n        /* \"#utility.yul\":17256:17259   */\n      dup3\n        /* \"#utility.yul\":17113:17260   */\n      tag_329\n      jump\t// in\n    tag_498:\n        /* \"#utility.yul\":17106:17260   */\n      swap2\n      pop\n        /* \"#utility.yul\":17277:17280   */\n      dup2\n        /* \"#utility.yul\":17270:17280   */\n      swap1\n      pop\n        /* \"#utility.yul\":16907:17286   */\n      swap2\n      swap1\n      pop\n      jump\t// out\n        /* \"#utility.yul\":17292:17456   */\n    tag_330:\n        /* \"#utility.yul\":17432:17448   */\n      0x526566756e64206661696c757265000000000000000000000000000000000000\n        /* \"#utility.yul\":17428:17429   */\n      0x00\n        /* \"#utility.yul\":17420:17426   */\n      dup3\n        /* \"#utility.yul\":17416:17430   */\n      add\n        /* \"#utility.yul\":17409:17449   */\n      mstore\n        /* \"#utility.yul\":17292:17456   */\n      pop\n      jump\t// out\n        /* \"#utility.yul\":17462:17828   */\n    tag_331:\n        /* \"#utility.yul\":17604:17607   */\n      0x00\n        /* \"#utility.yul\":17625:17692   */\n      tag_501\n        /* \"#utility.yul\":17689:17691   */\n      0x0e\n        /* \"#utility.yul\":17684:17687   */\n      dup4\n        /* \"#utility.yul\":17625:17692   */\n      tag_277\n      jump\t// in\n    tag_501:\n        /* \"#utility.yul\":17618:17692   */\n      swap2\n      pop\n        /* \"#utility.yul\":17701:17794   */\n      tag_502\n        /* \"#utility.yul\":17790:17793   */\n      dup3\n        /* \"#utility.yul\":17701:17794   */\n      tag_330\n      jump\t// in\n    tag_502:\n        /* \"#utility.yul\":17819:17821   */\n      0x20\n        /* \"#utility.yul\":17814:17817   */\n      dup3\n        /* \"#utility.yul\":17810:17822   */\n      add\n        /* \"#utility.yul\":17803:17822   */\n      swap1\n      pop\n        /* \"#utility.yul\":17462:17828   */\n      swap2\n      swap1\n      pop\n      jump\t// out\n        /* \"#utility.yul\":17834:18253   */\n    tag_131:\n        /* \"#utility.yul\":18000:18004   */\n      0x00\n        /* \"#utility.yul\":18038:18040   */\n      0x20\n        /* \"#utility.yul\":18027:18036   */\n      dup3\n        /* \"#utility.yul\":18023:18041   */\n      add\n        /* \"#utility.yul\":18015:18041   */\n      swap1\n      pop\n        /* \"#utility.yul\":18087:18096   */\n      dup2\n        /* \"#utility.yul\":18081:18085   */\n      dup2\n        /* \"#utility.yul\":18077:18097   */\n      sub\n        /* \"#utility.yul\":18073:18074   */\n      0x00\n        /* \"#utility.yul\":18062:18071   */\n      dup4\n        /* \"#utility.yul\":18058:18075   */\n      add\n        /* \"#utility.yul\":18051:18098   */\n      mstore\n        /* \"#utility.yul\":18115:18246   */\n      tag_504\n        /* \"#utility.yul\":18241:18245   */\n      dup2\n        /* \"#utility.yul\":18115:18246   */\n      tag_331\n      jump\t// in\n    tag_504:\n        /* \"#utility.yul\":18107:18246   */\n      swap1\n      pop\n        /* \"#utility.yul\":17834:18253   */\n      swap2\n      swap1\n      pop\n      jump\t// out\n        /* \"#utility.yul\":18259:18439   */\n    tag_137:\n        /* \"#utility.yul\":18307:18384   */\n      0x4e487b7100000000000000000000000000000000000000000000000000000000\n        /* \"#utility.yul\":18304:18305   */\n      0x00\n        /* \"#utility.yul\":18297:18385   */\n      mstore\n        /* \"#utility.yul\":18404:18408   */\n      0x41\n        /* \"#utility.yul\":18401:18402   */\n      0x04\n        /* \"#utility.yul\":18394:18409   */\n      mstore\n        /* \"#utility.yul\":18428:18432   */\n      0x24\n        /* \"#utility.yul\":18425:18426   */\n      0x00\n        /* \"#utility.yul\":18418:18433   */\n      revert\n        /* \"#utility.yul\":18445:18625   */\n    tag_147:\n        /* \"#utility.yul\":18493:18570   */\n      0x4e487b7100000000000000000000000000000000000000000000000000000000\n        /* \"#utility.yul\":18490:18491   */\n      0x00\n        /* \"#utility.yul\":18483:18571   */\n      mstore\n        /* \"#utility.yul\":18590:18594   */\n      0x32\n        /* \"#utility.yul\":18587:18588   */\n      0x04\n        /* \"#utility.yul\":18580:18595   */\n      mstore\n        /* \"#utility.yul\":18614:18618   */\n      0x24\n        /* \"#utility.yul\":18611:18612   */\n      0x00\n        /* \"#utility.yul\":18604:18619   */\n      revert\n        /* \"#utility.yul\":18631:18822   */\n    tag_203:\n        /* \"#utility.yul\":18671:18674   */\n      0x00\n        /* \"#utility.yul\":18690:18710   */\n      tag_508\n        /* \"#utility.yul\":18708:18709   */\n      dup3\n        /* \"#utility.yul\":18690:18710   */\n      tag_295\n      jump\t// in\n    tag_508:\n        /* \"#utility.yul\":18685:18710   */\n      swap2\n      pop\n        /* \"#utility.yul\":18724:18744   */\n      tag_509\n        /* \"#utility.yul\":18742:18743   */\n      dup4\n        /* \"#utility.yul\":18724:18744   */\n      tag_295\n      jump\t// in\n    tag_509:\n        /* \"#utility.yul\":18719:18744   */\n      swap3\n      pop\n        /* \"#utility.yul\":18767:18768   */\n      dup3\n        /* \"#utility.yul\":18764:18765   */\n      dup3\n        /* \"#utility.yul\":18760:18769   */\n      add\n        /* \"#utility.yul\":18753:18769   */\n      swap1\n      pop\n        /* \"#utility.yul\":18788:18791   */\n      dup1\n        /* \"#utility.yul\":18785:18786   */\n      dup3\n        /* \"#utility.yul\":18782:18792   */\n      gt\n        /* \"#utility.yul\":18779:18815   */\n      iszero\n      tag_510\n      jumpi\n        /* \"#utility.yul\":18795:18813   */\n      tag_511\n      tag_326\n      jump\t// in\n    tag_511:\n        /* \"#utility.yul\":18779:18815   */\n    tag_510:\n        /* \"#utility.yul\":18631:18822   */\n      swap3\n      swap2\n      pop\n      pop\n      jump\t// out\n        /* \"#utility.yul\":18828:19160   */\n    tag_221:\n        /* \"#utility.yul\":18949:18953   */\n      0x00\n        /* \"#utility.yul\":18987:18989   */\n      0x40\n        /* \"#utility.yul\":18976:18985   */\n      dup3\n        /* \"#utility.yul\":18972:18990   */\n      add\n        /* \"#utility.yul\":18964:18990   */\n      swap1\n      pop\n        /* \"#utility.yul\":19000:19071   */\n      tag_513\n        /* \"#utility.yul\":19068:19069   */\n      0x00\n        /* \"#utility.yul\":19057:19066   */\n      dup4\n        /* \"#utility.yul\":19053:19070   */\n      add\n        /* \"#utility.yul\":19044:19050   */\n      dup6\n        /* \"#utility.yul\":19000:19071   */\n      tag_325\n      jump\t// in\n    tag_513:\n        /* \"#utility.yul\":19081:19153   */\n      tag_514\n        /* \"#utility.yul\":19149:19151   */\n      0x20\n        /* \"#utility.yul\":19138:19147   */\n      dup4\n        /* \"#utility.yul\":19134:19152   */\n      add\n        /* \"#utility.yul\":19125:19131   */\n      dup5\n        /* \"#utility.yul\":19081:19153   */\n      tag_288\n      jump\t// in\n    tag_514:\n        /* \"#utility.yul\":18828:19160   */\n      swap4\n      swap3\n      pop\n      pop\n      pop\n      jump\t// out\n        /* \"#utility.yul\":19166:19332   */\n    tag_332:\n        /* \"#utility.yul\":19306:19324   */\n      0x4e6f207072697a652062616c616e636500000000000000000000000000000000\n        /* \"#utility.yul\":19302:19303   */\n      0x00\n        /* \"#utility.yul\":19294:19300   */\n      dup3\n        /* \"#utility.yul\":19290:19304   */\n      add\n        /* \"#utility.yul\":19283:19325   */\n      mstore\n        /* \"#utility.yul\":19166:19332   */\n      pop\n      jump\t// out\n        /* \"#utility.yul\":19338:19704   */\n    tag_333:\n        /* \"#utility.yul\":19480:19483   */\n      0x00\n        /* \"#utility.yul\":19501:19568   */\n      tag_517\n        /* \"#utility.yul\":19565:19567   */\n      0x10\n        /* \"#utility.yul\":19560:19563   */\n      dup4\n        /* \"#utility.yul\":19501:19568   */\n      tag_277\n      jump\t// in\n    tag_517:\n        /* \"#utility.yul\":19494:19568   */\n      swap2\n      pop\n        /* \"#utility.yul\":19577:19670   */\n      tag_518\n        /* \"#utility.yul\":19666:19669   */\n      dup3\n        /* \"#utility.yul\":19577:19670   */\n      tag_332\n      jump\t// in\n    tag_518:\n        /* \"#utility.yul\":19695:19697   */\n      0x20\n        /* \"#utility.yul\":19690:19693   */\n      dup3\n        /* \"#utility.yul\":19686:19698   */\n      add\n        /* \"#utility.yul\":19679:19698   */\n      swap1\n      pop\n        /* \"#utility.yul\":19338:19704   */\n      swap2\n      swap1\n      pop\n      jump\t// out\n        /* \"#utility.yul\":19710:20129   */\n    tag_224:\n        /* \"#utility.yul\":19876:19880   */\n      0x00\n        /* \"#utility.yul\":19914:19916   */\n      0x20\n        /* \"#utility.yul\":19903:19912   */\n      dup3\n        /* \"#utility.yul\":19899:19917   */\n      add\n        /* \"#utility.yul\":19891:19917   */\n      swap1\n      pop\n        /* \"#utility.yul\":19963:19972   */\n      dup2\n        /* \"#utility.yul\":19957:19961   */\n      dup2\n        /* \"#utility.yul\":19953:19973   */\n      sub\n        /* \"#utility.yul\":19949:19950   */\n      0x00\n        /* \"#utility.yul\":19938:19947   */\n      dup4\n        /* \"#utility.yul\":19934:19951   */\n      add\n        /* \"#utility.yul\":19927:19974   */\n      mstore\n        /* \"#utility.yul\":19991:20122   */\n      tag_520\n        /* \"#utility.yul\":20117:20121   */\n      dup2\n        /* \"#utility.yul\":19991:20122   */\n      tag_333\n      jump\t// in\n    tag_520:\n        /* \"#utility.yul\":19983:20122   */\n      swap1\n      pop\n        /* \"#utility.yul\":19710:20129   */\n      swap2\n      swap1\n      pop\n      jump\t// out\n        /* \"#utility.yul\":20135:20306   */\n    tag_334:\n        /* \"#utility.yul\":20275:20298   */\n      0x57696e6e6572207061796f7574206661696c7572650000000000000000000000\n        /* \"#utility.yul\":20271:20272   */\n      0x00\n        /* \"#utility.yul\":20263:20269   */\n      dup3\n        /* \"#utility.yul\":20259:20273   */\n      add\n        /* \"#utility.yul\":20252:20299   */\n      mstore\n        /* \"#utility.yul\":20135:20306   */\n      pop\n      jump\t// out\n        /* \"#utility.yul\":20312:20678   */\n    tag_335:\n        /* \"#utility.yul\":20454:20457   */\n      0x00\n        /* \"#utility.yul\":20475:20542   */\n      tag_523\n        /* \"#utility.yul\":20539:20541   */\n      0x15\n        /* \"#utility.yul\":20534:20537   */\n      dup4\n        /* \"#utility.yul\":20475:20542   */\n      tag_277\n      jump\t// in\n    tag_523:\n        /* \"#utility.yul\":20468:20542   */\n      swap2\n      pop\n        /* \"#utility.yul\":20551:20644   */\n      tag_524\n        /* \"#utility.yul\":20640:20643   */\n      dup3\n        /* \"#utility.yul\":20551:20644   */\n      tag_334\n      jump\t// in\n    tag_524:\n        /* \"#utility.yul\":20669:20671   */\n      0x20\n        /* \"#utility.yul\":20664:20667   */\n      dup3\n        /* \"#utility.yul\":20660:20672   */\n      add\n        /* \"#utility.yul\":20653:20672   */\n      swap1\n      pop\n        /* \"#utility.yul\":20312:20678   */\n      swap2\n      swap1\n      pop\n      jump\t// out\n        /* \"#utility.yul\":20684:21103   */\n    tag_233:\n        /* \"#utility.yul\":20850:20854   */\n      0x00\n        /* \"#utility.yul\":20888:20890   */\n      0x20\n        /* \"#utility.yul\":20877:20886   */\n      dup3\n        /* \"#utility.yul\":20873:20891   */\n      add\n        /* \"#utility.yul\":20865:20891   */\n      swap1\n      pop\n        /* \"#utility.yul\":20937:20946   */\n      dup2\n        /* \"#utility.yul\":20931:20935   */\n      dup2\n        /* \"#utility.yul\":20927:20947   */\n      sub\n        /* \"#utility.yul\":20923:20924   */\n      0x00\n        /* \"#utility.yul\":20912:20921   */\n      dup4\n        /* \"#utility.yul\":20908:20925   */\n      add\n        /* \"#utility.yul\":20901:20948   */\n      mstore\n        /* \"#utility.yul\":20965:21096   */\n      tag_526\n        /* \"#utility.yul\":21091:21095   */\n      dup2\n        /* \"#utility.yul\":20965:21096   */\n      tag_335\n      jump\t// in\n    tag_526:\n        /* \"#utility.yul\":20957:21096   */\n      swap1\n      pop\n        /* \"#utility.yul\":20684:21103   */\n      swap2\n      swap1\n      pop\n      jump\t// out\n        /* \"#utility.yul\":21109:21280   */\n    tag_247:\n        /* \"#utility.yul\":21148:21151   */\n      0x00\n        /* \"#utility.yul\":21171:21195   */\n      tag_528\n        /* \"#utility.yul\":21189:21194   */\n      dup3\n        /* \"#utility.yul\":21171:21195   */\n      tag_295\n      jump\t// in\n    tag_528:\n        /* \"#utility.yul\":21162:21195   */\n      swap2\n      pop\n        /* \"#utility.yul\":21217:21221   */\n      0x00\n        /* \"#utility.yul\":21210:21215   */\n      dup3\n        /* \"#utility.yul\":21207:21222   */\n      sub\n        /* \"#utility.yul\":21204:21245   */\n      tag_529\n      jumpi\n        /* \"#utility.yul\":21225:21243   */\n      tag_530\n      tag_326\n      jump\t// in\n    tag_530:\n        /* \"#utility.yul\":21204:21245   */\n    tag_529:\n        /* \"#utility.yul\":21272:21273   */\n      0x01\n        /* \"#utility.yul\":21265:21270   */\n      dup3\n        /* \"#utility.yul\":21261:21274   */\n      sub\n        /* \"#utility.yul\":21254:21274   */\n      swap1\n      pop\n        /* \"#utility.yul\":21109:21280   */\n      swap2\n      swap1\n      pop\n      jump\t// out\n        /* \"#utility.yul\":21286:21480   */\n    tag_256:\n        /* \"#utility.yul\":21326:21330   */\n      0x00\n        /* \"#utility.yul\":21346:21366   */\n      tag_532\n        /* \"#utility.yul\":21364:21365   */\n      dup3\n        /* \"#utility.yul\":21346:21366   */\n      tag_295\n      jump\t// in\n    tag_532:\n        /* \"#utility.yul\":21341:21366   */\n      swap2\n      pop\n        /* \"#utility.yul\":21380:21400   */\n      tag_533\n        /* \"#utility.yul\":21398:21399   */\n      dup4\n        /* \"#utility.yul\":21380:21400   */\n      tag_295\n      jump\t// in\n    tag_533:\n        /* \"#utility.yul\":21375:21400   */\n      swap3\n      pop\n        /* \"#utility.yul\":21424:21425   */\n      dup3\n        /* \"#utility.yul\":21421:21422   */\n      dup3\n        /* \"#utility.yul\":21417:21426   */\n      sub\n        /* \"#utility.yul\":21409:21426   */\n      swap1\n      pop\n        /* \"#utility.yul\":21448:21449   */\n      dup2\n        /* \"#utility.yul\":21442:21446   */\n      dup2\n        /* \"#utility.yul\":21439:21450   */\n      gt\n        /* \"#utility.yul\":21436:21473   */\n      iszero\n      tag_534\n      jumpi\n        /* \"#utility.yul\":21453:21471   */\n      tag_535\n      tag_326\n      jump\t// in\n    tag_535:\n        /* \"#utility.yul\":21436:21473   */\n    tag_534:\n        /* \"#utility.yul\":21286:21480   */\n      swap3\n      swap2\n      pop\n      pop\n      jump\t// out\n        /* \"#utility.yul\":21486:21666   */\n    tag_265:\n        /* \"#utility.yul\":21534:21611   */\n      0x4e487b7100000000000000000000000000000000000000000000000000000000\n        /* \"#utility.yul\":21531:21532   */\n      0x00\n        /* \"#utility.yul\":21524:21612   */\n      mstore\n        /* \"#utility.yul\":21631:21635   */\n      0x31\n        /* \"#utility.yul\":21628:21629   */\n      0x04\n        /* \"#utility.yul\":21621:21636   */\n      mstore\n        /* \"#utility.yul\":21655:21659   */\n      0x24\n        /* \"#utility.yul\":21652:21653   */\n      0x00\n        /* \"#utility.yul\":21645:21660   */\n      revert\n\n    auxdata: 0xa2646970667358221220a6e91faba771eeba91bd37a54cfc8ca59007bc6427931fe3d12249ea0df5fa1764736f6c63430008140033\n}\n",
				"bytecode": {
					"linkReferences": {},
					"object": "60a060405234801561000f575f80fd5b503373ffffffffffffffffffffffffffffffffffffffff1660808173ffffffffffffffffffffffffffffffffffffffff168152505060805161274661005c5f395f61096801526127465ff3fe6080604052600436106100c5575f3560e01c8063b11bb9921161007e578063d200ff6611610058578063d200ff6614610284578063d70da460146102ac578063e040ced6146102e8578063e31ef12c1461032457610105565b8063b11bb99214610218578063b214faa514610240578063b48d3baa1461025c57610105565b80634277f4fd14610109578063587f962e14610145578063647b53541461016d5780638da5cb5b1461019557806398d71138146101bf578063a0cd532d146101fc57610105565b36610105576040517f08c379a00000000000000000000000000000000000000000000000000000000081526004016100fc90611d7d565b60405180910390fd5b5f80fd5b348015610114575f80fd5b5061012f600480360381019061012a9190611dd2565b610366565b60405161013c9190611e3c565b60405180910390f35b348015610150575f80fd5b5061016b60048036038101906101669190611dd2565b610396565b005b348015610178575f80fd5b50610193600480360381019061018e9190611dd2565b6106d8565b005b3480156101a0575f80fd5b506101a9610966565b6040516101b69190611e3c565b60405180910390f35b3480156101ca575f80fd5b506101e560048036038101906101e09190611e7f565b61098a565b6040516101f3929190612151565b60405180910390f35b610216600480360381019061021191906121b0565b610bd8565b005b348015610223575f80fd5b5061023e60048036038101906102399190611dd2565b610eb5565b005b61025a60048036038101906102559190611dd2565b6110a9565b005b348015610267575f80fd5b50610282600480360381019061027d9190612200565b6112c2565b005b34801561028f575f80fd5b506102aa60048036038101906102a59190611dd2565b6116c3565b005b3480156102b7575f80fd5b506102d260048036038101906102cd9190611dd2565b611a82565b6040516102df91906122e6565b60405180910390f35b3480156102f3575f80fd5b5061030e60048036038101906103099190611e7f565b611b1e565b60405161031b9190612306565b60405180910390f35b34801561032f575f80fd5b5061034a60048036038101906103459190611dd2565b611bb1565b60405161035d9796959493929190612353565b60405180910390f35b6003602052805f5260405f205f915054906101000a900473ffffffffffffffffffffffffffffffffffffffff1681565b61039f81611c2c565b6103e057806040517f7aafa1040000000000000000000000000000000000000000000000000000000081526004016103d791906123cf565b60405180910390fd5b5f805f8381526020019081526020015f209050805f015f9054906101000a900473ffffffffffffffffffffffffffffffffffffffff1673ffffffffffffffffffffffffffffffffffffffff163373ffffffffffffffffffffffffffffffffffffffff160361048557816040517f2517ca9500000000000000000000000000000000000000000000000000000000815260040161047c91906123cf565b60405180910390fd5b5f600281111561049857610497611efa565b5b816002015f9054906101000a900460ff1660028111156104bb576104ba611efa565b5b146104fd57816040517f8c664a9d0000000000000000000000000000000000000000000000000000000081526004016104f491906123cf565b60405180910390fd5b806003015481600501541061054957816040517f37d57d5600000000000000000000000000000000000000000000000000000000815260040161054091906123cf565b60405180910390fd5b5f60015f8481526020019081526020015f205f3373ffffffffffffffffffffffffffffffffffffffff1673ffffffffffffffffffffffffffffffffffffffff1681526020019081526020015f205f9054906101000a900460ff16905080156105e857826040517fa34393540000000000000000000000000000000000000000000000000000000081526004016105df91906123cf565b60405180910390fd5b6001805f8581526020019081526020015f205f3373ffffffffffffffffffffffffffffffffffffffff1673ffffffffffffffffffffffffffffffffffffffff1681526020019081526020015f205f6101000a81548160ff021916908315150217905550816005015f81548092919061065f90612415565b919050555060025f8481526020019081526020015f2033908060018154018082558091505060019003905f5260205f20015f9091909190916101000a81548173ffffffffffffffffffffffffffffffffffffffff021916908373ffffffffffffffffffffffffffffffffffffffff160217905550505050565b806106e281611c2c565b61072357806040517f7aafa10400000000000000000000000000000000000000000000000000000000815260040161071a91906123cf565b60405180910390fd5b5f808281526020019081526020015f205f015f9054906101000a900473ffffffffffffffffffffffffffffffffffffffff1673ffffffffffffffffffffffffffffffffffffffff163373ffffffffffffffffffffffffffffffffffffffff16146107c457336040517fd68affb70000000000000000000000000000000000000000000000000000000081526004016107bb9190611e3c565b60405180910390fd5b5f805f8481526020019081526020015f2090505f60028111156107ea576107e9611efa565b5b816002015f9054906101000a900460ff16600281111561080d5761080c611efa565b5b1461084f57826040517f8c664a9d00000000000000000000000000000000000000000000000000000000815260040161084691906123cf565b60405180910390fd5b5f816001015490505f82600101819055506001826002015f6101000a81548160ff0219169083600281111561088757610886611efa565b5b02179055505f811115610960575f825f015f9054906101000a900473ffffffffffffffffffffffffffffffffffffffff1673ffffffffffffffffffffffffffffffffffffffff16826040516108db90612489565b5f6040518083038185875af1925050503d805f8114610915576040519150601f19603f3d011682016040523d82523d5f602084013e61091a565b606091505b505090508061095e576040517f08c379a0000000000000000000000000000000000000000000000000000000008152600401610955906124e7565b60405180910390fd5b505b50505050565b7f000000000000000000000000000000000000000000000000000000000000000081565b6060805f60045f8573ffffffffffffffffffffffffffffffffffffffff1673ffffffffffffffffffffffffffffffffffffffff1681526020019081526020015f20805480602002602001604051908101604052809291908181526020018280548015610a1357602002820191905f5260205f20905b8154815260200190600101908083116109ff575b505050505090505f815167ffffffffffffffff811115610a3657610a35612505565b5b604051908082528060200260200182016040528015610a6f57816020015b610a5c611c95565b815260200190600190039081610a545790505b5090505f5b8251811015610bca575f80848381518110610a9257610a91612532565b5b602002602001015181526020019081526020015f206040518060e00160405290815f82015f9054906101000a900473ffffffffffffffffffffffffffffffffffffffff1673ffffffffffffffffffffffffffffffffffffffff1673ffffffffffffffffffffffffffffffffffffffff16815260200160018201548152602001600282015f9054906101000a900460ff166002811115610b3457610b33611efa565b5b6002811115610b4657610b45611efa565b5b8152602001600382015481526020016004820154815260200160058201548152602001600682015f9054906101000a900467ffffffffffffffff1667ffffffffffffffff1667ffffffffffffffff1681525050828281518110610bac57610bab612532565b5b60200260200101819052508080610bc290612415565b915050610a74565b508082935093505050915091565b5f3403610c11576040517f600f7bf400000000000000000000000000000000000000000000000000000000815260040160405180910390fd5b82821015610c4b576040517fb3b6029c00000000000000000000000000000000000000000000000000000000815260040160405180910390fd5b5f831015610c85576040517f530a986700000000000000000000000000000000000000000000000000000000815260040160405180910390fd5b5f602060ff161015610cc3576040517f166cbdbe00000000000000000000000000000000000000000000000000000000815260040160405180910390fd5b610ccc81611c2c565b15610d0e57806040517f4fec90c5000000000000000000000000000000000000000000000000000000008152600401610d0591906123cf565b60405180910390fd5b6040518060e001604052803373ffffffffffffffffffffffffffffffffffffffff1681526020013481526020015f6002811115610d4e57610d4d611efa565b5b81526020018381526020018481526020015f81526020014267ffffffffffffffff168152505f808381526020019081526020015f205f820151815f015f6101000a81548173ffffffffffffffffffffffffffffffffffffffff021916908373ffffffffffffffffffffffffffffffffffffffff160217905550602082015181600101556040820151816002015f6101000a81548160ff02191690836002811115610dfb57610dfa611efa565b5b0217905550606082015181600301556080820151816004015560a0820151816005015560c0820151816006015f6101000a81548167ffffffffffffffff021916908367ffffffffffffffff16021790555090505060045f3373ffffffffffffffffffffffffffffffffffffffff1673ffffffffffffffffffffffffffffffffffffffff1681526020019081526020015f2081908060018154018082558091505060019003905f5260205f20015f9091909190915055505050565b80610ebf81611c2c565b610f0057806040517f7aafa104000000000000000000000000000000000000000000000000000000008152600401610ef791906123cf565b60405180910390fd5b5f808281526020019081526020015f205f015f9054906101000a900473ffffffffffffffffffffffffffffffffffffffff1673ffffffffffffffffffffffffffffffffffffffff163373ffffffffffffffffffffffffffffffffffffffff1614610fa157336040517fd68affb7000000000000000000000000000000000000000000000000000000008152600401610f989190611e3c565b60405180910390fd5b5f805f8481526020019081526020015f2090505f6002811115610fc757610fc6611efa565b5b816002015f9054906101000a900460ff166002811115610fea57610fe9611efa565b5b1461102c57826040517f8c664a9d00000000000000000000000000000000000000000000000000000000815260040161102391906123cf565b60405180910390fd5b806004015481600501541161107857826040517f2cf3c5c700000000000000000000000000000000000000000000000000000000815260040161106f91906123cf565b60405180910390fd5b6002816002015f6101000a81548160ff0219169083600281111561109f5761109e611efa565b5b0217905550505050565b806110b381611c2c565b6110f457806040517f7aafa1040000000000000000000000000000000000000000000000000000000081526004016110eb91906123cf565b60405180910390fd5b5f808281526020019081526020015f205f015f9054906101000a900473ffffffffffffffffffffffffffffffffffffffff1673ffffffffffffffffffffffffffffffffffffffff163373ffffffffffffffffffffffffffffffffffffffff161461119557336040517fd68affb700000000000000000000000000000000000000000000000000000000815260040161118c9190611e3c565b60405180910390fd5b61119e82611c2c565b6111df57816040517f7aafa1040000000000000000000000000000000000000000000000000000000081526004016111d691906123cf565b60405180910390fd5b5f805f8481526020019081526020015f2090505f600281111561120557611204611efa565b5b816002015f9054906101000a900460ff16600281111561122857611227611efa565b5b1461126a57826040517f8c664a9d00000000000000000000000000000000000000000000000000000000815260040161126191906123cf565b60405180910390fd5b5f34036112a3576040517f600f7bf400000000000000000000000000000000000000000000000000000000815260040160405180910390fd5b34816001015f8282546112b6919061255f565b92505081905550505050565b816112cc81611c2c565b61130d57806040517f7aafa10400000000000000000000000000000000000000000000000000000000815260040161130491906123cf565b60405180910390fd5b5f808281526020019081526020015f205f015f9054906101000a900473ffffffffffffffffffffffffffffffffffffffff1673ffffffffffffffffffffffffffffffffffffffff163373ffffffffffffffffffffffffffffffffffffffff16146113ae57336040517fd68affb70000000000000000000000000000000000000000000000000000000081526004016113a59190611e3c565b60405180910390fd5b5f805f8581526020019081526020015f2090506002808111156113d4576113d3611efa565b5b816002015f9054906101000a900460ff1660028111156113f7576113f6611efa565b5b1461143957836040517fd1dbaf5500000000000000000000000000000000000000000000000000000000815260040161143091906123cf565b60405180910390fd5b5f73ffffffffffffffffffffffffffffffffffffffff168373ffffffffffffffffffffffffffffffffffffffff16036114a957836040517ffe23ea1f0000000000000000000000000000000000000000000000000000000081526004016114a091906123cf565b60405180910390fd5b60015f8581526020019081526020015f205f8473ffffffffffffffffffffffffffffffffffffffff1673ffffffffffffffffffffffffffffffffffffffff1681526020019081526020015f205f9054906101000a900460ff166115455783836040517fe66163eb00000000000000000000000000000000000000000000000000000000815260040161153c929190612592565b60405180910390fd5b5f816001015490505f811161158f576040517f08c379a000000000000000000000000000000000000000000000000000000000815260040161158690612603565b60405180910390fd5b8360035f8781526020019081526020015f205f6101000a81548173ffffffffffffffffffffffffffffffffffffffff021916908373ffffffffffffffffffffffffffffffffffffffff1602179055506001826002015f6101000a81548160ff0219169083600281111561160557611604611efa565b5b02179055505f82600101819055505f8473ffffffffffffffffffffffffffffffffffffffff168260405161163890612489565b5f6040518083038185875af1925050503d805f8114611672576040519150601f19603f3d011682016040523d82523d5f602084013e611677565b606091505b50509050806116bb576040517f08c379a00000000000000000000000000000000000000000000000000000000081526004016116b29061266b565b60405180910390fd5b505050505050565b6116cc81611c2c565b61170d57806040517f7aafa10400000000000000000000000000000000000000000000000000000000815260040161170491906123cf565b60405180910390fd5b5f805f8381526020019081526020015f2090505f600281111561173357611732611efa565b5b816002015f9054906101000a900460ff16600281111561175657611755611efa565b5b1461179857816040517f8c664a9d00000000000000000000000000000000000000000000000000000000815260040161178f91906123cf565b60405180910390fd5b5f60015f8481526020019081526020015f205f3373ffffffffffffffffffffffffffffffffffffffff1673ffffffffffffffffffffffffffffffffffffffff1681526020019081526020015f205f9054906101000a900460ff1690508061183657826040517f0d7648af00000000000000000000000000000000000000000000000000000000815260040161182d91906123cf565b60405180910390fd5b816005015f81548092919061184a90612689565b91905055505f60015f8581526020019081526020015f205f3373ffffffffffffffffffffffffffffffffffffffff1673ffffffffffffffffffffffffffffffffffffffff1681526020019081526020015f205f6101000a81548160ff0219169083151502179055505f60025f8581526020019081526020015f208054905090505f5b81811015611a7b573373ffffffffffffffffffffffffffffffffffffffff1660025f8781526020019081526020015f20828154811061190e5761190d612532565b5b905f5260205f20015f9054906101000a900473ffffffffffffffffffffffffffffffffffffffff1673ffffffffffffffffffffffffffffffffffffffff1603611a685760025f8681526020019081526020015f2060018361196f91906126b0565b815481106119805761197f612532565b5b905f5260205f20015f9054906101000a900473ffffffffffffffffffffffffffffffffffffffff1660025f8781526020019081526020015f2082815481106119cb576119ca612532565b5b905f5260205f20015f6101000a81548173ffffffffffffffffffffffffffffffffffffffff021916908373ffffffffffffffffffffffffffffffffffffffff16021790555060025f8681526020019081526020015f20805480611a3157611a306126e3565b5b600190038181905f5260205f20015f6101000a81549073ffffffffffffffffffffffffffffffffffffffff02191690559055611a7b565b8080611a7390612415565b9150506118cc565b5050505050565b606060025f8381526020019081526020015f20805480602002602001604051908101604052809291908181526020018280548015611b1257602002820191905f5260205f20905b815f9054906101000a900473ffffffffffffffffffffffffffffffffffffffff1673ffffffffffffffffffffffffffffffffffffffff1681526020019060010190808311611ac9575b50505050509050919050565b606060045f8373ffffffffffffffffffffffffffffffffffffffff1673ffffffffffffffffffffffffffffffffffffffff1681526020019081526020015f20805480602002602001604051908101604052809291908181526020018280548015611ba557602002820191905f5260205f20905b815481526020019060010190808311611b91575b50505050509050919050565b5f602052805f5260405f205f91509050805f015f9054906101000a900473ffffffffffffffffffffffffffffffffffffffff1690806001015490806002015f9054906101000a900460ff1690806003015490806004015490806005015490806006015f9054906101000a900467ffffffffffffffff16905087565b5f8073ffffffffffffffffffffffffffffffffffffffff165f808481526020019081526020015f205f015f9054906101000a900473ffffffffffffffffffffffffffffffffffffffff1673ffffffffffffffffffffffffffffffffffffffff1614159050919050565b6040518060e001604052805f73ffffffffffffffffffffffffffffffffffffffff1681526020015f81526020015f6002811115611cd557611cd4611efa565b5b81526020015f81526020015f81526020015f81526020015f67ffffffffffffffff1681525090565b5f82825260208201905092915050565b7f75736520637265617465526166666c652f6465706f736974207769746820636f5f8201527f6465000000000000000000000000000000000000000000000000000000000000602082015250565b5f611d67602283611cfd565b9150611d7282611d0d565b604082019050919050565b5f6020820190508181035f830152611d9481611d5b565b9050919050565b5f80fd5b5f819050919050565b611db181611d9f565b8114611dbb575f80fd5b50565b5f81359050611dcc81611da8565b92915050565b5f60208284031215611de757611de6611d9b565b5b5f611df484828501611dbe565b91505092915050565b5f73ffffffffffffffffffffffffffffffffffffffff82169050919050565b5f611e2682611dfd565b9050919050565b611e3681611e1c565b82525050565b5f602082019050611e4f5f830184611e2d565b92915050565b611e5e81611e1c565b8114611e68575f80fd5b50565b5f81359050611e7981611e55565b92915050565b5f60208284031215611e9457611e93611d9b565b5b5f611ea184828501611e6b565b91505092915050565b5f81519050919050565b5f82825260208201905092915050565b5f819050602082019050919050565b611edc81611e1c565b82525050565b5f819050919050565b611ef481611ee2565b82525050565b7f4e487b71000000000000000000000000000000000000000000000000000000005f52602160045260245ffd5b60038110611f3857611f37611efa565b5b50565b5f819050611f4882611f27565b919050565b5f611f5782611f3b565b9050919050565b611f6781611f4d565b82525050565b5f67ffffffffffffffff82169050919050565b611f8981611f6d565b82525050565b60e082015f820151611fa35f850182611ed3565b506020820151611fb66020850182611eeb565b506040820151611fc96040850182611f5e565b506060820151611fdc6060850182611eeb565b506080820151611fef6080850182611eeb565b5060a082015161200260a0850182611eeb565b5060c082015161201560c0850182611f80565b50505050565b5f6120268383611f8f565b60e08301905092915050565b5f602082019050919050565b5f61204882611eaa565b6120528185611eb4565b935061205d83611ec4565b805f5b8381101561208d578151612074888261201b565b975061207f83612032565b925050600181019050612060565b5085935050505092915050565b5f81519050919050565b5f82825260208201905092915050565b5f819050602082019050919050565b6120cc81611d9f565b82525050565b5f6120dd83836120c3565b60208301905092915050565b5f602082019050919050565b5f6120ff8261209a565b61210981856120a4565b9350612114836120b4565b805f5b8381101561214457815161212b88826120d2565b9750612136836120e9565b925050600181019050612117565b5085935050505092915050565b5f6040820190508181035f830152612169818561203e565b9050818103602083015261217d81846120f5565b90509392505050565b61218f81611ee2565b8114612199575f80fd5b50565b5f813590506121aa81612186565b92915050565b5f805f606084860312156121c7576121c6611d9b565b5b5f6121d48682870161219c565b93505060206121e58682870161219c565b92505060406121f686828701611dbe565b9150509250925092565b5f806040838503121561221657612215611d9b565b5b5f61222385828601611dbe565b925050602061223485828601611e6b565b9150509250929050565b5f81519050919050565b5f82825260208201905092915050565b5f819050602082019050919050565b5f6122728383611ed3565b60208301905092915050565b5f602082019050919050565b5f6122948261223e565b61229e8185612248565b93506122a983612258565b805f5b838110156122d95781516122c08882612267565b97506122cb8361227e565b9250506001810190506122ac565b5085935050505092915050565b5f6020820190508181035f8301526122fe818461228a565b905092915050565b5f6020820190508181035f83015261231e81846120f5565b905092915050565b61232f81611ee2565b82525050565b61233e81611f4d565b82525050565b61234d81611f6d565b82525050565b5f60e0820190506123665f83018a611e2d565b6123736020830189612326565b6123806040830188612335565b61238d6060830187612326565b61239a6080830186612326565b6123a760a0830185612326565b6123b460c0830184612344565b98975050505050505050565b6123c981611d9f565b82525050565b5f6020820190506123e25f8301846123c0565b92915050565b7f4e487b71000000000000000000000000000000000000000000000000000000005f52601160045260245ffd5b5f61241f82611ee2565b91507fffffffffffffffffffffffffffffffffffffffffffffffffffffffffffffffff8203612451576124506123e8565b5b600182019050919050565b5f81905092915050565b50565b5f6124745f8361245c565b915061247f82612466565b5f82019050919050565b5f61249382612469565b9150819050919050565b7f526566756e64206661696c7572650000000000000000000000000000000000005f82015250565b5f6124d1600e83611cfd565b91506124dc8261249d565b602082019050919050565b5f6020820190508181035f8301526124fe816124c5565b9050919050565b7f4e487b71000000000000000000000000000000000000000000000000000000005f52604160045260245ffd5b7f4e487b71000000000000000000000000000000000000000000000000000000005f52603260045260245ffd5b5f61256982611ee2565b915061257483611ee2565b925082820190508082111561258c5761258b6123e8565b5b92915050565b5f6040820190506125a55f8301856123c0565b6125b26020830184611e2d565b9392505050565b7f4e6f207072697a652062616c616e6365000000000000000000000000000000005f82015250565b5f6125ed601083611cfd565b91506125f8826125b9565b602082019050919050565b5f6020820190508181035f83015261261a816125e1565b9050919050565b7f57696e6e6572207061796f7574206661696c75726500000000000000000000005f82015250565b5f612655601583611cfd565b915061266082612621565b602082019050919050565b5f6020820190508181035f83015261268281612649565b9050919050565b5f61269382611ee2565b91505f82036126a5576126a46123e8565b5b600182039050919050565b5f6126ba82611ee2565b91506126c583611ee2565b92508282039050818111156126dd576126dc6123e8565b5b92915050565b7f4e487b71000000000000000000000000000000000000000000000000000000005f52603160045260245ffdfea2646970667358221220a6e91faba771eeba91bd37a54cfc8ca59007bc6427931fe3d12249ea0df5fa1764736f6c63430008140033",
					"opcodes": "PUSH1 0xA0 PUSH1 0x40 MSTORE CALLVALUE DUP1 ISZERO PUSH2 0xF JUMPI PUSH0 DUP1 REVERT JUMPDEST POP CALLER PUSH20 0xFFFFFFFFFFFFFFFFFFFFFFFFFFFFFFFFFFFFFFFF AND PUSH1 0x80 DUP2 PUSH20 0xFFFFFFFFFFFFFFFFFFFFFFFFFFFFFFFFFFFFFFFF AND DUP2 MSTORE POP POP PUSH1 0x80 MLOAD PUSH2 0x2746 PUSH2 0x5C PUSH0 CODECOPY PUSH0 PUSH2 0x968 ADD MSTORE PUSH2 0x2746 PUSH0 RETURN INVALID PUSH1 0x80 PUSH1 0x40 MSTORE PUSH1 0x4 CALLDATASIZE LT PUSH2 0xC5 JUMPI PUSH0 CALLDATALOAD PUSH1 0xE0 SHR DUP1 PUSH4 0xB11BB992 GT PUSH2 0x7E JUMPI DUP1 PUSH4 0xD200FF66 GT PUSH2 0x58 JUMPI DUP1 PUSH4 0xD200FF66 EQ PUSH2 0x284 JUMPI DUP1 PUSH4 0xD70DA460 EQ PUSH2 0x2AC JUMPI DUP1 PUSH4 0xE040CED6 EQ PUSH2 0x2E8 JUMPI DUP1 PUSH4 0xE31EF12C EQ PUSH2 0x324 JUMPI PUSH2 0x105 JUMP JUMPDEST DUP1 PUSH4 0xB11BB992 EQ PUSH2 0x218 JUMPI DUP1 PUSH4 0xB214FAA5 EQ PUSH2 0x240 JUMPI DUP1 PUSH4 0xB48D3BAA EQ PUSH2 0x25C JUMPI PUSH2 0x105 JUMP JUMPDEST DUP1 PUSH4 0x4277F4FD EQ PUSH2 0x109 JUMPI DUP1 PUSH4 0x587F962E EQ PUSH2 0x145 JUMPI DUP1 PUSH4 0x647B5354 EQ PUSH2 0x16D JUMPI DUP1 PUSH4 0x8DA5CB5B EQ PUSH2 0x195 JUMPI DUP1 PUSH4 0x98D71138 EQ PUSH2 0x1BF JUMPI DUP1 PUSH4 0xA0CD532D EQ PUSH2 0x1FC JUMPI PUSH2 0x105 JUMP JUMPDEST CALLDATASIZE PUSH2 0x105 JUMPI PUSH1 0x40 MLOAD PUSH32 0x8C379A000000000000000000000000000000000000000000000000000000000 DUP2 MSTORE PUSH1 0x4 ADD PUSH2 0xFC SWAP1 PUSH2 0x1D7D JUMP JUMPDEST PUSH1 0x40 MLOAD DUP1 SWAP2 SUB SWAP1 REVERT JUMPDEST PUSH0 DUP1 REVERT JUMPDEST CALLVALUE DUP1 ISZERO PUSH2 0x114 JUMPI PUSH0 DUP1 REVERT JUMPDEST POP PUSH2 0x12F PUSH1 0x4 DUP1 CALLDATASIZE SUB DUP2 ADD SWAP1 PUSH2 0x12A SWAP2 SWAP1 PUSH2 0x1DD2 JUMP JUMPDEST PUSH2 0x366 JUMP JUMPDEST PUSH1 0x40 MLOAD PUSH2 0x13C SWAP2 SWAP1 PUSH2 0x1E3C JUMP JUMPDEST PUSH1 0x40 MLOAD DUP1 SWAP2 SUB SWAP1 RETURN JUMPDEST CALLVALUE DUP1 ISZERO PUSH2 0x150 JUMPI PUSH0 DUP1 REVERT JUMPDEST POP PUSH2 0x16B PUSH1 0x4 DUP1 CALLDATASIZE SUB DUP2 ADD SWAP1 PUSH2 0x166 SWAP2 SWAP1 PUSH2 0x1DD2 JUMP JUMPDEST PUSH2 0x396 JUMP JUMPDEST STOP JUMPDEST CALLVALUE DUP1 ISZERO PUSH2 0x178 JUMPI PUSH0 DUP1 REVERT JUMPDEST POP PUSH2 0x193 PUSH1 0x4 DUP1 CALLDATASIZE SUB DUP2 ADD SWAP1 PUSH2 0x18E SWAP2 SWAP1 PUSH2 0x1DD2 JUMP JUMPDEST PUSH2 0x6D8 JUMP JUMPDEST STOP JUMPDEST CALLVALUE DUP1 ISZERO PUSH2 0x1A0 JUMPI PUSH0 DUP1 REVERT JUMPDEST POP PUSH2 0x1A9 PUSH2 0x966 JUMP JUMPDEST PUSH1 0x40 MLOAD PUSH2 0x1B6 SWAP2 SWAP1 PUSH2 0x1E3C JUMP JUMPDEST PUSH1 0x40 MLOAD DUP1 SWAP2 SUB SWAP1 RETURN JUMPDEST CALLVALUE DUP1 ISZERO PUSH2 0x1CA JUMPI PUSH0 DUP1 REVERT JUMPDEST POP PUSH2 0x1E5 PUSH1 0x4 DUP1 CALLDATASIZE SUB DUP2 ADD SWAP1 PUSH2 0x1E0 SWAP2 SWAP1 PUSH2 0x1E7F JUMP JUMPDEST PUSH2 0x98A JUMP JUMPDEST PUSH1 0x40 MLOAD PUSH2 0x1F3 SWAP3 SWAP2 SWAP1 PUSH2 0x2151 JUMP JUMPDEST PUSH1 0x40 MLOAD DUP1 SWAP2 SUB SWAP1 RETURN JUMPDEST PUSH2 0x216 PUSH1 0x4 DUP1 CALLDATASIZE SUB DUP2 ADD SWAP1 PUSH2 0x211 SWAP2 SWAP1 PUSH2 0x21B0 JUMP JUMPDEST PUSH2 0xBD8 JUMP JUMPDEST STOP JUMPDEST CALLVALUE DUP1 ISZERO PUSH2 0x223 JUMPI PUSH0 DUP1 REVERT JUMPDEST POP PUSH2 0x23E PUSH1 0x4 DUP1 CALLDATASIZE SUB DUP2 ADD SWAP1 PUSH2 0x239 SWAP2 SWAP1 PUSH2 0x1DD2 JUMP JUMPDEST PUSH2 0xEB5 JUMP JUMPDEST STOP JUMPDEST PUSH2 0x25A PUSH1 0x4 DUP1 CALLDATASIZE SUB DUP2 ADD SWAP1 PUSH2 0x255 SWAP2 SWAP1 PUSH2 0x1DD2 JUMP JUMPDEST PUSH2 0x10A9 JUMP JUMPDEST STOP JUMPDEST CALLVALUE DUP1 ISZERO PUSH2 0x267 JUMPI PUSH0 DUP1 REVERT JUMPDEST POP PUSH2 0x282 PUSH1 0x4 DUP1 CALLDATASIZE SUB DUP2 ADD SWAP1 PUSH2 0x27D SWAP2 SWAP1 PUSH2 0x2200 JUMP JUMPDEST PUSH2 0x12C2 JUMP JUMPDEST STOP JUMPDEST CALLVALUE DUP1 ISZERO PUSH2 0x28F JUMPI PUSH0 DUP1 REVERT JUMPDEST POP PUSH2 0x2AA PUSH1 0x4 DUP1 CALLDATASIZE SUB DUP2 ADD SWAP1 PUSH2 0x2A5 SWAP2 SWAP1 PUSH2 0x1DD2 JUMP JUMPDEST PUSH2 0x16C3 JUMP JUMPDEST STOP JUMPDEST CALLVALUE DUP1 ISZERO PUSH2 0x2B7 JUMPI PUSH0 DUP1 REVERT JUMPDEST POP PUSH2 0x2D2 PUSH1 0x4 DUP1 CALLDATASIZE SUB DUP2 ADD SWAP1 PUSH2 0x2CD SWAP2 SWAP1 PUSH2 0x1DD2 JUMP JUMPDEST PUSH2 0x1A82 JUMP JUMPDEST PUSH1 0x40 MLOAD PUSH2 0x2DF SWAP2 SWAP1 PUSH2 0x22E6 JUMP JUMPDEST PUSH1 0x40 MLOAD DUP1 SWAP2 SUB SWAP1 RETURN JUMPDEST CALLVALUE DUP1 ISZERO PUSH2 0x2F3 JUMPI PUSH0 DUP1 REVERT JUMPDEST POP PUSH2 0x30E PUSH1 0x4 DUP1 CALLDATASIZE SUB DUP2 ADD SWAP1 PUSH2 0x309 SWAP2 SWAP1 PUSH2 0x1E7F JUMP JUMPDEST PUSH2 0x1B1E JUMP JUMPDEST PUSH1 0x40 MLOAD PUSH2 0x31B SWAP2 SWAP1 PUSH2 0x2306 JUMP JUMPDEST PUSH1 0x40 MLOAD DUP1 SWAP2 SUB SWAP1 RETURN JUMPDEST CALLVALUE DUP1 ISZERO PUSH2 0x32F JUMPI PUSH0 DUP1 REVERT JUMPDEST POP PUSH2 0x34A PUSH1 0x4 DUP1 CALLDATASIZE SUB DUP2 ADD SWAP1 PUSH2 0x345 SWAP2 SWAP1 PUSH2 0x1DD2 JUMP JUMPDEST PUSH2 0x1BB1 JUMP JUMPDEST PUSH1 0x40 MLOAD PUSH2 0x35D SWAP8 SWAP7 SWAP6 SWAP5 SWAP4 SWAP3 SWAP2 SWAP1 PUSH2 0x2353 JUMP JUMPDEST PUSH1 0x40 MLOAD DUP1 SWAP2 SUB SWAP1 RETURN JUMPDEST PUSH1 0x3 PUSH1 0x20 MSTORE DUP1 PUSH0 MSTORE PUSH1 0x40 PUSH0 KECCAK256 PUSH0 SWAP2 POP SLOAD SWAP1 PUSH2 0x100 EXP SWAP1 DIV PUSH20 0xFFFFFFFFFFFFFFFFFFFFFFFFFFFFFFFFFFFFFFFF AND DUP2 JUMP JUMPDEST PUSH2 0x39F DUP2 PUSH2 0x1C2C JUMP JUMPDEST PUSH2 0x3E0 JUMPI DUP1 PUSH1 0x40 MLOAD PUSH32 0x7AAFA10400000000000000000000000000000000000000000000000000000000 DUP2 MSTORE PUSH1 0x4 ADD PUSH2 0x3D7 SWAP2 SWAP1 PUSH2 0x23CF JUMP JUMPDEST PUSH1 0x40 MLOAD DUP1 SWAP2 SUB SWAP1 REVERT JUMPDEST PUSH0 DUP1 PUSH0 DUP4 DUP2 MSTORE PUSH1 0x20 ADD SWAP1 DUP2 MSTORE PUSH1 0x20 ADD PUSH0 KECCAK256 SWAP1 POP DUP1 PUSH0 ADD PUSH0 SWAP1 SLOAD SWAP1 PUSH2 0x100 EXP SWAP1 DIV PUSH20 0xFFFFFFFFFFFFFFFFFFFFFFFFFFFFFFFFFFFFFFFF AND PUSH20 0xFFFFFFFFFFFFFFFFFFFFFFFFFFFFFFFFFFFFFFFF AND CALLER PUSH20 0xFFFFFFFFFFFFFFFFFFFFFFFFFFFFFFFFFFFFFFFF AND SUB PUSH2 0x485 JUMPI DUP2 PUSH1 0x40 MLOAD PUSH32 0x2517CA9500000000000000000000000000000000000000000000000000000000 DUP2 MSTORE PUSH1 0x4 ADD PUSH2 0x47C SWAP2 SWAP1 PUSH2 0x23CF JUMP JUMPDEST PUSH1 0x40 MLOAD DUP1 SWAP2 SUB SWAP1 REVERT JUMPDEST PUSH0 PUSH1 0x2 DUP2 GT ISZERO PUSH2 0x498 JUMPI PUSH2 0x497 PUSH2 0x1EFA JUMP JUMPDEST JUMPDEST DUP2 PUSH1 0x2 ADD PUSH0 SWAP1 SLOAD SWAP1 PUSH2 0x100 EXP SWAP1 DIV PUSH1 0xFF AND PUSH1 0x2 DUP2 GT ISZERO PUSH2 0x4BB JUMPI PUSH2 0x4BA PUSH2 0x1EFA JUMP JUMPDEST JUMPDEST EQ PUSH2 0x4FD JUMPI DUP2 PUSH1 0x40 MLOAD PUSH32 0x8C664A9D00000000000000000000000000000000000000000000000000000000 DUP2 MSTORE PUSH1 0x4 ADD PUSH2 0x4F4 SWAP2 SWAP1 PUSH2 0x23CF JUMP JUMPDEST PUSH1 0x40 MLOAD DUP1 SWAP2 SUB SWAP1 REVERT JUMPDEST DUP1 PUSH1 0x3 ADD SLOAD DUP2 PUSH1 0x5 ADD SLOAD LT PUSH2 0x549 JUMPI DUP2 PUSH1 0x40 MLOAD PUSH32 0x37D57D5600000000000000000000000000000000000000000000000000000000 DUP2 MSTORE PUSH1 0x4 ADD PUSH2 0x540 SWAP2 SWAP1 PUSH2 0x23CF JUMP JUMPDEST PUSH1 0x40 MLOAD DUP1 SWAP2 SUB SWAP1 REVERT JUMPDEST PUSH0 PUSH1 0x1 PUSH0 DUP5 DUP2 MSTORE PUSH1 0x20 ADD SWAP1 DUP2 MSTORE PUSH1 0x20 ADD PUSH0 KECCAK256 PUSH0 CALLER PUSH20 0xFFFFFFFFFFFFFFFFFFFFFFFFFFFFFFFFFFFFFFFF AND PUSH20 0xFFFFFFFFFFFFFFFFFFFFFFFFFFFFFFFFFFFFFFFF AND DUP2 MSTORE PUSH1 0x20 ADD SWAP1 DUP2 MSTORE PUSH1 0x20 ADD PUSH0 KECCAK256 PUSH0 SWAP1 SLOAD SWAP1 PUSH2 0x100 EXP SWAP1 DIV PUSH1 0xFF AND SWAP1 POP DUP1 ISZERO PUSH2 0x5E8 JUMPI DUP3 PUSH1 0x40 MLOAD PUSH32 0xA343935400000000000000000000000000000000000000000000000000000000 DUP2 MSTORE PUSH1 0x4 ADD PUSH2 0x5DF SWAP2 SWAP1 PUSH2 0x23CF JUMP JUMPDEST PUSH1 0x40 MLOAD DUP1 SWAP2 SUB SWAP1 REVERT JUMPDEST PUSH1 0x1 DUP1 PUSH0 DUP6 DUP2 MSTORE PUSH1 0x20 ADD SWAP1 DUP2 MSTORE PUSH1 0x20 ADD PUSH0 KECCAK256 PUSH0 CALLER PUSH20 0xFFFFFFFFFFFFFFFFFFFFFFFFFFFFFFFFFFFFFFFF AND PUSH20 0xFFFFFFFFFFFFFFFFFFFFFFFFFFFFFFFFFFFFFFFF AND DUP2 MSTORE PUSH1 0x20 ADD SWAP1 DUP2 MSTORE PUSH1 0x20 ADD PUSH0 KECCAK256 PUSH0 PUSH2 0x100 EXP DUP2 SLOAD DUP2 PUSH1 0xFF MUL NOT AND SWAP1 DUP4 ISZERO ISZERO MUL OR SWAP1 SSTORE POP DUP2 PUSH1 0x5 ADD PUSH0 DUP2 SLOAD DUP1 SWAP3 SWAP2 SWAP1 PUSH2 0x65F SWAP1 PUSH2 0x2415 JUMP JUMPDEST SWAP2 SWAP1 POP SSTORE POP PUSH1 0x2 PUSH0 DUP5 DUP2 MSTORE PUSH1 0x20 ADD SWAP1 DUP2 MSTORE PUSH1 0x20 ADD PUSH0 KECCAK256 CALLER SWAP1 DUP1 PUSH1 0x1 DUP2 SLOAD ADD DUP1 DUP3 SSTORE DUP1 SWAP2 POP POP PUSH1 0x1 SWAP1 SUB SWAP1 PUSH0 MSTORE PUSH1 0x20 PUSH0 KECCAK256 ADD PUSH0 SWAP1 SWAP2 SWAP1 SWAP2 SWAP1 SWAP2 PUSH2 0x100 EXP DUP2 SLOAD DUP2 PUSH20 0xFFFFFFFFFFFFFFFFFFFFFFFFFFFFFFFFFFFFFFFF MUL NOT AND SWAP1 DUP4 PUSH20 0xFFFFFFFFFFFFFFFFFFFFFFFFFFFFFFFFFFFFFFFF AND MUL OR SWAP1 SSTORE POP POP POP POP JUMP JUMPDEST DUP1 PUSH2 0x6E2 DUP2 PUSH2 0x1C2C JUMP JUMPDEST PUSH2 0x723 JUMPI DUP1 PUSH1 0x40 MLOAD PUSH32 0x7AAFA10400000000000000000000000000000000000000000000000000000000 DUP2 MSTORE PUSH1 0x4 ADD PUSH2 0x71A SWAP2 SWAP1 PUSH2 0x23CF JUMP JUMPDEST PUSH1 0x40 MLOAD DUP1 SWAP2 SUB SWAP1 REVERT JUMPDEST PUSH0 DUP1 DUP3 DUP2 MSTORE PUSH1 0x20 ADD SWAP1 DUP2 MSTORE PUSH1 0x20 ADD PUSH0 KECCAK256 PUSH0 ADD PUSH0 SWAP1 SLOAD SWAP1 PUSH2 0x100 EXP SWAP1 DIV PUSH20 0xFFFFFFFFFFFFFFFFFFFFFFFFFFFFFFFFFFFFFFFF AND PUSH20 0xFFFFFFFFFFFFFFFFFFFFFFFFFFFFFFFFFFFFFFFF AND CALLER PUSH20 0xFFFFFFFFFFFFFFFFFFFFFFFFFFFFFFFFFFFFFFFF AND EQ PUSH2 0x7C4 JUMPI CALLER PUSH1 0x40 MLOAD PUSH32 0xD68AFFB700000000000000000000000000000000000000000000000000000000 DUP2 MSTORE PUSH1 0x4 ADD PUSH2 0x7BB SWAP2 SWAP1 PUSH2 0x1E3C JUMP JUMPDEST PUSH1 0x40 MLOAD DUP1 SWAP2 SUB SWAP1 REVERT JUMPDEST PUSH0 DUP1 PUSH0 DUP5 DUP2 MSTORE PUSH1 0x20 ADD SWAP1 DUP2 MSTORE PUSH1 0x20 ADD PUSH0 KECCAK256 SWAP1 POP PUSH0 PUSH1 0x2 DUP2 GT ISZERO PUSH2 0x7EA JUMPI PUSH2 0x7E9 PUSH2 0x1EFA JUMP JUMPDEST JUMPDEST DUP2 PUSH1 0x2 ADD PUSH0 SWAP1 SLOAD SWAP1 PUSH2 0x100 EXP SWAP1 DIV PUSH1 0xFF AND PUSH1 0x2 DUP2 GT ISZERO PUSH2 0x80D JUMPI PUSH2 0x80C PUSH2 0x1EFA JUMP JUMPDEST JUMPDEST EQ PUSH2 0x84F JUMPI DUP3 PUSH1 0x40 MLOAD PUSH32 0x8C664A9D00000000000000000000000000000000000000000000000000000000 DUP2 MSTORE PUSH1 0x4 ADD PUSH2 0x846 SWAP2 SWAP1 PUSH2 0x23CF JUMP JUMPDEST PUSH1 0x40 MLOAD DUP1 SWAP2 SUB SWAP1 REVERT JUMPDEST PUSH0 DUP2 PUSH1 0x1 ADD SLOAD SWAP1 POP PUSH0 DUP3 PUSH1 0x1 ADD DUP2 SWAP1 SSTORE POP PUSH1 0x1 DUP3 PUSH1 0x2 ADD PUSH0 PUSH2 0x100 EXP DUP2 SLOAD DUP2 PUSH1 0xFF MUL NOT AND SWAP1 DUP4 PUSH1 0x2 DUP2 GT ISZERO PUSH2 0x887 JUMPI PUSH2 0x886 PUSH2 0x1EFA JUMP JUMPDEST JUMPDEST MUL OR SWAP1 SSTORE POP PUSH0 DUP2 GT ISZERO PUSH2 0x960 JUMPI PUSH0 DUP3 PUSH0 ADD PUSH0 SWAP1 SLOAD SWAP1 PUSH2 0x100 EXP SWAP1 DIV PUSH20 0xFFFFFFFFFFFFFFFFFFFFFFFFFFFFFFFFFFFFFFFF AND PUSH20 0xFFFFFFFFFFFFFFFFFFFFFFFFFFFFFFFFFFFFFFFF AND DUP3 PUSH1 0x40 MLOAD PUSH2 0x8DB SWAP1 PUSH2 0x2489 JUMP JUMPDEST PUSH0 PUSH1 0x40 MLOAD DUP1 DUP4 SUB DUP2 DUP6 DUP8 GAS CALL SWAP3 POP POP POP RETURNDATASIZE DUP1 PUSH0 DUP2 EQ PUSH2 0x915 JUMPI PUSH1 0x40 MLOAD SWAP2 POP PUSH1 0x1F NOT PUSH1 0x3F RETURNDATASIZE ADD AND DUP3 ADD PUSH1 0x40 MSTORE RETURNDATASIZE DUP3 MSTORE RETURNDATASIZE PUSH0 PUSH1 0x20 DUP5 ADD RETURNDATACOPY PUSH2 0x91A JUMP JUMPDEST PUSH1 0x60 SWAP2 POP JUMPDEST POP POP SWAP1 POP DUP1 PUSH2 0x95E JUMPI PUSH1 0x40 MLOAD PUSH32 0x8C379A000000000000000000000000000000000000000000000000000000000 DUP2 MSTORE PUSH1 0x4 ADD PUSH2 0x955 SWAP1 PUSH2 0x24E7 JUMP JUMPDEST PUSH1 0x40 MLOAD DUP1 SWAP2 SUB SWAP1 REVERT JUMPDEST POP JUMPDEST POP POP POP POP JUMP JUMPDEST PUSH32 0x0 DUP2 JUMP JUMPDEST PUSH1 0x60 DUP1 PUSH0 PUSH1 0x4 PUSH0 DUP6 PUSH20 0xFFFFFFFFFFFFFFFFFFFFFFFFFFFFFFFFFFFFFFFF AND PUSH20 0xFFFFFFFFFFFFFFFFFFFFFFFFFFFFFFFFFFFFFFFF AND DUP2 MSTORE PUSH1 0x20 ADD SWAP1 DUP2 MSTORE PUSH1 0x20 ADD PUSH0 KECCAK256 DUP1 SLOAD DUP1 PUSH1 0x20 MUL PUSH1 0x20 ADD PUSH1 0x40 MLOAD SWAP1 DUP2 ADD PUSH1 0x40 MSTORE DUP1 SWAP3 SWAP2 SWAP1 DUP2 DUP2 MSTORE PUSH1 0x20 ADD DUP3 DUP1 SLOAD DUP1 ISZERO PUSH2 0xA13 JUMPI PUSH1 0x20 MUL DUP3 ADD SWAP2 SWAP1 PUSH0 MSTORE PUSH1 0x20 PUSH0 KECCAK256 SWAP1 JUMPDEST DUP2 SLOAD DUP2 MSTORE PUSH1 0x20 ADD SWAP1 PUSH1 0x1 ADD SWAP1 DUP1 DUP4 GT PUSH2 0x9FF JUMPI JUMPDEST POP POP POP POP POP SWAP1 POP PUSH0 DUP2 MLOAD PUSH8 0xFFFFFFFFFFFFFFFF DUP2 GT ISZERO PUSH2 0xA36 JUMPI PUSH2 0xA35 PUSH2 0x2505 JUMP JUMPDEST JUMPDEST PUSH1 0x40 MLOAD SWAP1 DUP1 DUP3 MSTORE DUP1 PUSH1 0x20 MUL PUSH1 0x20 ADD DUP3 ADD PUSH1 0x40 MSTORE DUP1 ISZERO PUSH2 0xA6F JUMPI DUP2 PUSH1 0x20 ADD JUMPDEST PUSH2 0xA5C PUSH2 0x1C95 JUMP JUMPDEST DUP2 MSTORE PUSH1 0x20 ADD SWAP1 PUSH1 0x1 SWAP1 SUB SWAP1 DUP2 PUSH2 0xA54 JUMPI SWAP1 POP JUMPDEST POP SWAP1 POP PUSH0 JUMPDEST DUP3 MLOAD DUP2 LT ISZERO PUSH2 0xBCA JUMPI PUSH0 DUP1 DUP5 DUP4 DUP2 MLOAD DUP2 LT PUSH2 0xA92 JUMPI PUSH2 0xA91 PUSH2 0x2532 JUMP JUMPDEST JUMPDEST PUSH1 0x20 MUL PUSH1 0x20 ADD ADD MLOAD DUP2 MSTORE PUSH1 0x20 ADD SWAP1 DUP2 MSTORE PUSH1 0x20 ADD PUSH0 KECCAK256 PUSH1 0x40 MLOAD DUP1 PUSH1 0xE0 ADD PUSH1 0x40 MSTORE SWAP1 DUP2 PUSH0 DUP3 ADD PUSH0 SWAP1 SLOAD SWAP1 PUSH2 0x100 EXP SWAP1 DIV PUSH20 0xFFFFFFFFFFFFFFFFFFFFFFFFFFFFFFFFFFFFFFFF AND PUSH20 0xFFFFFFFFFFFFFFFFFFFFFFFFFFFFFFFFFFFFFFFF AND PUSH20 0xFFFFFFFFFFFFFFFFFFFFFFFFFFFFFFFFFFFFFFFF AND DUP2 MSTORE PUSH1 0x20 ADD PUSH1 0x1 DUP3 ADD SLOAD DUP2 MSTORE PUSH1 0x20 ADD PUSH1 0x2 DUP3 ADD PUSH0 SWAP1 SLOAD SWAP1 PUSH2 0x100 EXP SWAP1 DIV PUSH1 0xFF AND PUSH1 0x2 DUP2 GT ISZERO PUSH2 0xB34 JUMPI PUSH2 0xB33 PUSH2 0x1EFA JUMP JUMPDEST JUMPDEST PUSH1 0x2 DUP2 GT ISZERO PUSH2 0xB46 JUMPI PUSH2 0xB45 PUSH2 0x1EFA JUMP JUMPDEST JUMPDEST DUP2 MSTORE PUSH1 0x20 ADD PUSH1 0x3 DUP3 ADD SLOAD DUP2 MSTORE PUSH1 0x20 ADD PUSH1 0x4 DUP3 ADD SLOAD DUP2 MSTORE PUSH1 0x20 ADD PUSH1 0x5 DUP3 ADD SLOAD DUP2 MSTORE PUSH1 0x20 ADD PUSH1 0x6 DUP3 ADD PUSH0 SWAP1 SLOAD SWAP1 PUSH2 0x100 EXP SWAP1 DIV PUSH8 0xFFFFFFFFFFFFFFFF AND PUSH8 0xFFFFFFFFFFFFFFFF AND PUSH8 0xFFFFFFFFFFFFFFFF AND DUP2 MSTORE POP POP DUP3 DUP3 DUP2 MLOAD DUP2 LT PUSH2 0xBAC JUMPI PUSH2 0xBAB PUSH2 0x2532 JUMP JUMPDEST JUMPDEST PUSH1 0x20 MUL PUSH1 0x20 ADD ADD DUP2 SWAP1 MSTORE POP DUP1 DUP1 PUSH2 0xBC2 SWAP1 PUSH2 0x2415 JUMP JUMPDEST SWAP2 POP POP PUSH2 0xA74 JUMP JUMPDEST POP DUP1 DUP3 SWAP4 POP SWAP4 POP POP POP SWAP2 POP SWAP2 JUMP JUMPDEST PUSH0 CALLVALUE SUB PUSH2 0xC11 JUMPI PUSH1 0x40 MLOAD PUSH32 0x600F7BF400000000000000000000000000000000000000000000000000000000 DUP2 MSTORE PUSH1 0x4 ADD PUSH1 0x40 MLOAD DUP1 SWAP2 SUB SWAP1 REVERT JUMPDEST DUP3 DUP3 LT ISZERO PUSH2 0xC4B JUMPI PUSH1 0x40 MLOAD PUSH32 0xB3B6029C00000000000000000000000000000000000000000000000000000000 DUP2 MSTORE PUSH1 0x4 ADD PUSH1 0x40 MLOAD DUP1 SWAP2 SUB SWAP1 REVERT JUMPDEST PUSH0 DUP4 LT ISZERO PUSH2 0xC85 JUMPI PUSH1 0x40 MLOAD PUSH32 0x530A986700000000000000000000000000000000000000000000000000000000 DUP2 MSTORE PUSH1 0x4 ADD PUSH1 0x40 MLOAD DUP1 SWAP2 SUB SWAP1 REVERT JUMPDEST PUSH0 PUSH1 0x20 PUSH1 0xFF AND LT ISZERO PUSH2 0xCC3 JUMPI PUSH1 0x40 MLOAD PUSH32 0x166CBDBE00000000000000000000000000000000000000000000000000000000 DUP2 MSTORE PUSH1 0x4 ADD PUSH1 0x40 MLOAD DUP1 SWAP2 SUB SWAP1 REVERT JUMPDEST PUSH2 0xCCC DUP2 PUSH2 0x1C2C JUMP JUMPDEST ISZERO PUSH2 0xD0E JUMPI DUP1 PUSH1 0x40 MLOAD PUSH32 0x4FEC90C500000000000000000000000000000000000000000000000000000000 DUP2 MSTORE PUSH1 0x4 ADD PUSH2 0xD05 SWAP2 SWAP1 PUSH2 0x23CF JUMP JUMPDEST PUSH1 0x40 MLOAD DUP1 SWAP2 SUB SWAP1 REVERT JUMPDEST PUSH1 0x40 MLOAD DUP1 PUSH1 0xE0 ADD PUSH1 0x40 MSTORE DUP1 CALLER PUSH20 0xFFFFFFFFFFFFFFFFFFFFFFFFFFFFFFFFFFFFFFFF AND DUP2 MSTORE PUSH1 0x20 ADD CALLVALUE DUP2 MSTORE PUSH1 0x20 ADD PUSH0 PUSH1 0x2 DUP2 GT ISZERO PUSH2 0xD4E JUMPI PUSH2 0xD4D PUSH2 0x1EFA JUMP JUMPDEST JUMPDEST DUP2 MSTORE PUSH1 0x20 ADD DUP4 DUP2 MSTORE PUSH1 0x20 ADD DUP5 DUP2 MSTORE PUSH1 0x20 ADD PUSH0 DUP2 MSTORE PUSH1 0x20 ADD TIMESTAMP PUSH8 0xFFFFFFFFFFFFFFFF AND DUP2 MSTORE POP PUSH0 DUP1 DUP4 DUP2 MSTORE PUSH1 0x20 ADD SWAP1 DUP2 MSTORE PUSH1 0x20 ADD PUSH0 KECCAK256 PUSH0 DUP3 ADD MLOAD DUP2 PUSH0 ADD PUSH0 PUSH2 0x100 EXP DUP2 SLOAD DUP2 PUSH20 0xFFFFFFFFFFFFFFFFFFFFFFFFFFFFFFFFFFFFFFFF MUL NOT AND SWAP1 DUP4 PUSH20 0xFFFFFFFFFFFFFFFFFFFFFFFFFFFFFFFFFFFFFFFF AND MUL OR SWAP1 SSTORE POP PUSH1 0x20 DUP3 ADD MLOAD DUP2 PUSH1 0x1 ADD SSTORE PUSH1 0x40 DUP3 ADD MLOAD DUP2 PUSH1 0x2 ADD PUSH0 PUSH2 0x100 EXP DUP2 SLOAD DUP2 PUSH1 0xFF MUL NOT AND SWAP1 DUP4 PUSH1 0x2 DUP2 GT ISZERO PUSH2 0xDFB JUMPI PUSH2 0xDFA PUSH2 0x1EFA JUMP JUMPDEST JUMPDEST MUL OR SWAP1 SSTORE POP PUSH1 0x60 DUP3 ADD MLOAD DUP2 PUSH1 0x3 ADD SSTORE PUSH1 0x80 DUP3 ADD MLOAD DUP2 PUSH1 0x4 ADD SSTORE PUSH1 0xA0 DUP3 ADD MLOAD DUP2 PUSH1 0x5 ADD SSTORE PUSH1 0xC0 DUP3 ADD MLOAD DUP2 PUSH1 0x6 ADD PUSH0 PUSH2 0x100 EXP DUP2 SLOAD DUP2 PUSH8 0xFFFFFFFFFFFFFFFF MUL NOT AND SWAP1 DUP4 PUSH8 0xFFFFFFFFFFFFFFFF AND MUL OR SWAP1 SSTORE POP SWAP1 POP POP PUSH1 0x4 PUSH0 CALLER PUSH20 0xFFFFFFFFFFFFFFFFFFFFFFFFFFFFFFFFFFFFFFFF AND PUSH20 0xFFFFFFFFFFFFFFFFFFFFFFFFFFFFFFFFFFFFFFFF AND DUP2 MSTORE PUSH1 0x20 ADD SWAP1 DUP2 MSTORE PUSH1 0x20 ADD PUSH0 KECCAK256 DUP2 SWAP1 DUP1 PUSH1 0x1 DUP2 SLOAD ADD DUP1 DUP3 SSTORE DUP1 SWAP2 POP POP PUSH1 0x1 SWAP1 SUB SWAP1 PUSH0 MSTORE PUSH1 0x20 PUSH0 KECCAK256 ADD PUSH0 SWAP1 SWAP2 SWAP1 SWAP2 SWAP1 SWAP2 POP SSTORE POP POP POP JUMP JUMPDEST DUP1 PUSH2 0xEBF DUP2 PUSH2 0x1C2C JUMP JUMPDEST PUSH2 0xF00 JUMPI DUP1 PUSH1 0x40 MLOAD PUSH32 0x7AAFA10400000000000000000000000000000000000000000000000000000000 DUP2 MSTORE PUSH1 0x4 ADD PUSH2 0xEF7 SWAP2 SWAP1 PUSH2 0x23CF JUMP JUMPDEST PUSH1 0x40 MLOAD DUP1 SWAP2 SUB SWAP1 REVERT JUMPDEST PUSH0 DUP1 DUP3 DUP2 MSTORE PUSH1 0x20 ADD SWAP1 DUP2 MSTORE PUSH1 0x20 ADD PUSH0 KECCAK256 PUSH0 ADD PUSH0 SWAP1 SLOAD SWAP1 PUSH2 0x100 EXP SWAP1 DIV PUSH20 0xFFFFFFFFFFFFFFFFFFFFFFFFFFFFFFFFFFFFFFFF AND PUSH20 0xFFFFFFFFFFFFFFFFFFFFFFFFFFFFFFFFFFFFFFFF AND CALLER PUSH20 0xFFFFFFFFFFFFFFFFFFFFFFFFFFFFFFFFFFFFFFFF AND EQ PUSH2 0xFA1 JUMPI CALLER PUSH1 0x40 MLOAD PUSH32 0xD68AFFB700000000000000000000000000000000000000000000000000000000 DUP2 MSTORE PUSH1 0x4 ADD PUSH2 0xF98 SWAP2 SWAP1 PUSH2 0x1E3C JUMP JUMPDEST PUSH1 0x40 MLOAD DUP1 SWAP2 SUB SWAP1 REVERT JUMPDEST PUSH0 DUP1 PUSH0 DUP5 DUP2 MSTORE PUSH1 0x20 ADD SWAP1 DUP2 MSTORE PUSH1 0x20 ADD PUSH0 KECCAK256 SWAP1 POP PUSH0 PUSH1 0x2 DUP2 GT ISZERO PUSH2 0xFC7 JUMPI PUSH2 0xFC6 PUSH2 0x1EFA JUMP JUMPDEST JUMPDEST DUP2 PUSH1 0x2 ADD PUSH0 SWAP1 SLOAD SWAP1 PUSH2 0x100 EXP SWAP1 DIV PUSH1 0xFF AND PUSH1 0x2 DUP2 GT ISZERO PUSH2 0xFEA JUMPI PUSH2 0xFE9 PUSH2 0x1EFA JUMP JUMPDEST JUMPDEST EQ PUSH2 0x102C JUMPI DUP3 PUSH1 0x40 MLOAD PUSH32 0x8C664A9D00000000000000000000000000000000000000000000000000000000 DUP2 MSTORE PUSH1 0x4 ADD PUSH2 0x1023 SWAP2 SWAP1 PUSH2 0x23CF JUMP JUMPDEST PUSH1 0x40 MLOAD DUP1 SWAP2 SUB SWAP1 REVERT JUMPDEST DUP1 PUSH1 0x4 ADD SLOAD DUP2 PUSH1 0x5 ADD SLOAD GT PUSH2 0x1078 JUMPI DUP3 PUSH1 0x40 MLOAD PUSH32 0x2CF3C5C700000000000000000000000000000000000000000000000000000000 DUP2 MSTORE PUSH1 0x4 ADD PUSH2 0x106F SWAP2 SWAP1 PUSH2 0x23CF JUMP JUMPDEST PUSH1 0x40 MLOAD DUP1 SWAP2 SUB SWAP1 REVERT JUMPDEST PUSH1 0x2 DUP2 PUSH1 0x2 ADD PUSH0 PUSH2 0x100 EXP DUP2 SLOAD DUP2 PUSH1 0xFF MUL NOT AND SWAP1 DUP4 PUSH1 0x2 DUP2 GT ISZERO PUSH2 0x109F JUMPI PUSH2 0x109E PUSH2 0x1EFA JUMP JUMPDEST JUMPDEST MUL OR SWAP1 SSTORE POP POP POP POP JUMP JUMPDEST DUP1 PUSH2 0x10B3 DUP2 PUSH2 0x1C2C JUMP JUMPDEST PUSH2 0x10F4 JUMPI DUP1 PUSH1 0x40 MLOAD PUSH32 0x7AAFA10400000000000000000000000000000000000000000000000000000000 DUP2 MSTORE PUSH1 0x4 ADD PUSH2 0x10EB SWAP2 SWAP1 PUSH2 0x23CF JUMP JUMPDEST PUSH1 0x40 MLOAD DUP1 SWAP2 SUB SWAP1 REVERT JUMPDEST PUSH0 DUP1 DUP3 DUP2 MSTORE PUSH1 0x20 ADD SWAP1 DUP2 MSTORE PUSH1 0x20 ADD PUSH0 KECCAK256 PUSH0 ADD PUSH0 SWAP1 SLOAD SWAP1 PUSH2 0x100 EXP SWAP1 DIV PUSH20 0xFFFFFFFFFFFFFFFFFFFFFFFFFFFFFFFFFFFFFFFF AND PUSH20 0xFFFFFFFFFFFFFFFFFFFFFFFFFFFFFFFFFFFFFFFF AND CALLER PUSH20 0xFFFFFFFFFFFFFFFFFFFFFFFFFFFFFFFFFFFFFFFF AND EQ PUSH2 0x1195 JUMPI CALLER PUSH1 0x40 MLOAD PUSH32 0xD68AFFB700000000000000000000000000000000000000000000000000000000 DUP2 MSTORE PUSH1 0x4 ADD PUSH2 0x118C SWAP2 SWAP1 PUSH2 0x1E3C JUMP JUMPDEST PUSH1 0x40 MLOAD DUP1 SWAP2 SUB SWAP1 REVERT JUMPDEST PUSH2 0x119E DUP3 PUSH2 0x1C2C JUMP JUMPDEST PUSH2 0x11DF JUMPI DUP2 PUSH1 0x40 MLOAD PUSH32 0x7AAFA10400000000000000000000000000000000000000000000000000000000 DUP2 MSTORE PUSH1 0x4 ADD PUSH2 0x11D6 SWAP2 SWAP1 PUSH2 0x23CF JUMP JUMPDEST PUSH1 0x40 MLOAD DUP1 SWAP2 SUB SWAP1 REVERT JUMPDEST PUSH0 DUP1 PUSH0 DUP5 DUP2 MSTORE PUSH1 0x20 ADD SWAP1 DUP2 MSTORE PUSH1 0x20 ADD PUSH0 KECCAK256 SWAP1 POP PUSH0 PUSH1 0x2 DUP2 GT ISZERO PUSH2 0x1205 JUMPI PUSH2 0x1204 PUSH2 0x1EFA JUMP JUMPDEST JUMPDEST DUP2 PUSH1 0x2 ADD PUSH0 SWAP1 SLOAD SWAP1 PUSH2 0x100 EXP SWAP1 DIV PUSH1 0xFF AND PUSH1 0x2 DUP2 GT ISZERO PUSH2 0x1228 JUMPI PUSH2 0x1227 PUSH2 0x1EFA JUMP JUMPDEST JUMPDEST EQ PUSH2 0x126A JUMPI DUP3 PUSH1 0x40 MLOAD PUSH32 0x8C664A9D00000000000000000000000000000000000000000000000000000000 DUP2 MSTORE PUSH1 0x4 ADD PUSH2 0x1261 SWAP2 SWAP1 PUSH2 0x23CF JUMP JUMPDEST PUSH1 0x40 MLOAD DUP1 SWAP2 SUB SWAP1 REVERT JUMPDEST PUSH0 CALLVALUE SUB PUSH2 0x12A3 JUMPI PUSH1 0x40 MLOAD PUSH32 0x600F7BF400000000000000000000000000000000000000000000000000000000 DUP2 MSTORE PUSH1 0x4 ADD PUSH1 0x40 MLOAD DUP1 SWAP2 SUB SWAP1 REVERT JUMPDEST CALLVALUE DUP2 PUSH1 0x1 ADD PUSH0 DUP3 DUP3 SLOAD PUSH2 0x12B6 SWAP2 SWAP1 PUSH2 0x255F JUMP JUMPDEST SWAP3 POP POP DUP2 SWAP1 SSTORE POP POP POP POP JUMP JUMPDEST DUP2 PUSH2 0x12CC DUP2 PUSH2 0x1C2C JUMP JUMPDEST PUSH2 0x130D JUMPI DUP1 PUSH1 0x40 MLOAD PUSH32 0x7AAFA10400000000000000000000000000000000000000000000000000000000 DUP2 MSTORE PUSH1 0x4 ADD PUSH2 0x1304 SWAP2 SWAP1 PUSH2 0x23CF JUMP JUMPDEST PUSH1 0x40 MLOAD DUP1 SWAP2 SUB SWAP1 REVERT JUMPDEST PUSH0 DUP1 DUP3 DUP2 MSTORE PUSH1 0x20 ADD SWAP1 DUP2 MSTORE PUSH1 0x20 ADD PUSH0 KECCAK256 PUSH0 ADD PUSH0 SWAP1 SLOAD SWAP1 PUSH2 0x100 EXP SWAP1 DIV PUSH20 0xFFFFFFFFFFFFFFFFFFFFFFFFFFFFFFFFFFFFFFFF AND PUSH20 0xFFFFFFFFFFFFFFFFFFFFFFFFFFFFFFFFFFFFFFFF AND CALLER PUSH20 0xFFFFFFFFFFFFFFFFFFFFFFFFFFFFFFFFFFFFFFFF AND EQ PUSH2 0x13AE JUMPI CALLER PUSH1 0x40 MLOAD PUSH32 0xD68AFFB700000000000000000000000000000000000000000000000000000000 DUP2 MSTORE PUSH1 0x4 ADD PUSH2 0x13A5 SWAP2 SWAP1 PUSH2 0x1E3C JUMP JUMPDEST PUSH1 0x40 MLOAD DUP1 SWAP2 SUB SWAP1 REVERT JUMPDEST PUSH0 DUP1 PUSH0 DUP6 DUP2 MSTORE PUSH1 0x20 ADD SWAP1 DUP2 MSTORE PUSH1 0x20 ADD PUSH0 KECCAK256 SWAP1 POP PUSH1 0x2 DUP1 DUP2 GT ISZERO PUSH2 0x13D4 JUMPI PUSH2 0x13D3 PUSH2 0x1EFA JUMP JUMPDEST JUMPDEST DUP2 PUSH1 0x2 ADD PUSH0 SWAP1 SLOAD SWAP1 PUSH2 0x100 EXP SWAP1 DIV PUSH1 0xFF AND PUSH1 0x2 DUP2 GT ISZERO PUSH2 0x13F7 JUMPI PUSH2 0x13F6 PUSH2 0x1EFA JUMP JUMPDEST JUMPDEST EQ PUSH2 0x1439 JUMPI DUP4 PUSH1 0x40 MLOAD PUSH32 0xD1DBAF5500000000000000000000000000000000000000000000000000000000 DUP2 MSTORE PUSH1 0x4 ADD PUSH2 0x1430 SWAP2 SWAP1 PUSH2 0x23CF JUMP JUMPDEST PUSH1 0x40 MLOAD DUP1 SWAP2 SUB SWAP1 REVERT JUMPDEST PUSH0 PUSH20 0xFFFFFFFFFFFFFFFFFFFFFFFFFFFFFFFFFFFFFFFF AND DUP4 PUSH20 0xFFFFFFFFFFFFFFFFFFFFFFFFFFFFFFFFFFFFFFFF AND SUB PUSH2 0x14A9 JUMPI DUP4 PUSH1 0x40 MLOAD PUSH32 0xFE23EA1F00000000000000000000000000000000000000000000000000000000 DUP2 MSTORE PUSH1 0x4 ADD PUSH2 0x14A0 SWAP2 SWAP1 PUSH2 0x23CF JUMP JUMPDEST PUSH1 0x40 MLOAD DUP1 SWAP2 SUB SWAP1 REVERT JUMPDEST PUSH1 0x1 PUSH0 DUP6 DUP2 MSTORE PUSH1 0x20 ADD SWAP1 DUP2 MSTORE PUSH1 0x20 ADD PUSH0 KECCAK256 PUSH0 DUP5 PUSH20 0xFFFFFFFFFFFFFFFFFFFFFFFFFFFFFFFFFFFFFFFF AND PUSH20 0xFFFFFFFFFFFFFFFFFFFFFFFFFFFFFFFFFFFFFFFF AND DUP2 MSTORE PUSH1 0x20 ADD SWAP1 DUP2 MSTORE PUSH1 0x20 ADD PUSH0 KECCAK256 PUSH0 SWAP1 SLOAD SWAP1 PUSH2 0x100 EXP SWAP1 DIV PUSH1 0xFF AND PUSH2 0x1545 JUMPI DUP4 DUP4 PUSH1 0x40 MLOAD PUSH32 0xE66163EB00000000000000000000000000000000000000000000000000000000 DUP2 MSTORE PUSH1 0x4 ADD PUSH2 0x153C SWAP3 SWAP2 SWAP1 PUSH2 0x2592 JUMP JUMPDEST PUSH1 0x40 MLOAD DUP1 SWAP2 SUB SWAP1 REVERT JUMPDEST PUSH0 DUP2 PUSH1 0x1 ADD SLOAD SWAP1 POP PUSH0 DUP2 GT PUSH2 0x158F JUMPI PUSH1 0x40 MLOAD PUSH32 0x8C379A000000000000000000000000000000000000000000000000000000000 DUP2 MSTORE PUSH1 0x4 ADD PUSH2 0x1586 SWAP1 PUSH2 0x2603 JUMP JUMPDEST PUSH1 0x40 MLOAD DUP1 SWAP2 SUB SWAP1 REVERT JUMPDEST DUP4 PUSH1 0x3 PUSH0 DUP8 DUP2 MSTORE PUSH1 0x20 ADD SWAP1 DUP2 MSTORE PUSH1 0x20 ADD PUSH0 KECCAK256 PUSH0 PUSH2 0x100 EXP DUP2 SLOAD DUP2 PUSH20 0xFFFFFFFFFFFFFFFFFFFFFFFFFFFFFFFFFFFFFFFF MUL NOT AND SWAP1 DUP4 PUSH20 0xFFFFFFFFFFFFFFFFFFFFFFFFFFFFFFFFFFFFFFFF AND MUL OR SWAP1 SSTORE POP PUSH1 0x1 DUP3 PUSH1 0x2 ADD PUSH0 PUSH2 0x100 EXP DUP2 SLOAD DUP2 PUSH1 0xFF MUL NOT AND SWAP1 DUP4 PUSH1 0x2 DUP2 GT ISZERO PUSH2 0x1605 JUMPI PUSH2 0x1604 PUSH2 0x1EFA JUMP JUMPDEST JUMPDEST MUL OR SWAP1 SSTORE POP PUSH0 DUP3 PUSH1 0x1 ADD DUP2 SWAP1 SSTORE POP PUSH0 DUP5 PUSH20 0xFFFFFFFFFFFFFFFFFFFFFFFFFFFFFFFFFFFFFFFF AND DUP3 PUSH1 0x40 MLOAD PUSH2 0x1638 SWAP1 PUSH2 0x2489 JUMP JUMPDEST PUSH0 PUSH1 0x40 MLOAD DUP1 DUP4 SUB DUP2 DUP6 DUP8 GAS CALL SWAP3 POP POP POP RETURNDATASIZE DUP1 PUSH0 DUP2 EQ PUSH2 0x1672 JUMPI PUSH1 0x40 MLOAD SWAP2 POP PUSH1 0x1F NOT PUSH1 0x3F RETURNDATASIZE ADD AND DUP3 ADD PUSH1 0x40 MSTORE RETURNDATASIZE DUP3 MSTORE RETURNDATASIZE PUSH0 PUSH1 0x20 DUP5 ADD RETURNDATACOPY PUSH2 0x1677 JUMP JUMPDEST PUSH1 0x60 SWAP2 POP JUMPDEST POP POP SWAP1 POP DUP1 PUSH2 0x16BB JUMPI PUSH1 0x40 MLOAD PUSH32 0x8C379A000000000000000000000000000000000000000000000000000000000 DUP2 MSTORE PUSH1 0x4 ADD PUSH2 0x16B2 SWAP1 PUSH2 0x266B JUMP JUMPDEST PUSH1 0x40 MLOAD DUP1 SWAP2 SUB SWAP1 REVERT JUMPDEST POP POP POP POP POP POP JUMP JUMPDEST PUSH2 0x16CC DUP2 PUSH2 0x1C2C JUMP JUMPDEST PUSH2 0x170D JUMPI DUP1 PUSH1 0x40 MLOAD PUSH32 0x7AAFA10400000000000000000000000000000000000000000000000000000000 DUP2 MSTORE PUSH1 0x4 ADD PUSH2 0x1704 SWAP2 SWAP1 PUSH2 0x23CF JUMP JUMPDEST PUSH1 0x40 MLOAD DUP1 SWAP2 SUB SWAP1 REVERT JUMPDEST PUSH0 DUP1 PUSH0 DUP4 DUP2 MSTORE PUSH1 0x20 ADD SWAP1 DUP2 MSTORE PUSH1 0x20 ADD PUSH0 KECCAK256 SWAP1 POP PUSH0 PUSH1 0x2 DUP2 GT ISZERO PUSH2 0x1733 JUMPI PUSH2 0x1732 PUSH2 0x1EFA JUMP JUMPDEST JUMPDEST DUP2 PUSH1 0x2 ADD PUSH0 SWAP1 SLOAD SWAP1 PUSH2 0x100 EXP SWAP1 DIV PUSH1 0xFF AND PUSH1 0x2 DUP2 GT ISZERO PUSH2 0x1756 JUMPI PUSH2 0x1755 PUSH2 0x1EFA JUMP JUMPDEST JUMPDEST EQ PUSH2 0x1798 JUMPI DUP2 PUSH1 0x40 MLOAD PUSH32 0x8C664A9D00000000000000000000000000000000000000000000000000000000 DUP2 MSTORE PUSH1 0x4 ADD PUSH2 0x178F SWAP2 SWAP1 PUSH2 0x23CF JUMP JUMPDEST PUSH1 0x40 MLOAD DUP1 SWAP2 SUB SWAP1 REVERT JUMPDEST PUSH0 PUSH1 0x1 PUSH0 DUP5 DUP2 MSTORE PUSH1 0x20 ADD SWAP1 DUP2 MSTORE PUSH1 0x20 ADD PUSH0 KECCAK256 PUSH0 CALLER PUSH20 0xFFFFFFFFFFFFFFFFFFFFFFFFFFFFFFFFFFFFFFFF AND PUSH20 0xFFFFFFFFFFFFFFFFFFFFFFFFFFFFFFFFFFFFFFFF AND DUP2 MSTORE PUSH1 0x20 ADD SWAP1 DUP2 MSTORE PUSH1 0x20 ADD PUSH0 KECCAK256 PUSH0 SWAP1 SLOAD SWAP1 PUSH2 0x100 EXP SWAP1 DIV PUSH1 0xFF AND SWAP1 POP DUP1 PUSH2 0x1836 JUMPI DUP3 PUSH1 0x40 MLOAD PUSH32 0xD7648AF00000000000000000000000000000000000000000000000000000000 DUP2 MSTORE PUSH1 0x4 ADD PUSH2 0x182D SWAP2 SWAP1 PUSH2 0x23CF JUMP JUMPDEST PUSH1 0x40 MLOAD DUP1 SWAP2 SUB SWAP1 REVERT JUMPDEST DUP2 PUSH1 0x5 ADD PUSH0 DUP2 SLOAD DUP1 SWAP3 SWAP2 SWAP1 PUSH2 0x184A SWAP1 PUSH2 0x2689 JUMP JUMPDEST SWAP2 SWAP1 POP SSTORE POP PUSH0 PUSH1 0x1 PUSH0 DUP6 DUP2 MSTORE PUSH1 0x20 ADD SWAP1 DUP2 MSTORE PUSH1 0x20 ADD PUSH0 KECCAK256 PUSH0 CALLER PUSH20 0xFFFFFFFFFFFFFFFFFFFFFFFFFFFFFFFFFFFFFFFF AND PUSH20 0xFFFFFFFFFFFFFFFFFFFFFFFFFFFFFFFFFFFFFFFF AND DUP2 MSTORE PUSH1 0x20 ADD SWAP1 DUP2 MSTORE PUSH1 0x20 ADD PUSH0 KECCAK256 PUSH0 PUSH2 0x100 EXP DUP2 SLOAD DUP2 PUSH1 0xFF MUL NOT AND SWAP1 DUP4 ISZERO ISZERO MUL OR SWAP1 SSTORE POP PUSH0 PUSH1 0x2 PUSH0 DUP6 DUP2 MSTORE PUSH1 0x20 ADD SWAP1 DUP2 MSTORE PUSH1 0x20 ADD PUSH0 KECCAK256 DUP1 SLOAD SWAP1 POP SWAP1 POP PUSH0 JUMPDEST DUP2 DUP2 LT ISZERO PUSH2 0x1A7B JUMPI CALLER PUSH20 0xFFFFFFFFFFFFFFFFFFFFFFFFFFFFFFFFFFFFFFFF AND PUSH1 0x2 PUSH0 DUP8 DUP2 MSTORE PUSH1 0x20 ADD SWAP1 DUP2 MSTORE PUSH1 0x20 ADD PUSH0 KECCAK256 DUP3 DUP2 SLOAD DUP2 LT PUSH2 0x190E JUMPI PUSH2 0x190D PUSH2 0x2532 JUMP JUMPDEST JUMPDEST SWAP1 PUSH0 MSTORE PUSH1 0x20 PUSH0 KECCAK256 ADD PUSH0 SWAP1 SLOAD SWAP1 PUSH2 0x100 EXP SWAP1 DIV PUSH20 0xFFFFFFFFFFFFFFFFFFFFFFFFFFFFFFFFFFFFFFFF AND PUSH20 0xFFFFFFFFFFFFFFFFFFFFFFFFFFFFFFFFFFFFFFFF AND SUB PUSH2 0x1A68 JUMPI PUSH1 0x2 PUSH0 DUP7 DUP2 MSTORE PUSH1 0x20 ADD SWAP1 DUP2 MSTORE PUSH1 0x20 ADD PUSH0 KECCAK256 PUSH1 0x1 DUP4 PUSH2 0x196F SWAP2 SWAP1 PUSH2 0x26B0 JUMP JUMPDEST DUP2 SLOAD DUP2 LT PUSH2 0x1980 JUMPI PUSH2 0x197F PUSH2 0x2532 JUMP JUMPDEST JUMPDEST SWAP1 PUSH0 MSTORE PUSH1 0x20 PUSH0 KECCAK256 ADD PUSH0 SWAP1 SLOAD SWAP1 PUSH2 0x100 EXP SWAP1 DIV PUSH20 0xFFFFFFFFFFFFFFFFFFFFFFFFFFFFFFFFFFFFFFFF AND PUSH1 0x2 PUSH0 DUP8 DUP2 MSTORE PUSH1 0x20 ADD SWAP1 DUP2 MSTORE PUSH1 0x20 ADD PUSH0 KECCAK256 DUP3 DUP2 SLOAD DUP2 LT PUSH2 0x19CB JUMPI PUSH2 0x19CA PUSH2 0x2532 JUMP JUMPDEST JUMPDEST SWAP1 PUSH0 MSTORE PUSH1 0x20 PUSH0 KECCAK256 ADD PUSH0 PUSH2 0x100 EXP DUP2 SLOAD DUP2 PUSH20 0xFFFFFFFFFFFFFFFFFFFFFFFFFFFFFFFFFFFFFFFF MUL NOT AND SWAP1 DUP4 PUSH20 0xFFFFFFFFFFFFFFFFFFFFFFFFFFFFFFFFFFFFFFFF AND MUL OR SWAP1 SSTORE POP PUSH1 0x2 PUSH0 DUP7 DUP2 MSTORE PUSH1 0x20 ADD SWAP1 DUP2 MSTORE PUSH1 0x20 ADD PUSH0 KECCAK256 DUP1 SLOAD DUP1 PUSH2 0x1A31 JUMPI PUSH2 0x1A30 PUSH2 0x26E3 JUMP JUMPDEST JUMPDEST PUSH1 0x1 SWAP1 SUB DUP2 DUP2 SWAP1 PUSH0 MSTORE PUSH1 0x20 PUSH0 KECCAK256 ADD PUSH0 PUSH2 0x100 EXP DUP2 SLOAD SWAP1 PUSH20 0xFFFFFFFFFFFFFFFFFFFFFFFFFFFFFFFFFFFFFFFF MUL NOT AND SWAP1 SSTORE SWAP1 SSTORE PUSH2 0x1A7B JUMP JUMPDEST DUP1 DUP1 PUSH2 0x1A73 SWAP1 PUSH2 0x2415 JUMP JUMPDEST SWAP2 POP POP PUSH2 0x18CC JUMP JUMPDEST POP POP POP POP POP JUMP JUMPDEST PUSH1 0x60 PUSH1 0x2 PUSH0 DUP4 DUP2 MSTORE PUSH1 0x20 ADD SWAP1 DUP2 MSTORE PUSH1 0x20 ADD PUSH0 KECCAK256 DUP1 SLOAD DUP1 PUSH1 0x20 MUL PUSH1 0x20 ADD PUSH1 0x40 MLOAD SWAP1 DUP2 ADD PUSH1 0x40 MSTORE DUP1 SWAP3 SWAP2 SWAP1 DUP2 DUP2 MSTORE PUSH1 0x20 ADD DUP3 DUP1 SLOAD DUP1 ISZERO PUSH2 0x1B12 JUMPI PUSH1 0x20 MUL DUP3 ADD SWAP2 SWAP1 PUSH0 MSTORE PUSH1 0x20 PUSH0 KECCAK256 SWAP1 JUMPDEST DUP2 PUSH0 SWAP1 SLOAD SWAP1 PUSH2 0x100 EXP SWAP1 DIV PUSH20 0xFFFFFFFFFFFFFFFFFFFFFFFFFFFFFFFFFFFFFFFF AND PUSH20 0xFFFFFFFFFFFFFFFFFFFFFFFFFFFFFFFFFFFFFFFF AND DUP2 MSTORE PUSH1 0x20 ADD SWAP1 PUSH1 0x1 ADD SWAP1 DUP1 DUP4 GT PUSH2 0x1AC9 JUMPI JUMPDEST POP POP POP POP POP SWAP1 POP SWAP2 SWAP1 POP JUMP JUMPDEST PUSH1 0x60 PUSH1 0x4 PUSH0 DUP4 PUSH20 0xFFFFFFFFFFFFFFFFFFFFFFFFFFFFFFFFFFFFFFFF AND PUSH20 0xFFFFFFFFFFFFFFFFFFFFFFFFFFFFFFFFFFFFFFFF AND DUP2 MSTORE PUSH1 0x20 ADD SWAP1 DUP2 MSTORE PUSH1 0x20 ADD PUSH0 KECCAK256 DUP1 SLOAD DUP1 PUSH1 0x20 MUL PUSH1 0x20 ADD PUSH1 0x40 MLOAD SWAP1 DUP2 ADD PUSH1 0x40 MSTORE DUP1 SWAP3 SWAP2 SWAP1 DUP2 DUP2 MSTORE PUSH1 0x20 ADD DUP3 DUP1 SLOAD DUP1 ISZERO PUSH2 0x1BA5 JUMPI PUSH1 0x20 MUL DUP3 ADD SWAP2 SWAP1 PUSH0 MSTORE PUSH1 0x20 PUSH0 KECCAK256 SWAP1 JUMPDEST DUP2 SLOAD DUP2 MSTORE PUSH1 0x20 ADD SWAP1 PUSH1 0x1 ADD SWAP1 DUP1 DUP4 GT PUSH2 0x1B91 JUMPI JUMPDEST POP POP POP POP POP SWAP1 POP SWAP2 SWAP1 POP JUMP JUMPDEST PUSH0 PUSH1 0x20 MSTORE DUP1 PUSH0 MSTORE PUSH1 0x40 PUSH0 KECCAK256 PUSH0 SWAP2 POP SWAP1 POP DUP1 PUSH0 ADD PUSH0 SWAP1 SLOAD SWAP1 PUSH2 0x100 EXP SWAP1 DIV PUSH20 0xFFFFFFFFFFFFFFFFFFFFFFFFFFFFFFFFFFFFFFFF AND SWAP1 DUP1 PUSH1 0x1 ADD SLOAD SWAP1 DUP1 PUSH1 0x2 ADD PUSH0 SWAP1 SLOAD SWAP1 PUSH2 0x100 EXP SWAP1 DIV PUSH1 0xFF AND SWAP1 DUP1 PUSH1 0x3 ADD SLOAD SWAP1 DUP1 PUSH1 0x4 ADD SLOAD SWAP1 DUP1 PUSH1 0x5 ADD SLOAD SWAP1 DUP1 PUSH1 0x6 ADD PUSH0 SWAP1 SLOAD SWAP1 PUSH2 0x100 EXP SWAP1 DIV PUSH8 0xFFFFFFFFFFFFFFFF AND SWAP1 POP DUP8 JUMP JUMPDEST PUSH0 DUP1 PUSH20 0xFFFFFFFFFFFFFFFFFFFFFFFFFFFFFFFFFFFFFFFF AND PUSH0 DUP1 DUP5 DUP2 MSTORE PUSH1 0x20 ADD SWAP1 DUP2 MSTORE PUSH1 0x20 ADD PUSH0 KECCAK256 PUSH0 ADD PUSH0 SWAP1 SLOAD SWAP1 PUSH2 0x100 EXP SWAP1 DIV PUSH20 0xFFFFFFFFFFFFFFFFFFFFFFFFFFFFFFFFFFFFFFFF AND PUSH20 0xFFFFFFFFFFFFFFFFFFFFFFFFFFFFFFFFFFFFFFFF AND EQ ISZERO SWAP1 POP SWAP2 SWAP1 POP JUMP JUMPDEST PUSH1 0x40 MLOAD DUP1 PUSH1 0xE0 ADD PUSH1 0x40 MSTORE DUP1 PUSH0 PUSH20 0xFFFFFFFFFFFFFFFFFFFFFFFFFFFFFFFFFFFFFFFF AND DUP2 MSTORE PUSH1 0x20 ADD PUSH0 DUP2 MSTORE PUSH1 0x20 ADD PUSH0 PUSH1 0x2 DUP2 GT ISZERO PUSH2 0x1CD5 JUMPI PUSH2 0x1CD4 PUSH2 0x1EFA JUMP JUMPDEST JUMPDEST DUP2 MSTORE PUSH1 0x20 ADD PUSH0 DUP2 MSTORE PUSH1 0x20 ADD PUSH0 DUP2 MSTORE PUSH1 0x20 ADD PUSH0 DUP2 MSTORE PUSH1 0x20 ADD PUSH0 PUSH8 0xFFFFFFFFFFFFFFFF AND DUP2 MSTORE POP SWAP1 JUMP JUMPDEST PUSH0 DUP3 DUP3 MSTORE PUSH1 0x20 DUP3 ADD SWAP1 POP SWAP3 SWAP2 POP POP JUMP JUMPDEST PUSH32 0x75736520637265617465526166666C652F6465706F736974207769746820636F PUSH0 DUP3 ADD MSTORE PUSH32 0x6465000000000000000000000000000000000000000000000000000000000000 PUSH1 0x20 DUP3 ADD MSTORE POP JUMP JUMPDEST PUSH0 PUSH2 0x1D67 PUSH1 0x22 DUP4 PUSH2 0x1CFD JUMP JUMPDEST SWAP2 POP PUSH2 0x1D72 DUP3 PUSH2 0x1D0D JUMP JUMPDEST PUSH1 0x40 DUP3 ADD SWAP1 POP SWAP2 SWAP1 POP JUMP JUMPDEST PUSH0 PUSH1 0x20 DUP3 ADD SWAP1 POP DUP2 DUP2 SUB PUSH0 DUP4 ADD MSTORE PUSH2 0x1D94 DUP2 PUSH2 0x1D5B JUMP JUMPDEST SWAP1 POP SWAP2 SWAP1 POP JUMP JUMPDEST PUSH0 DUP1 REVERT JUMPDEST PUSH0 DUP2 SWAP1 POP SWAP2 SWAP1 POP JUMP JUMPDEST PUSH2 0x1DB1 DUP2 PUSH2 0x1D9F JUMP JUMPDEST DUP2 EQ PUSH2 0x1DBB JUMPI PUSH0 DUP1 REVERT JUMPDEST POP JUMP JUMPDEST PUSH0 DUP2 CALLDATALOAD SWAP1 POP PUSH2 0x1DCC DUP2 PUSH2 0x1DA8 JUMP JUMPDEST SWAP3 SWAP2 POP POP JUMP JUMPDEST PUSH0 PUSH1 0x20 DUP3 DUP5 SUB SLT ISZERO PUSH2 0x1DE7 JUMPI PUSH2 0x1DE6 PUSH2 0x1D9B JUMP JUMPDEST JUMPDEST PUSH0 PUSH2 0x1DF4 DUP5 DUP3 DUP6 ADD PUSH2 0x1DBE JUMP JUMPDEST SWAP2 POP POP SWAP3 SWAP2 POP POP JUMP JUMPDEST PUSH0 PUSH20 0xFFFFFFFFFFFFFFFFFFFFFFFFFFFFFFFFFFFFFFFF DUP3 AND SWAP1 POP SWAP2 SWAP1 POP JUMP JUMPDEST PUSH0 PUSH2 0x1E26 DUP3 PUSH2 0x1DFD JUMP JUMPDEST SWAP1 POP SWAP2 SWAP1 POP JUMP JUMPDEST PUSH2 0x1E36 DUP2 PUSH2 0x1E1C JUMP JUMPDEST DUP3 MSTORE POP POP JUMP JUMPDEST PUSH0 PUSH1 0x20 DUP3 ADD SWAP1 POP PUSH2 0x1E4F PUSH0 DUP4 ADD DUP5 PUSH2 0x1E2D JUMP JUMPDEST SWAP3 SWAP2 POP POP JUMP JUMPDEST PUSH2 0x1E5E DUP2 PUSH2 0x1E1C JUMP JUMPDEST DUP2 EQ PUSH2 0x1E68 JUMPI PUSH0 DUP1 REVERT JUMPDEST POP JUMP JUMPDEST PUSH0 DUP2 CALLDATALOAD SWAP1 POP PUSH2 0x1E79 DUP2 PUSH2 0x1E55 JUMP JUMPDEST SWAP3 SWAP2 POP POP JUMP JUMPDEST PUSH0 PUSH1 0x20 DUP3 DUP5 SUB SLT ISZERO PUSH2 0x1E94 JUMPI PUSH2 0x1E93 PUSH2 0x1D9B JUMP JUMPDEST JUMPDEST PUSH0 PUSH2 0x1EA1 DUP5 DUP3 DUP6 ADD PUSH2 0x1E6B JUMP JUMPDEST SWAP2 POP POP SWAP3 SWAP2 POP POP JUMP JUMPDEST PUSH0 DUP2 MLOAD SWAP1 POP SWAP2 SWAP1 POP JUMP JUMPDEST PUSH0 DUP3 DUP3 MSTORE PUSH1 0x20 DUP3 ADD SWAP1 POP SWAP3 SWAP2 POP POP JUMP JUMPDEST PUSH0 DUP2 SWAP1 POP PUSH1 0x20 DUP3 ADD SWAP1 POP SWAP2 SWAP1 POP JUMP JUMPDEST PUSH2 0x1EDC DUP2 PUSH2 0x1E1C JUMP JUMPDEST DUP3 MSTORE POP POP JUMP JUMPDEST PUSH0 DUP2 SWAP1 POP SWAP2 SWAP1 POP JUMP JUMPDEST PUSH2 0x1EF4 DUP2 PUSH2 0x1EE2 JUMP JUMPDEST DUP3 MSTORE POP POP JUMP JUMPDEST PUSH32 0x4E487B7100000000000000000000000000000000000000000000000000000000 PUSH0 MSTORE PUSH1 0x21 PUSH1 0x4 MSTORE PUSH1 0x24 PUSH0 REVERT JUMPDEST PUSH1 0x3 DUP2 LT PUSH2 0x1F38 JUMPI PUSH2 0x1F37 PUSH2 0x1EFA JUMP JUMPDEST JUMPDEST POP JUMP JUMPDEST PUSH0 DUP2 SWAP1 POP PUSH2 0x1F48 DUP3 PUSH2 0x1F27 JUMP JUMPDEST SWAP2 SWAP1 POP JUMP JUMPDEST PUSH0 PUSH2 0x1F57 DUP3 PUSH2 0x1F3B JUMP JUMPDEST SWAP1 POP SWAP2 SWAP1 POP JUMP JUMPDEST PUSH2 0x1F67 DUP2 PUSH2 0x1F4D JUMP JUMPDEST DUP3 MSTORE POP POP JUMP JUMPDEST PUSH0 PUSH8 0xFFFFFFFFFFFFFFFF DUP3 AND SWAP1 POP SWAP2 SWAP1 POP JUMP JUMPDEST PUSH2 0x1F89 DUP2 PUSH2 0x1F6D JUMP JUMPDEST DUP3 MSTORE POP POP JUMP JUMPDEST PUSH1 0xE0 DUP3 ADD PUSH0 DUP3 ADD MLOAD PUSH2 0x1FA3 PUSH0 DUP6 ADD DUP3 PUSH2 0x1ED3 JUMP JUMPDEST POP PUSH1 0x20 DUP3 ADD MLOAD PUSH2 0x1FB6 PUSH1 0x20 DUP6 ADD DUP3 PUSH2 0x1EEB JUMP JUMPDEST POP PUSH1 0x40 DUP3 ADD MLOAD PUSH2 0x1FC9 PUSH1 0x40 DUP6 ADD DUP3 PUSH2 0x1F5E JUMP JUMPDEST POP PUSH1 0x60 DUP3 ADD MLOAD PUSH2 0x1FDC PUSH1 0x60 DUP6 ADD DUP3 PUSH2 0x1EEB JUMP JUMPDEST POP PUSH1 0x80 DUP3 ADD MLOAD PUSH2 0x1FEF PUSH1 0x80 DUP6 ADD DUP3 PUSH2 0x1EEB JUMP JUMPDEST POP PUSH1 0xA0 DUP3 ADD MLOAD PUSH2 0x2002 PUSH1 0xA0 DUP6 ADD DUP3 PUSH2 0x1EEB JUMP JUMPDEST POP PUSH1 0xC0 DUP3 ADD MLOAD PUSH2 0x2015 PUSH1 0xC0 DUP6 ADD DUP3 PUSH2 0x1F80 JUMP JUMPDEST POP POP POP POP JUMP JUMPDEST PUSH0 PUSH2 0x2026 DUP4 DUP4 PUSH2 0x1F8F JUMP JUMPDEST PUSH1 0xE0 DUP4 ADD SWAP1 POP SWAP3 SWAP2 POP POP JUMP JUMPDEST PUSH0 PUSH1 0x20 DUP3 ADD SWAP1 POP SWAP2 SWAP1 POP JUMP JUMPDEST PUSH0 PUSH2 0x2048 DUP3 PUSH2 0x1EAA JUMP JUMPDEST PUSH2 0x2052 DUP2 DUP6 PUSH2 0x1EB4 JUMP JUMPDEST SWAP4 POP PUSH2 0x205D DUP4 PUSH2 0x1EC4 JUMP JUMPDEST DUP1 PUSH0 JUMPDEST DUP4 DUP2 LT ISZERO PUSH2 0x208D JUMPI DUP2 MLOAD PUSH2 0x2074 DUP9 DUP3 PUSH2 0x201B JUMP JUMPDEST SWAP8 POP PUSH2 0x207F DUP4 PUSH2 0x2032 JUMP JUMPDEST SWAP3 POP POP PUSH1 0x1 DUP2 ADD SWAP1 POP PUSH2 0x2060 JUMP JUMPDEST POP DUP6 SWAP4 POP POP POP POP SWAP3 SWAP2 POP POP JUMP JUMPDEST PUSH0 DUP2 MLOAD SWAP1 POP SWAP2 SWAP1 POP JUMP JUMPDEST PUSH0 DUP3 DUP3 MSTORE PUSH1 0x20 DUP3 ADD SWAP1 POP SWAP3 SWAP2 POP POP JUMP JUMPDEST PUSH0 DUP2 SWAP1 POP PUSH1 0x20 DUP3 ADD SWAP1 POP SWAP2 SWAP1 POP JUMP JUMPDEST PUSH2 0x20CC DUP2 PUSH2 0x1D9F JUMP JUMPDEST DUP3 MSTORE POP POP JUMP JUMPDEST PUSH0 PUSH2 0x20DD DUP4 DUP4 PUSH2 0x20C3 JUMP JUMPDEST PUSH1 0x20 DUP4 ADD SWAP1 POP SWAP3 SWAP2 POP POP JUMP JUMPDEST PUSH0 PUSH1 0x20 DUP3 ADD SWAP1 POP SWAP2 SWAP1 POP JUMP JUMPDEST PUSH0 PUSH2 0x20FF DUP3 PUSH2 0x209A JUMP JUMPDEST PUSH2 0x2109 DUP2 DUP6 PUSH2 0x20A4 JUMP JUMPDEST SWAP4 POP PUSH2 0x2114 DUP4 PUSH2 0x20B4 JUMP JUMPDEST DUP1 PUSH0 JUMPDEST DUP4 DUP2 LT ISZERO PUSH2 0x2144 JUMPI DUP2 MLOAD PUSH2 0x212B DUP9 DUP3 PUSH2 0x20D2 JUMP JUMPDEST SWAP8 POP PUSH2 0x2136 DUP4 PUSH2 0x20E9 JUMP JUMPDEST SWAP3 POP POP PUSH1 0x1 DUP2 ADD SWAP1 POP PUSH2 0x2117 JUMP JUMPDEST POP DUP6 SWAP4 POP POP POP POP SWAP3 SWAP2 POP POP JUMP JUMPDEST PUSH0 PUSH1 0x40 DUP3 ADD SWAP1 POP DUP2 DUP2 SUB PUSH0 DUP4 ADD MSTORE PUSH2 0x2169 DUP2 DUP6 PUSH2 0x203E JUMP JUMPDEST SWAP1 POP DUP2 DUP2 SUB PUSH1 0x20 DUP4 ADD MSTORE PUSH2 0x217D DUP2 DUP5 PUSH2 0x20F5 JUMP JUMPDEST SWAP1 POP SWAP4 SWAP3 POP POP POP JUMP JUMPDEST PUSH2 0x218F DUP2 PUSH2 0x1EE2 JUMP JUMPDEST DUP2 EQ PUSH2 0x2199 JUMPI PUSH0 DUP1 REVERT JUMPDEST POP JUMP JUMPDEST PUSH0 DUP2 CALLDATALOAD SWAP1 POP PUSH2 0x21AA DUP2 PUSH2 0x2186 JUMP JUMPDEST SWAP3 SWAP2 POP POP JUMP JUMPDEST PUSH0 DUP1 PUSH0 PUSH1 0x60 DUP5 DUP7 SUB SLT ISZERO PUSH2 0x21C7 JUMPI PUSH2 0x21C6 PUSH2 0x1D9B JUMP JUMPDEST JUMPDEST PUSH0 PUSH2 0x21D4 DUP7 DUP3 DUP8 ADD PUSH2 0x219C JUMP JUMPDEST SWAP4 POP POP PUSH1 0x20 PUSH2 0x21E5 DUP7 DUP3 DUP8 ADD PUSH2 0x219C JUMP JUMPDEST SWAP3 POP POP PUSH1 0x40 PUSH2 0x21F6 DUP7 DUP3 DUP8 ADD PUSH2 0x1DBE JUMP JUMPDEST SWAP2 POP POP SWAP3 POP SWAP3 POP SWAP3 JUMP JUMPDEST PUSH0 DUP1 PUSH1 0x40 DUP4 DUP6 SUB SLT ISZERO PUSH2 0x2216 JUMPI PUSH2 0x2215 PUSH2 0x1D9B JUMP JUMPDEST JUMPDEST PUSH0 PUSH2 0x2223 DUP6 DUP3 DUP7 ADD PUSH2 0x1DBE JUMP JUMPDEST SWAP3 POP POP PUSH1 0x20 PUSH2 0x2234 DUP6 DUP3 DUP7 ADD PUSH2 0x1E6B JUMP JUMPDEST SWAP2 POP POP SWAP3 POP SWAP3 SWAP1 POP JUMP JUMPDEST PUSH0 DUP2 MLOAD SWAP1 POP SWAP2 SWAP1 POP JUMP JUMPDEST PUSH0 DUP3 DUP3 MSTORE PUSH1 0x20 DUP3 ADD SWAP1 POP SWAP3 SWAP2 POP POP JUMP JUMPDEST PUSH0 DUP2 SWAP1 POP PUSH1 0x20 DUP3 ADD SWAP1 POP SWAP2 SWAP1 POP JUMP JUMPDEST PUSH0 PUSH2 0x2272 DUP4 DUP4 PUSH2 0x1ED3 JUMP JUMPDEST PUSH1 0x20 DUP4 ADD SWAP1 POP SWAP3 SWAP2 POP POP JUMP JUMPDEST PUSH0 PUSH1 0x20 DUP3 ADD SWAP1 POP SWAP2 SWAP1 POP JUMP JUMPDEST PUSH0 PUSH2 0x2294 DUP3 PUSH2 0x223E JUMP JUMPDEST PUSH2 0x229E DUP2 DUP6 PUSH2 0x2248 JUMP JUMPDEST SWAP4 POP PUSH2 0x22A9 DUP4 PUSH2 0x2258 JUMP JUMPDEST DUP1 PUSH0 JUMPDEST DUP4 DUP2 LT ISZERO PUSH2 0x22D9 JUMPI DUP2 MLOAD PUSH2 0x22C0 DUP9 DUP3 PUSH2 0x2267 JUMP JUMPDEST SWAP8 POP PUSH2 0x22CB DUP4 PUSH2 0x227E JUMP JUMPDEST SWAP3 POP POP PUSH1 0x1 DUP2 ADD SWAP1 POP PUSH2 0x22AC JUMP JUMPDEST POP DUP6 SWAP4 POP POP POP POP SWAP3 SWAP2 POP POP JUMP JUMPDEST PUSH0 PUSH1 0x20 DUP3 ADD SWAP1 POP DUP2 DUP2 SUB PUSH0 DUP4 ADD MSTORE PUSH2 0x22FE DUP2 DUP5 PUSH2 0x228A JUMP JUMPDEST SWAP1 POP SWAP3 SWAP2 POP POP JUMP JUMPDEST PUSH0 PUSH1 0x20 DUP3 ADD SWAP1 POP DUP2 DUP2 SUB PUSH0 DUP4 ADD MSTORE PUSH2 0x231E DUP2 DUP5 PUSH2 0x20F5 JUMP JUMPDEST SWAP1 POP SWAP3 SWAP2 POP POP JUMP JUMPDEST PUSH2 0x232F DUP2 PUSH2 0x1EE2 JUMP JUMPDEST DUP3 MSTORE POP POP JUMP JUMPDEST PUSH2 0x233E DUP2 PUSH2 0x1F4D JUMP JUMPDEST DUP3 MSTORE POP POP JUMP JUMPDEST PUSH2 0x234D DUP2 PUSH2 0x1F6D JUMP JUMPDEST DUP3 MSTORE POP POP JUMP JUMPDEST PUSH0 PUSH1 0xE0 DUP3 ADD SWAP1 POP PUSH2 0x2366 PUSH0 DUP4 ADD DUP11 PUSH2 0x1E2D JUMP JUMPDEST PUSH2 0x2373 PUSH1 0x20 DUP4 ADD DUP10 PUSH2 0x2326 JUMP JUMPDEST PUSH2 0x2380 PUSH1 0x40 DUP4 ADD DUP9 PUSH2 0x2335 JUMP JUMPDEST PUSH2 0x238D PUSH1 0x60 DUP4 ADD DUP8 PUSH2 0x2326 JUMP JUMPDEST PUSH2 0x239A PUSH1 0x80 DUP4 ADD DUP7 PUSH2 0x2326 JUMP JUMPDEST PUSH2 0x23A7 PUSH1 0xA0 DUP4 ADD DUP6 PUSH2 0x2326 JUMP JUMPDEST PUSH2 0x23B4 PUSH1 0xC0 DUP4 ADD DUP5 PUSH2 0x2344 JUMP JUMPDEST SWAP9 SWAP8 POP POP POP POP POP POP POP POP JUMP JUMPDEST PUSH2 0x23C9 DUP2 PUSH2 0x1D9F JUMP JUMPDEST DUP3 MSTORE POP POP JUMP JUMPDEST PUSH0 PUSH1 0x20 DUP3 ADD SWAP1 POP PUSH2 0x23E2 PUSH0 DUP4 ADD DUP5 PUSH2 0x23C0 JUMP JUMPDEST SWAP3 SWAP2 POP POP JUMP JUMPDEST PUSH32 0x4E487B7100000000000000000000000000000000000000000000000000000000 PUSH0 MSTORE PUSH1 0x11 PUSH1 0x4 MSTORE PUSH1 0x24 PUSH0 REVERT JUMPDEST PUSH0 PUSH2 0x241F DUP3 PUSH2 0x1EE2 JUMP JUMPDEST SWAP2 POP PUSH32 0xFFFFFFFFFFFFFFFFFFFFFFFFFFFFFFFFFFFFFFFFFFFFFFFFFFFFFFFFFFFFFFFF DUP3 SUB PUSH2 0x2451 JUMPI PUSH2 0x2450 PUSH2 0x23E8 JUMP JUMPDEST JUMPDEST PUSH1 0x1 DUP3 ADD SWAP1 POP SWAP2 SWAP1 POP JUMP JUMPDEST PUSH0 DUP2 SWAP1 POP SWAP3 SWAP2 POP POP JUMP JUMPDEST POP JUMP JUMPDEST PUSH0 PUSH2 0x2474 PUSH0 DUP4 PUSH2 0x245C JUMP JUMPDEST SWAP2 POP PUSH2 0x247F DUP3 PUSH2 0x2466 JUMP JUMPDEST PUSH0 DUP3 ADD SWAP1 POP SWAP2 SWAP1 POP JUMP JUMPDEST PUSH0 PUSH2 0x2493 DUP3 PUSH2 0x2469 JUMP JUMPDEST SWAP2 POP DUP2 SWAP1 POP SWAP2 SWAP1 POP JUMP JUMPDEST PUSH32 0x526566756E64206661696C757265000000000000000000000000000000000000 PUSH0 DUP3 ADD MSTORE POP JUMP JUMPDEST PUSH0 PUSH2 0x24D1 PUSH1 0xE DUP4 PUSH2 0x1CFD JUMP JUMPDEST SWAP2 POP PUSH2 0x24DC DUP3 PUSH2 0x249D JUMP JUMPDEST PUSH1 0x20 DUP3 ADD SWAP1 POP SWAP2 SWAP1 POP JUMP JUMPDEST PUSH0 PUSH1 0x20 DUP3 ADD SWAP1 POP DUP2 DUP2 SUB PUSH0 DUP4 ADD MSTORE PUSH2 0x24FE DUP2 PUSH2 0x24C5 JUMP JUMPDEST SWAP1 POP SWAP2 SWAP1 POP JUMP JUMPDEST PUSH32 0x4E487B7100000000000000000000000000000000000000000000000000000000 PUSH0 MSTORE PUSH1 0x41 PUSH1 0x4 MSTORE PUSH1 0x24 PUSH0 REVERT JUMPDEST PUSH32 0x4E487B7100000000000000000000000000000000000000000000000000000000 PUSH0 MSTORE PUSH1 0x32 PUSH1 0x4 MSTORE PUSH1 0x24 PUSH0 REVERT JUMPDEST PUSH0 PUSH2 0x2569 DUP3 PUSH2 0x1EE2 JUMP JUMPDEST SWAP2 POP PUSH2 0x2574 DUP4 PUSH2 0x1EE2 JUMP JUMPDEST SWAP3 POP DUP3 DUP3 ADD SWAP1 POP DUP1 DUP3 GT ISZERO PUSH2 0x258C JUMPI PUSH2 0x258B PUSH2 0x23E8 JUMP JUMPDEST JUMPDEST SWAP3 SWAP2 POP POP JUMP JUMPDEST PUSH0 PUSH1 0x40 DUP3 ADD SWAP1 POP PUSH2 0x25A5 PUSH0 DUP4 ADD DUP6 PUSH2 0x23C0 JUMP JUMPDEST PUSH2 0x25B2 PUSH1 0x20 DUP4 ADD DUP5 PUSH2 0x1E2D JUMP JUMPDEST SWAP4 SWAP3 POP POP POP JUMP JUMPDEST PUSH32 0x4E6F207072697A652062616C616E636500000000000000000000000000000000 PUSH0 DUP3 ADD MSTORE POP JUMP JUMPDEST PUSH0 PUSH2 0x25ED PUSH1 0x10 DUP4 PUSH2 0x1CFD JUMP JUMPDEST SWAP2 POP PUSH2 0x25F8 DUP3 PUSH2 0x25B9 JUMP JUMPDEST PUSH1 0x20 DUP3 ADD SWAP1 POP SWAP2 SWAP1 POP JUMP JUMPDEST PUSH0 PUSH1 0x20 DUP3 ADD SWAP1 POP DUP2 DUP2 SUB PUSH0 DUP4 ADD MSTORE PUSH2 0x261A DUP2 PUSH2 0x25E1 JUMP JUMPDEST SWAP1 POP SWAP2 SWAP1 POP JUMP JUMPDEST PUSH32 0x57696E6E6572207061796F7574206661696C7572650000000000000000000000 PUSH0 DUP3 ADD MSTORE POP JUMP JUMPDEST PUSH0 PUSH2 0x2655 PUSH1 0x15 DUP4 PUSH2 0x1CFD JUMP JUMPDEST SWAP2 POP PUSH2 0x2660 DUP3 PUSH2 0x2621 JUMP JUMPDEST PUSH1 0x20 DUP3 ADD SWAP1 POP SWAP2 SWAP1 POP JUMP JUMPDEST PUSH0 PUSH1 0x20 DUP3 ADD SWAP1 POP DUP2 DUP2 SUB PUSH0 DUP4 ADD MSTORE PUSH2 0x2682 DUP2 PUSH2 0x2649 JUMP JUMPDEST SWAP1 POP SWAP2 SWAP1 POP JUMP JUMPDEST PUSH0 PUSH2 0x2693 DUP3 PUSH2 0x1EE2 JUMP JUMPDEST SWAP2 POP PUSH0 DUP3 SUB PUSH2 0x26A5 JUMPI PUSH2 0x26A4 PUSH2 0x23E8 JUMP JUMPDEST JUMPDEST PUSH1 0x1 DUP3 SUB SWAP1 POP SWAP2 SWAP1 POP JUMP JUMPDEST PUSH0 PUSH2 0x26BA DUP3 PUSH2 0x1EE2 JUMP JUMPDEST SWAP2 POP PUSH2 0x26C5 DUP4 PUSH2 0x1EE2 JUMP JUMPDEST SWAP3 POP DUP3 DUP3 SUB SWAP1 POP DUP2 DUP2 GT ISZERO PUSH2 0x26DD JUMPI PUSH2 0x26DC PUSH2 0x23E8 JUMP JUMPDEST JUMPDEST SWAP3 SWAP2 POP POP JUMP JUMPDEST PUSH32 0x4E487B7100000000000000000000000000000000000000000000000000000000 PUSH0 MSTORE PUSH1 0x31 PUSH1 0x4 MSTORE PUSH1 0x24 PUSH0 REVERT INVALID LOG2 PUSH5 0x6970667358 0x22 SLT KECCAK256 0xA6 0xE9 0x1F 0xAB 0xA7 PUSH18 0xEEBA91BD37A54CFC8CA59007BC6427931FE3 0xD1 0x22 0x49 0xEA 0xD CREATE2 STATICCALL OR PUSH5 0x736F6C6343 STOP ADDMOD EQ STOP CALLER "
				},
				"gasEstimates": {
					"creation": {
						"codeDepositCost": "2010800",
						"executionCost": "infinite",
						"totalCost": "infinite"
					},
					"external": {
						"closeRaffle(bytes32)": "infinite",
						"createRaffle(uint256,uint256,bytes32)": "infinite",
						"deposit(bytes32)": "infinite",
						"getUserRaffleCodes(address)": "infinite",
						"getUserRaffles(address)": "infinite",
						"joinRaffle(bytes32)": "infinite",
						"leaveRaffle(bytes32)": "infinite",
						"owner()": "infinite",
						"raffleParticipants(bytes32)": "infinite",
						"raffles(bytes32)": "infinite",
						"startRaffle(bytes32)": "infinite",
						"winnerSelected(bytes32,address)": "infinite",
						"winners(bytes32)": "2828"
					},
					"internal": {
						"_isRaffleExist(bytes32)": "2270"
					}
				},
				"methodIdentifiers": {
					"closeRaffle(bytes32)": "647b5354",
					"createRaffle(uint256,uint256,bytes32)": "a0cd532d",
					"deposit(bytes32)": "b214faa5",
					"getUserRaffleCodes(address)": "e040ced6",
					"getUserRaffles(address)": "98d71138",
					"joinRaffle(bytes32)": "587f962e",
					"leaveRaffle(bytes32)": "d200ff66",
					"owner()": "8da5cb5b",
					"raffleParticipants(bytes32)": "d70da460",
					"raffles(bytes32)": "e31ef12c",
					"startRaffle(bytes32)": "b11bb992",
					"winnerSelected(bytes32,address)": "b48d3baa",
					"winners(bytes32)": "4277f4fd"
				}
			},
			"storageLayout": {
				"storage": [
					{
						"astId": 50,
						"contract": "contracts/Pickr.sol:Pickr",
						"label": "raffles",
						"offset": 0,
						"slot": "0",
						"type": "t_mapping(t_bytes32,t_struct(Raffle)758_storage)"
					},
					{
						"astId": 56,
						"contract": "contracts/Pickr.sol:Pickr",
						"label": "hasJoined",
						"offset": 0,
						"slot": "1",
						"type": "t_mapping(t_bytes32,t_mapping(t_address,t_bool))"
					},
					{
						"astId": 61,
						"contract": "contracts/Pickr.sol:Pickr",
						"label": "participants",
						"offset": 0,
						"slot": "2",
						"type": "t_mapping(t_bytes32,t_array(t_address)dyn_storage)"
					},
					{
						"astId": 65,
						"contract": "contracts/Pickr.sol:Pickr",
						"label": "winners",
						"offset": 0,
						"slot": "3",
						"type": "t_mapping(t_bytes32,t_address)"
					},
					{
						"astId": 70,
						"contract": "contracts/Pickr.sol:Pickr",
						"label": "raffleCodesByCreator",
						"offset": 0,
						"slot": "4",
						"type": "t_mapping(t_address,t_array(t_bytes32)dyn_storage)"
					}
				],
				"types": {
					"t_address": {
						"encoding": "inplace",
						"label": "address",
						"numberOfBytes": "20"
					},
					"t_array(t_address)dyn_storage": {
						"base": "t_address",
						"encoding": "dynamic_array",
						"label": "address[]",
						"numberOfBytes": "32"
					},
					"t_array(t_bytes32)dyn_storage": {
						"base": "t_bytes32",
						"encoding": "dynamic_array",
						"label": "bytes32[]",
						"numberOfBytes": "32"
					},
					"t_bool": {
						"encoding": "inplace",
						"label": "bool",
						"numberOfBytes": "1"
					},
					"t_bytes32": {
						"encoding": "inplace",
						"label": "bytes32",
						"numberOfBytes": "32"
					},
					"t_enum(RaffleStatus)742": {
						"encoding": "inplace",
						"label": "enum IPickr.RaffleStatus",
						"numberOfBytes": "1"
					},
					"t_mapping(t_address,t_array(t_bytes32)dyn_storage)": {
						"encoding": "mapping",
						"key": "t_address",
						"label": "mapping(address => bytes32[])",
						"numberOfBytes": "32",
						"value": "t_array(t_bytes32)dyn_storage"
					},
					"t_mapping(t_address,t_bool)": {
						"encoding": "mapping",
						"key": "t_address",
						"label": "mapping(address => bool)",
						"numberOfBytes": "32",
						"value": "t_bool"
					},
					"t_mapping(t_bytes32,t_address)": {
						"encoding": "mapping",
						"key": "t_bytes32",
						"label": "mapping(bytes32 => address)",
						"numberOfBytes": "32",
						"value": "t_address"
					},
					"t_mapping(t_bytes32,t_array(t_address)dyn_storage)": {
						"encoding": "mapping",
						"key": "t_bytes32",
						"label": "mapping(bytes32 => address[])",
						"numberOfBytes": "32",
						"value": "t_array(t_address)dyn_storage"
					},
					"t_mapping(t_bytes32,t_mapping(t_address,t_bool))": {
						"encoding": "mapping",
						"key": "t_bytes32",
						"label": "mapping(bytes32 => mapping(address => bool))",
						"numberOfBytes": "32",
						"value": "t_mapping(t_address,t_bool)"
					},
					"t_mapping(t_bytes32,t_struct(Raffle)758_storage)": {
						"encoding": "mapping",
						"key": "t_bytes32",
						"label": "mapping(bytes32 => struct IPickr.Raffle)",
						"numberOfBytes": "32",
						"value": "t_struct(Raffle)758_storage"
					},
					"t_struct(Raffle)758_storage": {
						"encoding": "inplace",
						"label": "struct IPickr.Raffle",
						"members": [
							{
								"astId": 744,
								"contract": "contracts/Pickr.sol:Pickr",
								"label": "creator",
								"offset": 0,
								"slot": "0",
								"type": "t_address"
							},
							{
								"astId": 746,
								"contract": "contracts/Pickr.sol:Pickr",
								"label": "balance",
								"offset": 0,
								"slot": "1",
								"type": "t_uint256"
							},
							{
								"astId": 749,
								"contract": "contracts/Pickr.sol:Pickr",
								"label": "status",
								"offset": 0,
								"slot": "2",
								"type": "t_enum(RaffleStatus)742"
							},
							{
								"astId": 751,
								"contract": "contracts/Pickr.sol:Pickr",
								"label": "maxParticipant",
								"offset": 0,
								"slot": "3",
								"type": "t_uint256"
							},
							{
								"astId": 753,
								"contract": "contracts/Pickr.sol:Pickr",
								"label": "minParticipant",
								"offset": 0,
								"slot": "4",
								"type": "t_uint256"
							},
							{
								"astId": 755,
								"contract": "contracts/Pickr.sol:Pickr",
								"label": "totalParticipant",
								"offset": 0,
								"slot": "5",
								"type": "t_uint256"
							},
							{
								"astId": 757,
								"contract": "contracts/Pickr.sol:Pickr",
								"label": "createdAt",
								"offset": 0,
								"slot": "6",
								"type": "t_uint64"
							}
						],
						"numberOfBytes": "224"
					},
					"t_uint256": {
						"encoding": "inplace",
						"label": "uint256",
						"numberOfBytes": "32"
					},
					"t_uint64": {
						"encoding": "inplace",
						"label": "uint64",
						"numberOfBytes": "8"
					}
				}
			},
			"userdoc": {
				"kind": "user",
				"methods": {},
				"version": 1
			}
		}
	}
}