{
	"contracts/Pickr.sol": {
		"Pickr": {
			"abi": [
				{
					"inputs": [],
					"stateMutability": "nonpayable",
					"type": "constructor"
				},
				{
					"inputs": [
						{
							"internalType": "bytes32",
							"name": "codeHash",
							"type": "bytes32"
						},
						{
							"internalType": "address",
							"name": "addr",
							"type": "address"
						}
					],
					"name": "ErrorAddressIsNotParticipant",
					"type": "error"
				},
				{
					"inputs": [
						{
							"internalType": "bytes32",
							"name": "codeHash",
							"type": "bytes32"
						}
					],
					"name": "ErrorCodeAlreadyUsed",
					"type": "error"
				},
				{
					"inputs": [],
					"name": "ErrorCodeIsRequired",
					"type": "error"
				},
				{
					"inputs": [],
					"name": "ErrorDepositRequired",
					"type": "error"
				},
				{
					"inputs": [
						{
							"internalType": "bytes32",
							"name": "codeHash",
							"type": "bytes32"
						}
					],
					"name": "ErrorInvalidWinner",
					"type": "error"
				},
				{
					"inputs": [],
					"name": "ErrorMaxParticipantLessThanMin",
					"type": "error"
				},
				{
					"inputs": [],
					"name": "ErrorMinParticipantMustBeGreaterThanZero",
					"type": "error"
				},
				{
					"inputs": [
						{
							"internalType": "bytes32",
							"name": "codeHash",
							"type": "bytes32"
						}
					],
					"name": "ErrorNoBalance",
					"type": "error"
				},
				{
					"inputs": [
						{
							"internalType": "address",
							"name": "caller",
							"type": "address"
						}
					],
					"name": "ErrorNotAuthorized",
					"type": "error"
				},
				{
					"inputs": [
						{
							"internalType": "bytes32",
							"name": "codeHash",
							"type": "bytes32"
						}
					],
					"name": "ErrorNotEnoughParticipant",
					"type": "error"
				},
				{
					"inputs": [
						{
							"internalType": "bytes32",
							"name": "codeHash",
							"type": "bytes32"
						}
					],
					"name": "ErrorRoomIsFull",
					"type": "error"
				},
				{
					"inputs": [
						{
							"internalType": "bytes32",
							"name": "codeHash",
							"type": "bytes32"
						}
					],
					"name": "ErrorRoomIsNotActive",
					"type": "error"
				},
				{
					"inputs": [
						{
							"internalType": "bytes32",
							"name": "codeHash",
							"type": "bytes32"
						}
					],
					"name": "ErrorRoomIsNotExist",
					"type": "error"
				},
				{
					"inputs": [
						{
							"internalType": "bytes32",
							"name": "codeHash",
							"type": "bytes32"
						}
					],
					"name": "ErrorRoomIsNotStarted",
					"type": "error"
				},
				{
					"inputs": [
						{
							"internalType": "bytes32",
							"name": "codeHash",
							"type": "bytes32"
						}
					],
					"name": "ErrorUserAlreadyJoinRoom",
					"type": "error"
				},
				{
					"inputs": [
						{
							"internalType": "bytes32",
							"name": "codeHash",
							"type": "bytes32"
						}
					],
					"name": "ErrorUserIsNotParticipant",
					"type": "error"
				},
				{
					"inputs": [
						{
							"internalType": "bytes32",
							"name": "codeHash",
							"type": "bytes32"
						}
					],
					"name": "ErrorUserIsTheRoomOwner",
					"type": "error"
				},
				{
					"anonymous": false,
					"inputs": [
						{
							"indexed": false,
							"internalType": "bytes32",
							"name": "codeHash",
							"type": "bytes32"
						},
						{
							"indexed": false,
							"internalType": "address",
							"name": "creator",
							"type": "address"
						}
					],
					"name": "RoomCreated",
					"type": "event"
				},
				{
					"anonymous": false,
					"inputs": [
						{
							"indexed": false,
							"internalType": "bytes32",
							"name": "codeHash",
							"type": "bytes32"
						},
						{
							"indexed": false,
							"internalType": "uint256",
							"name": "balance",
							"type": "uint256"
						}
					],
					"name": "RoomDeposited",
					"type": "event"
				},
				{
					"anonymous": false,
					"inputs": [
						{
							"indexed": false,
							"internalType": "bytes32",
							"name": "codeHash",
							"type": "bytes32"
						}
					],
					"name": "RoomStarted",
					"type": "event"
				},
				{
					"anonymous": false,
					"inputs": [
						{
							"indexed": false,
							"internalType": "bytes32",
							"name": "codeHash",
							"type": "bytes32"
						},
						{
							"indexed": false,
							"internalType": "address",
							"name": "winner",
							"type": "address"
						},
						{
							"indexed": false,
							"internalType": "uint256",
							"name": "prize",
							"type": "uint256"
						}
					],
					"name": "WinnerSelected",
					"type": "event"
				},
				{
					"inputs": [
						{
							"internalType": "bytes32",
							"name": "codeHash",
							"type": "bytes32"
						}
					],
					"name": "closeRoom",
					"outputs": [],
					"stateMutability": "nonpayable",
					"type": "function"
				},
				{
					"inputs": [
						{
							"internalType": "bytes32",
							"name": "codeHash",
							"type": "bytes32"
						},
						{
							"internalType": "uint256",
							"name": "minParticipant",
							"type": "uint256"
						},
						{
							"internalType": "uint256",
							"name": "maxParticipant",
							"type": "uint256"
						}
					],
					"name": "createRoom",
					"outputs": [],
					"stateMutability": "payable",
					"type": "function"
				},
				{
					"inputs": [
						{
							"internalType": "bytes32",
							"name": "codeHash",
							"type": "bytes32"
						}
					],
					"name": "deposit",
					"outputs": [],
					"stateMutability": "payable",
					"type": "function"
				},
				{
					"inputs": [
						{
							"internalType": "bytes32",
							"name": "codeHash",
							"type": "bytes32"
						}
					],
					"name": "joinRoom",
					"outputs": [],
					"stateMutability": "nonpayable",
					"type": "function"
				},
				{
					"inputs": [
						{
							"internalType": "bytes32",
							"name": "codeHash",
							"type": "bytes32"
						}
					],
					"name": "leaveRoom",
					"outputs": [],
					"stateMutability": "nonpayable",
					"type": "function"
				},
				{
					"inputs": [],
					"name": "owner",
					"outputs": [
						{
							"internalType": "address",
							"name": "",
							"type": "address"
						}
					],
					"stateMutability": "view",
					"type": "function"
				},
				{
					"inputs": [
						{
							"internalType": "bytes32",
							"name": "codeHash",
							"type": "bytes32"
						},
						{
							"internalType": "uint256",
							"name": "",
							"type": "uint256"
						}
					],
					"name": "participants",
					"outputs": [
						{
							"internalType": "address",
							"name": "",
							"type": "address"
						}
					],
					"stateMutability": "view",
					"type": "function"
				},
				{
					"inputs": [
						{
							"internalType": "bytes32",
							"name": "codeHash",
							"type": "bytes32"
						}
					],
					"name": "rooms",
					"outputs": [
						{
							"internalType": "address",
							"name": "creator",
							"type": "address"
						},
						{
							"internalType": "uint256",
							"name": "balance",
							"type": "uint256"
						},
						{
							"internalType": "enum IPickr.RoomStatus",
							"name": "status",
							"type": "uint8"
						},
						{
							"internalType": "enum IPickr.RoomAccessMode",
							"name": "accessMode",
							"type": "uint8"
						},
						{
							"internalType": "uint256",
							"name": "maxParticipant",
							"type": "uint256"
						},
						{
							"internalType": "uint256",
							"name": "minParticipant",
							"type": "uint256"
						},
						{
							"internalType": "uint256",
							"name": "totalParticipant",
							"type": "uint256"
						},
						{
							"internalType": "uint256",
							"name": "totalWinner",
							"type": "uint256"
						},
						{
							"internalType": "uint64",
							"name": "createdAt",
							"type": "uint64"
						}
					],
					"stateMutability": "view",
					"type": "function"
				},
				{
					"inputs": [
						{
							"internalType": "bytes32",
							"name": "codeHash",
							"type": "bytes32"
						}
					],
					"name": "startRoom",
					"outputs": [],
					"stateMutability": "nonpayable",
					"type": "function"
				},
				{
					"inputs": [
						{
							"internalType": "bytes32",
							"name": "codeHash",
							"type": "bytes32"
						},
						{
							"internalType": "address",
							"name": "winner",
							"type": "address"
						}
					],
					"name": "winnerSelected",
					"outputs": [],
					"stateMutability": "nonpayable",
					"type": "function"
				},
				{
					"inputs": [
						{
							"internalType": "bytes32",
							"name": "codeHash",
							"type": "bytes32"
						}
					],
					"name": "winners",
					"outputs": [
						{
							"internalType": "address",
							"name": "",
							"type": "address"
						}
					],
					"stateMutability": "view",
					"type": "function"
				},
				{
					"stateMutability": "payable",
					"type": "receive"
				}
			],
			"devdoc": {
				"kind": "dev",
				"methods": {},
				"version": 1
			},
			"evm": {
				"assembly": "    /* \"contracts/Pickr.sol\":90:5748  contract Pickr is IPickr {... */\n  mstore(0x40, 0xa0)\n    /* \"contracts/Pickr.sol\":121:170  constructor() {... */\n  callvalue\n  dup1\n  iszero\n  tag_1\n  jumpi\n  revert(0x00, 0x00)\ntag_1:\n  pop\n    /* \"contracts/Pickr.sol\":153:163  msg.sender */\n  caller\n    /* \"contracts/Pickr.sol\":145:163  owner = msg.sender */\n  0xffffffffffffffffffffffffffffffffffffffff\n  and\n  0x80\n  dup2\n  0xffffffffffffffffffffffffffffffffffffffff\n  and\n  dup2\n  mstore\n  pop\n  pop\n    /* \"contracts/Pickr.sol\":90:5748  contract Pickr is IPickr {... */\n  mload(0x80)\n  codecopy(0x00, dataOffset(sub_0), dataSize(sub_0))\n  0x00\n  assignImmutable(\"0x05dee4192aaad4acb149f9615e8a72a761fc8cdb1d8b4e9c00fe66665f5a8184\")\n  return(0x00, dataSize(sub_0))\nstop\n\nsub_0: assembly {\n        /* \"contracts/Pickr.sol\":90:5748  contract Pickr is IPickr {... */\n      mstore(0x40, 0x80)\n      jumpi(tag_1, lt(calldatasize, 0x04))\n      shr(0xe0, calldataload(0x00))\n      dup1\n      0x9a7f487e\n      gt\n      tag_14\n      jumpi\n      dup1\n      0x9a7f487e\n      eq\n      tag_8\n      jumpi\n      dup1\n      0xa0c2957a\n      eq\n      tag_9\n      jumpi\n      dup1\n      0xaf8b9b18\n      eq\n      tag_10\n      jumpi\n      dup1\n      0xb214faa5\n      eq\n      tag_11\n      jumpi\n      dup1\n      0xb48d3baa\n      eq\n      tag_12\n      jumpi\n      dup1\n      0xd7fbc2e4\n      eq\n      tag_13\n      jumpi\n      jump(tag_2)\n    tag_14:\n      dup1\n      0x21fe77aa\n      eq\n      tag_3\n      jumpi\n      dup1\n      0x414d47f4\n      eq\n      tag_4\n      jumpi\n      dup1\n      0x4277f4fd\n      eq\n      tag_5\n      jumpi\n      dup1\n      0x4b29b4c4\n      eq\n      tag_6\n      jumpi\n      dup1\n      0x8da5cb5b\n      eq\n      tag_7\n      jumpi\n      jump(tag_2)\n    tag_1:\n      jumpi(tag_2, calldatasize)\n        /* \"contracts/Pickr.sol\":5697:5739  revert(\"use createRoom/deposit with code\") */\n      mload(0x40)\n      0x08c379a000000000000000000000000000000000000000000000000000000000\n      dup2\n      mstore\n      0x04\n      add\n      tag_17\n      swap1\n      tag_18\n      jump\t// in\n    tag_17:\n      mload(0x40)\n      dup1\n      swap2\n      sub\n      swap1\n      revert\n        /* \"contracts/Pickr.sol\":90:5748  contract Pickr is IPickr {... */\n    tag_2:\n      revert(0x00, 0x00)\n        /* \"contracts/Pickr.sol\":4175:5022  function leaveRoom(bytes32 codeHash) external {... */\n    tag_3:\n      callvalue\n      dup1\n      iszero\n      tag_19\n      jumpi\n      revert(0x00, 0x00)\n    tag_19:\n      pop\n      tag_20\n      0x04\n      dup1\n      calldatasize\n      sub\n      dup2\n      add\n      swap1\n      tag_21\n      swap2\n      swap1\n      tag_22\n      jump\t// in\n    tag_21:\n      tag_23\n      jump\t// in\n    tag_20:\n      stop\n        /* \"contracts/Pickr.sol\":618:676  mapping(bytes32 codeHash => address[]) public participants */\n    tag_4:\n      callvalue\n      dup1\n      iszero\n      tag_24\n      jumpi\n      revert(0x00, 0x00)\n    tag_24:\n      pop\n      tag_25\n      0x04\n      dup1\n      calldatasize\n      sub\n      dup2\n      add\n      swap1\n      tag_26\n      swap2\n      swap1\n      tag_27\n      jump\t// in\n    tag_26:\n      tag_28\n      jump\t// in\n    tag_25:\n      mload(0x40)\n      tag_29\n      swap2\n      swap1\n      tag_30\n      jump\t// in\n    tag_29:\n      mload(0x40)\n      dup1\n      swap2\n      sub\n      swap1\n      return\n        /* \"contracts/Pickr.sol\":682:733  mapping(bytes32 codeHash => address) public winners */\n    tag_5:\n      callvalue\n      dup1\n      iszero\n      tag_31\n      jumpi\n      revert(0x00, 0x00)\n    tag_31:\n      pop\n      tag_32\n      0x04\n      dup1\n      calldatasize\n      sub\n      dup2\n      add\n      swap1\n      tag_33\n      swap2\n      swap1\n      tag_22\n      jump\t// in\n    tag_33:\n      tag_34\n      jump\t// in\n    tag_32:\n      mload(0x40)\n      tag_35\n      swap2\n      swap1\n      tag_30\n      jump\t// in\n    tag_35:\n      mload(0x40)\n      dup1\n      swap2\n      sub\n      swap1\n      return\n        /* \"contracts/Pickr.sol\":3413:4169  function joinRoom(bytes32 codeHash) external {... */\n    tag_6:\n      callvalue\n      dup1\n      iszero\n      tag_36\n      jumpi\n      revert(0x00, 0x00)\n    tag_36:\n      pop\n      tag_37\n      0x04\n      dup1\n      calldatasize\n      sub\n      dup2\n      add\n      swap1\n      tag_38\n      swap2\n      swap1\n      tag_22\n      jump\t// in\n    tag_38:\n      tag_39\n      jump\t// in\n    tag_37:\n      stop\n        /* \"contracts/Pickr.sol\":452:482  address public immutable owner */\n    tag_7:\n      callvalue\n      dup1\n      iszero\n      tag_40\n      jumpi\n      revert(0x00, 0x00)\n    tag_40:\n      pop\n      tag_41\n      tag_42\n      jump\t// in\n    tag_41:\n      mload(0x40)\n      tag_43\n      swap2\n      swap1\n      tag_30\n      jump\t// in\n    tag_43:\n      mload(0x40)\n      dup1\n      swap2\n      sub\n      swap1\n      return\n        /* \"contracts/Pickr.sol\":762:1674  function createRoom(... */\n    tag_8:\n      tag_44\n      0x04\n      dup1\n      calldatasize\n      sub\n      dup2\n      add\n      swap1\n      tag_45\n      swap2\n      swap1\n      tag_46\n      jump\t// in\n    tag_45:\n      tag_47\n      jump\t// in\n    tag_44:\n      stop\n        /* \"contracts/Pickr.sol\":2143:2578  function startRoom(bytes32 codeHash) external onlyCreator(codeHash) {... */\n    tag_9:\n      callvalue\n      dup1\n      iszero\n      tag_48\n      jumpi\n      revert(0x00, 0x00)\n    tag_48:\n      pop\n      tag_49\n      0x04\n      dup1\n      calldatasize\n      sub\n      dup2\n      add\n      swap1\n      tag_50\n      swap2\n      swap1\n      tag_22\n      jump\t// in\n    tag_50:\n      tag_51\n      jump\t// in\n    tag_49:\n      stop\n        /* \"contracts/Pickr.sol\":5028:5519  function closeRoom(bytes32 codeHash) external onlyCreator(codeHash) {... */\n    tag_10:\n      callvalue\n      dup1\n      iszero\n      tag_52\n      jumpi\n      revert(0x00, 0x00)\n    tag_52:\n      pop\n      tag_53\n      0x04\n      dup1\n      calldatasize\n      sub\n      dup2\n      add\n      swap1\n      tag_54\n      swap2\n      swap1\n      tag_22\n      jump\t// in\n    tag_54:\n      tag_55\n      jump\t// in\n    tag_53:\n      stop\n        /* \"contracts/Pickr.sol\":1680:2137  function deposit(bytes32 codeHash) external payable onlyCreator(codeHash) {... */\n    tag_11:\n      tag_56\n      0x04\n      dup1\n      calldatasize\n      sub\n      dup2\n      add\n      swap1\n      tag_57\n      swap2\n      swap1\n      tag_22\n      jump\t// in\n    tag_57:\n      tag_58\n      jump\t// in\n    tag_56:\n      stop\n        /* \"contracts/Pickr.sol\":2584:3407  function winnerSelected(... */\n    tag_12:\n      callvalue\n      dup1\n      iszero\n      tag_59\n      jumpi\n      revert(0x00, 0x00)\n    tag_59:\n      pop\n      tag_60\n      0x04\n      dup1\n      calldatasize\n      sub\n      dup2\n      add\n      swap1\n      tag_61\n      swap2\n      swap1\n      tag_62\n      jump\t// in\n    tag_61:\n      tag_63\n      jump\t// in\n    tag_60:\n      stop\n        /* \"contracts/Pickr.sol\":489:535  mapping(bytes32 codeHash => Room) public rooms */\n    tag_13:\n      callvalue\n      dup1\n      iszero\n      tag_64\n      jumpi\n      revert(0x00, 0x00)\n    tag_64:\n      pop\n      tag_65\n      0x04\n      dup1\n      calldatasize\n      sub\n      dup2\n      add\n      swap1\n      tag_66\n      swap2\n      swap1\n      tag_22\n      jump\t// in\n    tag_66:\n      tag_67\n      jump\t// in\n    tag_65:\n      mload(0x40)\n      tag_68\n      swap10\n      swap9\n      swap8\n      swap7\n      swap6\n      swap5\n      swap4\n      swap3\n      swap2\n      swap1\n      tag_69\n      jump\t// in\n    tag_68:\n      mload(0x40)\n      dup1\n      swap2\n      sub\n      swap1\n      return\n        /* \"contracts/Pickr.sol\":4175:5022  function leaveRoom(bytes32 codeHash) external {... */\n    tag_23:\n        /* \"contracts/Pickr.sol\":4236:4258  _isRoomExist(codeHash) */\n      tag_71\n        /* \"contracts/Pickr.sol\":4249:4257  codeHash */\n      dup2\n        /* \"contracts/Pickr.sol\":4236:4248  _isRoomExist */\n      tag_72\n        /* \"contracts/Pickr.sol\":4236:4258  _isRoomExist(codeHash) */\n      jump\t// in\n    tag_71:\n        /* \"contracts/Pickr.sol\":4231:4321  if (!_isRoomExist(codeHash)) {... */\n      tag_73\n      jumpi\n        /* \"contracts/Pickr.sol\":4301:4309  codeHash */\n      dup1\n        /* \"contracts/Pickr.sol\":4281:4310  ErrorRoomIsNotExist(codeHash) */\n      mload(0x40)\n      0xe286343900000000000000000000000000000000000000000000000000000000\n      dup2\n      mstore\n      0x04\n      add\n      tag_74\n      swap2\n      swap1\n      tag_75\n      jump\t// in\n    tag_74:\n      mload(0x40)\n      dup1\n      swap2\n      sub\n      swap1\n      revert\n        /* \"contracts/Pickr.sol\":4231:4321  if (!_isRoomExist(codeHash)) {... */\n    tag_73:\n        /* \"contracts/Pickr.sol\":4331:4348  Room storage room */\n      0x00\n        /* \"contracts/Pickr.sol\":4351:4356  rooms */\n      0x00\n        /* \"contracts/Pickr.sol\":4351:4366  rooms[codeHash] */\n      0x00\n        /* \"contracts/Pickr.sol\":4357:4365  codeHash */\n      dup4\n        /* \"contracts/Pickr.sol\":4351:4366  rooms[codeHash] */\n      dup2\n      mstore\n      0x20\n      add\n      swap1\n      dup2\n      mstore\n      0x20\n      add\n      0x00\n      keccak256\n        /* \"contracts/Pickr.sol\":4331:4366  Room storage room = rooms[codeHash] */\n      swap1\n      pop\n        /* \"contracts/Pickr.sol\":4395:4412  RoomStatus.ACTIVE */\n      0x00\n        /* \"contracts/Pickr.sol\":4380:4412  room.status != RoomStatus.ACTIVE */\n      0x02\n      dup2\n      gt\n      iszero\n      tag_76\n      jumpi\n      tag_77\n      tag_78\n      jump\t// in\n    tag_77:\n    tag_76:\n        /* \"contracts/Pickr.sol\":4380:4384  room */\n      dup2\n        /* \"contracts/Pickr.sol\":4380:4391  room.status */\n      0x02\n      add\n      0x00\n      swap1\n      sload\n      swap1\n      0x0100\n      exp\n      swap1\n      div\n      0xff\n      and\n        /* \"contracts/Pickr.sol\":4380:4412  room.status != RoomStatus.ACTIVE */\n      0x02\n      dup2\n      gt\n      iszero\n      tag_79\n      jumpi\n      tag_80\n      tag_78\n      jump\t// in\n    tag_80:\n    tag_79:\n      eq\n        /* \"contracts/Pickr.sol\":4376:4476  if (room.status != RoomStatus.ACTIVE) {... */\n      tag_81\n      jumpi\n        /* \"contracts/Pickr.sol\":4456:4464  codeHash */\n      dup2\n        /* \"contracts/Pickr.sol\":4435:4465  ErrorRoomIsNotActive(codeHash) */\n      mload(0x40)\n      0xd528e2af00000000000000000000000000000000000000000000000000000000\n      dup2\n      mstore\n      0x04\n      add\n      tag_82\n      swap2\n      swap1\n      tag_75\n      jump\t// in\n    tag_82:\n      mload(0x40)\n      dup1\n      swap2\n      sub\n      swap1\n      revert\n        /* \"contracts/Pickr.sol\":4376:4476  if (room.status != RoomStatus.ACTIVE) {... */\n    tag_81:\n        /* \"contracts/Pickr.sol\":4486:4497  bool joined */\n      0x00\n        /* \"contracts/Pickr.sol\":4500:4509  hasJoined */\n      0x01\n        /* \"contracts/Pickr.sol\":4500:4519  hasJoined[codeHash] */\n      0x00\n        /* \"contracts/Pickr.sol\":4510:4518  codeHash */\n      dup5\n        /* \"contracts/Pickr.sol\":4500:4519  hasJoined[codeHash] */\n      dup2\n      mstore\n      0x20\n      add\n      swap1\n      dup2\n      mstore\n      0x20\n      add\n      0x00\n      keccak256\n        /* \"contracts/Pickr.sol\":4500:4531  hasJoined[codeHash][msg.sender] */\n      0x00\n        /* \"contracts/Pickr.sol\":4520:4530  msg.sender */\n      caller\n        /* \"contracts/Pickr.sol\":4500:4531  hasJoined[codeHash][msg.sender] */\n      0xffffffffffffffffffffffffffffffffffffffff\n      and\n      0xffffffffffffffffffffffffffffffffffffffff\n      and\n      dup2\n      mstore\n      0x20\n      add\n      swap1\n      dup2\n      mstore\n      0x20\n      add\n      0x00\n      keccak256\n      0x00\n      swap1\n      sload\n      swap1\n      0x0100\n      exp\n      swap1\n      div\n      0xff\n      and\n        /* \"contracts/Pickr.sol\":4486:4531  bool joined = hasJoined[codeHash][msg.sender] */\n      swap1\n      pop\n        /* \"contracts/Pickr.sol\":4546:4552  joined */\n      dup1\n        /* \"contracts/Pickr.sol\":4541:4596  if (!joined) revert ErrorUserIsNotParticipant(codeHash) */\n      tag_83\n      jumpi\n        /* \"contracts/Pickr.sol\":4587:4595  codeHash */\n      dup3\n        /* \"contracts/Pickr.sol\":4561:4596  ErrorUserIsNotParticipant(codeHash) */\n      mload(0x40)\n      0x0d7648af00000000000000000000000000000000000000000000000000000000\n      dup2\n      mstore\n      0x04\n      add\n      tag_84\n      swap2\n      swap1\n      tag_75\n      jump\t// in\n    tag_84:\n      mload(0x40)\n      dup1\n      swap2\n      sub\n      swap1\n      revert\n        /* \"contracts/Pickr.sol\":4541:4596  if (!joined) revert ErrorUserIsNotParticipant(codeHash) */\n    tag_83:\n        /* \"contracts/Pickr.sol\":4607:4611  room */\n      dup2\n        /* \"contracts/Pickr.sol\":4607:4628  room.totalParticipant */\n      0x05\n      add\n      0x00\n        /* \"contracts/Pickr.sol\":4607:4630  room.totalParticipant-- */\n      dup2\n      sload\n      dup1\n      swap3\n      swap2\n      swap1\n      tag_85\n      swap1\n      tag_86\n      jump\t// in\n    tag_85:\n      swap2\n      swap1\n      pop\n      sstore\n      pop\n        /* \"contracts/Pickr.sol\":4674:4679  false */\n      0x00\n        /* \"contracts/Pickr.sol\":4640:4649  hasJoined */\n      0x01\n        /* \"contracts/Pickr.sol\":4640:4659  hasJoined[codeHash] */\n      0x00\n        /* \"contracts/Pickr.sol\":4650:4658  codeHash */\n      dup6\n        /* \"contracts/Pickr.sol\":4640:4659  hasJoined[codeHash] */\n      dup2\n      mstore\n      0x20\n      add\n      swap1\n      dup2\n      mstore\n      0x20\n      add\n      0x00\n      keccak256\n        /* \"contracts/Pickr.sol\":4640:4671  hasJoined[codeHash][msg.sender] */\n      0x00\n        /* \"contracts/Pickr.sol\":4660:4670  msg.sender */\n      caller\n        /* \"contracts/Pickr.sol\":4640:4671  hasJoined[codeHash][msg.sender] */\n      0xffffffffffffffffffffffffffffffffffffffff\n      and\n      0xffffffffffffffffffffffffffffffffffffffff\n      and\n      dup2\n      mstore\n      0x20\n      add\n      swap1\n      dup2\n      mstore\n      0x20\n      add\n      0x00\n      keccak256\n      0x00\n        /* \"contracts/Pickr.sol\":4640:4679  hasJoined[codeHash][msg.sender] = false */\n      0x0100\n      exp\n      dup2\n      sload\n      dup2\n      0xff\n      mul\n      not\n      and\n      swap1\n      dup4\n      iszero\n      iszero\n      mul\n      or\n      swap1\n      sstore\n      pop\n        /* \"contracts/Pickr.sol\":4690:4704  uint256 length */\n      0x00\n        /* \"contracts/Pickr.sol\":4707:4719  participants */\n      0x02\n        /* \"contracts/Pickr.sol\":4707:4729  participants[codeHash] */\n      0x00\n        /* \"contracts/Pickr.sol\":4720:4728  codeHash */\n      dup6\n        /* \"contracts/Pickr.sol\":4707:4729  participants[codeHash] */\n      dup2\n      mstore\n      0x20\n      add\n      swap1\n      dup2\n      mstore\n      0x20\n      add\n      0x00\n      keccak256\n        /* \"contracts/Pickr.sol\":4707:4736  participants[codeHash].length */\n      dup1\n      sload\n      swap1\n      pop\n        /* \"contracts/Pickr.sol\":4690:4736  uint256 length = participants[codeHash].length */\n      swap1\n      pop\n        /* \"contracts/Pickr.sol\":4751:4760  uint256 i */\n      0x00\n        /* \"contracts/Pickr.sol\":4763:4764  0 */\n      0x00\n        /* \"contracts/Pickr.sol\":4751:4764  uint256 i = 0 */\n      swap1\n      pop\n        /* \"contracts/Pickr.sol\":4746:5016  for (uint256 i = 0; i < length; i++) {... */\n    tag_87:\n        /* \"contracts/Pickr.sol\":4770:4776  length */\n      dup2\n        /* \"contracts/Pickr.sol\":4766:4767  i */\n      dup2\n        /* \"contracts/Pickr.sol\":4766:4776  i < length */\n      lt\n        /* \"contracts/Pickr.sol\":4746:5016  for (uint256 i = 0; i < length; i++) {... */\n      iszero\n      tag_88\n      jumpi\n        /* \"contracts/Pickr.sol\":4830:4840  msg.sender */\n      caller\n        /* \"contracts/Pickr.sol\":4801:4840  participants[codeHash][i] == msg.sender */\n      0xffffffffffffffffffffffffffffffffffffffff\n      and\n        /* \"contracts/Pickr.sol\":4801:4813  participants */\n      0x02\n        /* \"contracts/Pickr.sol\":4801:4823  participants[codeHash] */\n      0x00\n        /* \"contracts/Pickr.sol\":4814:4822  codeHash */\n      dup8\n        /* \"contracts/Pickr.sol\":4801:4823  participants[codeHash] */\n      dup2\n      mstore\n      0x20\n      add\n      swap1\n      dup2\n      mstore\n      0x20\n      add\n      0x00\n      keccak256\n        /* \"contracts/Pickr.sol\":4824:4825  i */\n      dup3\n        /* \"contracts/Pickr.sol\":4801:4826  participants[codeHash][i] */\n      dup2\n      sload\n      dup2\n      lt\n      tag_90\n      jumpi\n      tag_91\n      tag_92\n      jump\t// in\n    tag_91:\n    tag_90:\n      swap1\n      0x00\n      mstore\n      keccak256(0x00, 0x20)\n      add\n      0x00\n      swap1\n      sload\n      swap1\n      0x0100\n      exp\n      swap1\n      div\n      0xffffffffffffffffffffffffffffffffffffffff\n      and\n        /* \"contracts/Pickr.sol\":4801:4840  participants[codeHash][i] == msg.sender */\n      0xffffffffffffffffffffffffffffffffffffffff\n      and\n      sub\n        /* \"contracts/Pickr.sol\":4797:5006  if (participants[codeHash][i] == msg.sender) {... */\n      tag_94\n      jumpi\n        /* \"contracts/Pickr.sol\":4888:4900  participants */\n      0x02\n        /* \"contracts/Pickr.sol\":4888:4910  participants[codeHash] */\n      0x00\n        /* \"contracts/Pickr.sol\":4901:4909  codeHash */\n      dup7\n        /* \"contracts/Pickr.sol\":4888:4910  participants[codeHash] */\n      dup2\n      mstore\n      0x20\n      add\n      swap1\n      dup2\n      mstore\n      0x20\n      add\n      0x00\n      keccak256\n        /* \"contracts/Pickr.sol\":4920:4921  1 */\n      0x01\n        /* \"contracts/Pickr.sol\":4911:4917  length */\n      dup4\n        /* \"contracts/Pickr.sol\":4911:4921  length - 1 */\n      tag_95\n      swap2\n      swap1\n      tag_96\n      jump\t// in\n    tag_95:\n        /* \"contracts/Pickr.sol\":4888:4922  participants[codeHash][length - 1] */\n      dup2\n      sload\n      dup2\n      lt\n      tag_97\n      jumpi\n      tag_98\n      tag_92\n      jump\t// in\n    tag_98:\n    tag_97:\n      swap1\n      0x00\n      mstore\n      keccak256(0x00, 0x20)\n      add\n      0x00\n      swap1\n      sload\n      swap1\n      0x0100\n      exp\n      swap1\n      div\n      0xffffffffffffffffffffffffffffffffffffffff\n      and\n        /* \"contracts/Pickr.sol\":4860:4872  participants */\n      0x02\n        /* \"contracts/Pickr.sol\":4860:4882  participants[codeHash] */\n      0x00\n        /* \"contracts/Pickr.sol\":4873:4881  codeHash */\n      dup8\n        /* \"contracts/Pickr.sol\":4860:4882  participants[codeHash] */\n      dup2\n      mstore\n      0x20\n      add\n      swap1\n      dup2\n      mstore\n      0x20\n      add\n      0x00\n      keccak256\n        /* \"contracts/Pickr.sol\":4883:4884  i */\n      dup3\n        /* \"contracts/Pickr.sol\":4860:4885  participants[codeHash][i] */\n      dup2\n      sload\n      dup2\n      lt\n      tag_100\n      jumpi\n      tag_101\n      tag_92\n      jump\t// in\n    tag_101:\n    tag_100:\n      swap1\n      0x00\n      mstore\n      keccak256(0x00, 0x20)\n      add\n      0x00\n        /* \"contracts/Pickr.sol\":4860:4922  participants[codeHash][i] = participants[codeHash][length - 1] */\n      0x0100\n      exp\n      dup2\n      sload\n      dup2\n      0xffffffffffffffffffffffffffffffffffffffff\n      mul\n      not\n      and\n      swap1\n      dup4\n      0xffffffffffffffffffffffffffffffffffffffff\n      and\n      mul\n      or\n      swap1\n      sstore\n      pop\n        /* \"contracts/Pickr.sol\":4940:4952  participants */\n      0x02\n        /* \"contracts/Pickr.sol\":4940:4962  participants[codeHash] */\n      0x00\n        /* \"contracts/Pickr.sol\":4953:4961  codeHash */\n      dup7\n        /* \"contracts/Pickr.sol\":4940:4962  participants[codeHash] */\n      dup2\n      mstore\n      0x20\n      add\n      swap1\n      dup2\n      mstore\n      0x20\n      add\n      0x00\n      keccak256\n        /* \"contracts/Pickr.sol\":4940:4968  participants[codeHash].pop() */\n      dup1\n      sload\n      dup1\n      tag_103\n      jumpi\n      tag_104\n      tag_105\n      jump\t// in\n    tag_104:\n    tag_103:\n      0x01\n      swap1\n      sub\n      dup2\n      dup2\n      swap1\n      0x00\n      mstore\n      keccak256(0x00, 0x20)\n      add\n      exp(0x0100, 0x00)\n      dup2\n      sload\n      swap1\n      0xffffffffffffffffffffffffffffffffffffffff\n      mul\n      not\n      and\n      swap1\n      sstore\n      swap1\n      sstore\n        /* \"contracts/Pickr.sol\":4986:4991  break */\n      jump(tag_88)\n        /* \"contracts/Pickr.sol\":4797:5006  if (participants[codeHash][i] == msg.sender) {... */\n    tag_94:\n        /* \"contracts/Pickr.sol\":4778:4781  i++ */\n      dup1\n      dup1\n      0x01\n      add\n      swap2\n      pop\n      pop\n        /* \"contracts/Pickr.sol\":4746:5016  for (uint256 i = 0; i < length; i++) {... */\n      jump(tag_87)\n    tag_88:\n      pop\n        /* \"contracts/Pickr.sol\":4221:5022  {... */\n      pop\n      pop\n      pop\n        /* \"contracts/Pickr.sol\":4175:5022  function leaveRoom(bytes32 codeHash) external {... */\n      pop\n      jump\t// out\n        /* \"contracts/Pickr.sol\":618:676  mapping(bytes32 codeHash => address[]) public participants */\n    tag_28:\n      mstore(0x20, 0x02)\n      dup2\n      0x00\n      mstore\n      keccak256(0x00, 0x40)\n      dup2\n      dup2\n      sload\n      dup2\n      lt\n      tag_107\n      jumpi\n      0x00\n      dup1\n      revert\n    tag_107:\n      swap1\n      0x00\n      mstore\n      keccak256(0x00, 0x20)\n      add\n      0x00\n      swap2\n      pop\n      swap2\n      pop\n      swap1\n      sload\n      swap1\n      0x0100\n      exp\n      swap1\n      div\n      0xffffffffffffffffffffffffffffffffffffffff\n      and\n      dup2\n      jump\t// out\n        /* \"contracts/Pickr.sol\":682:733  mapping(bytes32 codeHash => address) public winners */\n    tag_34:\n      mstore(0x20, 0x03)\n      dup1\n      0x00\n      mstore\n      keccak256(0x00, 0x40)\n      0x00\n      swap2\n      pop\n      sload\n      swap1\n      0x0100\n      exp\n      swap1\n      div\n      0xffffffffffffffffffffffffffffffffffffffff\n      and\n      dup2\n      jump\t// out\n        /* \"contracts/Pickr.sol\":3413:4169  function joinRoom(bytes32 codeHash) external {... */\n    tag_39:\n        /* \"contracts/Pickr.sol\":3473:3495  _isRoomExist(codeHash) */\n      tag_110\n        /* \"contracts/Pickr.sol\":3486:3494  codeHash */\n      dup2\n        /* \"contracts/Pickr.sol\":3473:3485  _isRoomExist */\n      tag_72\n        /* \"contracts/Pickr.sol\":3473:3495  _isRoomExist(codeHash) */\n      jump\t// in\n    tag_110:\n        /* \"contracts/Pickr.sol\":3468:3533  if (!_isRoomExist(codeHash)) revert ErrorRoomIsNotExist(codeHash) */\n      tag_111\n      jumpi\n        /* \"contracts/Pickr.sol\":3524:3532  codeHash */\n      dup1\n        /* \"contracts/Pickr.sol\":3504:3533  ErrorRoomIsNotExist(codeHash) */\n      mload(0x40)\n      0xe286343900000000000000000000000000000000000000000000000000000000\n      dup2\n      mstore\n      0x04\n      add\n      tag_112\n      swap2\n      swap1\n      tag_75\n      jump\t// in\n    tag_112:\n      mload(0x40)\n      dup1\n      swap2\n      sub\n      swap1\n      revert\n        /* \"contracts/Pickr.sol\":3468:3533  if (!_isRoomExist(codeHash)) revert ErrorRoomIsNotExist(codeHash) */\n    tag_111:\n        /* \"contracts/Pickr.sol\":3544:3561  Room storage room */\n      0x00\n        /* \"contracts/Pickr.sol\":3564:3569  rooms */\n      0x00\n        /* \"contracts/Pickr.sol\":3564:3579  rooms[codeHash] */\n      0x00\n        /* \"contracts/Pickr.sol\":3570:3578  codeHash */\n      dup4\n        /* \"contracts/Pickr.sol\":3564:3579  rooms[codeHash] */\n      dup2\n      mstore\n      0x20\n      add\n      swap1\n      dup2\n      mstore\n      0x20\n      add\n      0x00\n      keccak256\n        /* \"contracts/Pickr.sol\":3544:3579  Room storage room = rooms[codeHash] */\n      swap1\n      pop\n        /* \"contracts/Pickr.sol\":3607:3611  room */\n      dup1\n        /* \"contracts/Pickr.sol\":3607:3619  room.creator */\n      0x00\n      add\n      0x00\n      swap1\n      sload\n      swap1\n      0x0100\n      exp\n      swap1\n      div\n      0xffffffffffffffffffffffffffffffffffffffff\n      and\n        /* \"contracts/Pickr.sol\":3593:3619  msg.sender == room.creator */\n      0xffffffffffffffffffffffffffffffffffffffff\n      and\n        /* \"contracts/Pickr.sol\":3593:3603  msg.sender */\n      caller\n        /* \"contracts/Pickr.sol\":3593:3619  msg.sender == room.creator */\n      0xffffffffffffffffffffffffffffffffffffffff\n      and\n      sub\n        /* \"contracts/Pickr.sol\":3589:3686  if (msg.sender == room.creator) {... */\n      tag_113\n      jumpi\n        /* \"contracts/Pickr.sol\":3666:3674  codeHash */\n      dup2\n        /* \"contracts/Pickr.sol\":3642:3675  ErrorUserIsTheRoomOwner(codeHash) */\n      mload(0x40)\n      0xc55d8c8200000000000000000000000000000000000000000000000000000000\n      dup2\n      mstore\n      0x04\n      add\n      tag_114\n      swap2\n      swap1\n      tag_75\n      jump\t// in\n    tag_114:\n      mload(0x40)\n      dup1\n      swap2\n      sub\n      swap1\n      revert\n        /* \"contracts/Pickr.sol\":3589:3686  if (msg.sender == room.creator) {... */\n    tag_113:\n        /* \"contracts/Pickr.sol\":3715:3732  RoomStatus.ACTIVE */\n      0x00\n        /* \"contracts/Pickr.sol\":3700:3732  room.status != RoomStatus.ACTIVE */\n      0x02\n      dup2\n      gt\n      iszero\n      tag_115\n      jumpi\n      tag_116\n      tag_78\n      jump\t// in\n    tag_116:\n    tag_115:\n        /* \"contracts/Pickr.sol\":3700:3704  room */\n      dup2\n        /* \"contracts/Pickr.sol\":3700:3711  room.status */\n      0x02\n      add\n      0x00\n      swap1\n      sload\n      swap1\n      0x0100\n      exp\n      swap1\n      div\n      0xff\n      and\n        /* \"contracts/Pickr.sol\":3700:3732  room.status != RoomStatus.ACTIVE */\n      0x02\n      dup2\n      gt\n      iszero\n      tag_117\n      jumpi\n      tag_118\n      tag_78\n      jump\t// in\n    tag_118:\n    tag_117:\n      eq\n        /* \"contracts/Pickr.sol\":3696:3796  if (room.status != RoomStatus.ACTIVE) {... */\n      tag_119\n      jumpi\n        /* \"contracts/Pickr.sol\":3776:3784  codeHash */\n      dup2\n        /* \"contracts/Pickr.sol\":3755:3785  ErrorRoomIsNotActive(codeHash) */\n      mload(0x40)\n      0xd528e2af00000000000000000000000000000000000000000000000000000000\n      dup2\n      mstore\n      0x04\n      add\n      tag_120\n      swap2\n      swap1\n      tag_75\n      jump\t// in\n    tag_120:\n      mload(0x40)\n      dup1\n      swap2\n      sub\n      swap1\n      revert\n        /* \"contracts/Pickr.sol\":3696:3796  if (room.status != RoomStatus.ACTIVE) {... */\n    tag_119:\n        /* \"contracts/Pickr.sol\":3835:3839  room */\n      dup1\n        /* \"contracts/Pickr.sol\":3835:3854  room.maxParticipant */\n      0x03\n      add\n      sload\n        /* \"contracts/Pickr.sol\":3810:3814  room */\n      dup2\n        /* \"contracts/Pickr.sol\":3810:3831  room.totalParticipant */\n      0x05\n      add\n      sload\n        /* \"contracts/Pickr.sol\":3810:3854  room.totalParticipant >= room.maxParticipant */\n      lt\n        /* \"contracts/Pickr.sol\":3806:3913  if (room.totalParticipant >= room.maxParticipant) {... */\n      tag_121\n      jumpi\n        /* \"contracts/Pickr.sol\":3893:3901  codeHash */\n      dup2\n        /* \"contracts/Pickr.sol\":3877:3902  ErrorRoomIsFull(codeHash) */\n      mload(0x40)\n      0x495000c000000000000000000000000000000000000000000000000000000000\n      dup2\n      mstore\n      0x04\n      add\n      tag_122\n      swap2\n      swap1\n      tag_75\n      jump\t// in\n    tag_122:\n      mload(0x40)\n      dup1\n      swap2\n      sub\n      swap1\n      revert\n        /* \"contracts/Pickr.sol\":3806:3913  if (room.totalParticipant >= room.maxParticipant) {... */\n    tag_121:\n        /* \"contracts/Pickr.sol\":3923:3934  bool joined */\n      0x00\n        /* \"contracts/Pickr.sol\":3937:3946  hasJoined */\n      0x01\n        /* \"contracts/Pickr.sol\":3937:3956  hasJoined[codeHash] */\n      0x00\n        /* \"contracts/Pickr.sol\":3947:3955  codeHash */\n      dup5\n        /* \"contracts/Pickr.sol\":3937:3956  hasJoined[codeHash] */\n      dup2\n      mstore\n      0x20\n      add\n      swap1\n      dup2\n      mstore\n      0x20\n      add\n      0x00\n      keccak256\n        /* \"contracts/Pickr.sol\":3937:3968  hasJoined[codeHash][msg.sender] */\n      0x00\n        /* \"contracts/Pickr.sol\":3957:3967  msg.sender */\n      caller\n        /* \"contracts/Pickr.sol\":3937:3968  hasJoined[codeHash][msg.sender] */\n      0xffffffffffffffffffffffffffffffffffffffff\n      and\n      0xffffffffffffffffffffffffffffffffffffffff\n      and\n      dup2\n      mstore\n      0x20\n      add\n      swap1\n      dup2\n      mstore\n      0x20\n      add\n      0x00\n      keccak256\n      0x00\n      swap1\n      sload\n      swap1\n      0x0100\n      exp\n      swap1\n      div\n      0xff\n      and\n        /* \"contracts/Pickr.sol\":3923:3968  bool joined = hasJoined[codeHash][msg.sender] */\n      swap1\n      pop\n        /* \"contracts/Pickr.sol\":3982:3988  joined */\n      dup1\n        /* \"contracts/Pickr.sol\":3978:4031  if (joined) revert ErrorUserAlreadyJoinRoom(codeHash) */\n      iszero\n      tag_123\n      jumpi\n        /* \"contracts/Pickr.sol\":4022:4030  codeHash */\n      dup3\n        /* \"contracts/Pickr.sol\":3997:4031  ErrorUserAlreadyJoinRoom(codeHash) */\n      mload(0x40)\n      0x02cbc17500000000000000000000000000000000000000000000000000000000\n      dup2\n      mstore\n      0x04\n      add\n      tag_124\n      swap2\n      swap1\n      tag_75\n      jump\t// in\n    tag_124:\n      mload(0x40)\n      dup1\n      swap2\n      sub\n      swap1\n      revert\n        /* \"contracts/Pickr.sol\":3978:4031  if (joined) revert ErrorUserAlreadyJoinRoom(codeHash) */\n    tag_123:\n        /* \"contracts/Pickr.sol\":4076:4080  true */\n      0x01\n        /* \"contracts/Pickr.sol\":4042:4051  hasJoined */\n      dup1\n        /* \"contracts/Pickr.sol\":4042:4061  hasJoined[codeHash] */\n      0x00\n        /* \"contracts/Pickr.sol\":4052:4060  codeHash */\n      dup6\n        /* \"contracts/Pickr.sol\":4042:4061  hasJoined[codeHash] */\n      dup2\n      mstore\n      0x20\n      add\n      swap1\n      dup2\n      mstore\n      0x20\n      add\n      0x00\n      keccak256\n        /* \"contracts/Pickr.sol\":4042:4073  hasJoined[codeHash][msg.sender] */\n      0x00\n        /* \"contracts/Pickr.sol\":4062:4072  msg.sender */\n      caller\n        /* \"contracts/Pickr.sol\":4042:4073  hasJoined[codeHash][msg.sender] */\n      0xffffffffffffffffffffffffffffffffffffffff\n      and\n      0xffffffffffffffffffffffffffffffffffffffff\n      and\n      dup2\n      mstore\n      0x20\n      add\n      swap1\n      dup2\n      mstore\n      0x20\n      add\n      0x00\n      keccak256\n      0x00\n        /* \"contracts/Pickr.sol\":4042:4080  hasJoined[codeHash][msg.sender] = true */\n      0x0100\n      exp\n      dup2\n      sload\n      dup2\n      0xff\n      mul\n      not\n      and\n      swap1\n      dup4\n      iszero\n      iszero\n      mul\n      or\n      swap1\n      sstore\n      pop\n        /* \"contracts/Pickr.sol\":4090:4094  room */\n      dup2\n        /* \"contracts/Pickr.sol\":4090:4111  room.totalParticipant */\n      0x05\n      add\n      0x00\n        /* \"contracts/Pickr.sol\":4090:4113  room.totalParticipant++ */\n      dup2\n      sload\n      dup1\n      swap3\n      swap2\n      swap1\n      tag_125\n      swap1\n      tag_126\n      jump\t// in\n    tag_125:\n      swap2\n      swap1\n      pop\n      sstore\n      pop\n        /* \"contracts/Pickr.sol\":4123:4135  participants */\n      0x02\n        /* \"contracts/Pickr.sol\":4123:4145  participants[codeHash] */\n      0x00\n        /* \"contracts/Pickr.sol\":4136:4144  codeHash */\n      dup5\n        /* \"contracts/Pickr.sol\":4123:4145  participants[codeHash] */\n      dup2\n      mstore\n      0x20\n      add\n      swap1\n      dup2\n      mstore\n      0x20\n      add\n      0x00\n      keccak256\n        /* \"contracts/Pickr.sol\":4151:4161  msg.sender */\n      caller\n        /* \"contracts/Pickr.sol\":4123:4162  participants[codeHash].push(msg.sender) */\n      swap1\n      dup1\n      0x01\n      dup2\n      sload\n      add\n      dup1\n      dup3\n      sstore\n      dup1\n      swap2\n      pop\n      pop\n      0x01\n      swap1\n      sub\n      swap1\n      0x00\n      mstore\n      keccak256(0x00, 0x20)\n      add\n      0x00\n      swap1\n      swap2\n      swap1\n      swap2\n      swap1\n      swap2\n      0x0100\n      exp\n      dup2\n      sload\n      dup2\n      0xffffffffffffffffffffffffffffffffffffffff\n      mul\n      not\n      and\n      swap1\n      dup4\n      0xffffffffffffffffffffffffffffffffffffffff\n      and\n      mul\n      or\n      swap1\n      sstore\n      pop\n        /* \"contracts/Pickr.sol\":3458:4169  {... */\n      pop\n      pop\n        /* \"contracts/Pickr.sol\":3413:4169  function joinRoom(bytes32 codeHash) external {... */\n      pop\n      jump\t// out\n        /* \"contracts/Pickr.sol\":452:482  address public immutable owner */\n    tag_42:\n      immutable(\"0x05dee4192aaad4acb149f9615e8a72a761fc8cdb1d8b4e9c00fe66665f5a8184\")\n      dup2\n      jump\t// out\n        /* \"contracts/Pickr.sol\":762:1674  function createRoom(... */\n    tag_47:\n        /* \"contracts/Pickr.sol\":922:923  0 */\n      0x00\n        /* \"contracts/Pickr.sol\":909:918  msg.value */\n      callvalue\n        /* \"contracts/Pickr.sol\":909:923  msg.value == 0 */\n      sub\n        /* \"contracts/Pickr.sol\":905:954  if (msg.value == 0) revert ErrorDepositRequired() */\n      tag_129\n      jumpi\n        /* \"contracts/Pickr.sol\":932:954  ErrorDepositRequired() */\n      mload(0x40)\n      0x600f7bf400000000000000000000000000000000000000000000000000000000\n      dup2\n      mstore\n      0x04\n      add\n      mload(0x40)\n      dup1\n      swap2\n      sub\n      swap1\n      revert\n        /* \"contracts/Pickr.sol\":905:954  if (msg.value == 0) revert ErrorDepositRequired() */\n    tag_129:\n        /* \"contracts/Pickr.sol\":986:1000  minParticipant */\n      dup2\n        /* \"contracts/Pickr.sol\":969:983  maxParticipant */\n      dup2\n        /* \"contracts/Pickr.sol\":969:1000  maxParticipant < minParticipant */\n      lt\n        /* \"contracts/Pickr.sol\":965:1066  if (maxParticipant < minParticipant) {... */\n      iszero\n      tag_130\n      jumpi\n        /* \"contracts/Pickr.sol\":1023:1055  ErrorMaxParticipantLessThanMin() */\n      mload(0x40)\n      0xb3b6029c00000000000000000000000000000000000000000000000000000000\n      dup2\n      mstore\n      0x04\n      add\n      mload(0x40)\n      dup1\n      swap2\n      sub\n      swap1\n      revert\n        /* \"contracts/Pickr.sol\":965:1066  if (maxParticipant < minParticipant) {... */\n    tag_130:\n        /* \"contracts/Pickr.sol\":1097:1098  0 */\n      0x00\n        /* \"contracts/Pickr.sol\":1079:1093  minParticipant */\n      dup3\n        /* \"contracts/Pickr.sol\":1079:1098  minParticipant == 0 */\n      sub\n        /* \"contracts/Pickr.sol\":1075:1174  if (minParticipant == 0) {... */\n      tag_131\n      jumpi\n        /* \"contracts/Pickr.sol\":1121:1163  ErrorMinParticipantMustBeGreaterThanZero() */\n      mload(0x40)\n      0x530a986700000000000000000000000000000000000000000000000000000000\n      dup2\n      mstore\n      0x04\n      add\n      mload(0x40)\n      dup1\n      swap2\n      sub\n      swap1\n      revert\n        /* \"contracts/Pickr.sol\":1075:1174  if (minParticipant == 0) {... */\n    tag_131:\n        /* \"contracts/Pickr.sol\":1207:1208  0 */\n      0x00\n        /* \"contracts/Pickr.sol\":1199:1209  bytes32(0) */\n      0x00\n      shl\n        /* \"contracts/Pickr.sol\":1187:1195  codeHash */\n      dup4\n        /* \"contracts/Pickr.sol\":1187:1209  codeHash == bytes32(0) */\n      sub\n        /* \"contracts/Pickr.sol\":1183:1239  if (codeHash == bytes32(0)) revert ErrorCodeIsRequired() */\n      tag_132\n      jumpi\n        /* \"contracts/Pickr.sol\":1218:1239  ErrorCodeIsRequired() */\n      mload(0x40)\n      0x166cbdbe00000000000000000000000000000000000000000000000000000000\n      dup2\n      mstore\n      0x04\n      add\n      mload(0x40)\n      dup1\n      swap2\n      sub\n      swap1\n      revert\n        /* \"contracts/Pickr.sol\":1183:1239  if (codeHash == bytes32(0)) revert ErrorCodeIsRequired() */\n    tag_132:\n        /* \"contracts/Pickr.sol\":1253:1275  _isRoomExist(codeHash) */\n      tag_133\n        /* \"contracts/Pickr.sol\":1266:1274  codeHash */\n      dup4\n        /* \"contracts/Pickr.sol\":1253:1265  _isRoomExist */\n      tag_72\n        /* \"contracts/Pickr.sol\":1253:1275  _isRoomExist(codeHash) */\n      jump\t// in\n    tag_133:\n        /* \"contracts/Pickr.sol\":1249:1339  if (_isRoomExist(codeHash)) {... */\n      iszero\n      tag_134\n      jumpi\n        /* \"contracts/Pickr.sol\":1319:1327  codeHash */\n      dup3\n        /* \"contracts/Pickr.sol\":1298:1328  ErrorCodeAlreadyUsed(codeHash) */\n      mload(0x40)\n      0x4fec90c500000000000000000000000000000000000000000000000000000000\n      dup2\n      mstore\n      0x04\n      add\n      tag_135\n      swap2\n      swap1\n      tag_75\n      jump\t// in\n    tag_135:\n      mload(0x40)\n      dup1\n      swap2\n      sub\n      swap1\n      revert\n        /* \"contracts/Pickr.sol\":1249:1339  if (_isRoomExist(codeHash)) {... */\n    tag_134:\n        /* \"contracts/Pickr.sol\":1367:1618  Room(... */\n      mload(0x40)\n      dup1\n      0x0120\n      add\n      0x40\n      mstore\n      dup1\n        /* \"contracts/Pickr.sol\":1385:1395  msg.sender */\n      caller\n        /* \"contracts/Pickr.sol\":1367:1618  Room(... */\n      0xffffffffffffffffffffffffffffffffffffffff\n      and\n      dup2\n      mstore\n      0x20\n      add\n        /* \"contracts/Pickr.sol\":1409:1418  msg.value */\n      callvalue\n        /* \"contracts/Pickr.sol\":1367:1618  Room(... */\n      dup2\n      mstore\n      0x20\n      add\n        /* \"contracts/Pickr.sol\":1432:1449  RoomStatus.ACTIVE */\n      0x00\n        /* \"contracts/Pickr.sol\":1367:1618  Room(... */\n      0x02\n      dup2\n      gt\n      iszero\n      tag_136\n      jumpi\n      tag_137\n      tag_78\n      jump\t// in\n    tag_137:\n    tag_136:\n      dup2\n      mstore\n      0x20\n      add\n        /* \"contracts/Pickr.sol\":1463:1485  RoomAccessMode.PRIVATE */\n      0x01\n        /* \"contracts/Pickr.sol\":1367:1618  Room(... */\n      dup1\n      dup2\n      gt\n      iszero\n      tag_138\n      jumpi\n      tag_139\n      tag_78\n      jump\t// in\n    tag_139:\n    tag_138:\n      dup2\n      mstore\n      0x20\n      add\n        /* \"contracts/Pickr.sol\":1499:1513  maxParticipant */\n      dup3\n        /* \"contracts/Pickr.sol\":1367:1618  Room(... */\n      dup2\n      mstore\n      0x20\n      add\n        /* \"contracts/Pickr.sol\":1527:1541  minParticipant */\n      dup4\n        /* \"contracts/Pickr.sol\":1367:1618  Room(... */\n      dup2\n      mstore\n      0x20\n      add\n        /* \"contracts/Pickr.sol\":1555:1556  0 */\n      0x00\n        /* \"contracts/Pickr.sol\":1367:1618  Room(... */\n      dup2\n      mstore\n      0x20\n      add\n        /* \"contracts/Pickr.sol\":1570:1571  1 */\n      0x01\n        /* \"contracts/Pickr.sol\":1367:1618  Room(... */\n      dup2\n      mstore\n      0x20\n      add\n        /* \"contracts/Pickr.sol\":1592:1607  block.timestamp */\n      timestamp\n        /* \"contracts/Pickr.sol\":1367:1618  Room(... */\n      0xffffffffffffffff\n      and\n      dup2\n      mstore\n      pop\n        /* \"contracts/Pickr.sol\":1349:1354  rooms */\n      0x00\n        /* \"contracts/Pickr.sol\":1349:1364  rooms[codeHash] */\n      0x00\n        /* \"contracts/Pickr.sol\":1355:1363  codeHash */\n      dup6\n        /* \"contracts/Pickr.sol\":1349:1364  rooms[codeHash] */\n      dup2\n      mstore\n      0x20\n      add\n      swap1\n      dup2\n      mstore\n      0x20\n      add\n      0x00\n      keccak256\n        /* \"contracts/Pickr.sol\":1349:1618  rooms[codeHash] = Room(... */\n      0x00\n      dup3\n      add\n      mload\n      dup2\n      0x00\n      add\n      exp(0x0100, 0x00)\n      dup2\n      sload\n      dup2\n      0xffffffffffffffffffffffffffffffffffffffff\n      mul\n      not\n      and\n      swap1\n      dup4\n      0xffffffffffffffffffffffffffffffffffffffff\n      and\n      mul\n      or\n      swap1\n      sstore\n      pop\n      0x20\n      dup3\n      add\n      mload\n      dup2\n      0x01\n      add\n      sstore\n      0x40\n      dup3\n      add\n      mload\n      dup2\n      0x02\n      add\n      exp(0x0100, 0x00)\n      dup2\n      sload\n      dup2\n      0xff\n      mul\n      not\n      and\n      swap1\n      dup4\n      0x02\n      dup2\n      gt\n      iszero\n      tag_140\n      jumpi\n      tag_141\n      tag_78\n      jump\t// in\n    tag_141:\n    tag_140:\n      mul\n      or\n      swap1\n      sstore\n      pop\n      0x60\n      dup3\n      add\n      mload\n      dup2\n      0x02\n      add\n      exp(0x0100, 0x01)\n      dup2\n      sload\n      dup2\n      0xff\n      mul\n      not\n      and\n      swap1\n      dup4\n      0x01\n      dup2\n      gt\n      iszero\n      tag_142\n      jumpi\n      tag_143\n      tag_78\n      jump\t// in\n    tag_143:\n    tag_142:\n      mul\n      or\n      swap1\n      sstore\n      pop\n      0x80\n      dup3\n      add\n      mload\n      dup2\n      0x03\n      add\n      sstore\n      0xa0\n      dup3\n      add\n      mload\n      dup2\n      0x04\n      add\n      sstore\n      0xc0\n      dup3\n      add\n      mload\n      dup2\n      0x05\n      add\n      sstore\n      0xe0\n      dup3\n      add\n      mload\n      dup2\n      0x06\n      add\n      sstore\n      0x0100\n      dup3\n      add\n      mload\n      dup2\n      0x07\n      add\n      exp(0x0100, 0x00)\n      dup2\n      sload\n      dup2\n      0xffffffffffffffff\n      mul\n      not\n      and\n      swap1\n      dup4\n      0xffffffffffffffff\n      and\n      mul\n      or\n      swap1\n      sstore\n      pop\n      swap1\n      pop\n      pop\n        /* \"contracts/Pickr.sol\":1634:1667  RoomCreated(codeHash, msg.sender) */\n      0xcab422d6f970f05bf3bc5893a95c3c8601f68b4d92c10297cfd18e3e7c0195a8\n        /* \"contracts/Pickr.sol\":1646:1654  codeHash */\n      dup4\n        /* \"contracts/Pickr.sol\":1656:1666  msg.sender */\n      caller\n        /* \"contracts/Pickr.sol\":1634:1667  RoomCreated(codeHash, msg.sender) */\n      mload(0x40)\n      tag_144\n      swap3\n      swap2\n      swap1\n      tag_145\n      jump\t// in\n    tag_144:\n      mload(0x40)\n      dup1\n      swap2\n      sub\n      swap1\n      log1\n        /* \"contracts/Pickr.sol\":762:1674  function createRoom(... */\n      pop\n      pop\n      pop\n      jump\t// out\n        /* \"contracts/Pickr.sol\":2143:2578  function startRoom(bytes32 codeHash) external onlyCreator(codeHash) {... */\n    tag_51:\n        /* \"contracts/Pickr.sol\":2201:2209  codeHash */\n      dup1\n        /* \"contracts/Pickr.sol\":230:252  _isRoomExist(codeHash) */\n      tag_147\n        /* \"contracts/Pickr.sol\":243:251  codeHash */\n      dup2\n        /* \"contracts/Pickr.sol\":230:242  _isRoomExist */\n      tag_72\n        /* \"contracts/Pickr.sol\":230:252  _isRoomExist(codeHash) */\n      jump\t// in\n    tag_147:\n        /* \"contracts/Pickr.sol\":225:315  if (!_isRoomExist(codeHash)) {... */\n      tag_148\n      jumpi\n        /* \"contracts/Pickr.sol\":295:303  codeHash */\n      dup1\n        /* \"contracts/Pickr.sol\":275:304  ErrorRoomIsNotExist(codeHash) */\n      mload(0x40)\n      0xe286343900000000000000000000000000000000000000000000000000000000\n      dup2\n      mstore\n      0x04\n      add\n      tag_149\n      swap2\n      swap1\n      tag_75\n      jump\t// in\n    tag_149:\n      mload(0x40)\n      dup1\n      swap2\n      sub\n      swap1\n      revert\n        /* \"contracts/Pickr.sol\":225:315  if (!_isRoomExist(codeHash)) {... */\n    tag_148:\n        /* \"contracts/Pickr.sol\":342:347  rooms */\n      0x00\n        /* \"contracts/Pickr.sol\":342:357  rooms[codeHash] */\n      0x00\n        /* \"contracts/Pickr.sol\":348:356  codeHash */\n      dup3\n        /* \"contracts/Pickr.sol\":342:357  rooms[codeHash] */\n      dup2\n      mstore\n      0x20\n      add\n      swap1\n      dup2\n      mstore\n      0x20\n      add\n      0x00\n      keccak256\n        /* \"contracts/Pickr.sol\":342:365  rooms[codeHash].creator */\n      0x00\n      add\n      0x00\n      swap1\n      sload\n      swap1\n      0x0100\n      exp\n      swap1\n      div\n      0xffffffffffffffffffffffffffffffffffffffff\n      and\n        /* \"contracts/Pickr.sol\":328:365  msg.sender != rooms[codeHash].creator */\n      0xffffffffffffffffffffffffffffffffffffffff\n      and\n        /* \"contracts/Pickr.sol\":328:338  msg.sender */\n      caller\n        /* \"contracts/Pickr.sol\":328:365  msg.sender != rooms[codeHash].creator */\n      0xffffffffffffffffffffffffffffffffffffffff\n      and\n      eq\n        /* \"contracts/Pickr.sol\":324:429  if (msg.sender != rooms[codeHash].creator) {... */\n      tag_150\n      jumpi\n        /* \"contracts/Pickr.sol\":407:417  msg.sender */\n      caller\n        /* \"contracts/Pickr.sol\":388:418  ErrorNotAuthorized(msg.sender) */\n      mload(0x40)\n      0xd68affb700000000000000000000000000000000000000000000000000000000\n      dup2\n      mstore\n      0x04\n      add\n      tag_151\n      swap2\n      swap1\n      tag_30\n      jump\t// in\n    tag_151:\n      mload(0x40)\n      dup1\n      swap2\n      sub\n      swap1\n      revert\n        /* \"contracts/Pickr.sol\":324:429  if (msg.sender != rooms[codeHash].creator) {... */\n    tag_150:\n        /* \"contracts/Pickr.sol\":2221:2238  Room storage room */\n      0x00\n        /* \"contracts/Pickr.sol\":2241:2246  rooms */\n      0x00\n        /* \"contracts/Pickr.sol\":2241:2256  rooms[codeHash] */\n      0x00\n        /* \"contracts/Pickr.sol\":2247:2255  codeHash */\n      dup5\n        /* \"contracts/Pickr.sol\":2241:2256  rooms[codeHash] */\n      dup2\n      mstore\n      0x20\n      add\n      swap1\n      dup2\n      mstore\n      0x20\n      add\n      0x00\n      keccak256\n        /* \"contracts/Pickr.sol\":2221:2256  Room storage room = rooms[codeHash] */\n      swap1\n      pop\n        /* \"contracts/Pickr.sol\":2285:2302  RoomStatus.ACTIVE */\n      0x00\n        /* \"contracts/Pickr.sol\":2270:2302  room.status != RoomStatus.ACTIVE */\n      0x02\n      dup2\n      gt\n      iszero\n      tag_153\n      jumpi\n      tag_154\n      tag_78\n      jump\t// in\n    tag_154:\n    tag_153:\n        /* \"contracts/Pickr.sol\":2270:2274  room */\n      dup2\n        /* \"contracts/Pickr.sol\":2270:2281  room.status */\n      0x02\n      add\n      0x00\n      swap1\n      sload\n      swap1\n      0x0100\n      exp\n      swap1\n      div\n      0xff\n      and\n        /* \"contracts/Pickr.sol\":2270:2302  room.status != RoomStatus.ACTIVE */\n      0x02\n      dup2\n      gt\n      iszero\n      tag_155\n      jumpi\n      tag_156\n      tag_78\n      jump\t// in\n    tag_156:\n    tag_155:\n      eq\n        /* \"contracts/Pickr.sol\":2266:2366  if (room.status != RoomStatus.ACTIVE) {... */\n      tag_157\n      jumpi\n        /* \"contracts/Pickr.sol\":2346:2354  codeHash */\n      dup3\n        /* \"contracts/Pickr.sol\":2325:2355  ErrorRoomIsNotActive(codeHash) */\n      mload(0x40)\n      0xd528e2af00000000000000000000000000000000000000000000000000000000\n      dup2\n      mstore\n      0x04\n      add\n      tag_158\n      swap2\n      swap1\n      tag_75\n      jump\t// in\n    tag_158:\n      mload(0x40)\n      dup1\n      swap2\n      sub\n      swap1\n      revert\n        /* \"contracts/Pickr.sol\":2266:2366  if (room.status != RoomStatus.ACTIVE) {... */\n    tag_157:\n        /* \"contracts/Pickr.sol\":2404:2408  room */\n      dup1\n        /* \"contracts/Pickr.sol\":2404:2423  room.minParticipant */\n      0x04\n      add\n      sload\n        /* \"contracts/Pickr.sol\":2380:2384  room */\n      dup2\n        /* \"contracts/Pickr.sol\":2380:2401  room.totalParticipant */\n      0x05\n      add\n      sload\n        /* \"contracts/Pickr.sol\":2380:2423  room.totalParticipant < room.minParticipant */\n      lt\n        /* \"contracts/Pickr.sol\":2376:2492  if (room.totalParticipant < room.minParticipant) {... */\n      iszero\n      tag_159\n      jumpi\n        /* \"contracts/Pickr.sol\":2472:2480  codeHash */\n      dup3\n        /* \"contracts/Pickr.sol\":2446:2481  ErrorNotEnoughParticipant(codeHash) */\n      mload(0x40)\n      0x2cf3c5c700000000000000000000000000000000000000000000000000000000\n      dup2\n      mstore\n      0x04\n      add\n      tag_160\n      swap2\n      swap1\n      tag_75\n      jump\t// in\n    tag_160:\n      mload(0x40)\n      dup1\n      swap2\n      sub\n      swap1\n      revert\n        /* \"contracts/Pickr.sol\":2376:2492  if (room.totalParticipant < room.minParticipant) {... */\n    tag_159:\n        /* \"contracts/Pickr.sol\":2516:2534  RoomStatus.STARTED */\n      0x02\n        /* \"contracts/Pickr.sol\":2502:2506  room */\n      dup2\n        /* \"contracts/Pickr.sol\":2502:2513  room.status */\n      0x02\n      add\n      0x00\n        /* \"contracts/Pickr.sol\":2502:2534  room.status = RoomStatus.STARTED */\n      0x0100\n      exp\n      dup2\n      sload\n      dup2\n      0xff\n      mul\n      not\n      and\n      swap1\n      dup4\n      0x02\n      dup2\n      gt\n      iszero\n      tag_161\n      jumpi\n      tag_162\n      tag_78\n      jump\t// in\n    tag_162:\n    tag_161:\n      mul\n      or\n      swap1\n      sstore\n      pop\n        /* \"contracts/Pickr.sol\":2550:2571  RoomStarted(codeHash) */\n      0xca41b6839994b542f32e3c296407977bee21f64cb2b541986488bbfa548248ef\n        /* \"contracts/Pickr.sol\":2562:2570  codeHash */\n      dup4\n        /* \"contracts/Pickr.sol\":2550:2571  RoomStarted(codeHash) */\n      mload(0x40)\n      tag_163\n      swap2\n      swap1\n      tag_75\n      jump\t// in\n    tag_163:\n      mload(0x40)\n      dup1\n      swap2\n      sub\n      swap1\n      log1\n        /* \"contracts/Pickr.sol\":2211:2578  {... */\n      pop\n        /* \"contracts/Pickr.sol\":2143:2578  function startRoom(bytes32 codeHash) external onlyCreator(codeHash) {... */\n      pop\n      pop\n      jump\t// out\n        /* \"contracts/Pickr.sol\":5028:5519  function closeRoom(bytes32 codeHash) external onlyCreator(codeHash) {... */\n    tag_55:\n        /* \"contracts/Pickr.sol\":5086:5094  codeHash */\n      dup1\n        /* \"contracts/Pickr.sol\":230:252  _isRoomExist(codeHash) */\n      tag_165\n        /* \"contracts/Pickr.sol\":243:251  codeHash */\n      dup2\n        /* \"contracts/Pickr.sol\":230:242  _isRoomExist */\n      tag_72\n        /* \"contracts/Pickr.sol\":230:252  _isRoomExist(codeHash) */\n      jump\t// in\n    tag_165:\n        /* \"contracts/Pickr.sol\":225:315  if (!_isRoomExist(codeHash)) {... */\n      tag_166\n      jumpi\n        /* \"contracts/Pickr.sol\":295:303  codeHash */\n      dup1\n        /* \"contracts/Pickr.sol\":275:304  ErrorRoomIsNotExist(codeHash) */\n      mload(0x40)\n      0xe286343900000000000000000000000000000000000000000000000000000000\n      dup2\n      mstore\n      0x04\n      add\n      tag_167\n      swap2\n      swap1\n      tag_75\n      jump\t// in\n    tag_167:\n      mload(0x40)\n      dup1\n      swap2\n      sub\n      swap1\n      revert\n        /* \"contracts/Pickr.sol\":225:315  if (!_isRoomExist(codeHash)) {... */\n    tag_166:\n        /* \"contracts/Pickr.sol\":342:347  rooms */\n      0x00\n        /* \"contracts/Pickr.sol\":342:357  rooms[codeHash] */\n      0x00\n        /* \"contracts/Pickr.sol\":348:356  codeHash */\n      dup3\n        /* \"contracts/Pickr.sol\":342:357  rooms[codeHash] */\n      dup2\n      mstore\n      0x20\n      add\n      swap1\n      dup2\n      mstore\n      0x20\n      add\n      0x00\n      keccak256\n        /* \"contracts/Pickr.sol\":342:365  rooms[codeHash].creator */\n      0x00\n      add\n      0x00\n      swap1\n      sload\n      swap1\n      0x0100\n      exp\n      swap1\n      div\n      0xffffffffffffffffffffffffffffffffffffffff\n      and\n        /* \"contracts/Pickr.sol\":328:365  msg.sender != rooms[codeHash].creator */\n      0xffffffffffffffffffffffffffffffffffffffff\n      and\n        /* \"contracts/Pickr.sol\":328:338  msg.sender */\n      caller\n        /* \"contracts/Pickr.sol\":328:365  msg.sender != rooms[codeHash].creator */\n      0xffffffffffffffffffffffffffffffffffffffff\n      and\n      eq\n        /* \"contracts/Pickr.sol\":324:429  if (msg.sender != rooms[codeHash].creator) {... */\n      tag_168\n      jumpi\n        /* \"contracts/Pickr.sol\":407:417  msg.sender */\n      caller\n        /* \"contracts/Pickr.sol\":388:418  ErrorNotAuthorized(msg.sender) */\n      mload(0x40)\n      0xd68affb700000000000000000000000000000000000000000000000000000000\n      dup2\n      mstore\n      0x04\n      add\n      tag_169\n      swap2\n      swap1\n      tag_30\n      jump\t// in\n    tag_169:\n      mload(0x40)\n      dup1\n      swap2\n      sub\n      swap1\n      revert\n        /* \"contracts/Pickr.sol\":324:429  if (msg.sender != rooms[codeHash].creator) {... */\n    tag_168:\n        /* \"contracts/Pickr.sol\":5106:5123  Room storage room */\n      0x00\n        /* \"contracts/Pickr.sol\":5126:5131  rooms */\n      0x00\n        /* \"contracts/Pickr.sol\":5126:5141  rooms[codeHash] */\n      0x00\n        /* \"contracts/Pickr.sol\":5132:5140  codeHash */\n      dup5\n        /* \"contracts/Pickr.sol\":5126:5141  rooms[codeHash] */\n      dup2\n      mstore\n      0x20\n      add\n      swap1\n      dup2\n      mstore\n      0x20\n      add\n      0x00\n      keccak256\n        /* \"contracts/Pickr.sol\":5106:5141  Room storage room = rooms[codeHash] */\n      swap1\n      pop\n        /* \"contracts/Pickr.sol\":5170:5187  RoomStatus.ACTIVE */\n      0x00\n        /* \"contracts/Pickr.sol\":5155:5187  room.status != RoomStatus.ACTIVE */\n      0x02\n      dup2\n      gt\n      iszero\n      tag_171\n      jumpi\n      tag_172\n      tag_78\n      jump\t// in\n    tag_172:\n    tag_171:\n        /* \"contracts/Pickr.sol\":5155:5159  room */\n      dup2\n        /* \"contracts/Pickr.sol\":5155:5166  room.status */\n      0x02\n      add\n      0x00\n      swap1\n      sload\n      swap1\n      0x0100\n      exp\n      swap1\n      div\n      0xff\n      and\n        /* \"contracts/Pickr.sol\":5155:5187  room.status != RoomStatus.ACTIVE */\n      0x02\n      dup2\n      gt\n      iszero\n      tag_173\n      jumpi\n      tag_174\n      tag_78\n      jump\t// in\n    tag_174:\n    tag_173:\n      eq\n        /* \"contracts/Pickr.sol\":5151:5251  if (room.status != RoomStatus.ACTIVE) {... */\n      tag_175\n      jumpi\n        /* \"contracts/Pickr.sol\":5231:5239  codeHash */\n      dup3\n        /* \"contracts/Pickr.sol\":5210:5240  ErrorRoomIsNotActive(codeHash) */\n      mload(0x40)\n      0xd528e2af00000000000000000000000000000000000000000000000000000000\n      dup2\n      mstore\n      0x04\n      add\n      tag_176\n      swap2\n      swap1\n      tag_75\n      jump\t// in\n    tag_176:\n      mload(0x40)\n      dup1\n      swap2\n      sub\n      swap1\n      revert\n        /* \"contracts/Pickr.sol\":5151:5251  if (room.status != RoomStatus.ACTIVE) {... */\n    tag_175:\n        /* \"contracts/Pickr.sol\":5261:5275  uint256 refund */\n      0x00\n        /* \"contracts/Pickr.sol\":5278:5282  room */\n      dup2\n        /* \"contracts/Pickr.sol\":5278:5290  room.balance */\n      0x01\n      add\n      sload\n        /* \"contracts/Pickr.sol\":5261:5290  uint256 refund = room.balance */\n      swap1\n      pop\n        /* \"contracts/Pickr.sol\":5315:5316  0 */\n      0x00\n        /* \"contracts/Pickr.sol\":5300:5304  room */\n      dup3\n        /* \"contracts/Pickr.sol\":5300:5312  room.balance */\n      0x01\n      add\n        /* \"contracts/Pickr.sol\":5300:5316  room.balance = 0 */\n      dup2\n      swap1\n      sstore\n      pop\n        /* \"contracts/Pickr.sol\":5340:5359  RoomStatus.INACTIVE */\n      0x01\n        /* \"contracts/Pickr.sol\":5326:5330  room */\n      dup3\n        /* \"contracts/Pickr.sol\":5326:5337  room.status */\n      0x02\n      add\n      0x00\n        /* \"contracts/Pickr.sol\":5326:5359  room.status = RoomStatus.INACTIVE */\n      0x0100\n      exp\n      dup2\n      sload\n      dup2\n      0xff\n      mul\n      not\n      and\n      swap1\n      dup4\n      0x02\n      dup2\n      gt\n      iszero\n      tag_177\n      jumpi\n      tag_178\n      tag_78\n      jump\t// in\n    tag_178:\n    tag_177:\n      mul\n      or\n      swap1\n      sstore\n      pop\n        /* \"contracts/Pickr.sol\":5383:5384  0 */\n      0x00\n        /* \"contracts/Pickr.sol\":5374:5380  refund */\n      dup2\n        /* \"contracts/Pickr.sol\":5374:5384  refund > 0 */\n      gt\n        /* \"contracts/Pickr.sol\":5370:5513  if (refund > 0) {... */\n      iszero\n      tag_179\n      jumpi\n        /* \"contracts/Pickr.sol\":5401:5408  bool ok */\n      0x00\n        /* \"contracts/Pickr.sol\":5422:5426  room */\n      dup3\n        /* \"contracts/Pickr.sol\":5422:5434  room.creator */\n      0x00\n      add\n      0x00\n      swap1\n      sload\n      swap1\n      0x0100\n      exp\n      swap1\n      div\n      0xffffffffffffffffffffffffffffffffffffffff\n      and\n        /* \"contracts/Pickr.sol\":5414:5440  payable(room.creator).call */\n      0xffffffffffffffffffffffffffffffffffffffff\n      and\n        /* \"contracts/Pickr.sol\":5448:5454  refund */\n      dup3\n        /* \"contracts/Pickr.sol\":5414:5459  payable(room.creator).call{value: refund}(\"\") */\n      mload(0x40)\n      tag_180\n      swap1\n      tag_181\n      jump\t// in\n    tag_180:\n      0x00\n      mload(0x40)\n      dup1\n      dup4\n      sub\n      dup2\n      dup6\n      dup8\n      gas\n      call\n      swap3\n      pop\n      pop\n      pop\n      returndatasize\n      dup1\n      0x00\n      dup2\n      eq\n      tag_184\n      jumpi\n      mload(0x40)\n      swap2\n      pop\n      and(add(returndatasize, 0x3f), not(0x1f))\n      dup3\n      add\n      0x40\n      mstore\n      returndatasize\n      dup3\n      mstore\n      returndatasize\n      0x00\n      0x20\n      dup5\n      add\n      returndatacopy\n      jump(tag_183)\n    tag_184:\n      0x60\n      swap2\n      pop\n    tag_183:\n      pop\n        /* \"contracts/Pickr.sol\":5400:5459  (bool ok, ) = payable(room.creator).call{value: refund}(\"\") */\n      pop\n      swap1\n      pop\n        /* \"contracts/Pickr.sol\":5481:5483  ok */\n      dup1\n        /* \"contracts/Pickr.sol\":5473:5502  require(ok, \"Refund failure\") */\n      tag_185\n      jumpi\n      mload(0x40)\n      0x08c379a000000000000000000000000000000000000000000000000000000000\n      dup2\n      mstore\n      0x04\n      add\n      tag_186\n      swap1\n      tag_187\n      jump\t// in\n    tag_186:\n      mload(0x40)\n      dup1\n      swap2\n      sub\n      swap1\n      revert\n    tag_185:\n        /* \"contracts/Pickr.sol\":5386:5513  {... */\n      pop\n        /* \"contracts/Pickr.sol\":5370:5513  if (refund > 0) {... */\n    tag_179:\n        /* \"contracts/Pickr.sol\":5096:5519  {... */\n      pop\n      pop\n        /* \"contracts/Pickr.sol\":5028:5519  function closeRoom(bytes32 codeHash) external onlyCreator(codeHash) {... */\n      pop\n      pop\n      jump\t// out\n        /* \"contracts/Pickr.sol\":1680:2137  function deposit(bytes32 codeHash) external payable onlyCreator(codeHash) {... */\n    tag_58:\n        /* \"contracts/Pickr.sol\":1744:1752  codeHash */\n      dup1\n        /* \"contracts/Pickr.sol\":230:252  _isRoomExist(codeHash) */\n      tag_189\n        /* \"contracts/Pickr.sol\":243:251  codeHash */\n      dup2\n        /* \"contracts/Pickr.sol\":230:242  _isRoomExist */\n      tag_72\n        /* \"contracts/Pickr.sol\":230:252  _isRoomExist(codeHash) */\n      jump\t// in\n    tag_189:\n        /* \"contracts/Pickr.sol\":225:315  if (!_isRoomExist(codeHash)) {... */\n      tag_190\n      jumpi\n        /* \"contracts/Pickr.sol\":295:303  codeHash */\n      dup1\n        /* \"contracts/Pickr.sol\":275:304  ErrorRoomIsNotExist(codeHash) */\n      mload(0x40)\n      0xe286343900000000000000000000000000000000000000000000000000000000\n      dup2\n      mstore\n      0x04\n      add\n      tag_191\n      swap2\n      swap1\n      tag_75\n      jump\t// in\n    tag_191:\n      mload(0x40)\n      dup1\n      swap2\n      sub\n      swap1\n      revert\n        /* \"contracts/Pickr.sol\":225:315  if (!_isRoomExist(codeHash)) {... */\n    tag_190:\n        /* \"contracts/Pickr.sol\":342:347  rooms */\n      0x00\n        /* \"contracts/Pickr.sol\":342:357  rooms[codeHash] */\n      0x00\n        /* \"contracts/Pickr.sol\":348:356  codeHash */\n      dup3\n        /* \"contracts/Pickr.sol\":342:357  rooms[codeHash] */\n      dup2\n      mstore\n      0x20\n      add\n      swap1\n      dup2\n      mstore\n      0x20\n      add\n      0x00\n      keccak256\n        /* \"contracts/Pickr.sol\":342:365  rooms[codeHash].creator */\n      0x00\n      add\n      0x00\n      swap1\n      sload\n      swap1\n      0x0100\n      exp\n      swap1\n      div\n      0xffffffffffffffffffffffffffffffffffffffff\n      and\n        /* \"contracts/Pickr.sol\":328:365  msg.sender != rooms[codeHash].creator */\n      0xffffffffffffffffffffffffffffffffffffffff\n      and\n        /* \"contracts/Pickr.sol\":328:338  msg.sender */\n      caller\n        /* \"contracts/Pickr.sol\":328:365  msg.sender != rooms[codeHash].creator */\n      0xffffffffffffffffffffffffffffffffffffffff\n      and\n      eq\n        /* \"contracts/Pickr.sol\":324:429  if (msg.sender != rooms[codeHash].creator) {... */\n      tag_192\n      jumpi\n        /* \"contracts/Pickr.sol\":407:417  msg.sender */\n      caller\n        /* \"contracts/Pickr.sol\":388:418  ErrorNotAuthorized(msg.sender) */\n      mload(0x40)\n      0xd68affb700000000000000000000000000000000000000000000000000000000\n      dup2\n      mstore\n      0x04\n      add\n      tag_193\n      swap2\n      swap1\n      tag_30\n      jump\t// in\n    tag_193:\n      mload(0x40)\n      dup1\n      swap2\n      sub\n      swap1\n      revert\n        /* \"contracts/Pickr.sol\":324:429  if (msg.sender != rooms[codeHash].creator) {... */\n    tag_192:\n        /* \"contracts/Pickr.sol\":1769:1791  _isRoomExist(codeHash) */\n      tag_195\n        /* \"contracts/Pickr.sol\":1782:1790  codeHash */\n      dup3\n        /* \"contracts/Pickr.sol\":1769:1781  _isRoomExist */\n      tag_72\n        /* \"contracts/Pickr.sol\":1769:1791  _isRoomExist(codeHash) */\n      jump\t// in\n    tag_195:\n        /* \"contracts/Pickr.sol\":1764:1829  if (!_isRoomExist(codeHash)) revert ErrorRoomIsNotExist(codeHash) */\n      tag_196\n      jumpi\n        /* \"contracts/Pickr.sol\":1820:1828  codeHash */\n      dup2\n        /* \"contracts/Pickr.sol\":1800:1829  ErrorRoomIsNotExist(codeHash) */\n      mload(0x40)\n      0xe286343900000000000000000000000000000000000000000000000000000000\n      dup2\n      mstore\n      0x04\n      add\n      tag_197\n      swap2\n      swap1\n      tag_75\n      jump\t// in\n    tag_197:\n      mload(0x40)\n      dup1\n      swap2\n      sub\n      swap1\n      revert\n        /* \"contracts/Pickr.sol\":1764:1829  if (!_isRoomExist(codeHash)) revert ErrorRoomIsNotExist(codeHash) */\n    tag_196:\n        /* \"contracts/Pickr.sol\":1840:1857  Room storage room */\n      0x00\n        /* \"contracts/Pickr.sol\":1860:1865  rooms */\n      0x00\n        /* \"contracts/Pickr.sol\":1860:1875  rooms[codeHash] */\n      0x00\n        /* \"contracts/Pickr.sol\":1866:1874  codeHash */\n      dup5\n        /* \"contracts/Pickr.sol\":1860:1875  rooms[codeHash] */\n      dup2\n      mstore\n      0x20\n      add\n      swap1\n      dup2\n      mstore\n      0x20\n      add\n      0x00\n      keccak256\n        /* \"contracts/Pickr.sol\":1840:1875  Room storage room = rooms[codeHash] */\n      swap1\n      pop\n        /* \"contracts/Pickr.sol\":1904:1921  RoomStatus.ACTIVE */\n      0x00\n        /* \"contracts/Pickr.sol\":1889:1921  room.status != RoomStatus.ACTIVE */\n      0x02\n      dup2\n      gt\n      iszero\n      tag_198\n      jumpi\n      tag_199\n      tag_78\n      jump\t// in\n    tag_199:\n    tag_198:\n        /* \"contracts/Pickr.sol\":1889:1893  room */\n      dup2\n        /* \"contracts/Pickr.sol\":1889:1900  room.status */\n      0x02\n      add\n      0x00\n      swap1\n      sload\n      swap1\n      0x0100\n      exp\n      swap1\n      div\n      0xff\n      and\n        /* \"contracts/Pickr.sol\":1889:1921  room.status != RoomStatus.ACTIVE */\n      0x02\n      dup2\n      gt\n      iszero\n      tag_200\n      jumpi\n      tag_201\n      tag_78\n      jump\t// in\n    tag_201:\n    tag_200:\n      eq\n        /* \"contracts/Pickr.sol\":1885:1985  if (room.status != RoomStatus.ACTIVE) {... */\n      tag_202\n      jumpi\n        /* \"contracts/Pickr.sol\":1965:1973  codeHash */\n      dup3\n        /* \"contracts/Pickr.sol\":1944:1974  ErrorRoomIsNotActive(codeHash) */\n      mload(0x40)\n      0xd528e2af00000000000000000000000000000000000000000000000000000000\n      dup2\n      mstore\n      0x04\n      add\n      tag_203\n      swap2\n      swap1\n      tag_75\n      jump\t// in\n    tag_203:\n      mload(0x40)\n      dup1\n      swap2\n      sub\n      swap1\n      revert\n        /* \"contracts/Pickr.sol\":1885:1985  if (room.status != RoomStatus.ACTIVE) {... */\n    tag_202:\n        /* \"contracts/Pickr.sol\":2012:2013  0 */\n      0x00\n        /* \"contracts/Pickr.sol\":1999:2008  msg.value */\n      callvalue\n        /* \"contracts/Pickr.sol\":1999:2013  msg.value == 0 */\n      sub\n        /* \"contracts/Pickr.sol\":1995:2044  if (msg.value == 0) revert ErrorDepositRequired() */\n      tag_204\n      jumpi\n        /* \"contracts/Pickr.sol\":2022:2044  ErrorDepositRequired() */\n      mload(0x40)\n      0x600f7bf400000000000000000000000000000000000000000000000000000000\n      dup2\n      mstore\n      0x04\n      add\n      mload(0x40)\n      dup1\n      swap2\n      sub\n      swap1\n      revert\n        /* \"contracts/Pickr.sol\":1995:2044  if (msg.value == 0) revert ErrorDepositRequired() */\n    tag_204:\n        /* \"contracts/Pickr.sol\":2071:2080  msg.value */\n      callvalue\n        /* \"contracts/Pickr.sol\":2055:2059  room */\n      dup2\n        /* \"contracts/Pickr.sol\":2055:2067  room.balance */\n      0x01\n      add\n      0x00\n        /* \"contracts/Pickr.sol\":2055:2080  room.balance += msg.value */\n      dup3\n      dup3\n      sload\n      tag_205\n      swap2\n      swap1\n      tag_206\n      jump\t// in\n    tag_205:\n      swap3\n      pop\n      pop\n      dup2\n      swap1\n      sstore\n      pop\n        /* \"contracts/Pickr.sol\":2096:2130  RoomDeposited(codeHash, msg.value) */\n      0xd4fc1b8fbc973bf54caf06a27f82ebb767e57dab4c4f75d9ae83cebdf14ce983\n        /* \"contracts/Pickr.sol\":2110:2118  codeHash */\n      dup4\n        /* \"contracts/Pickr.sol\":2120:2129  msg.value */\n      callvalue\n        /* \"contracts/Pickr.sol\":2096:2130  RoomDeposited(codeHash, msg.value) */\n      mload(0x40)\n      tag_207\n      swap3\n      swap2\n      swap1\n      tag_208\n      jump\t// in\n    tag_207:\n      mload(0x40)\n      dup1\n      swap2\n      sub\n      swap1\n      log1\n        /* \"contracts/Pickr.sol\":1754:2137  {... */\n      pop\n        /* \"contracts/Pickr.sol\":1680:2137  function deposit(bytes32 codeHash) external payable onlyCreator(codeHash) {... */\n      pop\n      pop\n      jump\t// out\n        /* \"contracts/Pickr.sol\":2584:3407  function winnerSelected(... */\n    tag_63:\n        /* \"contracts/Pickr.sol\":2685:2693  codeHash */\n      dup2\n        /* \"contracts/Pickr.sol\":230:252  _isRoomExist(codeHash) */\n      tag_210\n        /* \"contracts/Pickr.sol\":243:251  codeHash */\n      dup2\n        /* \"contracts/Pickr.sol\":230:242  _isRoomExist */\n      tag_72\n        /* \"contracts/Pickr.sol\":230:252  _isRoomExist(codeHash) */\n      jump\t// in\n    tag_210:\n        /* \"contracts/Pickr.sol\":225:315  if (!_isRoomExist(codeHash)) {... */\n      tag_211\n      jumpi\n        /* \"contracts/Pickr.sol\":295:303  codeHash */\n      dup1\n        /* \"contracts/Pickr.sol\":275:304  ErrorRoomIsNotExist(codeHash) */\n      mload(0x40)\n      0xe286343900000000000000000000000000000000000000000000000000000000\n      dup2\n      mstore\n      0x04\n      add\n      tag_212\n      swap2\n      swap1\n      tag_75\n      jump\t// in\n    tag_212:\n      mload(0x40)\n      dup1\n      swap2\n      sub\n      swap1\n      revert\n        /* \"contracts/Pickr.sol\":225:315  if (!_isRoomExist(codeHash)) {... */\n    tag_211:\n        /* \"contracts/Pickr.sol\":342:347  rooms */\n      0x00\n        /* \"contracts/Pickr.sol\":342:357  rooms[codeHash] */\n      0x00\n        /* \"contracts/Pickr.sol\":348:356  codeHash */\n      dup3\n        /* \"contracts/Pickr.sol\":342:357  rooms[codeHash] */\n      dup2\n      mstore\n      0x20\n      add\n      swap1\n      dup2\n      mstore\n      0x20\n      add\n      0x00\n      keccak256\n        /* \"contracts/Pickr.sol\":342:365  rooms[codeHash].creator */\n      0x00\n      add\n      0x00\n      swap1\n      sload\n      swap1\n      0x0100\n      exp\n      swap1\n      div\n      0xffffffffffffffffffffffffffffffffffffffff\n      and\n        /* \"contracts/Pickr.sol\":328:365  msg.sender != rooms[codeHash].creator */\n      0xffffffffffffffffffffffffffffffffffffffff\n      and\n        /* \"contracts/Pickr.sol\":328:338  msg.sender */\n      caller\n        /* \"contracts/Pickr.sol\":328:365  msg.sender != rooms[codeHash].creator */\n      0xffffffffffffffffffffffffffffffffffffffff\n      and\n      eq\n        /* \"contracts/Pickr.sol\":324:429  if (msg.sender != rooms[codeHash].creator) {... */\n      tag_213\n      jumpi\n        /* \"contracts/Pickr.sol\":407:417  msg.sender */\n      caller\n        /* \"contracts/Pickr.sol\":388:418  ErrorNotAuthorized(msg.sender) */\n      mload(0x40)\n      0xd68affb700000000000000000000000000000000000000000000000000000000\n      dup2\n      mstore\n      0x04\n      add\n      tag_214\n      swap2\n      swap1\n      tag_30\n      jump\t// in\n    tag_214:\n      mload(0x40)\n      dup1\n      swap2\n      sub\n      swap1\n      revert\n        /* \"contracts/Pickr.sol\":324:429  if (msg.sender != rooms[codeHash].creator) {... */\n    tag_213:\n        /* \"contracts/Pickr.sol\":2705:2722  Room storage room */\n      0x00\n        /* \"contracts/Pickr.sol\":2725:2730  rooms */\n      0x00\n        /* \"contracts/Pickr.sol\":2725:2740  rooms[codeHash] */\n      0x00\n        /* \"contracts/Pickr.sol\":2731:2739  codeHash */\n      dup6\n        /* \"contracts/Pickr.sol\":2725:2740  rooms[codeHash] */\n      dup2\n      mstore\n      0x20\n      add\n      swap1\n      dup2\n      mstore\n      0x20\n      add\n      0x00\n      keccak256\n        /* \"contracts/Pickr.sol\":2705:2740  Room storage room = rooms[codeHash] */\n      swap1\n      pop\n        /* \"contracts/Pickr.sol\":2769:2787  RoomStatus.STARTED */\n      0x02\n        /* \"contracts/Pickr.sol\":2754:2787  room.status != RoomStatus.STARTED */\n      dup1\n      dup2\n      gt\n      iszero\n      tag_216\n      jumpi\n      tag_217\n      tag_78\n      jump\t// in\n    tag_217:\n    tag_216:\n        /* \"contracts/Pickr.sol\":2754:2758  room */\n      dup2\n        /* \"contracts/Pickr.sol\":2754:2765  room.status */\n      0x02\n      add\n      0x00\n      swap1\n      sload\n      swap1\n      0x0100\n      exp\n      swap1\n      div\n      0xff\n      and\n        /* \"contracts/Pickr.sol\":2754:2787  room.status != RoomStatus.STARTED */\n      0x02\n      dup2\n      gt\n      iszero\n      tag_218\n      jumpi\n      tag_219\n      tag_78\n      jump\t// in\n    tag_219:\n    tag_218:\n      eq\n        /* \"contracts/Pickr.sol\":2750:2852  if (room.status != RoomStatus.STARTED) {... */\n      tag_220\n      jumpi\n        /* \"contracts/Pickr.sol\":2832:2840  codeHash */\n      dup4\n        /* \"contracts/Pickr.sol\":2810:2841  ErrorRoomIsNotStarted(codeHash) */\n      mload(0x40)\n      0xd750f8d900000000000000000000000000000000000000000000000000000000\n      dup2\n      mstore\n      0x04\n      add\n      tag_221\n      swap2\n      swap1\n      tag_75\n      jump\t// in\n    tag_221:\n      mload(0x40)\n      dup1\n      swap2\n      sub\n      swap1\n      revert\n        /* \"contracts/Pickr.sol\":2750:2852  if (room.status != RoomStatus.STARTED) {... */\n    tag_220:\n        /* \"contracts/Pickr.sol\":2883:2884  0 */\n      0x00\n        /* \"contracts/Pickr.sol\":2865:2885  winner == address(0) */\n      0xffffffffffffffffffffffffffffffffffffffff\n      and\n        /* \"contracts/Pickr.sol\":2865:2871  winner */\n      dup4\n        /* \"contracts/Pickr.sol\":2865:2885  winner == address(0) */\n      0xffffffffffffffffffffffffffffffffffffffff\n      and\n      sub\n        /* \"contracts/Pickr.sol\":2861:2922  if (winner == address(0)) revert ErrorInvalidWinner(codeHash) */\n      tag_222\n      jumpi\n        /* \"contracts/Pickr.sol\":2913:2921  codeHash */\n      dup4\n        /* \"contracts/Pickr.sol\":2894:2922  ErrorInvalidWinner(codeHash) */\n      mload(0x40)\n      0xfe23ea1f00000000000000000000000000000000000000000000000000000000\n      dup2\n      mstore\n      0x04\n      add\n      tag_223\n      swap2\n      swap1\n      tag_75\n      jump\t// in\n    tag_223:\n      mload(0x40)\n      dup1\n      swap2\n      sub\n      swap1\n      revert\n        /* \"contracts/Pickr.sol\":2861:2922  if (winner == address(0)) revert ErrorInvalidWinner(codeHash) */\n    tag_222:\n        /* \"contracts/Pickr.sol\":2937:2946  hasJoined */\n      0x01\n        /* \"contracts/Pickr.sol\":2937:2956  hasJoined[codeHash] */\n      0x00\n        /* \"contracts/Pickr.sol\":2947:2955  codeHash */\n      dup6\n        /* \"contracts/Pickr.sol\":2937:2956  hasJoined[codeHash] */\n      dup2\n      mstore\n      0x20\n      add\n      swap1\n      dup2\n      mstore\n      0x20\n      add\n      0x00\n      keccak256\n        /* \"contracts/Pickr.sol\":2937:2964  hasJoined[codeHash][winner] */\n      0x00\n        /* \"contracts/Pickr.sol\":2957:2963  winner */\n      dup5\n        /* \"contracts/Pickr.sol\":2937:2964  hasJoined[codeHash][winner] */\n      0xffffffffffffffffffffffffffffffffffffffff\n      and\n      0xffffffffffffffffffffffffffffffffffffffff\n      and\n      dup2\n      mstore\n      0x20\n      add\n      swap1\n      dup2\n      mstore\n      0x20\n      add\n      0x00\n      keccak256\n      0x00\n      swap1\n      sload\n      swap1\n      0x0100\n      exp\n      swap1\n      div\n      0xff\n      and\n        /* \"contracts/Pickr.sol\":2932:3044  if (!hasJoined[codeHash][winner]) {... */\n      tag_224\n      jumpi\n        /* \"contracts/Pickr.sol\":3016:3024  codeHash */\n      dup4\n        /* \"contracts/Pickr.sol\":3026:3032  winner */\n      dup4\n        /* \"contracts/Pickr.sol\":2987:3033  ErrorAddressIsNotParticipant(codeHash, winner) */\n      mload(0x40)\n      0xe66163eb00000000000000000000000000000000000000000000000000000000\n      dup2\n      mstore\n      0x04\n      add\n      tag_225\n      swap3\n      swap2\n      swap1\n      tag_145\n      jump\t// in\n    tag_225:\n      mload(0x40)\n      dup1\n      swap2\n      sub\n      swap1\n      revert\n        /* \"contracts/Pickr.sol\":2932:3044  if (!hasJoined[codeHash][winner]) {... */\n    tag_224:\n        /* \"contracts/Pickr.sol\":3054:3067  uint256 prize */\n      0x00\n        /* \"contracts/Pickr.sol\":3070:3074  room */\n      dup2\n        /* \"contracts/Pickr.sol\":3070:3082  room.balance */\n      0x01\n      add\n      sload\n        /* \"contracts/Pickr.sol\":3054:3082  uint256 prize = room.balance */\n      swap1\n      pop\n        /* \"contracts/Pickr.sol\":3108:3109  0 */\n      0x00\n        /* \"contracts/Pickr.sol\":3100:3105  prize */\n      dup2\n        /* \"contracts/Pickr.sol\":3100:3109  prize > 0 */\n      gt\n        /* \"contracts/Pickr.sol\":3092:3130  require(prize > 0, \"No prize balance\") */\n      tag_226\n      jumpi\n      mload(0x40)\n      0x08c379a000000000000000000000000000000000000000000000000000000000\n      dup2\n      mstore\n      0x04\n      add\n      tag_227\n      swap1\n      tag_228\n      jump\t// in\n    tag_227:\n      mload(0x40)\n      dup1\n      swap2\n      sub\n      swap1\n      revert\n    tag_226:\n        /* \"contracts/Pickr.sol\":3161:3167  winner */\n      dup4\n        /* \"contracts/Pickr.sol\":3141:3148  winners */\n      0x03\n        /* \"contracts/Pickr.sol\":3141:3158  winners[codeHash] */\n      0x00\n        /* \"contracts/Pickr.sol\":3149:3157  codeHash */\n      dup8\n        /* \"contracts/Pickr.sol\":3141:3158  winners[codeHash] */\n      dup2\n      mstore\n      0x20\n      add\n      swap1\n      dup2\n      mstore\n      0x20\n      add\n      0x00\n      keccak256\n      0x00\n        /* \"contracts/Pickr.sol\":3141:3167  winners[codeHash] = winner */\n      0x0100\n      exp\n      dup2\n      sload\n      dup2\n      0xffffffffffffffffffffffffffffffffffffffff\n      mul\n      not\n      and\n      swap1\n      dup4\n      0xffffffffffffffffffffffffffffffffffffffff\n      and\n      mul\n      or\n      swap1\n      sstore\n      pop\n        /* \"contracts/Pickr.sol\":3191:3210  RoomStatus.INACTIVE */\n      0x01\n        /* \"contracts/Pickr.sol\":3177:3181  room */\n      dup3\n        /* \"contracts/Pickr.sol\":3177:3188  room.status */\n      0x02\n      add\n      0x00\n        /* \"contracts/Pickr.sol\":3177:3210  room.status = RoomStatus.INACTIVE */\n      0x0100\n      exp\n      dup2\n      sload\n      dup2\n      0xff\n      mul\n      not\n      and\n      swap1\n      dup4\n      0x02\n      dup2\n      gt\n      iszero\n      tag_229\n      jumpi\n      tag_230\n      tag_78\n      jump\t// in\n    tag_230:\n    tag_229:\n      mul\n      or\n      swap1\n      sstore\n      pop\n        /* \"contracts/Pickr.sol\":3235:3236  0 */\n      0x00\n        /* \"contracts/Pickr.sol\":3220:3224  room */\n      dup3\n        /* \"contracts/Pickr.sol\":3220:3232  room.balance */\n      0x01\n      add\n        /* \"contracts/Pickr.sol\":3220:3236  room.balance = 0 */\n      dup2\n      swap1\n      sstore\n      pop\n        /* \"contracts/Pickr.sol\":3248:3255  bool ok */\n      0x00\n        /* \"contracts/Pickr.sol\":3269:3275  winner */\n      dup5\n        /* \"contracts/Pickr.sol\":3261:3281  payable(winner).call */\n      0xffffffffffffffffffffffffffffffffffffffff\n      and\n        /* \"contracts/Pickr.sol\":3289:3294  prize */\n      dup3\n        /* \"contracts/Pickr.sol\":3261:3299  payable(winner).call{value: prize}(\"\") */\n      mload(0x40)\n      tag_231\n      swap1\n      tag_181\n      jump\t// in\n    tag_231:\n      0x00\n      mload(0x40)\n      dup1\n      dup4\n      sub\n      dup2\n      dup6\n      dup8\n      gas\n      call\n      swap3\n      pop\n      pop\n      pop\n      returndatasize\n      dup1\n      0x00\n      dup2\n      eq\n      tag_234\n      jumpi\n      mload(0x40)\n      swap2\n      pop\n      and(add(returndatasize, 0x3f), not(0x1f))\n      dup3\n      add\n      0x40\n      mstore\n      returndatasize\n      dup3\n      mstore\n      returndatasize\n      0x00\n      0x20\n      dup5\n      add\n      returndatacopy\n      jump(tag_233)\n    tag_234:\n      0x60\n      swap2\n      pop\n    tag_233:\n      pop\n        /* \"contracts/Pickr.sol\":3247:3299  (bool ok, ) = payable(winner).call{value: prize}(\"\") */\n      pop\n      swap1\n      pop\n        /* \"contracts/Pickr.sol\":3317:3319  ok */\n      dup1\n        /* \"contracts/Pickr.sol\":3309:3345  require(ok, \"Winner payout failure\") */\n      tag_235\n      jumpi\n      mload(0x40)\n      0x08c379a000000000000000000000000000000000000000000000000000000000\n      dup2\n      mstore\n      0x04\n      add\n      tag_236\n      swap1\n      tag_237\n      jump\t// in\n    tag_236:\n      mload(0x40)\n      dup1\n      swap2\n      sub\n      swap1\n      revert\n    tag_235:\n        /* \"contracts/Pickr.sol\":3361:3400  WinnerSelected(codeHash, winner, prize) */\n      0x0de9133ae9f24b7424a923e1bf901ed2381ee3e99707ff9b9b696602199b3dcc\n        /* \"contracts/Pickr.sol\":3376:3384  codeHash */\n      dup7\n        /* \"contracts/Pickr.sol\":3386:3392  winner */\n      dup7\n        /* \"contracts/Pickr.sol\":3394:3399  prize */\n      dup5\n        /* \"contracts/Pickr.sol\":3361:3400  WinnerSelected(codeHash, winner, prize) */\n      mload(0x40)\n      tag_238\n      swap4\n      swap3\n      swap2\n      swap1\n      tag_239\n      jump\t// in\n    tag_238:\n      mload(0x40)\n      dup1\n      swap2\n      sub\n      swap1\n      log1\n        /* \"contracts/Pickr.sol\":2695:3407  {... */\n      pop\n      pop\n      pop\n        /* \"contracts/Pickr.sol\":2584:3407  function winnerSelected(... */\n      pop\n      pop\n      pop\n      jump\t// out\n        /* \"contracts/Pickr.sol\":489:535  mapping(bytes32 codeHash => Room) public rooms */\n    tag_67:\n      mstore(0x20, 0x00)\n      dup1\n      0x00\n      mstore\n      keccak256(0x00, 0x40)\n      0x00\n      swap2\n      pop\n      swap1\n      pop\n      dup1\n      0x00\n      add\n      0x00\n      swap1\n      sload\n      swap1\n      0x0100\n      exp\n      swap1\n      div\n      0xffffffffffffffffffffffffffffffffffffffff\n      and\n      swap1\n      dup1\n      0x01\n      add\n      sload\n      swap1\n      dup1\n      0x02\n      add\n      0x00\n      swap1\n      sload\n      swap1\n      0x0100\n      exp\n      swap1\n      div\n      0xff\n      and\n      swap1\n      dup1\n      0x02\n      add\n      0x01\n      swap1\n      sload\n      swap1\n      0x0100\n      exp\n      swap1\n      div\n      0xff\n      and\n      swap1\n      dup1\n      0x03\n      add\n      sload\n      swap1\n      dup1\n      0x04\n      add\n      sload\n      swap1\n      dup1\n      0x05\n      add\n      sload\n      swap1\n      dup1\n      0x06\n      add\n      sload\n      swap1\n      dup1\n      0x07\n      add\n      0x00\n      swap1\n      sload\n      swap1\n      0x0100\n      exp\n      swap1\n      div\n      0xffffffffffffffff\n      and\n      swap1\n      pop\n      dup10\n      jump\t// out\n        /* \"contracts/Pickr.sol\":5525:5654  function _isRoomExist(bytes32 codeHash) private view returns (bool) {... */\n    tag_72:\n        /* \"contracts/Pickr.sol\":5587:5591  bool */\n      0x00\n        /* \"contracts/Pickr.sol\":5645:5646  0 */\n      0x00\n        /* \"contracts/Pickr.sol\":5610:5647  rooms[codeHash].creator != address(0) */\n      0xffffffffffffffffffffffffffffffffffffffff\n      and\n        /* \"contracts/Pickr.sol\":5610:5615  rooms */\n      0x00\n        /* \"contracts/Pickr.sol\":5610:5625  rooms[codeHash] */\n      0x00\n        /* \"contracts/Pickr.sol\":5616:5624  codeHash */\n      dup5\n        /* \"contracts/Pickr.sol\":5610:5625  rooms[codeHash] */\n      dup2\n      mstore\n      0x20\n      add\n      swap1\n      dup2\n      mstore\n      0x20\n      add\n      0x00\n      keccak256\n        /* \"contracts/Pickr.sol\":5610:5633  rooms[codeHash].creator */\n      0x00\n      add\n      0x00\n      swap1\n      sload\n      swap1\n      0x0100\n      exp\n      swap1\n      div\n      0xffffffffffffffffffffffffffffffffffffffff\n      and\n        /* \"contracts/Pickr.sol\":5610:5647  rooms[codeHash].creator != address(0) */\n      0xffffffffffffffffffffffffffffffffffffffff\n      and\n      eq\n      iszero\n        /* \"contracts/Pickr.sol\":5603:5647  return rooms[codeHash].creator != address(0) */\n      swap1\n      pop\n        /* \"contracts/Pickr.sol\":5525:5654  function _isRoomExist(bytes32 codeHash) private view returns (bool) {... */\n      swap2\n      swap1\n      pop\n      jump\t// out\n        /* \"#utility.yul\":7:176   */\n    tag_241:\n        /* \"#utility.yul\":91:102   */\n      0x00\n        /* \"#utility.yul\":125:131   */\n      dup3\n        /* \"#utility.yul\":120:123   */\n      dup3\n        /* \"#utility.yul\":113:132   */\n      mstore\n        /* \"#utility.yul\":165:169   */\n      0x20\n        /* \"#utility.yul\":160:163   */\n      dup3\n        /* \"#utility.yul\":156:170   */\n      add\n        /* \"#utility.yul\":141:170   */\n      swap1\n      pop\n        /* \"#utility.yul\":7:176   */\n      swap3\n      swap2\n      pop\n      pop\n      jump\t// out\n        /* \"#utility.yul\":182:364   */\n    tag_242:\n        /* \"#utility.yul\":322:356   */\n      0x75736520637265617465526f6f6d2f6465706f736974207769746820636f6465\n        /* \"#utility.yul\":318:319   */\n      0x00\n        /* \"#utility.yul\":310:316   */\n      dup3\n        /* \"#utility.yul\":306:320   */\n      add\n        /* \"#utility.yul\":299:357   */\n      mstore\n        /* \"#utility.yul\":182:364   */\n      pop\n      jump\t// out\n        /* \"#utility.yul\":370:736   */\n    tag_243:\n        /* \"#utility.yul\":512:515   */\n      0x00\n        /* \"#utility.yul\":533:600   */\n      tag_284\n        /* \"#utility.yul\":597:599   */\n      0x20\n        /* \"#utility.yul\":592:595   */\n      dup4\n        /* \"#utility.yul\":533:600   */\n      tag_241\n      jump\t// in\n    tag_284:\n        /* \"#utility.yul\":526:600   */\n      swap2\n      pop\n        /* \"#utility.yul\":609:702   */\n      tag_285\n        /* \"#utility.yul\":698:701   */\n      dup3\n        /* \"#utility.yul\":609:702   */\n      tag_242\n      jump\t// in\n    tag_285:\n        /* \"#utility.yul\":727:729   */\n      0x20\n        /* \"#utility.yul\":722:725   */\n      dup3\n        /* \"#utility.yul\":718:730   */\n      add\n        /* \"#utility.yul\":711:730   */\n      swap1\n      pop\n        /* \"#utility.yul\":370:736   */\n      swap2\n      swap1\n      pop\n      jump\t// out\n        /* \"#utility.yul\":742:1161   */\n    tag_18:\n        /* \"#utility.yul\":908:912   */\n      0x00\n        /* \"#utility.yul\":946:948   */\n      0x20\n        /* \"#utility.yul\":935:944   */\n      dup3\n        /* \"#utility.yul\":931:949   */\n      add\n        /* \"#utility.yul\":923:949   */\n      swap1\n      pop\n        /* \"#utility.yul\":995:1004   */\n      dup2\n        /* \"#utility.yul\":989:993   */\n      dup2\n        /* \"#utility.yul\":985:1005   */\n      sub\n        /* \"#utility.yul\":981:982   */\n      0x00\n        /* \"#utility.yul\":970:979   */\n      dup4\n        /* \"#utility.yul\":966:983   */\n      add\n        /* \"#utility.yul\":959:1006   */\n      mstore\n        /* \"#utility.yul\":1023:1154   */\n      tag_287\n        /* \"#utility.yul\":1149:1153   */\n      dup2\n        /* \"#utility.yul\":1023:1154   */\n      tag_243\n      jump\t// in\n    tag_287:\n        /* \"#utility.yul\":1015:1154   */\n      swap1\n      pop\n        /* \"#utility.yul\":742:1161   */\n      swap2\n      swap1\n      pop\n      jump\t// out\n        /* \"#utility.yul\":1248:1365   */\n    tag_245:\n        /* \"#utility.yul\":1357:1358   */\n      0x00\n        /* \"#utility.yul\":1354:1355   */\n      0x00\n        /* \"#utility.yul\":1347:1359   */\n      revert\n        /* \"#utility.yul\":1494:1571   */\n    tag_247:\n        /* \"#utility.yul\":1531:1538   */\n      0x00\n        /* \"#utility.yul\":1560:1565   */\n      dup2\n        /* \"#utility.yul\":1549:1565   */\n      swap1\n      pop\n        /* \"#utility.yul\":1494:1571   */\n      swap2\n      swap1\n      pop\n      jump\t// out\n        /* \"#utility.yul\":1577:1699   */\n    tag_248:\n        /* \"#utility.yul\":1650:1674   */\n      tag_293\n        /* \"#utility.yul\":1668:1673   */\n      dup2\n        /* \"#utility.yul\":1650:1674   */\n      tag_247\n      jump\t// in\n    tag_293:\n        /* \"#utility.yul\":1643:1648   */\n      dup2\n        /* \"#utility.yul\":1640:1675   */\n      eq\n        /* \"#utility.yul\":1630:1693   */\n      tag_294\n      jumpi\n        /* \"#utility.yul\":1689:1690   */\n      0x00\n        /* \"#utility.yul\":1686:1687   */\n      0x00\n        /* \"#utility.yul\":1679:1691   */\n      revert\n        /* \"#utility.yul\":1630:1693   */\n    tag_294:\n        /* \"#utility.yul\":1577:1699   */\n      pop\n      jump\t// out\n        /* \"#utility.yul\":1705:1844   */\n    tag_249:\n        /* \"#utility.yul\":1751:1756   */\n      0x00\n        /* \"#utility.yul\":1789:1795   */\n      dup2\n        /* \"#utility.yul\":1776:1796   */\n      calldataload\n        /* \"#utility.yul\":1767:1796   */\n      swap1\n      pop\n        /* \"#utility.yul\":1805:1838   */\n      tag_296\n        /* \"#utility.yul\":1832:1837   */\n      dup2\n        /* \"#utility.yul\":1805:1838   */\n      tag_248\n      jump\t// in\n    tag_296:\n        /* \"#utility.yul\":1705:1844   */\n      swap3\n      swap2\n      pop\n      pop\n      jump\t// out\n        /* \"#utility.yul\":1850:2179   */\n    tag_22:\n        /* \"#utility.yul\":1909:1915   */\n      0x00\n        /* \"#utility.yul\":1958:1960   */\n      0x20\n        /* \"#utility.yul\":1946:1955   */\n      dup3\n        /* \"#utility.yul\":1937:1944   */\n      dup5\n        /* \"#utility.yul\":1933:1956   */\n      sub\n        /* \"#utility.yul\":1929:1961   */\n      slt\n        /* \"#utility.yul\":1926:2045   */\n      iszero\n      tag_298\n      jumpi\n        /* \"#utility.yul\":1964:2043   */\n      tag_299\n      tag_245\n      jump\t// in\n    tag_299:\n        /* \"#utility.yul\":1926:2045   */\n    tag_298:\n        /* \"#utility.yul\":2084:2085   */\n      0x00\n        /* \"#utility.yul\":2109:2162   */\n      tag_300\n        /* \"#utility.yul\":2154:2161   */\n      dup5\n        /* \"#utility.yul\":2145:2151   */\n      dup3\n        /* \"#utility.yul\":2134:2143   */\n      dup6\n        /* \"#utility.yul\":2130:2152   */\n      add\n        /* \"#utility.yul\":2109:2162   */\n      tag_249\n      jump\t// in\n    tag_300:\n        /* \"#utility.yul\":2099:2162   */\n      swap2\n      pop\n        /* \"#utility.yul\":2055:2172   */\n      pop\n        /* \"#utility.yul\":1850:2179   */\n      swap3\n      swap2\n      pop\n      pop\n      jump\t// out\n        /* \"#utility.yul\":2185:2262   */\n    tag_250:\n        /* \"#utility.yul\":2222:2229   */\n      0x00\n        /* \"#utility.yul\":2251:2256   */\n      dup2\n        /* \"#utility.yul\":2240:2256   */\n      swap1\n      pop\n        /* \"#utility.yul\":2185:2262   */\n      swap2\n      swap1\n      pop\n      jump\t// out\n        /* \"#utility.yul\":2268:2390   */\n    tag_251:\n        /* \"#utility.yul\":2341:2365   */\n      tag_303\n        /* \"#utility.yul\":2359:2364   */\n      dup2\n        /* \"#utility.yul\":2341:2365   */\n      tag_250\n      jump\t// in\n    tag_303:\n        /* \"#utility.yul\":2334:2339   */\n      dup2\n        /* \"#utility.yul\":2331:2366   */\n      eq\n        /* \"#utility.yul\":2321:2384   */\n      tag_304\n      jumpi\n        /* \"#utility.yul\":2380:2381   */\n      0x00\n        /* \"#utility.yul\":2377:2378   */\n      0x00\n        /* \"#utility.yul\":2370:2382   */\n      revert\n        /* \"#utility.yul\":2321:2384   */\n    tag_304:\n        /* \"#utility.yul\":2268:2390   */\n      pop\n      jump\t// out\n        /* \"#utility.yul\":2396:2535   */\n    tag_252:\n        /* \"#utility.yul\":2442:2447   */\n      0x00\n        /* \"#utility.yul\":2480:2486   */\n      dup2\n        /* \"#utility.yul\":2467:2487   */\n      calldataload\n        /* \"#utility.yul\":2458:2487   */\n      swap1\n      pop\n        /* \"#utility.yul\":2496:2529   */\n      tag_306\n        /* \"#utility.yul\":2523:2528   */\n      dup2\n        /* \"#utility.yul\":2496:2529   */\n      tag_251\n      jump\t// in\n    tag_306:\n        /* \"#utility.yul\":2396:2535   */\n      swap3\n      swap2\n      pop\n      pop\n      jump\t// out\n        /* \"#utility.yul\":2541:3015   */\n    tag_27:\n        /* \"#utility.yul\":2609:2615   */\n      0x00\n        /* \"#utility.yul\":2617:2623   */\n      0x00\n        /* \"#utility.yul\":2666:2668   */\n      0x40\n        /* \"#utility.yul\":2654:2663   */\n      dup4\n        /* \"#utility.yul\":2645:2652   */\n      dup6\n        /* \"#utility.yul\":2641:2664   */\n      sub\n        /* \"#utility.yul\":2637:2669   */\n      slt\n        /* \"#utility.yul\":2634:2753   */\n      iszero\n      tag_308\n      jumpi\n        /* \"#utility.yul\":2672:2751   */\n      tag_309\n      tag_245\n      jump\t// in\n    tag_309:\n        /* \"#utility.yul\":2634:2753   */\n    tag_308:\n        /* \"#utility.yul\":2792:2793   */\n      0x00\n        /* \"#utility.yul\":2817:2870   */\n      tag_310\n        /* \"#utility.yul\":2862:2869   */\n      dup6\n        /* \"#utility.yul\":2853:2859   */\n      dup3\n        /* \"#utility.yul\":2842:2851   */\n      dup7\n        /* \"#utility.yul\":2838:2860   */\n      add\n        /* \"#utility.yul\":2817:2870   */\n      tag_249\n      jump\t// in\n    tag_310:\n        /* \"#utility.yul\":2807:2870   */\n      swap3\n      pop\n        /* \"#utility.yul\":2763:2880   */\n      pop\n        /* \"#utility.yul\":2919:2921   */\n      0x20\n        /* \"#utility.yul\":2945:2998   */\n      tag_311\n        /* \"#utility.yul\":2990:2997   */\n      dup6\n        /* \"#utility.yul\":2981:2987   */\n      dup3\n        /* \"#utility.yul\":2970:2979   */\n      dup7\n        /* \"#utility.yul\":2966:2988   */\n      add\n        /* \"#utility.yul\":2945:2998   */\n      tag_252\n      jump\t// in\n    tag_311:\n        /* \"#utility.yul\":2935:2998   */\n      swap2\n      pop\n        /* \"#utility.yul\":2890:3008   */\n      pop\n        /* \"#utility.yul\":2541:3015   */\n      swap3\n      pop\n      swap3\n      swap1\n      pop\n      jump\t// out\n        /* \"#utility.yul\":3021:3147   */\n    tag_253:\n        /* \"#utility.yul\":3058:3065   */\n      0x00\n        /* \"#utility.yul\":3098:3140   */\n      0xffffffffffffffffffffffffffffffffffffffff\n        /* \"#utility.yul\":3091:3096   */\n      dup3\n        /* \"#utility.yul\":3087:3141   */\n      and\n        /* \"#utility.yul\":3076:3141   */\n      swap1\n      pop\n        /* \"#utility.yul\":3021:3147   */\n      swap2\n      swap1\n      pop\n      jump\t// out\n        /* \"#utility.yul\":3153:3249   */\n    tag_254:\n        /* \"#utility.yul\":3190:3197   */\n      0x00\n        /* \"#utility.yul\":3219:3243   */\n      tag_314\n        /* \"#utility.yul\":3237:3242   */\n      dup3\n        /* \"#utility.yul\":3219:3243   */\n      tag_253\n      jump\t// in\n    tag_314:\n        /* \"#utility.yul\":3208:3243   */\n      swap1\n      pop\n        /* \"#utility.yul\":3153:3249   */\n      swap2\n      swap1\n      pop\n      jump\t// out\n        /* \"#utility.yul\":3255:3373   */\n    tag_255:\n        /* \"#utility.yul\":3342:3366   */\n      tag_316\n        /* \"#utility.yul\":3360:3365   */\n      dup2\n        /* \"#utility.yul\":3342:3366   */\n      tag_254\n      jump\t// in\n    tag_316:\n        /* \"#utility.yul\":3337:3340   */\n      dup3\n        /* \"#utility.yul\":3330:3367   */\n      mstore\n        /* \"#utility.yul\":3255:3373   */\n      pop\n      pop\n      jump\t// out\n        /* \"#utility.yul\":3379:3601   */\n    tag_30:\n        /* \"#utility.yul\":3472:3476   */\n      0x00\n        /* \"#utility.yul\":3510:3512   */\n      0x20\n        /* \"#utility.yul\":3499:3508   */\n      dup3\n        /* \"#utility.yul\":3495:3513   */\n      add\n        /* \"#utility.yul\":3487:3513   */\n      swap1\n      pop\n        /* \"#utility.yul\":3523:3594   */\n      tag_318\n        /* \"#utility.yul\":3591:3592   */\n      0x00\n        /* \"#utility.yul\":3580:3589   */\n      dup4\n        /* \"#utility.yul\":3576:3593   */\n      add\n        /* \"#utility.yul\":3567:3573   */\n      dup5\n        /* \"#utility.yul\":3523:3594   */\n      tag_255\n      jump\t// in\n    tag_318:\n        /* \"#utility.yul\":3379:3601   */\n      swap3\n      swap2\n      pop\n      pop\n      jump\t// out\n        /* \"#utility.yul\":3607:4226   */\n    tag_46:\n        /* \"#utility.yul\":3684:3690   */\n      0x00\n        /* \"#utility.yul\":3692:3698   */\n      0x00\n        /* \"#utility.yul\":3700:3706   */\n      0x00\n        /* \"#utility.yul\":3749:3751   */\n      0x60\n        /* \"#utility.yul\":3737:3746   */\n      dup5\n        /* \"#utility.yul\":3728:3735   */\n      dup7\n        /* \"#utility.yul\":3724:3747   */\n      sub\n        /* \"#utility.yul\":3720:3752   */\n      slt\n        /* \"#utility.yul\":3717:3836   */\n      iszero\n      tag_320\n      jumpi\n        /* \"#utility.yul\":3755:3834   */\n      tag_321\n      tag_245\n      jump\t// in\n    tag_321:\n        /* \"#utility.yul\":3717:3836   */\n    tag_320:\n        /* \"#utility.yul\":3875:3876   */\n      0x00\n        /* \"#utility.yul\":3900:3953   */\n      tag_322\n        /* \"#utility.yul\":3945:3952   */\n      dup7\n        /* \"#utility.yul\":3936:3942   */\n      dup3\n        /* \"#utility.yul\":3925:3934   */\n      dup8\n        /* \"#utility.yul\":3921:3943   */\n      add\n        /* \"#utility.yul\":3900:3953   */\n      tag_249\n      jump\t// in\n    tag_322:\n        /* \"#utility.yul\":3890:3953   */\n      swap4\n      pop\n        /* \"#utility.yul\":3846:3963   */\n      pop\n        /* \"#utility.yul\":4002:4004   */\n      0x20\n        /* \"#utility.yul\":4028:4081   */\n      tag_323\n        /* \"#utility.yul\":4073:4080   */\n      dup7\n        /* \"#utility.yul\":4064:4070   */\n      dup3\n        /* \"#utility.yul\":4053:4062   */\n      dup8\n        /* \"#utility.yul\":4049:4071   */\n      add\n        /* \"#utility.yul\":4028:4081   */\n      tag_252\n      jump\t// in\n    tag_323:\n        /* \"#utility.yul\":4018:4081   */\n      swap3\n      pop\n        /* \"#utility.yul\":3973:4091   */\n      pop\n        /* \"#utility.yul\":4130:4132   */\n      0x40\n        /* \"#utility.yul\":4156:4209   */\n      tag_324\n        /* \"#utility.yul\":4201:4208   */\n      dup7\n        /* \"#utility.yul\":4192:4198   */\n      dup3\n        /* \"#utility.yul\":4181:4190   */\n      dup8\n        /* \"#utility.yul\":4177:4199   */\n      add\n        /* \"#utility.yul\":4156:4209   */\n      tag_252\n      jump\t// in\n    tag_324:\n        /* \"#utility.yul\":4146:4209   */\n      swap2\n      pop\n        /* \"#utility.yul\":4101:4219   */\n      pop\n        /* \"#utility.yul\":3607:4226   */\n      swap3\n      pop\n      swap3\n      pop\n      swap3\n      jump\t// out\n        /* \"#utility.yul\":4232:4354   */\n    tag_256:\n        /* \"#utility.yul\":4305:4329   */\n      tag_326\n        /* \"#utility.yul\":4323:4328   */\n      dup2\n        /* \"#utility.yul\":4305:4329   */\n      tag_254\n      jump\t// in\n    tag_326:\n        /* \"#utility.yul\":4298:4303   */\n      dup2\n        /* \"#utility.yul\":4295:4330   */\n      eq\n        /* \"#utility.yul\":4285:4348   */\n      tag_327\n      jumpi\n        /* \"#utility.yul\":4344:4345   */\n      0x00\n        /* \"#utility.yul\":4341:4342   */\n      0x00\n        /* \"#utility.yul\":4334:4346   */\n      revert\n        /* \"#utility.yul\":4285:4348   */\n    tag_327:\n        /* \"#utility.yul\":4232:4354   */\n      pop\n      jump\t// out\n        /* \"#utility.yul\":4360:4499   */\n    tag_257:\n        /* \"#utility.yul\":4406:4411   */\n      0x00\n        /* \"#utility.yul\":4444:4450   */\n      dup2\n        /* \"#utility.yul\":4431:4451   */\n      calldataload\n        /* \"#utility.yul\":4422:4451   */\n      swap1\n      pop\n        /* \"#utility.yul\":4460:4493   */\n      tag_329\n        /* \"#utility.yul\":4487:4492   */\n      dup2\n        /* \"#utility.yul\":4460:4493   */\n      tag_256\n      jump\t// in\n    tag_329:\n        /* \"#utility.yul\":4360:4499   */\n      swap3\n      swap2\n      pop\n      pop\n      jump\t// out\n        /* \"#utility.yul\":4505:4979   */\n    tag_62:\n        /* \"#utility.yul\":4573:4579   */\n      0x00\n        /* \"#utility.yul\":4581:4587   */\n      0x00\n        /* \"#utility.yul\":4630:4632   */\n      0x40\n        /* \"#utility.yul\":4618:4627   */\n      dup4\n        /* \"#utility.yul\":4609:4616   */\n      dup6\n        /* \"#utility.yul\":4605:4628   */\n      sub\n        /* \"#utility.yul\":4601:4633   */\n      slt\n        /* \"#utility.yul\":4598:4717   */\n      iszero\n      tag_331\n      jumpi\n        /* \"#utility.yul\":4636:4715   */\n      tag_332\n      tag_245\n      jump\t// in\n    tag_332:\n        /* \"#utility.yul\":4598:4717   */\n    tag_331:\n        /* \"#utility.yul\":4756:4757   */\n      0x00\n        /* \"#utility.yul\":4781:4834   */\n      tag_333\n        /* \"#utility.yul\":4826:4833   */\n      dup6\n        /* \"#utility.yul\":4817:4823   */\n      dup3\n        /* \"#utility.yul\":4806:4815   */\n      dup7\n        /* \"#utility.yul\":4802:4824   */\n      add\n        /* \"#utility.yul\":4781:4834   */\n      tag_249\n      jump\t// in\n    tag_333:\n        /* \"#utility.yul\":4771:4834   */\n      swap3\n      pop\n        /* \"#utility.yul\":4727:4844   */\n      pop\n        /* \"#utility.yul\":4883:4885   */\n      0x20\n        /* \"#utility.yul\":4909:4962   */\n      tag_334\n        /* \"#utility.yul\":4954:4961   */\n      dup6\n        /* \"#utility.yul\":4945:4951   */\n      dup3\n        /* \"#utility.yul\":4934:4943   */\n      dup7\n        /* \"#utility.yul\":4930:4952   */\n      add\n        /* \"#utility.yul\":4909:4962   */\n      tag_257\n      jump\t// in\n    tag_334:\n        /* \"#utility.yul\":4899:4962   */\n      swap2\n      pop\n        /* \"#utility.yul\":4854:4972   */\n      pop\n        /* \"#utility.yul\":4505:4979   */\n      swap3\n      pop\n      swap3\n      swap1\n      pop\n      jump\t// out\n        /* \"#utility.yul\":4985:5103   */\n    tag_258:\n        /* \"#utility.yul\":5072:5096   */\n      tag_336\n        /* \"#utility.yul\":5090:5095   */\n      dup2\n        /* \"#utility.yul\":5072:5096   */\n      tag_250\n      jump\t// in\n    tag_336:\n        /* \"#utility.yul\":5067:5070   */\n      dup3\n        /* \"#utility.yul\":5060:5097   */\n      mstore\n        /* \"#utility.yul\":4985:5103   */\n      pop\n      pop\n      jump\t// out\n        /* \"#utility.yul\":5109:5289   */\n    tag_78:\n        /* \"#utility.yul\":5157:5234   */\n      0x4e487b7100000000000000000000000000000000000000000000000000000000\n        /* \"#utility.yul\":5154:5155   */\n      0x00\n        /* \"#utility.yul\":5147:5235   */\n      mstore\n        /* \"#utility.yul\":5254:5258   */\n      0x21\n        /* \"#utility.yul\":5251:5252   */\n      0x04\n        /* \"#utility.yul\":5244:5259   */\n      mstore\n        /* \"#utility.yul\":5278:5282   */\n      0x24\n        /* \"#utility.yul\":5275:5276   */\n      0x00\n        /* \"#utility.yul\":5268:5283   */\n      revert\n        /* \"#utility.yul\":5295:5412   */\n    tag_259:\n        /* \"#utility.yul\":5380:5381   */\n      0x03\n        /* \"#utility.yul\":5373:5378   */\n      dup2\n        /* \"#utility.yul\":5370:5382   */\n      lt\n        /* \"#utility.yul\":5360:5406   */\n      tag_339\n      jumpi\n        /* \"#utility.yul\":5386:5404   */\n      tag_340\n      tag_78\n      jump\t// in\n    tag_340:\n        /* \"#utility.yul\":5360:5406   */\n    tag_339:\n        /* \"#utility.yul\":5295:5412   */\n      pop\n      jump\t// out\n        /* \"#utility.yul\":5418:5553   */\n    tag_260:\n        /* \"#utility.yul\":5467:5474   */\n      0x00\n        /* \"#utility.yul\":5496:5501   */\n      dup2\n        /* \"#utility.yul\":5485:5501   */\n      swap1\n      pop\n        /* \"#utility.yul\":5502:5547   */\n      tag_342\n        /* \"#utility.yul\":5541:5546   */\n      dup3\n        /* \"#utility.yul\":5502:5547   */\n      tag_259\n      jump\t// in\n    tag_342:\n        /* \"#utility.yul\":5418:5553   */\n      swap2\n      swap1\n      pop\n      jump\t// out\n        /* \"#utility.yul\":5559:5694   */\n    tag_261:\n        /* \"#utility.yul\":5619:5628   */\n      0x00\n        /* \"#utility.yul\":5652:5688   */\n      tag_344\n        /* \"#utility.yul\":5682:5687   */\n      dup3\n        /* \"#utility.yul\":5652:5688   */\n      tag_260\n      jump\t// in\n    tag_344:\n        /* \"#utility.yul\":5639:5688   */\n      swap1\n      pop\n        /* \"#utility.yul\":5559:5694   */\n      swap2\n      swap1\n      pop\n      jump\t// out\n        /* \"#utility.yul\":5700:5851   */\n    tag_262:\n        /* \"#utility.yul\":5797:5844   */\n      tag_346\n        /* \"#utility.yul\":5838:5843   */\n      dup2\n        /* \"#utility.yul\":5797:5844   */\n      tag_261\n      jump\t// in\n    tag_346:\n        /* \"#utility.yul\":5792:5795   */\n      dup3\n        /* \"#utility.yul\":5785:5845   */\n      mstore\n        /* \"#utility.yul\":5700:5851   */\n      pop\n      pop\n      jump\t// out\n        /* \"#utility.yul\":5857:5978   */\n    tag_263:\n        /* \"#utility.yul\":5946:5947   */\n      0x02\n        /* \"#utility.yul\":5939:5944   */\n      dup2\n        /* \"#utility.yul\":5936:5948   */\n      lt\n        /* \"#utility.yul\":5926:5972   */\n      tag_348\n      jumpi\n        /* \"#utility.yul\":5952:5970   */\n      tag_349\n      tag_78\n      jump\t// in\n    tag_349:\n        /* \"#utility.yul\":5926:5972   */\n    tag_348:\n        /* \"#utility.yul\":5857:5978   */\n      pop\n      jump\t// out\n        /* \"#utility.yul\":5984:6127   */\n    tag_264:\n        /* \"#utility.yul\":6037:6044   */\n      0x00\n        /* \"#utility.yul\":6066:6071   */\n      dup2\n        /* \"#utility.yul\":6055:6071   */\n      swap1\n      pop\n        /* \"#utility.yul\":6072:6121   */\n      tag_351\n        /* \"#utility.yul\":6115:6120   */\n      dup3\n        /* \"#utility.yul\":6072:6121   */\n      tag_263\n      jump\t// in\n    tag_351:\n        /* \"#utility.yul\":5984:6127   */\n      swap2\n      swap1\n      pop\n      jump\t// out\n        /* \"#utility.yul\":6133:6276   */\n    tag_265:\n        /* \"#utility.yul\":6197:6206   */\n      0x00\n        /* \"#utility.yul\":6230:6270   */\n      tag_353\n        /* \"#utility.yul\":6264:6269   */\n      dup3\n        /* \"#utility.yul\":6230:6270   */\n      tag_264\n      jump\t// in\n    tag_353:\n        /* \"#utility.yul\":6217:6270   */\n      swap1\n      pop\n        /* \"#utility.yul\":6133:6276   */\n      swap2\n      swap1\n      pop\n      jump\t// out\n        /* \"#utility.yul\":6282:6441   */\n    tag_266:\n        /* \"#utility.yul\":6383:6434   */\n      tag_355\n        /* \"#utility.yul\":6428:6433   */\n      dup2\n        /* \"#utility.yul\":6383:6434   */\n      tag_265\n      jump\t// in\n    tag_355:\n        /* \"#utility.yul\":6378:6381   */\n      dup3\n        /* \"#utility.yul\":6371:6435   */\n      mstore\n        /* \"#utility.yul\":6282:6441   */\n      pop\n      pop\n      jump\t// out\n        /* \"#utility.yul\":6447:6548   */\n    tag_267:\n        /* \"#utility.yul\":6483:6490   */\n      0x00\n        /* \"#utility.yul\":6523:6541   */\n      0xffffffffffffffff\n        /* \"#utility.yul\":6516:6521   */\n      dup3\n        /* \"#utility.yul\":6512:6542   */\n      and\n        /* \"#utility.yul\":6501:6542   */\n      swap1\n      pop\n        /* \"#utility.yul\":6447:6548   */\n      swap2\n      swap1\n      pop\n      jump\t// out\n        /* \"#utility.yul\":6554:6669   */\n    tag_268:\n        /* \"#utility.yul\":6639:6662   */\n      tag_358\n        /* \"#utility.yul\":6656:6661   */\n      dup2\n        /* \"#utility.yul\":6639:6662   */\n      tag_267\n      jump\t// in\n    tag_358:\n        /* \"#utility.yul\":6634:6637   */\n      dup3\n        /* \"#utility.yul\":6627:6663   */\n      mstore\n        /* \"#utility.yul\":6554:6669   */\n      pop\n      pop\n      jump\t// out\n        /* \"#utility.yul\":6675:7827   */\n    tag_69:\n        /* \"#utility.yul\":7014:7018   */\n      0x00\n        /* \"#utility.yul\":7052:7055   */\n      0x0120\n        /* \"#utility.yul\":7041:7050   */\n      dup3\n        /* \"#utility.yul\":7037:7056   */\n      add\n        /* \"#utility.yul\":7029:7056   */\n      swap1\n      pop\n        /* \"#utility.yul\":7066:7137   */\n      tag_360\n        /* \"#utility.yul\":7134:7135   */\n      0x00\n        /* \"#utility.yul\":7123:7132   */\n      dup4\n        /* \"#utility.yul\":7119:7136   */\n      add\n        /* \"#utility.yul\":7110:7116   */\n      dup13\n        /* \"#utility.yul\":7066:7137   */\n      tag_255\n      jump\t// in\n    tag_360:\n        /* \"#utility.yul\":7147:7219   */\n      tag_361\n        /* \"#utility.yul\":7215:7217   */\n      0x20\n        /* \"#utility.yul\":7204:7213   */\n      dup4\n        /* \"#utility.yul\":7200:7218   */\n      add\n        /* \"#utility.yul\":7191:7197   */\n      dup12\n        /* \"#utility.yul\":7147:7219   */\n      tag_258\n      jump\t// in\n    tag_361:\n        /* \"#utility.yul\":7229:7311   */\n      tag_362\n        /* \"#utility.yul\":7307:7309   */\n      0x40\n        /* \"#utility.yul\":7296:7305   */\n      dup4\n        /* \"#utility.yul\":7292:7310   */\n      add\n        /* \"#utility.yul\":7283:7289   */\n      dup11\n        /* \"#utility.yul\":7229:7311   */\n      tag_262\n      jump\t// in\n    tag_362:\n        /* \"#utility.yul\":7321:7407   */\n      tag_363\n        /* \"#utility.yul\":7403:7405   */\n      0x60\n        /* \"#utility.yul\":7392:7401   */\n      dup4\n        /* \"#utility.yul\":7388:7406   */\n      add\n        /* \"#utility.yul\":7379:7385   */\n      dup10\n        /* \"#utility.yul\":7321:7407   */\n      tag_266\n      jump\t// in\n    tag_363:\n        /* \"#utility.yul\":7417:7490   */\n      tag_364\n        /* \"#utility.yul\":7485:7488   */\n      0x80\n        /* \"#utility.yul\":7474:7483   */\n      dup4\n        /* \"#utility.yul\":7470:7489   */\n      add\n        /* \"#utility.yul\":7461:7467   */\n      dup9\n        /* \"#utility.yul\":7417:7490   */\n      tag_258\n      jump\t// in\n    tag_364:\n        /* \"#utility.yul\":7500:7573   */\n      tag_365\n        /* \"#utility.yul\":7568:7571   */\n      0xa0\n        /* \"#utility.yul\":7557:7566   */\n      dup4\n        /* \"#utility.yul\":7553:7572   */\n      add\n        /* \"#utility.yul\":7544:7550   */\n      dup8\n        /* \"#utility.yul\":7500:7573   */\n      tag_258\n      jump\t// in\n    tag_365:\n        /* \"#utility.yul\":7583:7656   */\n      tag_366\n        /* \"#utility.yul\":7651:7654   */\n      0xc0\n        /* \"#utility.yul\":7640:7649   */\n      dup4\n        /* \"#utility.yul\":7636:7655   */\n      add\n        /* \"#utility.yul\":7627:7633   */\n      dup7\n        /* \"#utility.yul\":7583:7656   */\n      tag_258\n      jump\t// in\n    tag_366:\n        /* \"#utility.yul\":7666:7739   */\n      tag_367\n        /* \"#utility.yul\":7734:7737   */\n      0xe0\n        /* \"#utility.yul\":7723:7732   */\n      dup4\n        /* \"#utility.yul\":7719:7738   */\n      add\n        /* \"#utility.yul\":7710:7716   */\n      dup6\n        /* \"#utility.yul\":7666:7739   */\n      tag_258\n      jump\t// in\n    tag_367:\n        /* \"#utility.yul\":7749:7820   */\n      tag_368\n        /* \"#utility.yul\":7815:7818   */\n      0x0100\n        /* \"#utility.yul\":7804:7813   */\n      dup4\n        /* \"#utility.yul\":7800:7819   */\n      add\n        /* \"#utility.yul\":7791:7797   */\n      dup5\n        /* \"#utility.yul\":7749:7820   */\n      tag_268\n      jump\t// in\n    tag_368:\n        /* \"#utility.yul\":6675:7827   */\n      swap11\n      swap10\n      pop\n      pop\n      pop\n      pop\n      pop\n      pop\n      pop\n      pop\n      pop\n      pop\n      jump\t// out\n        /* \"#utility.yul\":7833:7951   */\n    tag_269:\n        /* \"#utility.yul\":7920:7944   */\n      tag_370\n        /* \"#utility.yul\":7938:7943   */\n      dup2\n        /* \"#utility.yul\":7920:7944   */\n      tag_247\n      jump\t// in\n    tag_370:\n        /* \"#utility.yul\":7915:7918   */\n      dup3\n        /* \"#utility.yul\":7908:7945   */\n      mstore\n        /* \"#utility.yul\":7833:7951   */\n      pop\n      pop\n      jump\t// out\n        /* \"#utility.yul\":7957:8179   */\n    tag_75:\n        /* \"#utility.yul\":8050:8054   */\n      0x00\n        /* \"#utility.yul\":8088:8090   */\n      0x20\n        /* \"#utility.yul\":8077:8086   */\n      dup3\n        /* \"#utility.yul\":8073:8091   */\n      add\n        /* \"#utility.yul\":8065:8091   */\n      swap1\n      pop\n        /* \"#utility.yul\":8101:8172   */\n      tag_372\n        /* \"#utility.yul\":8169:8170   */\n      0x00\n        /* \"#utility.yul\":8158:8167   */\n      dup4\n        /* \"#utility.yul\":8154:8171   */\n      add\n        /* \"#utility.yul\":8145:8151   */\n      dup5\n        /* \"#utility.yul\":8101:8172   */\n      tag_269\n      jump\t// in\n    tag_372:\n        /* \"#utility.yul\":7957:8179   */\n      swap3\n      swap2\n      pop\n      pop\n      jump\t// out\n        /* \"#utility.yul\":8185:8365   */\n    tag_270:\n        /* \"#utility.yul\":8233:8310   */\n      0x4e487b7100000000000000000000000000000000000000000000000000000000\n        /* \"#utility.yul\":8230:8231   */\n      0x00\n        /* \"#utility.yul\":8223:8311   */\n      mstore\n        /* \"#utility.yul\":8330:8334   */\n      0x11\n        /* \"#utility.yul\":8327:8328   */\n      0x04\n        /* \"#utility.yul\":8320:8335   */\n      mstore\n        /* \"#utility.yul\":8354:8358   */\n      0x24\n        /* \"#utility.yul\":8351:8352   */\n      0x00\n        /* \"#utility.yul\":8344:8359   */\n      revert\n        /* \"#utility.yul\":8371:8542   */\n    tag_86:\n        /* \"#utility.yul\":8410:8413   */\n      0x00\n        /* \"#utility.yul\":8433:8457   */\n      tag_375\n        /* \"#utility.yul\":8451:8456   */\n      dup3\n        /* \"#utility.yul\":8433:8457   */\n      tag_250\n      jump\t// in\n    tag_375:\n        /* \"#utility.yul\":8424:8457   */\n      swap2\n      pop\n        /* \"#utility.yul\":8479:8483   */\n      0x00\n        /* \"#utility.yul\":8472:8477   */\n      dup3\n        /* \"#utility.yul\":8469:8484   */\n      sub\n        /* \"#utility.yul\":8466:8507   */\n      tag_376\n      jumpi\n        /* \"#utility.yul\":8487:8505   */\n      tag_377\n      tag_270\n      jump\t// in\n    tag_377:\n        /* \"#utility.yul\":8466:8507   */\n    tag_376:\n        /* \"#utility.yul\":8534:8535   */\n      0x01\n        /* \"#utility.yul\":8527:8532   */\n      dup3\n        /* \"#utility.yul\":8523:8536   */\n      sub\n        /* \"#utility.yul\":8516:8536   */\n      swap1\n      pop\n        /* \"#utility.yul\":8371:8542   */\n      swap2\n      swap1\n      pop\n      jump\t// out\n        /* \"#utility.yul\":8548:8728   */\n    tag_92:\n        /* \"#utility.yul\":8596:8673   */\n      0x4e487b7100000000000000000000000000000000000000000000000000000000\n        /* \"#utility.yul\":8593:8594   */\n      0x00\n        /* \"#utility.yul\":8586:8674   */\n      mstore\n        /* \"#utility.yul\":8693:8697   */\n      0x32\n        /* \"#utility.yul\":8690:8691   */\n      0x04\n        /* \"#utility.yul\":8683:8698   */\n      mstore\n        /* \"#utility.yul\":8717:8721   */\n      0x24\n        /* \"#utility.yul\":8714:8715   */\n      0x00\n        /* \"#utility.yul\":8707:8722   */\n      revert\n        /* \"#utility.yul\":8734:8928   */\n    tag_96:\n        /* \"#utility.yul\":8774:8778   */\n      0x00\n        /* \"#utility.yul\":8794:8814   */\n      tag_380\n        /* \"#utility.yul\":8812:8813   */\n      dup3\n        /* \"#utility.yul\":8794:8814   */\n      tag_250\n      jump\t// in\n    tag_380:\n        /* \"#utility.yul\":8789:8814   */\n      swap2\n      pop\n        /* \"#utility.yul\":8828:8848   */\n      tag_381\n        /* \"#utility.yul\":8846:8847   */\n      dup4\n        /* \"#utility.yul\":8828:8848   */\n      tag_250\n      jump\t// in\n    tag_381:\n        /* \"#utility.yul\":8823:8848   */\n      swap3\n      pop\n        /* \"#utility.yul\":8872:8873   */\n      dup3\n        /* \"#utility.yul\":8869:8870   */\n      dup3\n        /* \"#utility.yul\":8865:8874   */\n      sub\n        /* \"#utility.yul\":8857:8874   */\n      swap1\n      pop\n        /* \"#utility.yul\":8896:8897   */\n      dup2\n        /* \"#utility.yul\":8890:8894   */\n      dup2\n        /* \"#utility.yul\":8887:8898   */\n      gt\n        /* \"#utility.yul\":8884:8921   */\n      iszero\n      tag_382\n      jumpi\n        /* \"#utility.yul\":8901:8919   */\n      tag_383\n      tag_270\n      jump\t// in\n    tag_383:\n        /* \"#utility.yul\":8884:8921   */\n    tag_382:\n        /* \"#utility.yul\":8734:8928   */\n      swap3\n      swap2\n      pop\n      pop\n      jump\t// out\n        /* \"#utility.yul\":8934:9114   */\n    tag_105:\n        /* \"#utility.yul\":8982:9059   */\n      0x4e487b7100000000000000000000000000000000000000000000000000000000\n        /* \"#utility.yul\":8979:8980   */\n      0x00\n        /* \"#utility.yul\":8972:9060   */\n      mstore\n        /* \"#utility.yul\":9079:9083   */\n      0x31\n        /* \"#utility.yul\":9076:9077   */\n      0x04\n        /* \"#utility.yul\":9069:9084   */\n      mstore\n        /* \"#utility.yul\":9103:9107   */\n      0x24\n        /* \"#utility.yul\":9100:9101   */\n      0x00\n        /* \"#utility.yul\":9093:9108   */\n      revert\n        /* \"#utility.yul\":9120:9353   */\n    tag_126:\n        /* \"#utility.yul\":9159:9162   */\n      0x00\n        /* \"#utility.yul\":9182:9206   */\n      tag_386\n        /* \"#utility.yul\":9200:9205   */\n      dup3\n        /* \"#utility.yul\":9182:9206   */\n      tag_250\n      jump\t// in\n    tag_386:\n        /* \"#utility.yul\":9173:9206   */\n      swap2\n      pop\n        /* \"#utility.yul\":9228:9294   */\n      0xffffffffffffffffffffffffffffffffffffffffffffffffffffffffffffffff\n        /* \"#utility.yul\":9221:9226   */\n      dup3\n        /* \"#utility.yul\":9218:9295   */\n      sub\n        /* \"#utility.yul\":9215:9318   */\n      tag_387\n      jumpi\n        /* \"#utility.yul\":9298:9316   */\n      tag_388\n      tag_270\n      jump\t// in\n    tag_388:\n        /* \"#utility.yul\":9215:9318   */\n    tag_387:\n        /* \"#utility.yul\":9345:9346   */\n      0x01\n        /* \"#utility.yul\":9338:9343   */\n      dup3\n        /* \"#utility.yul\":9334:9347   */\n      add\n        /* \"#utility.yul\":9327:9347   */\n      swap1\n      pop\n        /* \"#utility.yul\":9120:9353   */\n      swap2\n      swap1\n      pop\n      jump\t// out\n        /* \"#utility.yul\":9359:9691   */\n    tag_145:\n        /* \"#utility.yul\":9480:9484   */\n      0x00\n        /* \"#utility.yul\":9518:9520   */\n      0x40\n        /* \"#utility.yul\":9507:9516   */\n      dup3\n        /* \"#utility.yul\":9503:9521   */\n      add\n        /* \"#utility.yul\":9495:9521   */\n      swap1\n      pop\n        /* \"#utility.yul\":9531:9602   */\n      tag_390\n        /* \"#utility.yul\":9599:9600   */\n      0x00\n        /* \"#utility.yul\":9588:9597   */\n      dup4\n        /* \"#utility.yul\":9584:9601   */\n      add\n        /* \"#utility.yul\":9575:9581   */\n      dup6\n        /* \"#utility.yul\":9531:9602   */\n      tag_269\n      jump\t// in\n    tag_390:\n        /* \"#utility.yul\":9612:9684   */\n      tag_391\n        /* \"#utility.yul\":9680:9682   */\n      0x20\n        /* \"#utility.yul\":9669:9678   */\n      dup4\n        /* \"#utility.yul\":9665:9683   */\n      add\n        /* \"#utility.yul\":9656:9662   */\n      dup5\n        /* \"#utility.yul\":9612:9684   */\n      tag_255\n      jump\t// in\n    tag_391:\n        /* \"#utility.yul\":9359:9691   */\n      swap4\n      swap3\n      pop\n      pop\n      pop\n      jump\t// out\n        /* \"#utility.yul\":9697:9844   */\n    tag_271:\n        /* \"#utility.yul\":9798:9809   */\n      0x00\n        /* \"#utility.yul\":9835:9838   */\n      dup2\n        /* \"#utility.yul\":9820:9838   */\n      swap1\n      pop\n        /* \"#utility.yul\":9697:9844   */\n      swap3\n      swap2\n      pop\n      pop\n      jump\t// out\n        /* \"#utility.yul\":9850:9964   */\n    tag_272:\n      pop\n      jump\t// out\n        /* \"#utility.yul\":9970:10368   */\n    tag_273:\n        /* \"#utility.yul\":10129:10132   */\n      0x00\n        /* \"#utility.yul\":10150:10233   */\n      tag_395\n        /* \"#utility.yul\":10231:10232   */\n      0x00\n        /* \"#utility.yul\":10226:10229   */\n      dup4\n        /* \"#utility.yul\":10150:10233   */\n      tag_271\n      jump\t// in\n    tag_395:\n        /* \"#utility.yul\":10143:10233   */\n      swap2\n      pop\n        /* \"#utility.yul\":10242:10335   */\n      tag_396\n        /* \"#utility.yul\":10331:10334   */\n      dup3\n        /* \"#utility.yul\":10242:10335   */\n      tag_272\n      jump\t// in\n    tag_396:\n        /* \"#utility.yul\":10360:10361   */\n      0x00\n        /* \"#utility.yul\":10355:10358   */\n      dup3\n        /* \"#utility.yul\":10351:10362   */\n      add\n        /* \"#utility.yul\":10344:10362   */\n      swap1\n      pop\n        /* \"#utility.yul\":9970:10368   */\n      swap2\n      swap1\n      pop\n      jump\t// out\n        /* \"#utility.yul\":10374:10753   */\n    tag_181:\n        /* \"#utility.yul\":10558:10561   */\n      0x00\n        /* \"#utility.yul\":10580:10727   */\n      tag_398\n        /* \"#utility.yul\":10723:10726   */\n      dup3\n        /* \"#utility.yul\":10580:10727   */\n      tag_273\n      jump\t// in\n    tag_398:\n        /* \"#utility.yul\":10573:10727   */\n      swap2\n      pop\n        /* \"#utility.yul\":10744:10747   */\n      dup2\n        /* \"#utility.yul\":10737:10747   */\n      swap1\n      pop\n        /* \"#utility.yul\":10374:10753   */\n      swap2\n      swap1\n      pop\n      jump\t// out\n        /* \"#utility.yul\":10759:10923   */\n    tag_274:\n        /* \"#utility.yul\":10899:10915   */\n      0x526566756e64206661696c757265000000000000000000000000000000000000\n        /* \"#utility.yul\":10895:10896   */\n      0x00\n        /* \"#utility.yul\":10887:10893   */\n      dup3\n        /* \"#utility.yul\":10883:10897   */\n      add\n        /* \"#utility.yul\":10876:10916   */\n      mstore\n        /* \"#utility.yul\":10759:10923   */\n      pop\n      jump\t// out\n        /* \"#utility.yul\":10929:11295   */\n    tag_275:\n        /* \"#utility.yul\":11071:11074   */\n      0x00\n        /* \"#utility.yul\":11092:11159   */\n      tag_401\n        /* \"#utility.yul\":11156:11158   */\n      0x0e\n        /* \"#utility.yul\":11151:11154   */\n      dup4\n        /* \"#utility.yul\":11092:11159   */\n      tag_241\n      jump\t// in\n    tag_401:\n        /* \"#utility.yul\":11085:11159   */\n      swap2\n      pop\n        /* \"#utility.yul\":11168:11261   */\n      tag_402\n        /* \"#utility.yul\":11257:11260   */\n      dup3\n        /* \"#utility.yul\":11168:11261   */\n      tag_274\n      jump\t// in\n    tag_402:\n        /* \"#utility.yul\":11286:11288   */\n      0x20\n        /* \"#utility.yul\":11281:11284   */\n      dup3\n        /* \"#utility.yul\":11277:11289   */\n      add\n        /* \"#utility.yul\":11270:11289   */\n      swap1\n      pop\n        /* \"#utility.yul\":10929:11295   */\n      swap2\n      swap1\n      pop\n      jump\t// out\n        /* \"#utility.yul\":11301:11720   */\n    tag_187:\n        /* \"#utility.yul\":11467:11471   */\n      0x00\n        /* \"#utility.yul\":11505:11507   */\n      0x20\n        /* \"#utility.yul\":11494:11503   */\n      dup3\n        /* \"#utility.yul\":11490:11508   */\n      add\n        /* \"#utility.yul\":11482:11508   */\n      swap1\n      pop\n        /* \"#utility.yul\":11554:11563   */\n      dup2\n        /* \"#utility.yul\":11548:11552   */\n      dup2\n        /* \"#utility.yul\":11544:11564   */\n      sub\n        /* \"#utility.yul\":11540:11541   */\n      0x00\n        /* \"#utility.yul\":11529:11538   */\n      dup4\n        /* \"#utility.yul\":11525:11542   */\n      add\n        /* \"#utility.yul\":11518:11565   */\n      mstore\n        /* \"#utility.yul\":11582:11713   */\n      tag_404\n        /* \"#utility.yul\":11708:11712   */\n      dup2\n        /* \"#utility.yul\":11582:11713   */\n      tag_275\n      jump\t// in\n    tag_404:\n        /* \"#utility.yul\":11574:11713   */\n      swap1\n      pop\n        /* \"#utility.yul\":11301:11720   */\n      swap2\n      swap1\n      pop\n      jump\t// out\n        /* \"#utility.yul\":11726:11917   */\n    tag_206:\n        /* \"#utility.yul\":11766:11769   */\n      0x00\n        /* \"#utility.yul\":11785:11805   */\n      tag_406\n        /* \"#utility.yul\":11803:11804   */\n      dup3\n        /* \"#utility.yul\":11785:11805   */\n      tag_250\n      jump\t// in\n    tag_406:\n        /* \"#utility.yul\":11780:11805   */\n      swap2\n      pop\n        /* \"#utility.yul\":11819:11839   */\n      tag_407\n        /* \"#utility.yul\":11837:11838   */\n      dup4\n        /* \"#utility.yul\":11819:11839   */\n      tag_250\n      jump\t// in\n    tag_407:\n        /* \"#utility.yul\":11814:11839   */\n      swap3\n      pop\n        /* \"#utility.yul\":11862:11863   */\n      dup3\n        /* \"#utility.yul\":11859:11860   */\n      dup3\n        /* \"#utility.yul\":11855:11864   */\n      add\n        /* \"#utility.yul\":11848:11864   */\n      swap1\n      pop\n        /* \"#utility.yul\":11883:11886   */\n      dup1\n        /* \"#utility.yul\":11880:11881   */\n      dup3\n        /* \"#utility.yul\":11877:11887   */\n      gt\n        /* \"#utility.yul\":11874:11910   */\n      iszero\n      tag_408\n      jumpi\n        /* \"#utility.yul\":11890:11908   */\n      tag_409\n      tag_270\n      jump\t// in\n    tag_409:\n        /* \"#utility.yul\":11874:11910   */\n    tag_408:\n        /* \"#utility.yul\":11726:11917   */\n      swap3\n      swap2\n      pop\n      pop\n      jump\t// out\n        /* \"#utility.yul\":11923:12255   */\n    tag_208:\n        /* \"#utility.yul\":12044:12048   */\n      0x00\n        /* \"#utility.yul\":12082:12084   */\n      0x40\n        /* \"#utility.yul\":12071:12080   */\n      dup3\n        /* \"#utility.yul\":12067:12085   */\n      add\n        /* \"#utility.yul\":12059:12085   */\n      swap1\n      pop\n        /* \"#utility.yul\":12095:12166   */\n      tag_411\n        /* \"#utility.yul\":12163:12164   */\n      0x00\n        /* \"#utility.yul\":12152:12161   */\n      dup4\n        /* \"#utility.yul\":12148:12165   */\n      add\n        /* \"#utility.yul\":12139:12145   */\n      dup6\n        /* \"#utility.yul\":12095:12166   */\n      tag_269\n      jump\t// in\n    tag_411:\n        /* \"#utility.yul\":12176:12248   */\n      tag_412\n        /* \"#utility.yul\":12244:12246   */\n      0x20\n        /* \"#utility.yul\":12233:12242   */\n      dup4\n        /* \"#utility.yul\":12229:12247   */\n      add\n        /* \"#utility.yul\":12220:12226   */\n      dup5\n        /* \"#utility.yul\":12176:12248   */\n      tag_258\n      jump\t// in\n    tag_412:\n        /* \"#utility.yul\":11923:12255   */\n      swap4\n      swap3\n      pop\n      pop\n      pop\n      jump\t// out\n        /* \"#utility.yul\":12261:12427   */\n    tag_276:\n        /* \"#utility.yul\":12401:12419   */\n      0x4e6f207072697a652062616c616e636500000000000000000000000000000000\n        /* \"#utility.yul\":12397:12398   */\n      0x00\n        /* \"#utility.yul\":12389:12395   */\n      dup3\n        /* \"#utility.yul\":12385:12399   */\n      add\n        /* \"#utility.yul\":12378:12420   */\n      mstore\n        /* \"#utility.yul\":12261:12427   */\n      pop\n      jump\t// out\n        /* \"#utility.yul\":12433:12799   */\n    tag_277:\n        /* \"#utility.yul\":12575:12578   */\n      0x00\n        /* \"#utility.yul\":12596:12663   */\n      tag_415\n        /* \"#utility.yul\":12660:12662   */\n      0x10\n        /* \"#utility.yul\":12655:12658   */\n      dup4\n        /* \"#utility.yul\":12596:12663   */\n      tag_241\n      jump\t// in\n    tag_415:\n        /* \"#utility.yul\":12589:12663   */\n      swap2\n      pop\n        /* \"#utility.yul\":12672:12765   */\n      tag_416\n        /* \"#utility.yul\":12761:12764   */\n      dup3\n        /* \"#utility.yul\":12672:12765   */\n      tag_276\n      jump\t// in\n    tag_416:\n        /* \"#utility.yul\":12790:12792   */\n      0x20\n        /* \"#utility.yul\":12785:12788   */\n      dup3\n        /* \"#utility.yul\":12781:12793   */\n      add\n        /* \"#utility.yul\":12774:12793   */\n      swap1\n      pop\n        /* \"#utility.yul\":12433:12799   */\n      swap2\n      swap1\n      pop\n      jump\t// out\n        /* \"#utility.yul\":12805:13224   */\n    tag_228:\n        /* \"#utility.yul\":12971:12975   */\n      0x00\n        /* \"#utility.yul\":13009:13011   */\n      0x20\n        /* \"#utility.yul\":12998:13007   */\n      dup3\n        /* \"#utility.yul\":12994:13012   */\n      add\n        /* \"#utility.yul\":12986:13012   */\n      swap1\n      pop\n        /* \"#utility.yul\":13058:13067   */\n      dup2\n        /* \"#utility.yul\":13052:13056   */\n      dup2\n        /* \"#utility.yul\":13048:13068   */\n      sub\n        /* \"#utility.yul\":13044:13045   */\n      0x00\n        /* \"#utility.yul\":13033:13042   */\n      dup4\n        /* \"#utility.yul\":13029:13046   */\n      add\n        /* \"#utility.yul\":13022:13069   */\n      mstore\n        /* \"#utility.yul\":13086:13217   */\n      tag_418\n        /* \"#utility.yul\":13212:13216   */\n      dup2\n        /* \"#utility.yul\":13086:13217   */\n      tag_277\n      jump\t// in\n    tag_418:\n        /* \"#utility.yul\":13078:13217   */\n      swap1\n      pop\n        /* \"#utility.yul\":12805:13224   */\n      swap2\n      swap1\n      pop\n      jump\t// out\n        /* \"#utility.yul\":13230:13401   */\n    tag_278:\n        /* \"#utility.yul\":13370:13393   */\n      0x57696e6e6572207061796f7574206661696c7572650000000000000000000000\n        /* \"#utility.yul\":13366:13367   */\n      0x00\n        /* \"#utility.yul\":13358:13364   */\n      dup3\n        /* \"#utility.yul\":13354:13368   */\n      add\n        /* \"#utility.yul\":13347:13394   */\n      mstore\n        /* \"#utility.yul\":13230:13401   */\n      pop\n      jump\t// out\n        /* \"#utility.yul\":13407:13773   */\n    tag_279:\n        /* \"#utility.yul\":13549:13552   */\n      0x00\n        /* \"#utility.yul\":13570:13637   */\n      tag_421\n        /* \"#utility.yul\":13634:13636   */\n      0x15\n        /* \"#utility.yul\":13629:13632   */\n      dup4\n        /* \"#utility.yul\":13570:13637   */\n      tag_241\n      jump\t// in\n    tag_421:\n        /* \"#utility.yul\":13563:13637   */\n      swap2\n      pop\n        /* \"#utility.yul\":13646:13739   */\n      tag_422\n        /* \"#utility.yul\":13735:13738   */\n      dup3\n        /* \"#utility.yul\":13646:13739   */\n      tag_278\n      jump\t// in\n    tag_422:\n        /* \"#utility.yul\":13764:13766   */\n      0x20\n        /* \"#utility.yul\":13759:13762   */\n      dup3\n        /* \"#utility.yul\":13755:13767   */\n      add\n        /* \"#utility.yul\":13748:13767   */\n      swap1\n      pop\n        /* \"#utility.yul\":13407:13773   */\n      swap2\n      swap1\n      pop\n      jump\t// out\n        /* \"#utility.yul\":13779:14198   */\n    tag_237:\n        /* \"#utility.yul\":13945:13949   */\n      0x00\n        /* \"#utility.yul\":13983:13985   */\n      0x20\n        /* \"#utility.yul\":13972:13981   */\n      dup3\n        /* \"#utility.yul\":13968:13986   */\n      add\n        /* \"#utility.yul\":13960:13986   */\n      swap1\n      pop\n        /* \"#utility.yul\":14032:14041   */\n      dup2\n        /* \"#utility.yul\":14026:14030   */\n      dup2\n        /* \"#utility.yul\":14022:14042   */\n      sub\n        /* \"#utility.yul\":14018:14019   */\n      0x00\n        /* \"#utility.yul\":14007:14016   */\n      dup4\n        /* \"#utility.yul\":14003:14020   */\n      add\n        /* \"#utility.yul\":13996:14043   */\n      mstore\n        /* \"#utility.yul\":14060:14191   */\n      tag_424\n        /* \"#utility.yul\":14186:14190   */\n      dup2\n        /* \"#utility.yul\":14060:14191   */\n      tag_279\n      jump\t// in\n    tag_424:\n        /* \"#utility.yul\":14052:14191   */\n      swap1\n      pop\n        /* \"#utility.yul\":13779:14198   */\n      swap2\n      swap1\n      pop\n      jump\t// out\n        /* \"#utility.yul\":14204:14646   */\n    tag_239:\n        /* \"#utility.yul\":14353:14357   */\n      0x00\n        /* \"#utility.yul\":14391:14393   */\n      0x60\n        /* \"#utility.yul\":14380:14389   */\n      dup3\n        /* \"#utility.yul\":14376:14394   */\n      add\n        /* \"#utility.yul\":14368:14394   */\n      swap1\n      pop\n        /* \"#utility.yul\":14404:14475   */\n      tag_426\n        /* \"#utility.yul\":14472:14473   */\n      0x00\n        /* \"#utility.yul\":14461:14470   */\n      dup4\n        /* \"#utility.yul\":14457:14474   */\n      add\n        /* \"#utility.yul\":14448:14454   */\n      dup7\n        /* \"#utility.yul\":14404:14475   */\n      tag_269\n      jump\t// in\n    tag_426:\n        /* \"#utility.yul\":14485:14557   */\n      tag_427\n        /* \"#utility.yul\":14553:14555   */\n      0x20\n        /* \"#utility.yul\":14542:14551   */\n      dup4\n        /* \"#utility.yul\":14538:14556   */\n      add\n        /* \"#utility.yul\":14529:14535   */\n      dup6\n        /* \"#utility.yul\":14485:14557   */\n      tag_255\n      jump\t// in\n    tag_427:\n        /* \"#utility.yul\":14567:14639   */\n      tag_428\n        /* \"#utility.yul\":14635:14637   */\n      0x40\n        /* \"#utility.yul\":14624:14633   */\n      dup4\n        /* \"#utility.yul\":14620:14638   */\n      add\n        /* \"#utility.yul\":14611:14617   */\n      dup5\n        /* \"#utility.yul\":14567:14639   */\n      tag_258\n      jump\t// in\n    tag_428:\n        /* \"#utility.yul\":14204:14646   */\n      swap5\n      swap4\n      pop\n      pop\n      pop\n      pop\n      jump\t// out\n\n    auxdata: 0xa2646970667358221220d9cefc6aa2ceb58a3c2bed2c1fa4ce2bf98f0def973d8ece3f5e2c407ec7508764736f6c634300081e0033\n}\n",
				"bytecode": {
					"linkReferences": {},
					"object": "60a0604052348015600e575f5ffd5b503373ffffffffffffffffffffffffffffffffffffffff1660808173ffffffffffffffffffffffffffffffffffffffff168152505060805161213961005b5f395f610a4101526121395ff3fe60806040526004361061009f575f3560e01c80639a7f487e116100635780639a7f487e146101d5578063a0c2957a146101f1578063af8b9b1814610219578063b214faa514610241578063b48d3baa1461025d578063d7fbc2e414610285576100df565b806321fe77aa146100e3578063414d47f41461010b5780634277f4fd146101475780634b29b4c4146101835780638da5cb5b146101ab576100df565b366100df576040517f08c379a00000000000000000000000000000000000000000000000000000000081526004016100d690611a0e565b60405180910390fd5b5f5ffd5b3480156100ee575f5ffd5b5061010960048036038101906101049190611a63565b6102c9565b005b348015610116575f5ffd5b50610131600480360381019061012c9190611ac1565b610685565b60405161013e9190611b3e565b60405180910390f35b348015610152575f5ffd5b5061016d60048036038101906101689190611a63565b6106cd565b60405161017a9190611b3e565b60405180910390f35b34801561018e575f5ffd5b506101a960048036038101906101a49190611a63565b6106fd565b005b3480156101b6575f5ffd5b506101bf610a3f565b6040516101cc9190611b3e565b60405180910390f35b6101ef60048036038101906101ea9190611b57565b610a63565b005b3480156101fc575f5ffd5b5061021760048036038101906102129190611a63565b610d6f565b005b348015610224575f5ffd5b5061023f600480360381019061023a9190611a63565b610f9b565b005b61025b60048036038101906102569190611a63565b611229565b005b348015610268575f5ffd5b50610283600480360381019061027e9190611bd1565b61147b565b005b348015610290575f5ffd5b506102ab60048036038101906102a69190611a63565b6118b7565b6040516102c099989796959493929190611cf9565b60405180910390f35b6102d28161194b565b61031357806040517fe286343900000000000000000000000000000000000000000000000000000000815260040161030a9190611d93565b60405180910390fd5b5f5f5f8381526020019081526020015f2090505f600281111561033957610338611c1e565b5b816002015f9054906101000a900460ff16600281111561035c5761035b611c1e565b5b1461039e57816040517fd528e2af0000000000000000000000000000000000000000000000000000000081526004016103959190611d93565b60405180910390fd5b5f60015f8481526020019081526020015f205f3373ffffffffffffffffffffffffffffffffffffffff1673ffffffffffffffffffffffffffffffffffffffff1681526020019081526020015f205f9054906101000a900460ff1690508061043c57826040517f0d7648af0000000000000000000000000000000000000000000000000000000081526004016104339190611d93565b60405180910390fd5b816005015f81548092919061045090611dd9565b91905055505f60015f8581526020019081526020015f205f3373ffffffffffffffffffffffffffffffffffffffff1673ffffffffffffffffffffffffffffffffffffffff1681526020019081526020015f205f6101000a81548160ff0219169083151502179055505f60025f8581526020019081526020015f208054905090505f5f90505b8181101561067e573373ffffffffffffffffffffffffffffffffffffffff1660025f8781526020019081526020015f20828154811061051757610516611e00565b5b905f5260205f20015f9054906101000a900473ffffffffffffffffffffffffffffffffffffffff1673ffffffffffffffffffffffffffffffffffffffff16036106715760025f8681526020019081526020015f206001836105789190611e2d565b8154811061058957610588611e00565b5b905f5260205f20015f9054906101000a900473ffffffffffffffffffffffffffffffffffffffff1660025f8781526020019081526020015f2082815481106105d4576105d3611e00565b5b905f5260205f20015f6101000a81548173ffffffffffffffffffffffffffffffffffffffff021916908373ffffffffffffffffffffffffffffffffffffffff16021790555060025f8681526020019081526020015f2080548061063a57610639611e60565b5b600190038181905f5260205f20015f6101000a81549073ffffffffffffffffffffffffffffffffffffffff0219169055905561067e565b80806001019150506104d5565b5050505050565b6002602052815f5260405f20818154811061069e575f80fd5b905f5260205f20015f915091509054906101000a900473ffffffffffffffffffffffffffffffffffffffff1681565b6003602052805f5260405f205f915054906101000a900473ffffffffffffffffffffffffffffffffffffffff1681565b6107068161194b565b61074757806040517fe286343900000000000000000000000000000000000000000000000000000000815260040161073e9190611d93565b60405180910390fd5b5f5f5f8381526020019081526020015f209050805f015f9054906101000a900473ffffffffffffffffffffffffffffffffffffffff1673ffffffffffffffffffffffffffffffffffffffff163373ffffffffffffffffffffffffffffffffffffffff16036107ec57816040517fc55d8c820000000000000000000000000000000000000000000000000000000081526004016107e39190611d93565b60405180910390fd5b5f60028111156107ff576107fe611c1e565b5b816002015f9054906101000a900460ff16600281111561082257610821611c1e565b5b1461086457816040517fd528e2af00000000000000000000000000000000000000000000000000000000815260040161085b9190611d93565b60405180910390fd5b80600301548160050154106108b057816040517f495000c00000000000000000000000000000000000000000000000000000000081526004016108a79190611d93565b60405180910390fd5b5f60015f8481526020019081526020015f205f3373ffffffffffffffffffffffffffffffffffffffff1673ffffffffffffffffffffffffffffffffffffffff1681526020019081526020015f205f9054906101000a900460ff169050801561094f57826040517f02cbc1750000000000000000000000000000000000000000000000000000000081526004016109469190611d93565b60405180910390fd5b6001805f8581526020019081526020015f205f3373ffffffffffffffffffffffffffffffffffffffff1673ffffffffffffffffffffffffffffffffffffffff1681526020019081526020015f205f6101000a81548160ff021916908315150217905550816005015f8154809291906109c690611e8d565b919050555060025f8481526020019081526020015f2033908060018154018082558091505060019003905f5260205f20015f9091909190916101000a81548173ffffffffffffffffffffffffffffffffffffffff021916908373ffffffffffffffffffffffffffffffffffffffff160217905550505050565b7f000000000000000000000000000000000000000000000000000000000000000081565b5f3403610a9c576040517f600f7bf400000000000000000000000000000000000000000000000000000000815260040160405180910390fd5b81811015610ad6576040517fb3b6029c00000000000000000000000000000000000000000000000000000000815260040160405180910390fd5b5f8203610b0f576040517f530a986700000000000000000000000000000000000000000000000000000000815260040160405180910390fd5b5f5f1b8303610b4a576040517f166cbdbe00000000000000000000000000000000000000000000000000000000815260040160405180910390fd5b610b538361194b565b15610b9557826040517f4fec90c5000000000000000000000000000000000000000000000000000000008152600401610b8c9190611d93565b60405180910390fd5b6040518061012001604052803373ffffffffffffffffffffffffffffffffffffffff1681526020013481526020015f6002811115610bd657610bd5611c1e565b5b8152602001600180811115610bee57610bed611c1e565b5b81526020018281526020018381526020015f8152602001600181526020014267ffffffffffffffff168152505f5f8581526020019081526020015f205f820151815f015f6101000a81548173ffffffffffffffffffffffffffffffffffffffff021916908373ffffffffffffffffffffffffffffffffffffffff160217905550602082015181600101556040820151816002015f6101000a81548160ff02191690836002811115610ca257610ca1611c1e565b5b021790555060608201518160020160016101000a81548160ff02191690836001811115610cd257610cd1611c1e565b5b02179055506080820151816003015560a0820151816004015560c0820151816005015560e08201518160060155610100820151816007015f6101000a81548167ffffffffffffffff021916908367ffffffffffffffff1602179055509050507fcab422d6f970f05bf3bc5893a95c3c8601f68b4d92c10297cfd18e3e7c0195a88333604051610d62929190611ed4565b60405180910390a1505050565b80610d798161194b565b610dba57806040517fe2863439000000000000000000000000000000000000000000000000000000008152600401610db19190611d93565b60405180910390fd5b5f5f8281526020019081526020015f205f015f9054906101000a900473ffffffffffffffffffffffffffffffffffffffff1673ffffffffffffffffffffffffffffffffffffffff163373ffffffffffffffffffffffffffffffffffffffff1614610e5b57336040517fd68affb7000000000000000000000000000000000000000000000000000000008152600401610e529190611b3e565b60405180910390fd5b5f5f5f8481526020019081526020015f2090505f6002811115610e8157610e80611c1e565b5b816002015f9054906101000a900460ff166002811115610ea457610ea3611c1e565b5b14610ee657826040517fd528e2af000000000000000000000000000000000000000000000000000000008152600401610edd9190611d93565b60405180910390fd5b806004015481600501541015610f3357826040517f2cf3c5c7000000000000000000000000000000000000000000000000000000008152600401610f2a9190611d93565b60405180910390fd5b6002816002015f6101000a81548160ff02191690836002811115610f5a57610f59611c1e565b5b02179055507fca41b6839994b542f32e3c296407977bee21f64cb2b541986488bbfa548248ef83604051610f8e9190611d93565b60405180910390a1505050565b80610fa58161194b565b610fe657806040517fe2863439000000000000000000000000000000000000000000000000000000008152600401610fdd9190611d93565b60405180910390fd5b5f5f8281526020019081526020015f205f015f9054906101000a900473ffffffffffffffffffffffffffffffffffffffff1673ffffffffffffffffffffffffffffffffffffffff163373ffffffffffffffffffffffffffffffffffffffff161461108757336040517fd68affb700000000000000000000000000000000000000000000000000000000815260040161107e9190611b3e565b60405180910390fd5b5f5f5f8481526020019081526020015f2090505f60028111156110ad576110ac611c1e565b5b816002015f9054906101000a900460ff1660028111156110d0576110cf611c1e565b5b1461111257826040517fd528e2af0000000000000000000000000000000000000000000000000000000081526004016111099190611d93565b60405180910390fd5b5f816001015490505f82600101819055506001826002015f6101000a81548160ff0219169083600281111561114a57611149611c1e565b5b02179055505f811115611223575f825f015f9054906101000a900473ffffffffffffffffffffffffffffffffffffffff1673ffffffffffffffffffffffffffffffffffffffff168260405161119e90611f28565b5f6040518083038185875af1925050503d805f81146111d8576040519150601f19603f3d011682016040523d82523d5f602084013e6111dd565b606091505b5050905080611221576040517f08c379a000000000000000000000000000000000000000000000000000000000815260040161121890611f86565b60405180910390fd5b505b50505050565b806112338161194b565b61127457806040517fe286343900000000000000000000000000000000000000000000000000000000815260040161126b9190611d93565b60405180910390fd5b5f5f8281526020019081526020015f205f015f9054906101000a900473ffffffffffffffffffffffffffffffffffffffff1673ffffffffffffffffffffffffffffffffffffffff163373ffffffffffffffffffffffffffffffffffffffff161461131557336040517fd68affb700000000000000000000000000000000000000000000000000000000815260040161130c9190611b3e565b60405180910390fd5b61131e8261194b565b61135f57816040517fe28634390000000000000000000000000000000000000000000000000000000081526004016113569190611d93565b60405180910390fd5b5f5f5f8481526020019081526020015f2090505f600281111561138557611384611c1e565b5b816002015f9054906101000a900460ff1660028111156113a8576113a7611c1e565b5b146113ea57826040517fd528e2af0000000000000000000000000000000000000000000000000000000081526004016113e19190611d93565b60405180910390fd5b5f3403611423576040517f600f7bf400000000000000000000000000000000000000000000000000000000815260040160405180910390fd5b34816001015f8282546114369190611fa4565b925050819055507fd4fc1b8fbc973bf54caf06a27f82ebb767e57dab4c4f75d9ae83cebdf14ce983833460405161146e929190611fd7565b60405180910390a1505050565b816114858161194b565b6114c657806040517fe28634390000000000000000000000000000000000000000000000000000000081526004016114bd9190611d93565b60405180910390fd5b5f5f8281526020019081526020015f205f015f9054906101000a900473ffffffffffffffffffffffffffffffffffffffff1673ffffffffffffffffffffffffffffffffffffffff163373ffffffffffffffffffffffffffffffffffffffff161461156757336040517fd68affb700000000000000000000000000000000000000000000000000000000815260040161155e9190611b3e565b60405180910390fd5b5f5f5f8581526020019081526020015f20905060028081111561158d5761158c611c1e565b5b816002015f9054906101000a900460ff1660028111156115b0576115af611c1e565b5b146115f257836040517fd750f8d90000000000000000000000000000000000000000000000000000000081526004016115e99190611d93565b60405180910390fd5b5f73ffffffffffffffffffffffffffffffffffffffff168373ffffffffffffffffffffffffffffffffffffffff160361166257836040517ffe23ea1f0000000000000000000000000000000000000000000000000000000081526004016116599190611d93565b60405180910390fd5b60015f8581526020019081526020015f205f8473ffffffffffffffffffffffffffffffffffffffff1673ffffffffffffffffffffffffffffffffffffffff1681526020019081526020015f205f9054906101000a900460ff166116fe5783836040517fe66163eb0000000000000000000000000000000000000000000000000000000081526004016116f5929190611ed4565b60405180910390fd5b5f816001015490505f8111611748576040517f08c379a000000000000000000000000000000000000000000000000000000000815260040161173f90612048565b60405180910390fd5b8360035f8781526020019081526020015f205f6101000a81548173ffffffffffffffffffffffffffffffffffffffff021916908373ffffffffffffffffffffffffffffffffffffffff1602179055506001826002015f6101000a81548160ff021916908360028111156117be576117bd611c1e565b5b02179055505f82600101819055505f8473ffffffffffffffffffffffffffffffffffffffff16826040516117f190611f28565b5f6040518083038185875af1925050503d805f811461182b576040519150601f19603f3d011682016040523d82523d5f602084013e611830565b606091505b5050905080611874576040517f08c379a000000000000000000000000000000000000000000000000000000000815260040161186b906120b0565b60405180910390fd5b7f0de9133ae9f24b7424a923e1bf901ed2381ee3e99707ff9b9b696602199b3dcc8686846040516118a7939291906120ce565b60405180910390a1505050505050565b5f602052805f5260405f205f91509050805f015f9054906101000a900473ffffffffffffffffffffffffffffffffffffffff1690806001015490806002015f9054906101000a900460ff16908060020160019054906101000a900460ff1690806003015490806004015490806005015490806006015490806007015f9054906101000a900467ffffffffffffffff16905089565b5f5f73ffffffffffffffffffffffffffffffffffffffff165f5f8481526020019081526020015f205f015f9054906101000a900473ffffffffffffffffffffffffffffffffffffffff1673ffffffffffffffffffffffffffffffffffffffff1614159050919050565b5f82825260208201905092915050565b7f75736520637265617465526f6f6d2f6465706f736974207769746820636f64655f82015250565b5f6119f86020836119b4565b9150611a03826119c4565b602082019050919050565b5f6020820190508181035f830152611a25816119ec565b9050919050565b5f5ffd5b5f819050919050565b611a4281611a30565b8114611a4c575f5ffd5b50565b5f81359050611a5d81611a39565b92915050565b5f60208284031215611a7857611a77611a2c565b5b5f611a8584828501611a4f565b91505092915050565b5f819050919050565b611aa081611a8e565b8114611aaa575f5ffd5b50565b5f81359050611abb81611a97565b92915050565b5f5f60408385031215611ad757611ad6611a2c565b5b5f611ae485828601611a4f565b9250506020611af585828601611aad565b9150509250929050565b5f73ffffffffffffffffffffffffffffffffffffffff82169050919050565b5f611b2882611aff565b9050919050565b611b3881611b1e565b82525050565b5f602082019050611b515f830184611b2f565b92915050565b5f5f5f60608486031215611b6e57611b6d611a2c565b5b5f611b7b86828701611a4f565b9350506020611b8c86828701611aad565b9250506040611b9d86828701611aad565b9150509250925092565b611bb081611b1e565b8114611bba575f5ffd5b50565b5f81359050611bcb81611ba7565b92915050565b5f5f60408385031215611be757611be6611a2c565b5b5f611bf485828601611a4f565b9250506020611c0585828601611bbd565b9150509250929050565b611c1881611a8e565b82525050565b7f4e487b71000000000000000000000000000000000000000000000000000000005f52602160045260245ffd5b60038110611c5c57611c5b611c1e565b5b50565b5f819050611c6c82611c4b565b919050565b5f611c7b82611c5f565b9050919050565b611c8b81611c71565b82525050565b60028110611ca257611ca1611c1e565b5b50565b5f819050611cb282611c91565b919050565b5f611cc182611ca5565b9050919050565b611cd181611cb7565b82525050565b5f67ffffffffffffffff82169050919050565b611cf381611cd7565b82525050565b5f61012082019050611d0d5f83018c611b2f565b611d1a602083018b611c0f565b611d27604083018a611c82565b611d346060830189611cc8565b611d416080830188611c0f565b611d4e60a0830187611c0f565b611d5b60c0830186611c0f565b611d6860e0830185611c0f565b611d76610100830184611cea565b9a9950505050505050505050565b611d8d81611a30565b82525050565b5f602082019050611da65f830184611d84565b92915050565b7f4e487b71000000000000000000000000000000000000000000000000000000005f52601160045260245ffd5b5f611de382611a8e565b91505f8203611df557611df4611dac565b5b600182039050919050565b7f4e487b71000000000000000000000000000000000000000000000000000000005f52603260045260245ffd5b5f611e3782611a8e565b9150611e4283611a8e565b9250828203905081811115611e5a57611e59611dac565b5b92915050565b7f4e487b71000000000000000000000000000000000000000000000000000000005f52603160045260245ffd5b5f611e9782611a8e565b91507fffffffffffffffffffffffffffffffffffffffffffffffffffffffffffffffff8203611ec957611ec8611dac565b5b600182019050919050565b5f604082019050611ee75f830185611d84565b611ef46020830184611b2f565b9392505050565b5f81905092915050565b50565b5f611f135f83611efb565b9150611f1e82611f05565b5f82019050919050565b5f611f3282611f08565b9150819050919050565b7f526566756e64206661696c7572650000000000000000000000000000000000005f82015250565b5f611f70600e836119b4565b9150611f7b82611f3c565b602082019050919050565b5f6020820190508181035f830152611f9d81611f64565b9050919050565b5f611fae82611a8e565b9150611fb983611a8e565b9250828201905080821115611fd157611fd0611dac565b5b92915050565b5f604082019050611fea5f830185611d84565b611ff76020830184611c0f565b9392505050565b7f4e6f207072697a652062616c616e6365000000000000000000000000000000005f82015250565b5f6120326010836119b4565b915061203d82611ffe565b602082019050919050565b5f6020820190508181035f83015261205f81612026565b9050919050565b7f57696e6e6572207061796f7574206661696c75726500000000000000000000005f82015250565b5f61209a6015836119b4565b91506120a582612066565b602082019050919050565b5f6020820190508181035f8301526120c78161208e565b9050919050565b5f6060820190506120e15f830186611d84565b6120ee6020830185611b2f565b6120fb6040830184611c0f565b94935050505056fea2646970667358221220d9cefc6aa2ceb58a3c2bed2c1fa4ce2bf98f0def973d8ece3f5e2c407ec7508764736f6c634300081e0033",
					"opcodes": "PUSH1 0xA0 PUSH1 0x40 MSTORE CALLVALUE DUP1 ISZERO PUSH1 0xE JUMPI PUSH0 PUSH0 REVERT JUMPDEST POP CALLER PUSH20 0xFFFFFFFFFFFFFFFFFFFFFFFFFFFFFFFFFFFFFFFF AND PUSH1 0x80 DUP2 PUSH20 0xFFFFFFFFFFFFFFFFFFFFFFFFFFFFFFFFFFFFFFFF AND DUP2 MSTORE POP POP PUSH1 0x80 MLOAD PUSH2 0x2139 PUSH2 0x5B PUSH0 CODECOPY PUSH0 PUSH2 0xA41 ADD MSTORE PUSH2 0x2139 PUSH0 RETURN INVALID PUSH1 0x80 PUSH1 0x40 MSTORE PUSH1 0x4 CALLDATASIZE LT PUSH2 0x9F JUMPI PUSH0 CALLDATALOAD PUSH1 0xE0 SHR DUP1 PUSH4 0x9A7F487E GT PUSH2 0x63 JUMPI DUP1 PUSH4 0x9A7F487E EQ PUSH2 0x1D5 JUMPI DUP1 PUSH4 0xA0C2957A EQ PUSH2 0x1F1 JUMPI DUP1 PUSH4 0xAF8B9B18 EQ PUSH2 0x219 JUMPI DUP1 PUSH4 0xB214FAA5 EQ PUSH2 0x241 JUMPI DUP1 PUSH4 0xB48D3BAA EQ PUSH2 0x25D JUMPI DUP1 PUSH4 0xD7FBC2E4 EQ PUSH2 0x285 JUMPI PUSH2 0xDF JUMP JUMPDEST DUP1 PUSH4 0x21FE77AA EQ PUSH2 0xE3 JUMPI DUP1 PUSH4 0x414D47F4 EQ PUSH2 0x10B JUMPI DUP1 PUSH4 0x4277F4FD EQ PUSH2 0x147 JUMPI DUP1 PUSH4 0x4B29B4C4 EQ PUSH2 0x183 JUMPI DUP1 PUSH4 0x8DA5CB5B EQ PUSH2 0x1AB JUMPI PUSH2 0xDF JUMP JUMPDEST CALLDATASIZE PUSH2 0xDF JUMPI PUSH1 0x40 MLOAD PUSH32 0x8C379A000000000000000000000000000000000000000000000000000000000 DUP2 MSTORE PUSH1 0x4 ADD PUSH2 0xD6 SWAP1 PUSH2 0x1A0E JUMP JUMPDEST PUSH1 0x40 MLOAD DUP1 SWAP2 SUB SWAP1 REVERT JUMPDEST PUSH0 PUSH0 REVERT JUMPDEST CALLVALUE DUP1 ISZERO PUSH2 0xEE JUMPI PUSH0 PUSH0 REVERT JUMPDEST POP PUSH2 0x109 PUSH1 0x4 DUP1 CALLDATASIZE SUB DUP2 ADD SWAP1 PUSH2 0x104 SWAP2 SWAP1 PUSH2 0x1A63 JUMP JUMPDEST PUSH2 0x2C9 JUMP JUMPDEST STOP JUMPDEST CALLVALUE DUP1 ISZERO PUSH2 0x116 JUMPI PUSH0 PUSH0 REVERT JUMPDEST POP PUSH2 0x131 PUSH1 0x4 DUP1 CALLDATASIZE SUB DUP2 ADD SWAP1 PUSH2 0x12C SWAP2 SWAP1 PUSH2 0x1AC1 JUMP JUMPDEST PUSH2 0x685 JUMP JUMPDEST PUSH1 0x40 MLOAD PUSH2 0x13E SWAP2 SWAP1 PUSH2 0x1B3E JUMP JUMPDEST PUSH1 0x40 MLOAD DUP1 SWAP2 SUB SWAP1 RETURN JUMPDEST CALLVALUE DUP1 ISZERO PUSH2 0x152 JUMPI PUSH0 PUSH0 REVERT JUMPDEST POP PUSH2 0x16D PUSH1 0x4 DUP1 CALLDATASIZE SUB DUP2 ADD SWAP1 PUSH2 0x168 SWAP2 SWAP1 PUSH2 0x1A63 JUMP JUMPDEST PUSH2 0x6CD JUMP JUMPDEST PUSH1 0x40 MLOAD PUSH2 0x17A SWAP2 SWAP1 PUSH2 0x1B3E JUMP JUMPDEST PUSH1 0x40 MLOAD DUP1 SWAP2 SUB SWAP1 RETURN JUMPDEST CALLVALUE DUP1 ISZERO PUSH2 0x18E JUMPI PUSH0 PUSH0 REVERT JUMPDEST POP PUSH2 0x1A9 PUSH1 0x4 DUP1 CALLDATASIZE SUB DUP2 ADD SWAP1 PUSH2 0x1A4 SWAP2 SWAP1 PUSH2 0x1A63 JUMP JUMPDEST PUSH2 0x6FD JUMP JUMPDEST STOP JUMPDEST CALLVALUE DUP1 ISZERO PUSH2 0x1B6 JUMPI PUSH0 PUSH0 REVERT JUMPDEST POP PUSH2 0x1BF PUSH2 0xA3F JUMP JUMPDEST PUSH1 0x40 MLOAD PUSH2 0x1CC SWAP2 SWAP1 PUSH2 0x1B3E JUMP JUMPDEST PUSH1 0x40 MLOAD DUP1 SWAP2 SUB SWAP1 RETURN JUMPDEST PUSH2 0x1EF PUSH1 0x4 DUP1 CALLDATASIZE SUB DUP2 ADD SWAP1 PUSH2 0x1EA SWAP2 SWAP1 PUSH2 0x1B57 JUMP JUMPDEST PUSH2 0xA63 JUMP JUMPDEST STOP JUMPDEST CALLVALUE DUP1 ISZERO PUSH2 0x1FC JUMPI PUSH0 PUSH0 REVERT JUMPDEST POP PUSH2 0x217 PUSH1 0x4 DUP1 CALLDATASIZE SUB DUP2 ADD SWAP1 PUSH2 0x212 SWAP2 SWAP1 PUSH2 0x1A63 JUMP JUMPDEST PUSH2 0xD6F JUMP JUMPDEST STOP JUMPDEST CALLVALUE DUP1 ISZERO PUSH2 0x224 JUMPI PUSH0 PUSH0 REVERT JUMPDEST POP PUSH2 0x23F PUSH1 0x4 DUP1 CALLDATASIZE SUB DUP2 ADD SWAP1 PUSH2 0x23A SWAP2 SWAP1 PUSH2 0x1A63 JUMP JUMPDEST PUSH2 0xF9B JUMP JUMPDEST STOP JUMPDEST PUSH2 0x25B PUSH1 0x4 DUP1 CALLDATASIZE SUB DUP2 ADD SWAP1 PUSH2 0x256 SWAP2 SWAP1 PUSH2 0x1A63 JUMP JUMPDEST PUSH2 0x1229 JUMP JUMPDEST STOP JUMPDEST CALLVALUE DUP1 ISZERO PUSH2 0x268 JUMPI PUSH0 PUSH0 REVERT JUMPDEST POP PUSH2 0x283 PUSH1 0x4 DUP1 CALLDATASIZE SUB DUP2 ADD SWAP1 PUSH2 0x27E SWAP2 SWAP1 PUSH2 0x1BD1 JUMP JUMPDEST PUSH2 0x147B JUMP JUMPDEST STOP JUMPDEST CALLVALUE DUP1 ISZERO PUSH2 0x290 JUMPI PUSH0 PUSH0 REVERT JUMPDEST POP PUSH2 0x2AB PUSH1 0x4 DUP1 CALLDATASIZE SUB DUP2 ADD SWAP1 PUSH2 0x2A6 SWAP2 SWAP1 PUSH2 0x1A63 JUMP JUMPDEST PUSH2 0x18B7 JUMP JUMPDEST PUSH1 0x40 MLOAD PUSH2 0x2C0 SWAP10 SWAP9 SWAP8 SWAP7 SWAP6 SWAP5 SWAP4 SWAP3 SWAP2 SWAP1 PUSH2 0x1CF9 JUMP JUMPDEST PUSH1 0x40 MLOAD DUP1 SWAP2 SUB SWAP1 RETURN JUMPDEST PUSH2 0x2D2 DUP2 PUSH2 0x194B JUMP JUMPDEST PUSH2 0x313 JUMPI DUP1 PUSH1 0x40 MLOAD PUSH32 0xE286343900000000000000000000000000000000000000000000000000000000 DUP2 MSTORE PUSH1 0x4 ADD PUSH2 0x30A SWAP2 SWAP1 PUSH2 0x1D93 JUMP JUMPDEST PUSH1 0x40 MLOAD DUP1 SWAP2 SUB SWAP1 REVERT JUMPDEST PUSH0 PUSH0 PUSH0 DUP4 DUP2 MSTORE PUSH1 0x20 ADD SWAP1 DUP2 MSTORE PUSH1 0x20 ADD PUSH0 KECCAK256 SWAP1 POP PUSH0 PUSH1 0x2 DUP2 GT ISZERO PUSH2 0x339 JUMPI PUSH2 0x338 PUSH2 0x1C1E JUMP JUMPDEST JUMPDEST DUP2 PUSH1 0x2 ADD PUSH0 SWAP1 SLOAD SWAP1 PUSH2 0x100 EXP SWAP1 DIV PUSH1 0xFF AND PUSH1 0x2 DUP2 GT ISZERO PUSH2 0x35C JUMPI PUSH2 0x35B PUSH2 0x1C1E JUMP JUMPDEST JUMPDEST EQ PUSH2 0x39E JUMPI DUP2 PUSH1 0x40 MLOAD PUSH32 0xD528E2AF00000000000000000000000000000000000000000000000000000000 DUP2 MSTORE PUSH1 0x4 ADD PUSH2 0x395 SWAP2 SWAP1 PUSH2 0x1D93 JUMP JUMPDEST PUSH1 0x40 MLOAD DUP1 SWAP2 SUB SWAP1 REVERT JUMPDEST PUSH0 PUSH1 0x1 PUSH0 DUP5 DUP2 MSTORE PUSH1 0x20 ADD SWAP1 DUP2 MSTORE PUSH1 0x20 ADD PUSH0 KECCAK256 PUSH0 CALLER PUSH20 0xFFFFFFFFFFFFFFFFFFFFFFFFFFFFFFFFFFFFFFFF AND PUSH20 0xFFFFFFFFFFFFFFFFFFFFFFFFFFFFFFFFFFFFFFFF AND DUP2 MSTORE PUSH1 0x20 ADD SWAP1 DUP2 MSTORE PUSH1 0x20 ADD PUSH0 KECCAK256 PUSH0 SWAP1 SLOAD SWAP1 PUSH2 0x100 EXP SWAP1 DIV PUSH1 0xFF AND SWAP1 POP DUP1 PUSH2 0x43C JUMPI DUP3 PUSH1 0x40 MLOAD PUSH32 0xD7648AF00000000000000000000000000000000000000000000000000000000 DUP2 MSTORE PUSH1 0x4 ADD PUSH2 0x433 SWAP2 SWAP1 PUSH2 0x1D93 JUMP JUMPDEST PUSH1 0x40 MLOAD DUP1 SWAP2 SUB SWAP1 REVERT JUMPDEST DUP2 PUSH1 0x5 ADD PUSH0 DUP2 SLOAD DUP1 SWAP3 SWAP2 SWAP1 PUSH2 0x450 SWAP1 PUSH2 0x1DD9 JUMP JUMPDEST SWAP2 SWAP1 POP SSTORE POP PUSH0 PUSH1 0x1 PUSH0 DUP6 DUP2 MSTORE PUSH1 0x20 ADD SWAP1 DUP2 MSTORE PUSH1 0x20 ADD PUSH0 KECCAK256 PUSH0 CALLER PUSH20 0xFFFFFFFFFFFFFFFFFFFFFFFFFFFFFFFFFFFFFFFF AND PUSH20 0xFFFFFFFFFFFFFFFFFFFFFFFFFFFFFFFFFFFFFFFF AND DUP2 MSTORE PUSH1 0x20 ADD SWAP1 DUP2 MSTORE PUSH1 0x20 ADD PUSH0 KECCAK256 PUSH0 PUSH2 0x100 EXP DUP2 SLOAD DUP2 PUSH1 0xFF MUL NOT AND SWAP1 DUP4 ISZERO ISZERO MUL OR SWAP1 SSTORE POP PUSH0 PUSH1 0x2 PUSH0 DUP6 DUP2 MSTORE PUSH1 0x20 ADD SWAP1 DUP2 MSTORE PUSH1 0x20 ADD PUSH0 KECCAK256 DUP1 SLOAD SWAP1 POP SWAP1 POP PUSH0 PUSH0 SWAP1 POP JUMPDEST DUP2 DUP2 LT ISZERO PUSH2 0x67E JUMPI CALLER PUSH20 0xFFFFFFFFFFFFFFFFFFFFFFFFFFFFFFFFFFFFFFFF AND PUSH1 0x2 PUSH0 DUP8 DUP2 MSTORE PUSH1 0x20 ADD SWAP1 DUP2 MSTORE PUSH1 0x20 ADD PUSH0 KECCAK256 DUP3 DUP2 SLOAD DUP2 LT PUSH2 0x517 JUMPI PUSH2 0x516 PUSH2 0x1E00 JUMP JUMPDEST JUMPDEST SWAP1 PUSH0 MSTORE PUSH1 0x20 PUSH0 KECCAK256 ADD PUSH0 SWAP1 SLOAD SWAP1 PUSH2 0x100 EXP SWAP1 DIV PUSH20 0xFFFFFFFFFFFFFFFFFFFFFFFFFFFFFFFFFFFFFFFF AND PUSH20 0xFFFFFFFFFFFFFFFFFFFFFFFFFFFFFFFFFFFFFFFF AND SUB PUSH2 0x671 JUMPI PUSH1 0x2 PUSH0 DUP7 DUP2 MSTORE PUSH1 0x20 ADD SWAP1 DUP2 MSTORE PUSH1 0x20 ADD PUSH0 KECCAK256 PUSH1 0x1 DUP4 PUSH2 0x578 SWAP2 SWAP1 PUSH2 0x1E2D JUMP JUMPDEST DUP2 SLOAD DUP2 LT PUSH2 0x589 JUMPI PUSH2 0x588 PUSH2 0x1E00 JUMP JUMPDEST JUMPDEST SWAP1 PUSH0 MSTORE PUSH1 0x20 PUSH0 KECCAK256 ADD PUSH0 SWAP1 SLOAD SWAP1 PUSH2 0x100 EXP SWAP1 DIV PUSH20 0xFFFFFFFFFFFFFFFFFFFFFFFFFFFFFFFFFFFFFFFF AND PUSH1 0x2 PUSH0 DUP8 DUP2 MSTORE PUSH1 0x20 ADD SWAP1 DUP2 MSTORE PUSH1 0x20 ADD PUSH0 KECCAK256 DUP3 DUP2 SLOAD DUP2 LT PUSH2 0x5D4 JUMPI PUSH2 0x5D3 PUSH2 0x1E00 JUMP JUMPDEST JUMPDEST SWAP1 PUSH0 MSTORE PUSH1 0x20 PUSH0 KECCAK256 ADD PUSH0 PUSH2 0x100 EXP DUP2 SLOAD DUP2 PUSH20 0xFFFFFFFFFFFFFFFFFFFFFFFFFFFFFFFFFFFFFFFF MUL NOT AND SWAP1 DUP4 PUSH20 0xFFFFFFFFFFFFFFFFFFFFFFFFFFFFFFFFFFFFFFFF AND MUL OR SWAP1 SSTORE POP PUSH1 0x2 PUSH0 DUP7 DUP2 MSTORE PUSH1 0x20 ADD SWAP1 DUP2 MSTORE PUSH1 0x20 ADD PUSH0 KECCAK256 DUP1 SLOAD DUP1 PUSH2 0x63A JUMPI PUSH2 0x639 PUSH2 0x1E60 JUMP JUMPDEST JUMPDEST PUSH1 0x1 SWAP1 SUB DUP2 DUP2 SWAP1 PUSH0 MSTORE PUSH1 0x20 PUSH0 KECCAK256 ADD PUSH0 PUSH2 0x100 EXP DUP2 SLOAD SWAP1 PUSH20 0xFFFFFFFFFFFFFFFFFFFFFFFFFFFFFFFFFFFFFFFF MUL NOT AND SWAP1 SSTORE SWAP1 SSTORE PUSH2 0x67E JUMP JUMPDEST DUP1 DUP1 PUSH1 0x1 ADD SWAP2 POP POP PUSH2 0x4D5 JUMP JUMPDEST POP POP POP POP POP JUMP JUMPDEST PUSH1 0x2 PUSH1 0x20 MSTORE DUP2 PUSH0 MSTORE PUSH1 0x40 PUSH0 KECCAK256 DUP2 DUP2 SLOAD DUP2 LT PUSH2 0x69E JUMPI PUSH0 DUP1 REVERT JUMPDEST SWAP1 PUSH0 MSTORE PUSH1 0x20 PUSH0 KECCAK256 ADD PUSH0 SWAP2 POP SWAP2 POP SWAP1 SLOAD SWAP1 PUSH2 0x100 EXP SWAP1 DIV PUSH20 0xFFFFFFFFFFFFFFFFFFFFFFFFFFFFFFFFFFFFFFFF AND DUP2 JUMP JUMPDEST PUSH1 0x3 PUSH1 0x20 MSTORE DUP1 PUSH0 MSTORE PUSH1 0x40 PUSH0 KECCAK256 PUSH0 SWAP2 POP SLOAD SWAP1 PUSH2 0x100 EXP SWAP1 DIV PUSH20 0xFFFFFFFFFFFFFFFFFFFFFFFFFFFFFFFFFFFFFFFF AND DUP2 JUMP JUMPDEST PUSH2 0x706 DUP2 PUSH2 0x194B JUMP JUMPDEST PUSH2 0x747 JUMPI DUP1 PUSH1 0x40 MLOAD PUSH32 0xE286343900000000000000000000000000000000000000000000000000000000 DUP2 MSTORE PUSH1 0x4 ADD PUSH2 0x73E SWAP2 SWAP1 PUSH2 0x1D93 JUMP JUMPDEST PUSH1 0x40 MLOAD DUP1 SWAP2 SUB SWAP1 REVERT JUMPDEST PUSH0 PUSH0 PUSH0 DUP4 DUP2 MSTORE PUSH1 0x20 ADD SWAP1 DUP2 MSTORE PUSH1 0x20 ADD PUSH0 KECCAK256 SWAP1 POP DUP1 PUSH0 ADD PUSH0 SWAP1 SLOAD SWAP1 PUSH2 0x100 EXP SWAP1 DIV PUSH20 0xFFFFFFFFFFFFFFFFFFFFFFFFFFFFFFFFFFFFFFFF AND PUSH20 0xFFFFFFFFFFFFFFFFFFFFFFFFFFFFFFFFFFFFFFFF AND CALLER PUSH20 0xFFFFFFFFFFFFFFFFFFFFFFFFFFFFFFFFFFFFFFFF AND SUB PUSH2 0x7EC JUMPI DUP2 PUSH1 0x40 MLOAD PUSH32 0xC55D8C8200000000000000000000000000000000000000000000000000000000 DUP2 MSTORE PUSH1 0x4 ADD PUSH2 0x7E3 SWAP2 SWAP1 PUSH2 0x1D93 JUMP JUMPDEST PUSH1 0x40 MLOAD DUP1 SWAP2 SUB SWAP1 REVERT JUMPDEST PUSH0 PUSH1 0x2 DUP2 GT ISZERO PUSH2 0x7FF JUMPI PUSH2 0x7FE PUSH2 0x1C1E JUMP JUMPDEST JUMPDEST DUP2 PUSH1 0x2 ADD PUSH0 SWAP1 SLOAD SWAP1 PUSH2 0x100 EXP SWAP1 DIV PUSH1 0xFF AND PUSH1 0x2 DUP2 GT ISZERO PUSH2 0x822 JUMPI PUSH2 0x821 PUSH2 0x1C1E JUMP JUMPDEST JUMPDEST EQ PUSH2 0x864 JUMPI DUP2 PUSH1 0x40 MLOAD PUSH32 0xD528E2AF00000000000000000000000000000000000000000000000000000000 DUP2 MSTORE PUSH1 0x4 ADD PUSH2 0x85B SWAP2 SWAP1 PUSH2 0x1D93 JUMP JUMPDEST PUSH1 0x40 MLOAD DUP1 SWAP2 SUB SWAP1 REVERT JUMPDEST DUP1 PUSH1 0x3 ADD SLOAD DUP2 PUSH1 0x5 ADD SLOAD LT PUSH2 0x8B0 JUMPI DUP2 PUSH1 0x40 MLOAD PUSH32 0x495000C000000000000000000000000000000000000000000000000000000000 DUP2 MSTORE PUSH1 0x4 ADD PUSH2 0x8A7 SWAP2 SWAP1 PUSH2 0x1D93 JUMP JUMPDEST PUSH1 0x40 MLOAD DUP1 SWAP2 SUB SWAP1 REVERT JUMPDEST PUSH0 PUSH1 0x1 PUSH0 DUP5 DUP2 MSTORE PUSH1 0x20 ADD SWAP1 DUP2 MSTORE PUSH1 0x20 ADD PUSH0 KECCAK256 PUSH0 CALLER PUSH20 0xFFFFFFFFFFFFFFFFFFFFFFFFFFFFFFFFFFFFFFFF AND PUSH20 0xFFFFFFFFFFFFFFFFFFFFFFFFFFFFFFFFFFFFFFFF AND DUP2 MSTORE PUSH1 0x20 ADD SWAP1 DUP2 MSTORE PUSH1 0x20 ADD PUSH0 KECCAK256 PUSH0 SWAP1 SLOAD SWAP1 PUSH2 0x100 EXP SWAP1 DIV PUSH1 0xFF AND SWAP1 POP DUP1 ISZERO PUSH2 0x94F JUMPI DUP3 PUSH1 0x40 MLOAD PUSH32 0x2CBC17500000000000000000000000000000000000000000000000000000000 DUP2 MSTORE PUSH1 0x4 ADD PUSH2 0x946 SWAP2 SWAP1 PUSH2 0x1D93 JUMP JUMPDEST PUSH1 0x40 MLOAD DUP1 SWAP2 SUB SWAP1 REVERT JUMPDEST PUSH1 0x1 DUP1 PUSH0 DUP6 DUP2 MSTORE PUSH1 0x20 ADD SWAP1 DUP2 MSTORE PUSH1 0x20 ADD PUSH0 KECCAK256 PUSH0 CALLER PUSH20 0xFFFFFFFFFFFFFFFFFFFFFFFFFFFFFFFFFFFFFFFF AND PUSH20 0xFFFFFFFFFFFFFFFFFFFFFFFFFFFFFFFFFFFFFFFF AND DUP2 MSTORE PUSH1 0x20 ADD SWAP1 DUP2 MSTORE PUSH1 0x20 ADD PUSH0 KECCAK256 PUSH0 PUSH2 0x100 EXP DUP2 SLOAD DUP2 PUSH1 0xFF MUL NOT AND SWAP1 DUP4 ISZERO ISZERO MUL OR SWAP1 SSTORE POP DUP2 PUSH1 0x5 ADD PUSH0 DUP2 SLOAD DUP1 SWAP3 SWAP2 SWAP1 PUSH2 0x9C6 SWAP1 PUSH2 0x1E8D JUMP JUMPDEST SWAP2 SWAP1 POP SSTORE POP PUSH1 0x2 PUSH0 DUP5 DUP2 MSTORE PUSH1 0x20 ADD SWAP1 DUP2 MSTORE PUSH1 0x20 ADD PUSH0 KECCAK256 CALLER SWAP1 DUP1 PUSH1 0x1 DUP2 SLOAD ADD DUP1 DUP3 SSTORE DUP1 SWAP2 POP POP PUSH1 0x1 SWAP1 SUB SWAP1 PUSH0 MSTORE PUSH1 0x20 PUSH0 KECCAK256 ADD PUSH0 SWAP1 SWAP2 SWAP1 SWAP2 SWAP1 SWAP2 PUSH2 0x100 EXP DUP2 SLOAD DUP2 PUSH20 0xFFFFFFFFFFFFFFFFFFFFFFFFFFFFFFFFFFFFFFFF MUL NOT AND SWAP1 DUP4 PUSH20 0xFFFFFFFFFFFFFFFFFFFFFFFFFFFFFFFFFFFFFFFF AND MUL OR SWAP1 SSTORE POP POP POP POP JUMP JUMPDEST PUSH32 0x0 DUP2 JUMP JUMPDEST PUSH0 CALLVALUE SUB PUSH2 0xA9C JUMPI PUSH1 0x40 MLOAD PUSH32 0x600F7BF400000000000000000000000000000000000000000000000000000000 DUP2 MSTORE PUSH1 0x4 ADD PUSH1 0x40 MLOAD DUP1 SWAP2 SUB SWAP1 REVERT JUMPDEST DUP2 DUP2 LT ISZERO PUSH2 0xAD6 JUMPI PUSH1 0x40 MLOAD PUSH32 0xB3B6029C00000000000000000000000000000000000000000000000000000000 DUP2 MSTORE PUSH1 0x4 ADD PUSH1 0x40 MLOAD DUP1 SWAP2 SUB SWAP1 REVERT JUMPDEST PUSH0 DUP3 SUB PUSH2 0xB0F JUMPI PUSH1 0x40 MLOAD PUSH32 0x530A986700000000000000000000000000000000000000000000000000000000 DUP2 MSTORE PUSH1 0x4 ADD PUSH1 0x40 MLOAD DUP1 SWAP2 SUB SWAP1 REVERT JUMPDEST PUSH0 PUSH0 SHL DUP4 SUB PUSH2 0xB4A JUMPI PUSH1 0x40 MLOAD PUSH32 0x166CBDBE00000000000000000000000000000000000000000000000000000000 DUP2 MSTORE PUSH1 0x4 ADD PUSH1 0x40 MLOAD DUP1 SWAP2 SUB SWAP1 REVERT JUMPDEST PUSH2 0xB53 DUP4 PUSH2 0x194B JUMP JUMPDEST ISZERO PUSH2 0xB95 JUMPI DUP3 PUSH1 0x40 MLOAD PUSH32 0x4FEC90C500000000000000000000000000000000000000000000000000000000 DUP2 MSTORE PUSH1 0x4 ADD PUSH2 0xB8C SWAP2 SWAP1 PUSH2 0x1D93 JUMP JUMPDEST PUSH1 0x40 MLOAD DUP1 SWAP2 SUB SWAP1 REVERT JUMPDEST PUSH1 0x40 MLOAD DUP1 PUSH2 0x120 ADD PUSH1 0x40 MSTORE DUP1 CALLER PUSH20 0xFFFFFFFFFFFFFFFFFFFFFFFFFFFFFFFFFFFFFFFF AND DUP2 MSTORE PUSH1 0x20 ADD CALLVALUE DUP2 MSTORE PUSH1 0x20 ADD PUSH0 PUSH1 0x2 DUP2 GT ISZERO PUSH2 0xBD6 JUMPI PUSH2 0xBD5 PUSH2 0x1C1E JUMP JUMPDEST JUMPDEST DUP2 MSTORE PUSH1 0x20 ADD PUSH1 0x1 DUP1 DUP2 GT ISZERO PUSH2 0xBEE JUMPI PUSH2 0xBED PUSH2 0x1C1E JUMP JUMPDEST JUMPDEST DUP2 MSTORE PUSH1 0x20 ADD DUP3 DUP2 MSTORE PUSH1 0x20 ADD DUP4 DUP2 MSTORE PUSH1 0x20 ADD PUSH0 DUP2 MSTORE PUSH1 0x20 ADD PUSH1 0x1 DUP2 MSTORE PUSH1 0x20 ADD TIMESTAMP PUSH8 0xFFFFFFFFFFFFFFFF AND DUP2 MSTORE POP PUSH0 PUSH0 DUP6 DUP2 MSTORE PUSH1 0x20 ADD SWAP1 DUP2 MSTORE PUSH1 0x20 ADD PUSH0 KECCAK256 PUSH0 DUP3 ADD MLOAD DUP2 PUSH0 ADD PUSH0 PUSH2 0x100 EXP DUP2 SLOAD DUP2 PUSH20 0xFFFFFFFFFFFFFFFFFFFFFFFFFFFFFFFFFFFFFFFF MUL NOT AND SWAP1 DUP4 PUSH20 0xFFFFFFFFFFFFFFFFFFFFFFFFFFFFFFFFFFFFFFFF AND MUL OR SWAP1 SSTORE POP PUSH1 0x20 DUP3 ADD MLOAD DUP2 PUSH1 0x1 ADD SSTORE PUSH1 0x40 DUP3 ADD MLOAD DUP2 PUSH1 0x2 ADD PUSH0 PUSH2 0x100 EXP DUP2 SLOAD DUP2 PUSH1 0xFF MUL NOT AND SWAP1 DUP4 PUSH1 0x2 DUP2 GT ISZERO PUSH2 0xCA2 JUMPI PUSH2 0xCA1 PUSH2 0x1C1E JUMP JUMPDEST JUMPDEST MUL OR SWAP1 SSTORE POP PUSH1 0x60 DUP3 ADD MLOAD DUP2 PUSH1 0x2 ADD PUSH1 0x1 PUSH2 0x100 EXP DUP2 SLOAD DUP2 PUSH1 0xFF MUL NOT AND SWAP1 DUP4 PUSH1 0x1 DUP2 GT ISZERO PUSH2 0xCD2 JUMPI PUSH2 0xCD1 PUSH2 0x1C1E JUMP JUMPDEST JUMPDEST MUL OR SWAP1 SSTORE POP PUSH1 0x80 DUP3 ADD MLOAD DUP2 PUSH1 0x3 ADD SSTORE PUSH1 0xA0 DUP3 ADD MLOAD DUP2 PUSH1 0x4 ADD SSTORE PUSH1 0xC0 DUP3 ADD MLOAD DUP2 PUSH1 0x5 ADD SSTORE PUSH1 0xE0 DUP3 ADD MLOAD DUP2 PUSH1 0x6 ADD SSTORE PUSH2 0x100 DUP3 ADD MLOAD DUP2 PUSH1 0x7 ADD PUSH0 PUSH2 0x100 EXP DUP2 SLOAD DUP2 PUSH8 0xFFFFFFFFFFFFFFFF MUL NOT AND SWAP1 DUP4 PUSH8 0xFFFFFFFFFFFFFFFF AND MUL OR SWAP1 SSTORE POP SWAP1 POP POP PUSH32 0xCAB422D6F970F05BF3BC5893A95C3C8601F68B4D92C10297CFD18E3E7C0195A8 DUP4 CALLER PUSH1 0x40 MLOAD PUSH2 0xD62 SWAP3 SWAP2 SWAP1 PUSH2 0x1ED4 JUMP JUMPDEST PUSH1 0x40 MLOAD DUP1 SWAP2 SUB SWAP1 LOG1 POP POP POP JUMP JUMPDEST DUP1 PUSH2 0xD79 DUP2 PUSH2 0x194B JUMP JUMPDEST PUSH2 0xDBA JUMPI DUP1 PUSH1 0x40 MLOAD PUSH32 0xE286343900000000000000000000000000000000000000000000000000000000 DUP2 MSTORE PUSH1 0x4 ADD PUSH2 0xDB1 SWAP2 SWAP1 PUSH2 0x1D93 JUMP JUMPDEST PUSH1 0x40 MLOAD DUP1 SWAP2 SUB SWAP1 REVERT JUMPDEST PUSH0 PUSH0 DUP3 DUP2 MSTORE PUSH1 0x20 ADD SWAP1 DUP2 MSTORE PUSH1 0x20 ADD PUSH0 KECCAK256 PUSH0 ADD PUSH0 SWAP1 SLOAD SWAP1 PUSH2 0x100 EXP SWAP1 DIV PUSH20 0xFFFFFFFFFFFFFFFFFFFFFFFFFFFFFFFFFFFFFFFF AND PUSH20 0xFFFFFFFFFFFFFFFFFFFFFFFFFFFFFFFFFFFFFFFF AND CALLER PUSH20 0xFFFFFFFFFFFFFFFFFFFFFFFFFFFFFFFFFFFFFFFF AND EQ PUSH2 0xE5B JUMPI CALLER PUSH1 0x40 MLOAD PUSH32 0xD68AFFB700000000000000000000000000000000000000000000000000000000 DUP2 MSTORE PUSH1 0x4 ADD PUSH2 0xE52 SWAP2 SWAP1 PUSH2 0x1B3E JUMP JUMPDEST PUSH1 0x40 MLOAD DUP1 SWAP2 SUB SWAP1 REVERT JUMPDEST PUSH0 PUSH0 PUSH0 DUP5 DUP2 MSTORE PUSH1 0x20 ADD SWAP1 DUP2 MSTORE PUSH1 0x20 ADD PUSH0 KECCAK256 SWAP1 POP PUSH0 PUSH1 0x2 DUP2 GT ISZERO PUSH2 0xE81 JUMPI PUSH2 0xE80 PUSH2 0x1C1E JUMP JUMPDEST JUMPDEST DUP2 PUSH1 0x2 ADD PUSH0 SWAP1 SLOAD SWAP1 PUSH2 0x100 EXP SWAP1 DIV PUSH1 0xFF AND PUSH1 0x2 DUP2 GT ISZERO PUSH2 0xEA4 JUMPI PUSH2 0xEA3 PUSH2 0x1C1E JUMP JUMPDEST JUMPDEST EQ PUSH2 0xEE6 JUMPI DUP3 PUSH1 0x40 MLOAD PUSH32 0xD528E2AF00000000000000000000000000000000000000000000000000000000 DUP2 MSTORE PUSH1 0x4 ADD PUSH2 0xEDD SWAP2 SWAP1 PUSH2 0x1D93 JUMP JUMPDEST PUSH1 0x40 MLOAD DUP1 SWAP2 SUB SWAP1 REVERT JUMPDEST DUP1 PUSH1 0x4 ADD SLOAD DUP2 PUSH1 0x5 ADD SLOAD LT ISZERO PUSH2 0xF33 JUMPI DUP3 PUSH1 0x40 MLOAD PUSH32 0x2CF3C5C700000000000000000000000000000000000000000000000000000000 DUP2 MSTORE PUSH1 0x4 ADD PUSH2 0xF2A SWAP2 SWAP1 PUSH2 0x1D93 JUMP JUMPDEST PUSH1 0x40 MLOAD DUP1 SWAP2 SUB SWAP1 REVERT JUMPDEST PUSH1 0x2 DUP2 PUSH1 0x2 ADD PUSH0 PUSH2 0x100 EXP DUP2 SLOAD DUP2 PUSH1 0xFF MUL NOT AND SWAP1 DUP4 PUSH1 0x2 DUP2 GT ISZERO PUSH2 0xF5A JUMPI PUSH2 0xF59 PUSH2 0x1C1E JUMP JUMPDEST JUMPDEST MUL OR SWAP1 SSTORE POP PUSH32 0xCA41B6839994B542F32E3C296407977BEE21F64CB2B541986488BBFA548248EF DUP4 PUSH1 0x40 MLOAD PUSH2 0xF8E SWAP2 SWAP1 PUSH2 0x1D93 JUMP JUMPDEST PUSH1 0x40 MLOAD DUP1 SWAP2 SUB SWAP1 LOG1 POP POP POP JUMP JUMPDEST DUP1 PUSH2 0xFA5 DUP2 PUSH2 0x194B JUMP JUMPDEST PUSH2 0xFE6 JUMPI DUP1 PUSH1 0x40 MLOAD PUSH32 0xE286343900000000000000000000000000000000000000000000000000000000 DUP2 MSTORE PUSH1 0x4 ADD PUSH2 0xFDD SWAP2 SWAP1 PUSH2 0x1D93 JUMP JUMPDEST PUSH1 0x40 MLOAD DUP1 SWAP2 SUB SWAP1 REVERT JUMPDEST PUSH0 PUSH0 DUP3 DUP2 MSTORE PUSH1 0x20 ADD SWAP1 DUP2 MSTORE PUSH1 0x20 ADD PUSH0 KECCAK256 PUSH0 ADD PUSH0 SWAP1 SLOAD SWAP1 PUSH2 0x100 EXP SWAP1 DIV PUSH20 0xFFFFFFFFFFFFFFFFFFFFFFFFFFFFFFFFFFFFFFFF AND PUSH20 0xFFFFFFFFFFFFFFFFFFFFFFFFFFFFFFFFFFFFFFFF AND CALLER PUSH20 0xFFFFFFFFFFFFFFFFFFFFFFFFFFFFFFFFFFFFFFFF AND EQ PUSH2 0x1087 JUMPI CALLER PUSH1 0x40 MLOAD PUSH32 0xD68AFFB700000000000000000000000000000000000000000000000000000000 DUP2 MSTORE PUSH1 0x4 ADD PUSH2 0x107E SWAP2 SWAP1 PUSH2 0x1B3E JUMP JUMPDEST PUSH1 0x40 MLOAD DUP1 SWAP2 SUB SWAP1 REVERT JUMPDEST PUSH0 PUSH0 PUSH0 DUP5 DUP2 MSTORE PUSH1 0x20 ADD SWAP1 DUP2 MSTORE PUSH1 0x20 ADD PUSH0 KECCAK256 SWAP1 POP PUSH0 PUSH1 0x2 DUP2 GT ISZERO PUSH2 0x10AD JUMPI PUSH2 0x10AC PUSH2 0x1C1E JUMP JUMPDEST JUMPDEST DUP2 PUSH1 0x2 ADD PUSH0 SWAP1 SLOAD SWAP1 PUSH2 0x100 EXP SWAP1 DIV PUSH1 0xFF AND PUSH1 0x2 DUP2 GT ISZERO PUSH2 0x10D0 JUMPI PUSH2 0x10CF PUSH2 0x1C1E JUMP JUMPDEST JUMPDEST EQ PUSH2 0x1112 JUMPI DUP3 PUSH1 0x40 MLOAD PUSH32 0xD528E2AF00000000000000000000000000000000000000000000000000000000 DUP2 MSTORE PUSH1 0x4 ADD PUSH2 0x1109 SWAP2 SWAP1 PUSH2 0x1D93 JUMP JUMPDEST PUSH1 0x40 MLOAD DUP1 SWAP2 SUB SWAP1 REVERT JUMPDEST PUSH0 DUP2 PUSH1 0x1 ADD SLOAD SWAP1 POP PUSH0 DUP3 PUSH1 0x1 ADD DUP2 SWAP1 SSTORE POP PUSH1 0x1 DUP3 PUSH1 0x2 ADD PUSH0 PUSH2 0x100 EXP DUP2 SLOAD DUP2 PUSH1 0xFF MUL NOT AND SWAP1 DUP4 PUSH1 0x2 DUP2 GT ISZERO PUSH2 0x114A JUMPI PUSH2 0x1149 PUSH2 0x1C1E JUMP JUMPDEST JUMPDEST MUL OR SWAP1 SSTORE POP PUSH0 DUP2 GT ISZERO PUSH2 0x1223 JUMPI PUSH0 DUP3 PUSH0 ADD PUSH0 SWAP1 SLOAD SWAP1 PUSH2 0x100 EXP SWAP1 DIV PUSH20 0xFFFFFFFFFFFFFFFFFFFFFFFFFFFFFFFFFFFFFFFF AND PUSH20 0xFFFFFFFFFFFFFFFFFFFFFFFFFFFFFFFFFFFFFFFF AND DUP3 PUSH1 0x40 MLOAD PUSH2 0x119E SWAP1 PUSH2 0x1F28 JUMP JUMPDEST PUSH0 PUSH1 0x40 MLOAD DUP1 DUP4 SUB DUP2 DUP6 DUP8 GAS CALL SWAP3 POP POP POP RETURNDATASIZE DUP1 PUSH0 DUP2 EQ PUSH2 0x11D8 JUMPI PUSH1 0x40 MLOAD SWAP2 POP PUSH1 0x1F NOT PUSH1 0x3F RETURNDATASIZE ADD AND DUP3 ADD PUSH1 0x40 MSTORE RETURNDATASIZE DUP3 MSTORE RETURNDATASIZE PUSH0 PUSH1 0x20 DUP5 ADD RETURNDATACOPY PUSH2 0x11DD JUMP JUMPDEST PUSH1 0x60 SWAP2 POP JUMPDEST POP POP SWAP1 POP DUP1 PUSH2 0x1221 JUMPI PUSH1 0x40 MLOAD PUSH32 0x8C379A000000000000000000000000000000000000000000000000000000000 DUP2 MSTORE PUSH1 0x4 ADD PUSH2 0x1218 SWAP1 PUSH2 0x1F86 JUMP JUMPDEST PUSH1 0x40 MLOAD DUP1 SWAP2 SUB SWAP1 REVERT JUMPDEST POP JUMPDEST POP POP POP POP JUMP JUMPDEST DUP1 PUSH2 0x1233 DUP2 PUSH2 0x194B JUMP JUMPDEST PUSH2 0x1274 JUMPI DUP1 PUSH1 0x40 MLOAD PUSH32 0xE286343900000000000000000000000000000000000000000000000000000000 DUP2 MSTORE PUSH1 0x4 ADD PUSH2 0x126B SWAP2 SWAP1 PUSH2 0x1D93 JUMP JUMPDEST PUSH1 0x40 MLOAD DUP1 SWAP2 SUB SWAP1 REVERT JUMPDEST PUSH0 PUSH0 DUP3 DUP2 MSTORE PUSH1 0x20 ADD SWAP1 DUP2 MSTORE PUSH1 0x20 ADD PUSH0 KECCAK256 PUSH0 ADD PUSH0 SWAP1 SLOAD SWAP1 PUSH2 0x100 EXP SWAP1 DIV PUSH20 0xFFFFFFFFFFFFFFFFFFFFFFFFFFFFFFFFFFFFFFFF AND PUSH20 0xFFFFFFFFFFFFFFFFFFFFFFFFFFFFFFFFFFFFFFFF AND CALLER PUSH20 0xFFFFFFFFFFFFFFFFFFFFFFFFFFFFFFFFFFFFFFFF AND EQ PUSH2 0x1315 JUMPI CALLER PUSH1 0x40 MLOAD PUSH32 0xD68AFFB700000000000000000000000000000000000000000000000000000000 DUP2 MSTORE PUSH1 0x4 ADD PUSH2 0x130C SWAP2 SWAP1 PUSH2 0x1B3E JUMP JUMPDEST PUSH1 0x40 MLOAD DUP1 SWAP2 SUB SWAP1 REVERT JUMPDEST PUSH2 0x131E DUP3 PUSH2 0x194B JUMP JUMPDEST PUSH2 0x135F JUMPI DUP2 PUSH1 0x40 MLOAD PUSH32 0xE286343900000000000000000000000000000000000000000000000000000000 DUP2 MSTORE PUSH1 0x4 ADD PUSH2 0x1356 SWAP2 SWAP1 PUSH2 0x1D93 JUMP JUMPDEST PUSH1 0x40 MLOAD DUP1 SWAP2 SUB SWAP1 REVERT JUMPDEST PUSH0 PUSH0 PUSH0 DUP5 DUP2 MSTORE PUSH1 0x20 ADD SWAP1 DUP2 MSTORE PUSH1 0x20 ADD PUSH0 KECCAK256 SWAP1 POP PUSH0 PUSH1 0x2 DUP2 GT ISZERO PUSH2 0x1385 JUMPI PUSH2 0x1384 PUSH2 0x1C1E JUMP JUMPDEST JUMPDEST DUP2 PUSH1 0x2 ADD PUSH0 SWAP1 SLOAD SWAP1 PUSH2 0x100 EXP SWAP1 DIV PUSH1 0xFF AND PUSH1 0x2 DUP2 GT ISZERO PUSH2 0x13A8 JUMPI PUSH2 0x13A7 PUSH2 0x1C1E JUMP JUMPDEST JUMPDEST EQ PUSH2 0x13EA JUMPI DUP3 PUSH1 0x40 MLOAD PUSH32 0xD528E2AF00000000000000000000000000000000000000000000000000000000 DUP2 MSTORE PUSH1 0x4 ADD PUSH2 0x13E1 SWAP2 SWAP1 PUSH2 0x1D93 JUMP JUMPDEST PUSH1 0x40 MLOAD DUP1 SWAP2 SUB SWAP1 REVERT JUMPDEST PUSH0 CALLVALUE SUB PUSH2 0x1423 JUMPI PUSH1 0x40 MLOAD PUSH32 0x600F7BF400000000000000000000000000000000000000000000000000000000 DUP2 MSTORE PUSH1 0x4 ADD PUSH1 0x40 MLOAD DUP1 SWAP2 SUB SWAP1 REVERT JUMPDEST CALLVALUE DUP2 PUSH1 0x1 ADD PUSH0 DUP3 DUP3 SLOAD PUSH2 0x1436 SWAP2 SWAP1 PUSH2 0x1FA4 JUMP JUMPDEST SWAP3 POP POP DUP2 SWAP1 SSTORE POP PUSH32 0xD4FC1B8FBC973BF54CAF06A27F82EBB767E57DAB4C4F75D9AE83CEBDF14CE983 DUP4 CALLVALUE PUSH1 0x40 MLOAD PUSH2 0x146E SWAP3 SWAP2 SWAP1 PUSH2 0x1FD7 JUMP JUMPDEST PUSH1 0x40 MLOAD DUP1 SWAP2 SUB SWAP1 LOG1 POP POP POP JUMP JUMPDEST DUP2 PUSH2 0x1485 DUP2 PUSH2 0x194B JUMP JUMPDEST PUSH2 0x14C6 JUMPI DUP1 PUSH1 0x40 MLOAD PUSH32 0xE286343900000000000000000000000000000000000000000000000000000000 DUP2 MSTORE PUSH1 0x4 ADD PUSH2 0x14BD SWAP2 SWAP1 PUSH2 0x1D93 JUMP JUMPDEST PUSH1 0x40 MLOAD DUP1 SWAP2 SUB SWAP1 REVERT JUMPDEST PUSH0 PUSH0 DUP3 DUP2 MSTORE PUSH1 0x20 ADD SWAP1 DUP2 MSTORE PUSH1 0x20 ADD PUSH0 KECCAK256 PUSH0 ADD PUSH0 SWAP1 SLOAD SWAP1 PUSH2 0x100 EXP SWAP1 DIV PUSH20 0xFFFFFFFFFFFFFFFFFFFFFFFFFFFFFFFFFFFFFFFF AND PUSH20 0xFFFFFFFFFFFFFFFFFFFFFFFFFFFFFFFFFFFFFFFF AND CALLER PUSH20 0xFFFFFFFFFFFFFFFFFFFFFFFFFFFFFFFFFFFFFFFF AND EQ PUSH2 0x1567 JUMPI CALLER PUSH1 0x40 MLOAD PUSH32 0xD68AFFB700000000000000000000000000000000000000000000000000000000 DUP2 MSTORE PUSH1 0x4 ADD PUSH2 0x155E SWAP2 SWAP1 PUSH2 0x1B3E JUMP JUMPDEST PUSH1 0x40 MLOAD DUP1 SWAP2 SUB SWAP1 REVERT JUMPDEST PUSH0 PUSH0 PUSH0 DUP6 DUP2 MSTORE PUSH1 0x20 ADD SWAP1 DUP2 MSTORE PUSH1 0x20 ADD PUSH0 KECCAK256 SWAP1 POP PUSH1 0x2 DUP1 DUP2 GT ISZERO PUSH2 0x158D JUMPI PUSH2 0x158C PUSH2 0x1C1E JUMP JUMPDEST JUMPDEST DUP2 PUSH1 0x2 ADD PUSH0 SWAP1 SLOAD SWAP1 PUSH2 0x100 EXP SWAP1 DIV PUSH1 0xFF AND PUSH1 0x2 DUP2 GT ISZERO PUSH2 0x15B0 JUMPI PUSH2 0x15AF PUSH2 0x1C1E JUMP JUMPDEST JUMPDEST EQ PUSH2 0x15F2 JUMPI DUP4 PUSH1 0x40 MLOAD PUSH32 0xD750F8D900000000000000000000000000000000000000000000000000000000 DUP2 MSTORE PUSH1 0x4 ADD PUSH2 0x15E9 SWAP2 SWAP1 PUSH2 0x1D93 JUMP JUMPDEST PUSH1 0x40 MLOAD DUP1 SWAP2 SUB SWAP1 REVERT JUMPDEST PUSH0 PUSH20 0xFFFFFFFFFFFFFFFFFFFFFFFFFFFFFFFFFFFFFFFF AND DUP4 PUSH20 0xFFFFFFFFFFFFFFFFFFFFFFFFFFFFFFFFFFFFFFFF AND SUB PUSH2 0x1662 JUMPI DUP4 PUSH1 0x40 MLOAD PUSH32 0xFE23EA1F00000000000000000000000000000000000000000000000000000000 DUP2 MSTORE PUSH1 0x4 ADD PUSH2 0x1659 SWAP2 SWAP1 PUSH2 0x1D93 JUMP JUMPDEST PUSH1 0x40 MLOAD DUP1 SWAP2 SUB SWAP1 REVERT JUMPDEST PUSH1 0x1 PUSH0 DUP6 DUP2 MSTORE PUSH1 0x20 ADD SWAP1 DUP2 MSTORE PUSH1 0x20 ADD PUSH0 KECCAK256 PUSH0 DUP5 PUSH20 0xFFFFFFFFFFFFFFFFFFFFFFFFFFFFFFFFFFFFFFFF AND PUSH20 0xFFFFFFFFFFFFFFFFFFFFFFFFFFFFFFFFFFFFFFFF AND DUP2 MSTORE PUSH1 0x20 ADD SWAP1 DUP2 MSTORE PUSH1 0x20 ADD PUSH0 KECCAK256 PUSH0 SWAP1 SLOAD SWAP1 PUSH2 0x100 EXP SWAP1 DIV PUSH1 0xFF AND PUSH2 0x16FE JUMPI DUP4 DUP4 PUSH1 0x40 MLOAD PUSH32 0xE66163EB00000000000000000000000000000000000000000000000000000000 DUP2 MSTORE PUSH1 0x4 ADD PUSH2 0x16F5 SWAP3 SWAP2 SWAP1 PUSH2 0x1ED4 JUMP JUMPDEST PUSH1 0x40 MLOAD DUP1 SWAP2 SUB SWAP1 REVERT JUMPDEST PUSH0 DUP2 PUSH1 0x1 ADD SLOAD SWAP1 POP PUSH0 DUP2 GT PUSH2 0x1748 JUMPI PUSH1 0x40 MLOAD PUSH32 0x8C379A000000000000000000000000000000000000000000000000000000000 DUP2 MSTORE PUSH1 0x4 ADD PUSH2 0x173F SWAP1 PUSH2 0x2048 JUMP JUMPDEST PUSH1 0x40 MLOAD DUP1 SWAP2 SUB SWAP1 REVERT JUMPDEST DUP4 PUSH1 0x3 PUSH0 DUP8 DUP2 MSTORE PUSH1 0x20 ADD SWAP1 DUP2 MSTORE PUSH1 0x20 ADD PUSH0 KECCAK256 PUSH0 PUSH2 0x100 EXP DUP2 SLOAD DUP2 PUSH20 0xFFFFFFFFFFFFFFFFFFFFFFFFFFFFFFFFFFFFFFFF MUL NOT AND SWAP1 DUP4 PUSH20 0xFFFFFFFFFFFFFFFFFFFFFFFFFFFFFFFFFFFFFFFF AND MUL OR SWAP1 SSTORE POP PUSH1 0x1 DUP3 PUSH1 0x2 ADD PUSH0 PUSH2 0x100 EXP DUP2 SLOAD DUP2 PUSH1 0xFF MUL NOT AND SWAP1 DUP4 PUSH1 0x2 DUP2 GT ISZERO PUSH2 0x17BE JUMPI PUSH2 0x17BD PUSH2 0x1C1E JUMP JUMPDEST JUMPDEST MUL OR SWAP1 SSTORE POP PUSH0 DUP3 PUSH1 0x1 ADD DUP2 SWAP1 SSTORE POP PUSH0 DUP5 PUSH20 0xFFFFFFFFFFFFFFFFFFFFFFFFFFFFFFFFFFFFFFFF AND DUP3 PUSH1 0x40 MLOAD PUSH2 0x17F1 SWAP1 PUSH2 0x1F28 JUMP JUMPDEST PUSH0 PUSH1 0x40 MLOAD DUP1 DUP4 SUB DUP2 DUP6 DUP8 GAS CALL SWAP3 POP POP POP RETURNDATASIZE DUP1 PUSH0 DUP2 EQ PUSH2 0x182B JUMPI PUSH1 0x40 MLOAD SWAP2 POP PUSH1 0x1F NOT PUSH1 0x3F RETURNDATASIZE ADD AND DUP3 ADD PUSH1 0x40 MSTORE RETURNDATASIZE DUP3 MSTORE RETURNDATASIZE PUSH0 PUSH1 0x20 DUP5 ADD RETURNDATACOPY PUSH2 0x1830 JUMP JUMPDEST PUSH1 0x60 SWAP2 POP JUMPDEST POP POP SWAP1 POP DUP1 PUSH2 0x1874 JUMPI PUSH1 0x40 MLOAD PUSH32 0x8C379A000000000000000000000000000000000000000000000000000000000 DUP2 MSTORE PUSH1 0x4 ADD PUSH2 0x186B SWAP1 PUSH2 0x20B0 JUMP JUMPDEST PUSH1 0x40 MLOAD DUP1 SWAP2 SUB SWAP1 REVERT JUMPDEST PUSH32 0xDE9133AE9F24B7424A923E1BF901ED2381EE3E99707FF9B9B696602199B3DCC DUP7 DUP7 DUP5 PUSH1 0x40 MLOAD PUSH2 0x18A7 SWAP4 SWAP3 SWAP2 SWAP1 PUSH2 0x20CE JUMP JUMPDEST PUSH1 0x40 MLOAD DUP1 SWAP2 SUB SWAP1 LOG1 POP POP POP POP POP POP JUMP JUMPDEST PUSH0 PUSH1 0x20 MSTORE DUP1 PUSH0 MSTORE PUSH1 0x40 PUSH0 KECCAK256 PUSH0 SWAP2 POP SWAP1 POP DUP1 PUSH0 ADD PUSH0 SWAP1 SLOAD SWAP1 PUSH2 0x100 EXP SWAP1 DIV PUSH20 0xFFFFFFFFFFFFFFFFFFFFFFFFFFFFFFFFFFFFFFFF AND SWAP1 DUP1 PUSH1 0x1 ADD SLOAD SWAP1 DUP1 PUSH1 0x2 ADD PUSH0 SWAP1 SLOAD SWAP1 PUSH2 0x100 EXP SWAP1 DIV PUSH1 0xFF AND SWAP1 DUP1 PUSH1 0x2 ADD PUSH1 0x1 SWAP1 SLOAD SWAP1 PUSH2 0x100 EXP SWAP1 DIV PUSH1 0xFF AND SWAP1 DUP1 PUSH1 0x3 ADD SLOAD SWAP1 DUP1 PUSH1 0x4 ADD SLOAD SWAP1 DUP1 PUSH1 0x5 ADD SLOAD SWAP1 DUP1 PUSH1 0x6 ADD SLOAD SWAP1 DUP1 PUSH1 0x7 ADD PUSH0 SWAP1 SLOAD SWAP1 PUSH2 0x100 EXP SWAP1 DIV PUSH8 0xFFFFFFFFFFFFFFFF AND SWAP1 POP DUP10 JUMP JUMPDEST PUSH0 PUSH0 PUSH20 0xFFFFFFFFFFFFFFFFFFFFFFFFFFFFFFFFFFFFFFFF AND PUSH0 PUSH0 DUP5 DUP2 MSTORE PUSH1 0x20 ADD SWAP1 DUP2 MSTORE PUSH1 0x20 ADD PUSH0 KECCAK256 PUSH0 ADD PUSH0 SWAP1 SLOAD SWAP1 PUSH2 0x100 EXP SWAP1 DIV PUSH20 0xFFFFFFFFFFFFFFFFFFFFFFFFFFFFFFFFFFFFFFFF AND PUSH20 0xFFFFFFFFFFFFFFFFFFFFFFFFFFFFFFFFFFFFFFFF AND EQ ISZERO SWAP1 POP SWAP2 SWAP1 POP JUMP JUMPDEST PUSH0 DUP3 DUP3 MSTORE PUSH1 0x20 DUP3 ADD SWAP1 POP SWAP3 SWAP2 POP POP JUMP JUMPDEST PUSH32 0x75736520637265617465526F6F6D2F6465706F736974207769746820636F6465 PUSH0 DUP3 ADD MSTORE POP JUMP JUMPDEST PUSH0 PUSH2 0x19F8 PUSH1 0x20 DUP4 PUSH2 0x19B4 JUMP JUMPDEST SWAP2 POP PUSH2 0x1A03 DUP3 PUSH2 0x19C4 JUMP JUMPDEST PUSH1 0x20 DUP3 ADD SWAP1 POP SWAP2 SWAP1 POP JUMP JUMPDEST PUSH0 PUSH1 0x20 DUP3 ADD SWAP1 POP DUP2 DUP2 SUB PUSH0 DUP4 ADD MSTORE PUSH2 0x1A25 DUP2 PUSH2 0x19EC JUMP JUMPDEST SWAP1 POP SWAP2 SWAP1 POP JUMP JUMPDEST PUSH0 PUSH0 REVERT JUMPDEST PUSH0 DUP2 SWAP1 POP SWAP2 SWAP1 POP JUMP JUMPDEST PUSH2 0x1A42 DUP2 PUSH2 0x1A30 JUMP JUMPDEST DUP2 EQ PUSH2 0x1A4C JUMPI PUSH0 PUSH0 REVERT JUMPDEST POP JUMP JUMPDEST PUSH0 DUP2 CALLDATALOAD SWAP1 POP PUSH2 0x1A5D DUP2 PUSH2 0x1A39 JUMP JUMPDEST SWAP3 SWAP2 POP POP JUMP JUMPDEST PUSH0 PUSH1 0x20 DUP3 DUP5 SUB SLT ISZERO PUSH2 0x1A78 JUMPI PUSH2 0x1A77 PUSH2 0x1A2C JUMP JUMPDEST JUMPDEST PUSH0 PUSH2 0x1A85 DUP5 DUP3 DUP6 ADD PUSH2 0x1A4F JUMP JUMPDEST SWAP2 POP POP SWAP3 SWAP2 POP POP JUMP JUMPDEST PUSH0 DUP2 SWAP1 POP SWAP2 SWAP1 POP JUMP JUMPDEST PUSH2 0x1AA0 DUP2 PUSH2 0x1A8E JUMP JUMPDEST DUP2 EQ PUSH2 0x1AAA JUMPI PUSH0 PUSH0 REVERT JUMPDEST POP JUMP JUMPDEST PUSH0 DUP2 CALLDATALOAD SWAP1 POP PUSH2 0x1ABB DUP2 PUSH2 0x1A97 JUMP JUMPDEST SWAP3 SWAP2 POP POP JUMP JUMPDEST PUSH0 PUSH0 PUSH1 0x40 DUP4 DUP6 SUB SLT ISZERO PUSH2 0x1AD7 JUMPI PUSH2 0x1AD6 PUSH2 0x1A2C JUMP JUMPDEST JUMPDEST PUSH0 PUSH2 0x1AE4 DUP6 DUP3 DUP7 ADD PUSH2 0x1A4F JUMP JUMPDEST SWAP3 POP POP PUSH1 0x20 PUSH2 0x1AF5 DUP6 DUP3 DUP7 ADD PUSH2 0x1AAD JUMP JUMPDEST SWAP2 POP POP SWAP3 POP SWAP3 SWAP1 POP JUMP JUMPDEST PUSH0 PUSH20 0xFFFFFFFFFFFFFFFFFFFFFFFFFFFFFFFFFFFFFFFF DUP3 AND SWAP1 POP SWAP2 SWAP1 POP JUMP JUMPDEST PUSH0 PUSH2 0x1B28 DUP3 PUSH2 0x1AFF JUMP JUMPDEST SWAP1 POP SWAP2 SWAP1 POP JUMP JUMPDEST PUSH2 0x1B38 DUP2 PUSH2 0x1B1E JUMP JUMPDEST DUP3 MSTORE POP POP JUMP JUMPDEST PUSH0 PUSH1 0x20 DUP3 ADD SWAP1 POP PUSH2 0x1B51 PUSH0 DUP4 ADD DUP5 PUSH2 0x1B2F JUMP JUMPDEST SWAP3 SWAP2 POP POP JUMP JUMPDEST PUSH0 PUSH0 PUSH0 PUSH1 0x60 DUP5 DUP7 SUB SLT ISZERO PUSH2 0x1B6E JUMPI PUSH2 0x1B6D PUSH2 0x1A2C JUMP JUMPDEST JUMPDEST PUSH0 PUSH2 0x1B7B DUP7 DUP3 DUP8 ADD PUSH2 0x1A4F JUMP JUMPDEST SWAP4 POP POP PUSH1 0x20 PUSH2 0x1B8C DUP7 DUP3 DUP8 ADD PUSH2 0x1AAD JUMP JUMPDEST SWAP3 POP POP PUSH1 0x40 PUSH2 0x1B9D DUP7 DUP3 DUP8 ADD PUSH2 0x1AAD JUMP JUMPDEST SWAP2 POP POP SWAP3 POP SWAP3 POP SWAP3 JUMP JUMPDEST PUSH2 0x1BB0 DUP2 PUSH2 0x1B1E JUMP JUMPDEST DUP2 EQ PUSH2 0x1BBA JUMPI PUSH0 PUSH0 REVERT JUMPDEST POP JUMP JUMPDEST PUSH0 DUP2 CALLDATALOAD SWAP1 POP PUSH2 0x1BCB DUP2 PUSH2 0x1BA7 JUMP JUMPDEST SWAP3 SWAP2 POP POP JUMP JUMPDEST PUSH0 PUSH0 PUSH1 0x40 DUP4 DUP6 SUB SLT ISZERO PUSH2 0x1BE7 JUMPI PUSH2 0x1BE6 PUSH2 0x1A2C JUMP JUMPDEST JUMPDEST PUSH0 PUSH2 0x1BF4 DUP6 DUP3 DUP7 ADD PUSH2 0x1A4F JUMP JUMPDEST SWAP3 POP POP PUSH1 0x20 PUSH2 0x1C05 DUP6 DUP3 DUP7 ADD PUSH2 0x1BBD JUMP JUMPDEST SWAP2 POP POP SWAP3 POP SWAP3 SWAP1 POP JUMP JUMPDEST PUSH2 0x1C18 DUP2 PUSH2 0x1A8E JUMP JUMPDEST DUP3 MSTORE POP POP JUMP JUMPDEST PUSH32 0x4E487B7100000000000000000000000000000000000000000000000000000000 PUSH0 MSTORE PUSH1 0x21 PUSH1 0x4 MSTORE PUSH1 0x24 PUSH0 REVERT JUMPDEST PUSH1 0x3 DUP2 LT PUSH2 0x1C5C JUMPI PUSH2 0x1C5B PUSH2 0x1C1E JUMP JUMPDEST JUMPDEST POP JUMP JUMPDEST PUSH0 DUP2 SWAP1 POP PUSH2 0x1C6C DUP3 PUSH2 0x1C4B JUMP JUMPDEST SWAP2 SWAP1 POP JUMP JUMPDEST PUSH0 PUSH2 0x1C7B DUP3 PUSH2 0x1C5F JUMP JUMPDEST SWAP1 POP SWAP2 SWAP1 POP JUMP JUMPDEST PUSH2 0x1C8B DUP2 PUSH2 0x1C71 JUMP JUMPDEST DUP3 MSTORE POP POP JUMP JUMPDEST PUSH1 0x2 DUP2 LT PUSH2 0x1CA2 JUMPI PUSH2 0x1CA1 PUSH2 0x1C1E JUMP JUMPDEST JUMPDEST POP JUMP JUMPDEST PUSH0 DUP2 SWAP1 POP PUSH2 0x1CB2 DUP3 PUSH2 0x1C91 JUMP JUMPDEST SWAP2 SWAP1 POP JUMP JUMPDEST PUSH0 PUSH2 0x1CC1 DUP3 PUSH2 0x1CA5 JUMP JUMPDEST SWAP1 POP SWAP2 SWAP1 POP JUMP JUMPDEST PUSH2 0x1CD1 DUP2 PUSH2 0x1CB7 JUMP JUMPDEST DUP3 MSTORE POP POP JUMP JUMPDEST PUSH0 PUSH8 0xFFFFFFFFFFFFFFFF DUP3 AND SWAP1 POP SWAP2 SWAP1 POP JUMP JUMPDEST PUSH2 0x1CF3 DUP2 PUSH2 0x1CD7 JUMP JUMPDEST DUP3 MSTORE POP POP JUMP JUMPDEST PUSH0 PUSH2 0x120 DUP3 ADD SWAP1 POP PUSH2 0x1D0D PUSH0 DUP4 ADD DUP13 PUSH2 0x1B2F JUMP JUMPDEST PUSH2 0x1D1A PUSH1 0x20 DUP4 ADD DUP12 PUSH2 0x1C0F JUMP JUMPDEST PUSH2 0x1D27 PUSH1 0x40 DUP4 ADD DUP11 PUSH2 0x1C82 JUMP JUMPDEST PUSH2 0x1D34 PUSH1 0x60 DUP4 ADD DUP10 PUSH2 0x1CC8 JUMP JUMPDEST PUSH2 0x1D41 PUSH1 0x80 DUP4 ADD DUP9 PUSH2 0x1C0F JUMP JUMPDEST PUSH2 0x1D4E PUSH1 0xA0 DUP4 ADD DUP8 PUSH2 0x1C0F JUMP JUMPDEST PUSH2 0x1D5B PUSH1 0xC0 DUP4 ADD DUP7 PUSH2 0x1C0F JUMP JUMPDEST PUSH2 0x1D68 PUSH1 0xE0 DUP4 ADD DUP6 PUSH2 0x1C0F JUMP JUMPDEST PUSH2 0x1D76 PUSH2 0x100 DUP4 ADD DUP5 PUSH2 0x1CEA JUMP JUMPDEST SWAP11 SWAP10 POP POP POP POP POP POP POP POP POP POP JUMP JUMPDEST PUSH2 0x1D8D DUP2 PUSH2 0x1A30 JUMP JUMPDEST DUP3 MSTORE POP POP JUMP JUMPDEST PUSH0 PUSH1 0x20 DUP3 ADD SWAP1 POP PUSH2 0x1DA6 PUSH0 DUP4 ADD DUP5 PUSH2 0x1D84 JUMP JUMPDEST SWAP3 SWAP2 POP POP JUMP JUMPDEST PUSH32 0x4E487B7100000000000000000000000000000000000000000000000000000000 PUSH0 MSTORE PUSH1 0x11 PUSH1 0x4 MSTORE PUSH1 0x24 PUSH0 REVERT JUMPDEST PUSH0 PUSH2 0x1DE3 DUP3 PUSH2 0x1A8E JUMP JUMPDEST SWAP2 POP PUSH0 DUP3 SUB PUSH2 0x1DF5 JUMPI PUSH2 0x1DF4 PUSH2 0x1DAC JUMP JUMPDEST JUMPDEST PUSH1 0x1 DUP3 SUB SWAP1 POP SWAP2 SWAP1 POP JUMP JUMPDEST PUSH32 0x4E487B7100000000000000000000000000000000000000000000000000000000 PUSH0 MSTORE PUSH1 0x32 PUSH1 0x4 MSTORE PUSH1 0x24 PUSH0 REVERT JUMPDEST PUSH0 PUSH2 0x1E37 DUP3 PUSH2 0x1A8E JUMP JUMPDEST SWAP2 POP PUSH2 0x1E42 DUP4 PUSH2 0x1A8E JUMP JUMPDEST SWAP3 POP DUP3 DUP3 SUB SWAP1 POP DUP2 DUP2 GT ISZERO PUSH2 0x1E5A JUMPI PUSH2 0x1E59 PUSH2 0x1DAC JUMP JUMPDEST JUMPDEST SWAP3 SWAP2 POP POP JUMP JUMPDEST PUSH32 0x4E487B7100000000000000000000000000000000000000000000000000000000 PUSH0 MSTORE PUSH1 0x31 PUSH1 0x4 MSTORE PUSH1 0x24 PUSH0 REVERT JUMPDEST PUSH0 PUSH2 0x1E97 DUP3 PUSH2 0x1A8E JUMP JUMPDEST SWAP2 POP PUSH32 0xFFFFFFFFFFFFFFFFFFFFFFFFFFFFFFFFFFFFFFFFFFFFFFFFFFFFFFFFFFFFFFFF DUP3 SUB PUSH2 0x1EC9 JUMPI PUSH2 0x1EC8 PUSH2 0x1DAC JUMP JUMPDEST JUMPDEST PUSH1 0x1 DUP3 ADD SWAP1 POP SWAP2 SWAP1 POP JUMP JUMPDEST PUSH0 PUSH1 0x40 DUP3 ADD SWAP1 POP PUSH2 0x1EE7 PUSH0 DUP4 ADD DUP6 PUSH2 0x1D84 JUMP JUMPDEST PUSH2 0x1EF4 PUSH1 0x20 DUP4 ADD DUP5 PUSH2 0x1B2F JUMP JUMPDEST SWAP4 SWAP3 POP POP POP JUMP JUMPDEST PUSH0 DUP2 SWAP1 POP SWAP3 SWAP2 POP POP JUMP JUMPDEST POP JUMP JUMPDEST PUSH0 PUSH2 0x1F13 PUSH0 DUP4 PUSH2 0x1EFB JUMP JUMPDEST SWAP2 POP PUSH2 0x1F1E DUP3 PUSH2 0x1F05 JUMP JUMPDEST PUSH0 DUP3 ADD SWAP1 POP SWAP2 SWAP1 POP JUMP JUMPDEST PUSH0 PUSH2 0x1F32 DUP3 PUSH2 0x1F08 JUMP JUMPDEST SWAP2 POP DUP2 SWAP1 POP SWAP2 SWAP1 POP JUMP JUMPDEST PUSH32 0x526566756E64206661696C757265000000000000000000000000000000000000 PUSH0 DUP3 ADD MSTORE POP JUMP JUMPDEST PUSH0 PUSH2 0x1F70 PUSH1 0xE DUP4 PUSH2 0x19B4 JUMP JUMPDEST SWAP2 POP PUSH2 0x1F7B DUP3 PUSH2 0x1F3C JUMP JUMPDEST PUSH1 0x20 DUP3 ADD SWAP1 POP SWAP2 SWAP1 POP JUMP JUMPDEST PUSH0 PUSH1 0x20 DUP3 ADD SWAP1 POP DUP2 DUP2 SUB PUSH0 DUP4 ADD MSTORE PUSH2 0x1F9D DUP2 PUSH2 0x1F64 JUMP JUMPDEST SWAP1 POP SWAP2 SWAP1 POP JUMP JUMPDEST PUSH0 PUSH2 0x1FAE DUP3 PUSH2 0x1A8E JUMP JUMPDEST SWAP2 POP PUSH2 0x1FB9 DUP4 PUSH2 0x1A8E JUMP JUMPDEST SWAP3 POP DUP3 DUP3 ADD SWAP1 POP DUP1 DUP3 GT ISZERO PUSH2 0x1FD1 JUMPI PUSH2 0x1FD0 PUSH2 0x1DAC JUMP JUMPDEST JUMPDEST SWAP3 SWAP2 POP POP JUMP JUMPDEST PUSH0 PUSH1 0x40 DUP3 ADD SWAP1 POP PUSH2 0x1FEA PUSH0 DUP4 ADD DUP6 PUSH2 0x1D84 JUMP JUMPDEST PUSH2 0x1FF7 PUSH1 0x20 DUP4 ADD DUP5 PUSH2 0x1C0F JUMP JUMPDEST SWAP4 SWAP3 POP POP POP JUMP JUMPDEST PUSH32 0x4E6F207072697A652062616C616E636500000000000000000000000000000000 PUSH0 DUP3 ADD MSTORE POP JUMP JUMPDEST PUSH0 PUSH2 0x2032 PUSH1 0x10 DUP4 PUSH2 0x19B4 JUMP JUMPDEST SWAP2 POP PUSH2 0x203D DUP3 PUSH2 0x1FFE JUMP JUMPDEST PUSH1 0x20 DUP3 ADD SWAP1 POP SWAP2 SWAP1 POP JUMP JUMPDEST PUSH0 PUSH1 0x20 DUP3 ADD SWAP1 POP DUP2 DUP2 SUB PUSH0 DUP4 ADD MSTORE PUSH2 0x205F DUP2 PUSH2 0x2026 JUMP JUMPDEST SWAP1 POP SWAP2 SWAP1 POP JUMP JUMPDEST PUSH32 0x57696E6E6572207061796F7574206661696C7572650000000000000000000000 PUSH0 DUP3 ADD MSTORE POP JUMP JUMPDEST PUSH0 PUSH2 0x209A PUSH1 0x15 DUP4 PUSH2 0x19B4 JUMP JUMPDEST SWAP2 POP PUSH2 0x20A5 DUP3 PUSH2 0x2066 JUMP JUMPDEST PUSH1 0x20 DUP3 ADD SWAP1 POP SWAP2 SWAP1 POP JUMP JUMPDEST PUSH0 PUSH1 0x20 DUP3 ADD SWAP1 POP DUP2 DUP2 SUB PUSH0 DUP4 ADD MSTORE PUSH2 0x20C7 DUP2 PUSH2 0x208E JUMP JUMPDEST SWAP1 POP SWAP2 SWAP1 POP JUMP JUMPDEST PUSH0 PUSH1 0x60 DUP3 ADD SWAP1 POP PUSH2 0x20E1 PUSH0 DUP4 ADD DUP7 PUSH2 0x1D84 JUMP JUMPDEST PUSH2 0x20EE PUSH1 0x20 DUP4 ADD DUP6 PUSH2 0x1B2F JUMP JUMPDEST PUSH2 0x20FB PUSH1 0x40 DUP4 ADD DUP5 PUSH2 0x1C0F JUMP JUMPDEST SWAP5 SWAP4 POP POP POP POP JUMP INVALID LOG2 PUSH5 0x6970667358 0x22 SLT KECCAK256 0xD9 0xCE 0xFC PUSH11 0xA2CEB58A3C2BED2C1FA4CE 0x2B EXTDELEGATECALL DUP16 0xD 0xEF SWAP8 RETURNDATASIZE DUP15 0xCE EXTCODEHASH MCOPY 0x2C BLOCKHASH PUSH31 0xC7508764736F6C634300081E00330000000000000000000000000000000000 "
				},
				"gasEstimates": {
					"creation": {
						"codeDepositCost": "1701000",
						"executionCost": "infinite",
						"totalCost": "infinite"
					},
					"external": {
						"closeRoom(bytes32)": "infinite",
						"createRoom(bytes32,uint256,uint256)": "infinite",
						"deposit(bytes32)": "infinite",
						"joinRoom(bytes32)": "infinite",
						"leaveRoom(bytes32)": "infinite",
						"owner()": "infinite",
						"participants(bytes32,uint256)": "5204",
						"rooms(bytes32)": "infinite",
						"startRoom(bytes32)": "infinite",
						"winnerSelected(bytes32,address)": "infinite",
						"winners(bytes32)": "2872"
					},
					"internal": {
						"_isRoomExist(bytes32)": "2268"
					}
				},
				"methodIdentifiers": {
					"closeRoom(bytes32)": "af8b9b18",
					"createRoom(bytes32,uint256,uint256)": "9a7f487e",
					"deposit(bytes32)": "b214faa5",
					"joinRoom(bytes32)": "4b29b4c4",
					"leaveRoom(bytes32)": "21fe77aa",
					"owner()": "8da5cb5b",
					"participants(bytes32,uint256)": "414d47f4",
					"rooms(bytes32)": "d7fbc2e4",
					"startRoom(bytes32)": "a0c2957a",
					"winnerSelected(bytes32,address)": "b48d3baa",
					"winners(bytes32)": "4277f4fd"
				}
			},
			"storageLayout": {
				"storage": [
					{
						"astId": 167,
						"contract": "contracts/Pickr.sol:Pickr",
						"label": "rooms",
						"offset": 0,
						"slot": "0",
						"type": "t_mapping(t_bytes32,t_struct(Room)53_storage)"
					},
					{
						"astId": 173,
						"contract": "contracts/Pickr.sol:Pickr",
						"label": "hasJoined",
						"offset": 0,
						"slot": "1",
						"type": "t_mapping(t_bytes32,t_mapping(t_address,t_bool))"
					},
					{
						"astId": 178,
						"contract": "contracts/Pickr.sol:Pickr",
						"label": "participants",
						"offset": 0,
						"slot": "2",
						"type": "t_mapping(t_bytes32,t_array(t_address)dyn_storage)"
					},
					{
						"astId": 182,
						"contract": "contracts/Pickr.sol:Pickr",
						"label": "winners",
						"offset": 0,
						"slot": "3",
						"type": "t_mapping(t_bytes32,t_address)"
					}
				],
				"types": {
					"t_address": {
						"encoding": "inplace",
						"label": "address",
						"numberOfBytes": "20"
					},
					"t_array(t_address)dyn_storage": {
						"base": "t_address",
						"encoding": "dynamic_array",
						"label": "address[]",
						"numberOfBytes": "32"
					},
					"t_bool": {
						"encoding": "inplace",
						"label": "bool",
						"numberOfBytes": "1"
					},
					"t_bytes32": {
						"encoding": "inplace",
						"label": "bytes32",
						"numberOfBytes": "32"
					},
					"t_enum(RoomAccessMode)8": {
						"encoding": "inplace",
						"label": "enum IPickr.RoomAccessMode",
						"numberOfBytes": "1"
					},
					"t_enum(RoomStatus)5": {
						"encoding": "inplace",
						"label": "enum IPickr.RoomStatus",
						"numberOfBytes": "1"
					},
					"t_mapping(t_address,t_bool)": {
						"encoding": "mapping",
						"key": "t_address",
						"label": "mapping(address => bool)",
						"numberOfBytes": "32",
						"value": "t_bool"
					},
					"t_mapping(t_bytes32,t_address)": {
						"encoding": "mapping",
						"key": "t_bytes32",
						"label": "mapping(bytes32 => address)",
						"numberOfBytes": "32",
						"value": "t_address"
					},
					"t_mapping(t_bytes32,t_array(t_address)dyn_storage)": {
						"encoding": "mapping",
						"key": "t_bytes32",
						"label": "mapping(bytes32 => address[])",
						"numberOfBytes": "32",
						"value": "t_array(t_address)dyn_storage"
					},
					"t_mapping(t_bytes32,t_mapping(t_address,t_bool))": {
						"encoding": "mapping",
						"key": "t_bytes32",
						"label": "mapping(bytes32 => mapping(address => bool))",
						"numberOfBytes": "32",
						"value": "t_mapping(t_address,t_bool)"
					},
					"t_mapping(t_bytes32,t_struct(Room)53_storage)": {
						"encoding": "mapping",
						"key": "t_bytes32",
						"label": "mapping(bytes32 => struct IPickr.Room)",
						"numberOfBytes": "32",
						"value": "t_struct(Room)53_storage"
					},
					"t_struct(Room)53_storage": {
						"encoding": "inplace",
						"label": "struct IPickr.Room",
						"members": [
							{
								"astId": 34,
								"contract": "contracts/Pickr.sol:Pickr",
								"label": "creator",
								"offset": 0,
								"slot": "0",
								"type": "t_address"
							},
							{
								"astId": 36,
								"contract": "contracts/Pickr.sol:Pickr",
								"label": "balance",
								"offset": 0,
								"slot": "1",
								"type": "t_uint256"
							},
							{
								"astId": 39,
								"contract": "contracts/Pickr.sol:Pickr",
								"label": "status",
								"offset": 0,
								"slot": "2",
								"type": "t_enum(RoomStatus)5"
							},
							{
								"astId": 42,
								"contract": "contracts/Pickr.sol:Pickr",
								"label": "accessMode",
								"offset": 1,
								"slot": "2",
								"type": "t_enum(RoomAccessMode)8"
							},
							{
								"astId": 44,
								"contract": "contracts/Pickr.sol:Pickr",
								"label": "maxParticipant",
								"offset": 0,
								"slot": "3",
								"type": "t_uint256"
							},
							{
								"astId": 46,
								"contract": "contracts/Pickr.sol:Pickr",
								"label": "minParticipant",
								"offset": 0,
								"slot": "4",
								"type": "t_uint256"
							},
							{
								"astId": 48,
								"contract": "contracts/Pickr.sol:Pickr",
								"label": "totalParticipant",
								"offset": 0,
								"slot": "5",
								"type": "t_uint256"
							},
							{
								"astId": 50,
								"contract": "contracts/Pickr.sol:Pickr",
								"label": "totalWinner",
								"offset": 0,
								"slot": "6",
								"type": "t_uint256"
							},
							{
								"astId": 52,
								"contract": "contracts/Pickr.sol:Pickr",
								"label": "createdAt",
								"offset": 0,
								"slot": "7",
								"type": "t_uint64"
							}
						],
						"numberOfBytes": "256"
					},
					"t_uint256": {
						"encoding": "inplace",
						"label": "uint256",
						"numberOfBytes": "32"
					},
					"t_uint64": {
						"encoding": "inplace",
						"label": "uint64",
						"numberOfBytes": "8"
					}
				}
			},
			"userdoc": {
				"kind": "user",
				"methods": {},
				"version": 1
			}
		}
	}
}