{
	"contracts/Pickr.sol": {
		"Pickr": {
			"abi": [
				{
					"inputs": [],
					"stateMutability": "nonpayable",
					"type": "constructor"
				},
				{
					"inputs": [
						{
							"internalType": "bytes32",
							"name": "codeHash",
							"type": "bytes32"
						},
						{
							"internalType": "address",
							"name": "addr",
							"type": "address"
						}
					],
					"name": "ErrorAddressIsNotParticipant",
					"type": "error"
				},
				{
					"inputs": [
						{
							"internalType": "bytes32",
							"name": "codeHash",
							"type": "bytes32"
						}
					],
					"name": "ErrorCodeAlreadyUsed",
					"type": "error"
				},
				{
					"inputs": [],
					"name": "ErrorCodeIsRequired",
					"type": "error"
				},
				{
					"inputs": [],
					"name": "ErrorDepositRequired",
					"type": "error"
				},
				{
					"inputs": [
						{
							"internalType": "bytes32",
							"name": "codeHash",
							"type": "bytes32"
						}
					],
					"name": "ErrorInvalidWinner",
					"type": "error"
				},
				{
					"inputs": [],
					"name": "ErrorMaxParticipantLessThanMin",
					"type": "error"
				},
				{
					"inputs": [],
					"name": "ErrorMinParticipantMustBeGreaterThanZero",
					"type": "error"
				},
				{
					"inputs": [
						{
							"internalType": "bytes32",
							"name": "codeHash",
							"type": "bytes32"
						}
					],
					"name": "ErrorNoBalance",
					"type": "error"
				},
				{
					"inputs": [
						{
							"internalType": "address",
							"name": "caller",
							"type": "address"
						}
					],
					"name": "ErrorNotAuthorized",
					"type": "error"
				},
				{
					"inputs": [
						{
							"internalType": "bytes32",
							"name": "codeHash",
							"type": "bytes32"
						}
					],
					"name": "ErrorNotEnoughParticipant",
					"type": "error"
				},
				{
					"inputs": [
						{
							"internalType": "bytes32",
							"name": "codeHash",
							"type": "bytes32"
						}
					],
					"name": "ErrorRoomIsFull",
					"type": "error"
				},
				{
					"inputs": [
						{
							"internalType": "bytes32",
							"name": "codeHash",
							"type": "bytes32"
						}
					],
					"name": "ErrorRoomIsNotActive",
					"type": "error"
				},
				{
					"inputs": [
						{
							"internalType": "bytes32",
							"name": "codeHash",
							"type": "bytes32"
						}
					],
					"name": "ErrorRoomIsNotExist",
					"type": "error"
				},
				{
					"inputs": [
						{
							"internalType": "bytes32",
							"name": "codeHash",
							"type": "bytes32"
						}
					],
					"name": "ErrorRoomIsNotStarted",
					"type": "error"
				},
				{
					"inputs": [
						{
							"internalType": "bytes32",
							"name": "codeHash",
							"type": "bytes32"
						}
					],
					"name": "ErrorUserAlreadyJoinRoom",
					"type": "error"
				},
				{
					"inputs": [
						{
							"internalType": "bytes32",
							"name": "codeHash",
							"type": "bytes32"
						}
					],
					"name": "ErrorUserIsNotParticipant",
					"type": "error"
				},
				{
					"inputs": [
						{
							"internalType": "bytes32",
							"name": "codeHash",
							"type": "bytes32"
						}
					],
					"name": "ErrorUserIsTheRoomOwner",
					"type": "error"
				},
				{
					"inputs": [
						{
							"internalType": "bytes32",
							"name": "codeHash",
							"type": "bytes32"
						}
					],
					"name": "closeRoom",
					"outputs": [],
					"stateMutability": "nonpayable",
					"type": "function"
				},
				{
					"inputs": [
						{
							"internalType": "uint256",
							"name": "minParticipant",
							"type": "uint256"
						},
						{
							"internalType": "uint256",
							"name": "maxParticipant",
							"type": "uint256"
						},
						{
							"internalType": "bytes32",
							"name": "codeHash",
							"type": "bytes32"
						}
					],
					"name": "createRoom",
					"outputs": [],
					"stateMutability": "payable",
					"type": "function"
				},
				{
					"inputs": [
						{
							"internalType": "bytes32",
							"name": "codeHash",
							"type": "bytes32"
						}
					],
					"name": "deposit",
					"outputs": [],
					"stateMutability": "payable",
					"type": "function"
				},
				{
					"inputs": [
						{
							"internalType": "address",
							"name": "creator",
							"type": "address"
						}
					],
					"name": "getUserRoomCodes",
					"outputs": [
						{
							"internalType": "bytes32[]",
							"name": "",
							"type": "bytes32[]"
						}
					],
					"stateMutability": "view",
					"type": "function"
				},
				{
					"inputs": [
						{
							"internalType": "address",
							"name": "creator",
							"type": "address"
						}
					],
					"name": "getUserRooms",
					"outputs": [
						{
							"components": [
								{
									"internalType": "address",
									"name": "creator",
									"type": "address"
								},
								{
									"internalType": "uint256",
									"name": "balance",
									"type": "uint256"
								},
								{
									"internalType": "enum IPickr.RoomStatus",
									"name": "status",
									"type": "uint8"
								},
								{
									"internalType": "enum IPickr.RoomAccessMode",
									"name": "accessMode",
									"type": "uint8"
								},
								{
									"internalType": "uint256",
									"name": "maxParticipant",
									"type": "uint256"
								},
								{
									"internalType": "uint256",
									"name": "minParticipant",
									"type": "uint256"
								},
								{
									"internalType": "uint256",
									"name": "totalParticipant",
									"type": "uint256"
								},
								{
									"internalType": "uint64",
									"name": "createdAt",
									"type": "uint64"
								}
							],
							"internalType": "struct IPickr.Room[]",
							"name": "",
							"type": "tuple[]"
						},
						{
							"internalType": "bytes32[]",
							"name": "",
							"type": "bytes32[]"
						}
					],
					"stateMutability": "view",
					"type": "function"
				},
				{
					"inputs": [
						{
							"internalType": "bytes32",
							"name": "codeHash",
							"type": "bytes32"
						}
					],
					"name": "joinRoom",
					"outputs": [],
					"stateMutability": "nonpayable",
					"type": "function"
				},
				{
					"inputs": [
						{
							"internalType": "bytes32",
							"name": "codeHash",
							"type": "bytes32"
						}
					],
					"name": "leaveRoom",
					"outputs": [],
					"stateMutability": "nonpayable",
					"type": "function"
				},
				{
					"inputs": [],
					"name": "owner",
					"outputs": [
						{
							"internalType": "address",
							"name": "",
							"type": "address"
						}
					],
					"stateMutability": "view",
					"type": "function"
				},
				{
					"inputs": [
						{
							"internalType": "bytes32",
							"name": "codeHash",
							"type": "bytes32"
						}
					],
					"name": "roomParticipants",
					"outputs": [
						{
							"internalType": "address[]",
							"name": "",
							"type": "address[]"
						}
					],
					"stateMutability": "view",
					"type": "function"
				},
				{
					"inputs": [
						{
							"internalType": "bytes32",
							"name": "codeHash",
							"type": "bytes32"
						}
					],
					"name": "rooms",
					"outputs": [
						{
							"internalType": "address",
							"name": "creator",
							"type": "address"
						},
						{
							"internalType": "uint256",
							"name": "balance",
							"type": "uint256"
						},
						{
							"internalType": "enum IPickr.RoomStatus",
							"name": "status",
							"type": "uint8"
						},
						{
							"internalType": "enum IPickr.RoomAccessMode",
							"name": "accessMode",
							"type": "uint8"
						},
						{
							"internalType": "uint256",
							"name": "maxParticipant",
							"type": "uint256"
						},
						{
							"internalType": "uint256",
							"name": "minParticipant",
							"type": "uint256"
						},
						{
							"internalType": "uint256",
							"name": "totalParticipant",
							"type": "uint256"
						},
						{
							"internalType": "uint64",
							"name": "createdAt",
							"type": "uint64"
						}
					],
					"stateMutability": "view",
					"type": "function"
				},
				{
					"inputs": [
						{
							"internalType": "bytes32",
							"name": "codeHash",
							"type": "bytes32"
						}
					],
					"name": "startRoom",
					"outputs": [],
					"stateMutability": "nonpayable",
					"type": "function"
				},
				{
					"inputs": [
						{
							"internalType": "bytes32",
							"name": "codeHash",
							"type": "bytes32"
						},
						{
							"internalType": "address",
							"name": "winner",
							"type": "address"
						}
					],
					"name": "winnerSelected",
					"outputs": [],
					"stateMutability": "nonpayable",
					"type": "function"
				},
				{
					"inputs": [
						{
							"internalType": "bytes32",
							"name": "codeHash",
							"type": "bytes32"
						}
					],
					"name": "winners",
					"outputs": [
						{
							"internalType": "address",
							"name": "",
							"type": "address"
						}
					],
					"stateMutability": "view",
					"type": "function"
				},
				{
					"stateMutability": "payable",
					"type": "receive"
				}
			],
			"devdoc": {
				"kind": "dev",
				"methods": {},
				"version": 1
			},
			"evm": {
				"assembly": "    /* \"contracts/Pickr.sol\":101:6355  contract Pickr is IPickr {... */\n  mstore(0x40, 0xa0)\n    /* \"contracts/Pickr.sol\":132:181  constructor() {... */\n  callvalue\n  dup1\n  iszero\n  tag_1\n  jumpi\n  0x00\n  dup1\n  revert\ntag_1:\n  pop\n    /* \"contracts/Pickr.sol\":164:174  msg.sender */\n  caller\n    /* \"contracts/Pickr.sol\":156:174  owner = msg.sender */\n  0xffffffffffffffffffffffffffffffffffffffff\n  and\n  0x80\n  dup2\n  0xffffffffffffffffffffffffffffffffffffffff\n  and\n  dup2\n  mstore\n  pop\n  pop\n    /* \"contracts/Pickr.sol\":101:6355  contract Pickr is IPickr {... */\n  mload(0x80)\n  codecopy(0x00, dataOffset(sub_0), dataSize(sub_0))\n  0x00\n  assignImmutable(\"0xcc1431a2586c1e11fb75c87e5ee58e4204126a9fdde07075c91770f50276cbb0\")\n  return(0x00, dataSize(sub_0))\nstop\n\nsub_0: assembly {\n        /* \"contracts/Pickr.sol\":101:6355  contract Pickr is IPickr {... */\n      mstore(0x40, 0x80)\n      jumpi(tag_1, lt(calldatasize, 0x04))\n      shr(0xe0, calldataload(0x00))\n      dup1\n      0xaf8b9b18\n      gt\n      tag_16\n      jumpi\n      dup1\n      0xb331d13d\n      gt\n      tag_17\n      jumpi\n      dup1\n      0xb331d13d\n      eq\n      tag_12\n      jumpi\n      dup1\n      0xb48d3baa\n      eq\n      tag_13\n      jumpi\n      dup1\n      0xd7fbc2e4\n      eq\n      tag_14\n      jumpi\n      dup1\n      0xf0375f28\n      eq\n      tag_15\n      jumpi\n      jump(tag_2)\n    tag_17:\n      dup1\n      0xaf8b9b18\n      eq\n      tag_9\n      jumpi\n      dup1\n      0xb01e7961\n      eq\n      tag_10\n      jumpi\n      dup1\n      0xb214faa5\n      eq\n      tag_11\n      jumpi\n      jump(tag_2)\n    tag_16:\n      dup1\n      0x21fe77aa\n      eq\n      tag_3\n      jumpi\n      dup1\n      0x4277f4fd\n      eq\n      tag_4\n      jumpi\n      dup1\n      0x4b29b4c4\n      eq\n      tag_5\n      jumpi\n      dup1\n      0x5d4ca708\n      eq\n      tag_6\n      jumpi\n      dup1\n      0x8da5cb5b\n      eq\n      tag_7\n      jumpi\n      dup1\n      0xa0c2957a\n      eq\n      tag_8\n      jumpi\n      jump(tag_2)\n    tag_1:\n      jumpi(tag_2, calldatasize)\n        /* \"contracts/Pickr.sol\":6304:6346  revert(\"use createRoom/deposit with code\") */\n      mload(0x40)\n      0x08c379a000000000000000000000000000000000000000000000000000000000\n      dup2\n      mstore\n      0x04\n      add\n      tag_20\n      swap1\n      tag_21\n      jump\t// in\n    tag_20:\n      mload(0x40)\n      dup1\n      swap2\n      sub\n      swap1\n      revert\n        /* \"contracts/Pickr.sol\":101:6355  contract Pickr is IPickr {... */\n    tag_2:\n      0x00\n      dup1\n      revert\n        /* \"contracts/Pickr.sol\":4256:5103  function leaveRoom(bytes32 codeHash) external {... */\n    tag_3:\n      callvalue\n      dup1\n      iszero\n      tag_22\n      jumpi\n      0x00\n      dup1\n      revert\n    tag_22:\n      pop\n      tag_23\n      0x04\n      dup1\n      calldatasize\n      sub\n      dup2\n      add\n      swap1\n      tag_24\n      swap2\n      swap1\n      tag_25\n      jump\t// in\n    tag_24:\n      tag_26\n      jump\t// in\n    tag_23:\n      stop\n        /* \"contracts/Pickr.sol\":694:745  mapping(bytes32 codeHash => address) public winners */\n    tag_4:\n      callvalue\n      dup1\n      iszero\n      tag_27\n      jumpi\n      0x00\n      dup1\n      revert\n    tag_27:\n      pop\n      tag_28\n      0x04\n      dup1\n      calldatasize\n      sub\n      dup2\n      add\n      swap1\n      tag_29\n      swap2\n      swap1\n      tag_25\n      jump\t// in\n    tag_29:\n      tag_30\n      jump\t// in\n    tag_28:\n      mload(0x40)\n      tag_31\n      swap2\n      swap1\n      tag_32\n      jump\t// in\n    tag_31:\n      mload(0x40)\n      dup1\n      swap2\n      sub\n      swap1\n      return\n        /* \"contracts/Pickr.sol\":3494:4250  function joinRoom(bytes32 codeHash) external {... */\n    tag_5:\n      callvalue\n      dup1\n      iszero\n      tag_33\n      jumpi\n      0x00\n      dup1\n      revert\n    tag_33:\n      pop\n      tag_34\n      0x04\n      dup1\n      calldatasize\n      sub\n      dup2\n      add\n      swap1\n      tag_35\n      swap2\n      swap1\n      tag_25\n      jump\t// in\n    tag_35:\n      tag_36\n      jump\t// in\n    tag_34:\n      stop\n        /* \"contracts/Pickr.sol\":3343:3488  function roomParticipants(... */\n    tag_6:\n      callvalue\n      dup1\n      iszero\n      tag_37\n      jumpi\n      0x00\n      dup1\n      revert\n    tag_37:\n      pop\n      tag_38\n      0x04\n      dup1\n      calldatasize\n      sub\n      dup2\n      add\n      swap1\n      tag_39\n      swap2\n      swap1\n      tag_25\n      jump\t// in\n    tag_39:\n      tag_40\n      jump\t// in\n    tag_38:\n      mload(0x40)\n      tag_41\n      swap2\n      swap1\n      tag_42\n      jump\t// in\n    tag_41:\n      mload(0x40)\n      dup1\n      swap2\n      sub\n      swap1\n      return\n        /* \"contracts/Pickr.sol\":463:493  address public immutable owner */\n    tag_7:\n      callvalue\n      dup1\n      iszero\n      tag_43\n      jumpi\n      0x00\n      dup1\n      revert\n    tag_43:\n      pop\n      tag_44\n      tag_45\n      jump\t// in\n    tag_44:\n      mload(0x40)\n      tag_46\n      swap2\n      swap1\n      tag_32\n      jump\t// in\n    tag_46:\n      mload(0x40)\n      dup1\n      swap2\n      sub\n      swap1\n      return\n        /* \"contracts/Pickr.sol\":2164:2563  function startRoom(bytes32 codeHash) external onlyCreator(codeHash) {... */\n    tag_8:\n      callvalue\n      dup1\n      iszero\n      tag_47\n      jumpi\n      0x00\n      dup1\n      revert\n    tag_47:\n      pop\n      tag_48\n      0x04\n      dup1\n      calldatasize\n      sub\n      dup2\n      add\n      swap1\n      tag_49\n      swap2\n      swap1\n      tag_25\n      jump\t// in\n    tag_49:\n      tag_50\n      jump\t// in\n    tag_48:\n      stop\n        /* \"contracts/Pickr.sol\":5109:5600  function closeRoom(bytes32 codeHash) external onlyCreator(codeHash) {... */\n    tag_9:\n      callvalue\n      dup1\n      iszero\n      tag_51\n      jumpi\n      0x00\n      dup1\n      revert\n    tag_51:\n      pop\n      tag_52\n      0x04\n      dup1\n      calldatasize\n      sub\n      dup2\n      add\n      swap1\n      tag_53\n      swap2\n      swap1\n      tag_25\n      jump\t// in\n    tag_53:\n      tag_54\n      jump\t// in\n    tag_52:\n      stop\n        /* \"contracts/Pickr.sol\":5896:6261  function getUserRooms(... */\n    tag_10:\n      callvalue\n      dup1\n      iszero\n      tag_55\n      jumpi\n      0x00\n      dup1\n      revert\n    tag_55:\n      pop\n      tag_56\n      0x04\n      dup1\n      calldatasize\n      sub\n      dup2\n      add\n      swap1\n      tag_57\n      swap2\n      swap1\n      tag_58\n      jump\t// in\n    tag_57:\n      tag_59\n      jump\t// in\n    tag_56:\n      mload(0x40)\n      tag_60\n      swap3\n      swap2\n      swap1\n      tag_61\n      jump\t// in\n    tag_60:\n      mload(0x40)\n      dup1\n      swap2\n      sub\n      swap1\n      return\n        /* \"contracts/Pickr.sol\":1751:2158  function deposit(bytes32 codeHash) external payable onlyCreator(codeHash) {... */\n    tag_11:\n      tag_62\n      0x04\n      dup1\n      calldatasize\n      sub\n      dup2\n      add\n      swap1\n      tag_63\n      swap2\n      swap1\n      tag_25\n      jump\t// in\n    tag_63:\n      tag_64\n      jump\t// in\n    tag_62:\n      stop\n        /* \"contracts/Pickr.sol\":841:1745  function createRoom(... */\n    tag_12:\n      tag_65\n      0x04\n      dup1\n      calldatasize\n      sub\n      dup2\n      add\n      swap1\n      tag_66\n      swap2\n      swap1\n      tag_67\n      jump\t// in\n    tag_66:\n      tag_68\n      jump\t// in\n    tag_65:\n      stop\n        /* \"contracts/Pickr.sol\":2569:3337  function winnerSelected(... */\n    tag_13:\n      callvalue\n      dup1\n      iszero\n      tag_69\n      jumpi\n      0x00\n      dup1\n      revert\n    tag_69:\n      pop\n      tag_70\n      0x04\n      dup1\n      calldatasize\n      sub\n      dup2\n      add\n      swap1\n      tag_71\n      swap2\n      swap1\n      tag_72\n      jump\t// in\n    tag_71:\n      tag_73\n      jump\t// in\n    tag_70:\n      stop\n        /* \"contracts/Pickr.sol\":500:546  mapping(bytes32 codeHash => Room) public rooms */\n    tag_14:\n      callvalue\n      dup1\n      iszero\n      tag_74\n      jumpi\n      0x00\n      dup1\n      revert\n    tag_74:\n      pop\n      tag_75\n      0x04\n      dup1\n      calldatasize\n      sub\n      dup2\n      add\n      swap1\n      tag_76\n      swap2\n      swap1\n      tag_25\n      jump\t// in\n    tag_76:\n      tag_77\n      jump\t// in\n    tag_75:\n      mload(0x40)\n      tag_78\n      swap9\n      swap8\n      swap7\n      swap6\n      swap5\n      swap4\n      swap3\n      swap2\n      swap1\n      tag_79\n      jump\t// in\n    tag_78:\n      mload(0x40)\n      dup1\n      swap2\n      sub\n      swap1\n      return\n        /* \"contracts/Pickr.sol\":5741:5890  function getUserRoomCodes(... */\n    tag_15:\n      callvalue\n      dup1\n      iszero\n      tag_80\n      jumpi\n      0x00\n      dup1\n      revert\n    tag_80:\n      pop\n      tag_81\n      0x04\n      dup1\n      calldatasize\n      sub\n      dup2\n      add\n      swap1\n      tag_82\n      swap2\n      swap1\n      tag_58\n      jump\t// in\n    tag_82:\n      tag_83\n      jump\t// in\n    tag_81:\n      mload(0x40)\n      tag_84\n      swap2\n      swap1\n      tag_85\n      jump\t// in\n    tag_84:\n      mload(0x40)\n      dup1\n      swap2\n      sub\n      swap1\n      return\n        /* \"contracts/Pickr.sol\":4256:5103  function leaveRoom(bytes32 codeHash) external {... */\n    tag_26:\n        /* \"contracts/Pickr.sol\":4317:4339  _isRoomExist(codeHash) */\n      tag_87\n        /* \"contracts/Pickr.sol\":4330:4338  codeHash */\n      dup2\n        /* \"contracts/Pickr.sol\":4317:4329  _isRoomExist */\n      tag_88\n        /* \"contracts/Pickr.sol\":4317:4339  _isRoomExist(codeHash) */\n      jump\t// in\n    tag_87:\n        /* \"contracts/Pickr.sol\":4312:4402  if (!_isRoomExist(codeHash)) {... */\n      tag_89\n      jumpi\n        /* \"contracts/Pickr.sol\":4382:4390  codeHash */\n      dup1\n        /* \"contracts/Pickr.sol\":4362:4391  ErrorRoomIsNotExist(codeHash) */\n      mload(0x40)\n      0xe286343900000000000000000000000000000000000000000000000000000000\n      dup2\n      mstore\n      0x04\n      add\n      tag_90\n      swap2\n      swap1\n      tag_91\n      jump\t// in\n    tag_90:\n      mload(0x40)\n      dup1\n      swap2\n      sub\n      swap1\n      revert\n        /* \"contracts/Pickr.sol\":4312:4402  if (!_isRoomExist(codeHash)) {... */\n    tag_89:\n        /* \"contracts/Pickr.sol\":4412:4429  Room storage room */\n      0x00\n        /* \"contracts/Pickr.sol\":4432:4437  rooms */\n      dup1\n        /* \"contracts/Pickr.sol\":4432:4447  rooms[codeHash] */\n      0x00\n        /* \"contracts/Pickr.sol\":4438:4446  codeHash */\n      dup4\n        /* \"contracts/Pickr.sol\":4432:4447  rooms[codeHash] */\n      dup2\n      mstore\n      0x20\n      add\n      swap1\n      dup2\n      mstore\n      0x20\n      add\n      0x00\n      keccak256\n        /* \"contracts/Pickr.sol\":4412:4447  Room storage room = rooms[codeHash] */\n      swap1\n      pop\n        /* \"contracts/Pickr.sol\":4476:4493  RoomStatus.ACTIVE */\n      0x00\n        /* \"contracts/Pickr.sol\":4461:4493  room.status != RoomStatus.ACTIVE */\n      0x02\n      dup2\n      gt\n      iszero\n      tag_92\n      jumpi\n      tag_93\n      tag_94\n      jump\t// in\n    tag_93:\n    tag_92:\n        /* \"contracts/Pickr.sol\":4461:4465  room */\n      dup2\n        /* \"contracts/Pickr.sol\":4461:4472  room.status */\n      0x02\n      add\n      0x00\n      swap1\n      sload\n      swap1\n      0x0100\n      exp\n      swap1\n      div\n      0xff\n      and\n        /* \"contracts/Pickr.sol\":4461:4493  room.status != RoomStatus.ACTIVE */\n      0x02\n      dup2\n      gt\n      iszero\n      tag_95\n      jumpi\n      tag_96\n      tag_94\n      jump\t// in\n    tag_96:\n    tag_95:\n      eq\n        /* \"contracts/Pickr.sol\":4457:4557  if (room.status != RoomStatus.ACTIVE) {... */\n      tag_97\n      jumpi\n        /* \"contracts/Pickr.sol\":4537:4545  codeHash */\n      dup2\n        /* \"contracts/Pickr.sol\":4516:4546  ErrorRoomIsNotActive(codeHash) */\n      mload(0x40)\n      0xd528e2af00000000000000000000000000000000000000000000000000000000\n      dup2\n      mstore\n      0x04\n      add\n      tag_98\n      swap2\n      swap1\n      tag_91\n      jump\t// in\n    tag_98:\n      mload(0x40)\n      dup1\n      swap2\n      sub\n      swap1\n      revert\n        /* \"contracts/Pickr.sol\":4457:4557  if (room.status != RoomStatus.ACTIVE) {... */\n    tag_97:\n        /* \"contracts/Pickr.sol\":4567:4578  bool joined */\n      0x00\n        /* \"contracts/Pickr.sol\":4581:4590  hasJoined */\n      0x01\n        /* \"contracts/Pickr.sol\":4581:4600  hasJoined[codeHash] */\n      0x00\n        /* \"contracts/Pickr.sol\":4591:4599  codeHash */\n      dup5\n        /* \"contracts/Pickr.sol\":4581:4600  hasJoined[codeHash] */\n      dup2\n      mstore\n      0x20\n      add\n      swap1\n      dup2\n      mstore\n      0x20\n      add\n      0x00\n      keccak256\n        /* \"contracts/Pickr.sol\":4581:4612  hasJoined[codeHash][msg.sender] */\n      0x00\n        /* \"contracts/Pickr.sol\":4601:4611  msg.sender */\n      caller\n        /* \"contracts/Pickr.sol\":4581:4612  hasJoined[codeHash][msg.sender] */\n      0xffffffffffffffffffffffffffffffffffffffff\n      and\n      0xffffffffffffffffffffffffffffffffffffffff\n      and\n      dup2\n      mstore\n      0x20\n      add\n      swap1\n      dup2\n      mstore\n      0x20\n      add\n      0x00\n      keccak256\n      0x00\n      swap1\n      sload\n      swap1\n      0x0100\n      exp\n      swap1\n      div\n      0xff\n      and\n        /* \"contracts/Pickr.sol\":4567:4612  bool joined = hasJoined[codeHash][msg.sender] */\n      swap1\n      pop\n        /* \"contracts/Pickr.sol\":4627:4633  joined */\n      dup1\n        /* \"contracts/Pickr.sol\":4622:4677  if (!joined) revert ErrorUserIsNotParticipant(codeHash) */\n      tag_99\n      jumpi\n        /* \"contracts/Pickr.sol\":4668:4676  codeHash */\n      dup3\n        /* \"contracts/Pickr.sol\":4642:4677  ErrorUserIsNotParticipant(codeHash) */\n      mload(0x40)\n      0x0d7648af00000000000000000000000000000000000000000000000000000000\n      dup2\n      mstore\n      0x04\n      add\n      tag_100\n      swap2\n      swap1\n      tag_91\n      jump\t// in\n    tag_100:\n      mload(0x40)\n      dup1\n      swap2\n      sub\n      swap1\n      revert\n        /* \"contracts/Pickr.sol\":4622:4677  if (!joined) revert ErrorUserIsNotParticipant(codeHash) */\n    tag_99:\n        /* \"contracts/Pickr.sol\":4688:4692  room */\n      dup2\n        /* \"contracts/Pickr.sol\":4688:4709  room.totalParticipant */\n      0x05\n      add\n      0x00\n        /* \"contracts/Pickr.sol\":4688:4711  room.totalParticipant-- */\n      dup2\n      sload\n      dup1\n      swap3\n      swap2\n      swap1\n      tag_101\n      swap1\n      tag_102\n      jump\t// in\n    tag_101:\n      swap2\n      swap1\n      pop\n      sstore\n      pop\n        /* \"contracts/Pickr.sol\":4755:4760  false */\n      0x00\n        /* \"contracts/Pickr.sol\":4721:4730  hasJoined */\n      0x01\n        /* \"contracts/Pickr.sol\":4721:4740  hasJoined[codeHash] */\n      0x00\n        /* \"contracts/Pickr.sol\":4731:4739  codeHash */\n      dup6\n        /* \"contracts/Pickr.sol\":4721:4740  hasJoined[codeHash] */\n      dup2\n      mstore\n      0x20\n      add\n      swap1\n      dup2\n      mstore\n      0x20\n      add\n      0x00\n      keccak256\n        /* \"contracts/Pickr.sol\":4721:4752  hasJoined[codeHash][msg.sender] */\n      0x00\n        /* \"contracts/Pickr.sol\":4741:4751  msg.sender */\n      caller\n        /* \"contracts/Pickr.sol\":4721:4752  hasJoined[codeHash][msg.sender] */\n      0xffffffffffffffffffffffffffffffffffffffff\n      and\n      0xffffffffffffffffffffffffffffffffffffffff\n      and\n      dup2\n      mstore\n      0x20\n      add\n      swap1\n      dup2\n      mstore\n      0x20\n      add\n      0x00\n      keccak256\n      0x00\n        /* \"contracts/Pickr.sol\":4721:4760  hasJoined[codeHash][msg.sender] = false */\n      0x0100\n      exp\n      dup2\n      sload\n      dup2\n      0xff\n      mul\n      not\n      and\n      swap1\n      dup4\n      iszero\n      iszero\n      mul\n      or\n      swap1\n      sstore\n      pop\n        /* \"contracts/Pickr.sol\":4771:4785  uint256 length */\n      0x00\n        /* \"contracts/Pickr.sol\":4788:4800  participants */\n      0x02\n        /* \"contracts/Pickr.sol\":4788:4810  participants[codeHash] */\n      0x00\n        /* \"contracts/Pickr.sol\":4801:4809  codeHash */\n      dup6\n        /* \"contracts/Pickr.sol\":4788:4810  participants[codeHash] */\n      dup2\n      mstore\n      0x20\n      add\n      swap1\n      dup2\n      mstore\n      0x20\n      add\n      0x00\n      keccak256\n        /* \"contracts/Pickr.sol\":4788:4817  participants[codeHash].length */\n      dup1\n      sload\n      swap1\n      pop\n        /* \"contracts/Pickr.sol\":4771:4817  uint256 length = participants[codeHash].length */\n      swap1\n      pop\n        /* \"contracts/Pickr.sol\":4832:4841  uint256 i */\n      0x00\n        /* \"contracts/Pickr.sol\":4827:5097  for (uint256 i = 0; i < length; i++) {... */\n    tag_103:\n        /* \"contracts/Pickr.sol\":4851:4857  length */\n      dup2\n        /* \"contracts/Pickr.sol\":4847:4848  i */\n      dup2\n        /* \"contracts/Pickr.sol\":4847:4857  i < length */\n      lt\n        /* \"contracts/Pickr.sol\":4827:5097  for (uint256 i = 0; i < length; i++) {... */\n      iszero\n      tag_104\n      jumpi\n        /* \"contracts/Pickr.sol\":4911:4921  msg.sender */\n      caller\n        /* \"contracts/Pickr.sol\":4882:4921  participants[codeHash][i] == msg.sender */\n      0xffffffffffffffffffffffffffffffffffffffff\n      and\n        /* \"contracts/Pickr.sol\":4882:4894  participants */\n      0x02\n        /* \"contracts/Pickr.sol\":4882:4904  participants[codeHash] */\n      0x00\n        /* \"contracts/Pickr.sol\":4895:4903  codeHash */\n      dup8\n        /* \"contracts/Pickr.sol\":4882:4904  participants[codeHash] */\n      dup2\n      mstore\n      0x20\n      add\n      swap1\n      dup2\n      mstore\n      0x20\n      add\n      0x00\n      keccak256\n        /* \"contracts/Pickr.sol\":4905:4906  i */\n      dup3\n        /* \"contracts/Pickr.sol\":4882:4907  participants[codeHash][i] */\n      dup2\n      sload\n      dup2\n      lt\n      tag_106\n      jumpi\n      tag_107\n      tag_108\n      jump\t// in\n    tag_107:\n    tag_106:\n      swap1\n      0x00\n      mstore\n      keccak256(0x00, 0x20)\n      add\n      0x00\n      swap1\n      sload\n      swap1\n      0x0100\n      exp\n      swap1\n      div\n      0xffffffffffffffffffffffffffffffffffffffff\n      and\n        /* \"contracts/Pickr.sol\":4882:4921  participants[codeHash][i] == msg.sender */\n      0xffffffffffffffffffffffffffffffffffffffff\n      and\n      sub\n        /* \"contracts/Pickr.sol\":4878:5087  if (participants[codeHash][i] == msg.sender) {... */\n      tag_110\n      jumpi\n        /* \"contracts/Pickr.sol\":4969:4981  participants */\n      0x02\n        /* \"contracts/Pickr.sol\":4969:4991  participants[codeHash] */\n      0x00\n        /* \"contracts/Pickr.sol\":4982:4990  codeHash */\n      dup7\n        /* \"contracts/Pickr.sol\":4969:4991  participants[codeHash] */\n      dup2\n      mstore\n      0x20\n      add\n      swap1\n      dup2\n      mstore\n      0x20\n      add\n      0x00\n      keccak256\n        /* \"contracts/Pickr.sol\":5001:5002  1 */\n      0x01\n        /* \"contracts/Pickr.sol\":4992:4998  length */\n      dup4\n        /* \"contracts/Pickr.sol\":4992:5002  length - 1 */\n      tag_111\n      swap2\n      swap1\n      tag_112\n      jump\t// in\n    tag_111:\n        /* \"contracts/Pickr.sol\":4969:5003  participants[codeHash][length - 1] */\n      dup2\n      sload\n      dup2\n      lt\n      tag_113\n      jumpi\n      tag_114\n      tag_108\n      jump\t// in\n    tag_114:\n    tag_113:\n      swap1\n      0x00\n      mstore\n      keccak256(0x00, 0x20)\n      add\n      0x00\n      swap1\n      sload\n      swap1\n      0x0100\n      exp\n      swap1\n      div\n      0xffffffffffffffffffffffffffffffffffffffff\n      and\n        /* \"contracts/Pickr.sol\":4941:4953  participants */\n      0x02\n        /* \"contracts/Pickr.sol\":4941:4963  participants[codeHash] */\n      0x00\n        /* \"contracts/Pickr.sol\":4954:4962  codeHash */\n      dup8\n        /* \"contracts/Pickr.sol\":4941:4963  participants[codeHash] */\n      dup2\n      mstore\n      0x20\n      add\n      swap1\n      dup2\n      mstore\n      0x20\n      add\n      0x00\n      keccak256\n        /* \"contracts/Pickr.sol\":4964:4965  i */\n      dup3\n        /* \"contracts/Pickr.sol\":4941:4966  participants[codeHash][i] */\n      dup2\n      sload\n      dup2\n      lt\n      tag_116\n      jumpi\n      tag_117\n      tag_108\n      jump\t// in\n    tag_117:\n    tag_116:\n      swap1\n      0x00\n      mstore\n      keccak256(0x00, 0x20)\n      add\n      0x00\n        /* \"contracts/Pickr.sol\":4941:5003  participants[codeHash][i] = participants[codeHash][length - 1] */\n      0x0100\n      exp\n      dup2\n      sload\n      dup2\n      0xffffffffffffffffffffffffffffffffffffffff\n      mul\n      not\n      and\n      swap1\n      dup4\n      0xffffffffffffffffffffffffffffffffffffffff\n      and\n      mul\n      or\n      swap1\n      sstore\n      pop\n        /* \"contracts/Pickr.sol\":5021:5033  participants */\n      0x02\n        /* \"contracts/Pickr.sol\":5021:5043  participants[codeHash] */\n      0x00\n        /* \"contracts/Pickr.sol\":5034:5042  codeHash */\n      dup7\n        /* \"contracts/Pickr.sol\":5021:5043  participants[codeHash] */\n      dup2\n      mstore\n      0x20\n      add\n      swap1\n      dup2\n      mstore\n      0x20\n      add\n      0x00\n      keccak256\n        /* \"contracts/Pickr.sol\":5021:5049  participants[codeHash].pop() */\n      dup1\n      sload\n      dup1\n      tag_119\n      jumpi\n      tag_120\n      tag_121\n      jump\t// in\n    tag_120:\n    tag_119:\n      0x01\n      swap1\n      sub\n      dup2\n      dup2\n      swap1\n      0x00\n      mstore\n      keccak256(0x00, 0x20)\n      add\n      exp(0x0100, 0x00)\n      dup2\n      sload\n      swap1\n      0xffffffffffffffffffffffffffffffffffffffff\n      mul\n      not\n      and\n      swap1\n      sstore\n      swap1\n      sstore\n        /* \"contracts/Pickr.sol\":5067:5072  break */\n      jump(tag_104)\n        /* \"contracts/Pickr.sol\":4878:5087  if (participants[codeHash][i] == msg.sender) {... */\n    tag_110:\n        /* \"contracts/Pickr.sol\":4859:4862  i++ */\n      dup1\n      dup1\n      tag_123\n      swap1\n      tag_124\n      jump\t// in\n    tag_123:\n      swap2\n      pop\n      pop\n        /* \"contracts/Pickr.sol\":4827:5097  for (uint256 i = 0; i < length; i++) {... */\n      jump(tag_103)\n    tag_104:\n      pop\n        /* \"contracts/Pickr.sol\":4302:5103  {... */\n      pop\n      pop\n      pop\n        /* \"contracts/Pickr.sol\":4256:5103  function leaveRoom(bytes32 codeHash) external {... */\n      pop\n      jump\t// out\n        /* \"contracts/Pickr.sol\":694:745  mapping(bytes32 codeHash => address) public winners */\n    tag_30:\n      mstore(0x20, 0x03)\n      dup1\n      0x00\n      mstore\n      keccak256(0x00, 0x40)\n      0x00\n      swap2\n      pop\n      sload\n      swap1\n      0x0100\n      exp\n      swap1\n      div\n      0xffffffffffffffffffffffffffffffffffffffff\n      and\n      dup2\n      jump\t// out\n        /* \"contracts/Pickr.sol\":3494:4250  function joinRoom(bytes32 codeHash) external {... */\n    tag_36:\n        /* \"contracts/Pickr.sol\":3554:3576  _isRoomExist(codeHash) */\n      tag_126\n        /* \"contracts/Pickr.sol\":3567:3575  codeHash */\n      dup2\n        /* \"contracts/Pickr.sol\":3554:3566  _isRoomExist */\n      tag_88\n        /* \"contracts/Pickr.sol\":3554:3576  _isRoomExist(codeHash) */\n      jump\t// in\n    tag_126:\n        /* \"contracts/Pickr.sol\":3549:3614  if (!_isRoomExist(codeHash)) revert ErrorRoomIsNotExist(codeHash) */\n      tag_127\n      jumpi\n        /* \"contracts/Pickr.sol\":3605:3613  codeHash */\n      dup1\n        /* \"contracts/Pickr.sol\":3585:3614  ErrorRoomIsNotExist(codeHash) */\n      mload(0x40)\n      0xe286343900000000000000000000000000000000000000000000000000000000\n      dup2\n      mstore\n      0x04\n      add\n      tag_128\n      swap2\n      swap1\n      tag_91\n      jump\t// in\n    tag_128:\n      mload(0x40)\n      dup1\n      swap2\n      sub\n      swap1\n      revert\n        /* \"contracts/Pickr.sol\":3549:3614  if (!_isRoomExist(codeHash)) revert ErrorRoomIsNotExist(codeHash) */\n    tag_127:\n        /* \"contracts/Pickr.sol\":3625:3642  Room storage room */\n      0x00\n        /* \"contracts/Pickr.sol\":3645:3650  rooms */\n      dup1\n        /* \"contracts/Pickr.sol\":3645:3660  rooms[codeHash] */\n      0x00\n        /* \"contracts/Pickr.sol\":3651:3659  codeHash */\n      dup4\n        /* \"contracts/Pickr.sol\":3645:3660  rooms[codeHash] */\n      dup2\n      mstore\n      0x20\n      add\n      swap1\n      dup2\n      mstore\n      0x20\n      add\n      0x00\n      keccak256\n        /* \"contracts/Pickr.sol\":3625:3660  Room storage room = rooms[codeHash] */\n      swap1\n      pop\n        /* \"contracts/Pickr.sol\":3688:3692  room */\n      dup1\n        /* \"contracts/Pickr.sol\":3688:3700  room.creator */\n      0x00\n      add\n      0x00\n      swap1\n      sload\n      swap1\n      0x0100\n      exp\n      swap1\n      div\n      0xffffffffffffffffffffffffffffffffffffffff\n      and\n        /* \"contracts/Pickr.sol\":3674:3700  msg.sender == room.creator */\n      0xffffffffffffffffffffffffffffffffffffffff\n      and\n        /* \"contracts/Pickr.sol\":3674:3684  msg.sender */\n      caller\n        /* \"contracts/Pickr.sol\":3674:3700  msg.sender == room.creator */\n      0xffffffffffffffffffffffffffffffffffffffff\n      and\n      sub\n        /* \"contracts/Pickr.sol\":3670:3767  if (msg.sender == room.creator) {... */\n      tag_129\n      jumpi\n        /* \"contracts/Pickr.sol\":3747:3755  codeHash */\n      dup2\n        /* \"contracts/Pickr.sol\":3723:3756  ErrorUserIsTheRoomOwner(codeHash) */\n      mload(0x40)\n      0xc55d8c8200000000000000000000000000000000000000000000000000000000\n      dup2\n      mstore\n      0x04\n      add\n      tag_130\n      swap2\n      swap1\n      tag_91\n      jump\t// in\n    tag_130:\n      mload(0x40)\n      dup1\n      swap2\n      sub\n      swap1\n      revert\n        /* \"contracts/Pickr.sol\":3670:3767  if (msg.sender == room.creator) {... */\n    tag_129:\n        /* \"contracts/Pickr.sol\":3796:3813  RoomStatus.ACTIVE */\n      0x00\n        /* \"contracts/Pickr.sol\":3781:3813  room.status != RoomStatus.ACTIVE */\n      0x02\n      dup2\n      gt\n      iszero\n      tag_131\n      jumpi\n      tag_132\n      tag_94\n      jump\t// in\n    tag_132:\n    tag_131:\n        /* \"contracts/Pickr.sol\":3781:3785  room */\n      dup2\n        /* \"contracts/Pickr.sol\":3781:3792  room.status */\n      0x02\n      add\n      0x00\n      swap1\n      sload\n      swap1\n      0x0100\n      exp\n      swap1\n      div\n      0xff\n      and\n        /* \"contracts/Pickr.sol\":3781:3813  room.status != RoomStatus.ACTIVE */\n      0x02\n      dup2\n      gt\n      iszero\n      tag_133\n      jumpi\n      tag_134\n      tag_94\n      jump\t// in\n    tag_134:\n    tag_133:\n      eq\n        /* \"contracts/Pickr.sol\":3777:3877  if (room.status != RoomStatus.ACTIVE) {... */\n      tag_135\n      jumpi\n        /* \"contracts/Pickr.sol\":3857:3865  codeHash */\n      dup2\n        /* \"contracts/Pickr.sol\":3836:3866  ErrorRoomIsNotActive(codeHash) */\n      mload(0x40)\n      0xd528e2af00000000000000000000000000000000000000000000000000000000\n      dup2\n      mstore\n      0x04\n      add\n      tag_136\n      swap2\n      swap1\n      tag_91\n      jump\t// in\n    tag_136:\n      mload(0x40)\n      dup1\n      swap2\n      sub\n      swap1\n      revert\n        /* \"contracts/Pickr.sol\":3777:3877  if (room.status != RoomStatus.ACTIVE) {... */\n    tag_135:\n        /* \"contracts/Pickr.sol\":3916:3920  room */\n      dup1\n        /* \"contracts/Pickr.sol\":3916:3935  room.maxParticipant */\n      0x03\n      add\n      sload\n        /* \"contracts/Pickr.sol\":3891:3895  room */\n      dup2\n        /* \"contracts/Pickr.sol\":3891:3912  room.totalParticipant */\n      0x05\n      add\n      sload\n        /* \"contracts/Pickr.sol\":3891:3935  room.totalParticipant >= room.maxParticipant */\n      lt\n        /* \"contracts/Pickr.sol\":3887:3994  if (room.totalParticipant >= room.maxParticipant) {... */\n      tag_137\n      jumpi\n        /* \"contracts/Pickr.sol\":3974:3982  codeHash */\n      dup2\n        /* \"contracts/Pickr.sol\":3958:3983  ErrorRoomIsFull(codeHash) */\n      mload(0x40)\n      0x495000c000000000000000000000000000000000000000000000000000000000\n      dup2\n      mstore\n      0x04\n      add\n      tag_138\n      swap2\n      swap1\n      tag_91\n      jump\t// in\n    tag_138:\n      mload(0x40)\n      dup1\n      swap2\n      sub\n      swap1\n      revert\n        /* \"contracts/Pickr.sol\":3887:3994  if (room.totalParticipant >= room.maxParticipant) {... */\n    tag_137:\n        /* \"contracts/Pickr.sol\":4004:4015  bool joined */\n      0x00\n        /* \"contracts/Pickr.sol\":4018:4027  hasJoined */\n      0x01\n        /* \"contracts/Pickr.sol\":4018:4037  hasJoined[codeHash] */\n      0x00\n        /* \"contracts/Pickr.sol\":4028:4036  codeHash */\n      dup5\n        /* \"contracts/Pickr.sol\":4018:4037  hasJoined[codeHash] */\n      dup2\n      mstore\n      0x20\n      add\n      swap1\n      dup2\n      mstore\n      0x20\n      add\n      0x00\n      keccak256\n        /* \"contracts/Pickr.sol\":4018:4049  hasJoined[codeHash][msg.sender] */\n      0x00\n        /* \"contracts/Pickr.sol\":4038:4048  msg.sender */\n      caller\n        /* \"contracts/Pickr.sol\":4018:4049  hasJoined[codeHash][msg.sender] */\n      0xffffffffffffffffffffffffffffffffffffffff\n      and\n      0xffffffffffffffffffffffffffffffffffffffff\n      and\n      dup2\n      mstore\n      0x20\n      add\n      swap1\n      dup2\n      mstore\n      0x20\n      add\n      0x00\n      keccak256\n      0x00\n      swap1\n      sload\n      swap1\n      0x0100\n      exp\n      swap1\n      div\n      0xff\n      and\n        /* \"contracts/Pickr.sol\":4004:4049  bool joined = hasJoined[codeHash][msg.sender] */\n      swap1\n      pop\n        /* \"contracts/Pickr.sol\":4063:4069  joined */\n      dup1\n        /* \"contracts/Pickr.sol\":4059:4112  if (joined) revert ErrorUserAlreadyJoinRoom(codeHash) */\n      iszero\n      tag_139\n      jumpi\n        /* \"contracts/Pickr.sol\":4103:4111  codeHash */\n      dup3\n        /* \"contracts/Pickr.sol\":4078:4112  ErrorUserAlreadyJoinRoom(codeHash) */\n      mload(0x40)\n      0x02cbc17500000000000000000000000000000000000000000000000000000000\n      dup2\n      mstore\n      0x04\n      add\n      tag_140\n      swap2\n      swap1\n      tag_91\n      jump\t// in\n    tag_140:\n      mload(0x40)\n      dup1\n      swap2\n      sub\n      swap1\n      revert\n        /* \"contracts/Pickr.sol\":4059:4112  if (joined) revert ErrorUserAlreadyJoinRoom(codeHash) */\n    tag_139:\n        /* \"contracts/Pickr.sol\":4157:4161  true */\n      0x01\n        /* \"contracts/Pickr.sol\":4123:4132  hasJoined */\n      dup1\n        /* \"contracts/Pickr.sol\":4123:4142  hasJoined[codeHash] */\n      0x00\n        /* \"contracts/Pickr.sol\":4133:4141  codeHash */\n      dup6\n        /* \"contracts/Pickr.sol\":4123:4142  hasJoined[codeHash] */\n      dup2\n      mstore\n      0x20\n      add\n      swap1\n      dup2\n      mstore\n      0x20\n      add\n      0x00\n      keccak256\n        /* \"contracts/Pickr.sol\":4123:4154  hasJoined[codeHash][msg.sender] */\n      0x00\n        /* \"contracts/Pickr.sol\":4143:4153  msg.sender */\n      caller\n        /* \"contracts/Pickr.sol\":4123:4154  hasJoined[codeHash][msg.sender] */\n      0xffffffffffffffffffffffffffffffffffffffff\n      and\n      0xffffffffffffffffffffffffffffffffffffffff\n      and\n      dup2\n      mstore\n      0x20\n      add\n      swap1\n      dup2\n      mstore\n      0x20\n      add\n      0x00\n      keccak256\n      0x00\n        /* \"contracts/Pickr.sol\":4123:4161  hasJoined[codeHash][msg.sender] = true */\n      0x0100\n      exp\n      dup2\n      sload\n      dup2\n      0xff\n      mul\n      not\n      and\n      swap1\n      dup4\n      iszero\n      iszero\n      mul\n      or\n      swap1\n      sstore\n      pop\n        /* \"contracts/Pickr.sol\":4171:4175  room */\n      dup2\n        /* \"contracts/Pickr.sol\":4171:4192  room.totalParticipant */\n      0x05\n      add\n      0x00\n        /* \"contracts/Pickr.sol\":4171:4194  room.totalParticipant++ */\n      dup2\n      sload\n      dup1\n      swap3\n      swap2\n      swap1\n      tag_141\n      swap1\n      tag_124\n      jump\t// in\n    tag_141:\n      swap2\n      swap1\n      pop\n      sstore\n      pop\n        /* \"contracts/Pickr.sol\":4204:4216  participants */\n      0x02\n        /* \"contracts/Pickr.sol\":4204:4226  participants[codeHash] */\n      0x00\n        /* \"contracts/Pickr.sol\":4217:4225  codeHash */\n      dup5\n        /* \"contracts/Pickr.sol\":4204:4226  participants[codeHash] */\n      dup2\n      mstore\n      0x20\n      add\n      swap1\n      dup2\n      mstore\n      0x20\n      add\n      0x00\n      keccak256\n        /* \"contracts/Pickr.sol\":4232:4242  msg.sender */\n      caller\n        /* \"contracts/Pickr.sol\":4204:4243  participants[codeHash].push(msg.sender) */\n      swap1\n      dup1\n      0x01\n      dup2\n      sload\n      add\n      dup1\n      dup3\n      sstore\n      dup1\n      swap2\n      pop\n      pop\n      0x01\n      swap1\n      sub\n      swap1\n      0x00\n      mstore\n      keccak256(0x00, 0x20)\n      add\n      0x00\n      swap1\n      swap2\n      swap1\n      swap2\n      swap1\n      swap2\n      0x0100\n      exp\n      dup2\n      sload\n      dup2\n      0xffffffffffffffffffffffffffffffffffffffff\n      mul\n      not\n      and\n      swap1\n      dup4\n      0xffffffffffffffffffffffffffffffffffffffff\n      and\n      mul\n      or\n      swap1\n      sstore\n      pop\n        /* \"contracts/Pickr.sol\":3539:4250  {... */\n      pop\n      pop\n        /* \"contracts/Pickr.sol\":3494:4250  function joinRoom(bytes32 codeHash) external {... */\n      pop\n      jump\t// out\n        /* \"contracts/Pickr.sol\":3343:3488  function roomParticipants(... */\n    tag_40:\n        /* \"contracts/Pickr.sol\":3424:3440  address[] memory */\n      0x60\n        /* \"contracts/Pickr.sol\":3459:3471  participants */\n      0x02\n        /* \"contracts/Pickr.sol\":3459:3481  participants[codeHash] */\n      0x00\n        /* \"contracts/Pickr.sol\":3472:3480  codeHash */\n      dup4\n        /* \"contracts/Pickr.sol\":3459:3481  participants[codeHash] */\n      dup2\n      mstore\n      0x20\n      add\n      swap1\n      dup2\n      mstore\n      0x20\n      add\n      0x00\n      keccak256\n        /* \"contracts/Pickr.sol\":3452:3481  return participants[codeHash] */\n      dup1\n      sload\n      dup1\n      0x20\n      mul\n      0x20\n      add\n      mload(0x40)\n      swap1\n      dup2\n      add\n      0x40\n      mstore\n      dup1\n      swap3\n      swap2\n      swap1\n      dup2\n      dup2\n      mstore\n      0x20\n      add\n      dup3\n      dup1\n      sload\n      dup1\n      iszero\n      tag_144\n      jumpi\n      0x20\n      mul\n      dup3\n      add\n      swap2\n      swap1\n      0x00\n      mstore\n      keccak256(0x00, 0x20)\n      swap1\n    tag_145:\n      dup2\n      0x00\n      swap1\n      sload\n      swap1\n      0x0100\n      exp\n      swap1\n      div\n      0xffffffffffffffffffffffffffffffffffffffff\n      and\n      0xffffffffffffffffffffffffffffffffffffffff\n      and\n      dup2\n      mstore\n      0x20\n      add\n      swap1\n      0x01\n      add\n      swap1\n      dup1\n      dup4\n      gt\n      tag_145\n      jumpi\n    tag_144:\n      pop\n      pop\n      pop\n      pop\n      pop\n      swap1\n      pop\n        /* \"contracts/Pickr.sol\":3343:3488  function roomParticipants(... */\n      swap2\n      swap1\n      pop\n      jump\t// out\n        /* \"contracts/Pickr.sol\":463:493  address public immutable owner */\n    tag_45:\n      immutable(\"0xcc1431a2586c1e11fb75c87e5ee58e4204126a9fdde07075c91770f50276cbb0\")\n      dup2\n      jump\t// out\n        /* \"contracts/Pickr.sol\":2164:2563  function startRoom(bytes32 codeHash) external onlyCreator(codeHash) {... */\n    tag_50:\n        /* \"contracts/Pickr.sol\":2222:2230  codeHash */\n      dup1\n        /* \"contracts/Pickr.sol\":241:263  _isRoomExist(codeHash) */\n      tag_147\n        /* \"contracts/Pickr.sol\":254:262  codeHash */\n      dup2\n        /* \"contracts/Pickr.sol\":241:253  _isRoomExist */\n      tag_88\n        /* \"contracts/Pickr.sol\":241:263  _isRoomExist(codeHash) */\n      jump\t// in\n    tag_147:\n        /* \"contracts/Pickr.sol\":236:326  if (!_isRoomExist(codeHash)) {... */\n      tag_148\n      jumpi\n        /* \"contracts/Pickr.sol\":306:314  codeHash */\n      dup1\n        /* \"contracts/Pickr.sol\":286:315  ErrorRoomIsNotExist(codeHash) */\n      mload(0x40)\n      0xe286343900000000000000000000000000000000000000000000000000000000\n      dup2\n      mstore\n      0x04\n      add\n      tag_149\n      swap2\n      swap1\n      tag_91\n      jump\t// in\n    tag_149:\n      mload(0x40)\n      dup1\n      swap2\n      sub\n      swap1\n      revert\n        /* \"contracts/Pickr.sol\":236:326  if (!_isRoomExist(codeHash)) {... */\n    tag_148:\n        /* \"contracts/Pickr.sol\":353:358  rooms */\n      0x00\n        /* \"contracts/Pickr.sol\":353:368  rooms[codeHash] */\n      dup1\n        /* \"contracts/Pickr.sol\":359:367  codeHash */\n      dup3\n        /* \"contracts/Pickr.sol\":353:368  rooms[codeHash] */\n      dup2\n      mstore\n      0x20\n      add\n      swap1\n      dup2\n      mstore\n      0x20\n      add\n      0x00\n      keccak256\n        /* \"contracts/Pickr.sol\":353:376  rooms[codeHash].creator */\n      0x00\n      add\n      0x00\n      swap1\n      sload\n      swap1\n      0x0100\n      exp\n      swap1\n      div\n      0xffffffffffffffffffffffffffffffffffffffff\n      and\n        /* \"contracts/Pickr.sol\":339:376  msg.sender != rooms[codeHash].creator */\n      0xffffffffffffffffffffffffffffffffffffffff\n      and\n        /* \"contracts/Pickr.sol\":339:349  msg.sender */\n      caller\n        /* \"contracts/Pickr.sol\":339:376  msg.sender != rooms[codeHash].creator */\n      0xffffffffffffffffffffffffffffffffffffffff\n      and\n      eq\n        /* \"contracts/Pickr.sol\":335:440  if (msg.sender != rooms[codeHash].creator) {... */\n      tag_150\n      jumpi\n        /* \"contracts/Pickr.sol\":418:428  msg.sender */\n      caller\n        /* \"contracts/Pickr.sol\":399:429  ErrorNotAuthorized(msg.sender) */\n      mload(0x40)\n      0xd68affb700000000000000000000000000000000000000000000000000000000\n      dup2\n      mstore\n      0x04\n      add\n      tag_151\n      swap2\n      swap1\n      tag_32\n      jump\t// in\n    tag_151:\n      mload(0x40)\n      dup1\n      swap2\n      sub\n      swap1\n      revert\n        /* \"contracts/Pickr.sol\":335:440  if (msg.sender != rooms[codeHash].creator) {... */\n    tag_150:\n        /* \"contracts/Pickr.sol\":2242:2259  Room storage room */\n      0x00\n        /* \"contracts/Pickr.sol\":2262:2267  rooms */\n      dup1\n        /* \"contracts/Pickr.sol\":2262:2277  rooms[codeHash] */\n      0x00\n        /* \"contracts/Pickr.sol\":2268:2276  codeHash */\n      dup5\n        /* \"contracts/Pickr.sol\":2262:2277  rooms[codeHash] */\n      dup2\n      mstore\n      0x20\n      add\n      swap1\n      dup2\n      mstore\n      0x20\n      add\n      0x00\n      keccak256\n        /* \"contracts/Pickr.sol\":2242:2277  Room storage room = rooms[codeHash] */\n      swap1\n      pop\n        /* \"contracts/Pickr.sol\":2306:2323  RoomStatus.ACTIVE */\n      0x00\n        /* \"contracts/Pickr.sol\":2291:2323  room.status != RoomStatus.ACTIVE */\n      0x02\n      dup2\n      gt\n      iszero\n      tag_153\n      jumpi\n      tag_154\n      tag_94\n      jump\t// in\n    tag_154:\n    tag_153:\n        /* \"contracts/Pickr.sol\":2291:2295  room */\n      dup2\n        /* \"contracts/Pickr.sol\":2291:2302  room.status */\n      0x02\n      add\n      0x00\n      swap1\n      sload\n      swap1\n      0x0100\n      exp\n      swap1\n      div\n      0xff\n      and\n        /* \"contracts/Pickr.sol\":2291:2323  room.status != RoomStatus.ACTIVE */\n      0x02\n      dup2\n      gt\n      iszero\n      tag_155\n      jumpi\n      tag_156\n      tag_94\n      jump\t// in\n    tag_156:\n    tag_155:\n      eq\n        /* \"contracts/Pickr.sol\":2287:2387  if (room.status != RoomStatus.ACTIVE) {... */\n      tag_157\n      jumpi\n        /* \"contracts/Pickr.sol\":2367:2375  codeHash */\n      dup3\n        /* \"contracts/Pickr.sol\":2346:2376  ErrorRoomIsNotActive(codeHash) */\n      mload(0x40)\n      0xd528e2af00000000000000000000000000000000000000000000000000000000\n      dup2\n      mstore\n      0x04\n      add\n      tag_158\n      swap2\n      swap1\n      tag_91\n      jump\t// in\n    tag_158:\n      mload(0x40)\n      dup1\n      swap2\n      sub\n      swap1\n      revert\n        /* \"contracts/Pickr.sol\":2287:2387  if (room.status != RoomStatus.ACTIVE) {... */\n    tag_157:\n        /* \"contracts/Pickr.sol\":2426:2430  room */\n      dup1\n        /* \"contracts/Pickr.sol\":2426:2445  room.minParticipant */\n      0x04\n      add\n      sload\n        /* \"contracts/Pickr.sol\":2401:2405  room */\n      dup2\n        /* \"contracts/Pickr.sol\":2401:2422  room.totalParticipant */\n      0x05\n      add\n      sload\n        /* \"contracts/Pickr.sol\":2401:2445  room.totalParticipant <= room.minParticipant */\n      gt\n        /* \"contracts/Pickr.sol\":2397:2514  if (room.totalParticipant <= room.minParticipant) {... */\n      tag_159\n      jumpi\n        /* \"contracts/Pickr.sol\":2494:2502  codeHash */\n      dup3\n        /* \"contracts/Pickr.sol\":2468:2503  ErrorNotEnoughParticipant(codeHash) */\n      mload(0x40)\n      0x2cf3c5c700000000000000000000000000000000000000000000000000000000\n      dup2\n      mstore\n      0x04\n      add\n      tag_160\n      swap2\n      swap1\n      tag_91\n      jump\t// in\n    tag_160:\n      mload(0x40)\n      dup1\n      swap2\n      sub\n      swap1\n      revert\n        /* \"contracts/Pickr.sol\":2397:2514  if (room.totalParticipant <= room.minParticipant) {... */\n    tag_159:\n        /* \"contracts/Pickr.sol\":2538:2556  RoomStatus.STARTED */\n      0x02\n        /* \"contracts/Pickr.sol\":2524:2528  room */\n      dup2\n        /* \"contracts/Pickr.sol\":2524:2535  room.status */\n      0x02\n      add\n      0x00\n        /* \"contracts/Pickr.sol\":2524:2556  room.status = RoomStatus.STARTED */\n      0x0100\n      exp\n      dup2\n      sload\n      dup2\n      0xff\n      mul\n      not\n      and\n      swap1\n      dup4\n      0x02\n      dup2\n      gt\n      iszero\n      tag_161\n      jumpi\n      tag_162\n      tag_94\n      jump\t// in\n    tag_162:\n    tag_161:\n      mul\n      or\n      swap1\n      sstore\n      pop\n        /* \"contracts/Pickr.sol\":2232:2563  {... */\n      pop\n        /* \"contracts/Pickr.sol\":2164:2563  function startRoom(bytes32 codeHash) external onlyCreator(codeHash) {... */\n      pop\n      pop\n      jump\t// out\n        /* \"contracts/Pickr.sol\":5109:5600  function closeRoom(bytes32 codeHash) external onlyCreator(codeHash) {... */\n    tag_54:\n        /* \"contracts/Pickr.sol\":5167:5175  codeHash */\n      dup1\n        /* \"contracts/Pickr.sol\":241:263  _isRoomExist(codeHash) */\n      tag_164\n        /* \"contracts/Pickr.sol\":254:262  codeHash */\n      dup2\n        /* \"contracts/Pickr.sol\":241:253  _isRoomExist */\n      tag_88\n        /* \"contracts/Pickr.sol\":241:263  _isRoomExist(codeHash) */\n      jump\t// in\n    tag_164:\n        /* \"contracts/Pickr.sol\":236:326  if (!_isRoomExist(codeHash)) {... */\n      tag_165\n      jumpi\n        /* \"contracts/Pickr.sol\":306:314  codeHash */\n      dup1\n        /* \"contracts/Pickr.sol\":286:315  ErrorRoomIsNotExist(codeHash) */\n      mload(0x40)\n      0xe286343900000000000000000000000000000000000000000000000000000000\n      dup2\n      mstore\n      0x04\n      add\n      tag_166\n      swap2\n      swap1\n      tag_91\n      jump\t// in\n    tag_166:\n      mload(0x40)\n      dup1\n      swap2\n      sub\n      swap1\n      revert\n        /* \"contracts/Pickr.sol\":236:326  if (!_isRoomExist(codeHash)) {... */\n    tag_165:\n        /* \"contracts/Pickr.sol\":353:358  rooms */\n      0x00\n        /* \"contracts/Pickr.sol\":353:368  rooms[codeHash] */\n      dup1\n        /* \"contracts/Pickr.sol\":359:367  codeHash */\n      dup3\n        /* \"contracts/Pickr.sol\":353:368  rooms[codeHash] */\n      dup2\n      mstore\n      0x20\n      add\n      swap1\n      dup2\n      mstore\n      0x20\n      add\n      0x00\n      keccak256\n        /* \"contracts/Pickr.sol\":353:376  rooms[codeHash].creator */\n      0x00\n      add\n      0x00\n      swap1\n      sload\n      swap1\n      0x0100\n      exp\n      swap1\n      div\n      0xffffffffffffffffffffffffffffffffffffffff\n      and\n        /* \"contracts/Pickr.sol\":339:376  msg.sender != rooms[codeHash].creator */\n      0xffffffffffffffffffffffffffffffffffffffff\n      and\n        /* \"contracts/Pickr.sol\":339:349  msg.sender */\n      caller\n        /* \"contracts/Pickr.sol\":339:376  msg.sender != rooms[codeHash].creator */\n      0xffffffffffffffffffffffffffffffffffffffff\n      and\n      eq\n        /* \"contracts/Pickr.sol\":335:440  if (msg.sender != rooms[codeHash].creator) {... */\n      tag_167\n      jumpi\n        /* \"contracts/Pickr.sol\":418:428  msg.sender */\n      caller\n        /* \"contracts/Pickr.sol\":399:429  ErrorNotAuthorized(msg.sender) */\n      mload(0x40)\n      0xd68affb700000000000000000000000000000000000000000000000000000000\n      dup2\n      mstore\n      0x04\n      add\n      tag_168\n      swap2\n      swap1\n      tag_32\n      jump\t// in\n    tag_168:\n      mload(0x40)\n      dup1\n      swap2\n      sub\n      swap1\n      revert\n        /* \"contracts/Pickr.sol\":335:440  if (msg.sender != rooms[codeHash].creator) {... */\n    tag_167:\n        /* \"contracts/Pickr.sol\":5187:5204  Room storage room */\n      0x00\n        /* \"contracts/Pickr.sol\":5207:5212  rooms */\n      dup1\n        /* \"contracts/Pickr.sol\":5207:5222  rooms[codeHash] */\n      0x00\n        /* \"contracts/Pickr.sol\":5213:5221  codeHash */\n      dup5\n        /* \"contracts/Pickr.sol\":5207:5222  rooms[codeHash] */\n      dup2\n      mstore\n      0x20\n      add\n      swap1\n      dup2\n      mstore\n      0x20\n      add\n      0x00\n      keccak256\n        /* \"contracts/Pickr.sol\":5187:5222  Room storage room = rooms[codeHash] */\n      swap1\n      pop\n        /* \"contracts/Pickr.sol\":5251:5268  RoomStatus.ACTIVE */\n      0x00\n        /* \"contracts/Pickr.sol\":5236:5268  room.status != RoomStatus.ACTIVE */\n      0x02\n      dup2\n      gt\n      iszero\n      tag_170\n      jumpi\n      tag_171\n      tag_94\n      jump\t// in\n    tag_171:\n    tag_170:\n        /* \"contracts/Pickr.sol\":5236:5240  room */\n      dup2\n        /* \"contracts/Pickr.sol\":5236:5247  room.status */\n      0x02\n      add\n      0x00\n      swap1\n      sload\n      swap1\n      0x0100\n      exp\n      swap1\n      div\n      0xff\n      and\n        /* \"contracts/Pickr.sol\":5236:5268  room.status != RoomStatus.ACTIVE */\n      0x02\n      dup2\n      gt\n      iszero\n      tag_172\n      jumpi\n      tag_173\n      tag_94\n      jump\t// in\n    tag_173:\n    tag_172:\n      eq\n        /* \"contracts/Pickr.sol\":5232:5332  if (room.status != RoomStatus.ACTIVE) {... */\n      tag_174\n      jumpi\n        /* \"contracts/Pickr.sol\":5312:5320  codeHash */\n      dup3\n        /* \"contracts/Pickr.sol\":5291:5321  ErrorRoomIsNotActive(codeHash) */\n      mload(0x40)\n      0xd528e2af00000000000000000000000000000000000000000000000000000000\n      dup2\n      mstore\n      0x04\n      add\n      tag_175\n      swap2\n      swap1\n      tag_91\n      jump\t// in\n    tag_175:\n      mload(0x40)\n      dup1\n      swap2\n      sub\n      swap1\n      revert\n        /* \"contracts/Pickr.sol\":5232:5332  if (room.status != RoomStatus.ACTIVE) {... */\n    tag_174:\n        /* \"contracts/Pickr.sol\":5342:5356  uint256 refund */\n      0x00\n        /* \"contracts/Pickr.sol\":5359:5363  room */\n      dup2\n        /* \"contracts/Pickr.sol\":5359:5371  room.balance */\n      0x01\n      add\n      sload\n        /* \"contracts/Pickr.sol\":5342:5371  uint256 refund = room.balance */\n      swap1\n      pop\n        /* \"contracts/Pickr.sol\":5396:5397  0 */\n      0x00\n        /* \"contracts/Pickr.sol\":5381:5385  room */\n      dup3\n        /* \"contracts/Pickr.sol\":5381:5393  room.balance */\n      0x01\n      add\n        /* \"contracts/Pickr.sol\":5381:5397  room.balance = 0 */\n      dup2\n      swap1\n      sstore\n      pop\n        /* \"contracts/Pickr.sol\":5421:5440  RoomStatus.INACTIVE */\n      0x01\n        /* \"contracts/Pickr.sol\":5407:5411  room */\n      dup3\n        /* \"contracts/Pickr.sol\":5407:5418  room.status */\n      0x02\n      add\n      0x00\n        /* \"contracts/Pickr.sol\":5407:5440  room.status = RoomStatus.INACTIVE */\n      0x0100\n      exp\n      dup2\n      sload\n      dup2\n      0xff\n      mul\n      not\n      and\n      swap1\n      dup4\n      0x02\n      dup2\n      gt\n      iszero\n      tag_176\n      jumpi\n      tag_177\n      tag_94\n      jump\t// in\n    tag_177:\n    tag_176:\n      mul\n      or\n      swap1\n      sstore\n      pop\n        /* \"contracts/Pickr.sol\":5464:5465  0 */\n      0x00\n        /* \"contracts/Pickr.sol\":5455:5461  refund */\n      dup2\n        /* \"contracts/Pickr.sol\":5455:5465  refund > 0 */\n      gt\n        /* \"contracts/Pickr.sol\":5451:5594  if (refund > 0) {... */\n      iszero\n      tag_178\n      jumpi\n        /* \"contracts/Pickr.sol\":5482:5489  bool ok */\n      0x00\n        /* \"contracts/Pickr.sol\":5503:5507  room */\n      dup3\n        /* \"contracts/Pickr.sol\":5503:5515  room.creator */\n      0x00\n      add\n      0x00\n      swap1\n      sload\n      swap1\n      0x0100\n      exp\n      swap1\n      div\n      0xffffffffffffffffffffffffffffffffffffffff\n      and\n        /* \"contracts/Pickr.sol\":5495:5521  payable(room.creator).call */\n      0xffffffffffffffffffffffffffffffffffffffff\n      and\n        /* \"contracts/Pickr.sol\":5529:5535  refund */\n      dup3\n        /* \"contracts/Pickr.sol\":5495:5540  payable(room.creator).call{value: refund}(\"\") */\n      mload(0x40)\n      tag_179\n      swap1\n      tag_180\n      jump\t// in\n    tag_179:\n      0x00\n      mload(0x40)\n      dup1\n      dup4\n      sub\n      dup2\n      dup6\n      dup8\n      gas\n      call\n      swap3\n      pop\n      pop\n      pop\n      returndatasize\n      dup1\n      0x00\n      dup2\n      eq\n      tag_183\n      jumpi\n      mload(0x40)\n      swap2\n      pop\n      and(add(returndatasize, 0x3f), not(0x1f))\n      dup3\n      add\n      0x40\n      mstore\n      returndatasize\n      dup3\n      mstore\n      returndatasize\n      0x00\n      0x20\n      dup5\n      add\n      returndatacopy\n      jump(tag_182)\n    tag_183:\n      0x60\n      swap2\n      pop\n    tag_182:\n      pop\n        /* \"contracts/Pickr.sol\":5481:5540  (bool ok, ) = payable(room.creator).call{value: refund}(\"\") */\n      pop\n      swap1\n      pop\n        /* \"contracts/Pickr.sol\":5562:5564  ok */\n      dup1\n        /* \"contracts/Pickr.sol\":5554:5583  require(ok, \"Refund failure\") */\n      tag_184\n      jumpi\n      mload(0x40)\n      0x08c379a000000000000000000000000000000000000000000000000000000000\n      dup2\n      mstore\n      0x04\n      add\n      tag_185\n      swap1\n      tag_186\n      jump\t// in\n    tag_185:\n      mload(0x40)\n      dup1\n      swap2\n      sub\n      swap1\n      revert\n    tag_184:\n        /* \"contracts/Pickr.sol\":5467:5594  {... */\n      pop\n        /* \"contracts/Pickr.sol\":5451:5594  if (refund > 0) {... */\n    tag_178:\n        /* \"contracts/Pickr.sol\":5177:5600  {... */\n      pop\n      pop\n        /* \"contracts/Pickr.sol\":5109:5600  function closeRoom(bytes32 codeHash) external onlyCreator(codeHash) {... */\n      pop\n      pop\n      jump\t// out\n        /* \"contracts/Pickr.sol\":5896:6261  function getUserRooms(... */\n    tag_59:\n        /* \"contracts/Pickr.sol\":5972:5985  Room[] memory */\n      0x60\n        /* \"contracts/Pickr.sol\":5987:6003  bytes32[] memory */\n      dup1\n        /* \"contracts/Pickr.sol\":6015:6037  bytes32[] memory codes */\n      0x00\n        /* \"contracts/Pickr.sol\":6040:6058  roomCodesByCreator */\n      0x04\n        /* \"contracts/Pickr.sol\":6040:6067  roomCodesByCreator[creator] */\n      0x00\n        /* \"contracts/Pickr.sol\":6059:6066  creator */\n      dup6\n        /* \"contracts/Pickr.sol\":6040:6067  roomCodesByCreator[creator] */\n      0xffffffffffffffffffffffffffffffffffffffff\n      and\n      0xffffffffffffffffffffffffffffffffffffffff\n      and\n      dup2\n      mstore\n      0x20\n      add\n      swap1\n      dup2\n      mstore\n      0x20\n      add\n      0x00\n      keccak256\n        /* \"contracts/Pickr.sol\":6015:6067  bytes32[] memory codes = roomCodesByCreator[creator] */\n      dup1\n      sload\n      dup1\n      0x20\n      mul\n      0x20\n      add\n      mload(0x40)\n      swap1\n      dup2\n      add\n      0x40\n      mstore\n      dup1\n      swap3\n      swap2\n      swap1\n      dup2\n      dup2\n      mstore\n      0x20\n      add\n      dup3\n      dup1\n      sload\n      dup1\n      iszero\n      tag_188\n      jumpi\n      0x20\n      mul\n      dup3\n      add\n      swap2\n      swap1\n      0x00\n      mstore\n      keccak256(0x00, 0x20)\n      swap1\n    tag_189:\n      dup2\n      sload\n      dup2\n      mstore\n      0x20\n      add\n      swap1\n      0x01\n      add\n      swap1\n      dup1\n      dup4\n      gt\n      tag_189\n      jumpi\n    tag_188:\n      pop\n      pop\n      pop\n      pop\n      pop\n      swap1\n      pop\n        /* \"contracts/Pickr.sol\":6077:6095  Room[] memory list */\n      0x00\n        /* \"contracts/Pickr.sol\":6109:6114  codes */\n      dup2\n        /* \"contracts/Pickr.sol\":6109:6121  codes.length */\n      mload\n        /* \"contracts/Pickr.sol\":6098:6122  new Room[](codes.length) */\n      0xffffffffffffffff\n      dup2\n      gt\n      iszero\n      tag_190\n      jumpi\n      tag_191\n      tag_192\n      jump\t// in\n    tag_191:\n    tag_190:\n      mload(0x40)\n      swap1\n      dup1\n      dup3\n      mstore\n      dup1\n      0x20\n      mul\n      0x20\n      add\n      dup3\n      add\n      0x40\n      mstore\n      dup1\n      iszero\n      tag_193\n      jumpi\n      dup2\n      0x20\n      add\n    tag_194:\n      tag_195\n      tag_196\n      jump\t// in\n    tag_195:\n      dup2\n      mstore\n      0x20\n      add\n      swap1\n      0x01\n      swap1\n      sub\n      swap1\n      dup2\n      tag_194\n      jumpi\n      swap1\n      pop\n    tag_193:\n      pop\n        /* \"contracts/Pickr.sol\":6077:6122  Room[] memory list = new Room[](codes.length) */\n      swap1\n      pop\n        /* \"contracts/Pickr.sol\":6137:6146  uint256 i */\n      0x00\n        /* \"contracts/Pickr.sol\":6132:6225  for (uint256 i = 0; i < codes.length; i++) {... */\n    tag_197:\n        /* \"contracts/Pickr.sol\":6156:6161  codes */\n      dup3\n        /* \"contracts/Pickr.sol\":6156:6168  codes.length */\n      mload\n        /* \"contracts/Pickr.sol\":6152:6153  i */\n      dup2\n        /* \"contracts/Pickr.sol\":6152:6168  i < codes.length */\n      lt\n        /* \"contracts/Pickr.sol\":6132:6225  for (uint256 i = 0; i < codes.length; i++) {... */\n      iszero\n      tag_198\n      jumpi\n        /* \"contracts/Pickr.sol\":6199:6204  rooms */\n      0x00\n        /* \"contracts/Pickr.sol\":6199:6214  rooms[codes[i]] */\n      dup1\n        /* \"contracts/Pickr.sol\":6205:6210  codes */\n      dup5\n        /* \"contracts/Pickr.sol\":6211:6212  i */\n      dup4\n        /* \"contracts/Pickr.sol\":6205:6213  codes[i] */\n      dup2\n      mload\n      dup2\n      lt\n      tag_200\n      jumpi\n      tag_201\n      tag_108\n      jump\t// in\n    tag_201:\n    tag_200:\n      0x20\n      mul\n      0x20\n      add\n      add\n      mload\n        /* \"contracts/Pickr.sol\":6199:6214  rooms[codes[i]] */\n      dup2\n      mstore\n      0x20\n      add\n      swap1\n      dup2\n      mstore\n      0x20\n      add\n      0x00\n      keccak256\n        /* \"contracts/Pickr.sol\":6189:6214  list[i] = rooms[codes[i]] */\n      mload(0x40)\n      dup1\n      0x0100\n      add\n      0x40\n      mstore\n      swap1\n      dup2\n      0x00\n      dup3\n      add\n      0x00\n      swap1\n      sload\n      swap1\n      0x0100\n      exp\n      swap1\n      div\n      0xffffffffffffffffffffffffffffffffffffffff\n      and\n      0xffffffffffffffffffffffffffffffffffffffff\n      and\n      0xffffffffffffffffffffffffffffffffffffffff\n      and\n      dup2\n      mstore\n      0x20\n      add\n      0x01\n      dup3\n      add\n      sload\n      dup2\n      mstore\n      0x20\n      add\n      0x02\n      dup3\n      add\n      0x00\n      swap1\n      sload\n      swap1\n      0x0100\n      exp\n      swap1\n      div\n      0xff\n      and\n      0x02\n      dup2\n      gt\n      iszero\n      tag_202\n      jumpi\n      tag_203\n      tag_94\n      jump\t// in\n    tag_203:\n    tag_202:\n      0x02\n      dup2\n      gt\n      iszero\n      tag_204\n      jumpi\n      tag_205\n      tag_94\n      jump\t// in\n    tag_205:\n    tag_204:\n      dup2\n      mstore\n      0x20\n      add\n      0x02\n      dup3\n      add\n      0x01\n      swap1\n      sload\n      swap1\n      0x0100\n      exp\n      swap1\n      div\n      0xff\n      and\n      0x01\n      dup2\n      gt\n      iszero\n      tag_206\n      jumpi\n      tag_207\n      tag_94\n      jump\t// in\n    tag_207:\n    tag_206:\n      0x01\n      dup2\n      gt\n      iszero\n      tag_208\n      jumpi\n      tag_209\n      tag_94\n      jump\t// in\n    tag_209:\n    tag_208:\n      dup2\n      mstore\n      0x20\n      add\n      0x03\n      dup3\n      add\n      sload\n      dup2\n      mstore\n      0x20\n      add\n      0x04\n      dup3\n      add\n      sload\n      dup2\n      mstore\n      0x20\n      add\n      0x05\n      dup3\n      add\n      sload\n      dup2\n      mstore\n      0x20\n      add\n      0x06\n      dup3\n      add\n      0x00\n      swap1\n      sload\n      swap1\n      0x0100\n      exp\n      swap1\n      div\n      0xffffffffffffffff\n      and\n      0xffffffffffffffff\n      and\n      0xffffffffffffffff\n      and\n      dup2\n      mstore\n      pop\n      pop\n        /* \"contracts/Pickr.sol\":6189:6193  list */\n      dup3\n        /* \"contracts/Pickr.sol\":6194:6195  i */\n      dup3\n        /* \"contracts/Pickr.sol\":6189:6196  list[i] */\n      dup2\n      mload\n      dup2\n      lt\n      tag_210\n      jumpi\n      tag_211\n      tag_108\n      jump\t// in\n    tag_211:\n    tag_210:\n      0x20\n      mul\n      0x20\n      add\n      add\n        /* \"contracts/Pickr.sol\":6189:6214  list[i] = rooms[codes[i]] */\n      dup2\n      swap1\n      mstore\n      pop\n        /* \"contracts/Pickr.sol\":6170:6173  i++ */\n      dup1\n      dup1\n      tag_212\n      swap1\n      tag_124\n      jump\t// in\n    tag_212:\n      swap2\n      pop\n      pop\n        /* \"contracts/Pickr.sol\":6132:6225  for (uint256 i = 0; i < codes.length; i++) {... */\n      jump(tag_197)\n    tag_198:\n      pop\n        /* \"contracts/Pickr.sol\":6242:6246  list */\n      dup1\n        /* \"contracts/Pickr.sol\":6248:6253  codes */\n      dup3\n        /* \"contracts/Pickr.sol\":6234:6254  return (list, codes) */\n      swap4\n      pop\n      swap4\n      pop\n      pop\n      pop\n        /* \"contracts/Pickr.sol\":5896:6261  function getUserRooms(... */\n      swap2\n      pop\n      swap2\n      jump\t// out\n        /* \"contracts/Pickr.sol\":1751:2158  function deposit(bytes32 codeHash) external payable onlyCreator(codeHash) {... */\n    tag_64:\n        /* \"contracts/Pickr.sol\":1815:1823  codeHash */\n      dup1\n        /* \"contracts/Pickr.sol\":241:263  _isRoomExist(codeHash) */\n      tag_214\n        /* \"contracts/Pickr.sol\":254:262  codeHash */\n      dup2\n        /* \"contracts/Pickr.sol\":241:253  _isRoomExist */\n      tag_88\n        /* \"contracts/Pickr.sol\":241:263  _isRoomExist(codeHash) */\n      jump\t// in\n    tag_214:\n        /* \"contracts/Pickr.sol\":236:326  if (!_isRoomExist(codeHash)) {... */\n      tag_215\n      jumpi\n        /* \"contracts/Pickr.sol\":306:314  codeHash */\n      dup1\n        /* \"contracts/Pickr.sol\":286:315  ErrorRoomIsNotExist(codeHash) */\n      mload(0x40)\n      0xe286343900000000000000000000000000000000000000000000000000000000\n      dup2\n      mstore\n      0x04\n      add\n      tag_216\n      swap2\n      swap1\n      tag_91\n      jump\t// in\n    tag_216:\n      mload(0x40)\n      dup1\n      swap2\n      sub\n      swap1\n      revert\n        /* \"contracts/Pickr.sol\":236:326  if (!_isRoomExist(codeHash)) {... */\n    tag_215:\n        /* \"contracts/Pickr.sol\":353:358  rooms */\n      0x00\n        /* \"contracts/Pickr.sol\":353:368  rooms[codeHash] */\n      dup1\n        /* \"contracts/Pickr.sol\":359:367  codeHash */\n      dup3\n        /* \"contracts/Pickr.sol\":353:368  rooms[codeHash] */\n      dup2\n      mstore\n      0x20\n      add\n      swap1\n      dup2\n      mstore\n      0x20\n      add\n      0x00\n      keccak256\n        /* \"contracts/Pickr.sol\":353:376  rooms[codeHash].creator */\n      0x00\n      add\n      0x00\n      swap1\n      sload\n      swap1\n      0x0100\n      exp\n      swap1\n      div\n      0xffffffffffffffffffffffffffffffffffffffff\n      and\n        /* \"contracts/Pickr.sol\":339:376  msg.sender != rooms[codeHash].creator */\n      0xffffffffffffffffffffffffffffffffffffffff\n      and\n        /* \"contracts/Pickr.sol\":339:349  msg.sender */\n      caller\n        /* \"contracts/Pickr.sol\":339:376  msg.sender != rooms[codeHash].creator */\n      0xffffffffffffffffffffffffffffffffffffffff\n      and\n      eq\n        /* \"contracts/Pickr.sol\":335:440  if (msg.sender != rooms[codeHash].creator) {... */\n      tag_217\n      jumpi\n        /* \"contracts/Pickr.sol\":418:428  msg.sender */\n      caller\n        /* \"contracts/Pickr.sol\":399:429  ErrorNotAuthorized(msg.sender) */\n      mload(0x40)\n      0xd68affb700000000000000000000000000000000000000000000000000000000\n      dup2\n      mstore\n      0x04\n      add\n      tag_218\n      swap2\n      swap1\n      tag_32\n      jump\t// in\n    tag_218:\n      mload(0x40)\n      dup1\n      swap2\n      sub\n      swap1\n      revert\n        /* \"contracts/Pickr.sol\":335:440  if (msg.sender != rooms[codeHash].creator) {... */\n    tag_217:\n        /* \"contracts/Pickr.sol\":1840:1862  _isRoomExist(codeHash) */\n      tag_220\n        /* \"contracts/Pickr.sol\":1853:1861  codeHash */\n      dup3\n        /* \"contracts/Pickr.sol\":1840:1852  _isRoomExist */\n      tag_88\n        /* \"contracts/Pickr.sol\":1840:1862  _isRoomExist(codeHash) */\n      jump\t// in\n    tag_220:\n        /* \"contracts/Pickr.sol\":1835:1900  if (!_isRoomExist(codeHash)) revert ErrorRoomIsNotExist(codeHash) */\n      tag_221\n      jumpi\n        /* \"contracts/Pickr.sol\":1891:1899  codeHash */\n      dup2\n        /* \"contracts/Pickr.sol\":1871:1900  ErrorRoomIsNotExist(codeHash) */\n      mload(0x40)\n      0xe286343900000000000000000000000000000000000000000000000000000000\n      dup2\n      mstore\n      0x04\n      add\n      tag_222\n      swap2\n      swap1\n      tag_91\n      jump\t// in\n    tag_222:\n      mload(0x40)\n      dup1\n      swap2\n      sub\n      swap1\n      revert\n        /* \"contracts/Pickr.sol\":1835:1900  if (!_isRoomExist(codeHash)) revert ErrorRoomIsNotExist(codeHash) */\n    tag_221:\n        /* \"contracts/Pickr.sol\":1911:1928  Room storage room */\n      0x00\n        /* \"contracts/Pickr.sol\":1931:1936  rooms */\n      dup1\n        /* \"contracts/Pickr.sol\":1931:1946  rooms[codeHash] */\n      0x00\n        /* \"contracts/Pickr.sol\":1937:1945  codeHash */\n      dup5\n        /* \"contracts/Pickr.sol\":1931:1946  rooms[codeHash] */\n      dup2\n      mstore\n      0x20\n      add\n      swap1\n      dup2\n      mstore\n      0x20\n      add\n      0x00\n      keccak256\n        /* \"contracts/Pickr.sol\":1911:1946  Room storage room = rooms[codeHash] */\n      swap1\n      pop\n        /* \"contracts/Pickr.sol\":1975:1992  RoomStatus.ACTIVE */\n      0x00\n        /* \"contracts/Pickr.sol\":1960:1992  room.status != RoomStatus.ACTIVE */\n      0x02\n      dup2\n      gt\n      iszero\n      tag_223\n      jumpi\n      tag_224\n      tag_94\n      jump\t// in\n    tag_224:\n    tag_223:\n        /* \"contracts/Pickr.sol\":1960:1964  room */\n      dup2\n        /* \"contracts/Pickr.sol\":1960:1971  room.status */\n      0x02\n      add\n      0x00\n      swap1\n      sload\n      swap1\n      0x0100\n      exp\n      swap1\n      div\n      0xff\n      and\n        /* \"contracts/Pickr.sol\":1960:1992  room.status != RoomStatus.ACTIVE */\n      0x02\n      dup2\n      gt\n      iszero\n      tag_225\n      jumpi\n      tag_226\n      tag_94\n      jump\t// in\n    tag_226:\n    tag_225:\n      eq\n        /* \"contracts/Pickr.sol\":1956:2056  if (room.status != RoomStatus.ACTIVE) {... */\n      tag_227\n      jumpi\n        /* \"contracts/Pickr.sol\":2036:2044  codeHash */\n      dup3\n        /* \"contracts/Pickr.sol\":2015:2045  ErrorRoomIsNotActive(codeHash) */\n      mload(0x40)\n      0xd528e2af00000000000000000000000000000000000000000000000000000000\n      dup2\n      mstore\n      0x04\n      add\n      tag_228\n      swap2\n      swap1\n      tag_91\n      jump\t// in\n    tag_228:\n      mload(0x40)\n      dup1\n      swap2\n      sub\n      swap1\n      revert\n        /* \"contracts/Pickr.sol\":1956:2056  if (room.status != RoomStatus.ACTIVE) {... */\n    tag_227:\n        /* \"contracts/Pickr.sol\":2083:2084  0 */\n      0x00\n        /* \"contracts/Pickr.sol\":2070:2079  msg.value */\n      callvalue\n        /* \"contracts/Pickr.sol\":2070:2084  msg.value == 0 */\n      sub\n        /* \"contracts/Pickr.sol\":2066:2115  if (msg.value == 0) revert ErrorDepositRequired() */\n      tag_229\n      jumpi\n        /* \"contracts/Pickr.sol\":2093:2115  ErrorDepositRequired() */\n      mload(0x40)\n      0x600f7bf400000000000000000000000000000000000000000000000000000000\n      dup2\n      mstore\n      0x04\n      add\n      mload(0x40)\n      dup1\n      swap2\n      sub\n      swap1\n      revert\n        /* \"contracts/Pickr.sol\":2066:2115  if (msg.value == 0) revert ErrorDepositRequired() */\n    tag_229:\n        /* \"contracts/Pickr.sol\":2142:2151  msg.value */\n      callvalue\n        /* \"contracts/Pickr.sol\":2126:2130  room */\n      dup2\n        /* \"contracts/Pickr.sol\":2126:2138  room.balance */\n      0x01\n      add\n      0x00\n        /* \"contracts/Pickr.sol\":2126:2151  room.balance += msg.value */\n      dup3\n      dup3\n      sload\n      tag_230\n      swap2\n      swap1\n      tag_231\n      jump\t// in\n    tag_230:\n      swap3\n      pop\n      pop\n      dup2\n      swap1\n      sstore\n      pop\n        /* \"contracts/Pickr.sol\":1825:2158  {... */\n      pop\n        /* \"contracts/Pickr.sol\":1751:2158  function deposit(bytes32 codeHash) external payable onlyCreator(codeHash) {... */\n      pop\n      pop\n      jump\t// out\n        /* \"contracts/Pickr.sol\":841:1745  function createRoom(... */\n    tag_68:\n        /* \"contracts/Pickr.sol\":1001:1002  0 */\n      0x00\n        /* \"contracts/Pickr.sol\":988:997  msg.value */\n      callvalue\n        /* \"contracts/Pickr.sol\":988:1002  msg.value == 0 */\n      sub\n        /* \"contracts/Pickr.sol\":984:1033  if (msg.value == 0) revert ErrorDepositRequired() */\n      tag_233\n      jumpi\n        /* \"contracts/Pickr.sol\":1011:1033  ErrorDepositRequired() */\n      mload(0x40)\n      0x600f7bf400000000000000000000000000000000000000000000000000000000\n      dup2\n      mstore\n      0x04\n      add\n      mload(0x40)\n      dup1\n      swap2\n      sub\n      swap1\n      revert\n        /* \"contracts/Pickr.sol\":984:1033  if (msg.value == 0) revert ErrorDepositRequired() */\n    tag_233:\n        /* \"contracts/Pickr.sol\":1065:1079  minParticipant */\n      dup3\n        /* \"contracts/Pickr.sol\":1048:1062  maxParticipant */\n      dup3\n        /* \"contracts/Pickr.sol\":1048:1079  maxParticipant < minParticipant */\n      lt\n        /* \"contracts/Pickr.sol\":1044:1145  if (maxParticipant < minParticipant) {... */\n      iszero\n      tag_234\n      jumpi\n        /* \"contracts/Pickr.sol\":1102:1134  ErrorMaxParticipantLessThanMin() */\n      mload(0x40)\n      0xb3b6029c00000000000000000000000000000000000000000000000000000000\n      dup2\n      mstore\n      0x04\n      add\n      mload(0x40)\n      dup1\n      swap2\n      sub\n      swap1\n      revert\n        /* \"contracts/Pickr.sol\":1044:1145  if (maxParticipant < minParticipant) {... */\n    tag_234:\n        /* \"contracts/Pickr.sol\":1176:1177  0 */\n      0x00\n        /* \"contracts/Pickr.sol\":1158:1172  minParticipant */\n      dup4\n        /* \"contracts/Pickr.sol\":1158:1177  minParticipant == 0 */\n      sub\n        /* \"contracts/Pickr.sol\":1154:1253  if (minParticipant == 0) {... */\n      tag_235\n      jumpi\n        /* \"contracts/Pickr.sol\":1200:1242  ErrorMinParticipantMustBeGreaterThanZero() */\n      mload(0x40)\n      0x530a986700000000000000000000000000000000000000000000000000000000\n      dup2\n      mstore\n      0x04\n      add\n      mload(0x40)\n      dup1\n      swap2\n      sub\n      swap1\n      revert\n        /* \"contracts/Pickr.sol\":1154:1253  if (minParticipant == 0) {... */\n    tag_235:\n        /* \"contracts/Pickr.sol\":1286:1287  0 */\n      0x00\n        /* \"contracts/Pickr.sol\":1278:1288  bytes32(0) */\n      dup1\n      shl\n        /* \"contracts/Pickr.sol\":1266:1274  codeHash */\n      dup2\n        /* \"contracts/Pickr.sol\":1266:1288  codeHash == bytes32(0) */\n      sub\n        /* \"contracts/Pickr.sol\":1262:1318  if (codeHash == bytes32(0)) revert ErrorCodeIsRequired() */\n      tag_236\n      jumpi\n        /* \"contracts/Pickr.sol\":1297:1318  ErrorCodeIsRequired() */\n      mload(0x40)\n      0x166cbdbe00000000000000000000000000000000000000000000000000000000\n      dup2\n      mstore\n      0x04\n      add\n      mload(0x40)\n      dup1\n      swap2\n      sub\n      swap1\n      revert\n        /* \"contracts/Pickr.sol\":1262:1318  if (codeHash == bytes32(0)) revert ErrorCodeIsRequired() */\n    tag_236:\n        /* \"contracts/Pickr.sol\":1332:1354  _isRoomExist(codeHash) */\n      tag_237\n        /* \"contracts/Pickr.sol\":1345:1353  codeHash */\n      dup2\n        /* \"contracts/Pickr.sol\":1332:1344  _isRoomExist */\n      tag_88\n        /* \"contracts/Pickr.sol\":1332:1354  _isRoomExist(codeHash) */\n      jump\t// in\n    tag_237:\n        /* \"contracts/Pickr.sol\":1328:1418  if (_isRoomExist(codeHash)) {... */\n      iszero\n      tag_238\n      jumpi\n        /* \"contracts/Pickr.sol\":1398:1406  codeHash */\n      dup1\n        /* \"contracts/Pickr.sol\":1377:1407  ErrorCodeAlreadyUsed(codeHash) */\n      mload(0x40)\n      0x4fec90c500000000000000000000000000000000000000000000000000000000\n      dup2\n      mstore\n      0x04\n      add\n      tag_239\n      swap2\n      swap1\n      tag_91\n      jump\t// in\n    tag_239:\n      mload(0x40)\n      dup1\n      swap2\n      sub\n      swap1\n      revert\n        /* \"contracts/Pickr.sol\":1328:1418  if (_isRoomExist(codeHash)) {... */\n    tag_238:\n        /* \"contracts/Pickr.sol\":1446:1682  Room(... */\n      mload(0x40)\n      dup1\n      0x0100\n      add\n      0x40\n      mstore\n      dup1\n        /* \"contracts/Pickr.sol\":1464:1474  msg.sender */\n      caller\n        /* \"contracts/Pickr.sol\":1446:1682  Room(... */\n      0xffffffffffffffffffffffffffffffffffffffff\n      and\n      dup2\n      mstore\n      0x20\n      add\n        /* \"contracts/Pickr.sol\":1488:1497  msg.value */\n      callvalue\n        /* \"contracts/Pickr.sol\":1446:1682  Room(... */\n      dup2\n      mstore\n      0x20\n      add\n        /* \"contracts/Pickr.sol\":1511:1528  RoomStatus.ACTIVE */\n      0x00\n        /* \"contracts/Pickr.sol\":1446:1682  Room(... */\n      0x02\n      dup2\n      gt\n      iszero\n      tag_240\n      jumpi\n      tag_241\n      tag_94\n      jump\t// in\n    tag_241:\n    tag_240:\n      dup2\n      mstore\n      0x20\n      add\n        /* \"contracts/Pickr.sol\":1542:1564  RoomAccessMode.PRIVATE */\n      0x01\n        /* \"contracts/Pickr.sol\":1446:1682  Room(... */\n      dup1\n      dup2\n      gt\n      iszero\n      tag_242\n      jumpi\n      tag_243\n      tag_94\n      jump\t// in\n    tag_243:\n    tag_242:\n      dup2\n      mstore\n      0x20\n      add\n        /* \"contracts/Pickr.sol\":1578:1592  maxParticipant */\n      dup4\n        /* \"contracts/Pickr.sol\":1446:1682  Room(... */\n      dup2\n      mstore\n      0x20\n      add\n        /* \"contracts/Pickr.sol\":1606:1620  minParticipant */\n      dup5\n        /* \"contracts/Pickr.sol\":1446:1682  Room(... */\n      dup2\n      mstore\n      0x20\n      add\n        /* \"contracts/Pickr.sol\":1634:1635  0 */\n      0x00\n        /* \"contracts/Pickr.sol\":1446:1682  Room(... */\n      dup2\n      mstore\n      0x20\n      add\n        /* \"contracts/Pickr.sol\":1656:1671  block.timestamp */\n      timestamp\n        /* \"contracts/Pickr.sol\":1446:1682  Room(... */\n      0xffffffffffffffff\n      and\n      dup2\n      mstore\n      pop\n        /* \"contracts/Pickr.sol\":1428:1433  rooms */\n      0x00\n        /* \"contracts/Pickr.sol\":1428:1443  rooms[codeHash] */\n      dup1\n        /* \"contracts/Pickr.sol\":1434:1442  codeHash */\n      dup4\n        /* \"contracts/Pickr.sol\":1428:1443  rooms[codeHash] */\n      dup2\n      mstore\n      0x20\n      add\n      swap1\n      dup2\n      mstore\n      0x20\n      add\n      0x00\n      keccak256\n        /* \"contracts/Pickr.sol\":1428:1682  rooms[codeHash] = Room(... */\n      0x00\n      dup3\n      add\n      mload\n      dup2\n      0x00\n      add\n      exp(0x0100, 0x00)\n      dup2\n      sload\n      dup2\n      0xffffffffffffffffffffffffffffffffffffffff\n      mul\n      not\n      and\n      swap1\n      dup4\n      0xffffffffffffffffffffffffffffffffffffffff\n      and\n      mul\n      or\n      swap1\n      sstore\n      pop\n      0x20\n      dup3\n      add\n      mload\n      dup2\n      0x01\n      add\n      sstore\n      0x40\n      dup3\n      add\n      mload\n      dup2\n      0x02\n      add\n      exp(0x0100, 0x00)\n      dup2\n      sload\n      dup2\n      0xff\n      mul\n      not\n      and\n      swap1\n      dup4\n      0x02\n      dup2\n      gt\n      iszero\n      tag_244\n      jumpi\n      tag_245\n      tag_94\n      jump\t// in\n    tag_245:\n    tag_244:\n      mul\n      or\n      swap1\n      sstore\n      pop\n      0x60\n      dup3\n      add\n      mload\n      dup2\n      0x02\n      add\n      exp(0x0100, 0x01)\n      dup2\n      sload\n      dup2\n      0xff\n      mul\n      not\n      and\n      swap1\n      dup4\n      0x01\n      dup2\n      gt\n      iszero\n      tag_246\n      jumpi\n      tag_247\n      tag_94\n      jump\t// in\n    tag_247:\n    tag_246:\n      mul\n      or\n      swap1\n      sstore\n      pop\n      0x80\n      dup3\n      add\n      mload\n      dup2\n      0x03\n      add\n      sstore\n      0xa0\n      dup3\n      add\n      mload\n      dup2\n      0x04\n      add\n      sstore\n      0xc0\n      dup3\n      add\n      mload\n      dup2\n      0x05\n      add\n      sstore\n      0xe0\n      dup3\n      add\n      mload\n      dup2\n      0x06\n      add\n      exp(0x0100, 0x00)\n      dup2\n      sload\n      dup2\n      0xffffffffffffffff\n      mul\n      not\n      and\n      swap1\n      dup4\n      0xffffffffffffffff\n      and\n      mul\n      or\n      swap1\n      sstore\n      pop\n      swap1\n      pop\n      pop\n        /* \"contracts/Pickr.sol\":1693:1711  roomCodesByCreator */\n      0x04\n        /* \"contracts/Pickr.sol\":1693:1723  roomCodesByCreator[msg.sender] */\n      0x00\n        /* \"contracts/Pickr.sol\":1712:1722  msg.sender */\n      caller\n        /* \"contracts/Pickr.sol\":1693:1723  roomCodesByCreator[msg.sender] */\n      0xffffffffffffffffffffffffffffffffffffffff\n      and\n      0xffffffffffffffffffffffffffffffffffffffff\n      and\n      dup2\n      mstore\n      0x20\n      add\n      swap1\n      dup2\n      mstore\n      0x20\n      add\n      0x00\n      keccak256\n        /* \"contracts/Pickr.sol\":1729:1737  codeHash */\n      dup2\n        /* \"contracts/Pickr.sol\":1693:1738  roomCodesByCreator[msg.sender].push(codeHash) */\n      swap1\n      dup1\n      0x01\n      dup2\n      sload\n      add\n      dup1\n      dup3\n      sstore\n      dup1\n      swap2\n      pop\n      pop\n      0x01\n      swap1\n      sub\n      swap1\n      0x00\n      mstore\n      keccak256(0x00, 0x20)\n      add\n      0x00\n      swap1\n      swap2\n      swap1\n      swap2\n      swap1\n      swap2\n      pop\n      sstore\n        /* \"contracts/Pickr.sol\":841:1745  function createRoom(... */\n      pop\n      pop\n      pop\n      jump\t// out\n        /* \"contracts/Pickr.sol\":2569:3337  function winnerSelected(... */\n    tag_73:\n        /* \"contracts/Pickr.sol\":2670:2678  codeHash */\n      dup2\n        /* \"contracts/Pickr.sol\":241:263  _isRoomExist(codeHash) */\n      tag_250\n        /* \"contracts/Pickr.sol\":254:262  codeHash */\n      dup2\n        /* \"contracts/Pickr.sol\":241:253  _isRoomExist */\n      tag_88\n        /* \"contracts/Pickr.sol\":241:263  _isRoomExist(codeHash) */\n      jump\t// in\n    tag_250:\n        /* \"contracts/Pickr.sol\":236:326  if (!_isRoomExist(codeHash)) {... */\n      tag_251\n      jumpi\n        /* \"contracts/Pickr.sol\":306:314  codeHash */\n      dup1\n        /* \"contracts/Pickr.sol\":286:315  ErrorRoomIsNotExist(codeHash) */\n      mload(0x40)\n      0xe286343900000000000000000000000000000000000000000000000000000000\n      dup2\n      mstore\n      0x04\n      add\n      tag_252\n      swap2\n      swap1\n      tag_91\n      jump\t// in\n    tag_252:\n      mload(0x40)\n      dup1\n      swap2\n      sub\n      swap1\n      revert\n        /* \"contracts/Pickr.sol\":236:326  if (!_isRoomExist(codeHash)) {... */\n    tag_251:\n        /* \"contracts/Pickr.sol\":353:358  rooms */\n      0x00\n        /* \"contracts/Pickr.sol\":353:368  rooms[codeHash] */\n      dup1\n        /* \"contracts/Pickr.sol\":359:367  codeHash */\n      dup3\n        /* \"contracts/Pickr.sol\":353:368  rooms[codeHash] */\n      dup2\n      mstore\n      0x20\n      add\n      swap1\n      dup2\n      mstore\n      0x20\n      add\n      0x00\n      keccak256\n        /* \"contracts/Pickr.sol\":353:376  rooms[codeHash].creator */\n      0x00\n      add\n      0x00\n      swap1\n      sload\n      swap1\n      0x0100\n      exp\n      swap1\n      div\n      0xffffffffffffffffffffffffffffffffffffffff\n      and\n        /* \"contracts/Pickr.sol\":339:376  msg.sender != rooms[codeHash].creator */\n      0xffffffffffffffffffffffffffffffffffffffff\n      and\n        /* \"contracts/Pickr.sol\":339:349  msg.sender */\n      caller\n        /* \"contracts/Pickr.sol\":339:376  msg.sender != rooms[codeHash].creator */\n      0xffffffffffffffffffffffffffffffffffffffff\n      and\n      eq\n        /* \"contracts/Pickr.sol\":335:440  if (msg.sender != rooms[codeHash].creator) {... */\n      tag_253\n      jumpi\n        /* \"contracts/Pickr.sol\":418:428  msg.sender */\n      caller\n        /* \"contracts/Pickr.sol\":399:429  ErrorNotAuthorized(msg.sender) */\n      mload(0x40)\n      0xd68affb700000000000000000000000000000000000000000000000000000000\n      dup2\n      mstore\n      0x04\n      add\n      tag_254\n      swap2\n      swap1\n      tag_32\n      jump\t// in\n    tag_254:\n      mload(0x40)\n      dup1\n      swap2\n      sub\n      swap1\n      revert\n        /* \"contracts/Pickr.sol\":335:440  if (msg.sender != rooms[codeHash].creator) {... */\n    tag_253:\n        /* \"contracts/Pickr.sol\":2690:2707  Room storage room */\n      0x00\n        /* \"contracts/Pickr.sol\":2710:2715  rooms */\n      dup1\n        /* \"contracts/Pickr.sol\":2710:2725  rooms[codeHash] */\n      0x00\n        /* \"contracts/Pickr.sol\":2716:2724  codeHash */\n      dup6\n        /* \"contracts/Pickr.sol\":2710:2725  rooms[codeHash] */\n      dup2\n      mstore\n      0x20\n      add\n      swap1\n      dup2\n      mstore\n      0x20\n      add\n      0x00\n      keccak256\n        /* \"contracts/Pickr.sol\":2690:2725  Room storage room = rooms[codeHash] */\n      swap1\n      pop\n        /* \"contracts/Pickr.sol\":2754:2772  RoomStatus.STARTED */\n      0x02\n        /* \"contracts/Pickr.sol\":2739:2772  room.status != RoomStatus.STARTED */\n      dup1\n      dup2\n      gt\n      iszero\n      tag_256\n      jumpi\n      tag_257\n      tag_94\n      jump\t// in\n    tag_257:\n    tag_256:\n        /* \"contracts/Pickr.sol\":2739:2743  room */\n      dup2\n        /* \"contracts/Pickr.sol\":2739:2750  room.status */\n      0x02\n      add\n      0x00\n      swap1\n      sload\n      swap1\n      0x0100\n      exp\n      swap1\n      div\n      0xff\n      and\n        /* \"contracts/Pickr.sol\":2739:2772  room.status != RoomStatus.STARTED */\n      0x02\n      dup2\n      gt\n      iszero\n      tag_258\n      jumpi\n      tag_259\n      tag_94\n      jump\t// in\n    tag_259:\n    tag_258:\n      eq\n        /* \"contracts/Pickr.sol\":2735:2837  if (room.status != RoomStatus.STARTED) {... */\n      tag_260\n      jumpi\n        /* \"contracts/Pickr.sol\":2817:2825  codeHash */\n      dup4\n        /* \"contracts/Pickr.sol\":2795:2826  ErrorRoomIsNotStarted(codeHash) */\n      mload(0x40)\n      0xd750f8d900000000000000000000000000000000000000000000000000000000\n      dup2\n      mstore\n      0x04\n      add\n      tag_261\n      swap2\n      swap1\n      tag_91\n      jump\t// in\n    tag_261:\n      mload(0x40)\n      dup1\n      swap2\n      sub\n      swap1\n      revert\n        /* \"contracts/Pickr.sol\":2735:2837  if (room.status != RoomStatus.STARTED) {... */\n    tag_260:\n        /* \"contracts/Pickr.sol\":2868:2869  0 */\n      0x00\n        /* \"contracts/Pickr.sol\":2850:2870  winner == address(0) */\n      0xffffffffffffffffffffffffffffffffffffffff\n      and\n        /* \"contracts/Pickr.sol\":2850:2856  winner */\n      dup4\n        /* \"contracts/Pickr.sol\":2850:2870  winner == address(0) */\n      0xffffffffffffffffffffffffffffffffffffffff\n      and\n      sub\n        /* \"contracts/Pickr.sol\":2846:2907  if (winner == address(0)) revert ErrorInvalidWinner(codeHash) */\n      tag_262\n      jumpi\n        /* \"contracts/Pickr.sol\":2898:2906  codeHash */\n      dup4\n        /* \"contracts/Pickr.sol\":2879:2907  ErrorInvalidWinner(codeHash) */\n      mload(0x40)\n      0xfe23ea1f00000000000000000000000000000000000000000000000000000000\n      dup2\n      mstore\n      0x04\n      add\n      tag_263\n      swap2\n      swap1\n      tag_91\n      jump\t// in\n    tag_263:\n      mload(0x40)\n      dup1\n      swap2\n      sub\n      swap1\n      revert\n        /* \"contracts/Pickr.sol\":2846:2907  if (winner == address(0)) revert ErrorInvalidWinner(codeHash) */\n    tag_262:\n        /* \"contracts/Pickr.sol\":2922:2931  hasJoined */\n      0x01\n        /* \"contracts/Pickr.sol\":2922:2941  hasJoined[codeHash] */\n      0x00\n        /* \"contracts/Pickr.sol\":2932:2940  codeHash */\n      dup6\n        /* \"contracts/Pickr.sol\":2922:2941  hasJoined[codeHash] */\n      dup2\n      mstore\n      0x20\n      add\n      swap1\n      dup2\n      mstore\n      0x20\n      add\n      0x00\n      keccak256\n        /* \"contracts/Pickr.sol\":2922:2949  hasJoined[codeHash][winner] */\n      0x00\n        /* \"contracts/Pickr.sol\":2942:2948  winner */\n      dup5\n        /* \"contracts/Pickr.sol\":2922:2949  hasJoined[codeHash][winner] */\n      0xffffffffffffffffffffffffffffffffffffffff\n      and\n      0xffffffffffffffffffffffffffffffffffffffff\n      and\n      dup2\n      mstore\n      0x20\n      add\n      swap1\n      dup2\n      mstore\n      0x20\n      add\n      0x00\n      keccak256\n      0x00\n      swap1\n      sload\n      swap1\n      0x0100\n      exp\n      swap1\n      div\n      0xff\n      and\n        /* \"contracts/Pickr.sol\":2917:3029  if (!hasJoined[codeHash][winner]) {... */\n      tag_264\n      jumpi\n        /* \"contracts/Pickr.sol\":3001:3009  codeHash */\n      dup4\n        /* \"contracts/Pickr.sol\":3011:3017  winner */\n      dup4\n        /* \"contracts/Pickr.sol\":2972:3018  ErrorAddressIsNotParticipant(codeHash, winner) */\n      mload(0x40)\n      0xe66163eb00000000000000000000000000000000000000000000000000000000\n      dup2\n      mstore\n      0x04\n      add\n      tag_265\n      swap3\n      swap2\n      swap1\n      tag_266\n      jump\t// in\n    tag_265:\n      mload(0x40)\n      dup1\n      swap2\n      sub\n      swap1\n      revert\n        /* \"contracts/Pickr.sol\":2917:3029  if (!hasJoined[codeHash][winner]) {... */\n    tag_264:\n        /* \"contracts/Pickr.sol\":3039:3052  uint256 prize */\n      0x00\n        /* \"contracts/Pickr.sol\":3055:3059  room */\n      dup2\n        /* \"contracts/Pickr.sol\":3055:3067  room.balance */\n      0x01\n      add\n      sload\n        /* \"contracts/Pickr.sol\":3039:3067  uint256 prize = room.balance */\n      swap1\n      pop\n        /* \"contracts/Pickr.sol\":3093:3094  0 */\n      0x00\n        /* \"contracts/Pickr.sol\":3085:3090  prize */\n      dup2\n        /* \"contracts/Pickr.sol\":3085:3094  prize > 0 */\n      gt\n        /* \"contracts/Pickr.sol\":3077:3115  require(prize > 0, \"No prize balance\") */\n      tag_267\n      jumpi\n      mload(0x40)\n      0x08c379a000000000000000000000000000000000000000000000000000000000\n      dup2\n      mstore\n      0x04\n      add\n      tag_268\n      swap1\n      tag_269\n      jump\t// in\n    tag_268:\n      mload(0x40)\n      dup1\n      swap2\n      sub\n      swap1\n      revert\n    tag_267:\n        /* \"contracts/Pickr.sol\":3146:3152  winner */\n      dup4\n        /* \"contracts/Pickr.sol\":3126:3133  winners */\n      0x03\n        /* \"contracts/Pickr.sol\":3126:3143  winners[codeHash] */\n      0x00\n        /* \"contracts/Pickr.sol\":3134:3142  codeHash */\n      dup8\n        /* \"contracts/Pickr.sol\":3126:3143  winners[codeHash] */\n      dup2\n      mstore\n      0x20\n      add\n      swap1\n      dup2\n      mstore\n      0x20\n      add\n      0x00\n      keccak256\n      0x00\n        /* \"contracts/Pickr.sol\":3126:3152  winners[codeHash] = winner */\n      0x0100\n      exp\n      dup2\n      sload\n      dup2\n      0xffffffffffffffffffffffffffffffffffffffff\n      mul\n      not\n      and\n      swap1\n      dup4\n      0xffffffffffffffffffffffffffffffffffffffff\n      and\n      mul\n      or\n      swap1\n      sstore\n      pop\n        /* \"contracts/Pickr.sol\":3176:3195  RoomStatus.INACTIVE */\n      0x01\n        /* \"contracts/Pickr.sol\":3162:3166  room */\n      dup3\n        /* \"contracts/Pickr.sol\":3162:3173  room.status */\n      0x02\n      add\n      0x00\n        /* \"contracts/Pickr.sol\":3162:3195  room.status = RoomStatus.INACTIVE */\n      0x0100\n      exp\n      dup2\n      sload\n      dup2\n      0xff\n      mul\n      not\n      and\n      swap1\n      dup4\n      0x02\n      dup2\n      gt\n      iszero\n      tag_270\n      jumpi\n      tag_271\n      tag_94\n      jump\t// in\n    tag_271:\n    tag_270:\n      mul\n      or\n      swap1\n      sstore\n      pop\n        /* \"contracts/Pickr.sol\":3220:3221  0 */\n      0x00\n        /* \"contracts/Pickr.sol\":3205:3209  room */\n      dup3\n        /* \"contracts/Pickr.sol\":3205:3217  room.balance */\n      0x01\n      add\n        /* \"contracts/Pickr.sol\":3205:3221  room.balance = 0 */\n      dup2\n      swap1\n      sstore\n      pop\n        /* \"contracts/Pickr.sol\":3233:3240  bool ok */\n      0x00\n        /* \"contracts/Pickr.sol\":3254:3260  winner */\n      dup5\n        /* \"contracts/Pickr.sol\":3246:3266  payable(winner).call */\n      0xffffffffffffffffffffffffffffffffffffffff\n      and\n        /* \"contracts/Pickr.sol\":3274:3279  prize */\n      dup3\n        /* \"contracts/Pickr.sol\":3246:3284  payable(winner).call{value: prize}(\"\") */\n      mload(0x40)\n      tag_272\n      swap1\n      tag_180\n      jump\t// in\n    tag_272:\n      0x00\n      mload(0x40)\n      dup1\n      dup4\n      sub\n      dup2\n      dup6\n      dup8\n      gas\n      call\n      swap3\n      pop\n      pop\n      pop\n      returndatasize\n      dup1\n      0x00\n      dup2\n      eq\n      tag_275\n      jumpi\n      mload(0x40)\n      swap2\n      pop\n      and(add(returndatasize, 0x3f), not(0x1f))\n      dup3\n      add\n      0x40\n      mstore\n      returndatasize\n      dup3\n      mstore\n      returndatasize\n      0x00\n      0x20\n      dup5\n      add\n      returndatacopy\n      jump(tag_274)\n    tag_275:\n      0x60\n      swap2\n      pop\n    tag_274:\n      pop\n        /* \"contracts/Pickr.sol\":3232:3284  (bool ok, ) = payable(winner).call{value: prize}(\"\") */\n      pop\n      swap1\n      pop\n        /* \"contracts/Pickr.sol\":3302:3304  ok */\n      dup1\n        /* \"contracts/Pickr.sol\":3294:3330  require(ok, \"Winner payout failure\") */\n      tag_276\n      jumpi\n      mload(0x40)\n      0x08c379a000000000000000000000000000000000000000000000000000000000\n      dup2\n      mstore\n      0x04\n      add\n      tag_277\n      swap1\n      tag_278\n      jump\t// in\n    tag_277:\n      mload(0x40)\n      dup1\n      swap2\n      sub\n      swap1\n      revert\n    tag_276:\n        /* \"contracts/Pickr.sol\":2680:3337  {... */\n      pop\n      pop\n      pop\n        /* \"contracts/Pickr.sol\":2569:3337  function winnerSelected(... */\n      pop\n      pop\n      pop\n      jump\t// out\n        /* \"contracts/Pickr.sol\":500:546  mapping(bytes32 codeHash => Room) public rooms */\n    tag_77:\n      mstore(0x20, 0x00)\n      dup1\n      0x00\n      mstore\n      keccak256(0x00, 0x40)\n      0x00\n      swap2\n      pop\n      swap1\n      pop\n      dup1\n      0x00\n      add\n      0x00\n      swap1\n      sload\n      swap1\n      0x0100\n      exp\n      swap1\n      div\n      0xffffffffffffffffffffffffffffffffffffffff\n      and\n      swap1\n      dup1\n      0x01\n      add\n      sload\n      swap1\n      dup1\n      0x02\n      add\n      0x00\n      swap1\n      sload\n      swap1\n      0x0100\n      exp\n      swap1\n      div\n      0xff\n      and\n      swap1\n      dup1\n      0x02\n      add\n      0x01\n      swap1\n      sload\n      swap1\n      0x0100\n      exp\n      swap1\n      div\n      0xff\n      and\n      swap1\n      dup1\n      0x03\n      add\n      sload\n      swap1\n      dup1\n      0x04\n      add\n      sload\n      swap1\n      dup1\n      0x05\n      add\n      sload\n      swap1\n      dup1\n      0x06\n      add\n      0x00\n      swap1\n      sload\n      swap1\n      0x0100\n      exp\n      swap1\n      div\n      0xffffffffffffffff\n      and\n      swap1\n      pop\n      dup9\n      jump\t// out\n        /* \"contracts/Pickr.sol\":5741:5890  function getUserRoomCodes(... */\n    tag_83:\n        /* \"contracts/Pickr.sol\":5821:5837  bytes32[] memory */\n      0x60\n        /* \"contracts/Pickr.sol\":5856:5874  roomCodesByCreator */\n      0x04\n        /* \"contracts/Pickr.sol\":5856:5883  roomCodesByCreator[creator] */\n      0x00\n        /* \"contracts/Pickr.sol\":5875:5882  creator */\n      dup4\n        /* \"contracts/Pickr.sol\":5856:5883  roomCodesByCreator[creator] */\n      0xffffffffffffffffffffffffffffffffffffffff\n      and\n      0xffffffffffffffffffffffffffffffffffffffff\n      and\n      dup2\n      mstore\n      0x20\n      add\n      swap1\n      dup2\n      mstore\n      0x20\n      add\n      0x00\n      keccak256\n        /* \"contracts/Pickr.sol\":5849:5883  return roomCodesByCreator[creator] */\n      dup1\n      sload\n      dup1\n      0x20\n      mul\n      0x20\n      add\n      mload(0x40)\n      swap1\n      dup2\n      add\n      0x40\n      mstore\n      dup1\n      swap3\n      swap2\n      swap1\n      dup2\n      dup2\n      mstore\n      0x20\n      add\n      dup3\n      dup1\n      sload\n      dup1\n      iszero\n      tag_280\n      jumpi\n      0x20\n      mul\n      dup3\n      add\n      swap2\n      swap1\n      0x00\n      mstore\n      keccak256(0x00, 0x20)\n      swap1\n    tag_281:\n      dup2\n      sload\n      dup2\n      mstore\n      0x20\n      add\n      swap1\n      0x01\n      add\n      swap1\n      dup1\n      dup4\n      gt\n      tag_281\n      jumpi\n    tag_280:\n      pop\n      pop\n      pop\n      pop\n      pop\n      swap1\n      pop\n        /* \"contracts/Pickr.sol\":5741:5890  function getUserRoomCodes(... */\n      swap2\n      swap1\n      pop\n      jump\t// out\n        /* \"contracts/Pickr.sol\":5606:5735  function _isRoomExist(bytes32 codeHash) private view returns (bool) {... */\n    tag_88:\n        /* \"contracts/Pickr.sol\":5668:5672  bool */\n      0x00\n        /* \"contracts/Pickr.sol\":5726:5727  0 */\n      dup1\n        /* \"contracts/Pickr.sol\":5691:5728  rooms[codeHash].creator != address(0) */\n      0xffffffffffffffffffffffffffffffffffffffff\n      and\n        /* \"contracts/Pickr.sol\":5691:5696  rooms */\n      0x00\n        /* \"contracts/Pickr.sol\":5691:5706  rooms[codeHash] */\n      dup1\n        /* \"contracts/Pickr.sol\":5697:5705  codeHash */\n      dup5\n        /* \"contracts/Pickr.sol\":5691:5706  rooms[codeHash] */\n      dup2\n      mstore\n      0x20\n      add\n      swap1\n      dup2\n      mstore\n      0x20\n      add\n      0x00\n      keccak256\n        /* \"contracts/Pickr.sol\":5691:5714  rooms[codeHash].creator */\n      0x00\n      add\n      0x00\n      swap1\n      sload\n      swap1\n      0x0100\n      exp\n      swap1\n      div\n      0xffffffffffffffffffffffffffffffffffffffff\n      and\n        /* \"contracts/Pickr.sol\":5691:5728  rooms[codeHash].creator != address(0) */\n      0xffffffffffffffffffffffffffffffffffffffff\n      and\n      eq\n      iszero\n        /* \"contracts/Pickr.sol\":5684:5728  return rooms[codeHash].creator != address(0) */\n      swap1\n      pop\n        /* \"contracts/Pickr.sol\":5606:5735  function _isRoomExist(bytes32 codeHash) private view returns (bool) {... */\n      swap2\n      swap1\n      pop\n      jump\t// out\n    tag_196:\n      mload(0x40)\n      dup1\n      0x0100\n      add\n      0x40\n      mstore\n      dup1\n      and(0xffffffffffffffffffffffffffffffffffffffff, 0x00)\n      dup2\n      mstore\n      0x20\n      add\n      0x00\n      dup2\n      mstore\n      0x20\n      add\n      0x00\n      0x02\n      dup2\n      gt\n      iszero\n      tag_283\n      jumpi\n      tag_284\n      tag_94\n      jump\t// in\n    tag_284:\n    tag_283:\n      dup2\n      mstore\n      0x20\n      add\n      0x00\n      0x01\n      dup2\n      gt\n      iszero\n      tag_285\n      jumpi\n      tag_286\n      tag_94\n      jump\t// in\n    tag_286:\n    tag_285:\n      dup2\n      mstore\n      0x20\n      add\n      0x00\n      dup2\n      mstore\n      0x20\n      add\n      0x00\n      dup2\n      mstore\n      0x20\n      add\n      0x00\n      dup2\n      mstore\n      0x20\n      add\n      and(0xffffffffffffffff, 0x00)\n      dup2\n      mstore\n      pop\n      swap1\n      jump\t// out\n        /* \"#utility.yul\":7:176   */\n    tag_287:\n        /* \"#utility.yul\":91:102   */\n      0x00\n        /* \"#utility.yul\":125:131   */\n      dup3\n        /* \"#utility.yul\":120:123   */\n      dup3\n        /* \"#utility.yul\":113:132   */\n      mstore\n        /* \"#utility.yul\":165:169   */\n      0x20\n        /* \"#utility.yul\":160:163   */\n      dup3\n        /* \"#utility.yul\":156:170   */\n      add\n        /* \"#utility.yul\":141:170   */\n      swap1\n      pop\n        /* \"#utility.yul\":7:176   */\n      swap3\n      swap2\n      pop\n      pop\n      jump\t// out\n        /* \"#utility.yul\":182:364   */\n    tag_288:\n        /* \"#utility.yul\":322:356   */\n      0x75736520637265617465526f6f6d2f6465706f736974207769746820636f6465\n        /* \"#utility.yul\":318:319   */\n      0x00\n        /* \"#utility.yul\":310:316   */\n      dup3\n        /* \"#utility.yul\":306:320   */\n      add\n        /* \"#utility.yul\":299:357   */\n      mstore\n        /* \"#utility.yul\":182:364   */\n      pop\n      jump\t// out\n        /* \"#utility.yul\":370:736   */\n    tag_289:\n        /* \"#utility.yul\":512:515   */\n      0x00\n        /* \"#utility.yul\":533:600   */\n      tag_355\n        /* \"#utility.yul\":597:599   */\n      0x20\n        /* \"#utility.yul\":592:595   */\n      dup4\n        /* \"#utility.yul\":533:600   */\n      tag_287\n      jump\t// in\n    tag_355:\n        /* \"#utility.yul\":526:600   */\n      swap2\n      pop\n        /* \"#utility.yul\":609:702   */\n      tag_356\n        /* \"#utility.yul\":698:701   */\n      dup3\n        /* \"#utility.yul\":609:702   */\n      tag_288\n      jump\t// in\n    tag_356:\n        /* \"#utility.yul\":727:729   */\n      0x20\n        /* \"#utility.yul\":722:725   */\n      dup3\n        /* \"#utility.yul\":718:730   */\n      add\n        /* \"#utility.yul\":711:730   */\n      swap1\n      pop\n        /* \"#utility.yul\":370:736   */\n      swap2\n      swap1\n      pop\n      jump\t// out\n        /* \"#utility.yul\":742:1161   */\n    tag_21:\n        /* \"#utility.yul\":908:912   */\n      0x00\n        /* \"#utility.yul\":946:948   */\n      0x20\n        /* \"#utility.yul\":935:944   */\n      dup3\n        /* \"#utility.yul\":931:949   */\n      add\n        /* \"#utility.yul\":923:949   */\n      swap1\n      pop\n        /* \"#utility.yul\":995:1004   */\n      dup2\n        /* \"#utility.yul\":989:993   */\n      dup2\n        /* \"#utility.yul\":985:1005   */\n      sub\n        /* \"#utility.yul\":981:982   */\n      0x00\n        /* \"#utility.yul\":970:979   */\n      dup4\n        /* \"#utility.yul\":966:983   */\n      add\n        /* \"#utility.yul\":959:1006   */\n      mstore\n        /* \"#utility.yul\":1023:1154   */\n      tag_358\n        /* \"#utility.yul\":1149:1153   */\n      dup2\n        /* \"#utility.yul\":1023:1154   */\n      tag_289\n      jump\t// in\n    tag_358:\n        /* \"#utility.yul\":1015:1154   */\n      swap1\n      pop\n        /* \"#utility.yul\":742:1161   */\n      swap2\n      swap1\n      pop\n      jump\t// out\n        /* \"#utility.yul\":1248:1365   */\n    tag_291:\n        /* \"#utility.yul\":1357:1358   */\n      0x00\n        /* \"#utility.yul\":1354:1355   */\n      dup1\n        /* \"#utility.yul\":1347:1359   */\n      revert\n        /* \"#utility.yul\":1494:1571   */\n    tag_293:\n        /* \"#utility.yul\":1531:1538   */\n      0x00\n        /* \"#utility.yul\":1560:1565   */\n      dup2\n        /* \"#utility.yul\":1549:1565   */\n      swap1\n      pop\n        /* \"#utility.yul\":1494:1571   */\n      swap2\n      swap1\n      pop\n      jump\t// out\n        /* \"#utility.yul\":1577:1699   */\n    tag_294:\n        /* \"#utility.yul\":1650:1674   */\n      tag_364\n        /* \"#utility.yul\":1668:1673   */\n      dup2\n        /* \"#utility.yul\":1650:1674   */\n      tag_293\n      jump\t// in\n    tag_364:\n        /* \"#utility.yul\":1643:1648   */\n      dup2\n        /* \"#utility.yul\":1640:1675   */\n      eq\n        /* \"#utility.yul\":1630:1693   */\n      tag_365\n      jumpi\n        /* \"#utility.yul\":1689:1690   */\n      0x00\n        /* \"#utility.yul\":1686:1687   */\n      dup1\n        /* \"#utility.yul\":1679:1691   */\n      revert\n        /* \"#utility.yul\":1630:1693   */\n    tag_365:\n        /* \"#utility.yul\":1577:1699   */\n      pop\n      jump\t// out\n        /* \"#utility.yul\":1705:1844   */\n    tag_295:\n        /* \"#utility.yul\":1751:1756   */\n      0x00\n        /* \"#utility.yul\":1789:1795   */\n      dup2\n        /* \"#utility.yul\":1776:1796   */\n      calldataload\n        /* \"#utility.yul\":1767:1796   */\n      swap1\n      pop\n        /* \"#utility.yul\":1805:1838   */\n      tag_367\n        /* \"#utility.yul\":1832:1837   */\n      dup2\n        /* \"#utility.yul\":1805:1838   */\n      tag_294\n      jump\t// in\n    tag_367:\n        /* \"#utility.yul\":1705:1844   */\n      swap3\n      swap2\n      pop\n      pop\n      jump\t// out\n        /* \"#utility.yul\":1850:2179   */\n    tag_25:\n        /* \"#utility.yul\":1909:1915   */\n      0x00\n        /* \"#utility.yul\":1958:1960   */\n      0x20\n        /* \"#utility.yul\":1946:1955   */\n      dup3\n        /* \"#utility.yul\":1937:1944   */\n      dup5\n        /* \"#utility.yul\":1933:1956   */\n      sub\n        /* \"#utility.yul\":1929:1961   */\n      slt\n        /* \"#utility.yul\":1926:2045   */\n      iszero\n      tag_369\n      jumpi\n        /* \"#utility.yul\":1964:2043   */\n      tag_370\n      tag_291\n      jump\t// in\n    tag_370:\n        /* \"#utility.yul\":1926:2045   */\n    tag_369:\n        /* \"#utility.yul\":2084:2085   */\n      0x00\n        /* \"#utility.yul\":2109:2162   */\n      tag_371\n        /* \"#utility.yul\":2154:2161   */\n      dup5\n        /* \"#utility.yul\":2145:2151   */\n      dup3\n        /* \"#utility.yul\":2134:2143   */\n      dup6\n        /* \"#utility.yul\":2130:2152   */\n      add\n        /* \"#utility.yul\":2109:2162   */\n      tag_295\n      jump\t// in\n    tag_371:\n        /* \"#utility.yul\":2099:2162   */\n      swap2\n      pop\n        /* \"#utility.yul\":2055:2172   */\n      pop\n        /* \"#utility.yul\":1850:2179   */\n      swap3\n      swap2\n      pop\n      pop\n      jump\t// out\n        /* \"#utility.yul\":2185:2311   */\n    tag_296:\n        /* \"#utility.yul\":2222:2229   */\n      0x00\n        /* \"#utility.yul\":2262:2304   */\n      0xffffffffffffffffffffffffffffffffffffffff\n        /* \"#utility.yul\":2255:2260   */\n      dup3\n        /* \"#utility.yul\":2251:2305   */\n      and\n        /* \"#utility.yul\":2240:2305   */\n      swap1\n      pop\n        /* \"#utility.yul\":2185:2311   */\n      swap2\n      swap1\n      pop\n      jump\t// out\n        /* \"#utility.yul\":2317:2413   */\n    tag_297:\n        /* \"#utility.yul\":2354:2361   */\n      0x00\n        /* \"#utility.yul\":2383:2407   */\n      tag_374\n        /* \"#utility.yul\":2401:2406   */\n      dup3\n        /* \"#utility.yul\":2383:2407   */\n      tag_296\n      jump\t// in\n    tag_374:\n        /* \"#utility.yul\":2372:2407   */\n      swap1\n      pop\n        /* \"#utility.yul\":2317:2413   */\n      swap2\n      swap1\n      pop\n      jump\t// out\n        /* \"#utility.yul\":2419:2537   */\n    tag_298:\n        /* \"#utility.yul\":2506:2530   */\n      tag_376\n        /* \"#utility.yul\":2524:2529   */\n      dup2\n        /* \"#utility.yul\":2506:2530   */\n      tag_297\n      jump\t// in\n    tag_376:\n        /* \"#utility.yul\":2501:2504   */\n      dup3\n        /* \"#utility.yul\":2494:2531   */\n      mstore\n        /* \"#utility.yul\":2419:2537   */\n      pop\n      pop\n      jump\t// out\n        /* \"#utility.yul\":2543:2765   */\n    tag_32:\n        /* \"#utility.yul\":2636:2640   */\n      0x00\n        /* \"#utility.yul\":2674:2676   */\n      0x20\n        /* \"#utility.yul\":2663:2672   */\n      dup3\n        /* \"#utility.yul\":2659:2677   */\n      add\n        /* \"#utility.yul\":2651:2677   */\n      swap1\n      pop\n        /* \"#utility.yul\":2687:2758   */\n      tag_378\n        /* \"#utility.yul\":2755:2756   */\n      0x00\n        /* \"#utility.yul\":2744:2753   */\n      dup4\n        /* \"#utility.yul\":2740:2757   */\n      add\n        /* \"#utility.yul\":2731:2737   */\n      dup5\n        /* \"#utility.yul\":2687:2758   */\n      tag_298\n      jump\t// in\n    tag_378:\n        /* \"#utility.yul\":2543:2765   */\n      swap3\n      swap2\n      pop\n      pop\n      jump\t// out\n        /* \"#utility.yul\":2771:2885   */\n    tag_299:\n        /* \"#utility.yul\":2838:2844   */\n      0x00\n        /* \"#utility.yul\":2872:2877   */\n      dup2\n        /* \"#utility.yul\":2866:2878   */\n      mload\n        /* \"#utility.yul\":2856:2878   */\n      swap1\n      pop\n        /* \"#utility.yul\":2771:2885   */\n      swap2\n      swap1\n      pop\n      jump\t// out\n        /* \"#utility.yul\":2891:3075   */\n    tag_300:\n        /* \"#utility.yul\":2990:3001   */\n      0x00\n        /* \"#utility.yul\":3024:3030   */\n      dup3\n        /* \"#utility.yul\":3019:3022   */\n      dup3\n        /* \"#utility.yul\":3012:3031   */\n      mstore\n        /* \"#utility.yul\":3064:3068   */\n      0x20\n        /* \"#utility.yul\":3059:3062   */\n      dup3\n        /* \"#utility.yul\":3055:3069   */\n      add\n        /* \"#utility.yul\":3040:3069   */\n      swap1\n      pop\n        /* \"#utility.yul\":2891:3075   */\n      swap3\n      swap2\n      pop\n      pop\n      jump\t// out\n        /* \"#utility.yul\":3081:3213   */\n    tag_301:\n        /* \"#utility.yul\":3148:3152   */\n      0x00\n        /* \"#utility.yul\":3171:3174   */\n      dup2\n        /* \"#utility.yul\":3163:3174   */\n      swap1\n      pop\n        /* \"#utility.yul\":3201:3205   */\n      0x20\n        /* \"#utility.yul\":3196:3199   */\n      dup3\n        /* \"#utility.yul\":3192:3206   */\n      add\n        /* \"#utility.yul\":3184:3206   */\n      swap1\n      pop\n        /* \"#utility.yul\":3081:3213   */\n      swap2\n      swap1\n      pop\n      jump\t// out\n        /* \"#utility.yul\":3219:3327   */\n    tag_302:\n        /* \"#utility.yul\":3296:3320   */\n      tag_383\n        /* \"#utility.yul\":3314:3319   */\n      dup2\n        /* \"#utility.yul\":3296:3320   */\n      tag_297\n      jump\t// in\n    tag_383:\n        /* \"#utility.yul\":3291:3294   */\n      dup3\n        /* \"#utility.yul\":3284:3321   */\n      mstore\n        /* \"#utility.yul\":3219:3327   */\n      pop\n      pop\n      jump\t// out\n        /* \"#utility.yul\":3333:3512   */\n    tag_303:\n        /* \"#utility.yul\":3402:3412   */\n      0x00\n        /* \"#utility.yul\":3423:3469   */\n      tag_385\n        /* \"#utility.yul\":3465:3468   */\n      dup4\n        /* \"#utility.yul\":3457:3463   */\n      dup4\n        /* \"#utility.yul\":3423:3469   */\n      tag_302\n      jump\t// in\n    tag_385:\n        /* \"#utility.yul\":3501:3505   */\n      0x20\n        /* \"#utility.yul\":3496:3499   */\n      dup4\n        /* \"#utility.yul\":3492:3506   */\n      add\n        /* \"#utility.yul\":3478:3506   */\n      swap1\n      pop\n        /* \"#utility.yul\":3333:3512   */\n      swap3\n      swap2\n      pop\n      pop\n      jump\t// out\n        /* \"#utility.yul\":3518:3631   */\n    tag_304:\n        /* \"#utility.yul\":3588:3592   */\n      0x00\n        /* \"#utility.yul\":3620:3624   */\n      0x20\n        /* \"#utility.yul\":3615:3618   */\n      dup3\n        /* \"#utility.yul\":3611:3625   */\n      add\n        /* \"#utility.yul\":3603:3625   */\n      swap1\n      pop\n        /* \"#utility.yul\":3518:3631   */\n      swap2\n      swap1\n      pop\n      jump\t// out\n        /* \"#utility.yul\":3667:4399   */\n    tag_305:\n        /* \"#utility.yul\":3786:3789   */\n      0x00\n        /* \"#utility.yul\":3815:3869   */\n      tag_388\n        /* \"#utility.yul\":3863:3868   */\n      dup3\n        /* \"#utility.yul\":3815:3869   */\n      tag_299\n      jump\t// in\n    tag_388:\n        /* \"#utility.yul\":3885:3971   */\n      tag_389\n        /* \"#utility.yul\":3964:3970   */\n      dup2\n        /* \"#utility.yul\":3959:3962   */\n      dup6\n        /* \"#utility.yul\":3885:3971   */\n      tag_300\n      jump\t// in\n    tag_389:\n        /* \"#utility.yul\":3878:3971   */\n      swap4\n      pop\n        /* \"#utility.yul\":3995:4051   */\n      tag_390\n        /* \"#utility.yul\":4045:4050   */\n      dup4\n        /* \"#utility.yul\":3995:4051   */\n      tag_301\n      jump\t// in\n    tag_390:\n        /* \"#utility.yul\":4074:4081   */\n      dup1\n        /* \"#utility.yul\":4105:4106   */\n      0x00\n        /* \"#utility.yul\":4090:4374   */\n    tag_391:\n        /* \"#utility.yul\":4115:4121   */\n      dup4\n        /* \"#utility.yul\":4112:4113   */\n      dup2\n        /* \"#utility.yul\":4109:4122   */\n      lt\n        /* \"#utility.yul\":4090:4374   */\n      iszero\n      tag_393\n      jumpi\n        /* \"#utility.yul\":4191:4197   */\n      dup2\n        /* \"#utility.yul\":4185:4198   */\n      mload\n        /* \"#utility.yul\":4218:4281   */\n      tag_394\n        /* \"#utility.yul\":4277:4280   */\n      dup9\n        /* \"#utility.yul\":4262:4275   */\n      dup3\n        /* \"#utility.yul\":4218:4281   */\n      tag_303\n      jump\t// in\n    tag_394:\n        /* \"#utility.yul\":4211:4281   */\n      swap8\n      pop\n        /* \"#utility.yul\":4304:4364   */\n      tag_395\n        /* \"#utility.yul\":4357:4363   */\n      dup4\n        /* \"#utility.yul\":4304:4364   */\n      tag_304\n      jump\t// in\n    tag_395:\n        /* \"#utility.yul\":4294:4364   */\n      swap3\n      pop\n        /* \"#utility.yul\":4150:4374   */\n      pop\n        /* \"#utility.yul\":4137:4138   */\n      0x01\n        /* \"#utility.yul\":4134:4135   */\n      dup2\n        /* \"#utility.yul\":4130:4139   */\n      add\n        /* \"#utility.yul\":4125:4139   */\n      swap1\n      pop\n        /* \"#utility.yul\":4090:4374   */\n      jump(tag_391)\n    tag_393:\n        /* \"#utility.yul\":4094:4108   */\n      pop\n        /* \"#utility.yul\":4390:4393   */\n      dup6\n        /* \"#utility.yul\":4383:4393   */\n      swap4\n      pop\n        /* \"#utility.yul\":3791:4399   */\n      pop\n      pop\n      pop\n        /* \"#utility.yul\":3667:4399   */\n      swap3\n      swap2\n      pop\n      pop\n      jump\t// out\n        /* \"#utility.yul\":4405:4778   */\n    tag_42:\n        /* \"#utility.yul\":4548:4552   */\n      0x00\n        /* \"#utility.yul\":4586:4588   */\n      0x20\n        /* \"#utility.yul\":4575:4584   */\n      dup3\n        /* \"#utility.yul\":4571:4589   */\n      add\n        /* \"#utility.yul\":4563:4589   */\n      swap1\n      pop\n        /* \"#utility.yul\":4635:4644   */\n      dup2\n        /* \"#utility.yul\":4629:4633   */\n      dup2\n        /* \"#utility.yul\":4625:4645   */\n      sub\n        /* \"#utility.yul\":4621:4622   */\n      0x00\n        /* \"#utility.yul\":4610:4619   */\n      dup4\n        /* \"#utility.yul\":4606:4623   */\n      add\n        /* \"#utility.yul\":4599:4646   */\n      mstore\n        /* \"#utility.yul\":4663:4771   */\n      tag_397\n        /* \"#utility.yul\":4766:4770   */\n      dup2\n        /* \"#utility.yul\":4757:4763   */\n      dup5\n        /* \"#utility.yul\":4663:4771   */\n      tag_305\n      jump\t// in\n    tag_397:\n        /* \"#utility.yul\":4655:4771   */\n      swap1\n      pop\n        /* \"#utility.yul\":4405:4778   */\n      swap3\n      swap2\n      pop\n      pop\n      jump\t// out\n        /* \"#utility.yul\":4784:4906   */\n    tag_306:\n        /* \"#utility.yul\":4857:4881   */\n      tag_399\n        /* \"#utility.yul\":4875:4880   */\n      dup2\n        /* \"#utility.yul\":4857:4881   */\n      tag_297\n      jump\t// in\n    tag_399:\n        /* \"#utility.yul\":4850:4855   */\n      dup2\n        /* \"#utility.yul\":4847:4882   */\n      eq\n        /* \"#utility.yul\":4837:4900   */\n      tag_400\n      jumpi\n        /* \"#utility.yul\":4896:4897   */\n      0x00\n        /* \"#utility.yul\":4893:4894   */\n      dup1\n        /* \"#utility.yul\":4886:4898   */\n      revert\n        /* \"#utility.yul\":4837:4900   */\n    tag_400:\n        /* \"#utility.yul\":4784:4906   */\n      pop\n      jump\t// out\n        /* \"#utility.yul\":4912:5051   */\n    tag_307:\n        /* \"#utility.yul\":4958:4963   */\n      0x00\n        /* \"#utility.yul\":4996:5002   */\n      dup2\n        /* \"#utility.yul\":4983:5003   */\n      calldataload\n        /* \"#utility.yul\":4974:5003   */\n      swap1\n      pop\n        /* \"#utility.yul\":5012:5045   */\n      tag_402\n        /* \"#utility.yul\":5039:5044   */\n      dup2\n        /* \"#utility.yul\":5012:5045   */\n      tag_306\n      jump\t// in\n    tag_402:\n        /* \"#utility.yul\":4912:5051   */\n      swap3\n      swap2\n      pop\n      pop\n      jump\t// out\n        /* \"#utility.yul\":5057:5386   */\n    tag_58:\n        /* \"#utility.yul\":5116:5122   */\n      0x00\n        /* \"#utility.yul\":5165:5167   */\n      0x20\n        /* \"#utility.yul\":5153:5162   */\n      dup3\n        /* \"#utility.yul\":5144:5151   */\n      dup5\n        /* \"#utility.yul\":5140:5163   */\n      sub\n        /* \"#utility.yul\":5136:5168   */\n      slt\n        /* \"#utility.yul\":5133:5252   */\n      iszero\n      tag_404\n      jumpi\n        /* \"#utility.yul\":5171:5250   */\n      tag_405\n      tag_291\n      jump\t// in\n    tag_405:\n        /* \"#utility.yul\":5133:5252   */\n    tag_404:\n        /* \"#utility.yul\":5291:5292   */\n      0x00\n        /* \"#utility.yul\":5316:5369   */\n      tag_406\n        /* \"#utility.yul\":5361:5368   */\n      dup5\n        /* \"#utility.yul\":5352:5358   */\n      dup3\n        /* \"#utility.yul\":5341:5350   */\n      dup6\n        /* \"#utility.yul\":5337:5359   */\n      add\n        /* \"#utility.yul\":5316:5369   */\n      tag_307\n      jump\t// in\n    tag_406:\n        /* \"#utility.yul\":5306:5369   */\n      swap2\n      pop\n        /* \"#utility.yul\":5262:5379   */\n      pop\n        /* \"#utility.yul\":5057:5386   */\n      swap3\n      swap2\n      pop\n      pop\n      jump\t// out\n        /* \"#utility.yul\":5392:5527   */\n    tag_308:\n        /* \"#utility.yul\":5480:5486   */\n      0x00\n        /* \"#utility.yul\":5514:5519   */\n      dup2\n        /* \"#utility.yul\":5508:5520   */\n      mload\n        /* \"#utility.yul\":5498:5520   */\n      swap1\n      pop\n        /* \"#utility.yul\":5392:5527   */\n      swap2\n      swap1\n      pop\n      jump\t// out\n        /* \"#utility.yul\":5533:5738   */\n    tag_309:\n        /* \"#utility.yul\":5653:5664   */\n      0x00\n        /* \"#utility.yul\":5687:5693   */\n      dup3\n        /* \"#utility.yul\":5682:5685   */\n      dup3\n        /* \"#utility.yul\":5675:5694   */\n      mstore\n        /* \"#utility.yul\":5727:5731   */\n      0x20\n        /* \"#utility.yul\":5722:5725   */\n      dup3\n        /* \"#utility.yul\":5718:5732   */\n      add\n        /* \"#utility.yul\":5703:5732   */\n      swap1\n      pop\n        /* \"#utility.yul\":5533:5738   */\n      swap3\n      swap2\n      pop\n      pop\n      jump\t// out\n        /* \"#utility.yul\":5744:5897   */\n    tag_310:\n        /* \"#utility.yul\":5832:5836   */\n      0x00\n        /* \"#utility.yul\":5855:5858   */\n      dup2\n        /* \"#utility.yul\":5847:5858   */\n      swap1\n      pop\n        /* \"#utility.yul\":5885:5889   */\n      0x20\n        /* \"#utility.yul\":5880:5883   */\n      dup3\n        /* \"#utility.yul\":5876:5890   */\n      add\n        /* \"#utility.yul\":5868:5890   */\n      swap1\n      pop\n        /* \"#utility.yul\":5744:5897   */\n      swap2\n      swap1\n      pop\n      jump\t// out\n        /* \"#utility.yul\":5903:5980   */\n    tag_311:\n        /* \"#utility.yul\":5940:5947   */\n      0x00\n        /* \"#utility.yul\":5969:5974   */\n      dup2\n        /* \"#utility.yul\":5958:5974   */\n      swap1\n      pop\n        /* \"#utility.yul\":5903:5980   */\n      swap2\n      swap1\n      pop\n      jump\t// out\n        /* \"#utility.yul\":5986:6094   */\n    tag_312:\n        /* \"#utility.yul\":6063:6087   */\n      tag_412\n        /* \"#utility.yul\":6081:6086   */\n      dup2\n        /* \"#utility.yul\":6063:6087   */\n      tag_311\n      jump\t// in\n    tag_412:\n        /* \"#utility.yul\":6058:6061   */\n      dup3\n        /* \"#utility.yul\":6051:6088   */\n      mstore\n        /* \"#utility.yul\":5986:6094   */\n      pop\n      pop\n      jump\t// out\n        /* \"#utility.yul\":6100:6280   */\n    tag_94:\n        /* \"#utility.yul\":6148:6225   */\n      0x4e487b7100000000000000000000000000000000000000000000000000000000\n        /* \"#utility.yul\":6145:6146   */\n      0x00\n        /* \"#utility.yul\":6138:6226   */\n      mstore\n        /* \"#utility.yul\":6245:6249   */\n      0x21\n        /* \"#utility.yul\":6242:6243   */\n      0x04\n        /* \"#utility.yul\":6235:6250   */\n      mstore\n        /* \"#utility.yul\":6269:6273   */\n      0x24\n        /* \"#utility.yul\":6266:6267   */\n      0x00\n        /* \"#utility.yul\":6259:6274   */\n      revert\n        /* \"#utility.yul\":6286:6405   */\n    tag_313:\n        /* \"#utility.yul\":6373:6374   */\n      0x03\n        /* \"#utility.yul\":6366:6371   */\n      dup2\n        /* \"#utility.yul\":6363:6375   */\n      lt\n        /* \"#utility.yul\":6353:6399   */\n      tag_415\n      jumpi\n        /* \"#utility.yul\":6379:6397   */\n      tag_416\n      tag_94\n      jump\t// in\n    tag_416:\n        /* \"#utility.yul\":6353:6399   */\n    tag_415:\n        /* \"#utility.yul\":6286:6405   */\n      pop\n      jump\t// out\n        /* \"#utility.yul\":6411:6550   */\n    tag_314:\n        /* \"#utility.yul\":6462:6469   */\n      0x00\n        /* \"#utility.yul\":6491:6496   */\n      dup2\n        /* \"#utility.yul\":6480:6496   */\n      swap1\n      pop\n        /* \"#utility.yul\":6497:6544   */\n      tag_418\n        /* \"#utility.yul\":6538:6543   */\n      dup3\n        /* \"#utility.yul\":6497:6544   */\n      tag_313\n      jump\t// in\n    tag_418:\n        /* \"#utility.yul\":6411:6550   */\n      swap2\n      swap1\n      pop\n      jump\t// out\n        /* \"#utility.yul\":6556:6695   */\n    tag_315:\n        /* \"#utility.yul\":6618:6627   */\n      0x00\n        /* \"#utility.yul\":6651:6689   */\n      tag_420\n        /* \"#utility.yul\":6683:6688   */\n      dup3\n        /* \"#utility.yul\":6651:6689   */\n      tag_314\n      jump\t// in\n    tag_420:\n        /* \"#utility.yul\":6638:6689   */\n      swap1\n      pop\n        /* \"#utility.yul\":6556:6695   */\n      swap2\n      swap1\n      pop\n      jump\t// out\n        /* \"#utility.yul\":6701:6846   */\n    tag_316:\n        /* \"#utility.yul\":6790:6839   */\n      tag_422\n        /* \"#utility.yul\":6833:6838   */\n      dup2\n        /* \"#utility.yul\":6790:6839   */\n      tag_315\n      jump\t// in\n    tag_422:\n        /* \"#utility.yul\":6785:6788   */\n      dup3\n        /* \"#utility.yul\":6778:6840   */\n      mstore\n        /* \"#utility.yul\":6701:6846   */\n      pop\n      pop\n      jump\t// out\n        /* \"#utility.yul\":6852:6975   */\n    tag_317:\n        /* \"#utility.yul\":6943:6944   */\n      0x02\n        /* \"#utility.yul\":6936:6941   */\n      dup2\n        /* \"#utility.yul\":6933:6945   */\n      lt\n        /* \"#utility.yul\":6923:6969   */\n      tag_424\n      jumpi\n        /* \"#utility.yul\":6949:6967   */\n      tag_425\n      tag_94\n      jump\t// in\n    tag_425:\n        /* \"#utility.yul\":6923:6969   */\n    tag_424:\n        /* \"#utility.yul\":6852:6975   */\n      pop\n      jump\t// out\n        /* \"#utility.yul\":6981:7128   */\n    tag_318:\n        /* \"#utility.yul\":7036:7043   */\n      0x00\n        /* \"#utility.yul\":7065:7070   */\n      dup2\n        /* \"#utility.yul\":7054:7070   */\n      swap1\n      pop\n        /* \"#utility.yul\":7071:7122   */\n      tag_427\n        /* \"#utility.yul\":7116:7121   */\n      dup3\n        /* \"#utility.yul\":7071:7122   */\n      tag_317\n      jump\t// in\n    tag_427:\n        /* \"#utility.yul\":6981:7128   */\n      swap2\n      swap1\n      pop\n      jump\t// out\n        /* \"#utility.yul\":7134:7281   */\n    tag_319:\n        /* \"#utility.yul\":7200:7209   */\n      0x00\n        /* \"#utility.yul\":7233:7275   */\n      tag_429\n        /* \"#utility.yul\":7269:7274   */\n      dup3\n        /* \"#utility.yul\":7233:7275   */\n      tag_318\n      jump\t// in\n    tag_429:\n        /* \"#utility.yul\":7220:7275   */\n      swap1\n      pop\n        /* \"#utility.yul\":7134:7281   */\n      swap2\n      swap1\n      pop\n      jump\t// out\n        /* \"#utility.yul\":7287:7440   */\n    tag_320:\n        /* \"#utility.yul\":7380:7433   */\n      tag_431\n        /* \"#utility.yul\":7427:7432   */\n      dup2\n        /* \"#utility.yul\":7380:7433   */\n      tag_319\n      jump\t// in\n    tag_431:\n        /* \"#utility.yul\":7375:7378   */\n      dup3\n        /* \"#utility.yul\":7368:7434   */\n      mstore\n        /* \"#utility.yul\":7287:7440   */\n      pop\n      pop\n      jump\t// out\n        /* \"#utility.yul\":7446:7547   */\n    tag_321:\n        /* \"#utility.yul\":7482:7489   */\n      0x00\n        /* \"#utility.yul\":7522:7540   */\n      0xffffffffffffffff\n        /* \"#utility.yul\":7515:7520   */\n      dup3\n        /* \"#utility.yul\":7511:7541   */\n      and\n        /* \"#utility.yul\":7500:7541   */\n      swap1\n      pop\n        /* \"#utility.yul\":7446:7547   */\n      swap2\n      swap1\n      pop\n      jump\t// out\n        /* \"#utility.yul\":7553:7658   */\n    tag_322:\n        /* \"#utility.yul\":7628:7651   */\n      tag_434\n        /* \"#utility.yul\":7645:7650   */\n      dup2\n        /* \"#utility.yul\":7628:7651   */\n      tag_321\n      jump\t// in\n    tag_434:\n        /* \"#utility.yul\":7623:7626   */\n      dup3\n        /* \"#utility.yul\":7616:7652   */\n      mstore\n        /* \"#utility.yul\":7553:7658   */\n      pop\n      pop\n      jump\t// out\n        /* \"#utility.yul\":7712:9324   */\n    tag_323:\n        /* \"#utility.yul\":7841:7847   */\n      0x0100\n        /* \"#utility.yul\":7836:7839   */\n      dup3\n        /* \"#utility.yul\":7832:7848   */\n      add\n        /* \"#utility.yul\":7933:7937   */\n      0x00\n        /* \"#utility.yul\":7926:7931   */\n      dup3\n        /* \"#utility.yul\":7922:7938   */\n      add\n        /* \"#utility.yul\":7916:7939   */\n      mload\n        /* \"#utility.yul\":7952:8015   */\n      tag_436\n        /* \"#utility.yul\":8009:8013   */\n      0x00\n        /* \"#utility.yul\":8004:8007   */\n      dup6\n        /* \"#utility.yul\":8000:8014   */\n      add\n        /* \"#utility.yul\":7986:7998   */\n      dup3\n        /* \"#utility.yul\":7952:8015   */\n      tag_302\n      jump\t// in\n    tag_436:\n        /* \"#utility.yul\":7858:8025   */\n      pop\n        /* \"#utility.yul\":8110:8114   */\n      0x20\n        /* \"#utility.yul\":8103:8108   */\n      dup3\n        /* \"#utility.yul\":8099:8115   */\n      add\n        /* \"#utility.yul\":8093:8116   */\n      mload\n        /* \"#utility.yul\":8129:8192   */\n      tag_437\n        /* \"#utility.yul\":8186:8190   */\n      0x20\n        /* \"#utility.yul\":8181:8184   */\n      dup6\n        /* \"#utility.yul\":8177:8191   */\n      add\n        /* \"#utility.yul\":8163:8175   */\n      dup3\n        /* \"#utility.yul\":8129:8192   */\n      tag_312\n      jump\t// in\n    tag_437:\n        /* \"#utility.yul\":8035:8202   */\n      pop\n        /* \"#utility.yul\":8286:8290   */\n      0x40\n        /* \"#utility.yul\":8279:8284   */\n      dup3\n        /* \"#utility.yul\":8275:8291   */\n      add\n        /* \"#utility.yul\":8269:8292   */\n      mload\n        /* \"#utility.yul\":8305:8380   */\n      tag_438\n        /* \"#utility.yul\":8374:8378   */\n      0x40\n        /* \"#utility.yul\":8369:8372   */\n      dup6\n        /* \"#utility.yul\":8365:8379   */\n      add\n        /* \"#utility.yul\":8351:8363   */\n      dup3\n        /* \"#utility.yul\":8305:8380   */\n      tag_316\n      jump\t// in\n    tag_438:\n        /* \"#utility.yul\":8212:8390   */\n      pop\n        /* \"#utility.yul\":8478:8482   */\n      0x60\n        /* \"#utility.yul\":8471:8476   */\n      dup3\n        /* \"#utility.yul\":8467:8483   */\n      add\n        /* \"#utility.yul\":8461:8484   */\n      mload\n        /* \"#utility.yul\":8497:8576   */\n      tag_439\n        /* \"#utility.yul\":8570:8574   */\n      0x60\n        /* \"#utility.yul\":8565:8568   */\n      dup6\n        /* \"#utility.yul\":8561:8575   */\n      add\n        /* \"#utility.yul\":8547:8559   */\n      dup3\n        /* \"#utility.yul\":8497:8576   */\n      tag_320\n      jump\t// in\n    tag_439:\n        /* \"#utility.yul\":8400:8586   */\n      pop\n        /* \"#utility.yul\":8678:8682   */\n      0x80\n        /* \"#utility.yul\":8671:8676   */\n      dup3\n        /* \"#utility.yul\":8667:8683   */\n      add\n        /* \"#utility.yul\":8661:8684   */\n      mload\n        /* \"#utility.yul\":8697:8760   */\n      tag_440\n        /* \"#utility.yul\":8754:8758   */\n      0x80\n        /* \"#utility.yul\":8749:8752   */\n      dup6\n        /* \"#utility.yul\":8745:8759   */\n      add\n        /* \"#utility.yul\":8731:8743   */\n      dup3\n        /* \"#utility.yul\":8697:8760   */\n      tag_312\n      jump\t// in\n    tag_440:\n        /* \"#utility.yul\":8596:8770   */\n      pop\n        /* \"#utility.yul\":8862:8866   */\n      0xa0\n        /* \"#utility.yul\":8855:8860   */\n      dup3\n        /* \"#utility.yul\":8851:8867   */\n      add\n        /* \"#utility.yul\":8845:8868   */\n      mload\n        /* \"#utility.yul\":8881:8944   */\n      tag_441\n        /* \"#utility.yul\":8938:8942   */\n      0xa0\n        /* \"#utility.yul\":8933:8936   */\n      dup6\n        /* \"#utility.yul\":8929:8943   */\n      add\n        /* \"#utility.yul\":8915:8927   */\n      dup3\n        /* \"#utility.yul\":8881:8944   */\n      tag_312\n      jump\t// in\n    tag_441:\n        /* \"#utility.yul\":8780:8954   */\n      pop\n        /* \"#utility.yul\":9048:9052   */\n      0xc0\n        /* \"#utility.yul\":9041:9046   */\n      dup3\n        /* \"#utility.yul\":9037:9053   */\n      add\n        /* \"#utility.yul\":9031:9054   */\n      mload\n        /* \"#utility.yul\":9067:9130   */\n      tag_442\n        /* \"#utility.yul\":9124:9128   */\n      0xc0\n        /* \"#utility.yul\":9119:9122   */\n      dup6\n        /* \"#utility.yul\":9115:9129   */\n      add\n        /* \"#utility.yul\":9101:9113   */\n      dup3\n        /* \"#utility.yul\":9067:9130   */\n      tag_312\n      jump\t// in\n    tag_442:\n        /* \"#utility.yul\":8964:9140   */\n      pop\n        /* \"#utility.yul\":9227:9231   */\n      0xe0\n        /* \"#utility.yul\":9220:9225   */\n      dup3\n        /* \"#utility.yul\":9216:9232   */\n      add\n        /* \"#utility.yul\":9210:9233   */\n      mload\n        /* \"#utility.yul\":9246:9307   */\n      tag_443\n        /* \"#utility.yul\":9301:9305   */\n      0xe0\n        /* \"#utility.yul\":9296:9299   */\n      dup6\n        /* \"#utility.yul\":9292:9306   */\n      add\n        /* \"#utility.yul\":9278:9290   */\n      dup3\n        /* \"#utility.yul\":9246:9307   */\n      tag_322\n      jump\t// in\n    tag_443:\n        /* \"#utility.yul\":9150:9317   */\n      pop\n        /* \"#utility.yul\":7810:9324   */\n      pop\n        /* \"#utility.yul\":7712:9324   */\n      pop\n      pop\n      jump\t// out\n        /* \"#utility.yul\":9330:9595   */\n    tag_324:\n        /* \"#utility.yul\":9441:9451   */\n      0x00\n        /* \"#utility.yul\":9462:9550   */\n      tag_445\n        /* \"#utility.yul\":9546:9549   */\n      dup4\n        /* \"#utility.yul\":9538:9544   */\n      dup4\n        /* \"#utility.yul\":9462:9550   */\n      tag_323\n      jump\t// in\n    tag_445:\n        /* \"#utility.yul\":9582:9588   */\n      0x0100\n        /* \"#utility.yul\":9577:9580   */\n      dup4\n        /* \"#utility.yul\":9573:9589   */\n      add\n        /* \"#utility.yul\":9559:9589   */\n      swap1\n      pop\n        /* \"#utility.yul\":9330:9595   */\n      swap3\n      swap2\n      pop\n      pop\n      jump\t// out\n        /* \"#utility.yul\":9601:9735   */\n    tag_325:\n        /* \"#utility.yul\":9692:9696   */\n      0x00\n        /* \"#utility.yul\":9724:9728   */\n      0x20\n        /* \"#utility.yul\":9719:9722   */\n      dup3\n        /* \"#utility.yul\":9715:9729   */\n      add\n        /* \"#utility.yul\":9707:9729   */\n      swap1\n      pop\n        /* \"#utility.yul\":9601:9735   */\n      swap2\n      swap1\n      pop\n      jump\t// out\n        /* \"#utility.yul\":9793:10693   */\n    tag_326:\n        /* \"#utility.yul\":9954:9957   */\n      0x00\n        /* \"#utility.yul\":9983:10058   */\n      tag_448\n        /* \"#utility.yul\":10052:10057   */\n      dup3\n        /* \"#utility.yul\":9983:10058   */\n      tag_308\n      jump\t// in\n    tag_448:\n        /* \"#utility.yul\":10074:10181   */\n      tag_449\n        /* \"#utility.yul\":10174:10180   */\n      dup2\n        /* \"#utility.yul\":10169:10172   */\n      dup6\n        /* \"#utility.yul\":10074:10181   */\n      tag_309\n      jump\t// in\n    tag_449:\n        /* \"#utility.yul\":10067:10181   */\n      swap4\n      pop\n        /* \"#utility.yul\":10205:10282   */\n      tag_450\n        /* \"#utility.yul\":10276:10281   */\n      dup4\n        /* \"#utility.yul\":10205:10282   */\n      tag_310\n      jump\t// in\n    tag_450:\n        /* \"#utility.yul\":10305:10312   */\n      dup1\n        /* \"#utility.yul\":10336:10337   */\n      0x00\n        /* \"#utility.yul\":10321:10668   */\n    tag_451:\n        /* \"#utility.yul\":10346:10352   */\n      dup4\n        /* \"#utility.yul\":10343:10344   */\n      dup2\n        /* \"#utility.yul\":10340:10353   */\n      lt\n        /* \"#utility.yul\":10321:10668   */\n      iszero\n      tag_453\n      jumpi\n        /* \"#utility.yul\":10422:10428   */\n      dup2\n        /* \"#utility.yul\":10416:10429   */\n      mload\n        /* \"#utility.yul\":10449:10554   */\n      tag_454\n        /* \"#utility.yul\":10550:10553   */\n      dup9\n        /* \"#utility.yul\":10535:10548   */\n      dup3\n        /* \"#utility.yul\":10449:10554   */\n      tag_324\n      jump\t// in\n    tag_454:\n        /* \"#utility.yul\":10442:10554   */\n      swap8\n      pop\n        /* \"#utility.yul\":10577:10658   */\n      tag_455\n        /* \"#utility.yul\":10651:10657   */\n      dup4\n        /* \"#utility.yul\":10577:10658   */\n      tag_325\n      jump\t// in\n    tag_455:\n        /* \"#utility.yul\":10567:10658   */\n      swap3\n      pop\n        /* \"#utility.yul\":10381:10668   */\n      pop\n        /* \"#utility.yul\":10368:10369   */\n      0x01\n        /* \"#utility.yul\":10365:10366   */\n      dup2\n        /* \"#utility.yul\":10361:10370   */\n      add\n        /* \"#utility.yul\":10356:10370   */\n      swap1\n      pop\n        /* \"#utility.yul\":10321:10668   */\n      jump(tag_451)\n    tag_453:\n        /* \"#utility.yul\":10325:10339   */\n      pop\n        /* \"#utility.yul\":10684:10687   */\n      dup6\n        /* \"#utility.yul\":10677:10687   */\n      swap4\n      pop\n        /* \"#utility.yul\":9959:10693   */\n      pop\n      pop\n      pop\n        /* \"#utility.yul\":9793:10693   */\n      swap3\n      swap2\n      pop\n      pop\n      jump\t// out\n        /* \"#utility.yul\":10699:10813   */\n    tag_327:\n        /* \"#utility.yul\":10766:10772   */\n      0x00\n        /* \"#utility.yul\":10800:10805   */\n      dup2\n        /* \"#utility.yul\":10794:10806   */\n      mload\n        /* \"#utility.yul\":10784:10806   */\n      swap1\n      pop\n        /* \"#utility.yul\":10699:10813   */\n      swap2\n      swap1\n      pop\n      jump\t// out\n        /* \"#utility.yul\":10819:11003   */\n    tag_328:\n        /* \"#utility.yul\":10918:10929   */\n      0x00\n        /* \"#utility.yul\":10952:10958   */\n      dup3\n        /* \"#utility.yul\":10947:10950   */\n      dup3\n        /* \"#utility.yul\":10940:10959   */\n      mstore\n        /* \"#utility.yul\":10992:10996   */\n      0x20\n        /* \"#utility.yul\":10987:10990   */\n      dup3\n        /* \"#utility.yul\":10983:10997   */\n      add\n        /* \"#utility.yul\":10968:10997   */\n      swap1\n      pop\n        /* \"#utility.yul\":10819:11003   */\n      swap3\n      swap2\n      pop\n      pop\n      jump\t// out\n        /* \"#utility.yul\":11009:11141   */\n    tag_329:\n        /* \"#utility.yul\":11076:11080   */\n      0x00\n        /* \"#utility.yul\":11099:11102   */\n      dup2\n        /* \"#utility.yul\":11091:11102   */\n      swap1\n      pop\n        /* \"#utility.yul\":11129:11133   */\n      0x20\n        /* \"#utility.yul\":11124:11127   */\n      dup3\n        /* \"#utility.yul\":11120:11134   */\n      add\n        /* \"#utility.yul\":11112:11134   */\n      swap1\n      pop\n        /* \"#utility.yul\":11009:11141   */\n      swap2\n      swap1\n      pop\n      jump\t// out\n        /* \"#utility.yul\":11147:11255   */\n    tag_330:\n        /* \"#utility.yul\":11224:11248   */\n      tag_460\n        /* \"#utility.yul\":11242:11247   */\n      dup2\n        /* \"#utility.yul\":11224:11248   */\n      tag_293\n      jump\t// in\n    tag_460:\n        /* \"#utility.yul\":11219:11222   */\n      dup3\n        /* \"#utility.yul\":11212:11249   */\n      mstore\n        /* \"#utility.yul\":11147:11255   */\n      pop\n      pop\n      jump\t// out\n        /* \"#utility.yul\":11261:11440   */\n    tag_331:\n        /* \"#utility.yul\":11330:11340   */\n      0x00\n        /* \"#utility.yul\":11351:11397   */\n      tag_462\n        /* \"#utility.yul\":11393:11396   */\n      dup4\n        /* \"#utility.yul\":11385:11391   */\n      dup4\n        /* \"#utility.yul\":11351:11397   */\n      tag_330\n      jump\t// in\n    tag_462:\n        /* \"#utility.yul\":11429:11433   */\n      0x20\n        /* \"#utility.yul\":11424:11427   */\n      dup4\n        /* \"#utility.yul\":11420:11434   */\n      add\n        /* \"#utility.yul\":11406:11434   */\n      swap1\n      pop\n        /* \"#utility.yul\":11261:11440   */\n      swap3\n      swap2\n      pop\n      pop\n      jump\t// out\n        /* \"#utility.yul\":11446:11559   */\n    tag_332:\n        /* \"#utility.yul\":11516:11520   */\n      0x00\n        /* \"#utility.yul\":11548:11552   */\n      0x20\n        /* \"#utility.yul\":11543:11546   */\n      dup3\n        /* \"#utility.yul\":11539:11553   */\n      add\n        /* \"#utility.yul\":11531:11553   */\n      swap1\n      pop\n        /* \"#utility.yul\":11446:11559   */\n      swap2\n      swap1\n      pop\n      jump\t// out\n        /* \"#utility.yul\":11595:12327   */\n    tag_333:\n        /* \"#utility.yul\":11714:11717   */\n      0x00\n        /* \"#utility.yul\":11743:11797   */\n      tag_465\n        /* \"#utility.yul\":11791:11796   */\n      dup3\n        /* \"#utility.yul\":11743:11797   */\n      tag_327\n      jump\t// in\n    tag_465:\n        /* \"#utility.yul\":11813:11899   */\n      tag_466\n        /* \"#utility.yul\":11892:11898   */\n      dup2\n        /* \"#utility.yul\":11887:11890   */\n      dup6\n        /* \"#utility.yul\":11813:11899   */\n      tag_328\n      jump\t// in\n    tag_466:\n        /* \"#utility.yul\":11806:11899   */\n      swap4\n      pop\n        /* \"#utility.yul\":11923:11979   */\n      tag_467\n        /* \"#utility.yul\":11973:11978   */\n      dup4\n        /* \"#utility.yul\":11923:11979   */\n      tag_329\n      jump\t// in\n    tag_467:\n        /* \"#utility.yul\":12002:12009   */\n      dup1\n        /* \"#utility.yul\":12033:12034   */\n      0x00\n        /* \"#utility.yul\":12018:12302   */\n    tag_468:\n        /* \"#utility.yul\":12043:12049   */\n      dup4\n        /* \"#utility.yul\":12040:12041   */\n      dup2\n        /* \"#utility.yul\":12037:12050   */\n      lt\n        /* \"#utility.yul\":12018:12302   */\n      iszero\n      tag_470\n      jumpi\n        /* \"#utility.yul\":12119:12125   */\n      dup2\n        /* \"#utility.yul\":12113:12126   */\n      mload\n        /* \"#utility.yul\":12146:12209   */\n      tag_471\n        /* \"#utility.yul\":12205:12208   */\n      dup9\n        /* \"#utility.yul\":12190:12203   */\n      dup3\n        /* \"#utility.yul\":12146:12209   */\n      tag_331\n      jump\t// in\n    tag_471:\n        /* \"#utility.yul\":12139:12209   */\n      swap8\n      pop\n        /* \"#utility.yul\":12232:12292   */\n      tag_472\n        /* \"#utility.yul\":12285:12291   */\n      dup4\n        /* \"#utility.yul\":12232:12292   */\n      tag_332\n      jump\t// in\n    tag_472:\n        /* \"#utility.yul\":12222:12292   */\n      swap3\n      pop\n        /* \"#utility.yul\":12078:12302   */\n      pop\n        /* \"#utility.yul\":12065:12066   */\n      0x01\n        /* \"#utility.yul\":12062:12063   */\n      dup2\n        /* \"#utility.yul\":12058:12067   */\n      add\n        /* \"#utility.yul\":12053:12067   */\n      swap1\n      pop\n        /* \"#utility.yul\":12018:12302   */\n      jump(tag_468)\n    tag_470:\n        /* \"#utility.yul\":12022:12036   */\n      pop\n        /* \"#utility.yul\":12318:12321   */\n      dup6\n        /* \"#utility.yul\":12311:12321   */\n      swap4\n      pop\n        /* \"#utility.yul\":11719:12327   */\n      pop\n      pop\n      pop\n        /* \"#utility.yul\":11595:12327   */\n      swap3\n      swap2\n      pop\n      pop\n      jump\t// out\n        /* \"#utility.yul\":12333:13051   */\n    tag_61:\n        /* \"#utility.yul\":12596:12600   */\n      0x00\n        /* \"#utility.yul\":12634:12636   */\n      0x40\n        /* \"#utility.yul\":12623:12632   */\n      dup3\n        /* \"#utility.yul\":12619:12637   */\n      add\n        /* \"#utility.yul\":12611:12637   */\n      swap1\n      pop\n        /* \"#utility.yul\":12683:12692   */\n      dup2\n        /* \"#utility.yul\":12677:12681   */\n      dup2\n        /* \"#utility.yul\":12673:12693   */\n      sub\n        /* \"#utility.yul\":12669:12670   */\n      0x00\n        /* \"#utility.yul\":12658:12667   */\n      dup4\n        /* \"#utility.yul\":12654:12671   */\n      add\n        /* \"#utility.yul\":12647:12694   */\n      mstore\n        /* \"#utility.yul\":12711:12861   */\n      tag_474\n        /* \"#utility.yul\":12856:12860   */\n      dup2\n        /* \"#utility.yul\":12847:12853   */\n      dup6\n        /* \"#utility.yul\":12711:12861   */\n      tag_326\n      jump\t// in\n    tag_474:\n        /* \"#utility.yul\":12703:12861   */\n      swap1\n      pop\n        /* \"#utility.yul\":12908:12917   */\n      dup2\n        /* \"#utility.yul\":12902:12906   */\n      dup2\n        /* \"#utility.yul\":12898:12918   */\n      sub\n        /* \"#utility.yul\":12893:12895   */\n      0x20\n        /* \"#utility.yul\":12882:12891   */\n      dup4\n        /* \"#utility.yul\":12878:12896   */\n      add\n        /* \"#utility.yul\":12871:12919   */\n      mstore\n        /* \"#utility.yul\":12936:13044   */\n      tag_475\n        /* \"#utility.yul\":13039:13043   */\n      dup2\n        /* \"#utility.yul\":13030:13036   */\n      dup5\n        /* \"#utility.yul\":12936:13044   */\n      tag_333\n      jump\t// in\n    tag_475:\n        /* \"#utility.yul\":12928:13044   */\n      swap1\n      pop\n        /* \"#utility.yul\":12333:13051   */\n      swap4\n      swap3\n      pop\n      pop\n      pop\n      jump\t// out\n        /* \"#utility.yul\":13057:13179   */\n    tag_334:\n        /* \"#utility.yul\":13130:13154   */\n      tag_477\n        /* \"#utility.yul\":13148:13153   */\n      dup2\n        /* \"#utility.yul\":13130:13154   */\n      tag_311\n      jump\t// in\n    tag_477:\n        /* \"#utility.yul\":13123:13128   */\n      dup2\n        /* \"#utility.yul\":13120:13155   */\n      eq\n        /* \"#utility.yul\":13110:13173   */\n      tag_478\n      jumpi\n        /* \"#utility.yul\":13169:13170   */\n      0x00\n        /* \"#utility.yul\":13166:13167   */\n      dup1\n        /* \"#utility.yul\":13159:13171   */\n      revert\n        /* \"#utility.yul\":13110:13173   */\n    tag_478:\n        /* \"#utility.yul\":13057:13179   */\n      pop\n      jump\t// out\n        /* \"#utility.yul\":13185:13324   */\n    tag_335:\n        /* \"#utility.yul\":13231:13236   */\n      0x00\n        /* \"#utility.yul\":13269:13275   */\n      dup2\n        /* \"#utility.yul\":13256:13276   */\n      calldataload\n        /* \"#utility.yul\":13247:13276   */\n      swap1\n      pop\n        /* \"#utility.yul\":13285:13318   */\n      tag_480\n        /* \"#utility.yul\":13312:13317   */\n      dup2\n        /* \"#utility.yul\":13285:13318   */\n      tag_334\n      jump\t// in\n    tag_480:\n        /* \"#utility.yul\":13185:13324   */\n      swap3\n      swap2\n      pop\n      pop\n      jump\t// out\n        /* \"#utility.yul\":13330:13949   */\n    tag_67:\n        /* \"#utility.yul\":13407:13413   */\n      0x00\n        /* \"#utility.yul\":13415:13421   */\n      dup1\n        /* \"#utility.yul\":13423:13429   */\n      0x00\n        /* \"#utility.yul\":13472:13474   */\n      0x60\n        /* \"#utility.yul\":13460:13469   */\n      dup5\n        /* \"#utility.yul\":13451:13458   */\n      dup7\n        /* \"#utility.yul\":13447:13470   */\n      sub\n        /* \"#utility.yul\":13443:13475   */\n      slt\n        /* \"#utility.yul\":13440:13559   */\n      iszero\n      tag_482\n      jumpi\n        /* \"#utility.yul\":13478:13557   */\n      tag_483\n      tag_291\n      jump\t// in\n    tag_483:\n        /* \"#utility.yul\":13440:13559   */\n    tag_482:\n        /* \"#utility.yul\":13598:13599   */\n      0x00\n        /* \"#utility.yul\":13623:13676   */\n      tag_484\n        /* \"#utility.yul\":13668:13675   */\n      dup7\n        /* \"#utility.yul\":13659:13665   */\n      dup3\n        /* \"#utility.yul\":13648:13657   */\n      dup8\n        /* \"#utility.yul\":13644:13666   */\n      add\n        /* \"#utility.yul\":13623:13676   */\n      tag_335\n      jump\t// in\n    tag_484:\n        /* \"#utility.yul\":13613:13676   */\n      swap4\n      pop\n        /* \"#utility.yul\":13569:13686   */\n      pop\n        /* \"#utility.yul\":13725:13727   */\n      0x20\n        /* \"#utility.yul\":13751:13804   */\n      tag_485\n        /* \"#utility.yul\":13796:13803   */\n      dup7\n        /* \"#utility.yul\":13787:13793   */\n      dup3\n        /* \"#utility.yul\":13776:13785   */\n      dup8\n        /* \"#utility.yul\":13772:13794   */\n      add\n        /* \"#utility.yul\":13751:13804   */\n      tag_335\n      jump\t// in\n    tag_485:\n        /* \"#utility.yul\":13741:13804   */\n      swap3\n      pop\n        /* \"#utility.yul\":13696:13814   */\n      pop\n        /* \"#utility.yul\":13853:13855   */\n      0x40\n        /* \"#utility.yul\":13879:13932   */\n      tag_486\n        /* \"#utility.yul\":13924:13931   */\n      dup7\n        /* \"#utility.yul\":13915:13921   */\n      dup3\n        /* \"#utility.yul\":13904:13913   */\n      dup8\n        /* \"#utility.yul\":13900:13922   */\n      add\n        /* \"#utility.yul\":13879:13932   */\n      tag_295\n      jump\t// in\n    tag_486:\n        /* \"#utility.yul\":13869:13932   */\n      swap2\n      pop\n        /* \"#utility.yul\":13824:13942   */\n      pop\n        /* \"#utility.yul\":13330:13949   */\n      swap3\n      pop\n      swap3\n      pop\n      swap3\n      jump\t// out\n        /* \"#utility.yul\":13955:14429   */\n    tag_72:\n        /* \"#utility.yul\":14023:14029   */\n      0x00\n        /* \"#utility.yul\":14031:14037   */\n      dup1\n        /* \"#utility.yul\":14080:14082   */\n      0x40\n        /* \"#utility.yul\":14068:14077   */\n      dup4\n        /* \"#utility.yul\":14059:14066   */\n      dup6\n        /* \"#utility.yul\":14055:14078   */\n      sub\n        /* \"#utility.yul\":14051:14083   */\n      slt\n        /* \"#utility.yul\":14048:14167   */\n      iszero\n      tag_488\n      jumpi\n        /* \"#utility.yul\":14086:14165   */\n      tag_489\n      tag_291\n      jump\t// in\n    tag_489:\n        /* \"#utility.yul\":14048:14167   */\n    tag_488:\n        /* \"#utility.yul\":14206:14207   */\n      0x00\n        /* \"#utility.yul\":14231:14284   */\n      tag_490\n        /* \"#utility.yul\":14276:14283   */\n      dup6\n        /* \"#utility.yul\":14267:14273   */\n      dup3\n        /* \"#utility.yul\":14256:14265   */\n      dup7\n        /* \"#utility.yul\":14252:14274   */\n      add\n        /* \"#utility.yul\":14231:14284   */\n      tag_295\n      jump\t// in\n    tag_490:\n        /* \"#utility.yul\":14221:14284   */\n      swap3\n      pop\n        /* \"#utility.yul\":14177:14294   */\n      pop\n        /* \"#utility.yul\":14333:14335   */\n      0x20\n        /* \"#utility.yul\":14359:14412   */\n      tag_491\n        /* \"#utility.yul\":14404:14411   */\n      dup6\n        /* \"#utility.yul\":14395:14401   */\n      dup3\n        /* \"#utility.yul\":14384:14393   */\n      dup7\n        /* \"#utility.yul\":14380:14402   */\n      add\n        /* \"#utility.yul\":14359:14412   */\n      tag_307\n      jump\t// in\n    tag_491:\n        /* \"#utility.yul\":14349:14412   */\n      swap2\n      pop\n        /* \"#utility.yul\":14304:14422   */\n      pop\n        /* \"#utility.yul\":13955:14429   */\n      swap3\n      pop\n      swap3\n      swap1\n      pop\n      jump\t// out\n        /* \"#utility.yul\":14435:14553   */\n    tag_336:\n        /* \"#utility.yul\":14522:14546   */\n      tag_493\n        /* \"#utility.yul\":14540:14545   */\n      dup2\n        /* \"#utility.yul\":14522:14546   */\n      tag_311\n      jump\t// in\n    tag_493:\n        /* \"#utility.yul\":14517:14520   */\n      dup3\n        /* \"#utility.yul\":14510:14547   */\n      mstore\n        /* \"#utility.yul\":14435:14553   */\n      pop\n      pop\n      jump\t// out\n        /* \"#utility.yul\":14559:14714   */\n    tag_337:\n        /* \"#utility.yul\":14658:14707   */\n      tag_495\n        /* \"#utility.yul\":14701:14706   */\n      dup2\n        /* \"#utility.yul\":14658:14707   */\n      tag_315\n      jump\t// in\n    tag_495:\n        /* \"#utility.yul\":14653:14656   */\n      dup3\n        /* \"#utility.yul\":14646:14708   */\n      mstore\n        /* \"#utility.yul\":14559:14714   */\n      pop\n      pop\n      jump\t// out\n        /* \"#utility.yul\":14720:14883   */\n    tag_338:\n        /* \"#utility.yul\":14823:14876   */\n      tag_497\n        /* \"#utility.yul\":14870:14875   */\n      dup2\n        /* \"#utility.yul\":14823:14876   */\n      tag_319\n      jump\t// in\n    tag_497:\n        /* \"#utility.yul\":14818:14821   */\n      dup3\n        /* \"#utility.yul\":14811:14877   */\n      mstore\n        /* \"#utility.yul\":14720:14883   */\n      pop\n      pop\n      jump\t// out\n        /* \"#utility.yul\":14889:15004   */\n    tag_339:\n        /* \"#utility.yul\":14974:14997   */\n      tag_499\n        /* \"#utility.yul\":14991:14996   */\n      dup2\n        /* \"#utility.yul\":14974:14997   */\n      tag_321\n      jump\t// in\n    tag_499:\n        /* \"#utility.yul\":14969:14972   */\n      dup3\n        /* \"#utility.yul\":14962:14998   */\n      mstore\n        /* \"#utility.yul\":14889:15004   */\n      pop\n      pop\n      jump\t// out\n        /* \"#utility.yul\":15010:16059   */\n    tag_79:\n        /* \"#utility.yul\":15325:15329   */\n      0x00\n        /* \"#utility.yul\":15363:15366   */\n      0x0100\n        /* \"#utility.yul\":15352:15361   */\n      dup3\n        /* \"#utility.yul\":15348:15367   */\n      add\n        /* \"#utility.yul\":15340:15367   */\n      swap1\n      pop\n        /* \"#utility.yul\":15377:15448   */\n      tag_501\n        /* \"#utility.yul\":15445:15446   */\n      0x00\n        /* \"#utility.yul\":15434:15443   */\n      dup4\n        /* \"#utility.yul\":15430:15447   */\n      add\n        /* \"#utility.yul\":15421:15427   */\n      dup12\n        /* \"#utility.yul\":15377:15448   */\n      tag_298\n      jump\t// in\n    tag_501:\n        /* \"#utility.yul\":15458:15530   */\n      tag_502\n        /* \"#utility.yul\":15526:15528   */\n      0x20\n        /* \"#utility.yul\":15515:15524   */\n      dup4\n        /* \"#utility.yul\":15511:15529   */\n      add\n        /* \"#utility.yul\":15502:15508   */\n      dup11\n        /* \"#utility.yul\":15458:15530   */\n      tag_336\n      jump\t// in\n    tag_502:\n        /* \"#utility.yul\":15540:15624   */\n      tag_503\n        /* \"#utility.yul\":15620:15622   */\n      0x40\n        /* \"#utility.yul\":15609:15618   */\n      dup4\n        /* \"#utility.yul\":15605:15623   */\n      add\n        /* \"#utility.yul\":15596:15602   */\n      dup10\n        /* \"#utility.yul\":15540:15624   */\n      tag_337\n      jump\t// in\n    tag_503:\n        /* \"#utility.yul\":15634:15722   */\n      tag_504\n        /* \"#utility.yul\":15718:15720   */\n      0x60\n        /* \"#utility.yul\":15707:15716   */\n      dup4\n        /* \"#utility.yul\":15703:15721   */\n      add\n        /* \"#utility.yul\":15694:15700   */\n      dup9\n        /* \"#utility.yul\":15634:15722   */\n      tag_338\n      jump\t// in\n    tag_504:\n        /* \"#utility.yul\":15732:15805   */\n      tag_505\n        /* \"#utility.yul\":15800:15803   */\n      0x80\n        /* \"#utility.yul\":15789:15798   */\n      dup4\n        /* \"#utility.yul\":15785:15804   */\n      add\n        /* \"#utility.yul\":15776:15782   */\n      dup8\n        /* \"#utility.yul\":15732:15805   */\n      tag_336\n      jump\t// in\n    tag_505:\n        /* \"#utility.yul\":15815:15888   */\n      tag_506\n        /* \"#utility.yul\":15883:15886   */\n      0xa0\n        /* \"#utility.yul\":15872:15881   */\n      dup4\n        /* \"#utility.yul\":15868:15887   */\n      add\n        /* \"#utility.yul\":15859:15865   */\n      dup7\n        /* \"#utility.yul\":15815:15888   */\n      tag_336\n      jump\t// in\n    tag_506:\n        /* \"#utility.yul\":15898:15971   */\n      tag_507\n        /* \"#utility.yul\":15966:15969   */\n      0xc0\n        /* \"#utility.yul\":15955:15964   */\n      dup4\n        /* \"#utility.yul\":15951:15970   */\n      add\n        /* \"#utility.yul\":15942:15948   */\n      dup6\n        /* \"#utility.yul\":15898:15971   */\n      tag_336\n      jump\t// in\n    tag_507:\n        /* \"#utility.yul\":15981:16052   */\n      tag_508\n        /* \"#utility.yul\":16047:16050   */\n      0xe0\n        /* \"#utility.yul\":16036:16045   */\n      dup4\n        /* \"#utility.yul\":16032:16051   */\n      add\n        /* \"#utility.yul\":16023:16029   */\n      dup5\n        /* \"#utility.yul\":15981:16052   */\n      tag_339\n      jump\t// in\n    tag_508:\n        /* \"#utility.yul\":15010:16059   */\n      swap10\n      swap9\n      pop\n      pop\n      pop\n      pop\n      pop\n      pop\n      pop\n      pop\n      pop\n      jump\t// out\n        /* \"#utility.yul\":16065:16438   */\n    tag_85:\n        /* \"#utility.yul\":16208:16212   */\n      0x00\n        /* \"#utility.yul\":16246:16248   */\n      0x20\n        /* \"#utility.yul\":16235:16244   */\n      dup3\n        /* \"#utility.yul\":16231:16249   */\n      add\n        /* \"#utility.yul\":16223:16249   */\n      swap1\n      pop\n        /* \"#utility.yul\":16295:16304   */\n      dup2\n        /* \"#utility.yul\":16289:16293   */\n      dup2\n        /* \"#utility.yul\":16285:16305   */\n      sub\n        /* \"#utility.yul\":16281:16282   */\n      0x00\n        /* \"#utility.yul\":16270:16279   */\n      dup4\n        /* \"#utility.yul\":16266:16283   */\n      add\n        /* \"#utility.yul\":16259:16306   */\n      mstore\n        /* \"#utility.yul\":16323:16431   */\n      tag_510\n        /* \"#utility.yul\":16426:16430   */\n      dup2\n        /* \"#utility.yul\":16417:16423   */\n      dup5\n        /* \"#utility.yul\":16323:16431   */\n      tag_333\n      jump\t// in\n    tag_510:\n        /* \"#utility.yul\":16315:16431   */\n      swap1\n      pop\n        /* \"#utility.yul\":16065:16438   */\n      swap3\n      swap2\n      pop\n      pop\n      jump\t// out\n        /* \"#utility.yul\":16444:16562   */\n    tag_340:\n        /* \"#utility.yul\":16531:16555   */\n      tag_512\n        /* \"#utility.yul\":16549:16554   */\n      dup2\n        /* \"#utility.yul\":16531:16555   */\n      tag_293\n      jump\t// in\n    tag_512:\n        /* \"#utility.yul\":16526:16529   */\n      dup3\n        /* \"#utility.yul\":16519:16556   */\n      mstore\n        /* \"#utility.yul\":16444:16562   */\n      pop\n      pop\n      jump\t// out\n        /* \"#utility.yul\":16568:16790   */\n    tag_91:\n        /* \"#utility.yul\":16661:16665   */\n      0x00\n        /* \"#utility.yul\":16699:16701   */\n      0x20\n        /* \"#utility.yul\":16688:16697   */\n      dup3\n        /* \"#utility.yul\":16684:16702   */\n      add\n        /* \"#utility.yul\":16676:16702   */\n      swap1\n      pop\n        /* \"#utility.yul\":16712:16783   */\n      tag_514\n        /* \"#utility.yul\":16780:16781   */\n      0x00\n        /* \"#utility.yul\":16769:16778   */\n      dup4\n        /* \"#utility.yul\":16765:16782   */\n      add\n        /* \"#utility.yul\":16756:16762   */\n      dup5\n        /* \"#utility.yul\":16712:16783   */\n      tag_340\n      jump\t// in\n    tag_514:\n        /* \"#utility.yul\":16568:16790   */\n      swap3\n      swap2\n      pop\n      pop\n      jump\t// out\n        /* \"#utility.yul\":16796:16976   */\n    tag_341:\n        /* \"#utility.yul\":16844:16921   */\n      0x4e487b7100000000000000000000000000000000000000000000000000000000\n        /* \"#utility.yul\":16841:16842   */\n      0x00\n        /* \"#utility.yul\":16834:16922   */\n      mstore\n        /* \"#utility.yul\":16941:16945   */\n      0x11\n        /* \"#utility.yul\":16938:16939   */\n      0x04\n        /* \"#utility.yul\":16931:16946   */\n      mstore\n        /* \"#utility.yul\":16965:16969   */\n      0x24\n        /* \"#utility.yul\":16962:16963   */\n      0x00\n        /* \"#utility.yul\":16955:16970   */\n      revert\n        /* \"#utility.yul\":16982:17153   */\n    tag_102:\n        /* \"#utility.yul\":17021:17024   */\n      0x00\n        /* \"#utility.yul\":17044:17068   */\n      tag_517\n        /* \"#utility.yul\":17062:17067   */\n      dup3\n        /* \"#utility.yul\":17044:17068   */\n      tag_311\n      jump\t// in\n    tag_517:\n        /* \"#utility.yul\":17035:17068   */\n      swap2\n      pop\n        /* \"#utility.yul\":17090:17094   */\n      0x00\n        /* \"#utility.yul\":17083:17088   */\n      dup3\n        /* \"#utility.yul\":17080:17095   */\n      sub\n        /* \"#utility.yul\":17077:17118   */\n      tag_518\n      jumpi\n        /* \"#utility.yul\":17098:17116   */\n      tag_519\n      tag_341\n      jump\t// in\n    tag_519:\n        /* \"#utility.yul\":17077:17118   */\n    tag_518:\n        /* \"#utility.yul\":17145:17146   */\n      0x01\n        /* \"#utility.yul\":17138:17143   */\n      dup3\n        /* \"#utility.yul\":17134:17147   */\n      sub\n        /* \"#utility.yul\":17127:17147   */\n      swap1\n      pop\n        /* \"#utility.yul\":16982:17153   */\n      swap2\n      swap1\n      pop\n      jump\t// out\n        /* \"#utility.yul\":17159:17339   */\n    tag_108:\n        /* \"#utility.yul\":17207:17284   */\n      0x4e487b7100000000000000000000000000000000000000000000000000000000\n        /* \"#utility.yul\":17204:17205   */\n      0x00\n        /* \"#utility.yul\":17197:17285   */\n      mstore\n        /* \"#utility.yul\":17304:17308   */\n      0x32\n        /* \"#utility.yul\":17301:17302   */\n      0x04\n        /* \"#utility.yul\":17294:17309   */\n      mstore\n        /* \"#utility.yul\":17328:17332   */\n      0x24\n        /* \"#utility.yul\":17325:17326   */\n      0x00\n        /* \"#utility.yul\":17318:17333   */\n      revert\n        /* \"#utility.yul\":17345:17539   */\n    tag_112:\n        /* \"#utility.yul\":17385:17389   */\n      0x00\n        /* \"#utility.yul\":17405:17425   */\n      tag_522\n        /* \"#utility.yul\":17423:17424   */\n      dup3\n        /* \"#utility.yul\":17405:17425   */\n      tag_311\n      jump\t// in\n    tag_522:\n        /* \"#utility.yul\":17400:17425   */\n      swap2\n      pop\n        /* \"#utility.yul\":17439:17459   */\n      tag_523\n        /* \"#utility.yul\":17457:17458   */\n      dup4\n        /* \"#utility.yul\":17439:17459   */\n      tag_311\n      jump\t// in\n    tag_523:\n        /* \"#utility.yul\":17434:17459   */\n      swap3\n      pop\n        /* \"#utility.yul\":17483:17484   */\n      dup3\n        /* \"#utility.yul\":17480:17481   */\n      dup3\n        /* \"#utility.yul\":17476:17485   */\n      sub\n        /* \"#utility.yul\":17468:17485   */\n      swap1\n      pop\n        /* \"#utility.yul\":17507:17508   */\n      dup2\n        /* \"#utility.yul\":17501:17505   */\n      dup2\n        /* \"#utility.yul\":17498:17509   */\n      gt\n        /* \"#utility.yul\":17495:17532   */\n      iszero\n      tag_524\n      jumpi\n        /* \"#utility.yul\":17512:17530   */\n      tag_525\n      tag_341\n      jump\t// in\n    tag_525:\n        /* \"#utility.yul\":17495:17532   */\n    tag_524:\n        /* \"#utility.yul\":17345:17539   */\n      swap3\n      swap2\n      pop\n      pop\n      jump\t// out\n        /* \"#utility.yul\":17545:17725   */\n    tag_121:\n        /* \"#utility.yul\":17593:17670   */\n      0x4e487b7100000000000000000000000000000000000000000000000000000000\n        /* \"#utility.yul\":17590:17591   */\n      0x00\n        /* \"#utility.yul\":17583:17671   */\n      mstore\n        /* \"#utility.yul\":17690:17694   */\n      0x31\n        /* \"#utility.yul\":17687:17688   */\n      0x04\n        /* \"#utility.yul\":17680:17695   */\n      mstore\n        /* \"#utility.yul\":17714:17718   */\n      0x24\n        /* \"#utility.yul\":17711:17712   */\n      0x00\n        /* \"#utility.yul\":17704:17719   */\n      revert\n        /* \"#utility.yul\":17731:17964   */\n    tag_124:\n        /* \"#utility.yul\":17770:17773   */\n      0x00\n        /* \"#utility.yul\":17793:17817   */\n      tag_528\n        /* \"#utility.yul\":17811:17816   */\n      dup3\n        /* \"#utility.yul\":17793:17817   */\n      tag_311\n      jump\t// in\n    tag_528:\n        /* \"#utility.yul\":17784:17817   */\n      swap2\n      pop\n        /* \"#utility.yul\":17839:17905   */\n      0xffffffffffffffffffffffffffffffffffffffffffffffffffffffffffffffff\n        /* \"#utility.yul\":17832:17837   */\n      dup3\n        /* \"#utility.yul\":17829:17906   */\n      sub\n        /* \"#utility.yul\":17826:17929   */\n      tag_529\n      jumpi\n        /* \"#utility.yul\":17909:17927   */\n      tag_530\n      tag_341\n      jump\t// in\n    tag_530:\n        /* \"#utility.yul\":17826:17929   */\n    tag_529:\n        /* \"#utility.yul\":17956:17957   */\n      0x01\n        /* \"#utility.yul\":17949:17954   */\n      dup3\n        /* \"#utility.yul\":17945:17958   */\n      add\n        /* \"#utility.yul\":17938:17958   */\n      swap1\n      pop\n        /* \"#utility.yul\":17731:17964   */\n      swap2\n      swap1\n      pop\n      jump\t// out\n        /* \"#utility.yul\":17970:18117   */\n    tag_342:\n        /* \"#utility.yul\":18071:18082   */\n      0x00\n        /* \"#utility.yul\":18108:18111   */\n      dup2\n        /* \"#utility.yul\":18093:18111   */\n      swap1\n      pop\n        /* \"#utility.yul\":17970:18117   */\n      swap3\n      swap2\n      pop\n      pop\n      jump\t// out\n        /* \"#utility.yul\":18123:18237   */\n    tag_343:\n      pop\n      jump\t// out\n        /* \"#utility.yul\":18243:18641   */\n    tag_344:\n        /* \"#utility.yul\":18402:18405   */\n      0x00\n        /* \"#utility.yul\":18423:18506   */\n      tag_534\n        /* \"#utility.yul\":18504:18505   */\n      0x00\n        /* \"#utility.yul\":18499:18502   */\n      dup4\n        /* \"#utility.yul\":18423:18506   */\n      tag_342\n      jump\t// in\n    tag_534:\n        /* \"#utility.yul\":18416:18506   */\n      swap2\n      pop\n        /* \"#utility.yul\":18515:18608   */\n      tag_535\n        /* \"#utility.yul\":18604:18607   */\n      dup3\n        /* \"#utility.yul\":18515:18608   */\n      tag_343\n      jump\t// in\n    tag_535:\n        /* \"#utility.yul\":18633:18634   */\n      0x00\n        /* \"#utility.yul\":18628:18631   */\n      dup3\n        /* \"#utility.yul\":18624:18635   */\n      add\n        /* \"#utility.yul\":18617:18635   */\n      swap1\n      pop\n        /* \"#utility.yul\":18243:18641   */\n      swap2\n      swap1\n      pop\n      jump\t// out\n        /* \"#utility.yul\":18647:19026   */\n    tag_180:\n        /* \"#utility.yul\":18831:18834   */\n      0x00\n        /* \"#utility.yul\":18853:19000   */\n      tag_537\n        /* \"#utility.yul\":18996:18999   */\n      dup3\n        /* \"#utility.yul\":18853:19000   */\n      tag_344\n      jump\t// in\n    tag_537:\n        /* \"#utility.yul\":18846:19000   */\n      swap2\n      pop\n        /* \"#utility.yul\":19017:19020   */\n      dup2\n        /* \"#utility.yul\":19010:19020   */\n      swap1\n      pop\n        /* \"#utility.yul\":18647:19026   */\n      swap2\n      swap1\n      pop\n      jump\t// out\n        /* \"#utility.yul\":19032:19196   */\n    tag_345:\n        /* \"#utility.yul\":19172:19188   */\n      0x526566756e64206661696c757265000000000000000000000000000000000000\n        /* \"#utility.yul\":19168:19169   */\n      0x00\n        /* \"#utility.yul\":19160:19166   */\n      dup3\n        /* \"#utility.yul\":19156:19170   */\n      add\n        /* \"#utility.yul\":19149:19189   */\n      mstore\n        /* \"#utility.yul\":19032:19196   */\n      pop\n      jump\t// out\n        /* \"#utility.yul\":19202:19568   */\n    tag_346:\n        /* \"#utility.yul\":19344:19347   */\n      0x00\n        /* \"#utility.yul\":19365:19432   */\n      tag_540\n        /* \"#utility.yul\":19429:19431   */\n      0x0e\n        /* \"#utility.yul\":19424:19427   */\n      dup4\n        /* \"#utility.yul\":19365:19432   */\n      tag_287\n      jump\t// in\n    tag_540:\n        /* \"#utility.yul\":19358:19432   */\n      swap2\n      pop\n        /* \"#utility.yul\":19441:19534   */\n      tag_541\n        /* \"#utility.yul\":19530:19533   */\n      dup3\n        /* \"#utility.yul\":19441:19534   */\n      tag_345\n      jump\t// in\n    tag_541:\n        /* \"#utility.yul\":19559:19561   */\n      0x20\n        /* \"#utility.yul\":19554:19557   */\n      dup3\n        /* \"#utility.yul\":19550:19562   */\n      add\n        /* \"#utility.yul\":19543:19562   */\n      swap1\n      pop\n        /* \"#utility.yul\":19202:19568   */\n      swap2\n      swap1\n      pop\n      jump\t// out\n        /* \"#utility.yul\":19574:19993   */\n    tag_186:\n        /* \"#utility.yul\":19740:19744   */\n      0x00\n        /* \"#utility.yul\":19778:19780   */\n      0x20\n        /* \"#utility.yul\":19767:19776   */\n      dup3\n        /* \"#utility.yul\":19763:19781   */\n      add\n        /* \"#utility.yul\":19755:19781   */\n      swap1\n      pop\n        /* \"#utility.yul\":19827:19836   */\n      dup2\n        /* \"#utility.yul\":19821:19825   */\n      dup2\n        /* \"#utility.yul\":19817:19837   */\n      sub\n        /* \"#utility.yul\":19813:19814   */\n      0x00\n        /* \"#utility.yul\":19802:19811   */\n      dup4\n        /* \"#utility.yul\":19798:19815   */\n      add\n        /* \"#utility.yul\":19791:19838   */\n      mstore\n        /* \"#utility.yul\":19855:19986   */\n      tag_543\n        /* \"#utility.yul\":19981:19985   */\n      dup2\n        /* \"#utility.yul\":19855:19986   */\n      tag_346\n      jump\t// in\n    tag_543:\n        /* \"#utility.yul\":19847:19986   */\n      swap1\n      pop\n        /* \"#utility.yul\":19574:19993   */\n      swap2\n      swap1\n      pop\n      jump\t// out\n        /* \"#utility.yul\":19999:20179   */\n    tag_192:\n        /* \"#utility.yul\":20047:20124   */\n      0x4e487b7100000000000000000000000000000000000000000000000000000000\n        /* \"#utility.yul\":20044:20045   */\n      0x00\n        /* \"#utility.yul\":20037:20125   */\n      mstore\n        /* \"#utility.yul\":20144:20148   */\n      0x41\n        /* \"#utility.yul\":20141:20142   */\n      0x04\n        /* \"#utility.yul\":20134:20149   */\n      mstore\n        /* \"#utility.yul\":20168:20172   */\n      0x24\n        /* \"#utility.yul\":20165:20166   */\n      0x00\n        /* \"#utility.yul\":20158:20173   */\n      revert\n        /* \"#utility.yul\":20185:20376   */\n    tag_231:\n        /* \"#utility.yul\":20225:20228   */\n      0x00\n        /* \"#utility.yul\":20244:20264   */\n      tag_546\n        /* \"#utility.yul\":20262:20263   */\n      dup3\n        /* \"#utility.yul\":20244:20264   */\n      tag_311\n      jump\t// in\n    tag_546:\n        /* \"#utility.yul\":20239:20264   */\n      swap2\n      pop\n        /* \"#utility.yul\":20278:20298   */\n      tag_547\n        /* \"#utility.yul\":20296:20297   */\n      dup4\n        /* \"#utility.yul\":20278:20298   */\n      tag_311\n      jump\t// in\n    tag_547:\n        /* \"#utility.yul\":20273:20298   */\n      swap3\n      pop\n        /* \"#utility.yul\":20321:20322   */\n      dup3\n        /* \"#utility.yul\":20318:20319   */\n      dup3\n        /* \"#utility.yul\":20314:20323   */\n      add\n        /* \"#utility.yul\":20307:20323   */\n      swap1\n      pop\n        /* \"#utility.yul\":20342:20345   */\n      dup1\n        /* \"#utility.yul\":20339:20340   */\n      dup3\n        /* \"#utility.yul\":20336:20346   */\n      gt\n        /* \"#utility.yul\":20333:20369   */\n      iszero\n      tag_548\n      jumpi\n        /* \"#utility.yul\":20349:20367   */\n      tag_549\n      tag_341\n      jump\t// in\n    tag_549:\n        /* \"#utility.yul\":20333:20369   */\n    tag_548:\n        /* \"#utility.yul\":20185:20376   */\n      swap3\n      swap2\n      pop\n      pop\n      jump\t// out\n        /* \"#utility.yul\":20382:20714   */\n    tag_266:\n        /* \"#utility.yul\":20503:20507   */\n      0x00\n        /* \"#utility.yul\":20541:20543   */\n      0x40\n        /* \"#utility.yul\":20530:20539   */\n      dup3\n        /* \"#utility.yul\":20526:20544   */\n      add\n        /* \"#utility.yul\":20518:20544   */\n      swap1\n      pop\n        /* \"#utility.yul\":20554:20625   */\n      tag_551\n        /* \"#utility.yul\":20622:20623   */\n      0x00\n        /* \"#utility.yul\":20611:20620   */\n      dup4\n        /* \"#utility.yul\":20607:20624   */\n      add\n        /* \"#utility.yul\":20598:20604   */\n      dup6\n        /* \"#utility.yul\":20554:20625   */\n      tag_340\n      jump\t// in\n    tag_551:\n        /* \"#utility.yul\":20635:20707   */\n      tag_552\n        /* \"#utility.yul\":20703:20705   */\n      0x20\n        /* \"#utility.yul\":20692:20701   */\n      dup4\n        /* \"#utility.yul\":20688:20706   */\n      add\n        /* \"#utility.yul\":20679:20685   */\n      dup5\n        /* \"#utility.yul\":20635:20707   */\n      tag_298\n      jump\t// in\n    tag_552:\n        /* \"#utility.yul\":20382:20714   */\n      swap4\n      swap3\n      pop\n      pop\n      pop\n      jump\t// out\n        /* \"#utility.yul\":20720:20886   */\n    tag_347:\n        /* \"#utility.yul\":20860:20878   */\n      0x4e6f207072697a652062616c616e636500000000000000000000000000000000\n        /* \"#utility.yul\":20856:20857   */\n      0x00\n        /* \"#utility.yul\":20848:20854   */\n      dup3\n        /* \"#utility.yul\":20844:20858   */\n      add\n        /* \"#utility.yul\":20837:20879   */\n      mstore\n        /* \"#utility.yul\":20720:20886   */\n      pop\n      jump\t// out\n        /* \"#utility.yul\":20892:21258   */\n    tag_348:\n        /* \"#utility.yul\":21034:21037   */\n      0x00\n        /* \"#utility.yul\":21055:21122   */\n      tag_555\n        /* \"#utility.yul\":21119:21121   */\n      0x10\n        /* \"#utility.yul\":21114:21117   */\n      dup4\n        /* \"#utility.yul\":21055:21122   */\n      tag_287\n      jump\t// in\n    tag_555:\n        /* \"#utility.yul\":21048:21122   */\n      swap2\n      pop\n        /* \"#utility.yul\":21131:21224   */\n      tag_556\n        /* \"#utility.yul\":21220:21223   */\n      dup3\n        /* \"#utility.yul\":21131:21224   */\n      tag_347\n      jump\t// in\n    tag_556:\n        /* \"#utility.yul\":21249:21251   */\n      0x20\n        /* \"#utility.yul\":21244:21247   */\n      dup3\n        /* \"#utility.yul\":21240:21252   */\n      add\n        /* \"#utility.yul\":21233:21252   */\n      swap1\n      pop\n        /* \"#utility.yul\":20892:21258   */\n      swap2\n      swap1\n      pop\n      jump\t// out\n        /* \"#utility.yul\":21264:21683   */\n    tag_269:\n        /* \"#utility.yul\":21430:21434   */\n      0x00\n        /* \"#utility.yul\":21468:21470   */\n      0x20\n        /* \"#utility.yul\":21457:21466   */\n      dup3\n        /* \"#utility.yul\":21453:21471   */\n      add\n        /* \"#utility.yul\":21445:21471   */\n      swap1\n      pop\n        /* \"#utility.yul\":21517:21526   */\n      dup2\n        /* \"#utility.yul\":21511:21515   */\n      dup2\n        /* \"#utility.yul\":21507:21527   */\n      sub\n        /* \"#utility.yul\":21503:21504   */\n      0x00\n        /* \"#utility.yul\":21492:21501   */\n      dup4\n        /* \"#utility.yul\":21488:21505   */\n      add\n        /* \"#utility.yul\":21481:21528   */\n      mstore\n        /* \"#utility.yul\":21545:21676   */\n      tag_558\n        /* \"#utility.yul\":21671:21675   */\n      dup2\n        /* \"#utility.yul\":21545:21676   */\n      tag_348\n      jump\t// in\n    tag_558:\n        /* \"#utility.yul\":21537:21676   */\n      swap1\n      pop\n        /* \"#utility.yul\":21264:21683   */\n      swap2\n      swap1\n      pop\n      jump\t// out\n        /* \"#utility.yul\":21689:21860   */\n    tag_349:\n        /* \"#utility.yul\":21829:21852   */\n      0x57696e6e6572207061796f7574206661696c7572650000000000000000000000\n        /* \"#utility.yul\":21825:21826   */\n      0x00\n        /* \"#utility.yul\":21817:21823   */\n      dup3\n        /* \"#utility.yul\":21813:21827   */\n      add\n        /* \"#utility.yul\":21806:21853   */\n      mstore\n        /* \"#utility.yul\":21689:21860   */\n      pop\n      jump\t// out\n        /* \"#utility.yul\":21866:22232   */\n    tag_350:\n        /* \"#utility.yul\":22008:22011   */\n      0x00\n        /* \"#utility.yul\":22029:22096   */\n      tag_561\n        /* \"#utility.yul\":22093:22095   */\n      0x15\n        /* \"#utility.yul\":22088:22091   */\n      dup4\n        /* \"#utility.yul\":22029:22096   */\n      tag_287\n      jump\t// in\n    tag_561:\n        /* \"#utility.yul\":22022:22096   */\n      swap2\n      pop\n        /* \"#utility.yul\":22105:22198   */\n      tag_562\n        /* \"#utility.yul\":22194:22197   */\n      dup3\n        /* \"#utility.yul\":22105:22198   */\n      tag_349\n      jump\t// in\n    tag_562:\n        /* \"#utility.yul\":22223:22225   */\n      0x20\n        /* \"#utility.yul\":22218:22221   */\n      dup3\n        /* \"#utility.yul\":22214:22226   */\n      add\n        /* \"#utility.yul\":22207:22226   */\n      swap1\n      pop\n        /* \"#utility.yul\":21866:22232   */\n      swap2\n      swap1\n      pop\n      jump\t// out\n        /* \"#utility.yul\":22238:22657   */\n    tag_278:\n        /* \"#utility.yul\":22404:22408   */\n      0x00\n        /* \"#utility.yul\":22442:22444   */\n      0x20\n        /* \"#utility.yul\":22431:22440   */\n      dup3\n        /* \"#utility.yul\":22427:22445   */\n      add\n        /* \"#utility.yul\":22419:22445   */\n      swap1\n      pop\n        /* \"#utility.yul\":22491:22500   */\n      dup2\n        /* \"#utility.yul\":22485:22489   */\n      dup2\n        /* \"#utility.yul\":22481:22501   */\n      sub\n        /* \"#utility.yul\":22477:22478   */\n      0x00\n        /* \"#utility.yul\":22466:22475   */\n      dup4\n        /* \"#utility.yul\":22462:22479   */\n      add\n        /* \"#utility.yul\":22455:22502   */\n      mstore\n        /* \"#utility.yul\":22519:22650   */\n      tag_564\n        /* \"#utility.yul\":22645:22649   */\n      dup2\n        /* \"#utility.yul\":22519:22650   */\n      tag_350\n      jump\t// in\n    tag_564:\n        /* \"#utility.yul\":22511:22650   */\n      swap1\n      pop\n        /* \"#utility.yul\":22238:22657   */\n      swap2\n      swap1\n      pop\n      jump\t// out\n\n    auxdata: 0xa2646970667358221220665172e0e029596f38e49362a153ae0fe53312a67eac4befd56be697a9cb6c9d64736f6c63430008140033\n}\n",
				"bytecode": {
					"linkReferences": {},
					"object": "60a060405234801561000f575f80fd5b503373ffffffffffffffffffffffffffffffffffffffff1660808173ffffffffffffffffffffffffffffffffffffffff168152505060805161284761005c5f395f610b3601526128475ff3fe6080604052600436106100c5575f3560e01c8063af8b9b181161007e578063b331d13d11610058578063b331d13d146102a4578063b48d3baa146102c0578063d7fbc2e4146102e8578063f0375f281461032b57610105565b8063af8b9b1814610223578063b01e79611461024b578063b214faa51461028857610105565b806321fe77aa146101095780634277f4fd146101315780634b29b4c41461016d5780635d4ca708146101955780638da5cb5b146101d1578063a0c2957a146101fb57610105565b36610105576040517f08c379a00000000000000000000000000000000000000000000000000000000081526004016100fc90611e05565b60405180910390fd5b5f80fd5b348015610114575f80fd5b5061012f600480360381019061012a9190611e5a565b610367565b005b34801561013c575f80fd5b5061015760048036038101906101529190611e5a565b610726565b6040516101649190611ec4565b60405180910390f35b348015610178575f80fd5b50610193600480360381019061018e9190611e5a565b610756565b005b3480156101a0575f80fd5b506101bb60048036038101906101b69190611e5a565b610a98565b6040516101c89190611f94565b60405180910390f35b3480156101dc575f80fd5b506101e5610b34565b6040516101f29190611ec4565b60405180910390f35b348015610206575f80fd5b50610221600480360381019061021c9190611e5a565b610b58565b005b34801561022e575f80fd5b5061024960048036038101906102449190611e5a565b610d4c565b005b348015610256575f80fd5b50610271600480360381019061026c9190611fde565b610fda565b60405161027f9291906122fc565b60405180910390f35b6102a2600480360381019061029d9190611e5a565b611264565b005b6102be60048036038101906102b9919061235b565b61147d565b005b3480156102cb575f80fd5b506102e660048036038101906102e191906123ab565b61179f565b005b3480156102f3575f80fd5b5061030e60048036038101906103099190611e5a565b611ba0565b604051610322989796959493929190612425565b60405180910390f35b348015610336575f80fd5b50610351600480360381019061034c9190611fde565b611c2e565b60405161035e91906124a1565b60405180910390f35b61037081611cc1565b6103b157806040517fe28634390000000000000000000000000000000000000000000000000000000081526004016103a891906124d0565b60405180910390fd5b5f805f8381526020019081526020015f2090505f60028111156103d7576103d661204a565b5b816002015f9054906101000a900460ff1660028111156103fa576103f961204a565b5b1461043c57816040517fd528e2af00000000000000000000000000000000000000000000000000000000815260040161043391906124d0565b60405180910390fd5b5f60015f8481526020019081526020015f205f3373ffffffffffffffffffffffffffffffffffffffff1673ffffffffffffffffffffffffffffffffffffffff1681526020019081526020015f205f9054906101000a900460ff169050806104da57826040517f0d7648af0000000000000000000000000000000000000000000000000000000081526004016104d191906124d0565b60405180910390fd5b816005015f8154809291906104ee90612516565b91905055505f60015f8581526020019081526020015f205f3373ffffffffffffffffffffffffffffffffffffffff1673ffffffffffffffffffffffffffffffffffffffff1681526020019081526020015f205f6101000a81548160ff0219169083151502179055505f60025f8581526020019081526020015f208054905090505f5b8181101561071f573373ffffffffffffffffffffffffffffffffffffffff1660025f8781526020019081526020015f2082815481106105b2576105b161253d565b5b905f5260205f20015f9054906101000a900473ffffffffffffffffffffffffffffffffffffffff1673ffffffffffffffffffffffffffffffffffffffff160361070c5760025f8681526020019081526020015f20600183610613919061256a565b815481106106245761062361253d565b5b905f5260205f20015f9054906101000a900473ffffffffffffffffffffffffffffffffffffffff1660025f8781526020019081526020015f20828154811061066f5761066e61253d565b5b905f5260205f20015f6101000a81548173ffffffffffffffffffffffffffffffffffffffff021916908373ffffffffffffffffffffffffffffffffffffffff16021790555060025f8681526020019081526020015f208054806106d5576106d461259d565b5b600190038181905f5260205f20015f6101000a81549073ffffffffffffffffffffffffffffffffffffffff0219169055905561071f565b8080610717906125ca565b915050610570565b5050505050565b6003602052805f5260405f205f915054906101000a900473ffffffffffffffffffffffffffffffffffffffff1681565b61075f81611cc1565b6107a057806040517fe286343900000000000000000000000000000000000000000000000000000000815260040161079791906124d0565b60405180910390fd5b5f805f8381526020019081526020015f209050805f015f9054906101000a900473ffffffffffffffffffffffffffffffffffffffff1673ffffffffffffffffffffffffffffffffffffffff163373ffffffffffffffffffffffffffffffffffffffff160361084557816040517fc55d8c8200000000000000000000000000000000000000000000000000000000815260040161083c91906124d0565b60405180910390fd5b5f60028111156108585761085761204a565b5b816002015f9054906101000a900460ff16600281111561087b5761087a61204a565b5b146108bd57816040517fd528e2af0000000000000000000000000000000000000000000000000000000081526004016108b491906124d0565b60405180910390fd5b806003015481600501541061090957816040517f495000c000000000000000000000000000000000000000000000000000000000815260040161090091906124d0565b60405180910390fd5b5f60015f8481526020019081526020015f205f3373ffffffffffffffffffffffffffffffffffffffff1673ffffffffffffffffffffffffffffffffffffffff1681526020019081526020015f205f9054906101000a900460ff16905080156109a857826040517f02cbc17500000000000000000000000000000000000000000000000000000000815260040161099f91906124d0565b60405180910390fd5b6001805f8581526020019081526020015f205f3373ffffffffffffffffffffffffffffffffffffffff1673ffffffffffffffffffffffffffffffffffffffff1681526020019081526020015f205f6101000a81548160ff021916908315150217905550816005015f815480929190610a1f906125ca565b919050555060025f8481526020019081526020015f2033908060018154018082558091505060019003905f5260205f20015f9091909190916101000a81548173ffffffffffffffffffffffffffffffffffffffff021916908373ffffffffffffffffffffffffffffffffffffffff160217905550505050565b606060025f8381526020019081526020015f20805480602002602001604051908101604052809291908181526020018280548015610b2857602002820191905f5260205f20905b815f9054906101000a900473ffffffffffffffffffffffffffffffffffffffff1673ffffffffffffffffffffffffffffffffffffffff1681526020019060010190808311610adf575b50505050509050919050565b7f000000000000000000000000000000000000000000000000000000000000000081565b80610b6281611cc1565b610ba357806040517fe2863439000000000000000000000000000000000000000000000000000000008152600401610b9a91906124d0565b60405180910390fd5b5f808281526020019081526020015f205f015f9054906101000a900473ffffffffffffffffffffffffffffffffffffffff1673ffffffffffffffffffffffffffffffffffffffff163373ffffffffffffffffffffffffffffffffffffffff1614610c4457336040517fd68affb7000000000000000000000000000000000000000000000000000000008152600401610c3b9190611ec4565b60405180910390fd5b5f805f8481526020019081526020015f2090505f6002811115610c6a57610c6961204a565b5b816002015f9054906101000a900460ff166002811115610c8d57610c8c61204a565b5b14610ccf57826040517fd528e2af000000000000000000000000000000000000000000000000000000008152600401610cc691906124d0565b60405180910390fd5b8060040154816005015411610d1b57826040517f2cf3c5c7000000000000000000000000000000000000000000000000000000008152600401610d1291906124d0565b60405180910390fd5b6002816002015f6101000a81548160ff02191690836002811115610d4257610d4161204a565b5b0217905550505050565b80610d5681611cc1565b610d9757806040517fe2863439000000000000000000000000000000000000000000000000000000008152600401610d8e91906124d0565b60405180910390fd5b5f808281526020019081526020015f205f015f9054906101000a900473ffffffffffffffffffffffffffffffffffffffff1673ffffffffffffffffffffffffffffffffffffffff163373ffffffffffffffffffffffffffffffffffffffff1614610e3857336040517fd68affb7000000000000000000000000000000000000000000000000000000008152600401610e2f9190611ec4565b60405180910390fd5b5f805f8481526020019081526020015f2090505f6002811115610e5e57610e5d61204a565b5b816002015f9054906101000a900460ff166002811115610e8157610e8061204a565b5b14610ec357826040517fd528e2af000000000000000000000000000000000000000000000000000000008152600401610eba91906124d0565b60405180910390fd5b5f816001015490505f82600101819055506001826002015f6101000a81548160ff02191690836002811115610efb57610efa61204a565b5b02179055505f811115610fd4575f825f015f9054906101000a900473ffffffffffffffffffffffffffffffffffffffff1673ffffffffffffffffffffffffffffffffffffffff1682604051610f4f9061263e565b5f6040518083038185875af1925050503d805f8114610f89576040519150601f19603f3d011682016040523d82523d5f602084013e610f8e565b606091505b5050905080610fd2576040517f08c379a0000000000000000000000000000000000000000000000000000000008152600401610fc99061269c565b60405180910390fd5b505b50505050565b6060805f60045f8573ffffffffffffffffffffffffffffffffffffffff1673ffffffffffffffffffffffffffffffffffffffff1681526020019081526020015f2080548060200260200160405190810160405280929190818152602001828054801561106357602002820191905f5260205f20905b81548152602001906001019080831161104f575b505050505090505f815167ffffffffffffffff811115611086576110856126ba565b5b6040519080825280602002602001820160405280156110bf57816020015b6110ac611d2a565b8152602001906001900390816110a45790505b5090505f5b8251811015611256575f808483815181106110e2576110e161253d565b5b602002602001015181526020019081526020015f20604051806101000160405290815f82015f9054906101000a900473ffffffffffffffffffffffffffffffffffffffff1673ffffffffffffffffffffffffffffffffffffffff1673ffffffffffffffffffffffffffffffffffffffff16815260200160018201548152602001600282015f9054906101000a900460ff1660028111156111855761118461204a565b5b60028111156111975761119661204a565b5b81526020016002820160019054906101000a900460ff1660018111156111c0576111bf61204a565b5b60018111156111d2576111d161204a565b5b8152602001600382015481526020016004820154815260200160058201548152602001600682015f9054906101000a900467ffffffffffffffff1667ffffffffffffffff1667ffffffffffffffff16815250508282815181106112385761123761253d565b5b6020026020010181905250808061124e906125ca565b9150506110c4565b508082935093505050915091565b8061126e81611cc1565b6112af57806040517fe28634390000000000000000000000000000000000000000000000000000000081526004016112a691906124d0565b60405180910390fd5b5f808281526020019081526020015f205f015f9054906101000a900473ffffffffffffffffffffffffffffffffffffffff1673ffffffffffffffffffffffffffffffffffffffff163373ffffffffffffffffffffffffffffffffffffffff161461135057336040517fd68affb70000000000000000000000000000000000000000000000000000000081526004016113479190611ec4565b60405180910390fd5b61135982611cc1565b61139a57816040517fe286343900000000000000000000000000000000000000000000000000000000815260040161139191906124d0565b60405180910390fd5b5f805f8481526020019081526020015f2090505f60028111156113c0576113bf61204a565b5b816002015f9054906101000a900460ff1660028111156113e3576113e261204a565b5b1461142557826040517fd528e2af00000000000000000000000000000000000000000000000000000000815260040161141c91906124d0565b60405180910390fd5b5f340361145e576040517f600f7bf400000000000000000000000000000000000000000000000000000000815260040160405180910390fd5b34816001015f82825461147191906126e7565b92505081905550505050565b5f34036114b6576040517f600f7bf400000000000000000000000000000000000000000000000000000000815260040160405180910390fd5b828210156114f0576040517fb3b6029c00000000000000000000000000000000000000000000000000000000815260040160405180910390fd5b5f8303611529576040517f530a986700000000000000000000000000000000000000000000000000000000815260040160405180910390fd5b5f801b8103611564576040517f166cbdbe00000000000000000000000000000000000000000000000000000000815260040160405180910390fd5b61156d81611cc1565b156115af57806040517f4fec90c50000000000000000000000000000000000000000000000000000000081526004016115a691906124d0565b60405180910390fd5b6040518061010001604052803373ffffffffffffffffffffffffffffffffffffffff1681526020013481526020015f60028111156115f0576115ef61204a565b5b81526020016001808111156116085761160761204a565b5b81526020018381526020018481526020015f81526020014267ffffffffffffffff168152505f808381526020019081526020015f205f820151815f015f6101000a81548173ffffffffffffffffffffffffffffffffffffffff021916908373ffffffffffffffffffffffffffffffffffffffff160217905550602082015181600101556040820151816002015f6101000a81548160ff021916908360028111156116b5576116b461204a565b5b021790555060608201518160020160016101000a81548160ff021916908360018111156116e5576116e461204a565b5b02179055506080820151816003015560a0820151816004015560c0820151816005015560e0820151816006015f6101000a81548167ffffffffffffffff021916908367ffffffffffffffff16021790555090505060045f3373ffffffffffffffffffffffffffffffffffffffff1673ffffffffffffffffffffffffffffffffffffffff1681526020019081526020015f2081908060018154018082558091505060019003905f5260205f20015f9091909190915055505050565b816117a981611cc1565b6117ea57806040517fe28634390000000000000000000000000000000000000000000000000000000081526004016117e191906124d0565b60405180910390fd5b5f808281526020019081526020015f205f015f9054906101000a900473ffffffffffffffffffffffffffffffffffffffff1673ffffffffffffffffffffffffffffffffffffffff163373ffffffffffffffffffffffffffffffffffffffff161461188b57336040517fd68affb70000000000000000000000000000000000000000000000000000000081526004016118829190611ec4565b60405180910390fd5b5f805f8581526020019081526020015f2090506002808111156118b1576118b061204a565b5b816002015f9054906101000a900460ff1660028111156118d4576118d361204a565b5b1461191657836040517fd750f8d900000000000000000000000000000000000000000000000000000000815260040161190d91906124d0565b60405180910390fd5b5f73ffffffffffffffffffffffffffffffffffffffff168373ffffffffffffffffffffffffffffffffffffffff160361198657836040517ffe23ea1f00000000000000000000000000000000000000000000000000000000815260040161197d91906124d0565b60405180910390fd5b60015f8581526020019081526020015f205f8473ffffffffffffffffffffffffffffffffffffffff1673ffffffffffffffffffffffffffffffffffffffff1681526020019081526020015f205f9054906101000a900460ff16611a225783836040517fe66163eb000000000000000000000000000000000000000000000000000000008152600401611a1992919061271a565b60405180910390fd5b5f816001015490505f8111611a6c576040517f08c379a0000000000000000000000000000000000000000000000000000000008152600401611a639061278b565b60405180910390fd5b8360035f8781526020019081526020015f205f6101000a81548173ffffffffffffffffffffffffffffffffffffffff021916908373ffffffffffffffffffffffffffffffffffffffff1602179055506001826002015f6101000a81548160ff02191690836002811115611ae257611ae161204a565b5b02179055505f82600101819055505f8473ffffffffffffffffffffffffffffffffffffffff1682604051611b159061263e565b5f6040518083038185875af1925050503d805f8114611b4f576040519150601f19603f3d011682016040523d82523d5f602084013e611b54565b606091505b5050905080611b98576040517f08c379a0000000000000000000000000000000000000000000000000000000008152600401611b8f906127f3565b60405180910390fd5b505050505050565b5f602052805f5260405f205f91509050805f015f9054906101000a900473ffffffffffffffffffffffffffffffffffffffff1690806001015490806002015f9054906101000a900460ff16908060020160019054906101000a900460ff1690806003015490806004015490806005015490806006015f9054906101000a900467ffffffffffffffff16905088565b606060045f8373ffffffffffffffffffffffffffffffffffffffff1673ffffffffffffffffffffffffffffffffffffffff1681526020019081526020015f20805480602002602001604051908101604052809291908181526020018280548015611cb557602002820191905f5260205f20905b815481526020019060010190808311611ca1575b50505050509050919050565b5f8073ffffffffffffffffffffffffffffffffffffffff165f808481526020019081526020015f205f015f9054906101000a900473ffffffffffffffffffffffffffffffffffffffff1673ffffffffffffffffffffffffffffffffffffffff1614159050919050565b6040518061010001604052805f73ffffffffffffffffffffffffffffffffffffffff1681526020015f81526020015f6002811115611d6b57611d6a61204a565b5b81526020015f6001811115611d8357611d8261204a565b5b81526020015f81526020015f81526020015f81526020015f67ffffffffffffffff1681525090565b5f82825260208201905092915050565b7f75736520637265617465526f6f6d2f6465706f736974207769746820636f64655f82015250565b5f611def602083611dab565b9150611dfa82611dbb565b602082019050919050565b5f6020820190508181035f830152611e1c81611de3565b9050919050565b5f80fd5b5f819050919050565b611e3981611e27565b8114611e43575f80fd5b50565b5f81359050611e5481611e30565b92915050565b5f60208284031215611e6f57611e6e611e23565b5b5f611e7c84828501611e46565b91505092915050565b5f73ffffffffffffffffffffffffffffffffffffffff82169050919050565b5f611eae82611e85565b9050919050565b611ebe81611ea4565b82525050565b5f602082019050611ed75f830184611eb5565b92915050565b5f81519050919050565b5f82825260208201905092915050565b5f819050602082019050919050565b611f0f81611ea4565b82525050565b5f611f208383611f06565b60208301905092915050565b5f602082019050919050565b5f611f4282611edd565b611f4c8185611ee7565b9350611f5783611ef7565b805f5b83811015611f87578151611f6e8882611f15565b9750611f7983611f2c565b925050600181019050611f5a565b5085935050505092915050565b5f6020820190508181035f830152611fac8184611f38565b905092915050565b611fbd81611ea4565b8114611fc7575f80fd5b50565b5f81359050611fd881611fb4565b92915050565b5f60208284031215611ff357611ff2611e23565b5b5f61200084828501611fca565b91505092915050565b5f81519050919050565b5f82825260208201905092915050565b5f819050602082019050919050565b5f819050919050565b61204481612032565b82525050565b7f4e487b71000000000000000000000000000000000000000000000000000000005f52602160045260245ffd5b600381106120885761208761204a565b5b50565b5f81905061209882612077565b919050565b5f6120a78261208b565b9050919050565b6120b78161209d565b82525050565b600281106120ce576120cd61204a565b5b50565b5f8190506120de826120bd565b919050565b5f6120ed826120d1565b9050919050565b6120fd816120e3565b82525050565b5f67ffffffffffffffff82169050919050565b61211f81612103565b82525050565b61010082015f82015161213a5f850182611f06565b50602082015161214d602085018261203b565b50604082015161216060408501826120ae565b50606082015161217360608501826120f4565b506080820151612186608085018261203b565b5060a082015161219960a085018261203b565b5060c08201516121ac60c085018261203b565b5060e08201516121bf60e0850182612116565b50505050565b5f6121d08383612125565b6101008301905092915050565b5f602082019050919050565b5f6121f382612009565b6121fd8185612013565b935061220883612023565b805f5b8381101561223857815161221f88826121c5565b975061222a836121dd565b92505060018101905061220b565b5085935050505092915050565b5f81519050919050565b5f82825260208201905092915050565b5f819050602082019050919050565b61227781611e27565b82525050565b5f612288838361226e565b60208301905092915050565b5f602082019050919050565b5f6122aa82612245565b6122b4818561224f565b93506122bf8361225f565b805f5b838110156122ef5781516122d6888261227d565b97506122e183612294565b9250506001810190506122c2565b5085935050505092915050565b5f6040820190508181035f83015261231481856121e9565b9050818103602083015261232881846122a0565b90509392505050565b61233a81612032565b8114612344575f80fd5b50565b5f8135905061235581612331565b92915050565b5f805f6060848603121561237257612371611e23565b5b5f61237f86828701612347565b935050602061239086828701612347565b92505060406123a186828701611e46565b9150509250925092565b5f80604083850312156123c1576123c0611e23565b5b5f6123ce85828601611e46565b92505060206123df85828601611fca565b9150509250929050565b6123f281612032565b82525050565b6124018161209d565b82525050565b612410816120e3565b82525050565b61241f81612103565b82525050565b5f610100820190506124395f83018b611eb5565b612446602083018a6123e9565b61245360408301896123f8565b6124606060830188612407565b61246d60808301876123e9565b61247a60a08301866123e9565b61248760c08301856123e9565b61249460e0830184612416565b9998505050505050505050565b5f6020820190508181035f8301526124b981846122a0565b905092915050565b6124ca81611e27565b82525050565b5f6020820190506124e35f8301846124c1565b92915050565b7f4e487b71000000000000000000000000000000000000000000000000000000005f52601160045260245ffd5b5f61252082612032565b91505f8203612532576125316124e9565b5b600182039050919050565b7f4e487b71000000000000000000000000000000000000000000000000000000005f52603260045260245ffd5b5f61257482612032565b915061257f83612032565b9250828203905081811115612597576125966124e9565b5b92915050565b7f4e487b71000000000000000000000000000000000000000000000000000000005f52603160045260245ffd5b5f6125d482612032565b91507fffffffffffffffffffffffffffffffffffffffffffffffffffffffffffffffff8203612606576126056124e9565b5b600182019050919050565b5f81905092915050565b50565b5f6126295f83612611565b91506126348261261b565b5f82019050919050565b5f6126488261261e565b9150819050919050565b7f526566756e64206661696c7572650000000000000000000000000000000000005f82015250565b5f612686600e83611dab565b915061269182612652565b602082019050919050565b5f6020820190508181035f8301526126b38161267a565b9050919050565b7f4e487b71000000000000000000000000000000000000000000000000000000005f52604160045260245ffd5b5f6126f182612032565b91506126fc83612032565b9250828201905080821115612714576127136124e9565b5b92915050565b5f60408201905061272d5f8301856124c1565b61273a6020830184611eb5565b9392505050565b7f4e6f207072697a652062616c616e6365000000000000000000000000000000005f82015250565b5f612775601083611dab565b915061278082612741565b602082019050919050565b5f6020820190508181035f8301526127a281612769565b9050919050565b7f57696e6e6572207061796f7574206661696c75726500000000000000000000005f82015250565b5f6127dd601583611dab565b91506127e8826127a9565b602082019050919050565b5f6020820190508181035f83015261280a816127d1565b905091905056fea2646970667358221220665172e0e029596f38e49362a153ae0fe53312a67eac4befd56be697a9cb6c9d64736f6c63430008140033",
					"opcodes": "PUSH1 0xA0 PUSH1 0x40 MSTORE CALLVALUE DUP1 ISZERO PUSH2 0xF JUMPI PUSH0 DUP1 REVERT JUMPDEST POP CALLER PUSH20 0xFFFFFFFFFFFFFFFFFFFFFFFFFFFFFFFFFFFFFFFF AND PUSH1 0x80 DUP2 PUSH20 0xFFFFFFFFFFFFFFFFFFFFFFFFFFFFFFFFFFFFFFFF AND DUP2 MSTORE POP POP PUSH1 0x80 MLOAD PUSH2 0x2847 PUSH2 0x5C PUSH0 CODECOPY PUSH0 PUSH2 0xB36 ADD MSTORE PUSH2 0x2847 PUSH0 RETURN INVALID PUSH1 0x80 PUSH1 0x40 MSTORE PUSH1 0x4 CALLDATASIZE LT PUSH2 0xC5 JUMPI PUSH0 CALLDATALOAD PUSH1 0xE0 SHR DUP1 PUSH4 0xAF8B9B18 GT PUSH2 0x7E JUMPI DUP1 PUSH4 0xB331D13D GT PUSH2 0x58 JUMPI DUP1 PUSH4 0xB331D13D EQ PUSH2 0x2A4 JUMPI DUP1 PUSH4 0xB48D3BAA EQ PUSH2 0x2C0 JUMPI DUP1 PUSH4 0xD7FBC2E4 EQ PUSH2 0x2E8 JUMPI DUP1 PUSH4 0xF0375F28 EQ PUSH2 0x32B JUMPI PUSH2 0x105 JUMP JUMPDEST DUP1 PUSH4 0xAF8B9B18 EQ PUSH2 0x223 JUMPI DUP1 PUSH4 0xB01E7961 EQ PUSH2 0x24B JUMPI DUP1 PUSH4 0xB214FAA5 EQ PUSH2 0x288 JUMPI PUSH2 0x105 JUMP JUMPDEST DUP1 PUSH4 0x21FE77AA EQ PUSH2 0x109 JUMPI DUP1 PUSH4 0x4277F4FD EQ PUSH2 0x131 JUMPI DUP1 PUSH4 0x4B29B4C4 EQ PUSH2 0x16D JUMPI DUP1 PUSH4 0x5D4CA708 EQ PUSH2 0x195 JUMPI DUP1 PUSH4 0x8DA5CB5B EQ PUSH2 0x1D1 JUMPI DUP1 PUSH4 0xA0C2957A EQ PUSH2 0x1FB JUMPI PUSH2 0x105 JUMP JUMPDEST CALLDATASIZE PUSH2 0x105 JUMPI PUSH1 0x40 MLOAD PUSH32 0x8C379A000000000000000000000000000000000000000000000000000000000 DUP2 MSTORE PUSH1 0x4 ADD PUSH2 0xFC SWAP1 PUSH2 0x1E05 JUMP JUMPDEST PUSH1 0x40 MLOAD DUP1 SWAP2 SUB SWAP1 REVERT JUMPDEST PUSH0 DUP1 REVERT JUMPDEST CALLVALUE DUP1 ISZERO PUSH2 0x114 JUMPI PUSH0 DUP1 REVERT JUMPDEST POP PUSH2 0x12F PUSH1 0x4 DUP1 CALLDATASIZE SUB DUP2 ADD SWAP1 PUSH2 0x12A SWAP2 SWAP1 PUSH2 0x1E5A JUMP JUMPDEST PUSH2 0x367 JUMP JUMPDEST STOP JUMPDEST CALLVALUE DUP1 ISZERO PUSH2 0x13C JUMPI PUSH0 DUP1 REVERT JUMPDEST POP PUSH2 0x157 PUSH1 0x4 DUP1 CALLDATASIZE SUB DUP2 ADD SWAP1 PUSH2 0x152 SWAP2 SWAP1 PUSH2 0x1E5A JUMP JUMPDEST PUSH2 0x726 JUMP JUMPDEST PUSH1 0x40 MLOAD PUSH2 0x164 SWAP2 SWAP1 PUSH2 0x1EC4 JUMP JUMPDEST PUSH1 0x40 MLOAD DUP1 SWAP2 SUB SWAP1 RETURN JUMPDEST CALLVALUE DUP1 ISZERO PUSH2 0x178 JUMPI PUSH0 DUP1 REVERT JUMPDEST POP PUSH2 0x193 PUSH1 0x4 DUP1 CALLDATASIZE SUB DUP2 ADD SWAP1 PUSH2 0x18E SWAP2 SWAP1 PUSH2 0x1E5A JUMP JUMPDEST PUSH2 0x756 JUMP JUMPDEST STOP JUMPDEST CALLVALUE DUP1 ISZERO PUSH2 0x1A0 JUMPI PUSH0 DUP1 REVERT JUMPDEST POP PUSH2 0x1BB PUSH1 0x4 DUP1 CALLDATASIZE SUB DUP2 ADD SWAP1 PUSH2 0x1B6 SWAP2 SWAP1 PUSH2 0x1E5A JUMP JUMPDEST PUSH2 0xA98 JUMP JUMPDEST PUSH1 0x40 MLOAD PUSH2 0x1C8 SWAP2 SWAP1 PUSH2 0x1F94 JUMP JUMPDEST PUSH1 0x40 MLOAD DUP1 SWAP2 SUB SWAP1 RETURN JUMPDEST CALLVALUE DUP1 ISZERO PUSH2 0x1DC JUMPI PUSH0 DUP1 REVERT JUMPDEST POP PUSH2 0x1E5 PUSH2 0xB34 JUMP JUMPDEST PUSH1 0x40 MLOAD PUSH2 0x1F2 SWAP2 SWAP1 PUSH2 0x1EC4 JUMP JUMPDEST PUSH1 0x40 MLOAD DUP1 SWAP2 SUB SWAP1 RETURN JUMPDEST CALLVALUE DUP1 ISZERO PUSH2 0x206 JUMPI PUSH0 DUP1 REVERT JUMPDEST POP PUSH2 0x221 PUSH1 0x4 DUP1 CALLDATASIZE SUB DUP2 ADD SWAP1 PUSH2 0x21C SWAP2 SWAP1 PUSH2 0x1E5A JUMP JUMPDEST PUSH2 0xB58 JUMP JUMPDEST STOP JUMPDEST CALLVALUE DUP1 ISZERO PUSH2 0x22E JUMPI PUSH0 DUP1 REVERT JUMPDEST POP PUSH2 0x249 PUSH1 0x4 DUP1 CALLDATASIZE SUB DUP2 ADD SWAP1 PUSH2 0x244 SWAP2 SWAP1 PUSH2 0x1E5A JUMP JUMPDEST PUSH2 0xD4C JUMP JUMPDEST STOP JUMPDEST CALLVALUE DUP1 ISZERO PUSH2 0x256 JUMPI PUSH0 DUP1 REVERT JUMPDEST POP PUSH2 0x271 PUSH1 0x4 DUP1 CALLDATASIZE SUB DUP2 ADD SWAP1 PUSH2 0x26C SWAP2 SWAP1 PUSH2 0x1FDE JUMP JUMPDEST PUSH2 0xFDA JUMP JUMPDEST PUSH1 0x40 MLOAD PUSH2 0x27F SWAP3 SWAP2 SWAP1 PUSH2 0x22FC JUMP JUMPDEST PUSH1 0x40 MLOAD DUP1 SWAP2 SUB SWAP1 RETURN JUMPDEST PUSH2 0x2A2 PUSH1 0x4 DUP1 CALLDATASIZE SUB DUP2 ADD SWAP1 PUSH2 0x29D SWAP2 SWAP1 PUSH2 0x1E5A JUMP JUMPDEST PUSH2 0x1264 JUMP JUMPDEST STOP JUMPDEST PUSH2 0x2BE PUSH1 0x4 DUP1 CALLDATASIZE SUB DUP2 ADD SWAP1 PUSH2 0x2B9 SWAP2 SWAP1 PUSH2 0x235B JUMP JUMPDEST PUSH2 0x147D JUMP JUMPDEST STOP JUMPDEST CALLVALUE DUP1 ISZERO PUSH2 0x2CB JUMPI PUSH0 DUP1 REVERT JUMPDEST POP PUSH2 0x2E6 PUSH1 0x4 DUP1 CALLDATASIZE SUB DUP2 ADD SWAP1 PUSH2 0x2E1 SWAP2 SWAP1 PUSH2 0x23AB JUMP JUMPDEST PUSH2 0x179F JUMP JUMPDEST STOP JUMPDEST CALLVALUE DUP1 ISZERO PUSH2 0x2F3 JUMPI PUSH0 DUP1 REVERT JUMPDEST POP PUSH2 0x30E PUSH1 0x4 DUP1 CALLDATASIZE SUB DUP2 ADD SWAP1 PUSH2 0x309 SWAP2 SWAP1 PUSH2 0x1E5A JUMP JUMPDEST PUSH2 0x1BA0 JUMP JUMPDEST PUSH1 0x40 MLOAD PUSH2 0x322 SWAP9 SWAP8 SWAP7 SWAP6 SWAP5 SWAP4 SWAP3 SWAP2 SWAP1 PUSH2 0x2425 JUMP JUMPDEST PUSH1 0x40 MLOAD DUP1 SWAP2 SUB SWAP1 RETURN JUMPDEST CALLVALUE DUP1 ISZERO PUSH2 0x336 JUMPI PUSH0 DUP1 REVERT JUMPDEST POP PUSH2 0x351 PUSH1 0x4 DUP1 CALLDATASIZE SUB DUP2 ADD SWAP1 PUSH2 0x34C SWAP2 SWAP1 PUSH2 0x1FDE JUMP JUMPDEST PUSH2 0x1C2E JUMP JUMPDEST PUSH1 0x40 MLOAD PUSH2 0x35E SWAP2 SWAP1 PUSH2 0x24A1 JUMP JUMPDEST PUSH1 0x40 MLOAD DUP1 SWAP2 SUB SWAP1 RETURN JUMPDEST PUSH2 0x370 DUP2 PUSH2 0x1CC1 JUMP JUMPDEST PUSH2 0x3B1 JUMPI DUP1 PUSH1 0x40 MLOAD PUSH32 0xE286343900000000000000000000000000000000000000000000000000000000 DUP2 MSTORE PUSH1 0x4 ADD PUSH2 0x3A8 SWAP2 SWAP1 PUSH2 0x24D0 JUMP JUMPDEST PUSH1 0x40 MLOAD DUP1 SWAP2 SUB SWAP1 REVERT JUMPDEST PUSH0 DUP1 PUSH0 DUP4 DUP2 MSTORE PUSH1 0x20 ADD SWAP1 DUP2 MSTORE PUSH1 0x20 ADD PUSH0 KECCAK256 SWAP1 POP PUSH0 PUSH1 0x2 DUP2 GT ISZERO PUSH2 0x3D7 JUMPI PUSH2 0x3D6 PUSH2 0x204A JUMP JUMPDEST JUMPDEST DUP2 PUSH1 0x2 ADD PUSH0 SWAP1 SLOAD SWAP1 PUSH2 0x100 EXP SWAP1 DIV PUSH1 0xFF AND PUSH1 0x2 DUP2 GT ISZERO PUSH2 0x3FA JUMPI PUSH2 0x3F9 PUSH2 0x204A JUMP JUMPDEST JUMPDEST EQ PUSH2 0x43C JUMPI DUP2 PUSH1 0x40 MLOAD PUSH32 0xD528E2AF00000000000000000000000000000000000000000000000000000000 DUP2 MSTORE PUSH1 0x4 ADD PUSH2 0x433 SWAP2 SWAP1 PUSH2 0x24D0 JUMP JUMPDEST PUSH1 0x40 MLOAD DUP1 SWAP2 SUB SWAP1 REVERT JUMPDEST PUSH0 PUSH1 0x1 PUSH0 DUP5 DUP2 MSTORE PUSH1 0x20 ADD SWAP1 DUP2 MSTORE PUSH1 0x20 ADD PUSH0 KECCAK256 PUSH0 CALLER PUSH20 0xFFFFFFFFFFFFFFFFFFFFFFFFFFFFFFFFFFFFFFFF AND PUSH20 0xFFFFFFFFFFFFFFFFFFFFFFFFFFFFFFFFFFFFFFFF AND DUP2 MSTORE PUSH1 0x20 ADD SWAP1 DUP2 MSTORE PUSH1 0x20 ADD PUSH0 KECCAK256 PUSH0 SWAP1 SLOAD SWAP1 PUSH2 0x100 EXP SWAP1 DIV PUSH1 0xFF AND SWAP1 POP DUP1 PUSH2 0x4DA JUMPI DUP3 PUSH1 0x40 MLOAD PUSH32 0xD7648AF00000000000000000000000000000000000000000000000000000000 DUP2 MSTORE PUSH1 0x4 ADD PUSH2 0x4D1 SWAP2 SWAP1 PUSH2 0x24D0 JUMP JUMPDEST PUSH1 0x40 MLOAD DUP1 SWAP2 SUB SWAP1 REVERT JUMPDEST DUP2 PUSH1 0x5 ADD PUSH0 DUP2 SLOAD DUP1 SWAP3 SWAP2 SWAP1 PUSH2 0x4EE SWAP1 PUSH2 0x2516 JUMP JUMPDEST SWAP2 SWAP1 POP SSTORE POP PUSH0 PUSH1 0x1 PUSH0 DUP6 DUP2 MSTORE PUSH1 0x20 ADD SWAP1 DUP2 MSTORE PUSH1 0x20 ADD PUSH0 KECCAK256 PUSH0 CALLER PUSH20 0xFFFFFFFFFFFFFFFFFFFFFFFFFFFFFFFFFFFFFFFF AND PUSH20 0xFFFFFFFFFFFFFFFFFFFFFFFFFFFFFFFFFFFFFFFF AND DUP2 MSTORE PUSH1 0x20 ADD SWAP1 DUP2 MSTORE PUSH1 0x20 ADD PUSH0 KECCAK256 PUSH0 PUSH2 0x100 EXP DUP2 SLOAD DUP2 PUSH1 0xFF MUL NOT AND SWAP1 DUP4 ISZERO ISZERO MUL OR SWAP1 SSTORE POP PUSH0 PUSH1 0x2 PUSH0 DUP6 DUP2 MSTORE PUSH1 0x20 ADD SWAP1 DUP2 MSTORE PUSH1 0x20 ADD PUSH0 KECCAK256 DUP1 SLOAD SWAP1 POP SWAP1 POP PUSH0 JUMPDEST DUP2 DUP2 LT ISZERO PUSH2 0x71F JUMPI CALLER PUSH20 0xFFFFFFFFFFFFFFFFFFFFFFFFFFFFFFFFFFFFFFFF AND PUSH1 0x2 PUSH0 DUP8 DUP2 MSTORE PUSH1 0x20 ADD SWAP1 DUP2 MSTORE PUSH1 0x20 ADD PUSH0 KECCAK256 DUP3 DUP2 SLOAD DUP2 LT PUSH2 0x5B2 JUMPI PUSH2 0x5B1 PUSH2 0x253D JUMP JUMPDEST JUMPDEST SWAP1 PUSH0 MSTORE PUSH1 0x20 PUSH0 KECCAK256 ADD PUSH0 SWAP1 SLOAD SWAP1 PUSH2 0x100 EXP SWAP1 DIV PUSH20 0xFFFFFFFFFFFFFFFFFFFFFFFFFFFFFFFFFFFFFFFF AND PUSH20 0xFFFFFFFFFFFFFFFFFFFFFFFFFFFFFFFFFFFFFFFF AND SUB PUSH2 0x70C JUMPI PUSH1 0x2 PUSH0 DUP7 DUP2 MSTORE PUSH1 0x20 ADD SWAP1 DUP2 MSTORE PUSH1 0x20 ADD PUSH0 KECCAK256 PUSH1 0x1 DUP4 PUSH2 0x613 SWAP2 SWAP1 PUSH2 0x256A JUMP JUMPDEST DUP2 SLOAD DUP2 LT PUSH2 0x624 JUMPI PUSH2 0x623 PUSH2 0x253D JUMP JUMPDEST JUMPDEST SWAP1 PUSH0 MSTORE PUSH1 0x20 PUSH0 KECCAK256 ADD PUSH0 SWAP1 SLOAD SWAP1 PUSH2 0x100 EXP SWAP1 DIV PUSH20 0xFFFFFFFFFFFFFFFFFFFFFFFFFFFFFFFFFFFFFFFF AND PUSH1 0x2 PUSH0 DUP8 DUP2 MSTORE PUSH1 0x20 ADD SWAP1 DUP2 MSTORE PUSH1 0x20 ADD PUSH0 KECCAK256 DUP3 DUP2 SLOAD DUP2 LT PUSH2 0x66F JUMPI PUSH2 0x66E PUSH2 0x253D JUMP JUMPDEST JUMPDEST SWAP1 PUSH0 MSTORE PUSH1 0x20 PUSH0 KECCAK256 ADD PUSH0 PUSH2 0x100 EXP DUP2 SLOAD DUP2 PUSH20 0xFFFFFFFFFFFFFFFFFFFFFFFFFFFFFFFFFFFFFFFF MUL NOT AND SWAP1 DUP4 PUSH20 0xFFFFFFFFFFFFFFFFFFFFFFFFFFFFFFFFFFFFFFFF AND MUL OR SWAP1 SSTORE POP PUSH1 0x2 PUSH0 DUP7 DUP2 MSTORE PUSH1 0x20 ADD SWAP1 DUP2 MSTORE PUSH1 0x20 ADD PUSH0 KECCAK256 DUP1 SLOAD DUP1 PUSH2 0x6D5 JUMPI PUSH2 0x6D4 PUSH2 0x259D JUMP JUMPDEST JUMPDEST PUSH1 0x1 SWAP1 SUB DUP2 DUP2 SWAP1 PUSH0 MSTORE PUSH1 0x20 PUSH0 KECCAK256 ADD PUSH0 PUSH2 0x100 EXP DUP2 SLOAD SWAP1 PUSH20 0xFFFFFFFFFFFFFFFFFFFFFFFFFFFFFFFFFFFFFFFF MUL NOT AND SWAP1 SSTORE SWAP1 SSTORE PUSH2 0x71F JUMP JUMPDEST DUP1 DUP1 PUSH2 0x717 SWAP1 PUSH2 0x25CA JUMP JUMPDEST SWAP2 POP POP PUSH2 0x570 JUMP JUMPDEST POP POP POP POP POP JUMP JUMPDEST PUSH1 0x3 PUSH1 0x20 MSTORE DUP1 PUSH0 MSTORE PUSH1 0x40 PUSH0 KECCAK256 PUSH0 SWAP2 POP SLOAD SWAP1 PUSH2 0x100 EXP SWAP1 DIV PUSH20 0xFFFFFFFFFFFFFFFFFFFFFFFFFFFFFFFFFFFFFFFF AND DUP2 JUMP JUMPDEST PUSH2 0x75F DUP2 PUSH2 0x1CC1 JUMP JUMPDEST PUSH2 0x7A0 JUMPI DUP1 PUSH1 0x40 MLOAD PUSH32 0xE286343900000000000000000000000000000000000000000000000000000000 DUP2 MSTORE PUSH1 0x4 ADD PUSH2 0x797 SWAP2 SWAP1 PUSH2 0x24D0 JUMP JUMPDEST PUSH1 0x40 MLOAD DUP1 SWAP2 SUB SWAP1 REVERT JUMPDEST PUSH0 DUP1 PUSH0 DUP4 DUP2 MSTORE PUSH1 0x20 ADD SWAP1 DUP2 MSTORE PUSH1 0x20 ADD PUSH0 KECCAK256 SWAP1 POP DUP1 PUSH0 ADD PUSH0 SWAP1 SLOAD SWAP1 PUSH2 0x100 EXP SWAP1 DIV PUSH20 0xFFFFFFFFFFFFFFFFFFFFFFFFFFFFFFFFFFFFFFFF AND PUSH20 0xFFFFFFFFFFFFFFFFFFFFFFFFFFFFFFFFFFFFFFFF AND CALLER PUSH20 0xFFFFFFFFFFFFFFFFFFFFFFFFFFFFFFFFFFFFFFFF AND SUB PUSH2 0x845 JUMPI DUP2 PUSH1 0x40 MLOAD PUSH32 0xC55D8C8200000000000000000000000000000000000000000000000000000000 DUP2 MSTORE PUSH1 0x4 ADD PUSH2 0x83C SWAP2 SWAP1 PUSH2 0x24D0 JUMP JUMPDEST PUSH1 0x40 MLOAD DUP1 SWAP2 SUB SWAP1 REVERT JUMPDEST PUSH0 PUSH1 0x2 DUP2 GT ISZERO PUSH2 0x858 JUMPI PUSH2 0x857 PUSH2 0x204A JUMP JUMPDEST JUMPDEST DUP2 PUSH1 0x2 ADD PUSH0 SWAP1 SLOAD SWAP1 PUSH2 0x100 EXP SWAP1 DIV PUSH1 0xFF AND PUSH1 0x2 DUP2 GT ISZERO PUSH2 0x87B JUMPI PUSH2 0x87A PUSH2 0x204A JUMP JUMPDEST JUMPDEST EQ PUSH2 0x8BD JUMPI DUP2 PUSH1 0x40 MLOAD PUSH32 0xD528E2AF00000000000000000000000000000000000000000000000000000000 DUP2 MSTORE PUSH1 0x4 ADD PUSH2 0x8B4 SWAP2 SWAP1 PUSH2 0x24D0 JUMP JUMPDEST PUSH1 0x40 MLOAD DUP1 SWAP2 SUB SWAP1 REVERT JUMPDEST DUP1 PUSH1 0x3 ADD SLOAD DUP2 PUSH1 0x5 ADD SLOAD LT PUSH2 0x909 JUMPI DUP2 PUSH1 0x40 MLOAD PUSH32 0x495000C000000000000000000000000000000000000000000000000000000000 DUP2 MSTORE PUSH1 0x4 ADD PUSH2 0x900 SWAP2 SWAP1 PUSH2 0x24D0 JUMP JUMPDEST PUSH1 0x40 MLOAD DUP1 SWAP2 SUB SWAP1 REVERT JUMPDEST PUSH0 PUSH1 0x1 PUSH0 DUP5 DUP2 MSTORE PUSH1 0x20 ADD SWAP1 DUP2 MSTORE PUSH1 0x20 ADD PUSH0 KECCAK256 PUSH0 CALLER PUSH20 0xFFFFFFFFFFFFFFFFFFFFFFFFFFFFFFFFFFFFFFFF AND PUSH20 0xFFFFFFFFFFFFFFFFFFFFFFFFFFFFFFFFFFFFFFFF AND DUP2 MSTORE PUSH1 0x20 ADD SWAP1 DUP2 MSTORE PUSH1 0x20 ADD PUSH0 KECCAK256 PUSH0 SWAP1 SLOAD SWAP1 PUSH2 0x100 EXP SWAP1 DIV PUSH1 0xFF AND SWAP1 POP DUP1 ISZERO PUSH2 0x9A8 JUMPI DUP3 PUSH1 0x40 MLOAD PUSH32 0x2CBC17500000000000000000000000000000000000000000000000000000000 DUP2 MSTORE PUSH1 0x4 ADD PUSH2 0x99F SWAP2 SWAP1 PUSH2 0x24D0 JUMP JUMPDEST PUSH1 0x40 MLOAD DUP1 SWAP2 SUB SWAP1 REVERT JUMPDEST PUSH1 0x1 DUP1 PUSH0 DUP6 DUP2 MSTORE PUSH1 0x20 ADD SWAP1 DUP2 MSTORE PUSH1 0x20 ADD PUSH0 KECCAK256 PUSH0 CALLER PUSH20 0xFFFFFFFFFFFFFFFFFFFFFFFFFFFFFFFFFFFFFFFF AND PUSH20 0xFFFFFFFFFFFFFFFFFFFFFFFFFFFFFFFFFFFFFFFF AND DUP2 MSTORE PUSH1 0x20 ADD SWAP1 DUP2 MSTORE PUSH1 0x20 ADD PUSH0 KECCAK256 PUSH0 PUSH2 0x100 EXP DUP2 SLOAD DUP2 PUSH1 0xFF MUL NOT AND SWAP1 DUP4 ISZERO ISZERO MUL OR SWAP1 SSTORE POP DUP2 PUSH1 0x5 ADD PUSH0 DUP2 SLOAD DUP1 SWAP3 SWAP2 SWAP1 PUSH2 0xA1F SWAP1 PUSH2 0x25CA JUMP JUMPDEST SWAP2 SWAP1 POP SSTORE POP PUSH1 0x2 PUSH0 DUP5 DUP2 MSTORE PUSH1 0x20 ADD SWAP1 DUP2 MSTORE PUSH1 0x20 ADD PUSH0 KECCAK256 CALLER SWAP1 DUP1 PUSH1 0x1 DUP2 SLOAD ADD DUP1 DUP3 SSTORE DUP1 SWAP2 POP POP PUSH1 0x1 SWAP1 SUB SWAP1 PUSH0 MSTORE PUSH1 0x20 PUSH0 KECCAK256 ADD PUSH0 SWAP1 SWAP2 SWAP1 SWAP2 SWAP1 SWAP2 PUSH2 0x100 EXP DUP2 SLOAD DUP2 PUSH20 0xFFFFFFFFFFFFFFFFFFFFFFFFFFFFFFFFFFFFFFFF MUL NOT AND SWAP1 DUP4 PUSH20 0xFFFFFFFFFFFFFFFFFFFFFFFFFFFFFFFFFFFFFFFF AND MUL OR SWAP1 SSTORE POP POP POP POP JUMP JUMPDEST PUSH1 0x60 PUSH1 0x2 PUSH0 DUP4 DUP2 MSTORE PUSH1 0x20 ADD SWAP1 DUP2 MSTORE PUSH1 0x20 ADD PUSH0 KECCAK256 DUP1 SLOAD DUP1 PUSH1 0x20 MUL PUSH1 0x20 ADD PUSH1 0x40 MLOAD SWAP1 DUP2 ADD PUSH1 0x40 MSTORE DUP1 SWAP3 SWAP2 SWAP1 DUP2 DUP2 MSTORE PUSH1 0x20 ADD DUP3 DUP1 SLOAD DUP1 ISZERO PUSH2 0xB28 JUMPI PUSH1 0x20 MUL DUP3 ADD SWAP2 SWAP1 PUSH0 MSTORE PUSH1 0x20 PUSH0 KECCAK256 SWAP1 JUMPDEST DUP2 PUSH0 SWAP1 SLOAD SWAP1 PUSH2 0x100 EXP SWAP1 DIV PUSH20 0xFFFFFFFFFFFFFFFFFFFFFFFFFFFFFFFFFFFFFFFF AND PUSH20 0xFFFFFFFFFFFFFFFFFFFFFFFFFFFFFFFFFFFFFFFF AND DUP2 MSTORE PUSH1 0x20 ADD SWAP1 PUSH1 0x1 ADD SWAP1 DUP1 DUP4 GT PUSH2 0xADF JUMPI JUMPDEST POP POP POP POP POP SWAP1 POP SWAP2 SWAP1 POP JUMP JUMPDEST PUSH32 0x0 DUP2 JUMP JUMPDEST DUP1 PUSH2 0xB62 DUP2 PUSH2 0x1CC1 JUMP JUMPDEST PUSH2 0xBA3 JUMPI DUP1 PUSH1 0x40 MLOAD PUSH32 0xE286343900000000000000000000000000000000000000000000000000000000 DUP2 MSTORE PUSH1 0x4 ADD PUSH2 0xB9A SWAP2 SWAP1 PUSH2 0x24D0 JUMP JUMPDEST PUSH1 0x40 MLOAD DUP1 SWAP2 SUB SWAP1 REVERT JUMPDEST PUSH0 DUP1 DUP3 DUP2 MSTORE PUSH1 0x20 ADD SWAP1 DUP2 MSTORE PUSH1 0x20 ADD PUSH0 KECCAK256 PUSH0 ADD PUSH0 SWAP1 SLOAD SWAP1 PUSH2 0x100 EXP SWAP1 DIV PUSH20 0xFFFFFFFFFFFFFFFFFFFFFFFFFFFFFFFFFFFFFFFF AND PUSH20 0xFFFFFFFFFFFFFFFFFFFFFFFFFFFFFFFFFFFFFFFF AND CALLER PUSH20 0xFFFFFFFFFFFFFFFFFFFFFFFFFFFFFFFFFFFFFFFF AND EQ PUSH2 0xC44 JUMPI CALLER PUSH1 0x40 MLOAD PUSH32 0xD68AFFB700000000000000000000000000000000000000000000000000000000 DUP2 MSTORE PUSH1 0x4 ADD PUSH2 0xC3B SWAP2 SWAP1 PUSH2 0x1EC4 JUMP JUMPDEST PUSH1 0x40 MLOAD DUP1 SWAP2 SUB SWAP1 REVERT JUMPDEST PUSH0 DUP1 PUSH0 DUP5 DUP2 MSTORE PUSH1 0x20 ADD SWAP1 DUP2 MSTORE PUSH1 0x20 ADD PUSH0 KECCAK256 SWAP1 POP PUSH0 PUSH1 0x2 DUP2 GT ISZERO PUSH2 0xC6A JUMPI PUSH2 0xC69 PUSH2 0x204A JUMP JUMPDEST JUMPDEST DUP2 PUSH1 0x2 ADD PUSH0 SWAP1 SLOAD SWAP1 PUSH2 0x100 EXP SWAP1 DIV PUSH1 0xFF AND PUSH1 0x2 DUP2 GT ISZERO PUSH2 0xC8D JUMPI PUSH2 0xC8C PUSH2 0x204A JUMP JUMPDEST JUMPDEST EQ PUSH2 0xCCF JUMPI DUP3 PUSH1 0x40 MLOAD PUSH32 0xD528E2AF00000000000000000000000000000000000000000000000000000000 DUP2 MSTORE PUSH1 0x4 ADD PUSH2 0xCC6 SWAP2 SWAP1 PUSH2 0x24D0 JUMP JUMPDEST PUSH1 0x40 MLOAD DUP1 SWAP2 SUB SWAP1 REVERT JUMPDEST DUP1 PUSH1 0x4 ADD SLOAD DUP2 PUSH1 0x5 ADD SLOAD GT PUSH2 0xD1B JUMPI DUP3 PUSH1 0x40 MLOAD PUSH32 0x2CF3C5C700000000000000000000000000000000000000000000000000000000 DUP2 MSTORE PUSH1 0x4 ADD PUSH2 0xD12 SWAP2 SWAP1 PUSH2 0x24D0 JUMP JUMPDEST PUSH1 0x40 MLOAD DUP1 SWAP2 SUB SWAP1 REVERT JUMPDEST PUSH1 0x2 DUP2 PUSH1 0x2 ADD PUSH0 PUSH2 0x100 EXP DUP2 SLOAD DUP2 PUSH1 0xFF MUL NOT AND SWAP1 DUP4 PUSH1 0x2 DUP2 GT ISZERO PUSH2 0xD42 JUMPI PUSH2 0xD41 PUSH2 0x204A JUMP JUMPDEST JUMPDEST MUL OR SWAP1 SSTORE POP POP POP POP JUMP JUMPDEST DUP1 PUSH2 0xD56 DUP2 PUSH2 0x1CC1 JUMP JUMPDEST PUSH2 0xD97 JUMPI DUP1 PUSH1 0x40 MLOAD PUSH32 0xE286343900000000000000000000000000000000000000000000000000000000 DUP2 MSTORE PUSH1 0x4 ADD PUSH2 0xD8E SWAP2 SWAP1 PUSH2 0x24D0 JUMP JUMPDEST PUSH1 0x40 MLOAD DUP1 SWAP2 SUB SWAP1 REVERT JUMPDEST PUSH0 DUP1 DUP3 DUP2 MSTORE PUSH1 0x20 ADD SWAP1 DUP2 MSTORE PUSH1 0x20 ADD PUSH0 KECCAK256 PUSH0 ADD PUSH0 SWAP1 SLOAD SWAP1 PUSH2 0x100 EXP SWAP1 DIV PUSH20 0xFFFFFFFFFFFFFFFFFFFFFFFFFFFFFFFFFFFFFFFF AND PUSH20 0xFFFFFFFFFFFFFFFFFFFFFFFFFFFFFFFFFFFFFFFF AND CALLER PUSH20 0xFFFFFFFFFFFFFFFFFFFFFFFFFFFFFFFFFFFFFFFF AND EQ PUSH2 0xE38 JUMPI CALLER PUSH1 0x40 MLOAD PUSH32 0xD68AFFB700000000000000000000000000000000000000000000000000000000 DUP2 MSTORE PUSH1 0x4 ADD PUSH2 0xE2F SWAP2 SWAP1 PUSH2 0x1EC4 JUMP JUMPDEST PUSH1 0x40 MLOAD DUP1 SWAP2 SUB SWAP1 REVERT JUMPDEST PUSH0 DUP1 PUSH0 DUP5 DUP2 MSTORE PUSH1 0x20 ADD SWAP1 DUP2 MSTORE PUSH1 0x20 ADD PUSH0 KECCAK256 SWAP1 POP PUSH0 PUSH1 0x2 DUP2 GT ISZERO PUSH2 0xE5E JUMPI PUSH2 0xE5D PUSH2 0x204A JUMP JUMPDEST JUMPDEST DUP2 PUSH1 0x2 ADD PUSH0 SWAP1 SLOAD SWAP1 PUSH2 0x100 EXP SWAP1 DIV PUSH1 0xFF AND PUSH1 0x2 DUP2 GT ISZERO PUSH2 0xE81 JUMPI PUSH2 0xE80 PUSH2 0x204A JUMP JUMPDEST JUMPDEST EQ PUSH2 0xEC3 JUMPI DUP3 PUSH1 0x40 MLOAD PUSH32 0xD528E2AF00000000000000000000000000000000000000000000000000000000 DUP2 MSTORE PUSH1 0x4 ADD PUSH2 0xEBA SWAP2 SWAP1 PUSH2 0x24D0 JUMP JUMPDEST PUSH1 0x40 MLOAD DUP1 SWAP2 SUB SWAP1 REVERT JUMPDEST PUSH0 DUP2 PUSH1 0x1 ADD SLOAD SWAP1 POP PUSH0 DUP3 PUSH1 0x1 ADD DUP2 SWAP1 SSTORE POP PUSH1 0x1 DUP3 PUSH1 0x2 ADD PUSH0 PUSH2 0x100 EXP DUP2 SLOAD DUP2 PUSH1 0xFF MUL NOT AND SWAP1 DUP4 PUSH1 0x2 DUP2 GT ISZERO PUSH2 0xEFB JUMPI PUSH2 0xEFA PUSH2 0x204A JUMP JUMPDEST JUMPDEST MUL OR SWAP1 SSTORE POP PUSH0 DUP2 GT ISZERO PUSH2 0xFD4 JUMPI PUSH0 DUP3 PUSH0 ADD PUSH0 SWAP1 SLOAD SWAP1 PUSH2 0x100 EXP SWAP1 DIV PUSH20 0xFFFFFFFFFFFFFFFFFFFFFFFFFFFFFFFFFFFFFFFF AND PUSH20 0xFFFFFFFFFFFFFFFFFFFFFFFFFFFFFFFFFFFFFFFF AND DUP3 PUSH1 0x40 MLOAD PUSH2 0xF4F SWAP1 PUSH2 0x263E JUMP JUMPDEST PUSH0 PUSH1 0x40 MLOAD DUP1 DUP4 SUB DUP2 DUP6 DUP8 GAS CALL SWAP3 POP POP POP RETURNDATASIZE DUP1 PUSH0 DUP2 EQ PUSH2 0xF89 JUMPI PUSH1 0x40 MLOAD SWAP2 POP PUSH1 0x1F NOT PUSH1 0x3F RETURNDATASIZE ADD AND DUP3 ADD PUSH1 0x40 MSTORE RETURNDATASIZE DUP3 MSTORE RETURNDATASIZE PUSH0 PUSH1 0x20 DUP5 ADD RETURNDATACOPY PUSH2 0xF8E JUMP JUMPDEST PUSH1 0x60 SWAP2 POP JUMPDEST POP POP SWAP1 POP DUP1 PUSH2 0xFD2 JUMPI PUSH1 0x40 MLOAD PUSH32 0x8C379A000000000000000000000000000000000000000000000000000000000 DUP2 MSTORE PUSH1 0x4 ADD PUSH2 0xFC9 SWAP1 PUSH2 0x269C JUMP JUMPDEST PUSH1 0x40 MLOAD DUP1 SWAP2 SUB SWAP1 REVERT JUMPDEST POP JUMPDEST POP POP POP POP JUMP JUMPDEST PUSH1 0x60 DUP1 PUSH0 PUSH1 0x4 PUSH0 DUP6 PUSH20 0xFFFFFFFFFFFFFFFFFFFFFFFFFFFFFFFFFFFFFFFF AND PUSH20 0xFFFFFFFFFFFFFFFFFFFFFFFFFFFFFFFFFFFFFFFF AND DUP2 MSTORE PUSH1 0x20 ADD SWAP1 DUP2 MSTORE PUSH1 0x20 ADD PUSH0 KECCAK256 DUP1 SLOAD DUP1 PUSH1 0x20 MUL PUSH1 0x20 ADD PUSH1 0x40 MLOAD SWAP1 DUP2 ADD PUSH1 0x40 MSTORE DUP1 SWAP3 SWAP2 SWAP1 DUP2 DUP2 MSTORE PUSH1 0x20 ADD DUP3 DUP1 SLOAD DUP1 ISZERO PUSH2 0x1063 JUMPI PUSH1 0x20 MUL DUP3 ADD SWAP2 SWAP1 PUSH0 MSTORE PUSH1 0x20 PUSH0 KECCAK256 SWAP1 JUMPDEST DUP2 SLOAD DUP2 MSTORE PUSH1 0x20 ADD SWAP1 PUSH1 0x1 ADD SWAP1 DUP1 DUP4 GT PUSH2 0x104F JUMPI JUMPDEST POP POP POP POP POP SWAP1 POP PUSH0 DUP2 MLOAD PUSH8 0xFFFFFFFFFFFFFFFF DUP2 GT ISZERO PUSH2 0x1086 JUMPI PUSH2 0x1085 PUSH2 0x26BA JUMP JUMPDEST JUMPDEST PUSH1 0x40 MLOAD SWAP1 DUP1 DUP3 MSTORE DUP1 PUSH1 0x20 MUL PUSH1 0x20 ADD DUP3 ADD PUSH1 0x40 MSTORE DUP1 ISZERO PUSH2 0x10BF JUMPI DUP2 PUSH1 0x20 ADD JUMPDEST PUSH2 0x10AC PUSH2 0x1D2A JUMP JUMPDEST DUP2 MSTORE PUSH1 0x20 ADD SWAP1 PUSH1 0x1 SWAP1 SUB SWAP1 DUP2 PUSH2 0x10A4 JUMPI SWAP1 POP JUMPDEST POP SWAP1 POP PUSH0 JUMPDEST DUP3 MLOAD DUP2 LT ISZERO PUSH2 0x1256 JUMPI PUSH0 DUP1 DUP5 DUP4 DUP2 MLOAD DUP2 LT PUSH2 0x10E2 JUMPI PUSH2 0x10E1 PUSH2 0x253D JUMP JUMPDEST JUMPDEST PUSH1 0x20 MUL PUSH1 0x20 ADD ADD MLOAD DUP2 MSTORE PUSH1 0x20 ADD SWAP1 DUP2 MSTORE PUSH1 0x20 ADD PUSH0 KECCAK256 PUSH1 0x40 MLOAD DUP1 PUSH2 0x100 ADD PUSH1 0x40 MSTORE SWAP1 DUP2 PUSH0 DUP3 ADD PUSH0 SWAP1 SLOAD SWAP1 PUSH2 0x100 EXP SWAP1 DIV PUSH20 0xFFFFFFFFFFFFFFFFFFFFFFFFFFFFFFFFFFFFFFFF AND PUSH20 0xFFFFFFFFFFFFFFFFFFFFFFFFFFFFFFFFFFFFFFFF AND PUSH20 0xFFFFFFFFFFFFFFFFFFFFFFFFFFFFFFFFFFFFFFFF AND DUP2 MSTORE PUSH1 0x20 ADD PUSH1 0x1 DUP3 ADD SLOAD DUP2 MSTORE PUSH1 0x20 ADD PUSH1 0x2 DUP3 ADD PUSH0 SWAP1 SLOAD SWAP1 PUSH2 0x100 EXP SWAP1 DIV PUSH1 0xFF AND PUSH1 0x2 DUP2 GT ISZERO PUSH2 0x1185 JUMPI PUSH2 0x1184 PUSH2 0x204A JUMP JUMPDEST JUMPDEST PUSH1 0x2 DUP2 GT ISZERO PUSH2 0x1197 JUMPI PUSH2 0x1196 PUSH2 0x204A JUMP JUMPDEST JUMPDEST DUP2 MSTORE PUSH1 0x20 ADD PUSH1 0x2 DUP3 ADD PUSH1 0x1 SWAP1 SLOAD SWAP1 PUSH2 0x100 EXP SWAP1 DIV PUSH1 0xFF AND PUSH1 0x1 DUP2 GT ISZERO PUSH2 0x11C0 JUMPI PUSH2 0x11BF PUSH2 0x204A JUMP JUMPDEST JUMPDEST PUSH1 0x1 DUP2 GT ISZERO PUSH2 0x11D2 JUMPI PUSH2 0x11D1 PUSH2 0x204A JUMP JUMPDEST JUMPDEST DUP2 MSTORE PUSH1 0x20 ADD PUSH1 0x3 DUP3 ADD SLOAD DUP2 MSTORE PUSH1 0x20 ADD PUSH1 0x4 DUP3 ADD SLOAD DUP2 MSTORE PUSH1 0x20 ADD PUSH1 0x5 DUP3 ADD SLOAD DUP2 MSTORE PUSH1 0x20 ADD PUSH1 0x6 DUP3 ADD PUSH0 SWAP1 SLOAD SWAP1 PUSH2 0x100 EXP SWAP1 DIV PUSH8 0xFFFFFFFFFFFFFFFF AND PUSH8 0xFFFFFFFFFFFFFFFF AND PUSH8 0xFFFFFFFFFFFFFFFF AND DUP2 MSTORE POP POP DUP3 DUP3 DUP2 MLOAD DUP2 LT PUSH2 0x1238 JUMPI PUSH2 0x1237 PUSH2 0x253D JUMP JUMPDEST JUMPDEST PUSH1 0x20 MUL PUSH1 0x20 ADD ADD DUP2 SWAP1 MSTORE POP DUP1 DUP1 PUSH2 0x124E SWAP1 PUSH2 0x25CA JUMP JUMPDEST SWAP2 POP POP PUSH2 0x10C4 JUMP JUMPDEST POP DUP1 DUP3 SWAP4 POP SWAP4 POP POP POP SWAP2 POP SWAP2 JUMP JUMPDEST DUP1 PUSH2 0x126E DUP2 PUSH2 0x1CC1 JUMP JUMPDEST PUSH2 0x12AF JUMPI DUP1 PUSH1 0x40 MLOAD PUSH32 0xE286343900000000000000000000000000000000000000000000000000000000 DUP2 MSTORE PUSH1 0x4 ADD PUSH2 0x12A6 SWAP2 SWAP1 PUSH2 0x24D0 JUMP JUMPDEST PUSH1 0x40 MLOAD DUP1 SWAP2 SUB SWAP1 REVERT JUMPDEST PUSH0 DUP1 DUP3 DUP2 MSTORE PUSH1 0x20 ADD SWAP1 DUP2 MSTORE PUSH1 0x20 ADD PUSH0 KECCAK256 PUSH0 ADD PUSH0 SWAP1 SLOAD SWAP1 PUSH2 0x100 EXP SWAP1 DIV PUSH20 0xFFFFFFFFFFFFFFFFFFFFFFFFFFFFFFFFFFFFFFFF AND PUSH20 0xFFFFFFFFFFFFFFFFFFFFFFFFFFFFFFFFFFFFFFFF AND CALLER PUSH20 0xFFFFFFFFFFFFFFFFFFFFFFFFFFFFFFFFFFFFFFFF AND EQ PUSH2 0x1350 JUMPI CALLER PUSH1 0x40 MLOAD PUSH32 0xD68AFFB700000000000000000000000000000000000000000000000000000000 DUP2 MSTORE PUSH1 0x4 ADD PUSH2 0x1347 SWAP2 SWAP1 PUSH2 0x1EC4 JUMP JUMPDEST PUSH1 0x40 MLOAD DUP1 SWAP2 SUB SWAP1 REVERT JUMPDEST PUSH2 0x1359 DUP3 PUSH2 0x1CC1 JUMP JUMPDEST PUSH2 0x139A JUMPI DUP2 PUSH1 0x40 MLOAD PUSH32 0xE286343900000000000000000000000000000000000000000000000000000000 DUP2 MSTORE PUSH1 0x4 ADD PUSH2 0x1391 SWAP2 SWAP1 PUSH2 0x24D0 JUMP JUMPDEST PUSH1 0x40 MLOAD DUP1 SWAP2 SUB SWAP1 REVERT JUMPDEST PUSH0 DUP1 PUSH0 DUP5 DUP2 MSTORE PUSH1 0x20 ADD SWAP1 DUP2 MSTORE PUSH1 0x20 ADD PUSH0 KECCAK256 SWAP1 POP PUSH0 PUSH1 0x2 DUP2 GT ISZERO PUSH2 0x13C0 JUMPI PUSH2 0x13BF PUSH2 0x204A JUMP JUMPDEST JUMPDEST DUP2 PUSH1 0x2 ADD PUSH0 SWAP1 SLOAD SWAP1 PUSH2 0x100 EXP SWAP1 DIV PUSH1 0xFF AND PUSH1 0x2 DUP2 GT ISZERO PUSH2 0x13E3 JUMPI PUSH2 0x13E2 PUSH2 0x204A JUMP JUMPDEST JUMPDEST EQ PUSH2 0x1425 JUMPI DUP3 PUSH1 0x40 MLOAD PUSH32 0xD528E2AF00000000000000000000000000000000000000000000000000000000 DUP2 MSTORE PUSH1 0x4 ADD PUSH2 0x141C SWAP2 SWAP1 PUSH2 0x24D0 JUMP JUMPDEST PUSH1 0x40 MLOAD DUP1 SWAP2 SUB SWAP1 REVERT JUMPDEST PUSH0 CALLVALUE SUB PUSH2 0x145E JUMPI PUSH1 0x40 MLOAD PUSH32 0x600F7BF400000000000000000000000000000000000000000000000000000000 DUP2 MSTORE PUSH1 0x4 ADD PUSH1 0x40 MLOAD DUP1 SWAP2 SUB SWAP1 REVERT JUMPDEST CALLVALUE DUP2 PUSH1 0x1 ADD PUSH0 DUP3 DUP3 SLOAD PUSH2 0x1471 SWAP2 SWAP1 PUSH2 0x26E7 JUMP JUMPDEST SWAP3 POP POP DUP2 SWAP1 SSTORE POP POP POP POP JUMP JUMPDEST PUSH0 CALLVALUE SUB PUSH2 0x14B6 JUMPI PUSH1 0x40 MLOAD PUSH32 0x600F7BF400000000000000000000000000000000000000000000000000000000 DUP2 MSTORE PUSH1 0x4 ADD PUSH1 0x40 MLOAD DUP1 SWAP2 SUB SWAP1 REVERT JUMPDEST DUP3 DUP3 LT ISZERO PUSH2 0x14F0 JUMPI PUSH1 0x40 MLOAD PUSH32 0xB3B6029C00000000000000000000000000000000000000000000000000000000 DUP2 MSTORE PUSH1 0x4 ADD PUSH1 0x40 MLOAD DUP1 SWAP2 SUB SWAP1 REVERT JUMPDEST PUSH0 DUP4 SUB PUSH2 0x1529 JUMPI PUSH1 0x40 MLOAD PUSH32 0x530A986700000000000000000000000000000000000000000000000000000000 DUP2 MSTORE PUSH1 0x4 ADD PUSH1 0x40 MLOAD DUP1 SWAP2 SUB SWAP1 REVERT JUMPDEST PUSH0 DUP1 SHL DUP2 SUB PUSH2 0x1564 JUMPI PUSH1 0x40 MLOAD PUSH32 0x166CBDBE00000000000000000000000000000000000000000000000000000000 DUP2 MSTORE PUSH1 0x4 ADD PUSH1 0x40 MLOAD DUP1 SWAP2 SUB SWAP1 REVERT JUMPDEST PUSH2 0x156D DUP2 PUSH2 0x1CC1 JUMP JUMPDEST ISZERO PUSH2 0x15AF JUMPI DUP1 PUSH1 0x40 MLOAD PUSH32 0x4FEC90C500000000000000000000000000000000000000000000000000000000 DUP2 MSTORE PUSH1 0x4 ADD PUSH2 0x15A6 SWAP2 SWAP1 PUSH2 0x24D0 JUMP JUMPDEST PUSH1 0x40 MLOAD DUP1 SWAP2 SUB SWAP1 REVERT JUMPDEST PUSH1 0x40 MLOAD DUP1 PUSH2 0x100 ADD PUSH1 0x40 MSTORE DUP1 CALLER PUSH20 0xFFFFFFFFFFFFFFFFFFFFFFFFFFFFFFFFFFFFFFFF AND DUP2 MSTORE PUSH1 0x20 ADD CALLVALUE DUP2 MSTORE PUSH1 0x20 ADD PUSH0 PUSH1 0x2 DUP2 GT ISZERO PUSH2 0x15F0 JUMPI PUSH2 0x15EF PUSH2 0x204A JUMP JUMPDEST JUMPDEST DUP2 MSTORE PUSH1 0x20 ADD PUSH1 0x1 DUP1 DUP2 GT ISZERO PUSH2 0x1608 JUMPI PUSH2 0x1607 PUSH2 0x204A JUMP JUMPDEST JUMPDEST DUP2 MSTORE PUSH1 0x20 ADD DUP4 DUP2 MSTORE PUSH1 0x20 ADD DUP5 DUP2 MSTORE PUSH1 0x20 ADD PUSH0 DUP2 MSTORE PUSH1 0x20 ADD TIMESTAMP PUSH8 0xFFFFFFFFFFFFFFFF AND DUP2 MSTORE POP PUSH0 DUP1 DUP4 DUP2 MSTORE PUSH1 0x20 ADD SWAP1 DUP2 MSTORE PUSH1 0x20 ADD PUSH0 KECCAK256 PUSH0 DUP3 ADD MLOAD DUP2 PUSH0 ADD PUSH0 PUSH2 0x100 EXP DUP2 SLOAD DUP2 PUSH20 0xFFFFFFFFFFFFFFFFFFFFFFFFFFFFFFFFFFFFFFFF MUL NOT AND SWAP1 DUP4 PUSH20 0xFFFFFFFFFFFFFFFFFFFFFFFFFFFFFFFFFFFFFFFF AND MUL OR SWAP1 SSTORE POP PUSH1 0x20 DUP3 ADD MLOAD DUP2 PUSH1 0x1 ADD SSTORE PUSH1 0x40 DUP3 ADD MLOAD DUP2 PUSH1 0x2 ADD PUSH0 PUSH2 0x100 EXP DUP2 SLOAD DUP2 PUSH1 0xFF MUL NOT AND SWAP1 DUP4 PUSH1 0x2 DUP2 GT ISZERO PUSH2 0x16B5 JUMPI PUSH2 0x16B4 PUSH2 0x204A JUMP JUMPDEST JUMPDEST MUL OR SWAP1 SSTORE POP PUSH1 0x60 DUP3 ADD MLOAD DUP2 PUSH1 0x2 ADD PUSH1 0x1 PUSH2 0x100 EXP DUP2 SLOAD DUP2 PUSH1 0xFF MUL NOT AND SWAP1 DUP4 PUSH1 0x1 DUP2 GT ISZERO PUSH2 0x16E5 JUMPI PUSH2 0x16E4 PUSH2 0x204A JUMP JUMPDEST JUMPDEST MUL OR SWAP1 SSTORE POP PUSH1 0x80 DUP3 ADD MLOAD DUP2 PUSH1 0x3 ADD SSTORE PUSH1 0xA0 DUP3 ADD MLOAD DUP2 PUSH1 0x4 ADD SSTORE PUSH1 0xC0 DUP3 ADD MLOAD DUP2 PUSH1 0x5 ADD SSTORE PUSH1 0xE0 DUP3 ADD MLOAD DUP2 PUSH1 0x6 ADD PUSH0 PUSH2 0x100 EXP DUP2 SLOAD DUP2 PUSH8 0xFFFFFFFFFFFFFFFF MUL NOT AND SWAP1 DUP4 PUSH8 0xFFFFFFFFFFFFFFFF AND MUL OR SWAP1 SSTORE POP SWAP1 POP POP PUSH1 0x4 PUSH0 CALLER PUSH20 0xFFFFFFFFFFFFFFFFFFFFFFFFFFFFFFFFFFFFFFFF AND PUSH20 0xFFFFFFFFFFFFFFFFFFFFFFFFFFFFFFFFFFFFFFFF AND DUP2 MSTORE PUSH1 0x20 ADD SWAP1 DUP2 MSTORE PUSH1 0x20 ADD PUSH0 KECCAK256 DUP2 SWAP1 DUP1 PUSH1 0x1 DUP2 SLOAD ADD DUP1 DUP3 SSTORE DUP1 SWAP2 POP POP PUSH1 0x1 SWAP1 SUB SWAP1 PUSH0 MSTORE PUSH1 0x20 PUSH0 KECCAK256 ADD PUSH0 SWAP1 SWAP2 SWAP1 SWAP2 SWAP1 SWAP2 POP SSTORE POP POP POP JUMP JUMPDEST DUP2 PUSH2 0x17A9 DUP2 PUSH2 0x1CC1 JUMP JUMPDEST PUSH2 0x17EA JUMPI DUP1 PUSH1 0x40 MLOAD PUSH32 0xE286343900000000000000000000000000000000000000000000000000000000 DUP2 MSTORE PUSH1 0x4 ADD PUSH2 0x17E1 SWAP2 SWAP1 PUSH2 0x24D0 JUMP JUMPDEST PUSH1 0x40 MLOAD DUP1 SWAP2 SUB SWAP1 REVERT JUMPDEST PUSH0 DUP1 DUP3 DUP2 MSTORE PUSH1 0x20 ADD SWAP1 DUP2 MSTORE PUSH1 0x20 ADD PUSH0 KECCAK256 PUSH0 ADD PUSH0 SWAP1 SLOAD SWAP1 PUSH2 0x100 EXP SWAP1 DIV PUSH20 0xFFFFFFFFFFFFFFFFFFFFFFFFFFFFFFFFFFFFFFFF AND PUSH20 0xFFFFFFFFFFFFFFFFFFFFFFFFFFFFFFFFFFFFFFFF AND CALLER PUSH20 0xFFFFFFFFFFFFFFFFFFFFFFFFFFFFFFFFFFFFFFFF AND EQ PUSH2 0x188B JUMPI CALLER PUSH1 0x40 MLOAD PUSH32 0xD68AFFB700000000000000000000000000000000000000000000000000000000 DUP2 MSTORE PUSH1 0x4 ADD PUSH2 0x1882 SWAP2 SWAP1 PUSH2 0x1EC4 JUMP JUMPDEST PUSH1 0x40 MLOAD DUP1 SWAP2 SUB SWAP1 REVERT JUMPDEST PUSH0 DUP1 PUSH0 DUP6 DUP2 MSTORE PUSH1 0x20 ADD SWAP1 DUP2 MSTORE PUSH1 0x20 ADD PUSH0 KECCAK256 SWAP1 POP PUSH1 0x2 DUP1 DUP2 GT ISZERO PUSH2 0x18B1 JUMPI PUSH2 0x18B0 PUSH2 0x204A JUMP JUMPDEST JUMPDEST DUP2 PUSH1 0x2 ADD PUSH0 SWAP1 SLOAD SWAP1 PUSH2 0x100 EXP SWAP1 DIV PUSH1 0xFF AND PUSH1 0x2 DUP2 GT ISZERO PUSH2 0x18D4 JUMPI PUSH2 0x18D3 PUSH2 0x204A JUMP JUMPDEST JUMPDEST EQ PUSH2 0x1916 JUMPI DUP4 PUSH1 0x40 MLOAD PUSH32 0xD750F8D900000000000000000000000000000000000000000000000000000000 DUP2 MSTORE PUSH1 0x4 ADD PUSH2 0x190D SWAP2 SWAP1 PUSH2 0x24D0 JUMP JUMPDEST PUSH1 0x40 MLOAD DUP1 SWAP2 SUB SWAP1 REVERT JUMPDEST PUSH0 PUSH20 0xFFFFFFFFFFFFFFFFFFFFFFFFFFFFFFFFFFFFFFFF AND DUP4 PUSH20 0xFFFFFFFFFFFFFFFFFFFFFFFFFFFFFFFFFFFFFFFF AND SUB PUSH2 0x1986 JUMPI DUP4 PUSH1 0x40 MLOAD PUSH32 0xFE23EA1F00000000000000000000000000000000000000000000000000000000 DUP2 MSTORE PUSH1 0x4 ADD PUSH2 0x197D SWAP2 SWAP1 PUSH2 0x24D0 JUMP JUMPDEST PUSH1 0x40 MLOAD DUP1 SWAP2 SUB SWAP1 REVERT JUMPDEST PUSH1 0x1 PUSH0 DUP6 DUP2 MSTORE PUSH1 0x20 ADD SWAP1 DUP2 MSTORE PUSH1 0x20 ADD PUSH0 KECCAK256 PUSH0 DUP5 PUSH20 0xFFFFFFFFFFFFFFFFFFFFFFFFFFFFFFFFFFFFFFFF AND PUSH20 0xFFFFFFFFFFFFFFFFFFFFFFFFFFFFFFFFFFFFFFFF AND DUP2 MSTORE PUSH1 0x20 ADD SWAP1 DUP2 MSTORE PUSH1 0x20 ADD PUSH0 KECCAK256 PUSH0 SWAP1 SLOAD SWAP1 PUSH2 0x100 EXP SWAP1 DIV PUSH1 0xFF AND PUSH2 0x1A22 JUMPI DUP4 DUP4 PUSH1 0x40 MLOAD PUSH32 0xE66163EB00000000000000000000000000000000000000000000000000000000 DUP2 MSTORE PUSH1 0x4 ADD PUSH2 0x1A19 SWAP3 SWAP2 SWAP1 PUSH2 0x271A JUMP JUMPDEST PUSH1 0x40 MLOAD DUP1 SWAP2 SUB SWAP1 REVERT JUMPDEST PUSH0 DUP2 PUSH1 0x1 ADD SLOAD SWAP1 POP PUSH0 DUP2 GT PUSH2 0x1A6C JUMPI PUSH1 0x40 MLOAD PUSH32 0x8C379A000000000000000000000000000000000000000000000000000000000 DUP2 MSTORE PUSH1 0x4 ADD PUSH2 0x1A63 SWAP1 PUSH2 0x278B JUMP JUMPDEST PUSH1 0x40 MLOAD DUP1 SWAP2 SUB SWAP1 REVERT JUMPDEST DUP4 PUSH1 0x3 PUSH0 DUP8 DUP2 MSTORE PUSH1 0x20 ADD SWAP1 DUP2 MSTORE PUSH1 0x20 ADD PUSH0 KECCAK256 PUSH0 PUSH2 0x100 EXP DUP2 SLOAD DUP2 PUSH20 0xFFFFFFFFFFFFFFFFFFFFFFFFFFFFFFFFFFFFFFFF MUL NOT AND SWAP1 DUP4 PUSH20 0xFFFFFFFFFFFFFFFFFFFFFFFFFFFFFFFFFFFFFFFF AND MUL OR SWAP1 SSTORE POP PUSH1 0x1 DUP3 PUSH1 0x2 ADD PUSH0 PUSH2 0x100 EXP DUP2 SLOAD DUP2 PUSH1 0xFF MUL NOT AND SWAP1 DUP4 PUSH1 0x2 DUP2 GT ISZERO PUSH2 0x1AE2 JUMPI PUSH2 0x1AE1 PUSH2 0x204A JUMP JUMPDEST JUMPDEST MUL OR SWAP1 SSTORE POP PUSH0 DUP3 PUSH1 0x1 ADD DUP2 SWAP1 SSTORE POP PUSH0 DUP5 PUSH20 0xFFFFFFFFFFFFFFFFFFFFFFFFFFFFFFFFFFFFFFFF AND DUP3 PUSH1 0x40 MLOAD PUSH2 0x1B15 SWAP1 PUSH2 0x263E JUMP JUMPDEST PUSH0 PUSH1 0x40 MLOAD DUP1 DUP4 SUB DUP2 DUP6 DUP8 GAS CALL SWAP3 POP POP POP RETURNDATASIZE DUP1 PUSH0 DUP2 EQ PUSH2 0x1B4F JUMPI PUSH1 0x40 MLOAD SWAP2 POP PUSH1 0x1F NOT PUSH1 0x3F RETURNDATASIZE ADD AND DUP3 ADD PUSH1 0x40 MSTORE RETURNDATASIZE DUP3 MSTORE RETURNDATASIZE PUSH0 PUSH1 0x20 DUP5 ADD RETURNDATACOPY PUSH2 0x1B54 JUMP JUMPDEST PUSH1 0x60 SWAP2 POP JUMPDEST POP POP SWAP1 POP DUP1 PUSH2 0x1B98 JUMPI PUSH1 0x40 MLOAD PUSH32 0x8C379A000000000000000000000000000000000000000000000000000000000 DUP2 MSTORE PUSH1 0x4 ADD PUSH2 0x1B8F SWAP1 PUSH2 0x27F3 JUMP JUMPDEST PUSH1 0x40 MLOAD DUP1 SWAP2 SUB SWAP1 REVERT JUMPDEST POP POP POP POP POP POP JUMP JUMPDEST PUSH0 PUSH1 0x20 MSTORE DUP1 PUSH0 MSTORE PUSH1 0x40 PUSH0 KECCAK256 PUSH0 SWAP2 POP SWAP1 POP DUP1 PUSH0 ADD PUSH0 SWAP1 SLOAD SWAP1 PUSH2 0x100 EXP SWAP1 DIV PUSH20 0xFFFFFFFFFFFFFFFFFFFFFFFFFFFFFFFFFFFFFFFF AND SWAP1 DUP1 PUSH1 0x1 ADD SLOAD SWAP1 DUP1 PUSH1 0x2 ADD PUSH0 SWAP1 SLOAD SWAP1 PUSH2 0x100 EXP SWAP1 DIV PUSH1 0xFF AND SWAP1 DUP1 PUSH1 0x2 ADD PUSH1 0x1 SWAP1 SLOAD SWAP1 PUSH2 0x100 EXP SWAP1 DIV PUSH1 0xFF AND SWAP1 DUP1 PUSH1 0x3 ADD SLOAD SWAP1 DUP1 PUSH1 0x4 ADD SLOAD SWAP1 DUP1 PUSH1 0x5 ADD SLOAD SWAP1 DUP1 PUSH1 0x6 ADD PUSH0 SWAP1 SLOAD SWAP1 PUSH2 0x100 EXP SWAP1 DIV PUSH8 0xFFFFFFFFFFFFFFFF AND SWAP1 POP DUP9 JUMP JUMPDEST PUSH1 0x60 PUSH1 0x4 PUSH0 DUP4 PUSH20 0xFFFFFFFFFFFFFFFFFFFFFFFFFFFFFFFFFFFFFFFF AND PUSH20 0xFFFFFFFFFFFFFFFFFFFFFFFFFFFFFFFFFFFFFFFF AND DUP2 MSTORE PUSH1 0x20 ADD SWAP1 DUP2 MSTORE PUSH1 0x20 ADD PUSH0 KECCAK256 DUP1 SLOAD DUP1 PUSH1 0x20 MUL PUSH1 0x20 ADD PUSH1 0x40 MLOAD SWAP1 DUP2 ADD PUSH1 0x40 MSTORE DUP1 SWAP3 SWAP2 SWAP1 DUP2 DUP2 MSTORE PUSH1 0x20 ADD DUP3 DUP1 SLOAD DUP1 ISZERO PUSH2 0x1CB5 JUMPI PUSH1 0x20 MUL DUP3 ADD SWAP2 SWAP1 PUSH0 MSTORE PUSH1 0x20 PUSH0 KECCAK256 SWAP1 JUMPDEST DUP2 SLOAD DUP2 MSTORE PUSH1 0x20 ADD SWAP1 PUSH1 0x1 ADD SWAP1 DUP1 DUP4 GT PUSH2 0x1CA1 JUMPI JUMPDEST POP POP POP POP POP SWAP1 POP SWAP2 SWAP1 POP JUMP JUMPDEST PUSH0 DUP1 PUSH20 0xFFFFFFFFFFFFFFFFFFFFFFFFFFFFFFFFFFFFFFFF AND PUSH0 DUP1 DUP5 DUP2 MSTORE PUSH1 0x20 ADD SWAP1 DUP2 MSTORE PUSH1 0x20 ADD PUSH0 KECCAK256 PUSH0 ADD PUSH0 SWAP1 SLOAD SWAP1 PUSH2 0x100 EXP SWAP1 DIV PUSH20 0xFFFFFFFFFFFFFFFFFFFFFFFFFFFFFFFFFFFFFFFF AND PUSH20 0xFFFFFFFFFFFFFFFFFFFFFFFFFFFFFFFFFFFFFFFF AND EQ ISZERO SWAP1 POP SWAP2 SWAP1 POP JUMP JUMPDEST PUSH1 0x40 MLOAD DUP1 PUSH2 0x100 ADD PUSH1 0x40 MSTORE DUP1 PUSH0 PUSH20 0xFFFFFFFFFFFFFFFFFFFFFFFFFFFFFFFFFFFFFFFF AND DUP2 MSTORE PUSH1 0x20 ADD PUSH0 DUP2 MSTORE PUSH1 0x20 ADD PUSH0 PUSH1 0x2 DUP2 GT ISZERO PUSH2 0x1D6B JUMPI PUSH2 0x1D6A PUSH2 0x204A JUMP JUMPDEST JUMPDEST DUP2 MSTORE PUSH1 0x20 ADD PUSH0 PUSH1 0x1 DUP2 GT ISZERO PUSH2 0x1D83 JUMPI PUSH2 0x1D82 PUSH2 0x204A JUMP JUMPDEST JUMPDEST DUP2 MSTORE PUSH1 0x20 ADD PUSH0 DUP2 MSTORE PUSH1 0x20 ADD PUSH0 DUP2 MSTORE PUSH1 0x20 ADD PUSH0 DUP2 MSTORE PUSH1 0x20 ADD PUSH0 PUSH8 0xFFFFFFFFFFFFFFFF AND DUP2 MSTORE POP SWAP1 JUMP JUMPDEST PUSH0 DUP3 DUP3 MSTORE PUSH1 0x20 DUP3 ADD SWAP1 POP SWAP3 SWAP2 POP POP JUMP JUMPDEST PUSH32 0x75736520637265617465526F6F6D2F6465706F736974207769746820636F6465 PUSH0 DUP3 ADD MSTORE POP JUMP JUMPDEST PUSH0 PUSH2 0x1DEF PUSH1 0x20 DUP4 PUSH2 0x1DAB JUMP JUMPDEST SWAP2 POP PUSH2 0x1DFA DUP3 PUSH2 0x1DBB JUMP JUMPDEST PUSH1 0x20 DUP3 ADD SWAP1 POP SWAP2 SWAP1 POP JUMP JUMPDEST PUSH0 PUSH1 0x20 DUP3 ADD SWAP1 POP DUP2 DUP2 SUB PUSH0 DUP4 ADD MSTORE PUSH2 0x1E1C DUP2 PUSH2 0x1DE3 JUMP JUMPDEST SWAP1 POP SWAP2 SWAP1 POP JUMP JUMPDEST PUSH0 DUP1 REVERT JUMPDEST PUSH0 DUP2 SWAP1 POP SWAP2 SWAP1 POP JUMP JUMPDEST PUSH2 0x1E39 DUP2 PUSH2 0x1E27 JUMP JUMPDEST DUP2 EQ PUSH2 0x1E43 JUMPI PUSH0 DUP1 REVERT JUMPDEST POP JUMP JUMPDEST PUSH0 DUP2 CALLDATALOAD SWAP1 POP PUSH2 0x1E54 DUP2 PUSH2 0x1E30 JUMP JUMPDEST SWAP3 SWAP2 POP POP JUMP JUMPDEST PUSH0 PUSH1 0x20 DUP3 DUP5 SUB SLT ISZERO PUSH2 0x1E6F JUMPI PUSH2 0x1E6E PUSH2 0x1E23 JUMP JUMPDEST JUMPDEST PUSH0 PUSH2 0x1E7C DUP5 DUP3 DUP6 ADD PUSH2 0x1E46 JUMP JUMPDEST SWAP2 POP POP SWAP3 SWAP2 POP POP JUMP JUMPDEST PUSH0 PUSH20 0xFFFFFFFFFFFFFFFFFFFFFFFFFFFFFFFFFFFFFFFF DUP3 AND SWAP1 POP SWAP2 SWAP1 POP JUMP JUMPDEST PUSH0 PUSH2 0x1EAE DUP3 PUSH2 0x1E85 JUMP JUMPDEST SWAP1 POP SWAP2 SWAP1 POP JUMP JUMPDEST PUSH2 0x1EBE DUP2 PUSH2 0x1EA4 JUMP JUMPDEST DUP3 MSTORE POP POP JUMP JUMPDEST PUSH0 PUSH1 0x20 DUP3 ADD SWAP1 POP PUSH2 0x1ED7 PUSH0 DUP4 ADD DUP5 PUSH2 0x1EB5 JUMP JUMPDEST SWAP3 SWAP2 POP POP JUMP JUMPDEST PUSH0 DUP2 MLOAD SWAP1 POP SWAP2 SWAP1 POP JUMP JUMPDEST PUSH0 DUP3 DUP3 MSTORE PUSH1 0x20 DUP3 ADD SWAP1 POP SWAP3 SWAP2 POP POP JUMP JUMPDEST PUSH0 DUP2 SWAP1 POP PUSH1 0x20 DUP3 ADD SWAP1 POP SWAP2 SWAP1 POP JUMP JUMPDEST PUSH2 0x1F0F DUP2 PUSH2 0x1EA4 JUMP JUMPDEST DUP3 MSTORE POP POP JUMP JUMPDEST PUSH0 PUSH2 0x1F20 DUP4 DUP4 PUSH2 0x1F06 JUMP JUMPDEST PUSH1 0x20 DUP4 ADD SWAP1 POP SWAP3 SWAP2 POP POP JUMP JUMPDEST PUSH0 PUSH1 0x20 DUP3 ADD SWAP1 POP SWAP2 SWAP1 POP JUMP JUMPDEST PUSH0 PUSH2 0x1F42 DUP3 PUSH2 0x1EDD JUMP JUMPDEST PUSH2 0x1F4C DUP2 DUP6 PUSH2 0x1EE7 JUMP JUMPDEST SWAP4 POP PUSH2 0x1F57 DUP4 PUSH2 0x1EF7 JUMP JUMPDEST DUP1 PUSH0 JUMPDEST DUP4 DUP2 LT ISZERO PUSH2 0x1F87 JUMPI DUP2 MLOAD PUSH2 0x1F6E DUP9 DUP3 PUSH2 0x1F15 JUMP JUMPDEST SWAP8 POP PUSH2 0x1F79 DUP4 PUSH2 0x1F2C JUMP JUMPDEST SWAP3 POP POP PUSH1 0x1 DUP2 ADD SWAP1 POP PUSH2 0x1F5A JUMP JUMPDEST POP DUP6 SWAP4 POP POP POP POP SWAP3 SWAP2 POP POP JUMP JUMPDEST PUSH0 PUSH1 0x20 DUP3 ADD SWAP1 POP DUP2 DUP2 SUB PUSH0 DUP4 ADD MSTORE PUSH2 0x1FAC DUP2 DUP5 PUSH2 0x1F38 JUMP JUMPDEST SWAP1 POP SWAP3 SWAP2 POP POP JUMP JUMPDEST PUSH2 0x1FBD DUP2 PUSH2 0x1EA4 JUMP JUMPDEST DUP2 EQ PUSH2 0x1FC7 JUMPI PUSH0 DUP1 REVERT JUMPDEST POP JUMP JUMPDEST PUSH0 DUP2 CALLDATALOAD SWAP1 POP PUSH2 0x1FD8 DUP2 PUSH2 0x1FB4 JUMP JUMPDEST SWAP3 SWAP2 POP POP JUMP JUMPDEST PUSH0 PUSH1 0x20 DUP3 DUP5 SUB SLT ISZERO PUSH2 0x1FF3 JUMPI PUSH2 0x1FF2 PUSH2 0x1E23 JUMP JUMPDEST JUMPDEST PUSH0 PUSH2 0x2000 DUP5 DUP3 DUP6 ADD PUSH2 0x1FCA JUMP JUMPDEST SWAP2 POP POP SWAP3 SWAP2 POP POP JUMP JUMPDEST PUSH0 DUP2 MLOAD SWAP1 POP SWAP2 SWAP1 POP JUMP JUMPDEST PUSH0 DUP3 DUP3 MSTORE PUSH1 0x20 DUP3 ADD SWAP1 POP SWAP3 SWAP2 POP POP JUMP JUMPDEST PUSH0 DUP2 SWAP1 POP PUSH1 0x20 DUP3 ADD SWAP1 POP SWAP2 SWAP1 POP JUMP JUMPDEST PUSH0 DUP2 SWAP1 POP SWAP2 SWAP1 POP JUMP JUMPDEST PUSH2 0x2044 DUP2 PUSH2 0x2032 JUMP JUMPDEST DUP3 MSTORE POP POP JUMP JUMPDEST PUSH32 0x4E487B7100000000000000000000000000000000000000000000000000000000 PUSH0 MSTORE PUSH1 0x21 PUSH1 0x4 MSTORE PUSH1 0x24 PUSH0 REVERT JUMPDEST PUSH1 0x3 DUP2 LT PUSH2 0x2088 JUMPI PUSH2 0x2087 PUSH2 0x204A JUMP JUMPDEST JUMPDEST POP JUMP JUMPDEST PUSH0 DUP2 SWAP1 POP PUSH2 0x2098 DUP3 PUSH2 0x2077 JUMP JUMPDEST SWAP2 SWAP1 POP JUMP JUMPDEST PUSH0 PUSH2 0x20A7 DUP3 PUSH2 0x208B JUMP JUMPDEST SWAP1 POP SWAP2 SWAP1 POP JUMP JUMPDEST PUSH2 0x20B7 DUP2 PUSH2 0x209D JUMP JUMPDEST DUP3 MSTORE POP POP JUMP JUMPDEST PUSH1 0x2 DUP2 LT PUSH2 0x20CE JUMPI PUSH2 0x20CD PUSH2 0x204A JUMP JUMPDEST JUMPDEST POP JUMP JUMPDEST PUSH0 DUP2 SWAP1 POP PUSH2 0x20DE DUP3 PUSH2 0x20BD JUMP JUMPDEST SWAP2 SWAP1 POP JUMP JUMPDEST PUSH0 PUSH2 0x20ED DUP3 PUSH2 0x20D1 JUMP JUMPDEST SWAP1 POP SWAP2 SWAP1 POP JUMP JUMPDEST PUSH2 0x20FD DUP2 PUSH2 0x20E3 JUMP JUMPDEST DUP3 MSTORE POP POP JUMP JUMPDEST PUSH0 PUSH8 0xFFFFFFFFFFFFFFFF DUP3 AND SWAP1 POP SWAP2 SWAP1 POP JUMP JUMPDEST PUSH2 0x211F DUP2 PUSH2 0x2103 JUMP JUMPDEST DUP3 MSTORE POP POP JUMP JUMPDEST PUSH2 0x100 DUP3 ADD PUSH0 DUP3 ADD MLOAD PUSH2 0x213A PUSH0 DUP6 ADD DUP3 PUSH2 0x1F06 JUMP JUMPDEST POP PUSH1 0x20 DUP3 ADD MLOAD PUSH2 0x214D PUSH1 0x20 DUP6 ADD DUP3 PUSH2 0x203B JUMP JUMPDEST POP PUSH1 0x40 DUP3 ADD MLOAD PUSH2 0x2160 PUSH1 0x40 DUP6 ADD DUP3 PUSH2 0x20AE JUMP JUMPDEST POP PUSH1 0x60 DUP3 ADD MLOAD PUSH2 0x2173 PUSH1 0x60 DUP6 ADD DUP3 PUSH2 0x20F4 JUMP JUMPDEST POP PUSH1 0x80 DUP3 ADD MLOAD PUSH2 0x2186 PUSH1 0x80 DUP6 ADD DUP3 PUSH2 0x203B JUMP JUMPDEST POP PUSH1 0xA0 DUP3 ADD MLOAD PUSH2 0x2199 PUSH1 0xA0 DUP6 ADD DUP3 PUSH2 0x203B JUMP JUMPDEST POP PUSH1 0xC0 DUP3 ADD MLOAD PUSH2 0x21AC PUSH1 0xC0 DUP6 ADD DUP3 PUSH2 0x203B JUMP JUMPDEST POP PUSH1 0xE0 DUP3 ADD MLOAD PUSH2 0x21BF PUSH1 0xE0 DUP6 ADD DUP3 PUSH2 0x2116 JUMP JUMPDEST POP POP POP POP JUMP JUMPDEST PUSH0 PUSH2 0x21D0 DUP4 DUP4 PUSH2 0x2125 JUMP JUMPDEST PUSH2 0x100 DUP4 ADD SWAP1 POP SWAP3 SWAP2 POP POP JUMP JUMPDEST PUSH0 PUSH1 0x20 DUP3 ADD SWAP1 POP SWAP2 SWAP1 POP JUMP JUMPDEST PUSH0 PUSH2 0x21F3 DUP3 PUSH2 0x2009 JUMP JUMPDEST PUSH2 0x21FD DUP2 DUP6 PUSH2 0x2013 JUMP JUMPDEST SWAP4 POP PUSH2 0x2208 DUP4 PUSH2 0x2023 JUMP JUMPDEST DUP1 PUSH0 JUMPDEST DUP4 DUP2 LT ISZERO PUSH2 0x2238 JUMPI DUP2 MLOAD PUSH2 0x221F DUP9 DUP3 PUSH2 0x21C5 JUMP JUMPDEST SWAP8 POP PUSH2 0x222A DUP4 PUSH2 0x21DD JUMP JUMPDEST SWAP3 POP POP PUSH1 0x1 DUP2 ADD SWAP1 POP PUSH2 0x220B JUMP JUMPDEST POP DUP6 SWAP4 POP POP POP POP SWAP3 SWAP2 POP POP JUMP JUMPDEST PUSH0 DUP2 MLOAD SWAP1 POP SWAP2 SWAP1 POP JUMP JUMPDEST PUSH0 DUP3 DUP3 MSTORE PUSH1 0x20 DUP3 ADD SWAP1 POP SWAP3 SWAP2 POP POP JUMP JUMPDEST PUSH0 DUP2 SWAP1 POP PUSH1 0x20 DUP3 ADD SWAP1 POP SWAP2 SWAP1 POP JUMP JUMPDEST PUSH2 0x2277 DUP2 PUSH2 0x1E27 JUMP JUMPDEST DUP3 MSTORE POP POP JUMP JUMPDEST PUSH0 PUSH2 0x2288 DUP4 DUP4 PUSH2 0x226E JUMP JUMPDEST PUSH1 0x20 DUP4 ADD SWAP1 POP SWAP3 SWAP2 POP POP JUMP JUMPDEST PUSH0 PUSH1 0x20 DUP3 ADD SWAP1 POP SWAP2 SWAP1 POP JUMP JUMPDEST PUSH0 PUSH2 0x22AA DUP3 PUSH2 0x2245 JUMP JUMPDEST PUSH2 0x22B4 DUP2 DUP6 PUSH2 0x224F JUMP JUMPDEST SWAP4 POP PUSH2 0x22BF DUP4 PUSH2 0x225F JUMP JUMPDEST DUP1 PUSH0 JUMPDEST DUP4 DUP2 LT ISZERO PUSH2 0x22EF JUMPI DUP2 MLOAD PUSH2 0x22D6 DUP9 DUP3 PUSH2 0x227D JUMP JUMPDEST SWAP8 POP PUSH2 0x22E1 DUP4 PUSH2 0x2294 JUMP JUMPDEST SWAP3 POP POP PUSH1 0x1 DUP2 ADD SWAP1 POP PUSH2 0x22C2 JUMP JUMPDEST POP DUP6 SWAP4 POP POP POP POP SWAP3 SWAP2 POP POP JUMP JUMPDEST PUSH0 PUSH1 0x40 DUP3 ADD SWAP1 POP DUP2 DUP2 SUB PUSH0 DUP4 ADD MSTORE PUSH2 0x2314 DUP2 DUP6 PUSH2 0x21E9 JUMP JUMPDEST SWAP1 POP DUP2 DUP2 SUB PUSH1 0x20 DUP4 ADD MSTORE PUSH2 0x2328 DUP2 DUP5 PUSH2 0x22A0 JUMP JUMPDEST SWAP1 POP SWAP4 SWAP3 POP POP POP JUMP JUMPDEST PUSH2 0x233A DUP2 PUSH2 0x2032 JUMP JUMPDEST DUP2 EQ PUSH2 0x2344 JUMPI PUSH0 DUP1 REVERT JUMPDEST POP JUMP JUMPDEST PUSH0 DUP2 CALLDATALOAD SWAP1 POP PUSH2 0x2355 DUP2 PUSH2 0x2331 JUMP JUMPDEST SWAP3 SWAP2 POP POP JUMP JUMPDEST PUSH0 DUP1 PUSH0 PUSH1 0x60 DUP5 DUP7 SUB SLT ISZERO PUSH2 0x2372 JUMPI PUSH2 0x2371 PUSH2 0x1E23 JUMP JUMPDEST JUMPDEST PUSH0 PUSH2 0x237F DUP7 DUP3 DUP8 ADD PUSH2 0x2347 JUMP JUMPDEST SWAP4 POP POP PUSH1 0x20 PUSH2 0x2390 DUP7 DUP3 DUP8 ADD PUSH2 0x2347 JUMP JUMPDEST SWAP3 POP POP PUSH1 0x40 PUSH2 0x23A1 DUP7 DUP3 DUP8 ADD PUSH2 0x1E46 JUMP JUMPDEST SWAP2 POP POP SWAP3 POP SWAP3 POP SWAP3 JUMP JUMPDEST PUSH0 DUP1 PUSH1 0x40 DUP4 DUP6 SUB SLT ISZERO PUSH2 0x23C1 JUMPI PUSH2 0x23C0 PUSH2 0x1E23 JUMP JUMPDEST JUMPDEST PUSH0 PUSH2 0x23CE DUP6 DUP3 DUP7 ADD PUSH2 0x1E46 JUMP JUMPDEST SWAP3 POP POP PUSH1 0x20 PUSH2 0x23DF DUP6 DUP3 DUP7 ADD PUSH2 0x1FCA JUMP JUMPDEST SWAP2 POP POP SWAP3 POP SWAP3 SWAP1 POP JUMP JUMPDEST PUSH2 0x23F2 DUP2 PUSH2 0x2032 JUMP JUMPDEST DUP3 MSTORE POP POP JUMP JUMPDEST PUSH2 0x2401 DUP2 PUSH2 0x209D JUMP JUMPDEST DUP3 MSTORE POP POP JUMP JUMPDEST PUSH2 0x2410 DUP2 PUSH2 0x20E3 JUMP JUMPDEST DUP3 MSTORE POP POP JUMP JUMPDEST PUSH2 0x241F DUP2 PUSH2 0x2103 JUMP JUMPDEST DUP3 MSTORE POP POP JUMP JUMPDEST PUSH0 PUSH2 0x100 DUP3 ADD SWAP1 POP PUSH2 0x2439 PUSH0 DUP4 ADD DUP12 PUSH2 0x1EB5 JUMP JUMPDEST PUSH2 0x2446 PUSH1 0x20 DUP4 ADD DUP11 PUSH2 0x23E9 JUMP JUMPDEST PUSH2 0x2453 PUSH1 0x40 DUP4 ADD DUP10 PUSH2 0x23F8 JUMP JUMPDEST PUSH2 0x2460 PUSH1 0x60 DUP4 ADD DUP9 PUSH2 0x2407 JUMP JUMPDEST PUSH2 0x246D PUSH1 0x80 DUP4 ADD DUP8 PUSH2 0x23E9 JUMP JUMPDEST PUSH2 0x247A PUSH1 0xA0 DUP4 ADD DUP7 PUSH2 0x23E9 JUMP JUMPDEST PUSH2 0x2487 PUSH1 0xC0 DUP4 ADD DUP6 PUSH2 0x23E9 JUMP JUMPDEST PUSH2 0x2494 PUSH1 0xE0 DUP4 ADD DUP5 PUSH2 0x2416 JUMP JUMPDEST SWAP10 SWAP9 POP POP POP POP POP POP POP POP POP JUMP JUMPDEST PUSH0 PUSH1 0x20 DUP3 ADD SWAP1 POP DUP2 DUP2 SUB PUSH0 DUP4 ADD MSTORE PUSH2 0x24B9 DUP2 DUP5 PUSH2 0x22A0 JUMP JUMPDEST SWAP1 POP SWAP3 SWAP2 POP POP JUMP JUMPDEST PUSH2 0x24CA DUP2 PUSH2 0x1E27 JUMP JUMPDEST DUP3 MSTORE POP POP JUMP JUMPDEST PUSH0 PUSH1 0x20 DUP3 ADD SWAP1 POP PUSH2 0x24E3 PUSH0 DUP4 ADD DUP5 PUSH2 0x24C1 JUMP JUMPDEST SWAP3 SWAP2 POP POP JUMP JUMPDEST PUSH32 0x4E487B7100000000000000000000000000000000000000000000000000000000 PUSH0 MSTORE PUSH1 0x11 PUSH1 0x4 MSTORE PUSH1 0x24 PUSH0 REVERT JUMPDEST PUSH0 PUSH2 0x2520 DUP3 PUSH2 0x2032 JUMP JUMPDEST SWAP2 POP PUSH0 DUP3 SUB PUSH2 0x2532 JUMPI PUSH2 0x2531 PUSH2 0x24E9 JUMP JUMPDEST JUMPDEST PUSH1 0x1 DUP3 SUB SWAP1 POP SWAP2 SWAP1 POP JUMP JUMPDEST PUSH32 0x4E487B7100000000000000000000000000000000000000000000000000000000 PUSH0 MSTORE PUSH1 0x32 PUSH1 0x4 MSTORE PUSH1 0x24 PUSH0 REVERT JUMPDEST PUSH0 PUSH2 0x2574 DUP3 PUSH2 0x2032 JUMP JUMPDEST SWAP2 POP PUSH2 0x257F DUP4 PUSH2 0x2032 JUMP JUMPDEST SWAP3 POP DUP3 DUP3 SUB SWAP1 POP DUP2 DUP2 GT ISZERO PUSH2 0x2597 JUMPI PUSH2 0x2596 PUSH2 0x24E9 JUMP JUMPDEST JUMPDEST SWAP3 SWAP2 POP POP JUMP JUMPDEST PUSH32 0x4E487B7100000000000000000000000000000000000000000000000000000000 PUSH0 MSTORE PUSH1 0x31 PUSH1 0x4 MSTORE PUSH1 0x24 PUSH0 REVERT JUMPDEST PUSH0 PUSH2 0x25D4 DUP3 PUSH2 0x2032 JUMP JUMPDEST SWAP2 POP PUSH32 0xFFFFFFFFFFFFFFFFFFFFFFFFFFFFFFFFFFFFFFFFFFFFFFFFFFFFFFFFFFFFFFFF DUP3 SUB PUSH2 0x2606 JUMPI PUSH2 0x2605 PUSH2 0x24E9 JUMP JUMPDEST JUMPDEST PUSH1 0x1 DUP3 ADD SWAP1 POP SWAP2 SWAP1 POP JUMP JUMPDEST PUSH0 DUP2 SWAP1 POP SWAP3 SWAP2 POP POP JUMP JUMPDEST POP JUMP JUMPDEST PUSH0 PUSH2 0x2629 PUSH0 DUP4 PUSH2 0x2611 JUMP JUMPDEST SWAP2 POP PUSH2 0x2634 DUP3 PUSH2 0x261B JUMP JUMPDEST PUSH0 DUP3 ADD SWAP1 POP SWAP2 SWAP1 POP JUMP JUMPDEST PUSH0 PUSH2 0x2648 DUP3 PUSH2 0x261E JUMP JUMPDEST SWAP2 POP DUP2 SWAP1 POP SWAP2 SWAP1 POP JUMP JUMPDEST PUSH32 0x526566756E64206661696C757265000000000000000000000000000000000000 PUSH0 DUP3 ADD MSTORE POP JUMP JUMPDEST PUSH0 PUSH2 0x2686 PUSH1 0xE DUP4 PUSH2 0x1DAB JUMP JUMPDEST SWAP2 POP PUSH2 0x2691 DUP3 PUSH2 0x2652 JUMP JUMPDEST PUSH1 0x20 DUP3 ADD SWAP1 POP SWAP2 SWAP1 POP JUMP JUMPDEST PUSH0 PUSH1 0x20 DUP3 ADD SWAP1 POP DUP2 DUP2 SUB PUSH0 DUP4 ADD MSTORE PUSH2 0x26B3 DUP2 PUSH2 0x267A JUMP JUMPDEST SWAP1 POP SWAP2 SWAP1 POP JUMP JUMPDEST PUSH32 0x4E487B7100000000000000000000000000000000000000000000000000000000 PUSH0 MSTORE PUSH1 0x41 PUSH1 0x4 MSTORE PUSH1 0x24 PUSH0 REVERT JUMPDEST PUSH0 PUSH2 0x26F1 DUP3 PUSH2 0x2032 JUMP JUMPDEST SWAP2 POP PUSH2 0x26FC DUP4 PUSH2 0x2032 JUMP JUMPDEST SWAP3 POP DUP3 DUP3 ADD SWAP1 POP DUP1 DUP3 GT ISZERO PUSH2 0x2714 JUMPI PUSH2 0x2713 PUSH2 0x24E9 JUMP JUMPDEST JUMPDEST SWAP3 SWAP2 POP POP JUMP JUMPDEST PUSH0 PUSH1 0x40 DUP3 ADD SWAP1 POP PUSH2 0x272D PUSH0 DUP4 ADD DUP6 PUSH2 0x24C1 JUMP JUMPDEST PUSH2 0x273A PUSH1 0x20 DUP4 ADD DUP5 PUSH2 0x1EB5 JUMP JUMPDEST SWAP4 SWAP3 POP POP POP JUMP JUMPDEST PUSH32 0x4E6F207072697A652062616C616E636500000000000000000000000000000000 PUSH0 DUP3 ADD MSTORE POP JUMP JUMPDEST PUSH0 PUSH2 0x2775 PUSH1 0x10 DUP4 PUSH2 0x1DAB JUMP JUMPDEST SWAP2 POP PUSH2 0x2780 DUP3 PUSH2 0x2741 JUMP JUMPDEST PUSH1 0x20 DUP3 ADD SWAP1 POP SWAP2 SWAP1 POP JUMP JUMPDEST PUSH0 PUSH1 0x20 DUP3 ADD SWAP1 POP DUP2 DUP2 SUB PUSH0 DUP4 ADD MSTORE PUSH2 0x27A2 DUP2 PUSH2 0x2769 JUMP JUMPDEST SWAP1 POP SWAP2 SWAP1 POP JUMP JUMPDEST PUSH32 0x57696E6E6572207061796F7574206661696C7572650000000000000000000000 PUSH0 DUP3 ADD MSTORE POP JUMP JUMPDEST PUSH0 PUSH2 0x27DD PUSH1 0x15 DUP4 PUSH2 0x1DAB JUMP JUMPDEST SWAP2 POP PUSH2 0x27E8 DUP3 PUSH2 0x27A9 JUMP JUMPDEST PUSH1 0x20 DUP3 ADD SWAP1 POP SWAP2 SWAP1 POP JUMP JUMPDEST PUSH0 PUSH1 0x20 DUP3 ADD SWAP1 POP DUP2 DUP2 SUB PUSH0 DUP4 ADD MSTORE PUSH2 0x280A DUP2 PUSH2 0x27D1 JUMP JUMPDEST SWAP1 POP SWAP2 SWAP1 POP JUMP INVALID LOG2 PUSH5 0x6970667358 0x22 SLT KECCAK256 PUSH7 0x5172E0E029596F CODESIZE 0xE4 SWAP4 PUSH3 0xA153AE 0xF 0xE5 CALLER SLT 0xA6 PUSH31 0xAC4BEFD56BE697A9CB6C9D64736F6C63430008140033000000000000000000 "
				},
				"gasEstimates": {
					"creation": {
						"codeDepositCost": "2062200",
						"executionCost": "infinite",
						"totalCost": "infinite"
					},
					"external": {
						"closeRoom(bytes32)": "infinite",
						"createRoom(uint256,uint256,bytes32)": "infinite",
						"deposit(bytes32)": "infinite",
						"getUserRoomCodes(address)": "infinite",
						"getUserRooms(address)": "infinite",
						"joinRoom(bytes32)": "infinite",
						"leaveRoom(bytes32)": "infinite",
						"owner()": "infinite",
						"roomParticipants(bytes32)": "infinite",
						"rooms(bytes32)": "infinite",
						"startRoom(bytes32)": "infinite",
						"winnerSelected(bytes32,address)": "infinite",
						"winners(bytes32)": "2850"
					},
					"internal": {
						"_isRoomExist(bytes32)": "2270"
					}
				},
				"methodIdentifiers": {
					"closeRoom(bytes32)": "af8b9b18",
					"createRoom(uint256,uint256,bytes32)": "b331d13d",
					"deposit(bytes32)": "b214faa5",
					"getUserRoomCodes(address)": "f0375f28",
					"getUserRooms(address)": "b01e7961",
					"joinRoom(bytes32)": "4b29b4c4",
					"leaveRoom(bytes32)": "21fe77aa",
					"owner()": "8da5cb5b",
					"roomParticipants(bytes32)": "5d4ca708",
					"rooms(bytes32)": "d7fbc2e4",
					"startRoom(bytes32)": "a0c2957a",
					"winnerSelected(bytes32,address)": "b48d3baa",
					"winners(bytes32)": "4277f4fd"
				}
			},
			"storageLayout": {
				"storage": [
					{
						"astId": 50,
						"contract": "contracts/Pickr.sol:Pickr",
						"label": "rooms",
						"offset": 0,
						"slot": "0",
						"type": "t_mapping(t_bytes32,t_struct(Room)768_storage)"
					},
					{
						"astId": 56,
						"contract": "contracts/Pickr.sol:Pickr",
						"label": "hasJoined",
						"offset": 0,
						"slot": "1",
						"type": "t_mapping(t_bytes32,t_mapping(t_address,t_bool))"
					},
					{
						"astId": 61,
						"contract": "contracts/Pickr.sol:Pickr",
						"label": "participants",
						"offset": 0,
						"slot": "2",
						"type": "t_mapping(t_bytes32,t_array(t_address)dyn_storage)"
					},
					{
						"astId": 65,
						"contract": "contracts/Pickr.sol:Pickr",
						"label": "winners",
						"offset": 0,
						"slot": "3",
						"type": "t_mapping(t_bytes32,t_address)"
					},
					{
						"astId": 70,
						"contract": "contracts/Pickr.sol:Pickr",
						"label": "roomCodesByCreator",
						"offset": 0,
						"slot": "4",
						"type": "t_mapping(t_address,t_array(t_bytes32)dyn_storage)"
					}
				],
				"types": {
					"t_address": {
						"encoding": "inplace",
						"label": "address",
						"numberOfBytes": "20"
					},
					"t_array(t_address)dyn_storage": {
						"base": "t_address",
						"encoding": "dynamic_array",
						"label": "address[]",
						"numberOfBytes": "32"
					},
					"t_array(t_bytes32)dyn_storage": {
						"base": "t_bytes32",
						"encoding": "dynamic_array",
						"label": "bytes32[]",
						"numberOfBytes": "32"
					},
					"t_bool": {
						"encoding": "inplace",
						"label": "bool",
						"numberOfBytes": "1"
					},
					"t_bytes32": {
						"encoding": "inplace",
						"label": "bytes32",
						"numberOfBytes": "32"
					},
					"t_enum(RoomAccessMode)749": {
						"encoding": "inplace",
						"label": "enum IPickr.RoomAccessMode",
						"numberOfBytes": "1"
					},
					"t_enum(RoomStatus)746": {
						"encoding": "inplace",
						"label": "enum IPickr.RoomStatus",
						"numberOfBytes": "1"
					},
					"t_mapping(t_address,t_array(t_bytes32)dyn_storage)": {
						"encoding": "mapping",
						"key": "t_address",
						"label": "mapping(address => bytes32[])",
						"numberOfBytes": "32",
						"value": "t_array(t_bytes32)dyn_storage"
					},
					"t_mapping(t_address,t_bool)": {
						"encoding": "mapping",
						"key": "t_address",
						"label": "mapping(address => bool)",
						"numberOfBytes": "32",
						"value": "t_bool"
					},
					"t_mapping(t_bytes32,t_address)": {
						"encoding": "mapping",
						"key": "t_bytes32",
						"label": "mapping(bytes32 => address)",
						"numberOfBytes": "32",
						"value": "t_address"
					},
					"t_mapping(t_bytes32,t_array(t_address)dyn_storage)": {
						"encoding": "mapping",
						"key": "t_bytes32",
						"label": "mapping(bytes32 => address[])",
						"numberOfBytes": "32",
						"value": "t_array(t_address)dyn_storage"
					},
					"t_mapping(t_bytes32,t_mapping(t_address,t_bool))": {
						"encoding": "mapping",
						"key": "t_bytes32",
						"label": "mapping(bytes32 => mapping(address => bool))",
						"numberOfBytes": "32",
						"value": "t_mapping(t_address,t_bool)"
					},
					"t_mapping(t_bytes32,t_struct(Room)768_storage)": {
						"encoding": "mapping",
						"key": "t_bytes32",
						"label": "mapping(bytes32 => struct IPickr.Room)",
						"numberOfBytes": "32",
						"value": "t_struct(Room)768_storage"
					},
					"t_struct(Room)768_storage": {
						"encoding": "inplace",
						"label": "struct IPickr.Room",
						"members": [
							{
								"astId": 751,
								"contract": "contracts/Pickr.sol:Pickr",
								"label": "creator",
								"offset": 0,
								"slot": "0",
								"type": "t_address"
							},
							{
								"astId": 753,
								"contract": "contracts/Pickr.sol:Pickr",
								"label": "balance",
								"offset": 0,
								"slot": "1",
								"type": "t_uint256"
							},
							{
								"astId": 756,
								"contract": "contracts/Pickr.sol:Pickr",
								"label": "status",
								"offset": 0,
								"slot": "2",
								"type": "t_enum(RoomStatus)746"
							},
							{
								"astId": 759,
								"contract": "contracts/Pickr.sol:Pickr",
								"label": "accessMode",
								"offset": 1,
								"slot": "2",
								"type": "t_enum(RoomAccessMode)749"
							},
							{
								"astId": 761,
								"contract": "contracts/Pickr.sol:Pickr",
								"label": "maxParticipant",
								"offset": 0,
								"slot": "3",
								"type": "t_uint256"
							},
							{
								"astId": 763,
								"contract": "contracts/Pickr.sol:Pickr",
								"label": "minParticipant",
								"offset": 0,
								"slot": "4",
								"type": "t_uint256"
							},
							{
								"astId": 765,
								"contract": "contracts/Pickr.sol:Pickr",
								"label": "totalParticipant",
								"offset": 0,
								"slot": "5",
								"type": "t_uint256"
							},
							{
								"astId": 767,
								"contract": "contracts/Pickr.sol:Pickr",
								"label": "createdAt",
								"offset": 0,
								"slot": "6",
								"type": "t_uint64"
							}
						],
						"numberOfBytes": "224"
					},
					"t_uint256": {
						"encoding": "inplace",
						"label": "uint256",
						"numberOfBytes": "32"
					},
					"t_uint64": {
						"encoding": "inplace",
						"label": "uint64",
						"numberOfBytes": "8"
					}
				}
			},
			"userdoc": {
				"kind": "user",
				"methods": {},
				"version": 1
			}
		}
	}
}